{
  "address": "0x3a235fd10563fDD954C3199c08f4DA132284287D",
  "abi": [
    {
      "inputs": [
        {
          "internalType": "address",
          "name": "_bzzToken",
          "type": "address"
        },
        {
          "internalType": "uint8",
          "name": "_minimumBucketDepth",
          "type": "uint8"
        }
      ],
      "stateMutability": "nonpayable",
      "type": "constructor"
    },
    {
      "inputs": [],
      "name": "AdministratorOnly",
      "type": "error"
    },
    {
      "inputs": [],
      "name": "BatchDoesNotExist",
      "type": "error"
    },
    {
      "inputs": [],
      "name": "BatchExists",
      "type": "error"
    },
    {
      "inputs": [],
      "name": "BatchExpired",
      "type": "error"
    },
    {
      "inputs": [],
      "name": "BatchTooSmall",
      "type": "error"
    },
    {
      "inputs": [],
      "name": "DepthNotIncreasing",
      "type": "error"
    },
    {
      "inputs": [],
      "name": "InsufficienChunkCount",
      "type": "error"
    },
    {
      "inputs": [],
      "name": "InsufficientBalance",
      "type": "error"
    },
    {
      "inputs": [],
      "name": "InvalidDepth",
      "type": "error"
    },
    {
      "inputs": [],
      "name": "NoBatchesExist",
      "type": "error"
    },
    {
      "inputs": [],
      "name": "NotBatchOwner",
      "type": "error"
    },
    {
      "inputs": [],
      "name": "OnlyPauser",
      "type": "error"
    },
    {
      "inputs": [],
      "name": "OnlyRedistributor",
      "type": "error"
    },
    {
      "inputs": [],
      "name": "PriceOracleOnly",
      "type": "error"
    },
    {
      "inputs": [],
      "name": "TotalOutpaymentDecreased",
      "type": "error"
    },
    {
      "inputs": [],
      "name": "TransferFailed",
      "type": "error"
    },
    {
      "inputs": [],
      "name": "ValueCannotBeZero",
      "type": "error"
    },
    {
      "inputs": [],
      "name": "ValueDoesNotExist",
      "type": "error"
    },
    {
      "inputs": [],
      "name": "ValueKeyPairExists",
      "type": "error"
    },
    {
      "inputs": [],
      "name": "ZeroAddress",
      "type": "error"
    },
    {
      "inputs": [],
      "name": "ZeroBalance",
      "type": "error"
    },
    {
      "anonymous": false,
      "inputs": [
        {
          "indexed": true,
          "internalType": "bytes32",
          "name": "batchId",
          "type": "bytes32"
        },
        {
          "indexed": false,
          "internalType": "uint256",
          "name": "totalAmount",
          "type": "uint256"
        },
        {
          "indexed": false,
          "internalType": "uint256",
          "name": "normalisedBalance",
          "type": "uint256"
        },
        {
          "indexed": false,
          "internalType": "address",
          "name": "owner",
          "type": "address"
        },
        {
          "indexed": false,
          "internalType": "uint8",
          "name": "depth",
          "type": "uint8"
        },
        {
          "indexed": false,
          "internalType": "uint8",
          "name": "bucketDepth",
          "type": "uint8"
        },
        {
          "indexed": false,
          "internalType": "bool",
          "name": "immutableFlag",
          "type": "bool"
        }
      ],
      "name": "BatchCreated",
      "type": "event"
    },
    {
      "anonymous": false,
      "inputs": [
        {
          "indexed": true,
          "internalType": "bytes32",
          "name": "batchId",
          "type": "bytes32"
        },
        {
          "indexed": false,
          "internalType": "uint8",
          "name": "newDepth",
          "type": "uint8"
        },
        {
          "indexed": false,
          "internalType": "uint256",
          "name": "normalisedBalance",
          "type": "uint256"
        }
      ],
      "name": "BatchDepthIncrease",
      "type": "event"
    },
    {
      "anonymous": false,
      "inputs": [
        {
          "indexed": true,
          "internalType": "bytes32",
          "name": "batchId",
          "type": "bytes32"
        },
        {
          "indexed": false,
          "internalType": "uint256",
          "name": "topupAmount",
          "type": "uint256"
        },
        {
          "indexed": false,
          "internalType": "uint256",
          "name": "normalisedBalance",
          "type": "uint256"
        }
      ],
      "name": "BatchTopUp",
      "type": "event"
    },
    {
      "anonymous": false,
      "inputs": [
        {
          "indexed": false,
          "internalType": "address",
          "name": "account",
          "type": "address"
        }
      ],
      "name": "Paused",
      "type": "event"
    },
    {
      "anonymous": false,
      "inputs": [
        {
          "indexed": false,
          "internalType": "address",
          "name": "recipient",
          "type": "address"
        },
        {
          "indexed": false,
          "internalType": "uint256",
          "name": "totalAmount",
          "type": "uint256"
        }
      ],
      "name": "PotWithdrawn",
      "type": "event"
    },
    {
      "anonymous": false,
      "inputs": [
        {
          "indexed": false,
          "internalType": "uint256",
          "name": "price",
          "type": "uint256"
        }
      ],
      "name": "PriceUpdate",
      "type": "event"
    },
    {
      "anonymous": false,
      "inputs": [
        {
          "indexed": true,
          "internalType": "bytes32",
          "name": "role",
          "type": "bytes32"
        },
        {
          "indexed": true,
          "internalType": "bytes32",
          "name": "previousAdminRole",
          "type": "bytes32"
        },
        {
          "indexed": true,
          "internalType": "bytes32",
          "name": "newAdminRole",
          "type": "bytes32"
        }
      ],
      "name": "RoleAdminChanged",
      "type": "event"
    },
    {
      "anonymous": false,
      "inputs": [
        {
          "indexed": true,
          "internalType": "bytes32",
          "name": "role",
          "type": "bytes32"
        },
        {
          "indexed": true,
          "internalType": "address",
          "name": "account",
          "type": "address"
        },
        {
          "indexed": true,
          "internalType": "address",
          "name": "sender",
          "type": "address"
        }
      ],
      "name": "RoleGranted",
      "type": "event"
    },
    {
      "anonymous": false,
      "inputs": [
        {
          "indexed": true,
          "internalType": "bytes32",
          "name": "role",
          "type": "bytes32"
        },
        {
          "indexed": true,
          "internalType": "address",
          "name": "account",
          "type": "address"
        },
        {
          "indexed": true,
          "internalType": "address",
          "name": "sender",
          "type": "address"
        }
      ],
      "name": "RoleRevoked",
      "type": "event"
    },
    {
      "anonymous": false,
      "inputs": [
        {
          "indexed": false,
          "internalType": "address",
          "name": "account",
          "type": "address"
        }
      ],
      "name": "Unpaused",
      "type": "event"
    },
    {
      "inputs": [],
      "name": "DEFAULT_ADMIN_ROLE",
      "outputs": [
        {
          "internalType": "bytes32",
          "name": "",
          "type": "bytes32"
        }
      ],
      "stateMutability": "view",
      "type": "function"
    },
    {
      "inputs": [],
      "name": "PAUSER_ROLE",
      "outputs": [
        {
          "internalType": "bytes32",
          "name": "",
          "type": "bytes32"
        }
      ],
      "stateMutability": "view",
      "type": "function"
    },
    {
      "inputs": [],
      "name": "PRICE_ORACLE_ROLE",
      "outputs": [
        {
          "internalType": "bytes32",
          "name": "",
          "type": "bytes32"
        }
      ],
      "stateMutability": "view",
      "type": "function"
    },
    {
      "inputs": [],
      "name": "REDISTRIBUTOR_ROLE",
      "outputs": [
        {
          "internalType": "bytes32",
          "name": "",
          "type": "bytes32"
        }
      ],
      "stateMutability": "view",
      "type": "function"
    },
    {
      "inputs": [
        {
          "internalType": "bytes32",
          "name": "_batchId",
          "type": "bytes32"
        }
      ],
      "name": "batchBucketDepth",
      "outputs": [
        {
          "internalType": "uint8",
          "name": "",
          "type": "uint8"
        }
      ],
      "stateMutability": "view",
      "type": "function"
    },
    {
      "inputs": [
        {
          "internalType": "bytes32",
          "name": "_batchId",
          "type": "bytes32"
        }
      ],
      "name": "batchDepth",
      "outputs": [
        {
          "internalType": "uint8",
          "name": "",
          "type": "uint8"
        }
      ],
      "stateMutability": "view",
      "type": "function"
    },
    {
      "inputs": [
        {
          "internalType": "bytes32",
          "name": "_batchId",
          "type": "bytes32"
        }
      ],
      "name": "batchImmutableFlag",
      "outputs": [
        {
          "internalType": "bool",
          "name": "",
          "type": "bool"
        }
      ],
      "stateMutability": "view",
      "type": "function"
    },
    {
      "inputs": [
        {
          "internalType": "bytes32",
          "name": "_batchId",
          "type": "bytes32"
        }
      ],
      "name": "batchLastUpdatedBlockNumber",
      "outputs": [
        {
          "internalType": "uint256",
          "name": "",
          "type": "uint256"
        }
      ],
      "stateMutability": "view",
      "type": "function"
    },
    {
      "inputs": [
        {
          "internalType": "bytes32",
          "name": "_batchId",
          "type": "bytes32"
        }
      ],
      "name": "batchNormalisedBalance",
      "outputs": [
        {
          "internalType": "uint256",
          "name": "",
          "type": "uint256"
        }
      ],
      "stateMutability": "view",
      "type": "function"
    },
    {
      "inputs": [
        {
          "internalType": "bytes32",
          "name": "_batchId",
          "type": "bytes32"
        }
      ],
      "name": "batchOwner",
      "outputs": [
        {
          "internalType": "address",
          "name": "",
          "type": "address"
        }
      ],
      "stateMutability": "view",
      "type": "function"
    },
    {
      "inputs": [
        {
          "internalType": "bytes32",
          "name": "",
          "type": "bytes32"
        }
      ],
      "name": "batches",
      "outputs": [
        {
          "internalType": "address",
          "name": "owner",
          "type": "address"
        },
        {
          "internalType": "uint8",
          "name": "depth",
          "type": "uint8"
        },
        {
          "internalType": "uint8",
          "name": "bucketDepth",
          "type": "uint8"
        },
        {
          "internalType": "bool",
          "name": "immutableFlag",
          "type": "bool"
        },
        {
          "internalType": "uint256",
          "name": "normalisedBalance",
          "type": "uint256"
        },
        {
          "internalType": "uint256",
          "name": "lastUpdatedBlockNumber",
          "type": "uint256"
        }
      ],
      "stateMutability": "view",
      "type": "function"
    },
    {
      "inputs": [],
      "name": "bzzToken",
      "outputs": [
        {
          "internalType": "address",
          "name": "",
          "type": "address"
        }
      ],
      "stateMutability": "view",
      "type": "function"
    },
    {
      "inputs": [
        {
          "internalType": "address",
          "name": "_owner",
          "type": "address"
        },
        {
          "internalType": "uint256",
          "name": "_initialBalancePerChunk",
          "type": "uint256"
        },
        {
          "internalType": "uint8",
          "name": "_depth",
          "type": "uint8"
        },
        {
          "internalType": "uint8",
          "name": "_bucketDepth",
          "type": "uint8"
        },
        {
          "internalType": "bytes32",
          "name": "_batchId",
          "type": "bytes32"
        },
        {
          "internalType": "bool",
          "name": "_immutable",
          "type": "bool"
        }
      ],
      "name": "copyBatch",
      "outputs": [],
      "stateMutability": "nonpayable",
      "type": "function"
    },
    {
      "inputs": [
        {
          "components": [
            {
              "internalType": "bytes32",
              "name": "batchId",
              "type": "bytes32"
            },
            {
              "internalType": "address",
              "name": "owner",
              "type": "address"
            },
            {
              "internalType": "uint8",
              "name": "depth",
              "type": "uint8"
            },
            {
              "internalType": "uint8",
              "name": "bucketDepth",
              "type": "uint8"
            },
            {
              "internalType": "bool",
              "name": "immutableFlag",
              "type": "bool"
            },
            {
              "internalType": "uint256",
              "name": "remainingBalance",
              "type": "uint256"
            }
          ],
          "internalType": "struct PostageStamp.ImportBatch[]",
          "name": "bulkBatches",
          "type": "tuple[]"
        }
      ],
      "name": "copyBatchBulk",
      "outputs": [],
      "stateMutability": "nonpayable",
      "type": "function"
    },
    {
      "inputs": [
        {
          "internalType": "address",
          "name": "_owner",
          "type": "address"
        },
        {
          "internalType": "uint256",
          "name": "_initialBalancePerChunk",
          "type": "uint256"
        },
        {
          "internalType": "uint8",
          "name": "_depth",
          "type": "uint8"
        },
        {
          "internalType": "uint8",
          "name": "_bucketDepth",
          "type": "uint8"
        },
        {
          "internalType": "bytes32",
          "name": "_nonce",
          "type": "bytes32"
        },
        {
          "internalType": "bool",
          "name": "_immutable",
          "type": "bool"
        }
      ],
      "name": "createBatch",
      "outputs": [
        {
          "internalType": "bytes32",
          "name": "",
          "type": "bytes32"
        }
      ],
      "stateMutability": "nonpayable",
      "type": "function"
    },
    {
      "inputs": [],
      "name": "currentTotalOutPayment",
      "outputs": [
        {
          "internalType": "uint256",
          "name": "",
          "type": "uint256"
        }
      ],
      "stateMutability": "view",
      "type": "function"
    },
    {
      "inputs": [
        {
          "internalType": "uint256",
          "name": "limit",
          "type": "uint256"
        }
      ],
      "name": "expireLimited",
      "outputs": [],
      "stateMutability": "nonpayable",
      "type": "function"
    },
    {
      "inputs": [],
      "name": "expiredBatchesExist",
      "outputs": [
        {
          "internalType": "bool",
          "name": "",
          "type": "bool"
        }
      ],
      "stateMutability": "view",
      "type": "function"
    },
    {
      "inputs": [],
      "name": "firstBatchId",
      "outputs": [
        {
          "internalType": "bytes32",
          "name": "",
          "type": "bytes32"
        }
      ],
      "stateMutability": "view",
      "type": "function"
    },
    {
      "inputs": [
        {
          "internalType": "bytes32",
          "name": "role",
          "type": "bytes32"
        }
      ],
      "name": "getRoleAdmin",
      "outputs": [
        {
          "internalType": "bytes32",
          "name": "",
          "type": "bytes32"
        }
      ],
      "stateMutability": "view",
      "type": "function"
    },
    {
      "inputs": [
        {
          "internalType": "bytes32",
          "name": "role",
          "type": "bytes32"
        },
        {
          "internalType": "address",
          "name": "account",
          "type": "address"
        }
      ],
      "name": "grantRole",
      "outputs": [],
      "stateMutability": "nonpayable",
      "type": "function"
    },
    {
      "inputs": [
        {
          "internalType": "bytes32",
          "name": "role",
          "type": "bytes32"
        },
        {
          "internalType": "address",
          "name": "account",
          "type": "address"
        }
      ],
      "name": "hasRole",
      "outputs": [
        {
          "internalType": "bool",
          "name": "",
          "type": "bool"
        }
      ],
      "stateMutability": "view",
      "type": "function"
    },
    {
      "inputs": [
        {
          "internalType": "bytes32",
          "name": "_batchId",
          "type": "bytes32"
        },
        {
          "internalType": "uint8",
          "name": "_newDepth",
          "type": "uint8"
        }
      ],
      "name": "increaseDepth",
      "outputs": [],
      "stateMutability": "nonpayable",
      "type": "function"
    },
    {
      "inputs": [],
      "name": "isBatchesTreeEmpty",
      "outputs": [
        {
          "internalType": "bool",
          "name": "",
          "type": "bool"
        }
      ],
      "stateMutability": "view",
      "type": "function"
    },
    {
      "inputs": [],
      "name": "lastExpiryBalance",
      "outputs": [
        {
          "internalType": "uint256",
          "name": "",
          "type": "uint256"
        }
      ],
      "stateMutability": "view",
      "type": "function"
    },
    {
      "inputs": [],
      "name": "lastPrice",
      "outputs": [
        {
          "internalType": "uint64",
          "name": "",
          "type": "uint64"
        }
      ],
      "stateMutability": "view",
      "type": "function"
    },
    {
      "inputs": [],
      "name": "lastUpdatedBlock",
      "outputs": [
        {
          "internalType": "uint64",
          "name": "",
          "type": "uint64"
        }
      ],
      "stateMutability": "view",
      "type": "function"
    },
    {
      "inputs": [],
      "name": "minimumBucketDepth",
      "outputs": [
        {
          "internalType": "uint8",
          "name": "",
          "type": "uint8"
        }
      ],
      "stateMutability": "view",
      "type": "function"
    },
    {
      "inputs": [],
      "name": "minimumInitialBalancePerChunk",
      "outputs": [
        {
          "internalType": "uint256",
          "name": "",
          "type": "uint256"
        }
      ],
      "stateMutability": "view",
      "type": "function"
    },
    {
      "inputs": [],
      "name": "minimumValidityBlocks",
      "outputs": [
        {
          "internalType": "uint64",
          "name": "",
          "type": "uint64"
        }
      ],
      "stateMutability": "view",
      "type": "function"
    },
    {
      "inputs": [],
      "name": "pause",
      "outputs": [],
      "stateMutability": "nonpayable",
      "type": "function"
    },
    {
      "inputs": [],
      "name": "paused",
      "outputs": [
        {
          "internalType": "bool",
          "name": "",
          "type": "bool"
        }
      ],
      "stateMutability": "view",
      "type": "function"
    },
    {
      "inputs": [],
      "name": "pot",
      "outputs": [
        {
          "internalType": "uint256",
          "name": "",
          "type": "uint256"
        }
      ],
      "stateMutability": "view",
      "type": "function"
    },
    {
      "inputs": [
        {
          "internalType": "bytes32",
          "name": "_batchId",
          "type": "bytes32"
        }
      ],
      "name": "remainingBalance",
      "outputs": [
        {
          "internalType": "uint256",
          "name": "",
          "type": "uint256"
        }
      ],
      "stateMutability": "view",
      "type": "function"
    },
    {
      "inputs": [
        {
          "internalType": "bytes32",
          "name": "role",
          "type": "bytes32"
        },
        {
          "internalType": "address",
          "name": "account",
          "type": "address"
        }
      ],
      "name": "renounceRole",
      "outputs": [],
      "stateMutability": "nonpayable",
      "type": "function"
    },
    {
      "inputs": [
        {
          "internalType": "bytes32",
          "name": "role",
          "type": "bytes32"
        },
        {
          "internalType": "address",
          "name": "account",
          "type": "address"
        }
      ],
      "name": "revokeRole",
      "outputs": [],
      "stateMutability": "nonpayable",
      "type": "function"
    },
    {
      "inputs": [
        {
          "internalType": "uint64",
          "name": "_value",
          "type": "uint64"
        }
      ],
      "name": "setMinimumValidityBlocks",
      "outputs": [],
      "stateMutability": "nonpayable",
      "type": "function"
    },
    {
      "inputs": [
        {
          "internalType": "uint256",
          "name": "_price",
          "type": "uint256"
        }
      ],
      "name": "setPrice",
      "outputs": [],
      "stateMutability": "nonpayable",
      "type": "function"
    },
    {
      "inputs": [
        {
          "internalType": "bytes4",
          "name": "interfaceId",
          "type": "bytes4"
        }
      ],
      "name": "supportsInterface",
      "outputs": [
        {
          "internalType": "bool",
          "name": "",
          "type": "bool"
        }
      ],
      "stateMutability": "view",
      "type": "function"
    },
    {
      "inputs": [
        {
          "internalType": "bytes32",
          "name": "_batchId",
          "type": "bytes32"
        },
        {
          "internalType": "uint256",
          "name": "_topupAmountPerChunk",
          "type": "uint256"
        }
      ],
      "name": "topUp",
      "outputs": [],
      "stateMutability": "nonpayable",
      "type": "function"
    },
    {
      "inputs": [],
      "name": "totalPot",
      "outputs": [
        {
          "internalType": "uint256",
          "name": "",
          "type": "uint256"
        }
      ],
      "stateMutability": "nonpayable",
      "type": "function"
    },
    {
      "inputs": [],
      "name": "unPause",
      "outputs": [],
      "stateMutability": "nonpayable",
      "type": "function"
    },
    {
      "inputs": [],
      "name": "validChunkCount",
      "outputs": [
        {
          "internalType": "uint256",
          "name": "",
          "type": "uint256"
        }
      ],
      "stateMutability": "view",
      "type": "function"
    },
    {
      "inputs": [
        {
          "internalType": "address",
          "name": "beneficiary",
          "type": "address"
        }
      ],
      "name": "withdraw",
      "outputs": [],
      "stateMutability": "nonpayable",
      "type": "function"
    }
  ],
  "transactionHash": "0x5bf265ba6056713e1863ac745eccbe00a9c9ba0b3a0d270d101dad9eaf59fd44",
  "args": [
    "0xdBF3Ea6F5beE45c02255B2c26a16F300502F68da",
    16
  ],
  "numDeployments": 1,
  "solcInputHash": "42528a7f0139ce40f254021c5250f198",
  "bytecode": "0x60e060405260098054600160401b600160801b03191669438000000000000000001790553480156200003057600080fd5b5060405162003ab038038062003ab08339810160408190526200005391620001c4565b600180546001600160b01b0319166101006001600160a01b0385160260ff60a81b191617600160a81b60ff8416021790557f1337d7d57528a8879766fdf2d0456253114c66c4fc263c97168bfdb007c64c666080527f65d7a28e3265b37a6474929f336521b332c1681b933f6cb9f3376673440d862a60a0527f3e35b14a9f4fef84b59f9bdcd3044fc28783144b7e42bfb2cd075e6a02cb082860c052620000fd60003362000114565b60a0516200010c903362000114565b505062000213565b62000120828262000124565b5050565b6000828152602081815260408083206001600160a01b038516845290915290205460ff1662000120576000828152602081815260408083206001600160a01b03851684529091529020805460ff19166001179055620001803390565b6001600160a01b0316816001600160a01b0316837f2f8788117e7eff1d82e926ec794901d17c78024a50270940304540a733656f0d60405160405180910390a45050565b60008060408385031215620001d857600080fd5b82516001600160a01b0381168114620001f057600080fd5b602084015190925060ff811681146200020857600080fd5b809150509250929050565b60805160a05160c0516138516200025f600039600081816105bb015261107201526000818161075e015281816117940152611d12015260008181610609015261188501526138516000f3fe608060405234801561001057600080fd5b50600436106102f45760003560e01c806381e508b911610191578063b998902f116100e3578063dd483cfb11610097578063ea612e1f11610071578063ea612e1f14610780578063f7b188a514610789578063f90ce5ba1461079157600080fd5b8063dd483cfb14610716578063df67438514610736578063e63ab1e91461075957600080fd5b8063d547741f116100c8578063d547741f146106c6578063d71ba7c4146106d9578063d968f44b146106ec57600080fd5b8063b998902f14610604578063c81e25ab1461062b57600080fd5b806391b7f5ed11610145578063a6471a1d1161011f578063a6471a1d146105b6578063a81064ee146105dd578063b67644b9146105f157600080fd5b806391b7f5ed1461056457806391d1485414610577578063a217fddf146105ae57600080fd5b80638a5e8e32116101765780638a5e8e321461054b5780638b82547f14610554578063906978421461055c57600080fd5b806381e508b91461051f5780638456cb591461054357600080fd5b8063420fc4db1161024a57806351b17cd0116101fe5780635c975abb116101d85780635c975abb146104f9578063628de87714610504578063711bfa2b1461051757600080fd5b806351b17cd0146104cb57806351cff8d9146104d35780635239af71146104e657600080fd5b806347aab79b1161022f57806347aab79b1461049c5780634ba2363a146104af5780634bb13e34146104b857600080fd5b8063420fc4db1461045a57806344beae8e1461047257600080fd5b80632182ddb1116102ac5780632f2ff15d116102865780632f2ff15d146103f857806332ac57dd1461040b57806336568abe1461044757600080fd5b80632182ddb11461037e578063248a9ca3146103bf57806324b570a9146103f057600080fd5b80631889b99b116102dd5780631889b99b1461034e57806318c8572f146103565780631a37b4851461036b57600080fd5b806301ffc9a7146102f9578063053f14da14610321575b600080fd5b61030c61030736600461330e565b6107ac565b60405190151581526020015b60405180910390f35b6009546103359067ffffffffffffffff1681565b60405167ffffffffffffffff9091168152602001610318565b61030c610845565b610369610364366004613391565b610857565b005b6103696103793660046133fb565b610af1565b6103a761038c366004613425565b6000908152600260205260409020546001600160a01b031690565b6040516001600160a01b039091168152602001610318565b6103e26103cd366004613425565b60009081526020819052604090206001015490565b604051908152602001610318565b6103e2610b87565b61036961040636600461343e565b610c3a565b610435610419366004613425565b600090815260026020526040902054600160a81b900460ff1690565b60405160ff9091168152602001610318565b61036961045536600461343e565b610c64565b6001546103a79061010090046001600160a01b031681565b610435610480366004613425565b600090815260026020526040902054600160a01b900460ff1690565b6103696104aa36600461346a565b610cf5565b6103e260075481565b6103696104c636600461348d565b610fa8565b6103e2611018565b6103696104e1366004613502565b611070565b6103e26104f4366004613391565b6111ed565b60015460ff1661030c565b610369610512366004613425565b61154b565b61030c611769565b6103e261052d366004613425565b6000908152600260208190526040909120015490565b610369611792565b6103e260065481565b6103e26117f5565b6103e261184b565b610369610572366004613425565b611883565b61030c61058536600461343e565b6000918252602082815260408084206001600160a01b0393909316845291905290205460ff1690565b6103e2600081565b6103e27f000000000000000000000000000000000000000000000000000000000000000081565b60015461043590600160a81b900460ff1681565b6103696105ff36600461351d565b611992565b6103e27f000000000000000000000000000000000000000000000000000000000000000081565b610686610639366004613425565b60026020819052600091825260409091208054600182015491909201546001600160a01b0383169260ff600160a01b8204811693600160a81b8304821693600160b01b9093049091169186565b604080516001600160a01b0397909716875260ff9586166020880152939094169285019290925215156060840152608083015260a082015260c001610318565b6103696106d436600461343e565b611c26565b6103e26106e7366004613425565b611c4b565b61030c6106fa366004613425565b600090815260026020526040902054600160b01b900460ff1690565b6009546103359068010000000000000000900467ffffffffffffffff1681565b6103e2610744366004613425565b60009081526002602052604090206001015490565b6103e27f000000000000000000000000000000000000000000000000000000000000000081565b6103e260085481565b610369611d10565b60095461033590600160801b900467ffffffffffffffff1681565b60007fffffffff0000000000000000000000000000000000000000000000000000000082167f7965db0b00000000000000000000000000000000000000000000000000000000148061083f57507f01ffc9a7000000000000000000000000000000000000000000000000000000007fffffffff000000000000000000000000000000000000000000000000000000008316145b92915050565b60006108516003611d71565b15919050565b61085f611d81565b3360009081527fad3228b676f7d3cd4284a5443f17f1962b36e491b30a40b2405849e597ba5fb5602052604090205460ff166108ae57604051635844c9e760e11b815260040160405180910390fd5b6001600160a01b0386166108d55760405163d92e233d60e01b815260040160405180910390fd5b60ff831615806108eb57508360ff168360ff1610155b1561090957604051630a0b2c3560e41b815260040160405180910390fd5b6000828152600260205260409020546001600160a01b03161561093f576040516311ab459f60e21b815260040160405180910390fd5b6000610951600160ff87161b87613555565b905060008661095e611018565b610968919061356c565b90508060000361098b5760405163334ab3f560e11b815260040160405180910390fd5b61099660001961154b565b8560ff166001901b600660008282546109af919061356c565b90915550506040805160c0810182526001600160a01b03808b16825260ff808a1660208085019182528a831685870190815289151560608701908152608087018981524360a0890190815260008e815260029586905299909920975188549551935192511515600160b01b0260ff60b01b19938816600160a81b029390931661ffff60a81b1994909716600160a01b0274ffffffffffffffffffffffffffffffffffffffffff19909616971696909617939093171692909217178355905160018301559151910155610a8360038583611dd4565b60408051838152602081018390526001600160a01b038a168183015260ff88811660608301528716608082015284151560a0820152905185917f9b088e2c89b322a3c1d81515e1c88db3d386d022926f0e2d0b9b5813b7413d58919081900360c00190a25050505050505050565b3360009081527fad3228b676f7d3cd4284a5443f17f1962b36e491b30a40b2405849e597ba5fb5602052604090205460ff16610b4057604051635844c9e760e11b815260040160405180910390fd5b6009805467ffffffffffffffff90921668010000000000000000027fffffffffffffffffffffffffffffffff0000000000000000ffffffffffffffff909216919091179055565b6000610b9460001961154b565b6001546040517f70a0823100000000000000000000000000000000000000000000000000000000815230600482015260009161010090046001600160a01b0316906370a0823190602401602060405180830381865afa158015610bfb573d6000803e3d6000fd5b505050506040513d601f19601f82011682018060405250810190610c1f919061357f565b90508060075410610c305780610c34565b6007545b91505090565b600082815260208190526040902060010154610c5581611fd7565b610c5f8383611fe4565b505050565b6001600160a01b0381163314610ce75760405162461bcd60e51b815260206004820152602f60248201527f416363657373436f6e74726f6c3a2063616e206f6e6c792072656e6f756e636560448201527f20726f6c657320666f722073656c66000000000000000000000000000000000060648201526084015b60405180910390fd5b610cf18282612082565b5050565b610cfd611d81565b600082815260026020818152604092839020835160c08101855281546001600160a01b03811680835260ff600160a01b8304811695840195909552600160a81b8204851696830196909652600160b01b900490921615156060830152600181015460808301529091015460a0820152903314610da5576040517fb72bcb2f00000000000000000000000000000000000000000000000000000000815260040160405180910390fd5b60015460ff808416600160a81b90920416108015610dcc57508160ff16816020015160ff16105b610e02576040517fd5fd03fc00000000000000000000000000000000000000000000000000000000815260040160405180910390fd5b610e0a611018565b816080015111610e2d576040516368aebbc560e01b815260040160405180910390fd5b6000816020015183610e3f9190613598565b90506000600160ff83161b610e5386611c4b565b610e5d91906135b1565b9050610e6761184b565b811015610e8757604051631e9acf1760e31b815260040160405180910390fd5b610e9260001961154b565b826020015160ff166001901b8460ff166001901b610eb091906135d3565b60066000828254610ec1919061356c565b90915550506080830151610ed9906003908790612101565b600085815260026020819052604090912080547fffffffffffffffffffffff00ffffffffffffffffffffffffffffffffffffffff16600160a01b60ff8816021781554391015580610f28611018565b610f32919061356c565b6080840181815260008781526002602052604090206001019190915551610f5d906003908790611dd4565b60808301516040805160ff87168152602081019290925286917faf27998ec15e9d3809edad41aec1b5551d8412e71bd07c91611a0237ead1dc8e910160405180910390a25050505050565b60005b81811015610c5f576000838383818110610fc757610fc76135e6565b905060c00201803603810190610fdd9190613612565b905061100581602001518260a001518360400151846060015185600001518660800151610857565b5080611010816136b4565b915050610fab565b600954600090819061103b90600160801b900467ffffffffffffffff16436135d3565b60095490915060009061105990839067ffffffffffffffff16613555565b905080600554611069919061356c565b9250505090565b7f000000000000000000000000000000000000000000000000000000000000000060009081526020818152604080832033845290915290205460ff166110e2576040517f24876df800000000000000000000000000000000000000000000000000000000815260040160405180910390fd5b60006110ec610b87565b6001546040517fa9059cbb0000000000000000000000000000000000000000000000000000000081526001600160a01b038581166004830152602482018490529293506101009091049091169063a9059cbb906044016020604051808303816000875af1158015611161573d6000803e3d6000fd5b505050506040513d601f19601f8201168201806040525081019061118591906136cd565b6111a2576040516312171d8360e31b815260040160405180910390fd5b604080516001600160a01b0384168152602081018390527ff5d8f9b1e7af440e1e7915f4693ccc004d1461a7dafd17ea7347d03decf298e1910160405180910390a150506000600755565b60006111f7611d81565b6001600160a01b03871661121e5760405163d92e233d60e01b815260040160405180910390fd5b60ff8416158061123d575060015460ff600160a81b9091048116908516105b8061124e57508460ff168460ff1610155b1561126c57604051630a0b2c3560e41b815260040160405180910390fd5b6040805133602082015290810184905260009060600160408051601f198184030181529181528151602092830120600081815260029093529120549091506001600160a01b0316156112d1576040516311ab459f60e21b815260040160405180910390fd5b6112d961184b565b8710156112f957604051631e9acf1760e31b815260040160405180910390fd5b600061130b600160ff89161b89613555565b6001546040516323b872dd60e01b81523360048201523060248201526044810183905291925061010090046001600160a01b0316906323b872dd906064016020604051808303816000875af1158015611368573d6000803e3d6000fd5b505050506040513d601f19601f8201168201806040525081019061138c91906136cd565b6113a9576040516312171d8360e31b815260040160405180910390fd5b6000886113b4611018565b6113be919061356c565b9050806000036113e15760405163334ab3f560e11b815260040160405180910390fd5b6113ec60001961154b565b8760ff166001901b60066000828254611405919061356c565b90915550506040805160c0810182526001600160a01b03808d16825260ff808c1660208085019182528c83168587019081528b151560608701908152608087018981524360a0890190815260008d815260029586905299909920975188549551935192511515600160b01b0260ff60b01b19938816600160a81b029390931661ffff60a81b1994909716600160a01b0274ffffffffffffffffffffffffffffffffffffffffff199096169716969096179390931716929092171783559051600183015591519101556114d960038483611dd4565b60408051838152602081018390526001600160a01b038c168183015260ff8a811660608301528916608082015286151560a0820152905184917f9b088e2c89b322a3c1d81515e1c88db3d386d022926f0e2d0b9b5813b7413d58919081900360c00190a2509098975050505050505050565b60085460005b828110156116f757611561610845565b156115765761156e611018565b6008556116f7565b60006115806117f5565b9050600061158d82611c4b565b11156115a45761159b611018565b600855506116f7565b600081815260026020818152604092839020835160c08101855281546001600160a01b038116825260ff600160a01b82048116948301859052600160a81b8204811696830196909652600160b01b900490941615156060850152600180820154608086015292015460a084015260065491901b90811115611651576040517f9b02220b00000000000000000000000000000000000000000000000000000000815260040160405180910390fd5b806006600082825461166391906135d3565b909155505060808201516116789086906135d3565b6116829082613555565b60076000828254611693919061356c565b909155505060808201516116ab906003908590612101565b50506000908152600260208190526040822080547fffffffffffffffffff0000000000000000000000000000000000000000000000168155600180820184905591019190915501611551565b816008541015611733576040517f530da97a00000000000000000000000000000000000000000000000000000000815260040160405180910390fd5b8160085461174191906135d3565b60065461174e9190613555565b6007600082825461175f919061356c565b9091555050505050565b6000611773610845565b1561177e5750600090565b600061178b6106e76117f5565b1115905090565b7f000000000000000000000000000000000000000000000000000000000000000060009081526020818152604080832033845290915290205460ff166117eb57604051631d77d47760e21b815260040160405180910390fd5b6117f3612452565b565b60008061180260036124a6565b90508060000361183e576040517f46c83ec800000000000000000000000000000000000000000000000000000000815260040160405180910390fd5b610c3460038260006124ed565b6009546000906118749067ffffffffffffffff80821691680100000000000000009004166136ea565b67ffffffffffffffff16905090565b7f000000000000000000000000000000000000000000000000000000000000000060009081526020818152604080832033845290915290205460ff166118f5576040517fea0f601b00000000000000000000000000000000000000000000000000000000815260040160405180910390fd5b60095467ffffffffffffffff16156119135761190f611018565b6005555b600980544367ffffffffffffffff908116600160801b027fffffffffffffffff0000000000000000ffffffffffffffff0000000000000000909216908416171790556040517fae46785019700e30375a5d7b4f91e32f8060ef085111f896ebf889450aa2ab5a906119879083815260200190565b60405180910390a150565b61199a611d81565b600082815260026020818152604092839020835160c08101855281546001600160a01b03811680835260ff600160a01b8304811695840195909552600160a81b8204851696830196909652600160b01b900490921615156060830152600181015460808301529091015460a082015290611a2757604051634ee9bc0f60e01b815260040160405180910390fd5b611a2f611018565b816080015111611a52576040516368aebbc560e01b815260040160405180910390fd5b600154602082015160ff600160a81b9092048216911611611a9f576040517f7103b80500000000000000000000000000000000000000000000000000000000815260040160405180910390fd5b611aa761184b565b82611ab185611c4b565b611abb919061356c565b1015611ada57604051631e9acf1760e31b815260040160405180910390fd5b6000816020015160ff166001901b83611af39190613555565b6001546040516323b872dd60e01b81523360048201523060248201526044810183905291925061010090046001600160a01b0316906323b872dd906064016020604051808303816000875af1158015611b50573d6000803e3d6000fd5b505050506040513d601f19601f82011682018060405250810190611b7491906136cd565b611b91576040516312171d8360e31b815260040160405180910390fd5b6080820151611ba4906003908690612101565b828260800151611bb4919061356c565b60808301819052611bc9906003908690611dd4565b60808201805160008681526002602090815260409182902060010192909255915182518481529182015285917faf5756c62d6c0722ef9be1f82bef97ab06ea5aea7f3eb8ad348422079f01d88d910160405180910390a250505050565b600082815260208190526040902060010154611c4181611fd7565b610c5f8383612082565b6000818152600260208181526040808420815160c08101835281546001600160a01b03811680835260ff600160a01b8304811696840196909652600160a81b8204861694830194909452600160b01b900490931615156060840152600181015460808401529092015460a082015290611cd757604051634ee9bc0f60e01b815260040160405180910390fd5b611cdf611018565b816080015111611cf25750600092915050565b611cfa611018565b8160800151611d0991906135d3565b9392505050565b7f000000000000000000000000000000000000000000000000000000000000000060009081526020818152604080832033845290915290205460ff16611d6957604051631d77d47760e21b815260040160405180910390fd5b6117f361254f565b600061083f828360000154612588565b60015460ff16156117f35760405162461bcd60e51b815260206004820152601060248201527f5061757361626c653a20706175736564000000000000000000000000000000006044820152606401610cde565b80611df2576040516363868c5560e11b815260040160405180910390fd5b611dfd8383836125b4565b15611e34576040517f6082d5c100000000000000000000000000000000000000000000000000000000815260040160405180910390fd5b82546000905b8015611f185780915080831015611e64576000908152600180860160205260409091200154611eef565b80831115611e85576000908152600185016020526040902060020154611eef565b808303611eef576000818152600180870160209081526040832060040180548084018255818552918420909101879055918390529054611ec591906135d3565b60009182526001909501602090815260408083209583526005909501905292909220929092555050565b60008281526001860160205260408120600601805491611f0e836136b4565b9190505550611e3a565b600083815260018087016020908152604083208581558083018490556002810184905560038101805460ff1916841790556004810180548085018255818652929094209091018790559154611f6d91906135d3565b600086815260058301602052604090205582611f8b57838655611fc5565b82841015611fae5760008381526001808801602052604090912001849055611fc5565b600083815260018701602052604090206002018490555b611fcf868561261a565b505050505050565b611fe18133612882565b50565b6000828152602081815260408083206001600160a01b038516845290915290205460ff16610cf1576000828152602081815260408083206001600160a01b03851684529091529020805460ff1916600117905561203e3390565b6001600160a01b0316816001600160a01b0316837f2f8788117e7eff1d82e926ec794901d17c78024a50270940304540a733656f0d60405160405180910390a45050565b6000828152602081815260408083206001600160a01b038516845290915290205460ff1615610cf1576000828152602081815260408083206001600160a01b0385168085529252808320805460ff1916905551339285917ff6391f5c32d9c69d2a47ea670b442974b53935d1edc7fd64eb21e047a839171b9190a45050565b8061211f576040516363868c5560e11b815260040160405180910390fd5b61212a8383836125b4565b61214757604051635889b1c560e11b815260040160405180910390fd5b600081815260018085016020908152604080842086855260058101909252832054600482018054929491939192909161217f916135d3565b8154811061218f5761218f6135e6565b90600052602060002001549050808360040183815481106121b2576121b26135e6565b60009182526020808320909101929092558281526005850190915260409020829055600483018054806121e7576121e7613716565b6001900381819060005260206000200160009055905560008084600401805490506000036124485760008681526001808a0160205260409091200154158061224057506000868152600189016020526040902060020154155b1561224c575084612294565b5060008581526001880160205260409020600201545b60008181526001808a016020526040909120015415612294576000908152600180890160205260409091200154612262565b60008181526001808a0160205260409091200154156122c85760008181526001808a016020526040909120015491506122df565b600081815260018901602052604090206002015491505b6000818152600189016020526040808220548483529120819055801561234f5760008181526001808b016020526040909120015482036123345760008181526001808b01602052604090912001839055612353565b600081815260018a0160205260409020600201839055612353565b8289555b600082815260018a01602052604090206003015460ff16158783146123e65761237d8a848a6128f5565b600088815260018b8101602052604080832080830154878552828520938401819055845281842087905560028082015490840181905584529083208690556003908101549286905201805460ff191660ff90921615159190911790559196916123e68a8961296e565b80156123f6576123f68a856129db565b6124008a8361296e565b60008381526001808c01602052604082208281559081018290556002810182905560038101805460ff191690559061243b60048301826132dc565b6006820160009055505050505b5050505050505050565b61245a611d81565b6001805460ff1916811790557f62e78cea01bee320cd4e420270b5ea74000d11b0c9f74754ebdbfc544b05a258335b6040516001600160a01b03909116815260200160405180910390a1565b8054806124b557506000919050565b5b6000818152600180840160205260409091200154156124e85760009081526001808301602052604090912001546124b6565b919050565b60006124f98484612df4565b61251657604051635889b1c560e11b815260040160405180910390fd5b6000838152600185016020526040902060040180548390811061253b5761253b6135e6565b906000526020600020015490509392505050565b612557612e3a565b6001805460ff191690557f5db9ee0a495bf2e6ff9c91a7834c1ba4fdd244a5e8aa4e537bd38aeae4b073aa33612489565b60008181526001830160205260408120600681015460048201546125ac919061356c565b949350505050565b60006125c08483612df4565b6125cc57506000611d09565b600082815260018501602090815260408083208684526005810190925290912054600490910180548592908110612605576126056135e6565b90600052602060002001541490509392505050565b60005b825482148015906126475750600082815260018401602052604080822054825290206003015460ff165b1561286057600082815260018085016020526040808320548084528184205484529220015481036127685760008181526001850160205260408082205482528082206002015480835291206003015490925060ff16156126ef576000818152600180860160205260408083206003808201805460ff1990811690915587865283862082018054821690558254865292852001805490921690921790559082905254925061285a565b60008181526001850160205260409020600201548303612716578092506127168484612e8c565b50600082815260018085016020526040808320548084528184206003808201805460ff19908116909155825487529386200180549093169093179091559182905254612763908590613009565b61285a565b6000818152600180860160205260408083205483528083209091015480835291206003015490925060ff16156127e6576000818152600180860160205260408083206003808201805460ff1990811690915587865283862082018054821690558254865292852001805490921690921790559082905254925061285a565b6000818152600180860160205260409091200154830361280d5780925061280d8484613009565b50600082815260018085016020526040808320548084528184206003808201805460ff1990811690915582548752938620018054909316909317909155918290525461285a908590612e8c565b5061261d565b505080546000908152600190910160205260409020600301805460ff19169055565b6000828152602081815260408083206001600160a01b038516845290915290205460ff16610cf1576128b3816130e9565b6128be8360206130fb565b6040516020016128cf929190613750565b60408051601f198184030181529082905262461bcd60e51b8252610cde916004016137d1565b60008181526001840160205260408082205484835291208190558061291c57828455612968565b600081815260018086016020526040909120015482036129515760008181526001808601602052604090912001839055612968565b600081815260018501602052604090206002018390555b50505050565b8015610cf1576000818152600183016020526040902060020154612993908390612588565b60008281526001808501602052604090912001546129b2908490612588565b6129bc919061356c565b600091825260018301602052604090912060068101919091555461296e565b60005b82548214801590612a035750600082815260018401602052604090206003015460ff16155b15612dd55760008281526001808501602052604080832054808452922001548303612bfe5760008181526001850160205260408082206002015480835291206003015490925060ff1615612aa6576000828152600180860160205260408083206003908101805460ff19908116909155858552919093209092018054909216179055612a8f8482612e8c565b600081815260018501602052604090206002015491505b60008281526001808601602052604080832090910154825290206003015460ff16158015612af15750600082815260018501602052604080822060020154825290206003015460ff16155b15612b1e57600082815260018581016020526040909120600301805460ff19169091179055915081612dcf565b600082815260018501602052604080822060020154825290206003015460ff16612b9b576000828152600180860160205260408083208083015484529083206003908101805460ff1990811690915593869052018054909216179055612b848483613009565b600081815260018501602052604090206002015491505b600081815260018501602052604080822060039081018054868552838520808401805460ff909316151560ff199384161790558254821690925560029091015484529190922090910180549091169055612bf58482612e8c565b83549250612dcf565b6000818152600180860160205260408083209091015480835291206003015490925060ff1615612c7d576000828152600180860160205260408083206003908101805460ff19908116909155858552919093209092018054909216179055612c668482613009565b600081815260018086016020526040909120015491505b600082815260018501602052604080822060020154825290206003015460ff16158015612cc8575060008281526001808601602052604080832090910154825290206003015460ff16155b15612cf557600082815260018581016020526040909120600301805460ff19169091179055915081612dcf565b60008281526001808601602052604080832090910154825290206003015460ff16612d7457600082815260018086016020526040808320600281015484529083206003908101805460ff1990811690915593869052018054909216179055612d5d8483612e8c565b600081815260018086016020526040909120015491505b60008181526001808601602052604080832060039081018054878652838620808401805460ff909316151560ff19938416179055825482169092559301548452922090910180549091169055612dca8482613009565b835492505b506129de565b506000908152600190910160205260409020600301805460ff19169055565b600081612e035750600061083f565b82548203612e135750600161083f565b600082815260018401602052604090205415612e315750600161083f565b50600092915050565b60015460ff166117f35760405162461bcd60e51b815260206004820152601460248201527f5061757361626c653a206e6f74207061757365640000000000000000000000006044820152606401610cde565b600081815260018084016020526040808320600281018054915482865292852090930154938590529183905590918015612ed457600081815260018601602052604090208490555b6000838152600186016020526040902082905581612ef457828555612f40565b60008281526001808701602052604090912001548403612f295760008281526001808701602052604090912001839055612f40565b600082815260018601602052604090206002018390555b600083815260018087016020526040808320909101869055858252902083815560020154612f6f908690612588565b6000858152600180880160205260409091200154612f8e908790612588565b612f98919061356c565b6000858152600187016020526040808220600601929092558481522060020154612fc3908690612588565b6000848152600180880160205260409091200154612fe2908790612588565b612fec919061356c565b600093845260019095016020525050604090206006019190915550565b6000818152600180840160205260408083209182018054925483855291842060020154938590528390559091801561304f57600081815260018601602052604090208490555b600083815260018601602052604090208290558161306f578285556130bb565b600082815260018601602052604090206002015484036130a457600082815260018601602052604090206002018390556130bb565b600082815260018087016020526040909120018390555b6000838152600186016020526040808220600290810187905586835291208481550154612f6f908690612588565b606061083f6001600160a01b03831660145b6060600061310a836002613555565b61311590600261356c565b67ffffffffffffffff81111561312d5761312d6135fc565b6040519080825280601f01601f191660200182016040528015613157576020820181803683370190505b5090507f30000000000000000000000000000000000000000000000000000000000000008160008151811061318e5761318e6135e6565b60200101906001600160f81b031916908160001a9053507f7800000000000000000000000000000000000000000000000000000000000000816001815181106131d9576131d96135e6565b60200101906001600160f81b031916908160001a90535060006131fd846002613555565b61320890600161356c565b90505b600181111561328d577f303132333435363738396162636465660000000000000000000000000000000085600f1660108110613249576132496135e6565b1a60f81b82828151811061325f5761325f6135e6565b60200101906001600160f81b031916908160001a90535060049490941c9361328681613804565b905061320b565b508315611d095760405162461bcd60e51b815260206004820181905260248201527f537472696e67733a20686578206c656e67746820696e73756666696369656e746044820152606401610cde565b5080546000825590600052602060002090810190611fe191905b8082111561330a57600081556001016132f6565b5090565b60006020828403121561332057600080fd5b81357fffffffff0000000000000000000000000000000000000000000000000000000081168114611d0957600080fd5b80356001600160a01b03811681146124e857600080fd5b803560ff811681146124e857600080fd5b8015158114611fe157600080fd5b80356124e881613378565b60008060008060008060c087890312156133aa57600080fd5b6133b387613350565b9550602087013594506133c860408801613367565b93506133d660608801613367565b92506080870135915060a08701356133ed81613378565b809150509295509295509295565b60006020828403121561340d57600080fd5b813567ffffffffffffffff81168114611d0957600080fd5b60006020828403121561343757600080fd5b5035919050565b6000806040838503121561345157600080fd5b8235915061346160208401613350565b90509250929050565b6000806040838503121561347d57600080fd5b8235915061346160208401613367565b600080602083850312156134a057600080fd5b823567ffffffffffffffff808211156134b857600080fd5b818501915085601f8301126134cc57600080fd5b8135818111156134db57600080fd5b86602060c0830285010111156134f057600080fd5b60209290920196919550909350505050565b60006020828403121561351457600080fd5b611d0982613350565b6000806040838503121561353057600080fd5b50508035926020909101359150565b634e487b7160e01b600052601160045260246000fd5b808202811582820484141761083f5761083f61353f565b8082018082111561083f5761083f61353f565b60006020828403121561359157600080fd5b5051919050565b60ff828116828216039081111561083f5761083f61353f565b6000826135ce57634e487b7160e01b600052601260045260246000fd5b500490565b8181038181111561083f5761083f61353f565b634e487b7160e01b600052603260045260246000fd5b634e487b7160e01b600052604160045260246000fd5b600060c0828403121561362457600080fd5b60405160c0810181811067ffffffffffffffff8211171561365557634e487b7160e01b600052604160045260246000fd5b6040528235815261366860208401613350565b602082015261367960408401613367565b604082015261368a60608401613367565b606082015261369b60808401613386565b608082015260a083013560a08201528091505092915050565b6000600182016136c6576136c661353f565b5060010190565b6000602082840312156136df57600080fd5b8151611d0981613378565b67ffffffffffffffff81811683821602808216919082811461370e5761370e61353f565b505092915050565b634e487b7160e01b600052603160045260246000fd5b60005b8381101561374757818101518382015260200161372f565b50506000910152565b7f416363657373436f6e74726f6c3a206163636f756e742000000000000000000081526000835161378881601785016020880161372c565b7f206973206d697373696e6720726f6c652000000000000000000000000000000060179184019182015283516137c581602884016020880161372c565b01602801949350505050565b60208152600082518060208401526137f081604085016020870161372c565b601f01601f19169190910160400192915050565b6000816138135761381361353f565b50600019019056fea26469706673582212204ad892b2c8527b1e6398eea9ab6894de9e295d220fbe99d8e2f51a4894213f4164736f6c63430008130033",
  "devdoc": {
    "author": "The Swarm Authors",
    "details": "The postage stamp contracts allows users to create and manage postage stamp batches. The current balance for each batch is stored ordered in descending order of normalised balance. Balance is normalised to be per chunk and the total spend since the contract was deployed, i.e. when a batch is bought, its per-chunk balance is supplemented with the current cost of storing one chunk since the beginning of time, as if the batch had existed since the contract's inception. During the _expiry_ process, each of these balances is checked against the _currentTotalOutPayment_, a similarly normalised figure that represents the current cost of storing one chunk since the beginning of time. A batch with a normalised balance less than _currentTotalOutPayment_ is treated as expired. The _currentTotalOutPayment_ is calculated using _totalOutPayment_ which is updated during _setPrice_ events so that the applicable per-chunk prices can be charged for the relevant periods of time. This can then be multiplied by the amount of chunks which are allowed to be stamped by each batch to get the actual cost of storage. The amount of chunks a batch can stamp is determined by the _bucketDepth_. A batch may store a maximum of 2^depth chunks. The global figure for the currently allowed chunks is tracked by _validChunkCount_ and updated during batch _expiry_ events.",
    "events": {
      "BatchCreated(bytes32,uint256,uint256,address,uint8,uint8,bool)": {
        "details": "Emitted when a new batch is created."
      },
      "BatchDepthIncrease(bytes32,uint8,uint256)": {
        "details": "Emitted when the depth of an existing batch increases."
      },
      "BatchTopUp(bytes32,uint256,uint256)": {
        "details": "Emitted when an existing batch is topped up."
      },
      "Paused(address)": {
        "details": "Emitted when the pause is triggered by `account`."
      },
      "PotWithdrawn(address,uint256)": {
        "details": "Emitted when an pot is Withdrawn."
      },
      "PriceUpdate(uint256)": {
        "details": "Emitted on every price update."
      },
      "RoleAdminChanged(bytes32,bytes32,bytes32)": {
        "details": "Emitted when `newAdminRole` is set as ``role``'s admin role, replacing `previousAdminRole` `DEFAULT_ADMIN_ROLE` is the starting admin for all roles, despite {RoleAdminChanged} not being emitted signaling this. _Available since v3.1._"
      },
      "RoleGranted(bytes32,address,address)": {
        "details": "Emitted when `account` is granted `role`. `sender` is the account that originated the contract call, an admin role bearer except when using {AccessControl-_setupRole}."
      },
      "RoleRevoked(bytes32,address,address)": {
        "details": "Emitted when `account` is revoked `role`. `sender` is the account that originated the contract call:   - if using `revokeRole`, it is the admin role bearer   - if using `renounceRole`, it is the role bearer (i.e. `account`)"
      },
      "Unpaused(address)": {
        "details": "Emitted when the pause is lifted by `account`."
      }
    },
    "kind": "dev",
    "methods": {
      "constructor": {
        "params": {
          "_bzzToken": "The ERC20 token address to reference in this contract.",
          "_minimumBucketDepth": "The minimum bucket depth of batches that can be purchased."
        }
      },
      "copyBatch(address,uint256,uint8,uint8,bytes32,bool)": {
        "details": "At least `_initialBalancePerChunk*2^depth` tokens must be approved in the ERC20 token contract.",
        "params": {
          "_batchId": "BatchId being copied (from previous version contract data).",
          "_depth": "Initial depth of the new batch.",
          "_immutable": "Whether the batch is mutable.",
          "_initialBalancePerChunk": "Initial balance per chunk of the batch.",
          "_owner": "Owner of the new batch."
        }
      },
      "copyBatchBulk((bytes32,address,uint8,uint8,bool,uint256)[])": {
        "details": "Import batches in bulk to save number of transactions, limit number of batches in each array to X",
        "params": {
          "bulkBatches": "array of batches"
        }
      },
      "createBatch(address,uint256,uint8,uint8,bytes32,bool)": {
        "details": "At least `_initialBalancePerChunk*2^depth` tokens must be approved in the ERC20 token contract.",
        "params": {
          "_depth": "Initial depth of the new batch.",
          "_immutable": "Whether the batch is mutable.",
          "_initialBalancePerChunk": "Initial balance per chunk.",
          "_nonce": "A random value used in the batch id derivation to allow multiple batches per owner.",
          "_owner": "Owner of the new batch."
        }
      },
      "currentTotalOutPayment()": {
        "details": "Returns the total normalised all-time per chunk payout. Only Batches with a normalised balance greater than this are valid."
      },
      "expireLimited(uint256)": {
        "details": "Can be used if reclaiming all expired batches would exceed the block gas limit, causing other contract method calls to fail.",
        "params": {
          "limit": "The maximum number of batches to expire."
        }
      },
      "firstBatchId()": {
        "details": "If more than one batch id, return index at 0, if no batches, revert."
      },
      "getRoleAdmin(bytes32)": {
        "details": "Returns the admin role that controls `role`. See {grantRole} and {revokeRole}. To change a role's admin, use {_setRoleAdmin}."
      },
      "grantRole(bytes32,address)": {
        "details": "Grants `role` to `account`. If `account` had not been already granted `role`, emits a {RoleGranted} event. Requirements: - the caller must have ``role``'s admin role. May emit a {RoleGranted} event."
      },
      "hasRole(bytes32,address)": {
        "details": "Returns `true` if `account` has been granted `role`."
      },
      "increaseDepth(bytes32,uint8)": {
        "details": "Can only be called by the owner of the batch.",
        "params": {
          "_batchId": "the id of an existing batch.",
          "_newDepth": "the new (larger than the previous one) depth for this batch."
        }
      },
      "pause()": {
        "details": "Can only be called by the pauser when not paused. The contract can be provably stopped by renouncing the pauser role and the admin role once paused."
      },
      "paused()": {
        "details": "Returns true if the contract is paused, and false otherwise."
      },
      "remainingBalance(bytes32)": {
        "params": {
          "_batchId": "The id of an existing batch."
        }
      },
      "renounceRole(bytes32,address)": {
        "details": "Revokes `role` from the calling account. Roles are often managed via {grantRole} and {revokeRole}: this function's purpose is to provide a mechanism for accounts to lose their privileges if they are compromised (such as when a trusted device is misplaced). If the calling account had been revoked `role`, emits a {RoleRevoked} event. Requirements: - the caller must be `account`. May emit a {RoleRevoked} event."
      },
      "revokeRole(bytes32,address)": {
        "details": "Revokes `role` from `account`. If `account` had been granted `role`, emits a {RoleRevoked} event. Requirements: - the caller must have ``role``'s admin role. May emit a {RoleRevoked} event."
      },
      "setPrice(uint256)": {
        "details": "Can only be called by the price oracle role.",
        "params": {
          "_price": "The new price."
        }
      },
      "supportsInterface(bytes4)": {
        "details": "See {IERC165-supportsInterface}."
      },
      "topUp(bytes32,uint256)": {
        "details": "At least `_topupAmountPerChunk*2^depth` tokens must be approved in the ERC20 token contract.",
        "params": {
          "_batchId": "The id of an existing batch.",
          "_topupAmountPerChunk": "The amount of additional tokens to add per chunk."
        }
      },
      "unPause()": {
        "details": "Can only be called by the pauser role while paused."
      },
      "withdraw(address)": {
        "params": {
          "beneficiary": "Recieves the current total pot."
        }
      }
    },
    "title": "PostageStamp contract",
    "version": 1
  },
  "userdoc": {
    "kind": "user",
    "methods": {
      "copyBatch(address,uint256,uint8,uint8,bytes32,bool)": {
        "notice": "Manually create a new batch when facilitating migration, can only be called by the Admin role."
      },
      "copyBatchBulk((bytes32,address,uint8,uint8,bool,uint256)[])": {
        "notice": "Import batches in bulk"
      },
      "createBatch(address,uint256,uint8,uint8,bytes32,bool)": {
        "notice": "Create a new batch."
      },
      "currentTotalOutPayment()": {
        "notice": "Total per-chunk cost since the contract's deployment."
      },
      "expireLimited(uint256)": {
        "notice": "Reclaims a limited number of expired batches"
      },
      "expiredBatchesExist()": {
        "notice": "Indicates whether expired batches exist."
      },
      "firstBatchId()": {
        "notice": "Get the first batch id ordered by ascending normalised balance."
      },
      "increaseDepth(bytes32,uint8)": {
        "notice": "Increase the depth of an existing batch."
      },
      "isBatchesTreeEmpty()": {
        "notice": "Return true if no batches exist"
      },
      "pause()": {
        "notice": "Pause the contract."
      },
      "remainingBalance(bytes32)": {
        "notice": "Return the per chunk balance not yet used up."
      },
      "setPrice(uint256)": {
        "notice": "Set a new price."
      },
      "topUp(bytes32,uint256)": {
        "notice": "Top up an existing batch."
      },
      "totalPot()": {
        "notice": "The current pot."
      },
      "unPause()": {
        "notice": "Unpause the contract."
      },
      "withdraw(address)": {
        "notice": "Withdraw the pot, authorised callers only."
      }
    },
    "version": 1
  },
  "storageLayout": {
    "storage": [
      {
        "astId": 24,
        "contract": "src/PostageStamp.sol:PostageStamp",
        "label": "_roles",
        "offset": 0,
        "slot": "0",
        "type": "t_mapping(t_bytes32,t_struct(RoleData)19_storage)"
      },
      {
        "astId": 406,
        "contract": "src/PostageStamp.sol:PostageStamp",
        "label": "_paused",
        "offset": 0,
        "slot": "1",
        "type": "t_bool"
      },
      {
        "astId": 4346,
        "contract": "src/PostageStamp.sol:PostageStamp",
        "label": "bzzToken",
        "offset": 1,
        "slot": "1",
        "type": "t_address"
      },
      {
        "astId": 4348,
        "contract": "src/PostageStamp.sol:PostageStamp",
        "label": "minimumBucketDepth",
        "offset": 21,
        "slot": "1",
        "type": "t_uint8"
      },
      {
        "astId": 4359,
        "contract": "src/PostageStamp.sol:PostageStamp",
        "label": "batches",
        "offset": 0,
        "slot": "2",
        "type": "t_mapping(t_bytes32,t_struct(Batch)4390_storage)"
      },
      {
        "astId": 4362,
        "contract": "src/PostageStamp.sol:PostageStamp",
        "label": "tree",
        "offset": 0,
        "slot": "3",
        "type": "t_struct(Tree)2315_storage"
      },
      {
        "astId": 4364,
        "contract": "src/PostageStamp.sol:PostageStamp",
        "label": "totalOutPayment",
        "offset": 0,
        "slot": "5",
        "type": "t_uint256"
      },
      {
        "astId": 4366,
        "contract": "src/PostageStamp.sol:PostageStamp",
        "label": "validChunkCount",
        "offset": 0,
        "slot": "6",
        "type": "t_uint256"
      },
      {
        "astId": 4368,
        "contract": "src/PostageStamp.sol:PostageStamp",
        "label": "pot",
        "offset": 0,
        "slot": "7",
        "type": "t_uint256"
      },
      {
        "astId": 4370,
        "contract": "src/PostageStamp.sol:PostageStamp",
        "label": "lastExpiryBalance",
        "offset": 0,
        "slot": "8",
        "type": "t_uint256"
      },
      {
        "astId": 4372,
        "contract": "src/PostageStamp.sol:PostageStamp",
        "label": "lastPrice",
        "offset": 0,
        "slot": "9",
        "type": "t_uint64"
      },
      {
        "astId": 4375,
        "contract": "src/PostageStamp.sol:PostageStamp",
        "label": "minimumValidityBlocks",
        "offset": 8,
        "slot": "9",
        "type": "t_uint64"
      },
      {
        "astId": 4377,
        "contract": "src/PostageStamp.sol:PostageStamp",
        "label": "lastUpdatedBlock",
        "offset": 16,
        "slot": "9",
        "type": "t_uint64"
      }
    ],
    "types": {
      "t_address": {
        "encoding": "inplace",
        "label": "address",
        "numberOfBytes": "20"
      },
      "t_array(t_bytes32)dyn_storage": {
        "base": "t_bytes32",
        "encoding": "dynamic_array",
        "label": "bytes32[]",
        "numberOfBytes": "32"
      },
      "t_bool": {
        "encoding": "inplace",
        "label": "bool",
        "numberOfBytes": "1"
      },
      "t_bytes32": {
        "encoding": "inplace",
        "label": "bytes32",
        "numberOfBytes": "32"
      },
      "t_mapping(t_address,t_bool)": {
        "encoding": "mapping",
        "key": "t_address",
        "label": "mapping(address => bool)",
        "numberOfBytes": "32",
        "value": "t_bool"
      },
      "t_mapping(t_bytes32,t_struct(Batch)4390_storage)": {
        "encoding": "mapping",
        "key": "t_bytes32",
        "label": "mapping(bytes32 => struct PostageStamp.Batch)",
        "numberOfBytes": "32",
        "value": "t_struct(Batch)4390_storage"
      },
      "t_mapping(t_bytes32,t_struct(RoleData)19_storage)": {
        "encoding": "mapping",
        "key": "t_bytes32",
        "label": "mapping(bytes32 => struct AccessControl.RoleData)",
        "numberOfBytes": "32",
        "value": "t_struct(RoleData)19_storage"
      },
      "t_mapping(t_bytes32,t_uint256)": {
        "encoding": "mapping",
        "key": "t_bytes32",
        "label": "mapping(bytes32 => uint256)",
        "numberOfBytes": "32",
        "value": "t_uint256"
      },
      "t_mapping(t_uint256,t_struct(Node)2307_storage)": {
        "encoding": "mapping",
        "key": "t_uint256",
        "label": "mapping(uint256 => struct HitchensOrderStatisticsTreeLib.Node)",
        "numberOfBytes": "32",
        "value": "t_struct(Node)2307_storage"
      },
      "t_struct(Batch)4390_storage": {
        "encoding": "inplace",
        "label": "struct PostageStamp.Batch",
        "members": [
          {
            "astId": 4379,
            "contract": "src/PostageStamp.sol:PostageStamp",
            "label": "owner",
            "offset": 0,
            "slot": "0",
            "type": "t_address"
          },
          {
            "astId": 4381,
            "contract": "src/PostageStamp.sol:PostageStamp",
            "label": "depth",
            "offset": 20,
            "slot": "0",
            "type": "t_uint8"
          },
          {
            "astId": 4383,
            "contract": "src/PostageStamp.sol:PostageStamp",
            "label": "bucketDepth",
            "offset": 21,
            "slot": "0",
            "type": "t_uint8"
          },
          {
            "astId": 4385,
            "contract": "src/PostageStamp.sol:PostageStamp",
            "label": "immutableFlag",
            "offset": 22,
            "slot": "0",
            "type": "t_bool"
          },
          {
            "astId": 4387,
            "contract": "src/PostageStamp.sol:PostageStamp",
            "label": "normalisedBalance",
            "offset": 0,
            "slot": "1",
            "type": "t_uint256"
          },
          {
            "astId": 4389,
            "contract": "src/PostageStamp.sol:PostageStamp",
            "label": "lastUpdatedBlockNumber",
            "offset": 0,
            "slot": "2",
            "type": "t_uint256"
          }
        ],
        "numberOfBytes": "96"
      },
      "t_struct(Node)2307_storage": {
        "encoding": "inplace",
        "label": "struct HitchensOrderStatisticsTreeLib.Node",
        "members": [
          {
            "astId": 2291,
            "contract": "src/PostageStamp.sol:PostageStamp",
            "label": "parent",
            "offset": 0,
            "slot": "0",
            "type": "t_uint256"
          },
          {
            "astId": 2293,
            "contract": "src/PostageStamp.sol:PostageStamp",
            "label": "left",
            "offset": 0,
            "slot": "1",
            "type": "t_uint256"
          },
          {
            "astId": 2295,
            "contract": "src/PostageStamp.sol:PostageStamp",
            "label": "right",
            "offset": 0,
            "slot": "2",
            "type": "t_uint256"
          },
          {
            "astId": 2297,
            "contract": "src/PostageStamp.sol:PostageStamp",
            "label": "red",
            "offset": 0,
            "slot": "3",
            "type": "t_bool"
          },
          {
            "astId": 2300,
            "contract": "src/PostageStamp.sol:PostageStamp",
            "label": "keys",
            "offset": 0,
            "slot": "4",
            "type": "t_array(t_bytes32)dyn_storage"
          },
          {
            "astId": 2304,
            "contract": "src/PostageStamp.sol:PostageStamp",
            "label": "keyMap",
            "offset": 0,
            "slot": "5",
            "type": "t_mapping(t_bytes32,t_uint256)"
          },
          {
            "astId": 2306,
            "contract": "src/PostageStamp.sol:PostageStamp",
            "label": "count",
            "offset": 0,
            "slot": "6",
            "type": "t_uint256"
          }
        ],
        "numberOfBytes": "224"
      },
      "t_struct(RoleData)19_storage": {
        "encoding": "inplace",
        "label": "struct AccessControl.RoleData",
        "members": [
          {
            "astId": 16,
            "contract": "src/PostageStamp.sol:PostageStamp",
            "label": "members",
            "offset": 0,
            "slot": "0",
            "type": "t_mapping(t_address,t_bool)"
          },
          {
            "astId": 18,
            "contract": "src/PostageStamp.sol:PostageStamp",
            "label": "adminRole",
            "offset": 0,
            "slot": "1",
            "type": "t_bytes32"
          }
        ],
        "numberOfBytes": "64"
      },
      "t_struct(Tree)2315_storage": {
        "encoding": "inplace",
        "label": "struct HitchensOrderStatisticsTreeLib.Tree",
        "members": [
          {
            "astId": 2309,
            "contract": "src/PostageStamp.sol:PostageStamp",
            "label": "root",
            "offset": 0,
            "slot": "0",
            "type": "t_uint256"
          },
          {
            "astId": 2314,
            "contract": "src/PostageStamp.sol:PostageStamp",
            "label": "nodes",
            "offset": 0,
            "slot": "1",
            "type": "t_mapping(t_uint256,t_struct(Node)2307_storage)"
          }
        ],
        "numberOfBytes": "64"
      },
      "t_uint256": {
        "encoding": "inplace",
        "label": "uint256",
        "numberOfBytes": "32"
      },
      "t_uint64": {
        "encoding": "inplace",
        "label": "uint64",
        "numberOfBytes": "8"
      },
      "t_uint8": {
        "encoding": "inplace",
        "label": "uint8",
        "numberOfBytes": "1"
      }
    }
  }
}