{
  "address": "0x83A881496d400D7bfe1B92f58ac87Fbad80b798e",
  "abi": [
    {
      "inputs": [
        {
          "internalType": "address",
          "name": "staking",
          "type": "address"
        },
        {
          "internalType": "address",
          "name": "postageContract",
          "type": "address"
        },
        {
          "internalType": "address",
          "name": "oracleContract",
          "type": "address"
        }
      ],
      "stateMutability": "nonpayable",
      "type": "constructor"
    },
    {
      "inputs": [],
      "name": "AlreadyClaimed",
      "type": "error"
    },
    {
      "inputs": [],
      "name": "AlreadyCommited",
      "type": "error"
    },
    {
      "inputs": [],
      "name": "AlreadyRevealed",
      "type": "error"
    },
    {
      "inputs": [
        {
          "internalType": "bytes32",
          "name": "",
          "type": "bytes32"
        }
      ],
      "name": "BatchDoesNotExist",
      "type": "error"
    },
    {
      "inputs": [],
      "name": "BelowMinimumStake",
      "type": "error"
    },
    {
      "inputs": [
        {
          "internalType": "bytes32",
          "name": "",
          "type": "bytes32"
        }
      ],
      "name": "BucketDiffers",
      "type": "error"
    },
    {
      "inputs": [],
      "name": "CommitRoundNotStarted",
      "type": "error"
    },
    {
      "inputs": [],
      "name": "CommitRoundOver",
      "type": "error"
    },
    {
      "inputs": [],
      "name": "FirstRevealDone",
      "type": "error"
    },
    {
      "inputs": [
        {
          "internalType": "uint8",
          "name": "",
          "type": "uint8"
        },
        {
          "internalType": "bytes32",
          "name": "",
          "type": "bytes32"
        }
      ],
      "name": "InclusionProofFailed",
      "type": "error"
    },
    {
      "inputs": [
        {
          "internalType": "bytes32",
          "name": "",
          "type": "bytes32"
        }
      ],
      "name": "IndexOutsideSet",
      "type": "error"
    },
    {
      "inputs": [],
      "name": "InvalidSignatureLength",
      "type": "error"
    },
    {
      "inputs": [],
      "name": "LastElementCheckFailed",
      "type": "error"
    },
    {
      "inputs": [],
      "name": "MustStake2Rounds",
      "type": "error"
    },
    {
      "inputs": [],
      "name": "NoCommitsReceived",
      "type": "error"
    },
    {
      "inputs": [],
      "name": "NoMatchingCommit",
      "type": "error"
    },
    {
      "inputs": [],
      "name": "NoReveals",
      "type": "error"
    },
    {
      "inputs": [],
      "name": "NotAdmin",
      "type": "error"
    },
    {
      "inputs": [],
      "name": "NotClaimPhase",
      "type": "error"
    },
    {
      "inputs": [],
      "name": "NotCommitPhase",
      "type": "error"
    },
    {
      "inputs": [],
      "name": "NotMatchingOwner",
      "type": "error"
    },
    {
      "inputs": [],
      "name": "NotRevealPhase",
      "type": "error"
    },
    {
      "inputs": [],
      "name": "OnlyPauser",
      "type": "error"
    },
    {
      "inputs": [],
      "name": "OutOfDepth",
      "type": "error"
    },
    {
      "inputs": [
        {
          "internalType": "uint8",
          "name": "",
          "type": "uint8"
        }
      ],
      "name": "OutOfDepthClaim",
      "type": "error"
    },
    {
      "inputs": [
        {
          "internalType": "bytes32",
          "name": "",
          "type": "bytes32"
        }
      ],
      "name": "OutOfDepthReveal",
      "type": "error"
    },
    {
      "inputs": [],
      "name": "PhaseLastBlock",
      "type": "error"
    },
    {
      "inputs": [],
      "name": "RandomElementCheckFailed",
      "type": "error"
    },
    {
      "inputs": [
        {
          "internalType": "bytes32",
          "name": "trALast",
          "type": "bytes32"
        }
      ],
      "name": "ReserveCheckFailed",
      "type": "error"
    },
    {
      "inputs": [
        {
          "internalType": "bytes32",
          "name": "",
          "type": "bytes32"
        }
      ],
      "name": "SigRecoveryFailed",
      "type": "error"
    },
    {
      "inputs": [
        {
          "internalType": "bytes32",
          "name": "",
          "type": "bytes32"
        }
      ],
      "name": "SocCalcNotMatching",
      "type": "error"
    },
    {
      "inputs": [
        {
          "internalType": "bytes32",
          "name": "",
          "type": "bytes32"
        }
      ],
      "name": "SocVerificationFailed",
      "type": "error"
    },
    {
      "inputs": [],
      "name": "WrongPhase",
      "type": "error"
    },
    {
      "anonymous": false,
      "inputs": [
        {
          "indexed": false,
          "internalType": "uint256",
          "name": "validChunkCount",
          "type": "uint256"
        }
      ],
      "name": "ChunkCount",
      "type": "event"
    },
    {
      "anonymous": false,
      "inputs": [
        {
          "indexed": false,
          "internalType": "uint256",
          "name": "roundNumber",
          "type": "uint256"
        },
        {
          "indexed": false,
          "internalType": "bytes32",
          "name": "overlay",
          "type": "bytes32"
        }
      ],
      "name": "Committed",
      "type": "event"
    },
    {
      "anonymous": false,
      "inputs": [
        {
          "indexed": false,
          "internalType": "uint256",
          "name": "_count",
          "type": "uint256"
        }
      ],
      "name": "CountCommits",
      "type": "event"
    },
    {
      "anonymous": false,
      "inputs": [
        {
          "indexed": false,
          "internalType": "uint256",
          "name": "_count",
          "type": "uint256"
        }
      ],
      "name": "CountReveals",
      "type": "event"
    },
    {
      "anonymous": false,
      "inputs": [
        {
          "indexed": false,
          "internalType": "uint256",
          "name": "roundNumber",
          "type": "uint256"
        },
        {
          "indexed": false,
          "internalType": "bytes32",
          "name": "anchor",
          "type": "bytes32"
        }
      ],
      "name": "CurrentRevealAnchor",
      "type": "event"
    },
    {
      "anonymous": false,
      "inputs": [
        {
          "indexed": false,
          "internalType": "address",
          "name": "account",
          "type": "address"
        }
      ],
      "name": "Paused",
      "type": "event"
    },
    {
      "anonymous": false,
      "inputs": [
        {
          "indexed": false,
          "internalType": "uint256",
          "name": "roundNumber",
          "type": "uint256"
        },
        {
          "indexed": false,
          "internalType": "bytes32",
          "name": "overlay",
          "type": "bytes32"
        },
        {
          "indexed": false,
          "internalType": "uint256",
          "name": "stake",
          "type": "uint256"
        },
        {
          "indexed": false,
          "internalType": "uint256",
          "name": "stakeDensity",
          "type": "uint256"
        },
        {
          "indexed": false,
          "internalType": "bytes32",
          "name": "reserveCommitment",
          "type": "bytes32"
        },
        {
          "indexed": false,
          "internalType": "uint8",
          "name": "depth",
          "type": "uint8"
        }
      ],
      "name": "Revealed",
      "type": "event"
    },
    {
      "anonymous": false,
      "inputs": [
        {
          "indexed": true,
          "internalType": "bytes32",
          "name": "role",
          "type": "bytes32"
        },
        {
          "indexed": true,
          "internalType": "bytes32",
          "name": "previousAdminRole",
          "type": "bytes32"
        },
        {
          "indexed": true,
          "internalType": "bytes32",
          "name": "newAdminRole",
          "type": "bytes32"
        }
      ],
      "name": "RoleAdminChanged",
      "type": "event"
    },
    {
      "anonymous": false,
      "inputs": [
        {
          "indexed": true,
          "internalType": "bytes32",
          "name": "role",
          "type": "bytes32"
        },
        {
          "indexed": true,
          "internalType": "address",
          "name": "account",
          "type": "address"
        },
        {
          "indexed": true,
          "internalType": "address",
          "name": "sender",
          "type": "address"
        }
      ],
      "name": "RoleGranted",
      "type": "event"
    },
    {
      "anonymous": false,
      "inputs": [
        {
          "indexed": true,
          "internalType": "bytes32",
          "name": "role",
          "type": "bytes32"
        },
        {
          "indexed": true,
          "internalType": "address",
          "name": "account",
          "type": "address"
        },
        {
          "indexed": true,
          "internalType": "address",
          "name": "sender",
          "type": "address"
        }
      ],
      "name": "RoleRevoked",
      "type": "event"
    },
    {
      "anonymous": false,
      "inputs": [
        {
          "indexed": false,
          "internalType": "bytes32",
          "name": "hash",
          "type": "bytes32"
        },
        {
          "indexed": false,
          "internalType": "uint8",
          "name": "depth",
          "type": "uint8"
        }
      ],
      "name": "TruthSelected",
      "type": "event"
    },
    {
      "anonymous": false,
      "inputs": [
        {
          "indexed": false,
          "internalType": "address",
          "name": "account",
          "type": "address"
        }
      ],
      "name": "Unpaused",
      "type": "event"
    },
    {
      "anonymous": false,
      "inputs": [
        {
          "components": [
            {
              "internalType": "bytes32",
              "name": "overlay",
              "type": "bytes32"
            },
            {
              "internalType": "address",
              "name": "owner",
              "type": "address"
            },
            {
              "internalType": "uint8",
              "name": "depth",
              "type": "uint8"
            },
            {
              "internalType": "uint256",
              "name": "stake",
              "type": "uint256"
            },
            {
              "internalType": "uint256",
              "name": "stakeDensity",
              "type": "uint256"
            },
            {
              "internalType": "bytes32",
              "name": "hash",
              "type": "bytes32"
            }
          ],
          "indexed": false,
          "internalType": "struct Redistribution.Reveal",
          "name": "winner",
          "type": "tuple"
        }
      ],
      "name": "WinnerSelected",
      "type": "event"
    },
    {
      "anonymous": false,
      "inputs": [
        {
          "indexed": false,
          "internalType": "uint256",
          "name": "indexInRC",
          "type": "uint256"
        },
        {
          "indexed": false,
          "internalType": "bytes32",
          "name": "chunkAddress",
          "type": "bytes32"
        }
      ],
      "name": "transformedChunkAddressFromInclusionProof",
      "type": "event"
    },
    {
      "inputs": [],
      "name": "DEFAULT_ADMIN_ROLE",
      "outputs": [
        {
          "internalType": "bytes32",
          "name": "",
          "type": "bytes32"
        }
      ],
      "stateMutability": "view",
      "type": "function"
    },
    {
      "inputs": [],
      "name": "OracleContract",
      "outputs": [
        {
          "internalType": "contract IPriceOracle",
          "name": "",
          "type": "address"
        }
      ],
      "stateMutability": "view",
      "type": "function"
    },
    {
      "inputs": [],
      "name": "PostageContract",
      "outputs": [
        {
          "internalType": "contract IPostageStamp",
          "name": "",
          "type": "address"
        }
      ],
      "stateMutability": "view",
      "type": "function"
    },
    {
      "inputs": [],
      "name": "Stakes",
      "outputs": [
        {
          "internalType": "contract IStakeRegistry",
          "name": "",
          "type": "address"
        }
      ],
      "stateMutability": "view",
      "type": "function"
    },
    {
      "inputs": [
        {
          "components": [
            {
              "internalType": "bytes32[]",
              "name": "proofSegments",
              "type": "bytes32[]"
            },
            {
              "internalType": "bytes32",
              "name": "proveSegment",
              "type": "bytes32"
            },
            {
              "internalType": "bytes32[]",
              "name": "proofSegments2",
              "type": "bytes32[]"
            },
            {
              "internalType": "bytes32",
              "name": "proveSegment2",
              "type": "bytes32"
            },
            {
              "internalType": "uint64",
              "name": "chunkSpan",
              "type": "uint64"
            },
            {
              "internalType": "bytes32[]",
              "name": "proofSegments3",
              "type": "bytes32[]"
            },
            {
              "components": [
                {
                  "internalType": "bytes",
                  "name": "signature",
                  "type": "bytes"
                },
                {
                  "internalType": "bytes32",
                  "name": "postageId",
                  "type": "bytes32"
                },
                {
                  "internalType": "uint64",
                  "name": "index",
                  "type": "uint64"
                },
                {
                  "internalType": "uint64",
                  "name": "timeStamp",
                  "type": "uint64"
                }
              ],
              "internalType": "struct Redistribution.PostageProof",
              "name": "postageProof",
              "type": "tuple"
            },
            {
              "components": [
                {
                  "internalType": "address",
                  "name": "signer",
                  "type": "address"
                },
                {
                  "internalType": "bytes",
                  "name": "signature",
                  "type": "bytes"
                },
                {
                  "internalType": "bytes32",
                  "name": "identifier",
                  "type": "bytes32"
                },
                {
                  "internalType": "bytes32",
                  "name": "chunkAddr",
                  "type": "bytes32"
                }
              ],
              "internalType": "struct Redistribution.SOCProof[]",
              "name": "socProof",
              "type": "tuple[]"
            }
          ],
          "internalType": "struct Redistribution.ChunkInclusionProof",
          "name": "entryProof1",
          "type": "tuple"
        },
        {
          "components": [
            {
              "internalType": "bytes32[]",
              "name": "proofSegments",
              "type": "bytes32[]"
            },
            {
              "internalType": "bytes32",
              "name": "proveSegment",
              "type": "bytes32"
            },
            {
              "internalType": "bytes32[]",
              "name": "proofSegments2",
              "type": "bytes32[]"
            },
            {
              "internalType": "bytes32",
              "name": "proveSegment2",
              "type": "bytes32"
            },
            {
              "internalType": "uint64",
              "name": "chunkSpan",
              "type": "uint64"
            },
            {
              "internalType": "bytes32[]",
              "name": "proofSegments3",
              "type": "bytes32[]"
            },
            {
              "components": [
                {
                  "internalType": "bytes",
                  "name": "signature",
                  "type": "bytes"
                },
                {
                  "internalType": "bytes32",
                  "name": "postageId",
                  "type": "bytes32"
                },
                {
                  "internalType": "uint64",
                  "name": "index",
                  "type": "uint64"
                },
                {
                  "internalType": "uint64",
                  "name": "timeStamp",
                  "type": "uint64"
                }
              ],
              "internalType": "struct Redistribution.PostageProof",
              "name": "postageProof",
              "type": "tuple"
            },
            {
              "components": [
                {
                  "internalType": "address",
                  "name": "signer",
                  "type": "address"
                },
                {
                  "internalType": "bytes",
                  "name": "signature",
                  "type": "bytes"
                },
                {
                  "internalType": "bytes32",
                  "name": "identifier",
                  "type": "bytes32"
                },
                {
                  "internalType": "bytes32",
                  "name": "chunkAddr",
                  "type": "bytes32"
                }
              ],
              "internalType": "struct Redistribution.SOCProof[]",
              "name": "socProof",
              "type": "tuple[]"
            }
          ],
          "internalType": "struct Redistribution.ChunkInclusionProof",
          "name": "entryProof2",
          "type": "tuple"
        },
        {
          "components": [
            {
              "internalType": "bytes32[]",
              "name": "proofSegments",
              "type": "bytes32[]"
            },
            {
              "internalType": "bytes32",
              "name": "proveSegment",
              "type": "bytes32"
            },
            {
              "internalType": "bytes32[]",
              "name": "proofSegments2",
              "type": "bytes32[]"
            },
            {
              "internalType": "bytes32",
              "name": "proveSegment2",
              "type": "bytes32"
            },
            {
              "internalType": "uint64",
              "name": "chunkSpan",
              "type": "uint64"
            },
            {
              "internalType": "bytes32[]",
              "name": "proofSegments3",
              "type": "bytes32[]"
            },
            {
              "components": [
                {
                  "internalType": "bytes",
                  "name": "signature",
                  "type": "bytes"
                },
                {
                  "internalType": "bytes32",
                  "name": "postageId",
                  "type": "bytes32"
                },
                {
                  "internalType": "uint64",
                  "name": "index",
                  "type": "uint64"
                },
                {
                  "internalType": "uint64",
                  "name": "timeStamp",
                  "type": "uint64"
                }
              ],
              "internalType": "struct Redistribution.PostageProof",
              "name": "postageProof",
              "type": "tuple"
            },
            {
              "components": [
                {
                  "internalType": "address",
                  "name": "signer",
                  "type": "address"
                },
                {
                  "internalType": "bytes",
                  "name": "signature",
                  "type": "bytes"
                },
                {
                  "internalType": "bytes32",
                  "name": "identifier",
                  "type": "bytes32"
                },
                {
                  "internalType": "bytes32",
                  "name": "chunkAddr",
                  "type": "bytes32"
                }
              ],
              "internalType": "struct Redistribution.SOCProof[]",
              "name": "socProof",
              "type": "tuple[]"
            }
          ],
          "internalType": "struct Redistribution.ChunkInclusionProof",
          "name": "entryProofLast",
          "type": "tuple"
        }
      ],
      "name": "claim",
      "outputs": [],
      "stateMutability": "nonpayable",
      "type": "function"
    },
    {
      "inputs": [
        {
          "internalType": "bytes32",
          "name": "_obfuscatedHash",
          "type": "bytes32"
        },
        {
          "internalType": "bytes32",
          "name": "_overlay",
          "type": "bytes32"
        },
        {
          "internalType": "uint64",
          "name": "_roundNumber",
          "type": "uint64"
        }
      ],
      "name": "commit",
      "outputs": [],
      "stateMutability": "nonpayable",
      "type": "function"
    },
    {
      "inputs": [],
      "name": "currentClaimRound",
      "outputs": [
        {
          "internalType": "uint64",
          "name": "",
          "type": "uint64"
        }
      ],
      "stateMutability": "view",
      "type": "function"
    },
    {
      "inputs": [],
      "name": "currentCommitRound",
      "outputs": [
        {
          "internalType": "uint64",
          "name": "",
          "type": "uint64"
        }
      ],
      "stateMutability": "view",
      "type": "function"
    },
    {
      "inputs": [
        {
          "internalType": "uint256",
          "name": "",
          "type": "uint256"
        }
      ],
      "name": "currentCommits",
      "outputs": [
        {
          "internalType": "bytes32",
          "name": "overlay",
          "type": "bytes32"
        },
        {
          "internalType": "address",
          "name": "owner",
          "type": "address"
        },
        {
          "internalType": "bool",
          "name": "revealed",
          "type": "bool"
        },
        {
          "internalType": "uint256",
          "name": "stake",
          "type": "uint256"
        },
        {
          "internalType": "bytes32",
          "name": "obfuscatedHash",
          "type": "bytes32"
        },
        {
          "internalType": "uint256",
          "name": "revealIndex",
          "type": "uint256"
        }
      ],
      "stateMutability": "view",
      "type": "function"
    },
    {
      "inputs": [],
      "name": "currentMinimumDepth",
      "outputs": [
        {
          "internalType": "uint8",
          "name": "",
          "type": "uint8"
        }
      ],
      "stateMutability": "view",
      "type": "function"
    },
    {
      "inputs": [],
      "name": "currentPhaseClaim",
      "outputs": [
        {
          "internalType": "bool",
          "name": "",
          "type": "bool"
        }
      ],
      "stateMutability": "view",
      "type": "function"
    },
    {
      "inputs": [],
      "name": "currentPhaseCommit",
      "outputs": [
        {
          "internalType": "bool",
          "name": "",
          "type": "bool"
        }
      ],
      "stateMutability": "view",
      "type": "function"
    },
    {
      "inputs": [],
      "name": "currentPhaseReveal",
      "outputs": [
        {
          "internalType": "bool",
          "name": "",
          "type": "bool"
        }
      ],
      "stateMutability": "view",
      "type": "function"
    },
    {
      "inputs": [],
      "name": "currentRevealRound",
      "outputs": [
        {
          "internalType": "uint64",
          "name": "",
          "type": "uint64"
        }
      ],
      "stateMutability": "view",
      "type": "function"
    },
    {
      "inputs": [
        {
          "internalType": "uint256",
          "name": "",
          "type": "uint256"
        }
      ],
      "name": "currentReveals",
      "outputs": [
        {
          "internalType": "bytes32",
          "name": "overlay",
          "type": "bytes32"
        },
        {
          "internalType": "address",
          "name": "owner",
          "type": "address"
        },
        {
          "internalType": "uint8",
          "name": "depth",
          "type": "uint8"
        },
        {
          "internalType": "uint256",
          "name": "stake",
          "type": "uint256"
        },
        {
          "internalType": "uint256",
          "name": "stakeDensity",
          "type": "uint256"
        },
        {
          "internalType": "bytes32",
          "name": "hash",
          "type": "bytes32"
        }
      ],
      "stateMutability": "view",
      "type": "function"
    },
    {
      "inputs": [],
      "name": "currentRound",
      "outputs": [
        {
          "internalType": "uint64",
          "name": "",
          "type": "uint64"
        }
      ],
      "stateMutability": "view",
      "type": "function"
    },
    {
      "inputs": [],
      "name": "currentRoundAnchor",
      "outputs": [
        {
          "internalType": "bytes32",
          "name": "returnVal",
          "type": "bytes32"
        }
      ],
      "stateMutability": "view",
      "type": "function"
    },
    {
      "inputs": [],
      "name": "currentRoundReveals",
      "outputs": [
        {
          "components": [
            {
              "internalType": "bytes32",
              "name": "overlay",
              "type": "bytes32"
            },
            {
              "internalType": "address",
              "name": "owner",
              "type": "address"
            },
            {
              "internalType": "uint8",
              "name": "depth",
              "type": "uint8"
            },
            {
              "internalType": "uint256",
              "name": "stake",
              "type": "uint256"
            },
            {
              "internalType": "uint256",
              "name": "stakeDensity",
              "type": "uint256"
            },
            {
              "internalType": "bytes32",
              "name": "hash",
              "type": "bytes32"
            }
          ],
          "internalType": "struct Redistribution.Reveal[]",
          "name": "",
          "type": "tuple[]"
        }
      ],
      "stateMutability": "view",
      "type": "function"
    },
    {
      "inputs": [],
      "name": "currentSeed",
      "outputs": [
        {
          "internalType": "bytes32",
          "name": "",
          "type": "bytes32"
        }
      ],
      "stateMutability": "view",
      "type": "function"
    },
    {
      "inputs": [
        {
          "internalType": "bytes32",
          "name": "role",
          "type": "bytes32"
        }
      ],
      "name": "getRoleAdmin",
      "outputs": [
        {
          "internalType": "bytes32",
          "name": "",
          "type": "bytes32"
        }
      ],
      "stateMutability": "view",
      "type": "function"
    },
    {
      "inputs": [
        {
          "internalType": "bytes32",
          "name": "role",
          "type": "bytes32"
        },
        {
          "internalType": "address",
          "name": "account",
          "type": "address"
        }
      ],
      "name": "grantRole",
      "outputs": [],
      "stateMutability": "nonpayable",
      "type": "function"
    },
    {
      "inputs": [
        {
          "internalType": "bytes32",
          "name": "role",
          "type": "bytes32"
        },
        {
          "internalType": "address",
          "name": "account",
          "type": "address"
        }
      ],
      "name": "hasRole",
      "outputs": [
        {
          "internalType": "bool",
          "name": "",
          "type": "bool"
        }
      ],
      "stateMutability": "view",
      "type": "function"
    },
    {
      "inputs": [
        {
          "internalType": "bytes32",
          "name": "A",
          "type": "bytes32"
        },
        {
          "internalType": "bytes32",
          "name": "B",
          "type": "bytes32"
        },
        {
          "internalType": "uint8",
          "name": "minimum",
          "type": "uint8"
        }
      ],
      "name": "inProximity",
      "outputs": [
        {
          "internalType": "bool",
          "name": "",
          "type": "bool"
        }
      ],
      "stateMutability": "pure",
      "type": "function"
    },
    {
      "inputs": [
        {
          "internalType": "bytes32",
          "name": "overlay",
          "type": "bytes32"
        },
        {
          "internalType": "uint8",
          "name": "depth",
          "type": "uint8"
        }
      ],
      "name": "isParticipatingInUpcomingRound",
      "outputs": [
        {
          "internalType": "bool",
          "name": "",
          "type": "bool"
        }
      ],
      "stateMutability": "view",
      "type": "function"
    },
    {
      "inputs": [
        {
          "internalType": "bytes32",
          "name": "_overlay",
          "type": "bytes32"
        }
      ],
      "name": "isWinner",
      "outputs": [
        {
          "internalType": "bool",
          "name": "",
          "type": "bool"
        }
      ],
      "stateMutability": "view",
      "type": "function"
    },
    {
      "inputs": [],
      "name": "nextSeed",
      "outputs": [
        {
          "internalType": "bytes32",
          "name": "",
          "type": "bytes32"
        }
      ],
      "stateMutability": "view",
      "type": "function"
    },
    {
      "inputs": [],
      "name": "pause",
      "outputs": [],
      "stateMutability": "nonpayable",
      "type": "function"
    },
    {
      "inputs": [],
      "name": "paused",
      "outputs": [
        {
          "internalType": "bool",
          "name": "",
          "type": "bool"
        }
      ],
      "stateMutability": "view",
      "type": "function"
    },
    {
      "inputs": [
        {
          "internalType": "bytes32",
          "name": "role",
          "type": "bytes32"
        },
        {
          "internalType": "address",
          "name": "account",
          "type": "address"
        }
      ],
      "name": "renounceRole",
      "outputs": [],
      "stateMutability": "nonpayable",
      "type": "function"
    },
    {
      "inputs": [
        {
          "internalType": "bytes32",
          "name": "_overlay",
          "type": "bytes32"
        },
        {
          "internalType": "uint8",
          "name": "_depth",
          "type": "uint8"
        },
        {
          "internalType": "bytes32",
          "name": "_hash",
          "type": "bytes32"
        },
        {
          "internalType": "bytes32",
          "name": "_revealNonce",
          "type": "bytes32"
        }
      ],
      "name": "reveal",
      "outputs": [],
      "stateMutability": "nonpayable",
      "type": "function"
    },
    {
      "inputs": [
        {
          "internalType": "bytes32",
          "name": "role",
          "type": "bytes32"
        },
        {
          "internalType": "address",
          "name": "account",
          "type": "address"
        }
      ],
      "name": "revokeRole",
      "outputs": [],
      "stateMutability": "nonpayable",
      "type": "function"
    },
    {
      "inputs": [
        {
          "internalType": "uint8",
          "name": "_penaltyMultiplierDisagreement",
          "type": "uint8"
        },
        {
          "internalType": "uint8",
          "name": "_penaltyMultiplierNonRevealed",
          "type": "uint8"
        }
      ],
      "name": "setFreezingParams",
      "outputs": [],
      "stateMutability": "nonpayable",
      "type": "function"
    },
    {
      "inputs": [
        {
          "internalType": "uint256",
          "name": "_sampleMaxValue",
          "type": "uint256"
        }
      ],
      "name": "setSampleMaxValue",
      "outputs": [],
      "stateMutability": "nonpayable",
      "type": "function"
    },
    {
      "inputs": [
        {
          "internalType": "bytes4",
          "name": "interfaceId",
          "type": "bytes4"
        }
      ],
      "name": "supportsInterface",
      "outputs": [
        {
          "internalType": "bool",
          "name": "",
          "type": "bool"
        }
      ],
      "stateMutability": "view",
      "type": "function"
    },
    {
      "inputs": [],
      "name": "unPause",
      "outputs": [],
      "stateMutability": "nonpayable",
      "type": "function"
    },
    {
      "inputs": [],
      "name": "winner",
      "outputs": [
        {
          "internalType": "bytes32",
          "name": "overlay",
          "type": "bytes32"
        },
        {
          "internalType": "address",
          "name": "owner",
          "type": "address"
        },
        {
          "internalType": "uint8",
          "name": "depth",
          "type": "uint8"
        },
        {
          "internalType": "uint256",
          "name": "stake",
          "type": "uint256"
        },
        {
          "internalType": "uint256",
          "name": "stakeDensity",
          "type": "uint256"
        },
        {
          "internalType": "bytes32",
          "name": "hash",
          "type": "bytes32"
        }
      ],
      "stateMutability": "view",
      "type": "function"
    },
    {
      "inputs": [
        {
          "internalType": "bytes32",
          "name": "_overlay",
          "type": "bytes32"
        },
        {
          "internalType": "uint8",
          "name": "_depth",
          "type": "uint8"
        },
        {
          "internalType": "bytes32",
          "name": "_hash",
          "type": "bytes32"
        },
        {
          "internalType": "bytes32",
          "name": "revealNonce",
          "type": "bytes32"
        }
      ],
      "name": "wrapCommit",
      "outputs": [
        {
          "internalType": "bytes32",
          "name": "",
          "type": "bytes32"
        }
      ],
      "stateMutability": "pure",
      "type": "function"
    }
  ],
  "transactionHash": "0xa0f259230389cda43d4fc8e7833738b29a1de6953e35484e0a06728ee321acb6",
  "args": [
    "0x781c6D1f0eaE6F1Da1F604c6cDCcdB8B76428ba7",
    "0x3a235fd10563fDD954C3199c08f4DA132284287D",
    "0xa5fc14981a6f5b19355C427409ef3771C87c6095"
  ],
  "numDeployments": 1,
  "solcInputHash": "7d0578268e2dd60f7407510699fe32df",
  "bytecode": "0x60a06040526008805461ffff60c01b191661020160c01b1790557e01fb1e371c33664c0593e0acb07879ae5055e85db9138000000000000000006009553480156200004957600080fd5b5060405162004a9b38038062004a9b8339810160408190526200006c91620001cf565b60018054600380546001600160a01b03199081166001600160a01b03888116919091179092556001600160a81b03199092166101008683160217909255600280549091169183169190911790557f65d7a28e3265b37a6474929f336521b332c1681b933f6cb9f3376673440d862a608052620000ea60003362000102565b608051620000f9903362000102565b50505062000219565b6200010e828262000112565b5050565b6000828152602081815260408083206001600160a01b038516845290915290205460ff166200010e576000828152602081815260408083206001600160a01b03851684529091529020805460ff191660011790556200016e3390565b6001600160a01b0316816001600160a01b0316837f2f8788117e7eff1d82e926ec794901d17c78024a50270940304540a733656f0d60405160405180910390a45050565b80516001600160a01b0381168114620001ca57600080fd5b919050565b600080600060608486031215620001e557600080fd5b620001f084620001b2565b92506200020060208501620001b2565b91506200021060408501620001b2565b90509250925092565b60805161485f6200023c600039600081816110e90152611fad015261485f6000f3fe608060405234801561001057600080fd5b50600436106102775760003560e01c806382b39b1b11610160578063b78a52a7116100d8578063d547741f1161008c578063f69ee1d111610071578063f69ee1d1146105d5578063f7b188a5146105e8578063fb00f2f3146105f057600080fd5b8063d547741f14610592578063dfbf53ae146105a557600080fd5b8063c46b4029116100bd578063c46b40291461055d578063ce98774514610577578063d1e8b63d1461058a57600080fd5b8063b78a52a714610537578063c1d810d51461054a57600080fd5b80638d8b64281161012f57806391d148541161011457806391d14854146104e5578063a217fddf1461051c578063aeace9dc1461052457600080fd5b80638d8b6428146104ca57806391276bec146104d257600080fd5b806382b39b1b1461046257806383220626146104b25780638456cb59146104ba5780638a19c8bc146104c257600080fd5b806362fd29ae116101f357806369da9114116101c257806372286cba116101a757806372286cba146103e657806377c75d10146104345780637fe019c61461044757600080fd5b806369da9114146103b85780636f94aaf2146103cb57600080fd5b806362fd29ae1461036857806363f5cf7c1461037057806364c34a851461038357806369bfac011461038b57600080fd5b80632f2ff15d1161024a57806336568abe1161022f57806336568abe146103375780635c975abb1461034a5780635d4844ea1461035557600080fd5b80632f2ff15d1461031a5780632f3906da1461032f57600080fd5b806301ffc9a71461027c57806318350096146102a4578063248a9ca3146102d45780632a4e624914610305575b600080fd5b61028f61028a366004613fda565b610603565b60405190151581526020015b60405180910390f35b6001546102bc9061010090046001600160a01b031681565b6040516001600160a01b03909116815260200161029b565b6102f76102e2366004614004565b60009081526020819052604090206001015490565b60405190815260200161029b565b61030d61066c565b60405161029b919061401d565b61032d6103283660046140c1565b610779565b005b61028f6107a3565b61032d6103453660046140c1565b6107ed565b60015460ff1661028f565b6003546102bc906001600160a01b031681565b6102f761087e565b61032d61037e36600461410a565b61094a565b6102f7610ce5565b60085461039f9067ffffffffffffffff1681565b60405167ffffffffffffffff909116815260200161029b565b6002546102bc906001600160a01b031681565b60085461039f90600160801b900467ffffffffffffffff1681565b6103f96103f4366004614004565b610dc5565b604080519687526001600160a01b039095166020870152921515938501939093526060840152608083019190915260a082015260c00161029b565b61028f610442366004614004565b610e1c565b60085461039f90600160401b900467ffffffffffffffff1681565b610475610470366004614004565b6110cc565b604080519687526001600160a01b03909516602087015260ff909316938501939093526060840152608083019190915260a082015260c00161029b565b6102f76110dc565b61032d6110e7565b61039f61114a565b61028f611157565b61032d6104e03660046141af565b611181565b61028f6104f33660046140c1565b6000918252602082815260408084206001600160a01b0393909316845291905290205460ff1690565b6102f7600081565b61032d6105323660046141f3565b611707565b61028f610545366004614221565b6117bf565b61032d610558366004614246565b61194e565b610565611e19565b60405160ff909116815260200161029b565b6102f7610585366004614246565b611e9e565b61028f611f0d565b61032d6105a03660046140c1565b611f32565b600a54600b54600c54600d54600e5461047594936001600160a01b03811693600160a01b90910460ff1692909186565b61032d6105e3366004614004565b611f57565b61032d611fab565b61028f6105fe366004614283565b61200c565b60006001600160e01b031982167f7965db0b00000000000000000000000000000000000000000000000000000000148061066657507f01ffc9a7000000000000000000000000000000000000000000000000000000006001600160e01b03198316145b92915050565b6060610676611157565b61069357604051633788c6c160e11b815260040160405180910390fd5b600061069d61114a565b60085490915067ffffffffffffffff808316600160401b90920416146106d657604051636fbabc7760e01b815260040160405180910390fd5b6005805480602002602001604051908101604052809291908181526020016000905b8282101561076f5760008481526020908190206040805160c08101825260058602909201805483526001808201546001600160a01b03811685870152600160a01b900460ff169284019290925260028101546060840152600381015460808401526004015460a083015290835290920191016106f8565b5050505091505090565b60008281526020819052604090206001015461079481612048565b61079e8383612055565b505050565b6000806107b16098436142d2565b90506107bf600460986142fc565b81101580156107d857506107d5600260986142fc565b81105b156107e557600191505090565b600091505090565b6001600160a01b03811633146108705760405162461bcd60e51b815260206004820152602f60248201527f416363657373436f6e74726f6c3a2063616e206f6e6c792072656e6f756e636560448201527f20726f6c657320666f722073656c66000000000000000000000000000000000060648201526084015b60405180910390fd5b61087a82826120f3565b5050565b60008061088961114a565b610894906001614310565b600754600854919250906108ba90600160401b900467ffffffffffffffff166001614310565b67ffffffffffffffff168267ffffffffffffffff161115610666576008546000906001906108f990600160401b900467ffffffffffffffff1685614338565b6109039190614338565b67ffffffffffffffff169050818160405160200161092b929190918252602082015260400190565b6040516020818303038152906040528051906020012091505092915050565b610952612172565b61095a6121c5565b6040805160c081018252600a548152600b546001600160a01b0381166020830152600160a01b900460ff1691810191909152600c546060820152600d546080820152600e5460a082015260065460075460009182916109ba600f826142d2565b93506109c7600e826142d2565b92508383106109de57826109da81614359565b9350505b6109f1866020013583876040015161200c565b610a1157604051633b5f43a360e01b815260036004820152602401610867565b610a1c86601e61279a565b610a2586612aac565b610a2e86612db9565b610a41886020013583876040015161200c565b610a6157604051633b5f43a360e01b815260026004820152602401610867565b610a7588610a70866002614372565b61279a565b610a7e88612aac565b610a8788612db9565b610a9a876020013583876040015161200c565b610aba57604051633b5f43a360e01b815260016004820152602401610867565b610ac987610a70856002614372565b610ad287612aac565b610adb87612db9565b610b518484610aea8b80614389565b6000818110610afb57610afb6143da565b60200291909101359050610b0f8b80614389565b6000818110610b2057610b206143da565b60200291909101359050610b348b80614389565b6000818110610b4557610b456143da565b9050602002013561304d565b610b7b610b5e8780614389565b6000818110610b6f57610b6f6143da565b905060200201356130da565b60015460208601516040517f51cff8d90000000000000000000000000000000000000000000000000000000081526001600160a01b03918216600482015261010090920416906351cff8d990602401600060405180830381600087803b158015610be457600080fd5b505af1158015610bf8573d6000803e3d6000fd5b505050507f788e77979e6e6a8a6a5d2c19c58b1ff9671298f54c85ac6f6aa30379aed5861a85604051610c2b91906143f0565b60405180910390a17fbee3fc8a3523c1a65fa9308ce1f2b8fd90c24975b141b754603194597846e4dd60018054906101000a90046001600160a01b03166001600160a01b0316638a5e8e326040518163ffffffff1660e01b8152600401602060405180830381865afa158015610ca5573d6000803e3d6000fd5b505050506040513d601f19601f82011682018060405250810190610cc9919061443f565b6040519081526020015b60405180910390a15050505050505050565b6000610cef611f0d565b80610d2d5750600854600160401b900467ffffffffffffffff16610d1161114a565b67ffffffffffffffff16118015610d2d5750610d2b611157565b155b15610d3f57610d3a6110dc565b905090565b610d47611157565b15610d5457610d3a61087e565b610d5c6107a3565b8015610d8b5750600854600160401b900467ffffffffffffffff16610d7f61114a565b67ffffffffffffffff16145b15610dc2576040517f36b7884b00000000000000000000000000000000000000000000000000000000815260040160405180910390fd5b90565b60048181548110610dd557600080fd5b6000918252602090912060059091020180546001820154600283015460038401546004909401549294506001600160a01b03821693600160a01b90920460ff169290919086565b6000610e26611157565b610e4357604051633788c6c160e11b815260040160405180910390fd5b6000610e4d61114a565b60085490915067ffffffffffffffff808316600160401b9092041614610e8657604051636fbabc7760e01b815260040160405180910390fd5b60085467ffffffffffffffff600160801b909104811690821611610ebd57604051630c8d9eab60e31b815260040160405180910390fd5b600080600080600080600080610ed1613118565b90506000610edd6131d2565b600454919650945060005b818110156110b85760048181548110610f0357610f036143da565b906000526020600020906005020160040154945060048181548110610f2a57610f2a6143da565b906000526020600020906005020160010160149054906101000a900460ff168015610f78575060058581548110610f6357610f636143da565b90600052602060002090600502016004015487145b8015610fb6575060058581548110610f9257610f926143da565b600091825260209091206001600590920201015460ff878116600160a01b90920416145b156110b05760058581548110610fce57610fce6143da565b9060005260206000209060050201600301548b610feb9190614458565b9a50838360405160200161100092919061448f565b60408051601f19818403018152919052805160209091012098506fffffffffffffffffffffffffffffffff808a16985061103b906001614458565b6005868154811061104e5761104e6143da565b90600052602060002090600502016003015461106a9190614372565b6110748c8a614372565b10156110a2576005858154811061108d5761108d6143da565b90600052602060002090600502016000015499505b826110ac81614359565b9350505b600101610ee8565b505050959099149998505050505050505050565b60058181548110610dd557600080fd5b60008061089461114a565b7f000000000000000000000000000000000000000000000000000000000000000060009081526020818152604080832033845290915290205460ff1661114057604051631d77d47760e21b815260040160405180910390fd5b61114861338b565b565b6000610d3a6098436142fc565b6000611165600260986142fc565b6111706098436142d2565b1061117b5750600190565b50600090565b611189612172565b600061119361114a565b6003546040516348962b9360e01b8152600481018690529192506000916001600160a01b03909116906348962b9390602401602060405180830381865afa1580156111e2573d6000803e3d6000fd5b505050506040513d601f19601f82011682018060405250810190611206919061443f565b9050611210611f0d565b611246576040517fdc816a8700000000000000000000000000000000000000000000000000000000815260040160405180910390fd5b6001611254600460986142fc565b61125e91906144b1565b6112696098436142d2565b036112a0576040517f5baef6b600000000000000000000000000000000000000000000000000000000815260040160405180910390fd5b8267ffffffffffffffff168267ffffffffffffffff1611156112ee576040517f50ff7c0000000000000000000000000000000000000000000000000000000000815260040160405180910390fd5b8267ffffffffffffffff168267ffffffffffffffff16101561133c576040517f7a0c0fd600000000000000000000000000000000000000000000000000000000815260040160405180910390fd5b67016345785d8a000081101561136557604051638ecf3d0360e01b815260040160405180910390fd5b6003546040517fa0d22b210000000000000000000000000000000000000000000000000000000081526004810186905233916001600160a01b03169063a0d22b2190602401602060405180830381865afa1580156113c7573d6000803e3d6000fd5b505050506040513d601f19601f820116820180604052508101906113eb91906144c4565b6001600160a01b03161461142b576040517fb78fd5c600000000000000000000000000000000000000000000000000000000815260040160405180910390fd5b61143760986002614372565b61144190436144b1565b6003546040516376f2098160e11b8152600481018790526001600160a01b039091169063ede4130290602401602060405180830381865afa15801561148a573d6000803e3d6000fd5b505050506040513d601f19601f820116820180604052508101906114ae919061443f565b106114cc57604051630a0744c560e01b815260040160405180910390fd5b60085467ffffffffffffffff83811691161461150c576114ee60046000613f71565b6008805467ffffffffffffffff191667ffffffffffffffff84161790555b60045460005b8181101561157f57856004828154811061152e5761152e6143da565b90600052602060002090600502016000015403611577576040517ffc507a3100000000000000000000000000000000000000000000000000000000815260040160405180910390fd5b600101611512565b506040805160c081018252868152336020808301918252600083850181815260608501888152608086018d815260a0870184815260048054600181018255955296517f8a35acfbc15ff81a39ae7d344fd709f28e8600b4aa8c65c6b64bfe7fe36bd19b60059095029485015594517f8a35acfbc15ff81a39ae7d344fd709f28e8600b4aa8c65c6b64bfe7fe36bd19c8401805493516001600160a01b0390921674ffffffffffffffffffffffffffffffffffffffffff1990941693909317600160a01b9115159190910217909155517f8a35acfbc15ff81a39ae7d344fd709f28e8600b4aa8c65c6b64bfe7fe36bd19d82015591517f8a35acfbc15ff81a39ae7d344fd709f28e8600b4aa8c65c6b64bfe7fe36bd19e83015591517f8a35acfbc15ff81a39ae7d344fd709f28e8600b4aa8c65c6b64bfe7fe36bd19f90910155815167ffffffffffffffff871681529081018790527f68e0867601a98978930107aee7f425665e61edd70ca594c68ca5da9e81f84c29910160405180910390a1505050505050565b3360009081527fad3228b676f7d3cd4284a5443f17f1962b36e491b30a40b2405849e597ba5fb5602052604090205460ff1661175657604051637bfa4b9f60e01b815260040160405180910390fd5b600880547fffffffffffff0000ffffffffffffffffffffffffffffffffffffffffffffffff16600160c01b60ff948516027fffffffffffff00ffffffffffffffffffffffffffffffffffffffffffffffffff1617600160c81b9290931691909102919091179055565b60006117c96107a3565b15611800576040517fe2586bcc00000000000000000000000000000000000000000000000000000000815260040160405180910390fd5b61180c60986002614372565b61181690436144b1565b6003546040516376f2098160e11b8152600481018690526001600160a01b039091169063ede4130290602401602060405180830381865afa15801561185f573d6000803e3d6000fd5b505050506040513d601f19601f82011682018060405250810190611883919061443f565b106118a157604051630a0744c560e01b815260040160405180910390fd5b6003546040516348962b9360e01b81526004810185905267016345785d8a0000916001600160a01b0316906348962b9390602401602060405180830381865afa1580156118f2573d6000803e3d6000fd5b505050506040513d601f19601f82011682018060405250810190611916919061443f565b101561193557604051638ecf3d0360e01b815260040160405180910390fd5b61194783611941610ce5565b8461200c565b9392505050565b611956612172565b600061196061114a565b905061196a611e19565b60ff168460ff1610156119a9576040517f83d9b7bd00000000000000000000000000000000000000000000000000000000815260040160405180910390fd5b6119b16107a3565b6119e7576040517fd1088db600000000000000000000000000000000000000000000000000000000815260040160405180910390fd5b60085467ffffffffffffffff828116911614611a2f576040517f842a9e0a00000000000000000000000000000000000000000000000000000000815260040160405180910390fd5b60085467ffffffffffffffff828116600160401b9092041614611b1757611a54610ce5565b600655611a6360056000613f71565b600880547fffffffffffffffffffffffffffffffff0000000000000000ffffffffffffffff16600160401b67ffffffffffffffff8416908102919091179091556006546040805192835260208301919091527ff0ae472da9c8da86bda4991a549c03a3cb328b5f360ea11a5b8814f32bb85176910160405180910390a1611b17600754604080516020810192909252449082015260600160408051601f198184030181529190528051602090910120600755565b6000611b2586868686611e9e565b90506000611b3387836133df565b9050600060048281548110611b4a57611b4a6143da565b60009182526020918290206040805160c081018252600593909302909101805480845260018201546001600160a01b03811695850195909552600160a01b90940460ff1615159183019190915260028101546060830152600381015460808301526004015460a0820152600654909250611bc591908961200c565b611c01576006546040517f14ebbbe400000000000000000000000000000000000000000000000000000000815260040161086791815260200190565b806040015115611c3d576040517fa89ac15100000000000000000000000000000000000000000000000000000000815260040160405180910390fd5b600160048381548110611c5257611c526143da565b906000526020600020906005020160010160146101000a81548160ff02191690831515021790555060058054905060048381548110611c9357611c936143da565b90600052602060002090600502016004018190555060056040518060c001604052808360000151815260200183602001516001600160a01b031681526020018960ff16815260200183606001518152602001896002611cf291906145c5565b8460600151611d019190614372565b815260209081018990528254600181810185556000948552938290208351600590920201908155908201519281018054604084015160ff16600160a01b0274ffffffffffffffffffffffffffffffffffffffffff199091166001600160a01b0390951694909417939093179092556060808201516002808501919091556080830151600385015560a0909201516004909301929092558251918301517f13fc17fd71632266fe82092de6dd91a06b4fa68d8dc950492e5421cbed55a6a5928792909190611dcf908c906145c5565b8560600151611dde9190614372565b6040805167ffffffffffffffff909516855260208501939093529183015260608201526080810188905260ff891660a082015260c001610cd3565b6008546000908190611e3e9067ffffffffffffffff600160801b820481169116614338565b67ffffffffffffffff169050600060fe8211611e5a5781611e5d565b60fe5b611e689060016145d4565b600b5490915060ff600160a01b9091048116908216811115611e9357611e8e82826145ed565b611e96565b60005b935050505090565b60408051602081018690527fff0000000000000000000000000000000000000000000000000000000000000060f886901b169181019190915260418101839052606181018290526000906081015b6040516020818303038152906040528051906020012090505b949350505050565b6000611f1b600460986142fc565b611f266098436142d2565b101561117b5750600190565b600082815260208190526040902060010154611f4d81612048565b61079e83836120f3565b3360009081527fad3228b676f7d3cd4284a5443f17f1962b36e491b30a40b2405849e597ba5fb5602052604090205460ff16611fa657604051637bfa4b9f60e01b815260040160405180910390fd5b600955565b7f000000000000000000000000000000000000000000000000000000000000000060009081526020818152604080832033845290915290205460ff1661200457604051631d77d47760e21b815260040160405180910390fd5b61114861348a565b60008160ff1660000361202157506001611947565b61203060ff8316610100614606565b61203b906002614621565b8484181090509392505050565b61205281336134c3565b50565b6000828152602081815260408083206001600160a01b038516845290915290205460ff1661087a576000828152602081815260408083206001600160a01b03851684529091529020805460ff191660011790556120af3390565b6001600160a01b0316816001600160a01b0316837f2f8788117e7eff1d82e926ec794901d17c78024a50270940304540a733656f0d60405160405180910390a45050565b6000828152602081815260408083206001600160a01b038516845290915290205460ff161561087a576000828152602081815260408083206001600160a01b0385168085529252808320805460ff1916905551339285917ff6391f5c32d9c69d2a47ea670b442974b53935d1edc7fd64eb21e047a839171b9190a45050565b60015460ff16156111485760405162461bcd60e51b815260206004820152601060248201527f5061757361626c653a20706175736564000000000000000000000000000000006044820152606401610867565b60006121cf61114a565b90506121d9611157565b6121f657604051633788c6c160e11b815260040160405180910390fd5b60085467ffffffffffffffff828116600160401b909204161461222c57604051636fbabc7760e01b815260040160405180910390fd5b60085467ffffffffffffffff600160801b90910481169082161161226357604051630c8d9eab60e31b815260040160405180910390fd5b600454604051818152600091829182918291829182917f6752c5e71c95fb93bc7137adeb115a33fa4e54e2683e33d3f90c2bb1c4b6c2a59060200160405180910390a16005546040519081527f4c03de6a759749c0c9387b7014634dc5c6af610e1366023d90751c783a998f8d9060200160405180910390a16122e46131d2565b6040805183815260ff831660208201529295509093507f34e8eda4cd857cd2865becf58a47748f31415f4a382cbb2cc0c64b9a27c717be910160405180910390a1600061232f613118565b905060005b828110156126d457600060048281548110612351576123516143da565b600091825260208083206040805160c08101825260059485029092018054835260018101546001600160a01b03811694840194909452600160a01b90930460ff16151590820152600282015460608201526003820154608082015260049091015460a082018190528254919450929190839081106123d1576123d16143da565b60009182526020918290206040805160c0810182526005939093029091018054835260018101546001600160a01b03811694840194909452600160a01b90930460ff1682820152600283015460608301526003830154608083015260049092015460a082015290840151909150801561244d57508060a0015188145b80156124625750806040015160ff168760ff16145b15612557576080810151612476908d614458565b9b50848b60405160200161248b92919061448f565b60408051601f19818403018152919052805160209091012099506fffffffffffffffffffffffffffffffff808b1699506124c6906001614458565b81608001516124d59190614372565b6124df8d8b614372565b1015612549578051600a556020810151600b8054604084015160ff16600160a01b0274ffffffffffffffffffffffffffffffffffffffffff199091166001600160a01b03909316929092179190911790556060810151600c556080810151600d5560a0810151600e555b8a61255381614359565b9b50505b8260400151801561258057508060a00151881415806125805750806040015160ff168760ff1614155b156126215760035481516001600160a01b039091169063837fd16a906125a78a60026145c5565b6008546125c090609890600160c01b900460ff16614372565b6125ca9190614372565b6040516001600160e01b031960e085901b16815260048101929092526024820152604401600060405180830381600087803b15801561260857600080fd5b505af115801561261c573d6000803e3d6000fd5b505050505b82604001516126c65760035483516001600160a01b039091169063837fd16a9061264c8a60026145c5565b60085461266590609890600160c81b900460ff16614372565b61266f9190614372565b6040516001600160e01b031960e085901b16815260048101929092526024820152604401600060405180830381600087803b1580156126ad57600080fd5b505af11580156126c1573d6000803e3d6000fd5b505050505b836001019350505050612334565b506002546040517fffb98fe300000000000000000000000000000000000000000000000000000000815261ffff891660048201526001600160a01b039091169063ffb98fe390602401600060405180830381600087803b15801561273757600080fd5b505af115801561274b573d6000803e3d6000fd5b50506008805467ffffffffffffffff909c16600160801b027fffffffffffffffff0000000000000000ffffffffffffffffffffffffffffffff909c169b909b17909a5550505050505050505050565b6007546000906127ac906080906142d2565b9050600061280f6127c060a0860186614389565b8080602002602001604051908101604052809392919081815260200183836020028082843760009201919091525050505060608601358461280760a0890160808a01614631565b600654613536565b60408051858152602081018390529192507f94e252069a85aa79db21f5bd8ca4e14dd3a3927aa492711017a2c8ddad95af00910160405180910390a16128976128588580614389565b808060200260200160405190810160405280939291908181526020018383602002808284376000920191909152505050506020860135856104006136ae565b600e54146128c25760405163755f0a2560e01b81526001600482015260248101829052604401610867565b6128cf60a0850185614389565b60008181106128e0576128e06143da565b905060200201358480604001906128f79190614389565b6000818110612908576129086143da565b90506020020135146129375760405163755f0a2560e01b81526002600482015260248101829052604401610867565b60008061294760e0870187614389565b90501161295857846020013561298d565b61296560e0860186614389565b6000818110612976576129766143da565b9050602002810190612988919061464c565b606001355b90506129eb61299f6040870187614389565b808060200260200160405190810160405280939291908181526020018383602002808284376000920191909152505050506060870135856129e660a08a0160808b01614631565b6136ae565b8114612a145760405163755f0a2560e01b81526003600482015260248101839052604401610867565b6000612a2360e0870187614389565b90501115612a5b5760408051602080880135908201529081018390526060016040516020818303038152906040528051906020012091505b81612a668680614389565b6000818110612a7757612a776143da565b9050602002013514612aa55760405163755f0a2560e01b815260048181015260248101839052604401610867565b5050505050565b6001546000908190819061010090046001600160a01b031663c81e25ab612ad660c087018761464c565b602001356040518263ffffffff1660e01b8152600401612af891815260200190565b60c060405180830381865afa158015612b15573d6000803e3d6000fd5b505050506040513d601f19601f82011682018060405250810190612b39919061466c565b509396509194509250506001600160a01b0384169050612b9957612b6060c085018561464c565b602001356040517f2396d34e00000000000000000000000000000000000000000000000000000000815260040161086791815260200190565b6000612bbc612bab60c087018761464c565b610dc2906060810190604001614631565b90506000612bca848461381c565b9050808263ffffffff1610612c1f57612be660c087018761464c565b602001356040517f1362e4a000000000000000000000000000000000000000000000000000000000815260040161086791815260200190565b6000612c4e612c3160c089018961464c565b612c42906060810190604001614631565b60201c63ffffffff1690565b90506000612c60886020013586613837565b63ffffffff16905067ffffffffffffffff82168114612cbf57612c8660c089018961464c565b602001356040517f6dd6a24f00000000000000000000000000000000000000000000000000000000815260040161086791815260200190565b612d6587612cd060c08b018b61464c565b612cda90806146e4565b8080601f01602080910402602001604051908101604052809392919081815260200183838082843760009201919091525050505060208b0135612d2060c08d018d61464c565b60200135612d3160c08e018e61464c565b612d42906060810190604001614631565b612d4f60c08f018f61464c565b612d60906080810190606001614631565b61385e565b612daf57612d7660c089018961464c565b602001356040517fdb12fb9d00000000000000000000000000000000000000000000000000000000815260040161086791815260200190565b5050505050505050565b612dc660e0820182614389565b9050600003612dd25750565b612ef3612de260e0830183614389565b6000818110612df357612df36143da565b9050602002810190612e05919061464c565b612e1390602081019061472b565b612e2060e0840184614389565b6000818110612e3157612e316143da565b9050602002810190612e43919061464c565b612e519060208101906146e4565b8080601f016020809104026020016040519081016040528093929190818152602001838380828437600092019190915250612e939250505060e0850185614389565b6000818110612ea457612ea46143da565b9050602002810190612eb6919061464c565b60400135612ec760e0860186614389565b6000818110612ed857612ed86143da565b9050602002810190612eea919061464c565b606001356138f5565b612f6057612f0460e0820182614389565b6000818110612f1557612f156143da565b9050602002810190612f27919061464c565b606001356040517fd740df6100000000000000000000000000000000000000000000000000000000815260040161086791815260200190565b6020810135612fdf612f7560e0840184614389565b6000818110612f8657612f866143da565b9050602002810190612f98919061464c565b60400135612fa960e0850185614389565b6000818110612fba57612fba6143da565b9050602002810190612fcc919061464c565b612fda90602081019061472b565b613988565b1461205257612ff160e0820182614389565b6000818110613002576130026143da565b9050602002810190613014919061464c565b606001356040517f82f2469d00000000000000000000000000000000000000000000000000000000815260040161086791815260200190565b8385101561309a5781831061307557604051633d386eb360e11b815260040160405180910390fd5b80821061309557604051633588c6d360e11b815260040160405180910390fd5b612aa5565b8282106130ba57604051633d386eb360e11b815260040160405180910390fd5b808310612aa557604051633588c6d360e11b815260040160405180910390fd5b6009548110612052576040517fb6052cdf00000000000000000000000000000000000000000000000000000000815260048101829052602401610867565b6060613122611157565b61313f57604051633788c6c160e11b815260040160405180910390fd5b600061314961114a565b60085490915067ffffffffffffffff808316600160401b909204161461318257604051636fbabc7760e01b815260040160405180910390fd5b6007546040516020016131bd9181527f3100000000000000000000000000000000000000000000000000000000000000602082015260210190565b60405160208183030381529060405291505090565b60008060008060008060008060006131e86139d6565b60045490915060005b8181101561337a576004818154811061320c5761320c6143da565b906000526020600020906005020160010160149054906101000a900460ff16156133725760048181548110613243576132436143da565b90600052602060002090600502016004015493506005848154811061326a5761326a6143da565b906000526020600020906005020160030154896132879190614458565b9850828160405160200161329c92919061448f565b60408051601f19818403018152919052805160209091012097506fffffffffffffffffffffffffffffffff80891697506132d7906001614458565b600585815481106132ea576132ea6143da565b9060005260206000209060050201600301546133069190614372565b6133108a89614372565b10156133725760058481548110613329576133296143da565b906000526020600020906005020160040154955060058481548110613350576133506143da565b906000526020600020906005020160010160149054906101000a900460ff1694505b6001016131f1565b509399929850919650505050505050565b613393612172565b6001805460ff1916811790557f62e78cea01bee320cd4e420270b5ea74000d11b0c9f74754ebdbfc544b05a258335b6040516001600160a01b03909116815260200160405180910390a1565b6000805b600454811015613457578360048281548110613401576134016143da565b90600052602060002090600502016000015414801561344357506004818154811061342e5761342e6143da565b90600052602060002090600502016003015483145b1561344f579050610666565b6001016133e3565b506040517fd950091500000000000000000000000000000000000000000000000000000000815260040160405180910390fd5b613492613a5f565b6001805460ff191690557f5db9ee0a495bf2e6ff9c91a7834c1ba4fdd244a5e8aa4e537bd38aeae4b073aa336133c2565b6000828152602081815260408083206001600160a01b038516845290915290205460ff1661087a576134f481613ab1565b6134ff836020613ac3565b604051602001613510929190614748565b60408051601f198184030181529082905262461bcd60e51b8252610867916004016147c9565b60008061354587878786613c88565b90508261364a856000808267ffffffffffffffff1690506008817eff00ff00ff00ff00ff00ff00ff00ff00ff00ff00ff00ff00ff00ff00ff00ff16901b600882901c7eff00ff00ff00ff00ff00ff00ff00ff00ff00ff00ff00ff00ff00ff00ff00ff161790506010817dffff0000ffff0000ffff0000ffff0000ffff0000ffff0000ffff0000ffff16901b601082901c7dffff0000ffff0000ffff0000ffff0000ffff0000ffff0000ffff0000ffff161790506020817bffffffff00000000ffffffff00000000ffffffff00000000ffffffff16901b602082901c7bffffffff00000000ffffffff00000000ffffffff00000000ffffffff1617905080915050919050565b8260405160200161368c9392919092835260c09190911b77ffffffffffffffffffffffffffffffffffffffffffffffff19166020830152602882015260480190565b6040516020818303038152906040528051906020012091505095945050505050565b6000806136bc868686613cfe565b90506137c0836000808267ffffffffffffffff1690506008817eff00ff00ff00ff00ff00ff00ff00ff00ff00ff00ff00ff00ff00ff00ff00ff16901b600882901c7eff00ff00ff00ff00ff00ff00ff00ff00ff00ff00ff00ff00ff00ff00ff00ff161790506010817dffff0000ffff0000ffff0000ffff0000ffff0000ffff0000ffff0000ffff16901b601082901c7dffff0000ffff0000ffff0000ffff0000ffff0000ffff0000ffff0000ffff161790506020817bffffffff00000000ffffffff00000000ffffffff00000000ffffffff16901b602082901c7bffffffff00000000ffffffff00000000ffffffff00000000ffffffff1617905080915050919050565b816040516020016137fb92919060c09290921b77ffffffffffffffffffffffffffffffffffffffffffffffff19168252600882015260280190565b60405160208183030381529060405280519060200120915050949350505050565b600061382882846145ed565b60ff166001901b905092915050565b600060e083901c6138498360206145ed565b60ff168163ffffffff16901c91505092915050565b60008061386d86868686613d66565b905060006138c8826040517f19457468657265756d205369676e6564204d6573736167653a0a3332000000006020820152603c8101829052600090605c01604051602081830303815290604052805190602001209050919050565b9050886001600160a01b03166138de828a613db1565b6001600160a01b0316149998505050505050505050565b6000806139028484613e30565b9050600061395d826040517f19457468657265756d205369676e6564204d6573736167653a0a3332000000006020820152603c8101829052600090605c01604051602081830303815290604052805190602001209050919050565b9050866001600160a01b03166139738288613db1565b6001600160a01b031614979650505050505050565b600082826040516020016139b892919091825260601b6bffffffffffffffffffffffff1916602082015260340190565b60405160208183030381529060405280519060200120905092915050565b60606139e0611157565b6139fd57604051633788c6c160e11b815260040160405180910390fd5b6000613a0761114a565b60085490915067ffffffffffffffff808316600160401b9092041614613a4057604051636fbabc7760e01b815260040160405180910390fd5b6007546040516020016131bd918152600360fc1b602082015260210190565b60015460ff166111485760405162461bcd60e51b815260206004820152601460248201527f5061757361626c653a206e6f74207061757365640000000000000000000000006044820152606401610867565b60606106666001600160a01b03831660145b60606000613ad2836002614372565b613add906002614458565b67ffffffffffffffff811115613af557613af56147fc565b6040519080825280601f01601f191660200182016040528015613b1f576020820181803683370190505b509050600360fc1b81600081518110613b3a57613b3a6143da565b60200101906001600160f81b031916908160001a9053507f780000000000000000000000000000000000000000000000000000000000000081600181518110613b8557613b856143da565b60200101906001600160f81b031916908160001a9053506000613ba9846002614372565b613bb4906001614458565b90505b6001811115613c39577f303132333435363738396162636465660000000000000000000000000000000085600f1660108110613bf557613bf56143da565b1a60f81b828281518110613c0b57613c0b6143da565b60200101906001600160f81b031916908160001a90535060049490941c93613c3281614812565b9050613bb7565b5083156119475760405162461bcd60e51b815260206004820181905260248201527f537472696e67733a20686578206c656e67746820696e73756666696369656e746044820152606401610867565b8260005b8551811015613cf5576000613ca26002866142d2565b15613cae576000613cb1565b60015b9050613cd883888481518110613cc957613cc96143da565b60200260200101518387613e4c565b9250600185901c9450508080613ced90614359565b915050613c8c565b50949350505050565b8160005b8451811015613d5e576000613d186002856142d2565b6000149050613d4183878481518110613d3357613d336143da565b602002602001015183613eac565b9250600184901c9350508080613d5690614359565b915050613d02565b509392505050565b604080516020810186905290810184905277ffffffffffffffffffffffffffffffffffffffffffffffff1960c084811b8216606084015283901b166068820152600090607001611eec565b600080600080613dc085613f13565b6040805160008152602081018083528b905260ff8316918101919091526060810184905260808101839052929550909350915060019060a0016020604051602081039080840390855afa158015613e1b573d6000803e3d6000fd5b5050604051601f190151979650505050505050565b60408051602081018490529081018290526000906060016139b8565b60008215613e8c57604080516020810184905290810186905260608101859052608001604051602081830303815290604052805190602001209050611f05565b604080516020810184905290810185905260608101869052608001611eec565b60008115613ee5576040805160208101869052908101849052606001604051602081830303815290604052805190602001209050611947565b5050604080516020808201939093528082019390935280518084038201815260609093019052815191012090565b60008060008351604114613f53576040517f4be6321b00000000000000000000000000000000000000000000000000000000815260040160405180910390fd5b50505060208101516040820151606090920151909260009190911a90565b508054600082556005029060005260206000209081019061205291905b80821115613fd657600080825560018201805474ffffffffffffffffffffffffffffffffffffffffff1916905560028201819055600382018190556004820155600501613f8e565b5090565b600060208284031215613fec57600080fd5b81356001600160e01b03198116811461194757600080fd5b60006020828403121561401657600080fd5b5035919050565b6020808252825182820181905260009190848201906040850190845b818110156140a05761408d838551805182526001600160a01b03602082015116602083015260ff6040820151166040830152606081015160608301526080810151608083015260a081015160a08301525050565b9284019260c09290920191600101614039565b50909695505050505050565b6001600160a01b038116811461205257600080fd5b600080604083850312156140d457600080fd5b8235915060208301356140e6816140ac565b809150509250929050565b6000610100828403121561410457600080fd5b50919050565b60008060006060848603121561411f57600080fd5b833567ffffffffffffffff8082111561413757600080fd5b614143878388016140f1565b9450602086013591508082111561415957600080fd5b614165878388016140f1565b9350604086013591508082111561417b57600080fd5b50614188868287016140f1565b9150509250925092565b803567ffffffffffffffff811681146141aa57600080fd5b919050565b6000806000606084860312156141c457600080fd5b83359250602084013591506141db60408501614192565b90509250925092565b60ff8116811461205257600080fd5b6000806040838503121561420657600080fd5b8235614211816141e4565b915060208301356140e6816141e4565b6000806040838503121561423457600080fd5b8235915060208301356140e6816141e4565b6000806000806080858703121561425c57600080fd5b84359350602085013561426e816141e4565b93969395505050506040820135916060013590565b60008060006060848603121561429857600080fd5b833592506020840135915060408401356142b1816141e4565b809150509250925092565b634e487b7160e01b600052601260045260246000fd5b6000826142e1576142e16142bc565b500690565b634e487b7160e01b600052601160045260246000fd5b60008261430b5761430b6142bc565b500490565b67ffffffffffffffff818116838216019080821115614331576143316142e6565b5092915050565b67ffffffffffffffff828116828216039080821115614331576143316142e6565b60006001820161436b5761436b6142e6565b5060010190565b8082028115828204841417610666576106666142e6565b6000808335601e198436030181126143a057600080fd5b83018035915067ffffffffffffffff8211156143bb57600080fd5b6020019150600581901b36038213156143d357600080fd5b9250929050565b634e487b7160e01b600052603260045260246000fd5b60c081016106668284805182526001600160a01b03602082015116602083015260ff6040820151166040830152606081015160608301526080810151608083015260a081015160a08301525050565b60006020828403121561445157600080fd5b5051919050565b80820180821115610666576106666142e6565b60005b8381101561448657818101518382015260200161446e565b50506000910152565b600083516144a181846020880161446b565b9190910191825250602001919050565b81810381811115610666576106666142e6565b6000602082840312156144d657600080fd5b8151611947816140ac565b600181815b8085111561451c578160001904821115614502576145026142e6565b8085161561450f57918102915b93841c93908002906144e6565b509250929050565b60008261453357506001610666565b8161454057506000610666565b816001811461455657600281146145605761457c565b6001915050610666565b60ff841115614571576145716142e6565b50506001821b610666565b5060208310610133831016604e8410600b841016171561459f575081810a610666565b6145a983836144e1565b80600019048211156145bd576145bd6142e6565b029392505050565b600061194760ff841683614524565b60ff8181168382160190811115610666576106666142e6565b60ff8281168282160390811115610666576106666142e6565b61ffff828116828216039080821115614331576143316142e6565b600061194761ffff841683614524565b60006020828403121561464357600080fd5b61194782614192565b60008235607e1983360301811261466257600080fd5b9190910192915050565b60008060008060008060c0878903121561468557600080fd5b8651614690816140ac565b60208801519096506146a1816141e4565b60408801519095506146b2816141e4565b606088015190945080151581146146c857600080fd5b809350506080870151915060a087015190509295509295509295565b6000808335601e198436030181126146fb57600080fd5b83018035915067ffffffffffffffff82111561471657600080fd5b6020019150368190038213156143d357600080fd5b60006020828403121561473d57600080fd5b8135611947816140ac565b7f416363657373436f6e74726f6c3a206163636f756e742000000000000000000081526000835161478081601785016020880161446b565b7f206973206d697373696e6720726f6c652000000000000000000000000000000060179184019182015283516147bd81602884016020880161446b565b01602801949350505050565b60208152600082518060208401526147e881604085016020870161446b565b601f01601f19169190910160400192915050565b634e487b7160e01b600052604160045260246000fd5b600081614821576148216142e6565b50600019019056fea2646970667358221220938a85038338774b805a0fd1ca467d071756202bda951317607951445c4c95e064736f6c63430008130033",
  "devdoc": {
    "author": "The Swarm Authors",
    "details": "Implements a Schelling Co-ordination game to form consensus around the Reserve Commitment hash. This takes place in three phases: _commit_, _reveal_ and _claim_. A node, upon establishing that it _isParticipatingInUpcomingRound_, i.e. it's overlay falls within proximity order of its reported depth with the _currentRoundAnchor_, prepares a \"reserve commitment hash\" using the chunks it currently stores in its reserve and calculates the \"storage depth\" (see Bee for details). These values, if calculated honestly, and with the right chunks stored, should be the same for every node in a neighbourhood. This is the Schelling point. Each eligible node can then use these values, together with a random, single use, secret  _revealNonce_ and their _overlay_ as the pre-image values for the obsfucated _commit_, using the _wrapCommit_ method. Once the _commit_ round has elapsed, participating nodes must provide the values used to calculate their obsfucated _commit_ hash, which, once verified for correctness and proximity to the anchor are retained in the _currentReveals_. Nodes that have commited but do not reveal the correct values used to create the pre-image will have their stake \"frozen\" for a period of rounds proportional to their reported depth. During the _reveal_ round, randomness is updated after every successful reveal. Once the reveal round is concluded, the _currentRoundAnchor_ is updated and users can determine if they will be eligible their overlay will be eligible for the next commit phase using _isParticipatingInUpcomingRound_. When the _reveal_ phase has been concluded, the claim phase can begin. At this point, the truth teller and winner are already determined. By calling _isWinner_, an applicant node can run the relevant logic to determine if they have been selected as the beneficiary of this round. When calling _claim_, the current pot from the PostageStamp contract is withdrawn and transferred to that beneficiaries address. Nodes that have revealed values that differ from the truth, have their stakes \"frozen\" for a period of rounds proportional to their reported depth.",
    "events": {
      "ChunkCount(uint256)": {
        "details": "Emit from Postagestamp contract valid chunk count at the end of claim"
      },
      "Committed(uint256,bytes32)": {
        "details": "Logs that an overlay has committed"
      },
      "CountCommits(uint256)": {
        "details": "Emits the number of commits being processed by the claim phase."
      },
      "CountReveals(uint256)": {
        "details": "Emits the number of reveals being processed by the claim phase."
      },
      "CurrentRevealAnchor(uint256,bytes32)": {
        "details": "Bytes32 anhor of current reveal round"
      },
      "Paused(address)": {
        "details": "Emitted when the pause is triggered by `account`."
      },
      "Revealed(uint256,bytes32,uint256,uint256,bytes32,uint8)": {
        "details": "Logs that an overlay has revealed"
      },
      "RoleAdminChanged(bytes32,bytes32,bytes32)": {
        "details": "Emitted when `newAdminRole` is set as ``role``'s admin role, replacing `previousAdminRole` `DEFAULT_ADMIN_ROLE` is the starting admin for all roles, despite {RoleAdminChanged} not being emitted signaling this. _Available since v3.1._"
      },
      "RoleGranted(bytes32,address,address)": {
        "details": "Emitted when `account` is granted `role`. `sender` is the account that originated the contract call, an admin role bearer except when using {AccessControl-_setupRole}."
      },
      "RoleRevoked(bytes32,address,address)": {
        "details": "Emitted when `account` is revoked `role`. `sender` is the account that originated the contract call:   - if using `revokeRole`, it is the admin role bearer   - if using `renounceRole`, it is the role bearer (i.e. `account`)"
      },
      "TruthSelected(bytes32,uint8)": {
        "details": "Emitted when the truth oracle of a round is selected in the claim phase."
      },
      "Unpaused(address)": {
        "details": "Emitted when the pause is lifted by `account`."
      },
      "WinnerSelected((bytes32,address,uint8,uint256,uint256,bytes32))": {
        "details": "Emitted when the winner of a round is selected in the claim phase"
      },
      "transformedChunkAddressFromInclusionProof(uint256,bytes32)": {
        "details": "Logs for inclusion proof"
      }
    },
    "kind": "dev",
    "methods": {
      "commit(bytes32,bytes32,uint64)": {
        "details": "If a node's overlay is _inProximity_(_depth_) of the _currentRoundAnchor_, that node may compute an _obfuscatedHash_ by providing their _overlay_, reported storage _depth_, reserve commitment _hash_ and a randomly generated, and secret _revealNonce_ to the _wrapCommit_ method.",
        "params": {
          "_obfuscatedHash": "The calculated hash resultant of the required pre-image values.",
          "_overlay": "The overlay referenced in the pre-image. Must be staked by at least the minimum value, and be derived from the same key pair as the message sender."
        }
      },
      "constructor": {
        "params": {
          "oracleContract": "the address of the linked PriceOracle contract.",
          "postageContract": "the address of the linked PostageStamp contract.",
          "staking": "the address of the linked Staking contract."
        }
      },
      "currentRoundAnchor()": {
        "details": "A node must be within proximity order of less than or equal to the storage depth they intend to report."
      },
      "getRoleAdmin(bytes32)": {
        "details": "Returns the admin role that controls `role`. See {grantRole} and {revokeRole}. To change a role's admin, use {_setRoleAdmin}."
      },
      "grantRole(bytes32,address)": {
        "details": "Grants `role` to `account`. If `account` had not been already granted `role`, emits a {RoleGranted} event. Requirements: - the caller must have ``role``'s admin role. May emit a {RoleGranted} event."
      },
      "hasRole(bytes32,address)": {
        "details": "Returns `true` if `account` has been granted `role`."
      },
      "inProximity(bytes32,bytes32,uint8)": {
        "params": {
          "A": "An overlay address to compare.",
          "B": "An overlay address to compare.",
          "minimum": "Minimum proximity order."
        }
      },
      "isParticipatingInUpcomingRound(bytes32,uint8)": {
        "params": {
          "depth": "The storage depth the applicant intends to report.",
          "overlay": "The overlay address of the applicant."
        }
      },
      "isWinner(bytes32)": {
        "params": {
          "_overlay": "The overlay address of the applicant."
        }
      },
      "pause()": {
        "details": "Pause the contract. The contract is provably stopped by renouncing the pauser role and the admin role after pausing, can only be called by the `PAUSER`"
      },
      "paused()": {
        "details": "Returns true if the contract is paused, and false otherwise."
      },
      "renounceRole(bytes32,address)": {
        "details": "Revokes `role` from the calling account. Roles are often managed via {grantRole} and {revokeRole}: this function's purpose is to provide a mechanism for accounts to lose their privileges if they are compromised (such as when a trusted device is misplaced). If the calling account had been revoked `role`, emits a {RoleRevoked} event. Requirements: - the caller must be `account`. May emit a {RoleRevoked} event."
      },
      "reveal(bytes32,uint8,bytes32,bytes32)": {
        "params": {
          "_depth": "The reported depth.",
          "_hash": "The reserve commitment hash.",
          "_overlay": "The overlay address of the applicant.",
          "_revealNonce": "The nonce used to generate the commit that is being revealed."
        }
      },
      "revokeRole(bytes32,address)": {
        "details": "Revokes `role` from `account`. If `account` had been granted `role`, emits a {RoleRevoked} event. Requirements: - the caller must have ``role``'s admin role. May emit a {RoleRevoked} event."
      },
      "supportsInterface(bytes4)": {
        "details": "See {IERC165-supportsInterface}."
      },
      "unPause()": {
        "details": "Unpause the contract, can only be called by the pauser when paused"
      },
      "wrapCommit(bytes32,uint8,bytes32,bytes32)": {
        "details": "_revealNonce_ must be randomly generated, used once and kept secret until the reveal phase.",
        "params": {
          "_depth": "The reported depth.",
          "_hash": "The reserve commitment hash.",
          "_overlay": "The overlay address of the applicant.",
          "revealNonce": "A random, single use, secret nonce."
        }
      }
    },
    "title": "Redistribution contract",
    "version": 1
  },
  "userdoc": {
    "kind": "user",
    "methods": {
      "claim((bytes32[],bytes32,bytes32[],bytes32,uint64,bytes32[],(bytes,bytes32,uint64,uint64),(address,bytes,bytes32,bytes32)[]),(bytes32[],bytes32,bytes32[],bytes32,uint64,bytes32[],(bytes,bytes32,uint64,uint64),(address,bytes,bytes32,bytes32)[]),(bytes32[],bytes32,bytes32[],bytes32,uint64,bytes32[],(bytes,bytes32,uint64,uint64),(address,bytes,bytes32,bytes32)[]))": {
        "notice": "Helper function to get this round truth"
      },
      "commit(bytes32,bytes32,uint64)": {
        "notice": "Begin application for a round if eligible. Commit a hashed value for which the pre-image will be subsequently revealed."
      },
      "currentMinimumDepth()": {
        "notice": "Returns minimum depth reveal has to have to participate in this round"
      },
      "currentPhaseClaim()": {
        "notice": "Returns true if current block is during claim phase."
      },
      "currentPhaseCommit()": {
        "notice": "Returns true if current block is during commit phase."
      },
      "currentPhaseReveal()": {
        "notice": "Returns true if current block is during reveal phase."
      },
      "currentRound()": {
        "notice": "The number of the current round."
      },
      "currentRoundAnchor()": {
        "notice": "The anchor used to determine eligibility for the current round."
      },
      "currentRoundReveals()": {
        "notice": "Returns true if current block is during reveal phase."
      },
      "currentSeed()": {
        "notice": "Returns the current random seed which is used to determine later utilised random numbers. If rounds have elapsed without reveals, hash the seed with an incremented nonce to produce a new random seed and hence a new round anchor."
      },
      "inProximity(bytes32,bytes32,uint8)": {
        "notice": "Returns true if an overlay address _A_ is within proximity order _minimum_ of _B_."
      },
      "isParticipatingInUpcomingRound(bytes32,uint8)": {
        "notice": "Determine if a the owner of a given overlay can participate in the upcoming round."
      },
      "isWinner(bytes32)": {
        "notice": "Determine if a the owner of a given overlay will be the beneficiary of the claim phase."
      },
      "nextSeed()": {
        "notice": "Returns the seed which will become current once the next commit phase begins. Used to determine what the next round's anchor will be."
      },
      "reveal(bytes32,uint8,bytes32,bytes32)": {
        "notice": "Reveal the pre-image values used to generate commit provided during this round's commit phase."
      },
      "setFreezingParams(uint8,uint8)": {
        "notice": "Set freezing parameters"
      },
      "setSampleMaxValue(uint256)": {
        "notice": "changes the max sample value used for reserve estimation"
      },
      "wrapCommit(bytes32,uint8,bytes32,bytes32)": {
        "notice": "Hash the pre-image values to the obsfucated hash."
      }
    },
    "version": 1
  },
  "storageLayout": {
    "storage": [
      {
        "astId": 24,
        "contract": "src/Redistribution.sol:Redistribution",
        "label": "_roles",
        "offset": 0,
        "slot": "0",
        "type": "t_mapping(t_bytes32,t_struct(RoleData)19_storage)"
      },
      {
        "astId": 556,
        "contract": "src/Redistribution.sol:Redistribution",
        "label": "_paused",
        "offset": 0,
        "slot": "1",
        "type": "t_bool"
      },
      {
        "astId": 7135,
        "contract": "src/Redistribution.sol:Redistribution",
        "label": "PostageContract",
        "offset": 1,
        "slot": "1",
        "type": "t_contract(IPostageStamp)10882"
      },
      {
        "astId": 7138,
        "contract": "src/Redistribution.sol:Redistribution",
        "label": "OracleContract",
        "offset": 0,
        "slot": "2",
        "type": "t_contract(IPriceOracle)7031"
      },
      {
        "astId": 7141,
        "contract": "src/Redistribution.sol:Redistribution",
        "label": "Stakes",
        "offset": 0,
        "slot": "3",
        "type": "t_contract(IStakeRegistry)7060"
      },
      {
        "astId": 7145,
        "contract": "src/Redistribution.sol:Redistribution",
        "label": "currentCommits",
        "offset": 0,
        "slot": "4",
        "type": "t_array(t_struct(Commit)7078_storage)dyn_storage"
      },
      {
        "astId": 7149,
        "contract": "src/Redistribution.sol:Redistribution",
        "label": "currentReveals",
        "offset": 0,
        "slot": "5",
        "type": "t_array(t_struct(Reveal)7091_storage)dyn_storage"
      },
      {
        "astId": 7151,
        "contract": "src/Redistribution.sol:Redistribution",
        "label": "currentRevealRoundAnchor",
        "offset": 0,
        "slot": "6",
        "type": "t_bytes32"
      },
      {
        "astId": 7153,
        "contract": "src/Redistribution.sol:Redistribution",
        "label": "seed",
        "offset": 0,
        "slot": "7",
        "type": "t_bytes32"
      },
      {
        "astId": 7155,
        "contract": "src/Redistribution.sol:Redistribution",
        "label": "currentCommitRound",
        "offset": 0,
        "slot": "8",
        "type": "t_uint64"
      },
      {
        "astId": 7157,
        "contract": "src/Redistribution.sol:Redistribution",
        "label": "currentRevealRound",
        "offset": 8,
        "slot": "8",
        "type": "t_uint64"
      },
      {
        "astId": 7159,
        "contract": "src/Redistribution.sol:Redistribution",
        "label": "currentClaimRound",
        "offset": 16,
        "slot": "8",
        "type": "t_uint64"
      },
      {
        "astId": 7162,
        "contract": "src/Redistribution.sol:Redistribution",
        "label": "penaltyMultiplierDisagreement",
        "offset": 24,
        "slot": "8",
        "type": "t_uint8"
      },
      {
        "astId": 7165,
        "contract": "src/Redistribution.sol:Redistribution",
        "label": "penaltyMultiplierNonRevealed",
        "offset": 25,
        "slot": "8",
        "type": "t_uint8"
      },
      {
        "astId": 7168,
        "contract": "src/Redistribution.sol:Redistribution",
        "label": "sampleMaxValue",
        "offset": 0,
        "slot": "9",
        "type": "t_uint256"
      },
      {
        "astId": 7171,
        "contract": "src/Redistribution.sol:Redistribution",
        "label": "winner",
        "offset": 0,
        "slot": "10",
        "type": "t_struct(Reveal)7091_storage"
      }
    ],
    "types": {
      "t_address": {
        "encoding": "inplace",
        "label": "address",
        "numberOfBytes": "20"
      },
      "t_array(t_struct(Commit)7078_storage)dyn_storage": {
        "base": "t_struct(Commit)7078_storage",
        "encoding": "dynamic_array",
        "label": "struct Redistribution.Commit[]",
        "numberOfBytes": "32"
      },
      "t_array(t_struct(Reveal)7091_storage)dyn_storage": {
        "base": "t_struct(Reveal)7091_storage",
        "encoding": "dynamic_array",
        "label": "struct Redistribution.Reveal[]",
        "numberOfBytes": "32"
      },
      "t_bool": {
        "encoding": "inplace",
        "label": "bool",
        "numberOfBytes": "1"
      },
      "t_bytes32": {
        "encoding": "inplace",
        "label": "bytes32",
        "numberOfBytes": "32"
      },
      "t_contract(IPostageStamp)10882": {
        "encoding": "inplace",
        "label": "contract IPostageStamp",
        "numberOfBytes": "20"
      },
      "t_contract(IPriceOracle)7031": {
        "encoding": "inplace",
        "label": "contract IPriceOracle",
        "numberOfBytes": "20"
      },
      "t_contract(IStakeRegistry)7060": {
        "encoding": "inplace",
        "label": "contract IStakeRegistry",
        "numberOfBytes": "20"
      },
      "t_mapping(t_address,t_bool)": {
        "encoding": "mapping",
        "key": "t_address",
        "label": "mapping(address => bool)",
        "numberOfBytes": "32",
        "value": "t_bool"
      },
      "t_mapping(t_bytes32,t_struct(RoleData)19_storage)": {
        "encoding": "mapping",
        "key": "t_bytes32",
        "label": "mapping(bytes32 => struct AccessControl.RoleData)",
        "numberOfBytes": "32",
        "value": "t_struct(RoleData)19_storage"
      },
      "t_struct(Commit)7078_storage": {
        "encoding": "inplace",
        "label": "struct Redistribution.Commit",
        "members": [
          {
            "astId": 7067,
            "contract": "src/Redistribution.sol:Redistribution",
            "label": "overlay",
            "offset": 0,
            "slot": "0",
            "type": "t_bytes32"
          },
          {
            "astId": 7069,
            "contract": "src/Redistribution.sol:Redistribution",
            "label": "owner",
            "offset": 0,
            "slot": "1",
            "type": "t_address"
          },
          {
            "astId": 7071,
            "contract": "src/Redistribution.sol:Redistribution",
            "label": "revealed",
            "offset": 20,
            "slot": "1",
            "type": "t_bool"
          },
          {
            "astId": 7073,
            "contract": "src/Redistribution.sol:Redistribution",
            "label": "stake",
            "offset": 0,
            "slot": "2",
            "type": "t_uint256"
          },
          {
            "astId": 7075,
            "contract": "src/Redistribution.sol:Redistribution",
            "label": "obfuscatedHash",
            "offset": 0,
            "slot": "3",
            "type": "t_bytes32"
          },
          {
            "astId": 7077,
            "contract": "src/Redistribution.sol:Redistribution",
            "label": "revealIndex",
            "offset": 0,
            "slot": "4",
            "type": "t_uint256"
          }
        ],
        "numberOfBytes": "160"
      },
      "t_struct(Reveal)7091_storage": {
        "encoding": "inplace",
        "label": "struct Redistribution.Reveal",
        "members": [
          {
            "astId": 7080,
            "contract": "src/Redistribution.sol:Redistribution",
            "label": "overlay",
            "offset": 0,
            "slot": "0",
            "type": "t_bytes32"
          },
          {
            "astId": 7082,
            "contract": "src/Redistribution.sol:Redistribution",
            "label": "owner",
            "offset": 0,
            "slot": "1",
            "type": "t_address"
          },
          {
            "astId": 7084,
            "contract": "src/Redistribution.sol:Redistribution",
            "label": "depth",
            "offset": 20,
            "slot": "1",
            "type": "t_uint8"
          },
          {
            "astId": 7086,
            "contract": "src/Redistribution.sol:Redistribution",
            "label": "stake",
            "offset": 0,
            "slot": "2",
            "type": "t_uint256"
          },
          {
            "astId": 7088,
            "contract": "src/Redistribution.sol:Redistribution",
            "label": "stakeDensity",
            "offset": 0,
            "slot": "3",
            "type": "t_uint256"
          },
          {
            "astId": 7090,
            "contract": "src/Redistribution.sol:Redistribution",
            "label": "hash",
            "offset": 0,
            "slot": "4",
            "type": "t_bytes32"
          }
        ],
        "numberOfBytes": "160"
      },
      "t_struct(RoleData)19_storage": {
        "encoding": "inplace",
        "label": "struct AccessControl.RoleData",
        "members": [
          {
            "astId": 16,
            "contract": "src/Redistribution.sol:Redistribution",
            "label": "members",
            "offset": 0,
            "slot": "0",
            "type": "t_mapping(t_address,t_bool)"
          },
          {
            "astId": 18,
            "contract": "src/Redistribution.sol:Redistribution",
            "label": "adminRole",
            "offset": 0,
            "slot": "1",
            "type": "t_bytes32"
          }
        ],
        "numberOfBytes": "64"
      },
      "t_uint256": {
        "encoding": "inplace",
        "label": "uint256",
        "numberOfBytes": "32"
      },
      "t_uint64": {
        "encoding": "inplace",
        "label": "uint64",
        "numberOfBytes": "8"
      },
      "t_uint8": {
        "encoding": "inplace",
        "label": "uint8",
        "numberOfBytes": "1"
      }
    }
  }
}