{
  "address": "0x93C91784C32e79F6d9DcdC0b7E777B5847B005ce",
  "abi": [
    {
      "inputs": [
        {
          "internalType": "address",
          "name": "_admin",
          "type": "address"
        },
        {
          "internalType": "string",
          "name": "_greeting",
          "type": "string"
        }
      ],
      "stateMutability": "nonpayable",
      "type": "constructor"
    },
    {
      "anonymous": false,
      "inputs": [
        {
          "indexed": false,
          "internalType": "address",
          "name": "admin",
          "type": "address"
        }
      ],
      "name": "AdminChanged",
      "type": "event"
    },
    {
      "anonymous": false,
      "inputs": [
        {
          "indexed": false,
          "internalType": "string",
          "name": "greeting",
          "type": "string"
        }
      ],
      "name": "GreetingChanged",
      "type": "event"
    },
    {
      "inputs": [],
      "name": "getAdmin",
      "outputs": [
        {
          "internalType": "address",
          "name": "",
          "type": "address"
        }
      ],
      "stateMutability": "view",
      "type": "function"
    },
    {
      "inputs": [],
      "name": "getGreeting",
      "outputs": [
        {
          "internalType": "string",
          "name": "",
          "type": "string"
        }
      ],
      "stateMutability": "view",
      "type": "function"
    },
    {
      "inputs": [
        {
          "internalType": "address",
          "name": "_admin",
          "type": "address"
        }
      ],
      "name": "setAdmin",
      "outputs": [],
      "stateMutability": "nonpayable",
      "type": "function"
    },
    {
      "inputs": [
        {
          "internalType": "string",
          "name": "_greeting",
          "type": "string"
        }
      ],
      "name": "setGreeting",
      "outputs": [],
      "stateMutability": "nonpayable",
      "type": "function"
    }
  ],
  "transactionHash": "0x7882de5e946e4453b4f992b34c2f7de48738acf73bd021346d5ab917ee2f7033",
  "args": [
    "0x581A71E6F4f0349312bc1406AA085061be0315ab",
    "Hello World!"
  ],
  "solcInputHash": "049026912484ebd5dc7fa447939b95f4",
  "bytecode": "0x608060405234801561001057600080fd5b5060405162000c5238038062000c528339818101604052604081101561003557600080fd5b81019080805190602001909291908051604051939291908464010000000082111561005f57600080fd5b8382019150602082018581111561007557600080fd5b825186600182028301116401000000008211171561009257600080fd5b8083526020830192505050908051906020019080838360005b838110156100c65780820151818401526020810190506100ab565b50505050905090810190601f1680156100f35780820380516001836020036101000a031916815260200191505b50604052505050600073ffffffffffffffffffffffffffffffffffffffff168273ffffffffffffffffffffffffffffffffffffffff16141561019d576040517f08c379a00000000000000000000000000000000000000000000000000000000081526004018080602001828103825260168152602001807f43616e6e6f74206265207a65726f20616464726573730000000000000000000081525060200191505060405180910390fd5b6101e66040518060400160405280602081526020017f4465706c6f79696e6720477265657465722077697468206772656574696e673a8152508261024560201b6105f21760201c565b80600090805190602001906101fc9291906103e0565b5081600160006101000a81548173ffffffffffffffffffffffffffffffffffffffff021916908373ffffffffffffffffffffffffffffffffffffffff1602179055505050610485565b6103b38282604051602401808060200180602001838103835285818151815260200191508051906020019080838360005b83811015610291578082015181840152602081019050610276565b50505050905090810190601f1680156102be5780820380516001836020036101000a031916815260200191505b50838103825284818151815260200191508051906020019080838360005b838110156102f75780820151818401526020810190506102dc565b50505050905090810190601f1680156103245780820380516001836020036101000a031916815260200191505b509450505050506040516020818303038152906040527f4b5c4277000000000000000000000000000000000000000000000000000000007bffffffffffffffffffffffffffffffffffffffffffffffffffffffff19166020820180517bffffffffffffffffffffffffffffffffffffffffffffffffffffffff83818316178352505050506103b760201b60201c565b5050565b60008151905060006a636f6e736f6c652e6c6f679050602083016000808483855afa5050505050565b828054600181600116156101000203166002900490600052602060002090601f016020900481019282601f1061042157805160ff191683800117855561044f565b8280016001018555821561044f579182015b8281111561044e578251825591602001919060010190610433565b5b50905061045c9190610460565b5090565b61048291905b8082111561047e576000816000905550600101610466565b5090565b90565b6107bd80620004956000396000f3fe608060405234801561001057600080fd5b506004361061004c5760003560e01c80636e9960c314610051578063704b6c021461009b578063a4136862146100df578063fe50cc7214610158575b600080fd5b6100596101db565b604051808273ffffffffffffffffffffffffffffffffffffffff1673ffffffffffffffffffffffffffffffffffffffff16815260200191505060405180910390f35b6100dd600480360360208110156100b157600080fd5b81019080803573ffffffffffffffffffffffffffffffffffffffff169060200190929190505050610205565b005b610156600480360360208110156100f557600080fd5b810190808035906020019064010000000081111561011257600080fd5b82018360208201111561012457600080fd5b8035906020019184600183028401116401000000008311171561014657600080fd5b909192939192939050505061036f565b005b6101606104ab565b6040518080602001828103825283818151815260200191508051906020019080838360005b838110156101a0578082015181840152602081019050610185565b50505050905090810190601f1680156101cd5780820380516001836020036101000a031916815260200191505b509250505060405180910390f35b6000600160009054906101000a900473ffffffffffffffffffffffffffffffffffffffff16905090565b600160009054906101000a900473ffffffffffffffffffffffffffffffffffffffff1673ffffffffffffffffffffffffffffffffffffffff163373ffffffffffffffffffffffffffffffffffffffff16146102c8576040517f08c379a00000000000000000000000000000000000000000000000000000000081526004018080602001828103825260178152602001807f4d7573742062652063616c6c65642062792061646d696e00000000000000000081525060200191505060405180910390fd5b80600160006101000a81548173ffffffffffffffffffffffffffffffffffffffff021916908373ffffffffffffffffffffffffffffffffffffffff1602179055507f7ce7ec0b50378fb6c0186ffb5f48325f6593fcb4ca4386f21861af3129188f5c81604051808273ffffffffffffffffffffffffffffffffffffffff1673ffffffffffffffffffffffffffffffffffffffff16815260200191505060405180910390a150565b600160009054906101000a900473ffffffffffffffffffffffffffffffffffffffff1673ffffffffffffffffffffffffffffffffffffffff163373ffffffffffffffffffffffffffffffffffffffff1614610432576040517f08c379a00000000000000000000000000000000000000000000000000000000081526004018080602001828103825260178152602001807f4d7573742062652063616c6c65642062792061646d696e00000000000000000081525060200191505060405180910390fd5b81816000919061044392919061054d565b507f58c1144814f1df01a80f7347f945437a37cd818e027f87b0ade6db623ec41b57828260405180806020018281038252848482818152602001925080828437600081840152601f19601f820116905080830192505050935050505060405180910390a15050565b606060008054600181600116156101000203166002900480601f0160208091040260200160405190810160405280929190818152602001828054600181600116156101000203166002900480156105435780601f1061051857610100808354040283529160200191610543565b820191906000526020600020905b81548152906001019060200180831161052657829003601f168201915b5050505050905090565b828054600181600116156101000203166002900490600052602060002090601f016020900481019282601f1061058e57803560ff19168380011785556105bc565b828001600101855582156105bc579182015b828111156105bb5782358255916020019190600101906105a0565b5b5090506105c991906105cd565b5090565b6105ef91905b808211156105eb5760008160009055506001016105d3565b5090565b90565b61075a8282604051602401808060200180602001838103835285818151815260200191508051906020019080838360005b8381101561063e578082015181840152602081019050610623565b50505050905090810190601f16801561066b5780820380516001836020036101000a031916815260200191505b50838103825284818151815260200191508051906020019080838360005b838110156106a4578082015181840152602081019050610689565b50505050905090810190601f1680156106d15780820380516001836020036101000a031916815260200191505b509450505050506040516020818303038152906040527f4b5c4277000000000000000000000000000000000000000000000000000000007bffffffffffffffffffffffffffffffffffffffffffffffffffffffff19166020820180517bffffffffffffffffffffffffffffffffffffffffffffffffffffffff838183161783525050505061075e565b5050565b60008151905060006a636f6e736f6c652e6c6f679050602083016000808483855afa505050505056fea264697066735822122047c08c2be50e04af130101d16e3832ae989898f851618609a1e8b06e99e4064264736f6c63430006050033",
  "devdoc": {
    "methods": {
      "constructor": {
        "details": "Construct greeter, set initial data.",
        "params": {
          "_admin": "(address) - Initail admin.",
          "_greeting": "(string) - Initial greeting."
        }
      },
      "getAdmin()": {
        "details": "Get the current admin.",
        "returns": {
          "_0": "address - Admin address."
        }
      },
      "getGreeting()": {
        "details": "Get the greeting.",
        "returns": {
          "_0": "string - Greeting message."
        }
      },
      "setAdmin(address)": {
        "details": "Set the admin. Must be called by existing admin.",
        "params": {
          "_admin": "(address) - New admin address."
        }
      },
      "setGreeting(string)": {
        "details": "Set the greeting. Must be called by admin.",
        "params": {
          "_greeting": "(string) - New greeting."
        }
      }
    }
  },
  "userdoc": {
    "methods": {}
  },
  "storageLayout": {
    "storage": [
      {
        "astId": 8082,
        "contract": "src/Greeter.sol:Greeter",
        "label": "greeting",
        "offset": 0,
        "slot": "0",
        "type": "t_string_storage"
      },
      {
        "astId": 8084,
        "contract": "src/Greeter.sol:Greeter",
        "label": "admin",
        "offset": 0,
        "slot": "1",
        "type": "t_address"
      }
    ],
    "types": {
      "t_address": {
        "encoding": "inplace",
        "label": "address",
        "numberOfBytes": "20"
      },
      "t_string_storage": {
        "encoding": "bytes",
        "label": "string",
        "numberOfBytes": "32"
      }
    }
  }
}