{
  "address": "0x6a02826e2a56092F56e0ba4dB766c5f4540414C2",
  "abi": [
    {
      "inputs": [
        {
          "internalType": "address",
          "name": "staking",
          "type": "address"
        },
        {
          "internalType": "address",
          "name": "postageContract",
          "type": "address"
        },
        {
          "internalType": "address",
          "name": "oracleContract",
          "type": "address"
        },
        {
          "internalType": "uint256",
          "name": "roundLength",
          "type": "uint256"
        }
      ],
      "stateMutability": "nonpayable",
      "type": "constructor"
    },
    {
      "inputs": [],
      "name": "AlreadyClaimed",
      "type": "error"
    },
    {
      "inputs": [],
      "name": "AlreadyCommitted",
      "type": "error"
    },
    {
      "inputs": [],
      "name": "AlreadyRevealed",
      "type": "error"
    },
    {
      "inputs": [
        {
          "internalType": "bytes32",
          "name": "",
          "type": "bytes32"
        }
      ],
      "name": "BatchDoesNotExist",
      "type": "error"
    },
    {
      "inputs": [
        {
          "internalType": "bytes32",
          "name": "",
          "type": "bytes32"
        }
      ],
      "name": "BucketDiffers",
      "type": "error"
    },
    {
      "inputs": [],
      "name": "CommitRoundNotStarted",
      "type": "error"
    },
    {
      "inputs": [],
      "name": "CommitRoundOver",
      "type": "error"
    },
    {
      "inputs": [],
      "name": "FirstRevealDone",
      "type": "error"
    },
    {
      "inputs": [
        {
          "internalType": "uint8",
          "name": "",
          "type": "uint8"
        },
        {
          "internalType": "bytes32",
          "name": "",
          "type": "bytes32"
        }
      ],
      "name": "InclusionProofFailed",
      "type": "error"
    },
    {
      "inputs": [
        {
          "internalType": "bytes32",
          "name": "",
          "type": "bytes32"
        }
      ],
      "name": "IndexOutsideSet",
      "type": "error"
    },
    {
      "inputs": [],
      "name": "InvalidSignatureLength",
      "type": "error"
    },
    {
      "inputs": [],
      "name": "LastElementCheckFailed",
      "type": "error"
    },
    {
      "inputs": [],
      "name": "MustStake2Rounds",
      "type": "error"
    },
    {
      "inputs": [],
      "name": "NoCommitsReceived",
      "type": "error"
    },
    {
      "inputs": [],
      "name": "NoMatchingCommit",
      "type": "error"
    },
    {
      "inputs": [],
      "name": "NoReveals",
      "type": "error"
    },
    {
      "inputs": [],
      "name": "NotAdmin",
      "type": "error"
    },
    {
      "inputs": [],
      "name": "NotClaimPhase",
      "type": "error"
    },
    {
      "inputs": [],
      "name": "NotCommitPhase",
      "type": "error"
    },
    {
      "inputs": [],
      "name": "NotMatchingOwner",
      "type": "error"
    },
    {
      "inputs": [],
      "name": "NotRevealPhase",
      "type": "error"
    },
    {
      "inputs": [],
      "name": "NotStaked",
      "type": "error"
    },
    {
      "inputs": [],
      "name": "OnlyPauser",
      "type": "error"
    },
    {
      "inputs": [],
      "name": "OutOfDepth",
      "type": "error"
    },
    {
      "inputs": [
        {
          "internalType": "uint8",
          "name": "",
          "type": "uint8"
        }
      ],
      "name": "OutOfDepthClaim",
      "type": "error"
    },
    {
      "inputs": [
        {
          "internalType": "bytes32",
          "name": "",
          "type": "bytes32"
        }
      ],
      "name": "OutOfDepthReveal",
      "type": "error"
    },
    {
      "inputs": [],
      "name": "PhaseLastBlock",
      "type": "error"
    },
    {
      "inputs": [],
      "name": "RandomElementCheckFailed",
      "type": "error"
    },
    {
      "inputs": [
        {
          "internalType": "bytes32",
          "name": "trALast",
          "type": "bytes32"
        }
      ],
      "name": "ReserveCheckFailed",
      "type": "error"
    },
    {
      "inputs": [
        {
          "internalType": "bytes32",
          "name": "",
          "type": "bytes32"
        }
      ],
      "name": "SigRecoveryFailed",
      "type": "error"
    },
    {
      "inputs": [
        {
          "internalType": "bytes32",
          "name": "",
          "type": "bytes32"
        }
      ],
      "name": "SocCalcNotMatching",
      "type": "error"
    },
    {
      "inputs": [
        {
          "internalType": "bytes32",
          "name": "",
          "type": "bytes32"
        }
      ],
      "name": "SocVerificationFailed",
      "type": "error"
    },
    {
      "inputs": [],
      "name": "WrongPhase",
      "type": "error"
    },
    {
      "anonymous": false,
      "inputs": [
        {
          "indexed": false,
          "internalType": "uint256",
          "name": "validChunkCount",
          "type": "uint256"
        }
      ],
      "name": "ChunkCount",
      "type": "event"
    },
    {
      "anonymous": false,
      "inputs": [
        {
          "indexed": false,
          "internalType": "uint256",
          "name": "roundNumber",
          "type": "uint256"
        },
        {
          "indexed": false,
          "internalType": "bytes32",
          "name": "overlay",
          "type": "bytes32"
        },
        {
          "indexed": false,
          "internalType": "uint8",
          "name": "height",
          "type": "uint8"
        }
      ],
      "name": "Committed",
      "type": "event"
    },
    {
      "anonymous": false,
      "inputs": [
        {
          "indexed": false,
          "internalType": "uint256",
          "name": "_count",
          "type": "uint256"
        }
      ],
      "name": "CountCommits",
      "type": "event"
    },
    {
      "anonymous": false,
      "inputs": [
        {
          "indexed": false,
          "internalType": "uint256",
          "name": "_count",
          "type": "uint256"
        }
      ],
      "name": "CountReveals",
      "type": "event"
    },
    {
      "anonymous": false,
      "inputs": [
        {
          "indexed": false,
          "internalType": "uint256",
          "name": "roundNumber",
          "type": "uint256"
        },
        {
          "indexed": false,
          "internalType": "bytes32",
          "name": "anchor",
          "type": "bytes32"
        }
      ],
      "name": "CurrentRevealAnchor",
      "type": "event"
    },
    {
      "anonymous": false,
      "inputs": [
        {
          "indexed": false,
          "internalType": "address",
          "name": "account",
          "type": "address"
        }
      ],
      "name": "Paused",
      "type": "event"
    },
    {
      "anonymous": false,
      "inputs": [
        {
          "indexed": false,
          "internalType": "uint16",
          "name": "redundancyCount",
          "type": "uint16"
        }
      ],
      "name": "PriceAdjustmentSkipped",
      "type": "event"
    },
    {
      "anonymous": false,
      "inputs": [
        {
          "indexed": false,
          "internalType": "uint256",
          "name": "roundNumber",
          "type": "uint256"
        },
        {
          "indexed": false,
          "internalType": "bytes32",
          "name": "overlay",
          "type": "bytes32"
        },
        {
          "indexed": false,
          "internalType": "uint256",
          "name": "stake",
          "type": "uint256"
        },
        {
          "indexed": false,
          "internalType": "uint256",
          "name": "stakeDensity",
          "type": "uint256"
        },
        {
          "indexed": false,
          "internalType": "bytes32",
          "name": "reserveCommitment",
          "type": "bytes32"
        },
        {
          "indexed": false,
          "internalType": "uint8",
          "name": "depth",
          "type": "uint8"
        }
      ],
      "name": "Revealed",
      "type": "event"
    },
    {
      "anonymous": false,
      "inputs": [
        {
          "indexed": true,
          "internalType": "bytes32",
          "name": "role",
          "type": "bytes32"
        },
        {
          "indexed": true,
          "internalType": "bytes32",
          "name": "previousAdminRole",
          "type": "bytes32"
        },
        {
          "indexed": true,
          "internalType": "bytes32",
          "name": "newAdminRole",
          "type": "bytes32"
        }
      ],
      "name": "RoleAdminChanged",
      "type": "event"
    },
    {
      "anonymous": false,
      "inputs": [
        {
          "indexed": true,
          "internalType": "bytes32",
          "name": "role",
          "type": "bytes32"
        },
        {
          "indexed": true,
          "internalType": "address",
          "name": "account",
          "type": "address"
        },
        {
          "indexed": true,
          "internalType": "address",
          "name": "sender",
          "type": "address"
        }
      ],
      "name": "RoleGranted",
      "type": "event"
    },
    {
      "anonymous": false,
      "inputs": [
        {
          "indexed": true,
          "internalType": "bytes32",
          "name": "role",
          "type": "bytes32"
        },
        {
          "indexed": true,
          "internalType": "address",
          "name": "account",
          "type": "address"
        },
        {
          "indexed": true,
          "internalType": "address",
          "name": "sender",
          "type": "address"
        }
      ],
      "name": "RoleRevoked",
      "type": "event"
    },
    {
      "anonymous": false,
      "inputs": [
        {
          "indexed": false,
          "internalType": "bytes32",
          "name": "hash",
          "type": "bytes32"
        },
        {
          "indexed": false,
          "internalType": "uint8",
          "name": "depth",
          "type": "uint8"
        }
      ],
      "name": "TruthSelected",
      "type": "event"
    },
    {
      "anonymous": false,
      "inputs": [
        {
          "indexed": false,
          "internalType": "address",
          "name": "account",
          "type": "address"
        }
      ],
      "name": "Unpaused",
      "type": "event"
    },
    {
      "anonymous": false,
      "inputs": [
        {
          "components": [
            {
              "internalType": "bytes32",
              "name": "overlay",
              "type": "bytes32"
            },
            {
              "internalType": "address",
              "name": "owner",
              "type": "address"
            },
            {
              "internalType": "uint8",
              "name": "depth",
              "type": "uint8"
            },
            {
              "internalType": "uint256",
              "name": "stake",
              "type": "uint256"
            },
            {
              "internalType": "uint256",
              "name": "stakeDensity",
              "type": "uint256"
            },
            {
              "internalType": "bytes32",
              "name": "hash",
              "type": "bytes32"
            }
          ],
          "indexed": false,
          "internalType": "struct Redistribution.Reveal",
          "name": "winner",
          "type": "tuple"
        }
      ],
      "name": "WinnerSelected",
      "type": "event"
    },
    {
      "anonymous": false,
      "inputs": [
        {
          "indexed": false,
          "internalType": "address",
          "name": "owner",
          "type": "address"
        }
      ],
      "name": "WithdrawFailed",
      "type": "event"
    },
    {
      "anonymous": false,
      "inputs": [
        {
          "indexed": false,
          "internalType": "uint256",
          "name": "indexInRC",
          "type": "uint256"
        },
        {
          "indexed": false,
          "internalType": "bytes32",
          "name": "chunkAddress",
          "type": "bytes32"
        }
      ],
      "name": "transformedChunkAddressFromInclusionProof",
      "type": "event"
    },
    {
      "inputs": [],
      "name": "DEFAULT_ADMIN_ROLE",
      "outputs": [
        {
          "internalType": "bytes32",
          "name": "",
          "type": "bytes32"
        }
      ],
      "stateMutability": "view",
      "type": "function"
    },
    {
      "inputs": [],
      "name": "OracleContract",
      "outputs": [
        {
          "internalType": "contract IPriceOracle",
          "name": "",
          "type": "address"
        }
      ],
      "stateMutability": "view",
      "type": "function"
    },
    {
      "inputs": [],
      "name": "PostageContract",
      "outputs": [
        {
          "internalType": "contract IPostageStamp",
          "name": "",
          "type": "address"
        }
      ],
      "stateMutability": "view",
      "type": "function"
    },
    {
      "inputs": [],
      "name": "Stakes",
      "outputs": [
        {
          "internalType": "contract IStakeRegistry",
          "name": "",
          "type": "address"
        }
      ],
      "stateMutability": "view",
      "type": "function"
    },
    {
      "inputs": [
        {
          "components": [
            {
              "internalType": "bytes32[]",
              "name": "proofSegments",
              "type": "bytes32[]"
            },
            {
              "internalType": "bytes32",
              "name": "proveSegment",
              "type": "bytes32"
            },
            {
              "internalType": "bytes32[]",
              "name": "proofSegments2",
              "type": "bytes32[]"
            },
            {
              "internalType": "bytes32",
              "name": "proveSegment2",
              "type": "bytes32"
            },
            {
              "internalType": "uint64",
              "name": "chunkSpan",
              "type": "uint64"
            },
            {
              "internalType": "bytes32[]",
              "name": "proofSegments3",
              "type": "bytes32[]"
            },
            {
              "components": [
                {
                  "internalType": "bytes",
                  "name": "signature",
                  "type": "bytes"
                },
                {
                  "internalType": "bytes32",
                  "name": "postageId",
                  "type": "bytes32"
                },
                {
                  "internalType": "uint64",
                  "name": "index",
                  "type": "uint64"
                },
                {
                  "internalType": "uint64",
                  "name": "timeStamp",
                  "type": "uint64"
                }
              ],
              "internalType": "struct Redistribution.PostageProof",
              "name": "postageProof",
              "type": "tuple"
            },
            {
              "components": [
                {
                  "internalType": "address",
                  "name": "signer",
                  "type": "address"
                },
                {
                  "internalType": "bytes",
                  "name": "signature",
                  "type": "bytes"
                },
                {
                  "internalType": "bytes32",
                  "name": "identifier",
                  "type": "bytes32"
                },
                {
                  "internalType": "bytes32",
                  "name": "chunkAddr",
                  "type": "bytes32"
                }
              ],
              "internalType": "struct Redistribution.SOCProof[]",
              "name": "socProof",
              "type": "tuple[]"
            }
          ],
          "internalType": "struct Redistribution.ChunkInclusionProof",
          "name": "entryProof1",
          "type": "tuple"
        },
        {
          "components": [
            {
              "internalType": "bytes32[]",
              "name": "proofSegments",
              "type": "bytes32[]"
            },
            {
              "internalType": "bytes32",
              "name": "proveSegment",
              "type": "bytes32"
            },
            {
              "internalType": "bytes32[]",
              "name": "proofSegments2",
              "type": "bytes32[]"
            },
            {
              "internalType": "bytes32",
              "name": "proveSegment2",
              "type": "bytes32"
            },
            {
              "internalType": "uint64",
              "name": "chunkSpan",
              "type": "uint64"
            },
            {
              "internalType": "bytes32[]",
              "name": "proofSegments3",
              "type": "bytes32[]"
            },
            {
              "components": [
                {
                  "internalType": "bytes",
                  "name": "signature",
                  "type": "bytes"
                },
                {
                  "internalType": "bytes32",
                  "name": "postageId",
                  "type": "bytes32"
                },
                {
                  "internalType": "uint64",
                  "name": "index",
                  "type": "uint64"
                },
                {
                  "internalType": "uint64",
                  "name": "timeStamp",
                  "type": "uint64"
                }
              ],
              "internalType": "struct Redistribution.PostageProof",
              "name": "postageProof",
              "type": "tuple"
            },
            {
              "components": [
                {
                  "internalType": "address",
                  "name": "signer",
                  "type": "address"
                },
                {
                  "internalType": "bytes",
                  "name": "signature",
                  "type": "bytes"
                },
                {
                  "internalType": "bytes32",
                  "name": "identifier",
                  "type": "bytes32"
                },
                {
                  "internalType": "bytes32",
                  "name": "chunkAddr",
                  "type": "bytes32"
                }
              ],
              "internalType": "struct Redistribution.SOCProof[]",
              "name": "socProof",
              "type": "tuple[]"
            }
          ],
          "internalType": "struct Redistribution.ChunkInclusionProof",
          "name": "entryProof2",
          "type": "tuple"
        },
        {
          "components": [
            {
              "internalType": "bytes32[]",
              "name": "proofSegments",
              "type": "bytes32[]"
            },
            {
              "internalType": "bytes32",
              "name": "proveSegment",
              "type": "bytes32"
            },
            {
              "internalType": "bytes32[]",
              "name": "proofSegments2",
              "type": "bytes32[]"
            },
            {
              "internalType": "bytes32",
              "name": "proveSegment2",
              "type": "bytes32"
            },
            {
              "internalType": "uint64",
              "name": "chunkSpan",
              "type": "uint64"
            },
            {
              "internalType": "bytes32[]",
              "name": "proofSegments3",
              "type": "bytes32[]"
            },
            {
              "components": [
                {
                  "internalType": "bytes",
                  "name": "signature",
                  "type": "bytes"
                },
                {
                  "internalType": "bytes32",
                  "name": "postageId",
                  "type": "bytes32"
                },
                {
                  "internalType": "uint64",
                  "name": "index",
                  "type": "uint64"
                },
                {
                  "internalType": "uint64",
                  "name": "timeStamp",
                  "type": "uint64"
                }
              ],
              "internalType": "struct Redistribution.PostageProof",
              "name": "postageProof",
              "type": "tuple"
            },
            {
              "components": [
                {
                  "internalType": "address",
                  "name": "signer",
                  "type": "address"
                },
                {
                  "internalType": "bytes",
                  "name": "signature",
                  "type": "bytes"
                },
                {
                  "internalType": "bytes32",
                  "name": "identifier",
                  "type": "bytes32"
                },
                {
                  "internalType": "bytes32",
                  "name": "chunkAddr",
                  "type": "bytes32"
                }
              ],
              "internalType": "struct Redistribution.SOCProof[]",
              "name": "socProof",
              "type": "tuple[]"
            }
          ],
          "internalType": "struct Redistribution.ChunkInclusionProof",
          "name": "entryProofLast",
          "type": "tuple"
        }
      ],
      "name": "claim",
      "outputs": [],
      "stateMutability": "nonpayable",
      "type": "function"
    },
    {
      "inputs": [
        {
          "internalType": "bytes32",
          "name": "_obfuscatedHash",
          "type": "bytes32"
        },
        {
          "internalType": "uint64",
          "name": "_roundNumber",
          "type": "uint64"
        }
      ],
      "name": "commit",
      "outputs": [],
      "stateMutability": "nonpayable",
      "type": "function"
    },
    {
      "inputs": [],
      "name": "currentClaimRound",
      "outputs": [
        {
          "internalType": "uint64",
          "name": "",
          "type": "uint64"
        }
      ],
      "stateMutability": "view",
      "type": "function"
    },
    {
      "inputs": [],
      "name": "currentCommitRound",
      "outputs": [
        {
          "internalType": "uint64",
          "name": "",
          "type": "uint64"
        }
      ],
      "stateMutability": "view",
      "type": "function"
    },
    {
      "inputs": [
        {
          "internalType": "uint256",
          "name": "",
          "type": "uint256"
        }
      ],
      "name": "currentCommits",
      "outputs": [
        {
          "internalType": "bytes32",
          "name": "overlay",
          "type": "bytes32"
        },
        {
          "internalType": "address",
          "name": "owner",
          "type": "address"
        },
        {
          "internalType": "bool",
          "name": "revealed",
          "type": "bool"
        },
        {
          "internalType": "uint8",
          "name": "height",
          "type": "uint8"
        },
        {
          "internalType": "uint256",
          "name": "stake",
          "type": "uint256"
        },
        {
          "internalType": "bytes32",
          "name": "obfuscatedHash",
          "type": "bytes32"
        },
        {
          "internalType": "uint256",
          "name": "revealIndex",
          "type": "uint256"
        }
      ],
      "stateMutability": "view",
      "type": "function"
    },
    {
      "inputs": [],
      "name": "currentMinimumDepth",
      "outputs": [
        {
          "internalType": "uint8",
          "name": "",
          "type": "uint8"
        }
      ],
      "stateMutability": "view",
      "type": "function"
    },
    {
      "inputs": [],
      "name": "currentPhaseClaim",
      "outputs": [
        {
          "internalType": "bool",
          "name": "",
          "type": "bool"
        }
      ],
      "stateMutability": "view",
      "type": "function"
    },
    {
      "inputs": [],
      "name": "currentPhaseCommit",
      "outputs": [
        {
          "internalType": "bool",
          "name": "",
          "type": "bool"
        }
      ],
      "stateMutability": "view",
      "type": "function"
    },
    {
      "inputs": [],
      "name": "currentPhaseReveal",
      "outputs": [
        {
          "internalType": "bool",
          "name": "",
          "type": "bool"
        }
      ],
      "stateMutability": "view",
      "type": "function"
    },
    {
      "inputs": [],
      "name": "currentRevealRound",
      "outputs": [
        {
          "internalType": "uint64",
          "name": "",
          "type": "uint64"
        }
      ],
      "stateMutability": "view",
      "type": "function"
    },
    {
      "inputs": [
        {
          "internalType": "uint256",
          "name": "",
          "type": "uint256"
        }
      ],
      "name": "currentReveals",
      "outputs": [
        {
          "internalType": "bytes32",
          "name": "overlay",
          "type": "bytes32"
        },
        {
          "internalType": "address",
          "name": "owner",
          "type": "address"
        },
        {
          "internalType": "uint8",
          "name": "depth",
          "type": "uint8"
        },
        {
          "internalType": "uint256",
          "name": "stake",
          "type": "uint256"
        },
        {
          "internalType": "uint256",
          "name": "stakeDensity",
          "type": "uint256"
        },
        {
          "internalType": "bytes32",
          "name": "hash",
          "type": "bytes32"
        }
      ],
      "stateMutability": "view",
      "type": "function"
    },
    {
      "inputs": [],
      "name": "currentRound",
      "outputs": [
        {
          "internalType": "uint64",
          "name": "",
          "type": "uint64"
        }
      ],
      "stateMutability": "view",
      "type": "function"
    },
    {
      "inputs": [],
      "name": "currentRoundAnchor",
      "outputs": [
        {
          "internalType": "bytes32",
          "name": "returnVal",
          "type": "bytes32"
        }
      ],
      "stateMutability": "view",
      "type": "function"
    },
    {
      "inputs": [],
      "name": "currentRoundReveals",
      "outputs": [
        {
          "components": [
            {
              "internalType": "bytes32",
              "name": "overlay",
              "type": "bytes32"
            },
            {
              "internalType": "address",
              "name": "owner",
              "type": "address"
            },
            {
              "internalType": "uint8",
              "name": "depth",
              "type": "uint8"
            },
            {
              "internalType": "uint256",
              "name": "stake",
              "type": "uint256"
            },
            {
              "internalType": "uint256",
              "name": "stakeDensity",
              "type": "uint256"
            },
            {
              "internalType": "bytes32",
              "name": "hash",
              "type": "bytes32"
            }
          ],
          "internalType": "struct Redistribution.Reveal[]",
          "name": "",
          "type": "tuple[]"
        }
      ],
      "stateMutability": "view",
      "type": "function"
    },
    {
      "inputs": [],
      "name": "currentSeed",
      "outputs": [
        {
          "internalType": "bytes32",
          "name": "",
          "type": "bytes32"
        }
      ],
      "stateMutability": "view",
      "type": "function"
    },
    {
      "inputs": [
        {
          "internalType": "bytes32",
          "name": "role",
          "type": "bytes32"
        }
      ],
      "name": "getRoleAdmin",
      "outputs": [
        {
          "internalType": "bytes32",
          "name": "",
          "type": "bytes32"
        }
      ],
      "stateMutability": "view",
      "type": "function"
    },
    {
      "inputs": [
        {
          "internalType": "bytes32",
          "name": "role",
          "type": "bytes32"
        },
        {
          "internalType": "address",
          "name": "account",
          "type": "address"
        }
      ],
      "name": "grantRole",
      "outputs": [],
      "stateMutability": "nonpayable",
      "type": "function"
    },
    {
      "inputs": [
        {
          "internalType": "bytes32",
          "name": "role",
          "type": "bytes32"
        },
        {
          "internalType": "address",
          "name": "account",
          "type": "address"
        }
      ],
      "name": "hasRole",
      "outputs": [
        {
          "internalType": "bool",
          "name": "",
          "type": "bool"
        }
      ],
      "stateMutability": "view",
      "type": "function"
    },
    {
      "inputs": [
        {
          "internalType": "bytes32",
          "name": "A",
          "type": "bytes32"
        },
        {
          "internalType": "bytes32",
          "name": "B",
          "type": "bytes32"
        },
        {
          "internalType": "uint8",
          "name": "minimum",
          "type": "uint8"
        }
      ],
      "name": "inProximity",
      "outputs": [
        {
          "internalType": "bool",
          "name": "",
          "type": "bool"
        }
      ],
      "stateMutability": "pure",
      "type": "function"
    },
    {
      "inputs": [
        {
          "internalType": "address",
          "name": "_owner",
          "type": "address"
        },
        {
          "internalType": "uint8",
          "name": "_depth",
          "type": "uint8"
        }
      ],
      "name": "isParticipatingInUpcomingRound",
      "outputs": [
        {
          "internalType": "bool",
          "name": "",
          "type": "bool"
        }
      ],
      "stateMutability": "view",
      "type": "function"
    },
    {
      "inputs": [
        {
          "internalType": "bytes32",
          "name": "_overlay",
          "type": "bytes32"
        }
      ],
      "name": "isWinner",
      "outputs": [
        {
          "internalType": "bool",
          "name": "",
          "type": "bool"
        }
      ],
      "stateMutability": "view",
      "type": "function"
    },
    {
      "inputs": [],
      "name": "nextSeed",
      "outputs": [
        {
          "internalType": "bytes32",
          "name": "",
          "type": "bytes32"
        }
      ],
      "stateMutability": "view",
      "type": "function"
    },
    {
      "inputs": [],
      "name": "pause",
      "outputs": [],
      "stateMutability": "nonpayable",
      "type": "function"
    },
    {
      "inputs": [],
      "name": "paused",
      "outputs": [
        {
          "internalType": "bool",
          "name": "",
          "type": "bool"
        }
      ],
      "stateMutability": "view",
      "type": "function"
    },
    {
      "inputs": [
        {
          "internalType": "bytes32",
          "name": "role",
          "type": "bytes32"
        },
        {
          "internalType": "address",
          "name": "account",
          "type": "address"
        }
      ],
      "name": "renounceRole",
      "outputs": [],
      "stateMutability": "nonpayable",
      "type": "function"
    },
    {
      "inputs": [
        {
          "internalType": "uint8",
          "name": "_depth",
          "type": "uint8"
        },
        {
          "internalType": "bytes32",
          "name": "_hash",
          "type": "bytes32"
        },
        {
          "internalType": "bytes32",
          "name": "_revealNonce",
          "type": "bytes32"
        }
      ],
      "name": "reveal",
      "outputs": [],
      "stateMutability": "nonpayable",
      "type": "function"
    },
    {
      "inputs": [
        {
          "internalType": "bytes32",
          "name": "role",
          "type": "bytes32"
        },
        {
          "internalType": "address",
          "name": "account",
          "type": "address"
        }
      ],
      "name": "revokeRole",
      "outputs": [],
      "stateMutability": "nonpayable",
      "type": "function"
    },
    {
      "inputs": [
        {
          "internalType": "uint8",
          "name": "_penaltyMultiplierDisagreement",
          "type": "uint8"
        },
        {
          "internalType": "uint8",
          "name": "_penaltyMultiplierNonRevealed",
          "type": "uint8"
        },
        {
          "internalType": "uint8",
          "name": "_penaltyRandomFactor",
          "type": "uint8"
        }
      ],
      "name": "setFreezingParams",
      "outputs": [],
      "stateMutability": "nonpayable",
      "type": "function"
    },
    {
      "inputs": [
        {
          "internalType": "uint256",
          "name": "_sampleMaxValue",
          "type": "uint256"
        }
      ],
      "name": "setSampleMaxValue",
      "outputs": [],
      "stateMutability": "nonpayable",
      "type": "function"
    },
    {
      "inputs": [
        {
          "internalType": "bytes4",
          "name": "interfaceId",
          "type": "bytes4"
        }
      ],
      "name": "supportsInterface",
      "outputs": [
        {
          "internalType": "bool",
          "name": "",
          "type": "bool"
        }
      ],
      "stateMutability": "view",
      "type": "function"
    },
    {
      "inputs": [],
      "name": "unPause",
      "outputs": [],
      "stateMutability": "nonpayable",
      "type": "function"
    },
    {
      "inputs": [],
      "name": "winner",
      "outputs": [
        {
          "internalType": "bytes32",
          "name": "overlay",
          "type": "bytes32"
        },
        {
          "internalType": "address",
          "name": "owner",
          "type": "address"
        },
        {
          "internalType": "uint8",
          "name": "depth",
          "type": "uint8"
        },
        {
          "internalType": "uint256",
          "name": "stake",
          "type": "uint256"
        },
        {
          "internalType": "uint256",
          "name": "stakeDensity",
          "type": "uint256"
        },
        {
          "internalType": "bytes32",
          "name": "hash",
          "type": "bytes32"
        }
      ],
      "stateMutability": "view",
      "type": "function"
    },
    {
      "inputs": [
        {
          "internalType": "bytes32",
          "name": "_overlay",
          "type": "bytes32"
        },
        {
          "internalType": "uint8",
          "name": "_depth",
          "type": "uint8"
        },
        {
          "internalType": "bytes32",
          "name": "_hash",
          "type": "bytes32"
        },
        {
          "internalType": "bytes32",
          "name": "revealNonce",
          "type": "bytes32"
        }
      ],
      "name": "wrapCommit",
      "outputs": [
        {
          "internalType": "bytes32",
          "name": "",
          "type": "bytes32"
        }
      ],
      "stateMutability": "pure",
      "type": "function"
    }
  ],
  "transactionHash": "0xcd9ed19a4a4a87cd1319cc5b36159abf003d9fa32bff82186f0f52eb36535307",
  "args": [
    "0x491075e789DBdbb7d08D95946E665eFB2751eE1E",
    "0x8613A18717E30be14852846eC6D45F5010339451",
    "0x0fF044F6bB4F684a5A149B46D7eC03ea659F98A1",
    380
  ],
  "numDeployments": 1,
  "solcInputHash": "1555728240c911e365b21f0caeb96eb4",
  "bytecode": "0x60a06040526008805462ffffff60c01b19166264020160c01b1790557dba1914b54e0348a1028d1a103a95ed55c4004b9d332400000000000000006009553480156200004a57600080fd5b506040516200503d3803806200503d8339810160408190526200006d91620001a3565b60018054600380546001600160a01b03199081166001600160a01b03898116919091179092556001600160a81b03199092166101008783160217909255600280549091169184169190911790556080819052620000cc600033620000d6565b50505050620001f5565b620000e28282620000e6565b5050565b6000828152602081815260408083206001600160a01b038516845290915290205460ff16620000e2576000828152602081815260408083206001600160a01b03851684529091529020805460ff19166001179055620001423390565b6001600160a01b0316816001600160a01b0316837f2f8788117e7eff1d82e926ec794901d17c78024a50270940304540a733656f0d60405160405180910390a45050565b80516001600160a01b03811681146200019e57600080fd5b919050565b60008060008060808587031215620001ba57600080fd5b620001c58562000186565b9350620001d56020860162000186565b9250620001e56040860162000186565b6060959095015193969295505050565b608051614dd16200026c600039600081816107cc015281816109e101528181610a0f01528181610a4401528181610d2b01528181610e5d01528181610e9001528181611abc01528181611aea01528181611b13015281816121a1015281816121ca0152818161298c0152612a5b0152614dd16000f3fe608060405234801561001057600080fd5b50600436106102775760003560e01c806377c75d1011610160578063b6cd5822116100d8578063dfbf53ae1161008c578063f69ee1d111610071578063f69ee1d1146105df578063f7b188a5146105f2578063fb00f2f3146105fa57600080fd5b8063dfbf53ae1461059c578063f4e6fcca146105cc57600080fd5b8063ce987745116100bd578063ce9877451461056e578063d1e8b63d14610581578063d547741f1461058957600080fd5b8063b6cd582214610541578063c46b40291461055457600080fd5b80638456cb591161012f5780638d8b6428116101145780638d8b6428146104fa57806391d1485414610502578063a217fddf1461053957600080fd5b80638456cb59146104ea5780638a19c8bc146104f257600080fd5b806377c75d10146104645780637fe019c61461047757806382b39b1b1461049257806383220626146104e257600080fd5b80635c975abb116101f357806364c34a85116101c257806369da9114116101a757806369da9114146103de5780636f94aaf2146103f157806372286cba1461040c57600080fd5b806364c34a85146103a957806369bfac01146103b157600080fd5b80635c975abb146103705780635d4844ea1461037b57806362fd29ae1461038e57806363f5cf7c1461039657600080fd5b80632a4e62491161024a5780632f3906da1161022f5780632f3906da1461034257806336568abe1461034a5780635838d6731461035d57600080fd5b80632a4e6249146103185780632f2ff15d1461032d57600080fd5b806301ffc9a71461027c5780631736d472146102a457806318350096146102b7578063248a9ca3146102e7575b600080fd5b61028f61028a3660046144d2565b61060d565b60405190151581526020015b60405180910390f35b61028f6102b2366004614520565b610676565b6001546102cf9061010090046001600160a01b031681565b6040516001600160a01b03909116815260200161029b565b61030a6102f5366004614559565b60009081526020819052604090206001015490565b60405190815260200161029b565b6103206108a2565b60405161029b9190614572565b61034061033b366004614601565b6109af565b005b61028f6109d9565b610340610358366004614601565b610a80565b61034061036b366004614643565b610b11565b60015460ff1661028f565b6003546102cf906001600160a01b031681565b61030a61110b565b6103406103a4366004614688565b6111d7565b61030a61160c565b6008546103c59067ffffffffffffffff1681565b60405167ffffffffffffffff909116815260200161029b565b6002546102cf906001600160a01b031681565b6008546103c590600160801b900467ffffffffffffffff1681565b61041f61041a366004614559565b6116ec565b604080519788526001600160a01b0390961660208801529315159486019490945260ff9091166060850152608084015260a083019190915260c082015260e00161029b565b61028f610472366004614559565b61174a565b6008546103c590600160401b900467ffffffffffffffff1681565b6104a56104a0366004614559565b6119fa565b604080519687526001600160a01b03909516602087015260ff909316938501939093526060840152608083019190915260a082015260c00161029b565b61030a611a51565b610340611a5c565b6103c5611ab5565b61028f611ae1565b61028f610510366004614601565b6000918252602082815260408084206001600160a01b0393909316845291905290205460ff1690565b61030a600081565b61034061054f366004614710565b611b49565b61055c6120a4565b60405160ff909116815260200161029b565b61030a61057c366004614745565b612129565b61028f612198565b610340610597366004614601565b6121fb565b600a54600b54600c54600d54600e546104a594936001600160a01b03811693600160a01b90910460ff1692909186565b6103406105da366004614782565b612220565b6103406105ed366004614559565b612307565b61034061235b565b61028f6106083660046147cd565b6123b2565b60006001600160e01b031982167f7965db0b00000000000000000000000000000000000000000000000000000000148061067057507f01ffc9a7000000000000000000000000000000000000000000000000000000006001600160e01b03198316145b92915050565b60035460405163d1052d1f60e01b81526001600160a01b038481166004830152600092839291169063d1052d1f90602401602060405180830381865afa1580156106c4573d6000803e3d6000fd5b505050506040513d601f19601f820116820180604052508101906106e891906147fb565b600354604051631d54805360e01b81526001600160a01b03878116600483015292935060009290911690631d54805390602401602060405180830381865afa158015610738573d6000803e3d6000fd5b505050506040513d601f19601f8201168201806040525081019061075c9190614814565b6107669085614847565b90506107706109d9565b156107a7576040517fe2586bcc00000000000000000000000000000000000000000000000000000000815260040160405180910390fd5b816000036107c7576040516273e5c360e31b815260040160405180910390fd5b6107f27f00000000000000000000000000000000000000000000000000000000000000006002614860565b6107fc9043614877565b821061081b57604051630a0744c560e01b815260040160405180910390fd5b6003546040516397adedb560e01b81526001600160a01b0387811660048301526108999216906397adedb590602401602060405180830381865afa158015610867573d6000803e3d6000fd5b505050506040513d601f19601f8201168201806040525081019061088b91906147fb565b61089361160c565b836123b2565b95945050505050565b60606108ac611ae1565b6108c957604051633788c6c160e11b815260040160405180910390fd5b60006108d3611ab5565b60085490915067ffffffffffffffff808316600160401b909204161461090c57604051636fbabc7760e01b815260040160405180910390fd5b6005805480602002602001604051908101604052809291908181526020016000905b828210156109a55760008481526020908190206040805160c08101825260058602909201805483526001808201546001600160a01b03811685870152600160a01b900460ff169284019290925260028101546060840152600381015460808401526004015460a0830152908352909201910161092e565b5050505091505090565b6000828152602081905260409020600101546109ca816123ef565b6109d483836123fc565b505050565b600080610a067f0000000000000000000000000000000000000000000000000000000000000000436148a0565b9050610a3360047f00000000000000000000000000000000000000000000000000000000000000006148b4565b8110158015610a6b5750610a6860027f00000000000000000000000000000000000000000000000000000000000000006148b4565b81105b15610a7857600191505090565b600091505090565b6001600160a01b0381163314610b035760405162461bcd60e51b815260206004820152602f60248201527f416363657373436f6e74726f6c3a2063616e206f6e6c792072656e6f756e636560448201527f20726f6c657320666f722073656c66000000000000000000000000000000000060648201526084015b60405180910390fd5b610b0d828261249a565b5050565b610b19612519565b6000610b23611ab5565b6003546040516397adedb560e01b81523360048201529192506000916001600160a01b03909116906397adedb590602401602060405180830381865afa158015610b71573d6000803e3d6000fd5b505050506040513d601f19601f82011682018060405250810190610b9591906147fb565b6003546040517f830a053e0000000000000000000000000000000000000000000000000000000081523360048201529192506000916001600160a01b039091169063830a053e90602401602060405180830381865afa158015610bfc573d6000803e3d6000fd5b505050506040513d601f19601f82011682018060405250810190610c2091906147fb565b60035460405163d1052d1f60e01b81523360048201529192506000916001600160a01b039091169063d1052d1f90602401602060405180830381865afa158015610c6e573d6000803e3d6000fd5b505050506040513d601f19601f82011682018060405250810190610c9291906147fb565b600354604051631d54805360e01b81523360048201529192506000916001600160a01b0390911690631d54805390602401602060405180830381865afa158015610ce0573d6000803e3d6000fd5b505050506040513d601f19601f82011682018060405250810190610d049190614814565b905081600003610d26576040516273e5c360e31b815260040160405180910390fd5b610d517f00000000000000000000000000000000000000000000000000000000000000006002614860565b610d5b9043614877565b8210610d7a57604051630a0744c560e01b815260040160405180910390fd5b8567ffffffffffffffff168567ffffffffffffffff161115610dc8576040517f50ff7c0000000000000000000000000000000000000000000000000000000000815260040160405180910390fd5b8567ffffffffffffffff168567ffffffffffffffff161015610e16576040517f7a0c0fd600000000000000000000000000000000000000000000000000000000815260040160405180910390fd5b610e1e612198565b610e54576040517fdc816a8700000000000000000000000000000000000000000000000000000000815260040160405180910390fd5b6001610e8160047f00000000000000000000000000000000000000000000000000000000000000006148b4565b610e8b9190614877565b610eb57f0000000000000000000000000000000000000000000000000000000000000000436148a0565b03610eec576040517f5baef6b600000000000000000000000000000000000000000000000000000000815260040160405180910390fd5b60085467ffffffffffffffff868116911614610f2c57610f0e600460006143f0565b6008805467ffffffffffffffff191667ffffffffffffffff87161790555b60045460005b81811015610f9f578560048281548110610f4e57610f4e6148c8565b90600052602060002090600502016000015403610f97576040517fbfec555800000000000000000000000000000000000000000000000000000000815260040160405180910390fd5b600101610f32565b5060046040518060e00160405280878152602001336001600160a01b031681526020016000151581526020018460ff1681526020018681526020018a8152602001600081525090806001815401808255809150506001900390600052602060002090600502016000909190919091506000820151816000015560208201518160010160006101000a8154816001600160a01b0302191690836001600160a01b0316021790555060408201518160010160146101000a81548160ff02191690831515021790555060608201518160010160156101000a81548160ff021916908360ff1602179055506080820151816002015560a0820151816003015560c0820151816004015550507faadc88121471799d39ee2bbe1dd30a4ab57510e2a33bd6e537de5fafd2daa8868786846040516110f99392919067ffffffffffffffff939093168352602083019190915260ff16604082015260600190565b60405180910390a15050505050505050565b600080611116611ab5565b6111219060016148de565b6007546008549192509061114790600160401b900467ffffffffffffffff1660016148de565b67ffffffffffffffff168267ffffffffffffffff1611156106705760085460009060019061118690600160401b900467ffffffffffffffff1685614906565b6111909190614906565b67ffffffffffffffff16905081816040516020016111b8929190918252602082015260400190565b6040516020818303038152906040528051906020012091505092915050565b6111df612519565b6111e761256c565b6040805160c081018252600a548152600b546001600160a01b0381166020830152600160a01b900460ff1691810191909152600c546060820152600d546080820152600e5460a08201526006546007546000918291611247600f826148a0565b9350611254600e826148a0565b925083831061126b578261126781614927565b9350505b61127e86602001358387604001516123b2565b61129e57604051633b5f43a360e01b815260036004820152602401610afa565b6112a986601e612c19565b6112b286612f2b565b6112bb86613238565b6112ce88602001358387604001516123b2565b6112ee57604051633b5f43a360e01b815260026004820152602401610afa565b611302886112fd866002614860565b612c19565b61130b88612f2b565b61131488613238565b61132787602001358387604001516123b2565b61134757604051633b5f43a360e01b815260016004820152602401610afa565b611356876112fd856002614860565b61135f87612f2b565b61136887613238565b6113de84846113778b80614940565b6000818110611388576113886148c8565b6020029190910135905061139c8b80614940565b60008181106113ad576113ad6148c8565b602002919091013590506113c18b80614940565b60008181106113d2576113d26148c8565b905060200201356134cc565b6114086113eb8780614940565b60008181106113fc576113fc6148c8565b90506020020135613559565b60015460208601516040516001600160a01b03918216602482015260009261010090049091169060440160408051601f198184030181529181526020820180517bffffffffffffffffffffffffffffffffffffffffffffffffffffffff167f51cff8d9000000000000000000000000000000000000000000000000000000001790525161149591906149b5565b6000604051808303816000865af19150503d80600081146114d2576040519150601f19603f3d011682016040523d82523d6000602084013e6114d7565b606091505b5050905080611522576020808701516040516001600160a01b0390911681527f7ae187a0c04cf55b655ca83fa11d37854c882bf1fdcb588469b414731bb0e05a910160405180910390a15b7f788e77979e6e6a8a6a5d2c19c58b1ff9671298f54c85ac6f6aa30379aed5861a8660405161155191906149d1565b60405180910390a17fbee3fc8a3523c1a65fa9308ce1f2b8fd90c24975b141b754603194597846e4dd60018054906101000a90046001600160a01b03166001600160a01b0316638a5e8e326040518163ffffffff1660e01b8152600401602060405180830381865afa1580156115cb573d6000803e3d6000fd5b505050506040513d601f19601f820116820180604052508101906115ef91906147fb565b6040519081526020015b60405180910390a1505050505050505050565b6000611616612198565b806116545750600854600160401b900467ffffffffffffffff16611638611ab5565b67ffffffffffffffff161180156116545750611652611ae1565b155b1561166657611661611a51565b905090565b61166e611ae1565b1561167b5761166161110b565b6116836109d9565b80156116b25750600854600160401b900467ffffffffffffffff166116a6611ab5565b67ffffffffffffffff16145b156116e9576040517f36b7884b00000000000000000000000000000000000000000000000000000000815260040160405180910390fd5b90565b600481815481106116fc57600080fd5b6000918252602090912060059091020180546001820154600283015460038401546004909401549294506001600160a01b0382169360ff600160a01b8404811694600160a81b909404169287565b6000611754611ae1565b61177157604051633788c6c160e11b815260040160405180910390fd5b600061177b611ab5565b60085490915067ffffffffffffffff808316600160401b90920416146117b457604051636fbabc7760e01b815260040160405180910390fd5b60085467ffffffffffffffff600160801b9091048116908216116117eb57604051630c8d9eab60e31b815260040160405180910390fd5b6000806000806000806000806117ff613597565b9050600061180b613651565b600454919650945060005b818110156119e65760048181548110611831576118316148c8565b906000526020600020906005020160040154945060048181548110611858576118586148c8565b906000526020600020906005020160010160149054906101000a900460ff1680156118a6575060058581548110611891576118916148c8565b90600052602060002090600502016004015487145b80156118e45750600585815481106118c0576118c06148c8565b600091825260209091206001600590920201015460ff878116600160a01b90920416145b156119de57600585815481106118fc576118fc6148c8565b9060005260206000209060050201600301548b6119199190614a20565b9a50838360405160200161192e929190614a33565b60408051601f19818403018152919052805160209091012098506fffffffffffffffffffffffffffffffff808a169850611969906001614a20565b6005868154811061197c5761197c6148c8565b9060005260206000209060050201600301546119989190614860565b6119a28c8a614860565b10156119d057600585815481106119bb576119bb6148c8565b90600052602060002090600502016000015499505b826119da81614927565b9350505b600101611816565b505050959099149998505050505050505050565b60058181548110611a0a57600080fd5b6000918252602090912060059091020180546001820154600283015460038401546004909401549294506001600160a01b03821693600160a01b90920460ff169290919086565b600080611121611ab5565b3360009081527fad3228b676f7d3cd4284a5443f17f1962b36e491b30a40b2405849e597ba5fb5602052604090205460ff16611aab57604051631d77d47760e21b815260040160405180910390fd5b611ab361380a565b565b60006116617f0000000000000000000000000000000000000000000000000000000000000000436148b4565b6000611b0e60027f00000000000000000000000000000000000000000000000000000000000000006148b4565b611b387f0000000000000000000000000000000000000000000000000000000000000000436148a0565b10611b435750600190565b50600090565b611b51612519565b6000611b5b611ab5565b6003546040516397adedb560e01b81523360048201529192506000916001600160a01b03909116906397adedb590602401602060405180830381865afa158015611ba9573d6000803e3d6000fd5b505050506040513d601f19601f82011682018060405250810190611bcd91906147fb565b60085490915067ffffffffffffffff838116911614611c18576040517f842a9e0a00000000000000000000000000000000000000000000000000000000815260040160405180910390fd5b611c206109d9565b611c56576040517fd1088db600000000000000000000000000000000000000000000000000000000815260040160405180910390fd5b611c5e6120a4565b60ff168560ff161015611c9d576040517f83d9b7bd00000000000000000000000000000000000000000000000000000000815260040160405180910390fd5b60085467ffffffffffffffff838116600160401b9092041614611d8557611cc261160c565b600655611cd160056000614411565b600880547fffffffffffffffffffffffffffffffff0000000000000000ffffffffffffffff16600160401b67ffffffffffffffff8516908102919091179091556006546040805192835260208301919091527ff0ae472da9c8da86bda4991a549c03a3cb328b5f360ea11a5b8814f32bb85176910160405180910390a1611d85600754604080516020810192909252449082015260600160408051601f198184030181529190528051602090910120600755565b6000611d9382878787612129565b90506000611da1838361385e565b9050600060048281548110611db857611db86148c8565b600091825260208083206040805160e08101825260059094029091018054845260018101546001600160a01b0381169385019390935260ff600160a01b84048116151592850192909252600160a81b909204166060830181905260028201546080840152600382015460a084015260049091015460c0830152909250611e3e908a614847565b9050611e518260000151600654836123b2565b611e8d576006546040517f14ebbbe4000000000000000000000000000000000000000000000000000000008152600401610afa91815260200190565b816040015115611ec9576040517fa89ac15100000000000000000000000000000000000000000000000000000000815260040160405180910390fd5b600160048481548110611ede57611ede6148c8565b906000526020600020906005020160010160146101000a81548160ff02191690831515021790555060058054905060048481548110611f1f57611f1f6148c8565b90600052602060002090600502016004018190555060056040518060c001604052808460000151815260200184602001516001600160a01b031681526020018b60ff16815260200184608001518152602001836002611f7e9190614b39565b8560800151611f8d9190614860565b815260209081018b90528254600181810185556000948552938290208351600590920201908155908201519281018054604084015160ff16600160a01b0274ffffffffffffffffffffffffffffffffffffffffff199091166001600160a01b0390951694909417939093179092556060810151600280840191909155608080830151600385015560a0909201516004909301929092558351908401517f13fc17fd71632266fe82092de6dd91a06b4fa68d8dc950492e5421cbed55a6a5928992919061205a908690614b39565b86608001516120699190614860565b6040805167ffffffffffffffff90951685526020850193909352918301526060820152608081018a905260ff8b1660a082015260c0016115f9565b60085460009081906120c99067ffffffffffffffff600160801b820481169116614906565b67ffffffffffffffff169050600060fe82116120e557816120e8565b60fe5b6120f3906001614b48565b600b5490915060ff600160a01b909104811690821681111561211e576121198282614847565b612121565b60005b935050505090565b60408051602081018690527fff0000000000000000000000000000000000000000000000000000000000000060f886901b169181019190915260418101839052606181018290526000906081015b6040516020818303038152906040528051906020012090505b949350505050565b60006121c560047f00000000000000000000000000000000000000000000000000000000000000006148b4565b6121ef7f0000000000000000000000000000000000000000000000000000000000000000436148a0565b1015611b435750600190565b600082815260208190526040902060010154612216816123ef565b6109d4838361249a565b3360009081527fad3228b676f7d3cd4284a5443f17f1962b36e491b30a40b2405849e597ba5fb5602052604090205460ff1661226f57604051637bfa4b9f60e01b815260040160405180910390fd5b600880547fffffffffffff0000ffffffffffffffffffffffffffffffffffffffffffffffff16600160c01b60ff958616027fffffffffffff00ffffffffffffffffffffffffffffffffffffffffffffffffff1617600160c81b93851693909302929092177fffffffffff00ffffffffffffffffffffffffffffffffffffffffffffffffffff16600160d01b9190931602919091179055565b3360009081527fad3228b676f7d3cd4284a5443f17f1962b36e491b30a40b2405849e597ba5fb5602052604090205460ff1661235657604051637bfa4b9f60e01b815260040160405180910390fd5b600955565b3360009081527fad3228b676f7d3cd4284a5443f17f1962b36e491b30a40b2405849e597ba5fb5602052604090205460ff166123aa57604051631d77d47760e21b815260040160405180910390fd5b611ab3613909565b60008160ff166000036123c7575060016123e8565b6123d660ff8316610100614b61565b6123e1906002614b7c565b8484181090505b9392505050565b6123f98133613942565b50565b6000828152602081815260408083206001600160a01b038516845290915290205460ff16610b0d576000828152602081815260408083206001600160a01b03851684529091529020805460ff191660011790556124563390565b6001600160a01b0316816001600160a01b0316837f2f8788117e7eff1d82e926ec794901d17c78024a50270940304540a733656f0d60405160405180910390a45050565b6000828152602081815260408083206001600160a01b038516845290915290205460ff1615610b0d576000828152602081815260408083206001600160a01b0385168085529252808320805460ff1916905551339285917ff6391f5c32d9c69d2a47ea670b442974b53935d1edc7fd64eb21e047a839171b9190a45050565b60015460ff1615611ab35760405162461bcd60e51b815260206004820152601060248201527f5061757361626c653a20706175736564000000000000000000000000000000006044820152606401610afa565b6000612576611ab5565b9050612580611ae1565b61259d57604051633788c6c160e11b815260040160405180910390fd5b60085467ffffffffffffffff828116600160401b90920416146125d357604051636fbabc7760e01b815260040160405180910390fd5b60085467ffffffffffffffff600160801b90910481169082161161260a57604051630c8d9eab60e31b815260040160405180910390fd5b600454604051818152600091829182918291829182917f6752c5e71c95fb93bc7137adeb115a33fa4e54e2683e33d3f90c2bb1c4b6c2a59060200160405180910390a16005546040519081527f4c03de6a759749c0c9387b7014634dc5c6af610e1366023d90751c783a998f8d9060200160405180910390a161268b613651565b6040805183815260ff831660208201529295509093507f34e8eda4cd857cd2865becf58a47748f31415f4a382cbb2cc0c64b9a27c717be910160405180910390a160006126d6613597565b905060005b82811015612b01576000600482815481106126f8576126f86148c8565b600091825260208083206040805160e08101825260059485029092018054835260018101546001600160a01b0381169484019490945260ff600160a01b85048116151592840192909252600160a81b90930416606082015260028201546080820152600382015460a082015260049091015460c08201819052825491945092919083908110612789576127896148c8565b60009182526020918290206040805160c0810182526005939093029091018054835260018101546001600160a01b03811694840194909452600160a01b90930460ff1682820152600283015460608301526003830154608083015260049092015460a082015290840151909150801561280557508060a0015188145b801561281a5750806040015160ff168760ff16145b1561290f57608081015161282e908d614a20565b9b50848b604051602001612843929190614a33565b60408051601f19818403018152919052805160209091012099506fffffffffffffffffffffffffffffffff808b16995061287e906001614a20565b816080015161288d9190614860565b6128978d8b614860565b1015612901578051600a556020810151600b8054604084015160ff16600160a01b0274ffffffffffffffffffffffffffffffffffffffffff199091166001600160a01b03909316929092179190911790556060810151600c556080810151600d5560a0810151600e555b8a61290b81614927565b9b50505b8260400151801561293857508060a00151881415806129385750806040015160ff168760ff1614155b80156129595750600854600160d01b900460ff166129576064446148a0565b105b15612a245760035460208201516001600160a01b039091169063d009b2d6906129838a6002614b39565b6008546129bb907f000000000000000000000000000000000000000000000000000000000000000090600160c01b900460ff16614860565b6129c59190614860565b6040516001600160e01b031960e085901b1681526001600160a01b0390921660048301526024820152604401600060405180830381600087803b158015612a0b57600080fd5b505af1158015612a1f573d6000803e3d6000fd5b505050505b8260400151612af35760035460208401516001600160a01b039091169063d009b2d690612a528a6002614b39565b600854612a8a907f000000000000000000000000000000000000000000000000000000000000000090600160c81b900460ff16614860565b612a949190614860565b6040516001600160e01b031960e085901b1681526001600160a01b0390921660048301526024820152604401600060405180830381600087803b158015612ada57600080fd5b505af1158015612aee573d6000803e3d6000fd5b505050505b8360010193505050506126db565b506002546040517fffb98fe300000000000000000000000000000000000000000000000000000000815261ffff891660048201526000916001600160a01b03169063ffb98fe3906024016020604051808303816000875af1158015612b6a573d6000803e3d6000fd5b505050506040513d601f19601f82011682018060405250810190612b8e9190614b9c565b905080612bcd5760405161ffff891681527f20378e5d379eabfa30444ecc5eb2b87d0d77bdbf5a58d80d008673b0ca6421419060200160405180910390a15b50506008805467ffffffffffffffff909916600160801b027fffffffffffffffff0000000000000000ffffffffffffffffffffffffffffffff9099169890981790975550505050505050565b600754600090612c2b906080906148a0565b90506000612c8e612c3f60a0860186614940565b80806020026020016040519081016040528093929190818152602001838360200280828437600092019190915250505050606086013584612c8660a0890160808a01614bb7565b6006546139b5565b60408051858152602081018390529192507f94e252069a85aa79db21f5bd8ca4e14dd3a3927aa492711017a2c8ddad95af00910160405180910390a1612d16612cd78580614940565b80806020026020016040519081016040528093929190818152602001838360200280828437600092019190915250505050602086013585610400613b2d565b600e5414612d415760405163755f0a2560e01b81526001600482015260248101829052604401610afa565b612d4e60a0850185614940565b6000818110612d5f57612d5f6148c8565b90506020020135848060400190612d769190614940565b6000818110612d8757612d876148c8565b9050602002013514612db65760405163755f0a2560e01b81526002600482015260248101829052604401610afa565b600080612dc660e0870187614940565b905011612dd7578460200135612e0c565b612de460e0860186614940565b6000818110612df557612df56148c8565b9050602002810190612e079190614bd2565b606001355b9050612e6a612e1e6040870187614940565b80806020026020016040519081016040528093929190818152602001838360200280828437600092019190915250505050606087013585612e6560a08a0160808b01614bb7565b613b2d565b8114612e935760405163755f0a2560e01b81526003600482015260248101839052604401610afa565b6000612ea260e0870187614940565b90501115612eda5760408051602080880135908201529081018390526060016040516020818303038152906040528051906020012091505b81612ee58680614940565b6000818110612ef657612ef66148c8565b9050602002013514612f245760405163755f0a2560e01b815260048181015260248101839052604401610afa565b5050505050565b6001546000908190819061010090046001600160a01b031663c81e25ab612f5560c0870187614bd2565b602001356040518263ffffffff1660e01b8152600401612f7791815260200190565b60c060405180830381865afa158015612f94573d6000803e3d6000fd5b505050506040513d601f19601f82011682018060405250810190612fb89190614be8565b509396509194509250506001600160a01b038416905061301857612fdf60c0850185614bd2565b602001356040517f2396d34e000000000000000000000000000000000000000000000000000000008152600401610afa91815260200190565b600061303b61302a60c0870187614bd2565b6116e9906060810190604001614bb7565b905060006130498484613c9b565b9050808263ffffffff161061309e5761306560c0870187614bd2565b602001356040517f1362e4a0000000000000000000000000000000000000000000000000000000008152600401610afa91815260200190565b60006130cd6130b060c0890189614bd2565b6130c1906060810190604001614bb7565b60201c63ffffffff1690565b905060006130df886020013586613cb6565b63ffffffff16905067ffffffffffffffff8216811461313e5761310560c0890189614bd2565b602001356040517f6dd6a24f000000000000000000000000000000000000000000000000000000008152600401610afa91815260200190565b6131e48761314f60c08b018b614bd2565b6131599080614c56565b8080601f01602080910402602001604051908101604052809392919081815260200183838082843760009201919091525050505060208b013561319f60c08d018d614bd2565b602001356131b060c08e018e614bd2565b6131c1906060810190604001614bb7565b6131ce60c08f018f614bd2565b6131df906080810190606001614bb7565b613cdd565b61322e576131f560c0890189614bd2565b602001356040517fdb12fb9d000000000000000000000000000000000000000000000000000000008152600401610afa91815260200190565b5050505050505050565b61324560e0820182614940565b90506000036132515750565b61337261326160e0830183614940565b6000818110613272576132726148c8565b90506020028101906132849190614bd2565b613292906020810190614c9d565b61329f60e0840184614940565b60008181106132b0576132b06148c8565b90506020028101906132c29190614bd2565b6132d0906020810190614c56565b8080601f0160208091040260200160405190810160405280939291908181526020018383808284376000920191909152506133129250505060e0850185614940565b6000818110613323576133236148c8565b90506020028101906133359190614bd2565b6040013561334660e0860186614940565b6000818110613357576133576148c8565b90506020028101906133699190614bd2565b60600135613d74565b6133df5761338360e0820182614940565b6000818110613394576133946148c8565b90506020028101906133a69190614bd2565b606001356040517fd740df61000000000000000000000000000000000000000000000000000000008152600401610afa91815260200190565b602081013561345e6133f460e0840184614940565b6000818110613405576134056148c8565b90506020028101906134179190614bd2565b6040013561342860e0850185614940565b6000818110613439576134396148c8565b905060200281019061344b9190614bd2565b613459906020810190614c9d565b613e07565b146123f95761347060e0820182614940565b6000818110613481576134816148c8565b90506020028101906134939190614bd2565b606001356040517f82f2469d000000000000000000000000000000000000000000000000000000008152600401610afa91815260200190565b83851015613519578183106134f457604051633d386eb360e11b815260040160405180910390fd5b80821061351457604051633588c6d360e11b815260040160405180910390fd5b612f24565b82821061353957604051633d386eb360e11b815260040160405180910390fd5b808310612f2457604051633588c6d360e11b815260040160405180910390fd5b60095481106123f9576040517fb6052cdf00000000000000000000000000000000000000000000000000000000815260048101829052602401610afa565b60606135a1611ae1565b6135be57604051633788c6c160e11b815260040160405180910390fd5b60006135c8611ab5565b60085490915067ffffffffffffffff808316600160401b909204161461360157604051636fbabc7760e01b815260040160405180910390fd5b60075460405160200161363c9181527f3100000000000000000000000000000000000000000000000000000000000000602082015260210190565b60405160208183030381529060405291505090565b6000806000806000806000806000613667613e55565b60045490915060005b818110156137f9576004818154811061368b5761368b6148c8565b906000526020600020906005020160010160149054906101000a900460ff16156137f157600481815481106136c2576136c26148c8565b9060005260206000209060050201600401549350600584815481106136e9576136e96148c8565b906000526020600020906005020160030154896137069190614a20565b9850828160405160200161371b929190614a33565b60408051601f19818403018152919052805160209091012097506fffffffffffffffffffffffffffffffff8089169750613756906001614a20565b60058581548110613769576137696148c8565b9060005260206000209060050201600301546137859190614860565b61378f8a89614860565b10156137f157600584815481106137a8576137a86148c8565b9060005260206000209060050201600401549550600584815481106137cf576137cf6148c8565b906000526020600020906005020160010160149054906101000a900460ff1694505b600101613670565b509399929850919650505050505050565b613812612519565b6001805460ff1916811790557f62e78cea01bee320cd4e420270b5ea74000d11b0c9f74754ebdbfc544b05a258335b6040516001600160a01b03909116815260200160405180910390a1565b6000805b6004548110156138d6578360048281548110613880576138806148c8565b9060005260206000209060050201600001541480156138c25750600481815481106138ad576138ad6148c8565b90600052602060002090600502016003015483145b156138ce579050610670565b600101613862565b506040517fd950091500000000000000000000000000000000000000000000000000000000815260040160405180910390fd5b613911613ede565b6001805460ff191690557f5db9ee0a495bf2e6ff9c91a7834c1ba4fdd244a5e8aa4e537bd38aeae4b073aa33613841565b6000828152602081815260408083206001600160a01b038516845290915290205460ff16610b0d5761397381613f30565b61397e836020613f42565b60405160200161398f929190614cba565b60408051601f198184030181529082905262461bcd60e51b8252610afa91600401614d3b565b6000806139c487878786614107565b905082613ac9856000808267ffffffffffffffff1690506008817eff00ff00ff00ff00ff00ff00ff00ff00ff00ff00ff00ff00ff00ff00ff00ff16901b600882901c7eff00ff00ff00ff00ff00ff00ff00ff00ff00ff00ff00ff00ff00ff00ff00ff161790506010817dffff0000ffff0000ffff0000ffff0000ffff0000ffff0000ffff0000ffff16901b601082901c7dffff0000ffff0000ffff0000ffff0000ffff0000ffff0000ffff0000ffff161790506020817bffffffff00000000ffffffff00000000ffffffff00000000ffffffff16901b602082901c7bffffffff00000000ffffffff00000000ffffffff00000000ffffffff1617905080915050919050565b82604051602001613b0b9392919092835260c09190911b77ffffffffffffffffffffffffffffffffffffffffffffffff19166020830152602882015260480190565b6040516020818303038152906040528051906020012091505095945050505050565b600080613b3b86868661417d565b9050613c3f836000808267ffffffffffffffff1690506008817eff00ff00ff00ff00ff00ff00ff00ff00ff00ff00ff00ff00ff00ff00ff00ff16901b600882901c7eff00ff00ff00ff00ff00ff00ff00ff00ff00ff00ff00ff00ff00ff00ff00ff161790506010817dffff0000ffff0000ffff0000ffff0000ffff0000ffff0000ffff0000ffff16901b601082901c7dffff0000ffff0000ffff0000ffff0000ffff0000ffff0000ffff0000ffff161790506020817bffffffff00000000ffffffff00000000ffffffff00000000ffffffff16901b602082901c7bffffffff00000000ffffffff00000000ffffffff00000000ffffffff1617905080915050919050565b81604051602001613c7a92919060c09290921b77ffffffffffffffffffffffffffffffffffffffffffffffff19168252600882015260280190565b60405160208183030381529060405280519060200120915050949350505050565b6000613ca78284614847565b60ff166001901b905092915050565b600060e083901c613cc8836020614847565b60ff168163ffffffff16901c91505092915050565b600080613cec868686866141e5565b90506000613d47826040517f19457468657265756d205369676e6564204d6573736167653a0a3332000000006020820152603c8101829052600090605c01604051602081830303815290604052805190602001209050919050565b9050886001600160a01b0316613d5d828a614230565b6001600160a01b0316149998505050505050505050565b600080613d8184846142af565b90506000613ddc826040517f19457468657265756d205369676e6564204d6573736167653a0a3332000000006020820152603c8101829052600090605c01604051602081830303815290604052805190602001209050919050565b9050866001600160a01b0316613df28288614230565b6001600160a01b031614979650505050505050565b60008282604051602001613e3792919091825260601b6bffffffffffffffffffffffff1916602082015260340190565b60405160208183030381529060405280519060200120905092915050565b6060613e5f611ae1565b613e7c57604051633788c6c160e11b815260040160405180910390fd5b6000613e86611ab5565b60085490915067ffffffffffffffff808316600160401b9092041614613ebf57604051636fbabc7760e01b815260040160405180910390fd5b60075460405160200161363c918152600360fc1b602082015260210190565b60015460ff16611ab35760405162461bcd60e51b815260206004820152601460248201527f5061757361626c653a206e6f74207061757365640000000000000000000000006044820152606401610afa565b60606106706001600160a01b03831660145b60606000613f51836002614860565b613f5c906002614a20565b67ffffffffffffffff811115613f7457613f74614d6e565b6040519080825280601f01601f191660200182016040528015613f9e576020820181803683370190505b509050600360fc1b81600081518110613fb957613fb96148c8565b60200101906001600160f81b031916908160001a9053507f780000000000000000000000000000000000000000000000000000000000000081600181518110614004576140046148c8565b60200101906001600160f81b031916908160001a9053506000614028846002614860565b614033906001614a20565b90505b60018111156140b8577f303132333435363738396162636465660000000000000000000000000000000085600f1660108110614074576140746148c8565b1a60f81b82828151811061408a5761408a6148c8565b60200101906001600160f81b031916908160001a90535060049490941c936140b181614d84565b9050614036565b5083156123e85760405162461bcd60e51b815260206004820181905260248201527f537472696e67733a20686578206c656e67746820696e73756666696369656e746044820152606401610afa565b8260005b85518110156141745760006141216002866148a0565b1561412d576000614130565b60015b905061415783888481518110614148576141486148c8565b602002602001015183876142cb565b9250600185901c945050808061416c90614927565b91505061410b565b50949350505050565b8160005b84518110156141dd5760006141976002856148a0565b60001490506141c0838784815181106141b2576141b26148c8565b60200260200101518361432b565b9250600184901c93505080806141d590614927565b915050614181565b509392505050565b604080516020810186905290810184905277ffffffffffffffffffffffffffffffffffffffffffffffff1960c084811b8216606084015283901b166068820152600090607001612177565b60008060008061423f85614392565b6040805160008152602081018083528b905260ff8316918101919091526060810184905260808101839052929550909350915060019060a0016020604051602081039080840390855afa15801561429a573d6000803e3d6000fd5b5050604051601f190151979650505050505050565b6040805160208101849052908101829052600090606001613e37565b6000821561430b57604080516020810184905290810186905260608101859052608001604051602081830303815290604052805190602001209050612190565b604080516020810184905290810185905260608101869052608001612177565b600081156143645760408051602081018690529081018490526060016040516020818303038152906040528051906020012090506123e8565b5050604080516020808201939093528082019390935280518084038201815260609093019052815191012090565b600080600083516041146143d2576040517f4be6321b00000000000000000000000000000000000000000000000000000000815260040160405180910390fd5b50505060208101516040820151606090920151909260009190911a90565b50805460008255600502906000526020600020908101906123f99190614432565b50805460008255600502906000526020600020908101906123f99190614489565b5b808211156144855760008082556001820180547fffffffffffffffffffff0000000000000000000000000000000000000000000016905560028201819055600382018190556004820155600501614433565b5090565b5b8082111561448557600080825560018201805474ffffffffffffffffffffffffffffffffffffffffff191690556002820181905560038201819055600482015560050161448a565b6000602082840312156144e457600080fd5b81356001600160e01b0319811681146123e857600080fd5b6001600160a01b03811681146123f957600080fd5b60ff811681146123f957600080fd5b6000806040838503121561453357600080fd5b823561453e816144fc565b9150602083013561454e81614511565b809150509250929050565b60006020828403121561456b57600080fd5b5035919050565b6020808252825182820181905260009190848201906040850190845b818110156145f5576145e2838551805182526001600160a01b03602082015116602083015260ff6040820151166040830152606081015160608301526080810151608083015260a081015160a08301525050565b9284019260c0929092019160010161458e565b50909695505050505050565b6000806040838503121561461457600080fd5b82359150602083013561454e816144fc565b803567ffffffffffffffff8116811461463e57600080fd5b919050565b6000806040838503121561465657600080fd5b8235915061466660208401614626565b90509250929050565b6000610100828403121561468257600080fd5b50919050565b60008060006060848603121561469d57600080fd5b833567ffffffffffffffff808211156146b557600080fd5b6146c18783880161466f565b945060208601359150808211156146d757600080fd5b6146e38783880161466f565b935060408601359150808211156146f957600080fd5b506147068682870161466f565b9150509250925092565b60008060006060848603121561472557600080fd5b833561473081614511565b95602085013595506040909401359392505050565b6000806000806080858703121561475b57600080fd5b84359350602085013561476d81614511565b93969395505050506040820135916060013590565b60008060006060848603121561479757600080fd5b83356147a281614511565b925060208401356147b281614511565b915060408401356147c281614511565b809150509250925092565b6000806000606084860312156147e257600080fd5b833592506020840135915060408401356147c281614511565b60006020828403121561480d57600080fd5b5051919050565b60006020828403121561482657600080fd5b81516123e881614511565b634e487b7160e01b600052601160045260246000fd5b60ff828116828216039081111561067057610670614831565b808202811582820484141761067057610670614831565b8181038181111561067057610670614831565b634e487b7160e01b600052601260045260246000fd5b6000826148af576148af61488a565b500690565b6000826148c3576148c361488a565b500490565b634e487b7160e01b600052603260045260246000fd5b67ffffffffffffffff8181168382160190808211156148ff576148ff614831565b5092915050565b67ffffffffffffffff8281168282160390808211156148ff576148ff614831565b60006001820161493957614939614831565b5060010190565b6000808335601e1984360301811261495757600080fd5b83018035915067ffffffffffffffff82111561497257600080fd5b6020019150600581901b360382131561498a57600080fd5b9250929050565b60005b838110156149ac578181015183820152602001614994565b50506000910152565b600082516149c7818460208701614991565b9190910192915050565b60c081016106708284805182526001600160a01b03602082015116602083015260ff6040820151166040830152606081015160608301526080810151608083015260a081015160a08301525050565b8082018082111561067057610670614831565b60008351614a45818460208801614991565b9190910191825250602001919050565b600181815b80851115614a90578160001904821115614a7657614a76614831565b80851615614a8357918102915b93841c9390800290614a5a565b509250929050565b600082614aa757506001610670565b81614ab457506000610670565b8160018114614aca5760028114614ad457614af0565b6001915050610670565b60ff841115614ae557614ae5614831565b50506001821b610670565b5060208310610133831016604e8410600b8410161715614b13575081810a610670565b614b1d8383614a55565b8060001904821115614b3157614b31614831565b029392505050565b60006123e860ff841683614a98565b60ff818116838216019081111561067057610670614831565b61ffff8281168282160390808211156148ff576148ff614831565b60006123e861ffff841683614a98565b8051801515811461463e57600080fd5b600060208284031215614bae57600080fd5b6123e882614b8c565b600060208284031215614bc957600080fd5b6123e882614626565b60008235607e198336030181126149c757600080fd5b60008060008060008060c08789031215614c0157600080fd5b8651614c0c816144fc565b6020880151909650614c1d81614511565b6040880151909550614c2e81614511565b9350614c3c60608801614b8c565b92506080870151915060a087015190509295509295509295565b6000808335601e19843603018112614c6d57600080fd5b83018035915067ffffffffffffffff821115614c8857600080fd5b60200191503681900382131561498a57600080fd5b600060208284031215614caf57600080fd5b81356123e8816144fc565b7f416363657373436f6e74726f6c3a206163636f756e7420000000000000000000815260008351614cf2816017850160208801614991565b7f206973206d697373696e6720726f6c65200000000000000000000000000000006017918401918201528351614d2f816028840160208801614991565b01602801949350505050565b6020815260008251806020840152614d5a816040850160208701614991565b601f01601f19169190910160400192915050565b634e487b7160e01b600052604160045260246000fd5b600081614d9357614d93614831565b50600019019056fea2646970667358221220acf7f38a0b3e4354c8b15229bf3de106288ed704d0304f1f0ab4f0a5e76dc0c664736f6c63430008130033",
  "devdoc": {
    "author": "The Swarm Authors",
    "details": "Implements a Schelling Co-ordination game to form consensus around the Reserve Commitment hash. This takes place in three phases: _commit_, _reveal_ and _claim_. A node, upon establishing that it _isParticipatingInUpcomingRound_, i.e. it's overlay falls within proximity order of its reported depth with the _currentRoundAnchor_, prepares a \"reserve commitment hash\" using the chunks it currently stores in its reserve and calculates the \"storage depth\" (see Bee for details). These values, if calculated honestly, and with the right chunks stored, should be the same for every node in a neighbourhood. This is the Schelling point. Each eligible node can then use these values, together with a random, single use, secret  _revealNonce_ and their _overlay_ as the pre-image values for the obsfucated _commit_, using the _wrapCommit_ method. Once the _commit_ round has elapsed, participating nodes must provide the values used to calculate their obsfucated _commit_ hash, which, once verified for correctness and proximity to the anchor are retained in the _currentReveals_. Nodes that have committed but do not reveal the correct values used to create the pre-image will have their stake \"frozen\" for a period of rounds proportional to their reported depth. During the _reveal_ round, randomness is updated after every successful reveal. Once the reveal round is concluded, the _currentRoundAnchor_ is updated and users can determine if they will be eligible their overlay will be eligible for the next commit phase using _isParticipatingInUpcomingRound_. When the _reveal_ phase has been concluded, the claim phase can begin. At this point, the truth teller and winner are already determined. By calling _isWinner_, an applicant node can run the relevant logic to determine if they have been selected as the beneficiary of this round. When calling _claim_, the current pot from the PostageStamp contract is withdrawn and transferred to that beneficiaries address. Nodes that have revealed values that differ from the truth, have their stakes \"frozen\" for a period of rounds proportional to their reported depth.",
    "events": {
      "ChunkCount(uint256)": {
        "details": "Emit from Postagestamp contract valid chunk count at the end of claim"
      },
      "Committed(uint256,bytes32,uint8)": {
        "details": "Logs that an overlay has committed"
      },
      "CountCommits(uint256)": {
        "details": "Emits the number of commits being processed by the claim phase."
      },
      "CountReveals(uint256)": {
        "details": "Emits the number of reveals being processed by the claim phase."
      },
      "CurrentRevealAnchor(uint256,bytes32)": {
        "details": "Bytes32 anhor of current reveal round"
      },
      "Paused(address)": {
        "details": "Emitted when the pause is triggered by `account`."
      },
      "PriceAdjustmentSkipped(uint16)": {
        "details": "Output external call status"
      },
      "Revealed(uint256,bytes32,uint256,uint256,bytes32,uint8)": {
        "details": "Logs that an overlay has revealed"
      },
      "RoleAdminChanged(bytes32,bytes32,bytes32)": {
        "details": "Emitted when `newAdminRole` is set as ``role``'s admin role, replacing `previousAdminRole` `DEFAULT_ADMIN_ROLE` is the starting admin for all roles, despite {RoleAdminChanged} not being emitted signaling this. _Available since v3.1._"
      },
      "RoleGranted(bytes32,address,address)": {
        "details": "Emitted when `account` is granted `role`. `sender` is the account that originated the contract call, an admin role bearer except when using {AccessControl-_setupRole}."
      },
      "RoleRevoked(bytes32,address,address)": {
        "details": "Emitted when `account` is revoked `role`. `sender` is the account that originated the contract call:   - if using `revokeRole`, it is the admin role bearer   - if using `renounceRole`, it is the role bearer (i.e. `account`)"
      },
      "TruthSelected(bytes32,uint8)": {
        "details": "Emitted when the truth oracle of a round is selected in the claim phase."
      },
      "Unpaused(address)": {
        "details": "Emitted when the pause is lifted by `account`."
      },
      "WinnerSelected((bytes32,address,uint8,uint256,uint256,bytes32))": {
        "details": "Emitted when the winner of a round is selected in the claim phase"
      },
      "WithdrawFailed(address)": {
        "details": "Withdraw not successful in claim"
      },
      "transformedChunkAddressFromInclusionProof(uint256,bytes32)": {
        "details": "Logs for inclusion proof"
      }
    },
    "kind": "dev",
    "methods": {
      "commit(bytes32,uint64)": {
        "details": "If a node's overlay is _inProximity_(_depth_) of the _currentRoundAnchor_, that node may compute an _obfuscatedHash_ by providing their _overlay_, reported storage _depth_, reserve commitment _hash_ and a randomly generated, and secret _revealNonce_ to the _wrapCommit_ method.",
        "params": {
          "_obfuscatedHash": "The calculated hash resultant of the required pre-image values. and be derived from the same key pair as the message sender.",
          "_roundNumber": "Node needs to provide round number for which commit is valid"
        }
      },
      "constructor": {
        "params": {
          "oracleContract": "the address of the linked PriceOracle contract.",
          "postageContract": "the address of the linked PostageStamp contract.",
          "roundLength": "the length of a round in blocks (e.g., 152 for 5s blocks, 380 for 2s blocks).",
          "staking": "the address of the linked Staking contract."
        }
      },
      "currentRoundAnchor()": {
        "details": "A node must be within proximity order of less than or equal to the storage depth they intend to report."
      },
      "getRoleAdmin(bytes32)": {
        "details": "Returns the admin role that controls `role`. See {grantRole} and {revokeRole}. To change a role's admin, use {_setRoleAdmin}."
      },
      "grantRole(bytes32,address)": {
        "details": "Grants `role` to `account`. If `account` had not been already granted `role`, emits a {RoleGranted} event. Requirements: - the caller must have ``role``'s admin role. May emit a {RoleGranted} event."
      },
      "hasRole(bytes32,address)": {
        "details": "Returns `true` if `account` has been granted `role`."
      },
      "inProximity(bytes32,bytes32,uint8)": {
        "params": {
          "A": "An overlay address to compare.",
          "B": "An overlay address to compare.",
          "minimum": "Minimum proximity order."
        }
      },
      "isParticipatingInUpcomingRound(address,uint8)": {
        "params": {
          "_depth": "The storage depth the applicant intends to report.",
          "_owner": "The address of the applicant from."
        }
      },
      "isWinner(bytes32)": {
        "params": {
          "_overlay": "The overlay address of the applicant."
        }
      },
      "pause()": {
        "details": "Pause the contract. The contract is provably stopped by renouncing the pauser role and the admin role after pausing, can only be called by the `PAUSER`"
      },
      "paused()": {
        "details": "Returns true if the contract is paused, and false otherwise."
      },
      "renounceRole(bytes32,address)": {
        "details": "Revokes `role` from the calling account. Roles are often managed via {grantRole} and {revokeRole}: this function's purpose is to provide a mechanism for accounts to lose their privileges if they are compromised (such as when a trusted device is misplaced). If the calling account had been revoked `role`, emits a {RoleRevoked} event. Requirements: - the caller must be `account`. May emit a {RoleRevoked} event."
      },
      "reveal(uint8,bytes32,bytes32)": {
        "params": {
          "_depth": "The reported depth.",
          "_hash": "The reserve commitment hash.",
          "_revealNonce": "The nonce used to generate the commit that is being revealed."
        }
      },
      "revokeRole(bytes32,address)": {
        "details": "Revokes `role` from `account`. If `account` had been granted `role`, emits a {RoleRevoked} event. Requirements: - the caller must have ``role``'s admin role. May emit a {RoleRevoked} event."
      },
      "supportsInterface(bytes4)": {
        "details": "See {IERC165-supportsInterface}."
      },
      "unPause()": {
        "details": "Unpause the contract, can only be called by the pauser when paused"
      },
      "wrapCommit(bytes32,uint8,bytes32,bytes32)": {
        "details": "_revealNonce_ must be randomly generated, used once and kept secret until the reveal phase.",
        "params": {
          "_depth": "The reported depth.",
          "_hash": "The reserve commitment hash.",
          "_overlay": "The overlay address of the applicant.",
          "revealNonce": "A random, single use, secret nonce."
        }
      }
    },
    "title": "Redistribution contract",
    "version": 1
  },
  "userdoc": {
    "kind": "user",
    "methods": {
      "claim((bytes32[],bytes32,bytes32[],bytes32,uint64,bytes32[],(bytes,bytes32,uint64,uint64),(address,bytes,bytes32,bytes32)[]),(bytes32[],bytes32,bytes32[],bytes32,uint64,bytes32[],(bytes,bytes32,uint64,uint64),(address,bytes,bytes32,bytes32)[]),(bytes32[],bytes32,bytes32[],bytes32,uint64,bytes32[],(bytes,bytes32,uint64,uint64),(address,bytes,bytes32,bytes32)[]))": {
        "notice": "Helper function to get this round truth"
      },
      "commit(bytes32,uint64)": {
        "notice": "Begin application for a round if eligible. Commit a hashed value for which the pre-image will be subsequently revealed."
      },
      "currentMinimumDepth()": {
        "notice": "Returns minimum depth reveal has to have to participate in this round"
      },
      "currentPhaseClaim()": {
        "notice": "Returns true if current block is during claim phase."
      },
      "currentPhaseCommit()": {
        "notice": "Returns true if current block is during commit phase."
      },
      "currentPhaseReveal()": {
        "notice": "Returns true if current block is during reveal phase."
      },
      "currentRound()": {
        "notice": "The number of the current round."
      },
      "currentRoundAnchor()": {
        "notice": "The anchor used to determine eligibility for the current round."
      },
      "currentRoundReveals()": {
        "notice": "Returns true if current block is during reveal phase."
      },
      "currentSeed()": {
        "notice": "Returns the current random seed which is used to determine later utilised random numbers. If rounds have elapsed without reveals, hash the seed with an incremented nonce to produce a new random seed and hence a new round anchor."
      },
      "inProximity(bytes32,bytes32,uint8)": {
        "notice": "Returns true if an overlay address _A_ is within proximity order _minimum_ of _B_."
      },
      "isParticipatingInUpcomingRound(address,uint8)": {
        "notice": "Determine if a the owner of a given overlay can participate in the upcoming round."
      },
      "isWinner(bytes32)": {
        "notice": "Determine if a the owner of a given overlay will be the beneficiary of the claim phase."
      },
      "nextSeed()": {
        "notice": "Returns the seed which will become current once the next commit phase begins. Used to determine what the next round's anchor will be."
      },
      "reveal(uint8,bytes32,bytes32)": {
        "notice": "Reveal the pre-image values used to generate commit provided during this round's commit phase."
      },
      "setFreezingParams(uint8,uint8,uint8)": {
        "notice": "Set freezing parameters"
      },
      "setSampleMaxValue(uint256)": {
        "notice": "changes the max sample value used for reserve estimation"
      },
      "wrapCommit(bytes32,uint8,bytes32,bytes32)": {
        "notice": "Hash the pre-image values to the obsfucated hash."
      }
    },
    "version": 1
  },
  "storageLayout": {
    "storage": [
      {
        "astId": 24,
        "contract": "src/Redistribution.sol:Redistribution",
        "label": "_roles",
        "offset": 0,
        "slot": "0",
        "type": "t_mapping(t_bytes32,t_struct(RoleData)19_storage)"
      },
      {
        "astId": 556,
        "contract": "src/Redistribution.sol:Redistribution",
        "label": "_paused",
        "offset": 0,
        "slot": "1",
        "type": "t_bool"
      },
      {
        "astId": 7308,
        "contract": "src/Redistribution.sol:Redistribution",
        "label": "PostageContract",
        "offset": 1,
        "slot": "1",
        "type": "t_contract(IPostageStamp)11394"
      },
      {
        "astId": 7311,
        "contract": "src/Redistribution.sol:Redistribution",
        "label": "OracleContract",
        "offset": 0,
        "slot": "2",
        "type": "t_contract(IPriceOracle)7188"
      },
      {
        "astId": 7314,
        "contract": "src/Redistribution.sol:Redistribution",
        "label": "Stakes",
        "offset": 0,
        "slot": "3",
        "type": "t_contract(IStakeRegistry)7231"
      },
      {
        "astId": 7318,
        "contract": "src/Redistribution.sol:Redistribution",
        "label": "currentCommits",
        "offset": 0,
        "slot": "4",
        "type": "t_array(t_struct(Commit)7251_storage)dyn_storage"
      },
      {
        "astId": 7322,
        "contract": "src/Redistribution.sol:Redistribution",
        "label": "currentReveals",
        "offset": 0,
        "slot": "5",
        "type": "t_array(t_struct(Reveal)7264_storage)dyn_storage"
      },
      {
        "astId": 7324,
        "contract": "src/Redistribution.sol:Redistribution",
        "label": "currentRevealRoundAnchor",
        "offset": 0,
        "slot": "6",
        "type": "t_bytes32"
      },
      {
        "astId": 7326,
        "contract": "src/Redistribution.sol:Redistribution",
        "label": "seed",
        "offset": 0,
        "slot": "7",
        "type": "t_bytes32"
      },
      {
        "astId": 7328,
        "contract": "src/Redistribution.sol:Redistribution",
        "label": "currentCommitRound",
        "offset": 0,
        "slot": "8",
        "type": "t_uint64"
      },
      {
        "astId": 7330,
        "contract": "src/Redistribution.sol:Redistribution",
        "label": "currentRevealRound",
        "offset": 8,
        "slot": "8",
        "type": "t_uint64"
      },
      {
        "astId": 7332,
        "contract": "src/Redistribution.sol:Redistribution",
        "label": "currentClaimRound",
        "offset": 16,
        "slot": "8",
        "type": "t_uint64"
      },
      {
        "astId": 7335,
        "contract": "src/Redistribution.sol:Redistribution",
        "label": "penaltyMultiplierDisagreement",
        "offset": 24,
        "slot": "8",
        "type": "t_uint8"
      },
      {
        "astId": 7338,
        "contract": "src/Redistribution.sol:Redistribution",
        "label": "penaltyMultiplierNonRevealed",
        "offset": 25,
        "slot": "8",
        "type": "t_uint8"
      },
      {
        "astId": 7341,
        "contract": "src/Redistribution.sol:Redistribution",
        "label": "penaltyRandomFactor",
        "offset": 26,
        "slot": "8",
        "type": "t_uint8"
      },
      {
        "astId": 7344,
        "contract": "src/Redistribution.sol:Redistribution",
        "label": "sampleMaxValue",
        "offset": 0,
        "slot": "9",
        "type": "t_uint256"
      },
      {
        "astId": 7347,
        "contract": "src/Redistribution.sol:Redistribution",
        "label": "winner",
        "offset": 0,
        "slot": "10",
        "type": "t_struct(Reveal)7264_storage"
      }
    ],
    "types": {
      "t_address": {
        "encoding": "inplace",
        "label": "address",
        "numberOfBytes": "20"
      },
      "t_array(t_struct(Commit)7251_storage)dyn_storage": {
        "base": "t_struct(Commit)7251_storage",
        "encoding": "dynamic_array",
        "label": "struct Redistribution.Commit[]",
        "numberOfBytes": "32"
      },
      "t_array(t_struct(Reveal)7264_storage)dyn_storage": {
        "base": "t_struct(Reveal)7264_storage",
        "encoding": "dynamic_array",
        "label": "struct Redistribution.Reveal[]",
        "numberOfBytes": "32"
      },
      "t_bool": {
        "encoding": "inplace",
        "label": "bool",
        "numberOfBytes": "1"
      },
      "t_bytes32": {
        "encoding": "inplace",
        "label": "bytes32",
        "numberOfBytes": "32"
      },
      "t_contract(IPostageStamp)11394": {
        "encoding": "inplace",
        "label": "contract IPostageStamp",
        "numberOfBytes": "20"
      },
      "t_contract(IPriceOracle)7188": {
        "encoding": "inplace",
        "label": "contract IPriceOracle",
        "numberOfBytes": "20"
      },
      "t_contract(IStakeRegistry)7231": {
        "encoding": "inplace",
        "label": "contract IStakeRegistry",
        "numberOfBytes": "20"
      },
      "t_mapping(t_address,t_bool)": {
        "encoding": "mapping",
        "key": "t_address",
        "label": "mapping(address => bool)",
        "numberOfBytes": "32",
        "value": "t_bool"
      },
      "t_mapping(t_bytes32,t_struct(RoleData)19_storage)": {
        "encoding": "mapping",
        "key": "t_bytes32",
        "label": "mapping(bytes32 => struct AccessControl.RoleData)",
        "numberOfBytes": "32",
        "value": "t_struct(RoleData)19_storage"
      },
      "t_struct(Commit)7251_storage": {
        "encoding": "inplace",
        "label": "struct Redistribution.Commit",
        "members": [
          {
            "astId": 7238,
            "contract": "src/Redistribution.sol:Redistribution",
            "label": "overlay",
            "offset": 0,
            "slot": "0",
            "type": "t_bytes32"
          },
          {
            "astId": 7240,
            "contract": "src/Redistribution.sol:Redistribution",
            "label": "owner",
            "offset": 0,
            "slot": "1",
            "type": "t_address"
          },
          {
            "astId": 7242,
            "contract": "src/Redistribution.sol:Redistribution",
            "label": "revealed",
            "offset": 20,
            "slot": "1",
            "type": "t_bool"
          },
          {
            "astId": 7244,
            "contract": "src/Redistribution.sol:Redistribution",
            "label": "height",
            "offset": 21,
            "slot": "1",
            "type": "t_uint8"
          },
          {
            "astId": 7246,
            "contract": "src/Redistribution.sol:Redistribution",
            "label": "stake",
            "offset": 0,
            "slot": "2",
            "type": "t_uint256"
          },
          {
            "astId": 7248,
            "contract": "src/Redistribution.sol:Redistribution",
            "label": "obfuscatedHash",
            "offset": 0,
            "slot": "3",
            "type": "t_bytes32"
          },
          {
            "astId": 7250,
            "contract": "src/Redistribution.sol:Redistribution",
            "label": "revealIndex",
            "offset": 0,
            "slot": "4",
            "type": "t_uint256"
          }
        ],
        "numberOfBytes": "160"
      },
      "t_struct(Reveal)7264_storage": {
        "encoding": "inplace",
        "label": "struct Redistribution.Reveal",
        "members": [
          {
            "astId": 7253,
            "contract": "src/Redistribution.sol:Redistribution",
            "label": "overlay",
            "offset": 0,
            "slot": "0",
            "type": "t_bytes32"
          },
          {
            "astId": 7255,
            "contract": "src/Redistribution.sol:Redistribution",
            "label": "owner",
            "offset": 0,
            "slot": "1",
            "type": "t_address"
          },
          {
            "astId": 7257,
            "contract": "src/Redistribution.sol:Redistribution",
            "label": "depth",
            "offset": 20,
            "slot": "1",
            "type": "t_uint8"
          },
          {
            "astId": 7259,
            "contract": "src/Redistribution.sol:Redistribution",
            "label": "stake",
            "offset": 0,
            "slot": "2",
            "type": "t_uint256"
          },
          {
            "astId": 7261,
            "contract": "src/Redistribution.sol:Redistribution",
            "label": "stakeDensity",
            "offset": 0,
            "slot": "3",
            "type": "t_uint256"
          },
          {
            "astId": 7263,
            "contract": "src/Redistribution.sol:Redistribution",
            "label": "hash",
            "offset": 0,
            "slot": "4",
            "type": "t_bytes32"
          }
        ],
        "numberOfBytes": "160"
      },
      "t_struct(RoleData)19_storage": {
        "encoding": "inplace",
        "label": "struct AccessControl.RoleData",
        "members": [
          {
            "astId": 16,
            "contract": "src/Redistribution.sol:Redistribution",
            "label": "members",
            "offset": 0,
            "slot": "0",
            "type": "t_mapping(t_address,t_bool)"
          },
          {
            "astId": 18,
            "contract": "src/Redistribution.sol:Redistribution",
            "label": "adminRole",
            "offset": 0,
            "slot": "1",
            "type": "t_bytes32"
          }
        ],
        "numberOfBytes": "64"
      },
      "t_uint256": {
        "encoding": "inplace",
        "label": "uint256",
        "numberOfBytes": "32"
      },
      "t_uint64": {
        "encoding": "inplace",
        "label": "uint64",
        "numberOfBytes": "8"
      },
      "t_uint8": {
        "encoding": "inplace",
        "label": "uint8",
        "numberOfBytes": "1"
      }
    }
  }
}