{
  "address": "0x7DEBd673F74820EA458cA0617e7d1e7b9c2E3A0b",
  "abi": [
    {
      "inputs": [
        {
          "internalType": "address",
          "name": "_postageStamp",
          "type": "address"
        },
        {
          "internalType": "address",
          "name": "multisig",
          "type": "address"
        }
      ],
      "stateMutability": "nonpayable",
      "type": "constructor"
    },
    {
      "inputs": [],
      "name": "CallerNotAdmin",
      "type": "error"
    },
    {
      "inputs": [],
      "name": "CallerNotPriceUpdater",
      "type": "error"
    },
    {
      "inputs": [],
      "name": "PriceAlreadyAdjusted",
      "type": "error"
    },
    {
      "inputs": [],
      "name": "UnexpectedZero",
      "type": "error"
    },
    {
      "anonymous": false,
      "inputs": [
        {
          "indexed": false,
          "internalType": "uint256",
          "name": "price",
          "type": "uint256"
        }
      ],
      "name": "PriceUpdate",
      "type": "event"
    },
    {
      "anonymous": false,
      "inputs": [
        {
          "indexed": true,
          "internalType": "bytes32",
          "name": "role",
          "type": "bytes32"
        },
        {
          "indexed": true,
          "internalType": "bytes32",
          "name": "previousAdminRole",
          "type": "bytes32"
        },
        {
          "indexed": true,
          "internalType": "bytes32",
          "name": "newAdminRole",
          "type": "bytes32"
        }
      ],
      "name": "RoleAdminChanged",
      "type": "event"
    },
    {
      "anonymous": false,
      "inputs": [
        {
          "indexed": true,
          "internalType": "bytes32",
          "name": "role",
          "type": "bytes32"
        },
        {
          "indexed": true,
          "internalType": "address",
          "name": "account",
          "type": "address"
        },
        {
          "indexed": true,
          "internalType": "address",
          "name": "sender",
          "type": "address"
        }
      ],
      "name": "RoleGranted",
      "type": "event"
    },
    {
      "anonymous": false,
      "inputs": [
        {
          "indexed": true,
          "internalType": "bytes32",
          "name": "role",
          "type": "bytes32"
        },
        {
          "indexed": true,
          "internalType": "address",
          "name": "account",
          "type": "address"
        },
        {
          "indexed": true,
          "internalType": "address",
          "name": "sender",
          "type": "address"
        }
      ],
      "name": "RoleRevoked",
      "type": "event"
    },
    {
      "inputs": [],
      "name": "DEFAULT_ADMIN_ROLE",
      "outputs": [
        {
          "internalType": "bytes32",
          "name": "",
          "type": "bytes32"
        }
      ],
      "stateMutability": "view",
      "type": "function"
    },
    {
      "inputs": [],
      "name": "PRICE_UPDATER_ROLE",
      "outputs": [
        {
          "internalType": "bytes32",
          "name": "",
          "type": "bytes32"
        }
      ],
      "stateMutability": "view",
      "type": "function"
    },
    {
      "inputs": [
        {
          "internalType": "uint16",
          "name": "redundancy",
          "type": "uint16"
        }
      ],
      "name": "adjustPrice",
      "outputs": [],
      "stateMutability": "nonpayable",
      "type": "function"
    },
    {
      "inputs": [
        {
          "internalType": "uint256",
          "name": "",
          "type": "uint256"
        }
      ],
      "name": "changeRate",
      "outputs": [
        {
          "internalType": "uint32",
          "name": "",
          "type": "uint32"
        }
      ],
      "stateMutability": "view",
      "type": "function"
    },
    {
      "inputs": [],
      "name": "currentPrice",
      "outputs": [
        {
          "internalType": "uint32",
          "name": "",
          "type": "uint32"
        }
      ],
      "stateMutability": "view",
      "type": "function"
    },
    {
      "inputs": [],
      "name": "currentRound",
      "outputs": [
        {
          "internalType": "uint64",
          "name": "",
          "type": "uint64"
        }
      ],
      "stateMutability": "view",
      "type": "function"
    },
    {
      "inputs": [
        {
          "internalType": "bytes32",
          "name": "role",
          "type": "bytes32"
        }
      ],
      "name": "getRoleAdmin",
      "outputs": [
        {
          "internalType": "bytes32",
          "name": "",
          "type": "bytes32"
        }
      ],
      "stateMutability": "view",
      "type": "function"
    },
    {
      "inputs": [
        {
          "internalType": "bytes32",
          "name": "role",
          "type": "bytes32"
        },
        {
          "internalType": "address",
          "name": "account",
          "type": "address"
        }
      ],
      "name": "grantRole",
      "outputs": [],
      "stateMutability": "nonpayable",
      "type": "function"
    },
    {
      "inputs": [
        {
          "internalType": "bytes32",
          "name": "role",
          "type": "bytes32"
        },
        {
          "internalType": "address",
          "name": "account",
          "type": "address"
        }
      ],
      "name": "hasRole",
      "outputs": [
        {
          "internalType": "bool",
          "name": "",
          "type": "bool"
        }
      ],
      "stateMutability": "view",
      "type": "function"
    },
    {
      "inputs": [],
      "name": "isPaused",
      "outputs": [
        {
          "internalType": "bool",
          "name": "",
          "type": "bool"
        }
      ],
      "stateMutability": "view",
      "type": "function"
    },
    {
      "inputs": [],
      "name": "lastAdjustedRound",
      "outputs": [
        {
          "internalType": "uint64",
          "name": "",
          "type": "uint64"
        }
      ],
      "stateMutability": "view",
      "type": "function"
    },
    {
      "inputs": [],
      "name": "minimumPrice",
      "outputs": [
        {
          "internalType": "uint32",
          "name": "",
          "type": "uint32"
        }
      ],
      "stateMutability": "view",
      "type": "function"
    },
    {
      "inputs": [],
      "name": "pause",
      "outputs": [],
      "stateMutability": "nonpayable",
      "type": "function"
    },
    {
      "inputs": [],
      "name": "postageStamp",
      "outputs": [
        {
          "internalType": "contract IPostageStamp",
          "name": "",
          "type": "address"
        }
      ],
      "stateMutability": "view",
      "type": "function"
    },
    {
      "inputs": [],
      "name": "priceBase",
      "outputs": [
        {
          "internalType": "uint32",
          "name": "",
          "type": "uint32"
        }
      ],
      "stateMutability": "view",
      "type": "function"
    },
    {
      "inputs": [
        {
          "internalType": "bytes32",
          "name": "role",
          "type": "bytes32"
        },
        {
          "internalType": "address",
          "name": "account",
          "type": "address"
        }
      ],
      "name": "renounceRole",
      "outputs": [],
      "stateMutability": "nonpayable",
      "type": "function"
    },
    {
      "inputs": [
        {
          "internalType": "bytes32",
          "name": "role",
          "type": "bytes32"
        },
        {
          "internalType": "address",
          "name": "account",
          "type": "address"
        }
      ],
      "name": "revokeRole",
      "outputs": [],
      "stateMutability": "nonpayable",
      "type": "function"
    },
    {
      "inputs": [
        {
          "internalType": "uint32",
          "name": "_price",
          "type": "uint32"
        }
      ],
      "name": "setPrice",
      "outputs": [],
      "stateMutability": "nonpayable",
      "type": "function"
    },
    {
      "inputs": [
        {
          "internalType": "bytes4",
          "name": "interfaceId",
          "type": "bytes4"
        }
      ],
      "name": "supportsInterface",
      "outputs": [
        {
          "internalType": "bool",
          "name": "",
          "type": "bool"
        }
      ],
      "stateMutability": "view",
      "type": "function"
    },
    {
      "inputs": [],
      "name": "unPause",
      "outputs": [],
      "stateMutability": "nonpayable",
      "type": "function"
    }
  ],
  "transactionHash": "0xbc2f72ce98944b35599dedbb77b1dd0ca6ad8869404c76e0c8b50700c258bcb8",
  "args": [
    "0xacC8b5bd78C5D9157bC663476A895dbc61dc128e",
    "0xb1C7F17Ed88189Abf269Bf68A3B2Ed83C5276aAe"
  ],
  "numDeployments": 3,
  "solcInputHash": "9758e9c39f361b3b1fd3a5ce37a22cb8",
  "bytecode": "0x60018054634001000160a21b64ffffffffff60a01b199091161790556002805463fffffc0068010000000000000000600160801b6e08000000005dc00000000000000000600160401b600160801b03198516811783900463ffffffff1691909102600160401b600160a01b031990941693909317909217918204600a1b16600160a01b0263ffffffff60a01b19919091161790556101c06040526208002460a09081526208001b60c0526208001260e052620800096101005262080000610120526207fff7610140526207ffee610160526207ffe5610180526207ffdc6101a052620000f090600390600962000263565b50348015620000fe57600080fd5b50604051620015f6380380620015f6833981016040819052620001219162000339565b6200012e6000826200019f565b600180546001600160a01b0319166001600160a01b03841617905562000153620001af565b600280546001600160401b0319166001600160401b039290921691909117905550507fd96ba01d6560c2ab35f2940dd8d70c5f5fe06236c72674237120515918198fb060805262000394565b620001ab8282620001c3565b5050565b6000620001be60984362000371565b905090565b6000828152602081815260408083206001600160a01b038516845290915290205460ff16620001ab576000828152602081815260408083206001600160a01b03851684529091529020805460ff191660011790556200021f3390565b6001600160a01b0316816001600160a01b0316837f2f8788117e7eff1d82e926ec794901d17c78024a50270940304540a733656f0d60405160405180910390a45050565b600283019183908215620002f35791602002820160005b83821115620002bf57835183826101000a81548163ffffffff021916908362ffffff16021790555092602001926004016020816003010492830192600103026200027a565b8015620002f15782816101000a81549063ffffffff0219169055600401602081600301049283019260010302620002bf565b505b506200030192915062000305565b5090565b5b8082111562000301576000815560010162000306565b80516001600160a01b03811681146200033457600080fd5b919050565b600080604083850312156200034d57600080fd5b62000358836200031c565b915062000368602084016200031c565b90509250929050565b6000826200038f57634e487b7160e01b600052601260045260246000fd5b500490565b60805161123f620003b76000396000818161035b015261078f015261123f6000f3fe608060405234801561001057600080fd5b506004361061016c5760003560e01c806391d14854116100cd578063daafe0a511610081578063f7b188a511610066578063f7b188a51461034e578063fb8d810114610356578063ffb98fe31461037d57600080fd5b8063daafe0a514610310578063e0632c641461032357600080fd5b8063a217fddf116100b2578063a217fddf146102e1578063b187bd26146102e9578063d547741f146102fd57600080fd5b806391d14854146102935780639d1b464a146102ca57600080fd5b80637310561b116101245780637f386b6c116101095780637f386b6c146102675780638456cb59146102835780638a19c8bc1461028b57600080fd5b80637310561b1461021f57806374e7493b1461025457600080fd5b80632f2ff15d116101555780632f2ff15d146101ca57806336568abe146101df57806355bdcd23146101f257600080fd5b806301ffc9a714610171578063248a9ca314610199575b600080fd5b61018461017f366004610ee6565b610390565b60405190151581526020015b60405180910390f35b6101bc6101a7366004610f28565b60009081526020819052604090206001015490565b604051908152602001610190565b6101dd6101d8366004610f41565b610429565b005b6101dd6101ed366004610f41565b610453565b6002546102069067ffffffffffffffff1681565b60405167ffffffffffffffff9091168152602001610190565b60025461023f906c01000000000000000000000000900463ffffffff1681565b60405163ffffffff9091168152602001610190565b61023f610262366004610f28565b6104e4565b60025461023f9068010000000000000000900463ffffffff1681565b6101dd610514565b610206610578565b6101846102a1366004610f41565b6000918252602082815260408084206001600160a01b0393909316845291905290205460ff1690565b60025461023f90600160801b900463ffffffff1681565b6101bc600081565b60015461018490600160c01b900460ff1681565b6101dd61030b366004610f41565b61058a565b6101dd61031e366004610f7d565b6105af565b600154610336906001600160a01b031681565b6040516001600160a01b039091168152602001610190565b6101dd610719565b6101bc7f000000000000000000000000000000000000000000000000000000000000000081565b6101dd61038b366004610fa3565b610777565b60007fffffffff0000000000000000000000000000000000000000000000000000000082167f7965db0b00000000000000000000000000000000000000000000000000000000148061042357507f01ffc9a7000000000000000000000000000000000000000000000000000000007fffffffff000000000000000000000000000000000000000000000000000000008316145b92915050565b60008281526020819052604090206001015461044481610b52565b61044e8383610b5c565b505050565b6001600160a01b03811633146104d65760405162461bcd60e51b815260206004820152602f60248201527f416363657373436f6e74726f6c3a2063616e206f6e6c792072656e6f756e636560448201527f20726f6c657320666f722073656c66000000000000000000000000000000000060648201526084015b60405180910390fd5b6104e08282610bfa565b5050565b600381600981106104f457600080fd5b60089182820401919006600402915054906101000a900463ffffffff1681565b3360009081527fad3228b676f7d3cd4284a5443f17f1962b36e491b30a40b2405849e597ba5fb5602052604090205460ff166105635760405163036c8cf960e11b815260040160405180910390fd5b6001805460ff60c01b1916600160c01b179055565b6000610585609843610ff3565b905090565b6000828152602081905260409020600101546105a581610b52565b61044e8383610bfa565b3360009081527fad3228b676f7d3cd4284a5443f17f1962b36e491b30a40b2405849e597ba5fb5602052604090205460ff166105fe5760405163036c8cf960e11b815260040160405180910390fd5b600254819063ffffffff680100000000000000009091048116908216811115610625578091505b600280547fffffffffffffffff0000000000000000ffffffffffffffffffffffffffffffff16600160801b63ffffffff851690810263ffffffff60a01b191691909117600160a01b600a86901b63fffffc001602179091556001546040516391b7f5ed60e01b815260048101929092526001600160a01b0316906391b7f5ed90602401600060405180830381600087803b1580156106c257600080fd5b505af11580156106d6573d6000803e3d6000fd5b505060405163ffffffff851681527fae46785019700e30375a5d7b4f91e32f8060ef085111f896ebf889450aa2ab5a9250602001905060405180910390a1505050565b3360009081527fad3228b676f7d3cd4284a5443f17f1962b36e491b30a40b2405849e597ba5fb5602052604090205460ff166107685760405163036c8cf960e11b815260040160405180910390fd5b6001805460ff60c01b19169055565b600154600160c01b900460ff161515600003610b4f577f000000000000000000000000000000000000000000000000000000000000000060009081526020818152604080832033845290915290205460ff166107ff576040517f262791ec00000000000000000000000000000000000000000000000000000000815260040160405180910390fd5b80600061080a610578565b60025490915067ffffffffffffffff90811690821611610856576040517f08a5cb4c00000000000000000000000000000000000000000000000000000000815260040160405180910390fd5b8261ffff16600003610894576040517fb5ca2d7100000000000000000000000000000000000000000000000000000000815260040160405180910390fd5b6001546000906108cb9061ffff7601000000000000000000000000000000000000000000008204811691600160a01b900416611007565b90508061ffff168461ffff1611156108e1578092505b60025463ffffffff600160801b82048116916801000000000000000081048216916c010000000000000000000000008204811691600160a01b81049091169060009060019061093a9067ffffffffffffffff1689611029565b6109449190611029565b9050600060038961ffff166009811061095f5761095f61104a565b60088104919091015460079091166004026101000a900463ffffffff9081169150841661098c8483611060565b610996919061108c565b925067ffffffffffffffff821615610a0a575060035463ffffffff1660005b8267ffffffffffffffff168167ffffffffffffffff161015610a08578463ffffffff16848363ffffffff166109ea9190611060565b6109f4919061108c565b935080610a00816110b3565b9150506109b5565b505b623fffff600a84901c16955063ffffffff8516861015610a3b57849550600a8563ffffffff16901b63ffffffff1692505b600280547fffffffffffffffff0000000000000000ffffffffffffffffffffffffffffffff16600160801b63ffffffff89811691820263ffffffff60a01b191692909217600160a01b92871692909202919091179091556001546040516391b7f5ed60e01b815260048101929092526001600160a01b0316906391b7f5ed90602401600060405180830381600087803b158015610ad757600080fd5b505af1158015610aeb573d6000803e3d6000fd5b50506002805467ffffffffffffffff191667ffffffffffffffff8c16179055505060405163ffffffff871681527fae46785019700e30375a5d7b4f91e32f8060ef085111f896ebf889450aa2ab5a9060200160405180910390a15050505050505050505b50565b610b4f8133610c79565b6000828152602081815260408083206001600160a01b038516845290915290205460ff166104e0576000828152602081815260408083206001600160a01b03851684529091529020805460ff19166001179055610bb63390565b6001600160a01b0316816001600160a01b0316837f2f8788117e7eff1d82e926ec794901d17c78024a50270940304540a733656f0d60405160405180910390a45050565b6000828152602081815260408083206001600160a01b038516845290915290205460ff16156104e0576000828152602081815260408083206001600160a01b0385168085529252808320805460ff1916905551339285917ff6391f5c32d9c69d2a47ea670b442974b53935d1edc7fd64eb21e047a839171b9190a45050565b6000828152602081815260408083206001600160a01b038516845290915290205460ff166104e057610caa81610cec565b610cb5836020610cfe565b604051602001610cc69291906110fe565b60408051601f198184030181529082905262461bcd60e51b82526104cd9160040161117f565b60606104236001600160a01b03831660145b60606000610d0d8360026111b2565b610d189060026111c9565b67ffffffffffffffff811115610d3057610d306111dc565b6040519080825280601f01601f191660200182016040528015610d5a576020820181803683370190505b5090507f300000000000000000000000000000000000000000000000000000000000000081600081518110610d9157610d9161104a565b60200101906001600160f81b031916908160001a9053507f780000000000000000000000000000000000000000000000000000000000000081600181518110610ddc57610ddc61104a565b60200101906001600160f81b031916908160001a9053506000610e008460026111b2565b610e0b9060016111c9565b90505b6001811115610e90577f303132333435363738396162636465660000000000000000000000000000000085600f1660108110610e4c57610e4c61104a565b1a60f81b828281518110610e6257610e6261104a565b60200101906001600160f81b031916908160001a90535060049490941c93610e89816111f2565b9050610e0e565b508315610edf5760405162461bcd60e51b815260206004820181905260248201527f537472696e67733a20686578206c656e67746820696e73756666696369656e7460448201526064016104cd565b9392505050565b600060208284031215610ef857600080fd5b81357fffffffff0000000000000000000000000000000000000000000000000000000081168114610edf57600080fd5b600060208284031215610f3a57600080fd5b5035919050565b60008060408385031215610f5457600080fd5b8235915060208301356001600160a01b0381168114610f7257600080fd5b809150509250929050565b600060208284031215610f8f57600080fd5b813563ffffffff81168114610edf57600080fd5b600060208284031215610fb557600080fd5b813561ffff81168114610edf57600080fd5b634e487b7160e01b600052601260045260246000fd5b634e487b7160e01b600052601160045260246000fd5b60008261100257611002610fc7565b500490565b61ffff81811683821601908082111561102257611022610fdd565b5092915050565b67ffffffffffffffff82811682821603908082111561102257611022610fdd565b634e487b7160e01b600052603260045260246000fd5b67ffffffffffffffff81811683821602808216919082811461108457611084610fdd565b505092915050565b600067ffffffffffffffff808416806110a7576110a7610fc7565b92169190910492915050565b600067ffffffffffffffff8083168181036110d0576110d0610fdd565b6001019392505050565b60005b838110156110f55781810151838201526020016110dd565b50506000910152565b7f416363657373436f6e74726f6c3a206163636f756e74200000000000000000008152600083516111368160178501602088016110da565b7f206973206d697373696e6720726f6c652000000000000000000000000000000060179184019182015283516111738160288401602088016110da565b01602801949350505050565b602081526000825180602084015261119e8160408501602087016110da565b601f01601f19169190910160400192915050565b808202811582820484141761042357610423610fdd565b8082018082111561042357610423610fdd565b634e487b7160e01b600052604160045260246000fd5b60008161120157611201610fdd565b50600019019056fea26469706673582212200587da5e32a45d02fc30c94e6d22628549eef5a477ae2b9afed67f14bafcc09664736f6c63430008130033",
  "devdoc": {
    "author": "The Swarm Authors.",
    "details": "The price oracle contract emits a price feed using events.",
    "events": {
      "PriceUpdate(uint256)": {
        "details": "Emitted on every price update."
      },
      "RoleAdminChanged(bytes32,bytes32,bytes32)": {
        "details": "Emitted when `newAdminRole` is set as ``role``'s admin role, replacing `previousAdminRole` `DEFAULT_ADMIN_ROLE` is the starting admin for all roles, despite {RoleAdminChanged} not being emitted signaling this. _Available since v3.1._"
      },
      "RoleGranted(bytes32,address,address)": {
        "details": "Emitted when `account` is granted `role`. `sender` is the account that originated the contract call, an admin role bearer except when using {AccessControl-_setupRole}."
      },
      "RoleRevoked(bytes32,address,address)": {
        "details": "Emitted when `account` is revoked `role`. `sender` is the account that originated the contract call:   - if using `revokeRole`, it is the admin role bearer   - if using `renounceRole`, it is the role bearer (i.e. `account`)"
      }
    },
    "kind": "dev",
    "methods": {
      "getRoleAdmin(bytes32)": {
        "details": "Returns the admin role that controls `role`. See {grantRole} and {revokeRole}. To change a role's admin, use {_setRoleAdmin}."
      },
      "grantRole(bytes32,address)": {
        "details": "Grants `role` to `account`. If `account` had not been already granted `role`, emits a {RoleGranted} event. Requirements: - the caller must have ``role``'s admin role. May emit a {RoleGranted} event."
      },
      "hasRole(bytes32,address)": {
        "details": "Returns `true` if `account` has been granted `role`."
      },
      "renounceRole(bytes32,address)": {
        "details": "Revokes `role` from the calling account. Roles are often managed via {grantRole} and {revokeRole}: this function's purpose is to provide a mechanism for accounts to lose their privileges if they are compromised (such as when a trusted device is misplaced). If the calling account had been revoked `role`, emits a {RoleRevoked} event. Requirements: - the caller must be `account`. May emit a {RoleRevoked} event."
      },
      "revokeRole(bytes32,address)": {
        "details": "Revokes `role` from `account`. If `account` had been granted `role`, emits a {RoleRevoked} event. Requirements: - the caller must have ``role``'s admin role. May emit a {RoleRevoked} event."
      },
      "setPrice(uint32)": {
        "details": "Can only be called by the admin role.",
        "params": {
          "_price": "The new price."
        }
      },
      "supportsInterface(bytes4)": {
        "details": "See {IERC165-supportsInterface}."
      }
    },
    "title": "PriceOracle contract.",
    "version": 1
  },
  "userdoc": {
    "kind": "user",
    "methods": {
      "currentRound()": {
        "notice": "Return the number of the current round."
      },
      "setPrice(uint32)": {
        "notice": "Manually set the price."
      }
    },
    "version": 1
  },
  "storageLayout": {
    "storage": [
      {
        "astId": 24,
        "contract": "src/PriceOracle.sol:PriceOracle",
        "label": "_roles",
        "offset": 0,
        "slot": "0",
        "type": "t_mapping(t_bytes32,t_struct(RoleData)19_storage)"
      },
      {
        "astId": 6645,
        "contract": "src/PriceOracle.sol:PriceOracle",
        "label": "postageStamp",
        "offset": 0,
        "slot": "1",
        "type": "t_contract(IPostageStamp)10899"
      },
      {
        "astId": 6648,
        "contract": "src/PriceOracle.sol:PriceOracle",
        "label": "targetRedundancy",
        "offset": 20,
        "slot": "1",
        "type": "t_uint16"
      },
      {
        "astId": 6651,
        "contract": "src/PriceOracle.sol:PriceOracle",
        "label": "maxConsideredExtraRedundancy",
        "offset": 22,
        "slot": "1",
        "type": "t_uint16"
      },
      {
        "astId": 6654,
        "contract": "src/PriceOracle.sol:PriceOracle",
        "label": "isPaused",
        "offset": 24,
        "slot": "1",
        "type": "t_bool"
      },
      {
        "astId": 6656,
        "contract": "src/PriceOracle.sol:PriceOracle",
        "label": "lastAdjustedRound",
        "offset": 0,
        "slot": "2",
        "type": "t_uint64"
      },
      {
        "astId": 6659,
        "contract": "src/PriceOracle.sol:PriceOracle",
        "label": "minimumPrice",
        "offset": 8,
        "slot": "2",
        "type": "t_uint32"
      },
      {
        "astId": 6662,
        "contract": "src/PriceOracle.sol:PriceOracle",
        "label": "priceBase",
        "offset": 12,
        "slot": "2",
        "type": "t_uint32"
      },
      {
        "astId": 6665,
        "contract": "src/PriceOracle.sol:PriceOracle",
        "label": "currentPrice",
        "offset": 16,
        "slot": "2",
        "type": "t_uint32"
      },
      {
        "astId": 6670,
        "contract": "src/PriceOracle.sol:PriceOracle",
        "label": "currentPriceUpscaled",
        "offset": 20,
        "slot": "2",
        "type": "t_uint32"
      },
      {
        "astId": 6684,
        "contract": "src/PriceOracle.sol:PriceOracle",
        "label": "changeRate",
        "offset": 0,
        "slot": "3",
        "type": "t_array(t_uint32)9_storage"
      }
    ],
    "types": {
      "t_address": {
        "encoding": "inplace",
        "label": "address",
        "numberOfBytes": "20"
      },
      "t_array(t_uint32)9_storage": {
        "base": "t_uint32",
        "encoding": "inplace",
        "label": "uint32[9]",
        "numberOfBytes": "64"
      },
      "t_bool": {
        "encoding": "inplace",
        "label": "bool",
        "numberOfBytes": "1"
      },
      "t_bytes32": {
        "encoding": "inplace",
        "label": "bytes32",
        "numberOfBytes": "32"
      },
      "t_contract(IPostageStamp)10899": {
        "encoding": "inplace",
        "label": "contract IPostageStamp",
        "numberOfBytes": "20"
      },
      "t_mapping(t_address,t_bool)": {
        "encoding": "mapping",
        "key": "t_address",
        "label": "mapping(address => bool)",
        "numberOfBytes": "32",
        "value": "t_bool"
      },
      "t_mapping(t_bytes32,t_struct(RoleData)19_storage)": {
        "encoding": "mapping",
        "key": "t_bytes32",
        "label": "mapping(bytes32 => struct AccessControl.RoleData)",
        "numberOfBytes": "32",
        "value": "t_struct(RoleData)19_storage"
      },
      "t_struct(RoleData)19_storage": {
        "encoding": "inplace",
        "label": "struct AccessControl.RoleData",
        "members": [
          {
            "astId": 16,
            "contract": "src/PriceOracle.sol:PriceOracle",
            "label": "members",
            "offset": 0,
            "slot": "0",
            "type": "t_mapping(t_address,t_bool)"
          },
          {
            "astId": 18,
            "contract": "src/PriceOracle.sol:PriceOracle",
            "label": "adminRole",
            "offset": 0,
            "slot": "1",
            "type": "t_bytes32"
          }
        ],
        "numberOfBytes": "64"
      },
      "t_uint16": {
        "encoding": "inplace",
        "label": "uint16",
        "numberOfBytes": "2"
      },
      "t_uint32": {
        "encoding": "inplace",
        "label": "uint32",
        "numberOfBytes": "4"
      },
      "t_uint64": {
        "encoding": "inplace",
        "label": "uint64",
        "numberOfBytes": "8"
      }
    }
  }
}