{
  "address": "0x5bE9927D149E14D2171e3ACb75E1eF7CE46645AD",
  "abi": [
    {
      "inputs": [
        {
          "internalType": "address",
          "name": "_bzzToken",
          "type": "address"
        },
        {
          "internalType": "uint64",
          "name": "_NetworkId",
          "type": "uint64"
        }
      ],
      "stateMutability": "nonpayable",
      "type": "constructor"
    },
    {
      "anonymous": false,
      "inputs": [
        {
          "indexed": false,
          "internalType": "address",
          "name": "account",
          "type": "address"
        }
      ],
      "name": "Paused",
      "type": "event"
    },
    {
      "anonymous": false,
      "inputs": [
        {
          "indexed": true,
          "internalType": "bytes32",
          "name": "role",
          "type": "bytes32"
        },
        {
          "indexed": true,
          "internalType": "bytes32",
          "name": "previousAdminRole",
          "type": "bytes32"
        },
        {
          "indexed": true,
          "internalType": "bytes32",
          "name": "newAdminRole",
          "type": "bytes32"
        }
      ],
      "name": "RoleAdminChanged",
      "type": "event"
    },
    {
      "anonymous": false,
      "inputs": [
        {
          "indexed": true,
          "internalType": "bytes32",
          "name": "role",
          "type": "bytes32"
        },
        {
          "indexed": true,
          "internalType": "address",
          "name": "account",
          "type": "address"
        },
        {
          "indexed": true,
          "internalType": "address",
          "name": "sender",
          "type": "address"
        }
      ],
      "name": "RoleGranted",
      "type": "event"
    },
    {
      "anonymous": false,
      "inputs": [
        {
          "indexed": true,
          "internalType": "bytes32",
          "name": "role",
          "type": "bytes32"
        },
        {
          "indexed": true,
          "internalType": "address",
          "name": "account",
          "type": "address"
        },
        {
          "indexed": true,
          "internalType": "address",
          "name": "sender",
          "type": "address"
        }
      ],
      "name": "RoleRevoked",
      "type": "event"
    },
    {
      "anonymous": false,
      "inputs": [
        {
          "indexed": false,
          "internalType": "bytes32",
          "name": "slashed",
          "type": "bytes32"
        },
        {
          "indexed": false,
          "internalType": "uint256",
          "name": "time",
          "type": "uint256"
        }
      ],
      "name": "StakeFrozen",
      "type": "event"
    },
    {
      "anonymous": false,
      "inputs": [
        {
          "indexed": false,
          "internalType": "bytes32",
          "name": "slashed",
          "type": "bytes32"
        },
        {
          "indexed": false,
          "internalType": "uint256",
          "name": "amount",
          "type": "uint256"
        }
      ],
      "name": "StakeSlashed",
      "type": "event"
    },
    {
      "anonymous": false,
      "inputs": [
        {
          "indexed": true,
          "internalType": "bytes32",
          "name": "overlay",
          "type": "bytes32"
        },
        {
          "indexed": false,
          "internalType": "uint256",
          "name": "stakeAmount",
          "type": "uint256"
        },
        {
          "indexed": false,
          "internalType": "address",
          "name": "owner",
          "type": "address"
        },
        {
          "indexed": false,
          "internalType": "uint256",
          "name": "lastUpdatedBlock",
          "type": "uint256"
        }
      ],
      "name": "StakeUpdated",
      "type": "event"
    },
    {
      "anonymous": false,
      "inputs": [
        {
          "indexed": false,
          "internalType": "address",
          "name": "account",
          "type": "address"
        }
      ],
      "name": "Unpaused",
      "type": "event"
    },
    {
      "inputs": [],
      "name": "DEFAULT_ADMIN_ROLE",
      "outputs": [
        {
          "internalType": "bytes32",
          "name": "",
          "type": "bytes32"
        }
      ],
      "stateMutability": "view",
      "type": "function"
    },
    {
      "inputs": [],
      "name": "PAUSER_ROLE",
      "outputs": [
        {
          "internalType": "bytes32",
          "name": "",
          "type": "bytes32"
        }
      ],
      "stateMutability": "view",
      "type": "function"
    },
    {
      "inputs": [],
      "name": "REDISTRIBUTOR_ROLE",
      "outputs": [
        {
          "internalType": "bytes32",
          "name": "",
          "type": "bytes32"
        }
      ],
      "stateMutability": "view",
      "type": "function"
    },
    {
      "inputs": [],
      "name": "bzzToken",
      "outputs": [
        {
          "internalType": "address",
          "name": "",
          "type": "address"
        }
      ],
      "stateMutability": "view",
      "type": "function"
    },
    {
      "inputs": [
        {
          "internalType": "uint64",
          "name": "_NetworkId",
          "type": "uint64"
        }
      ],
      "name": "changeNetworkId",
      "outputs": [],
      "stateMutability": "nonpayable",
      "type": "function"
    },
    {
      "inputs": [
        {
          "internalType": "address",
          "name": "_owner",
          "type": "address"
        },
        {
          "internalType": "bytes32",
          "name": "nonce",
          "type": "bytes32"
        },
        {
          "internalType": "uint256",
          "name": "amount",
          "type": "uint256"
        }
      ],
      "name": "depositStake",
      "outputs": [],
      "stateMutability": "nonpayable",
      "type": "function"
    },
    {
      "inputs": [
        {
          "internalType": "bytes32",
          "name": "overlay",
          "type": "bytes32"
        },
        {
          "internalType": "uint256",
          "name": "time",
          "type": "uint256"
        }
      ],
      "name": "freezeDeposit",
      "outputs": [],
      "stateMutability": "nonpayable",
      "type": "function"
    },
    {
      "inputs": [
        {
          "internalType": "bytes32",
          "name": "role",
          "type": "bytes32"
        }
      ],
      "name": "getRoleAdmin",
      "outputs": [
        {
          "internalType": "bytes32",
          "name": "",
          "type": "bytes32"
        }
      ],
      "stateMutability": "view",
      "type": "function"
    },
    {
      "inputs": [
        {
          "internalType": "bytes32",
          "name": "role",
          "type": "bytes32"
        },
        {
          "internalType": "address",
          "name": "account",
          "type": "address"
        }
      ],
      "name": "grantRole",
      "outputs": [],
      "stateMutability": "nonpayable",
      "type": "function"
    },
    {
      "inputs": [
        {
          "internalType": "bytes32",
          "name": "role",
          "type": "bytes32"
        },
        {
          "internalType": "address",
          "name": "account",
          "type": "address"
        }
      ],
      "name": "hasRole",
      "outputs": [
        {
          "internalType": "bool",
          "name": "",
          "type": "bool"
        }
      ],
      "stateMutability": "view",
      "type": "function"
    },
    {
      "inputs": [
        {
          "internalType": "bytes32",
          "name": "overlay",
          "type": "bytes32"
        }
      ],
      "name": "lastUpdatedBlockNumberOfOverlay",
      "outputs": [
        {
          "internalType": "uint256",
          "name": "",
          "type": "uint256"
        }
      ],
      "stateMutability": "view",
      "type": "function"
    },
    {
      "inputs": [
        {
          "internalType": "bytes32",
          "name": "overlay",
          "type": "bytes32"
        }
      ],
      "name": "ownerOfOverlay",
      "outputs": [
        {
          "internalType": "address",
          "name": "",
          "type": "address"
        }
      ],
      "stateMutability": "view",
      "type": "function"
    },
    {
      "inputs": [],
      "name": "pause",
      "outputs": [],
      "stateMutability": "nonpayable",
      "type": "function"
    },
    {
      "inputs": [],
      "name": "paused",
      "outputs": [
        {
          "internalType": "bool",
          "name": "",
          "type": "bool"
        }
      ],
      "stateMutability": "view",
      "type": "function"
    },
    {
      "inputs": [
        {
          "internalType": "bytes32",
          "name": "role",
          "type": "bytes32"
        },
        {
          "internalType": "address",
          "name": "account",
          "type": "address"
        }
      ],
      "name": "renounceRole",
      "outputs": [],
      "stateMutability": "nonpayable",
      "type": "function"
    },
    {
      "inputs": [
        {
          "internalType": "bytes32",
          "name": "role",
          "type": "bytes32"
        },
        {
          "internalType": "address",
          "name": "account",
          "type": "address"
        }
      ],
      "name": "revokeRole",
      "outputs": [],
      "stateMutability": "nonpayable",
      "type": "function"
    },
    {
      "inputs": [
        {
          "internalType": "bytes32",
          "name": "overlay",
          "type": "bytes32"
        },
        {
          "internalType": "uint256",
          "name": "amount",
          "type": "uint256"
        }
      ],
      "name": "slashDeposit",
      "outputs": [],
      "stateMutability": "nonpayable",
      "type": "function"
    },
    {
      "inputs": [
        {
          "internalType": "bytes32",
          "name": "overlay",
          "type": "bytes32"
        }
      ],
      "name": "stakeOfOverlay",
      "outputs": [
        {
          "internalType": "uint256",
          "name": "",
          "type": "uint256"
        }
      ],
      "stateMutability": "view",
      "type": "function"
    },
    {
      "inputs": [
        {
          "internalType": "bytes32",
          "name": "",
          "type": "bytes32"
        }
      ],
      "name": "stakes",
      "outputs": [
        {
          "internalType": "bytes32",
          "name": "overlay",
          "type": "bytes32"
        },
        {
          "internalType": "uint256",
          "name": "stakeAmount",
          "type": "uint256"
        },
        {
          "internalType": "address",
          "name": "owner",
          "type": "address"
        },
        {
          "internalType": "uint256",
          "name": "lastUpdatedBlockNumber",
          "type": "uint256"
        },
        {
          "internalType": "bool",
          "name": "isValue",
          "type": "bool"
        }
      ],
      "stateMutability": "view",
      "type": "function"
    },
    {
      "inputs": [
        {
          "internalType": "bytes4",
          "name": "interfaceId",
          "type": "bytes4"
        }
      ],
      "name": "supportsInterface",
      "outputs": [
        {
          "internalType": "bool",
          "name": "",
          "type": "bool"
        }
      ],
      "stateMutability": "view",
      "type": "function"
    },
    {
      "inputs": [],
      "name": "unPause",
      "outputs": [],
      "stateMutability": "nonpayable",
      "type": "function"
    },
    {
      "inputs": [
        {
          "internalType": "bytes32",
          "name": "overlay",
          "type": "bytes32"
        }
      ],
      "name": "usableStakeOfOverlay",
      "outputs": [
        {
          "internalType": "uint256",
          "name": "",
          "type": "uint256"
        }
      ],
      "stateMutability": "view",
      "type": "function"
    },
    {
      "inputs": [
        {
          "internalType": "bytes32",
          "name": "overlay",
          "type": "bytes32"
        },
        {
          "internalType": "uint256",
          "name": "amount",
          "type": "uint256"
        }
      ],
      "name": "withdrawFromStake",
      "outputs": [],
      "stateMutability": "nonpayable",
      "type": "function"
    }
  ],
  "transactionHash": "0x44470582384a31160b379e88600a1d0613cca219d104063933da6cee28067412",
  "args": [
    "0x2ac3c1d3e24b45c6c310534bc2dd84b5ed576335",
    333
  ],
  "numDeployments": 1,
  "solcInputHash": "773d57d328dee8f2cfcc5aaa49b6d5df",
  "bytecode": "0x60806040523480156200001157600080fd5b50604051620019e6380380620019e6833981016040819052620000349162000162565b6001805460ff19169055600380546001600160a01b03841668010000000000000000026001600160e01b03199091166001600160401b038416171790556200007e600033620000b2565b620000aa7f65d7a28e3265b37a6474929f336521b332c1681b933f6cb9f3376673440d862a33620000b2565b5050620001b7565b620000be8282620000c2565b5050565b6000828152602081815260408083206001600160a01b038516845290915290205460ff16620000be576000828152602081815260408083206001600160a01b03851684529091529020805460ff191660011790556200011e3390565b6001600160a01b0316816001600160a01b0316837f2f8788117e7eff1d82e926ec794901d17c78024a50270940304540a733656f0d60405160405180910390a45050565b600080604083850312156200017657600080fd5b82516001600160a01b03811681146200018e57600080fd5b60208401519092506001600160401b0381168114620001ac57600080fd5b809150509250929050565b61181f80620001c76000396000f3fe608060405234801561001057600080fd5b506004361061018d5760003560e01c806391d14854116100e3578063d48bfaeb1161008c578063e63ab1e911610066578063e63ab1e91461041a578063ede4130214610441578063f7b188a51461046457600080fd5b8063d48bfaeb146103e1578063d547741f146103f4578063e34c45271461040757600080fd5b8063a6471a1d116100bd578063a6471a1d14610394578063a6ce31d4146103bb578063abe38543146103ce57600080fd5b806391d1485414610328578063a0d22b211461035f578063a217fddf1461038c57600080fd5b8063420fc4db11610145578063837fd16a1161011f578063837fd16a1461028b5780638456cb591461029e5780638fee6407146102a657600080fd5b8063420fc4db1461022657806348962b931461025d5780635c975abb1461028057600080fd5b8063248a9ca311610176578063248a9ca3146101cf5780632f2ff15d1461020057806336568abe1461021357600080fd5b806301ffc9a7146101925780631ed2cd40146101ba575b600080fd5b6101a56101a0366004611537565b61046c565b60405190151581526020015b60405180910390f35b6101cd6101c8366004611595565b610505565b005b6101f26101dd3660046115c8565b60009081526020819052604090206001015490565b6040519081526020016101b1565b6101cd61020e3660046115e1565b6108a9565b6101cd6102213660046115e1565b6108d3565b600354610245906801000000000000000090046001600160a01b031681565b6040516001600160a01b0390911681526020016101b1565b6101f261026b3660046115c8565b60009081526002602052604090206001015490565b60015460ff166101a5565b6101cd61029936600461160d565b61095f565b6101cd610a76565b6102f06102b43660046115c8565b6002602081905260009182526040909120805460018201549282015460038301546004909301549193926001600160a01b039091169160ff1685565b6040805195865260208601949094526001600160a01b039092169284019290925260608301919091521515608082015260a0016101b1565b6101a56103363660046115e1565b6000918252602082815260408084206001600160a01b0393909316845291905290205460ff1690565b61024561036d3660046115c8565b600090815260026020819052604090912001546001600160a01b031690565b6101f2600081565b6101f27f3e35b14a9f4fef84b59f9bdcd3044fc28783144b7e42bfb2cd075e6a02cb082881565b6101cd6103c936600461160d565b610afe565b6101f26103dc3660046115c8565b610c9a565b6101cd6103ef36600461162f565b610ccf565b6101cd6104023660046115e1565b610d71565b6101cd61041536600461160d565b610d96565b6101f27f65d7a28e3265b37a6474929f336521b332c1681b933f6cb9f3376673440d862a81565b6101f261044f3660046115c8565b60009081526002602052604090206003015490565b6101cd610fe8565b60007fffffffff0000000000000000000000000000000000000000000000000000000082167f7965db0b0000000000000000000000000000000000000000000000000000000014806104ff57507f01ffc9a7000000000000000000000000000000000000000000000000000000007fffffffff000000000000000000000000000000000000000000000000000000008316145b92915050565b61050d61106e565b6001600160a01b038316331461056a5760405162461bcd60e51b815260206004820152601b60248201527f6f6e6c79206f776e65722063616e20757064617465207374616b65000000000060448201526064015b60405180910390fd5b600354600090849065ff000000ff00600882811b91821664ff000000ff9390911c92831617601090811b67ff000000ff0000009290921666ff000000ff0000939093169290921790911c17602081811b6bffffffffffffffff000000001691901c63ffffffff161760405160609290921b6bffffffffffffffffffffffff1916602083015260c01b7fffffffffffffffff000000000000000000000000000000000000000000000000166034820152603c8101849052605c0160408051601f19818403018152918152815160209283012060008181526002909352912060040154909150829060ff16156106d75760008281526002602052604090206003015443116106b85760405162461bcd60e51b815260206004820152601860248201527f6f7665726c61792063757272656e746c792066726f7a656e00000000000000006044820152606401610561565b6000828152600260205260409020600101546106d4908461166f565b90505b6003546040517f23b872dd00000000000000000000000000000000000000000000000000000000815233600482015230602482015260448101859052680100000000000000009091046001600160a01b0316906323b872dd906064016020604051808303816000875af1158015610752573d6000803e3d6000fd5b505050506040513d601f19601f820116820180604052508101906107769190611682565b6107c25760405162461bcd60e51b815260206004820152600f60248201527f6661696c6564207472616e7366657200000000000000000000000000000000006044820152606401610561565b604080518281526001600160a01b03871660208201524381830152905183917f61e979698346a2aa868a3a9f08d30c846174841dc9b074bbf2a82d20554bc682919081900360600190a26040805160a08101825283815260208082019384526001600160a01b039788168284019081524360608401908152600160808501818152600098895260029485905295909720935184559451958301959095559351938101805473ffffffffffffffffffffffffffffffffffffffff1916949097169390931790955551600382015592516004909301805460ff1916931515939093179092555050565b6000828152602081905260409020600101546108c4816110c1565b6108ce83836110ce565b505050565b6001600160a01b03811633146109515760405162461bcd60e51b815260206004820152602f60248201527f416363657373436f6e74726f6c3a2063616e206f6e6c792072656e6f756e636560448201527f20726f6c657320666f722073656c6600000000000000000000000000000000006064820152608401610561565b61095b828261116c565b5050565b3360009081527f10fa80d2e578284bf61a483a3da84fbdd683a7e7256a9895dc4461ac543f4a16602052604090205460ff16610a035760405162461bcd60e51b815260206004820152602360248201527f6f6e6c792072656469737472696275746f722063616e20667265657a6520737460448201527f616b6500000000000000000000000000000000000000000000000000000000006064820152608401610561565b60008281526002602052604090206004015460ff161561095b5760408051838152602081018390527f340439a63c1ee2404f5b7010cab559b4dcbfc28b8baab9acade354fd688ae2b9910160405180910390a1610a60814361166f565b6000838152600260205260409020600301555050565b3360009081527ff7c9542c591017a21c74b6f3fab6263c7952fc0aaf9db4c22a2a04ddc7f8674f602052604090205460ff16610af45760405162461bcd60e51b815260206004820152601560248201527f6f6e6c79207061757365722063616e20706175736500000000000000000000006044820152606401610561565b610afc6111eb565b565b3360009081527f10fa80d2e578284bf61a483a3da84fbdd683a7e7256a9895dc4461ac543f4a16602052604090205460ff16610ba25760405162461bcd60e51b815260206004820152602260248201527f6f6e6c792072656469737472696275746f722063616e20736c6173682073746160448201527f6b650000000000000000000000000000000000000000000000000000000000006064820152608401610561565b60408051838152602081018390527f0956b50d4d586f6b9c90800d4e713bd2b866e044decd047e6d70ea20314ab308910160405180910390a160008281526002602052604090206004015460ff161561095b57600082815260026020526040902060010154811015610c4c5760008281526002602052604081206001018054839290610c2f9084906116a4565b909155505050600090815260026020526040902043600390910155565b506000908152600260208190526040822082815560018101839055908101805473ffffffffffffffffffffffffffffffffffffffff191690556003810191909155600401805460ff19169055565b6000818152600260205260408120600301544311610cb95760006104ff565b5060009081526002602052604090206001015490565b3360009081527fad3228b676f7d3cd4284a5443f17f1962b36e491b30a40b2405849e597ba5fb5602052604090205460ff16610d4d5760405162461bcd60e51b815260206004820181905260248201527f6f6e6c792061646d696e2063616e206368616e6765204e6574776f726b2049446044820152606401610561565b6003805467ffffffffffffffff191667ffffffffffffffff92909216919091179055565b600082815260208190526040902060010154610d8c816110c1565b6108ce838361116c565b610d9e61123f565b600082815260026020819052604090912001546001600160a01b03163314610e085760405162461bcd60e51b815260206004820152601d60248201527f6f6e6c79206f776e65722063616e207769746864726177207374616b650000006044820152606401610561565b6000828152600260205260409020600101548190811115610e3757506000828152600260205260409020600101545b600083815260026020526040902060010154811015610f575760008381526002602052604081206001018054839290610e719084906116a4565b9091555050600083815260026020526040908190204360039182015554905163a9059cbb60e01b815233600482015260248101839052680100000000000000009091046001600160a01b03169063a9059cbb906044015b6020604051808303816000875af1158015610ee7573d6000803e3d6000fd5b505050506040513d601f19601f82011682018060405250810190610f0b9190611682565b6108ce5760405162461bcd60e51b815260206004820152601160248201527f6661696c6564207769746864726177616c0000000000000000000000000000006044820152606401610561565b600083815260026020819052604080832083815560018101849055918201805473ffffffffffffffffffffffffffffffffffffffff191690556003808301939093556004918201805460ff191690559154915163a9059cbb60e01b8152339181019190915260248101839052680100000000000000009091046001600160a01b03169063a9059cbb90604401610ec8565b3360009081527ff7c9542c591017a21c74b6f3fab6263c7952fc0aaf9db4c22a2a04ddc7f8674f602052604090205460ff166110665760405162461bcd60e51b815260206004820152601760248201527f6f6e6c79207061757365722063616e20756e70617573650000000000000000006044820152606401610561565b610afc611291565b60015460ff1615610afc5760405162461bcd60e51b815260206004820152601060248201527f5061757361626c653a20706175736564000000000000000000000000000000006044820152606401610561565b6110cb81336112ca565b50565b6000828152602081815260408083206001600160a01b038516845290915290205460ff1661095b576000828152602081815260408083206001600160a01b03851684529091529020805460ff191660011790556111283390565b6001600160a01b0316816001600160a01b0316837f2f8788117e7eff1d82e926ec794901d17c78024a50270940304540a733656f0d60405160405180910390a45050565b6000828152602081815260408083206001600160a01b038516845290915290205460ff161561095b576000828152602081815260408083206001600160a01b0385168085529252808320805460ff1916905551339285917ff6391f5c32d9c69d2a47ea670b442974b53935d1edc7fd64eb21e047a839171b9190a45050565b6111f361106e565b6001805460ff1916811790557f62e78cea01bee320cd4e420270b5ea74000d11b0c9f74754ebdbfc544b05a258335b6040516001600160a01b03909116815260200160405180910390a1565b60015460ff16610afc5760405162461bcd60e51b815260206004820152601460248201527f5061757361626c653a206e6f74207061757365640000000000000000000000006044820152606401610561565b61129961123f565b6001805460ff191690557f5db9ee0a495bf2e6ff9c91a7834c1ba4fdd244a5e8aa4e537bd38aeae4b073aa33611222565b6000828152602081815260408083206001600160a01b038516845290915290205460ff1661095b576112fb8161133d565b61130683602061134f565b6040516020016113179291906116db565b60408051601f198184030181529082905262461bcd60e51b82526105619160040161175c565b60606104ff6001600160a01b03831660145b6060600061135e83600261178f565b61136990600261166f565b67ffffffffffffffff811115611381576113816117a6565b6040519080825280601f01601f1916602001820160405280156113ab576020820181803683370190505b5090507f3000000000000000000000000000000000000000000000000000000000000000816000815181106113e2576113e26117bc565b60200101906001600160f81b031916908160001a9053507f78000000000000000000000000000000000000000000000000000000000000008160018151811061142d5761142d6117bc565b60200101906001600160f81b031916908160001a905350600061145184600261178f565b61145c90600161166f565b90505b60018111156114e1577f303132333435363738396162636465660000000000000000000000000000000085600f166010811061149d5761149d6117bc565b1a60f81b8282815181106114b3576114b36117bc565b60200101906001600160f81b031916908160001a90535060049490941c936114da816117d2565b905061145f565b5083156115305760405162461bcd60e51b815260206004820181905260248201527f537472696e67733a20686578206c656e67746820696e73756666696369656e746044820152606401610561565b9392505050565b60006020828403121561154957600080fd5b81357fffffffff000000000000000000000000000000000000000000000000000000008116811461153057600080fd5b80356001600160a01b038116811461159057600080fd5b919050565b6000806000606084860312156115aa57600080fd5b6115b384611579565b95602085013595506040909401359392505050565b6000602082840312156115da57600080fd5b5035919050565b600080604083850312156115f457600080fd5b8235915061160460208401611579565b90509250929050565b6000806040838503121561162057600080fd5b50508035926020909101359150565b60006020828403121561164157600080fd5b813567ffffffffffffffff8116811461153057600080fd5b634e487b7160e01b600052601160045260246000fd5b808201808211156104ff576104ff611659565b60006020828403121561169457600080fd5b8151801515811461153057600080fd5b818103818111156104ff576104ff611659565b60005b838110156116d25781810151838201526020016116ba565b50506000910152565b7f416363657373436f6e74726f6c3a206163636f756e74200000000000000000008152600083516117138160178501602088016116b7565b7f206973206d697373696e6720726f6c652000000000000000000000000000000060179184019182015283516117508160288401602088016116b7565b01602801949350505050565b602081526000825180602084015261177b8160408501602087016116b7565b601f01601f19169190910160400192915050565b80820281158282048414176104ff576104ff611659565b634e487b7160e01b600052604160045260246000fd5b634e487b7160e01b600052603260045260246000fd5b6000816117e1576117e1611659565b50600019019056fea2646970667358221220367efbc2ea2942295a59f5bc7e915bf7eaa0a4cba4a32890457582de2d4a566064736f6c63430008130033",
  "devdoc": {
    "author": "The Swarm Authors",
    "details": "Allows users to stake tokens in order to be eligible for the Redistribution Schelling co-ordination game. Stakes are not withdrawable unless the contract is paused, e.g. in the event of migration to a new staking contract. Stakes are frozen or slashed by the Redistribution contract in response to violations of the protocol.",
    "events": {
      "Paused(address)": {
        "details": "Emitted when the pause is triggered by `account`."
      },
      "RoleAdminChanged(bytes32,bytes32,bytes32)": {
        "details": "Emitted when `newAdminRole` is set as ``role``'s admin role, replacing `previousAdminRole` `DEFAULT_ADMIN_ROLE` is the starting admin for all roles, despite {RoleAdminChanged} not being emitted signaling this. _Available since v3.1._"
      },
      "RoleGranted(bytes32,address,address)": {
        "details": "Emitted when `account` is granted `role`. `sender` is the account that originated the contract call, an admin role bearer except when using {AccessControl-_setupRole}."
      },
      "RoleRevoked(bytes32,address,address)": {
        "details": "Emitted when `account` is revoked `role`. `sender` is the account that originated the contract call:   - if using `revokeRole`, it is the admin role bearer   - if using `renounceRole`, it is the role bearer (i.e. `account`)"
      },
      "StakeFrozen(bytes32,uint256)": {
        "details": "Emitted when a stake for overlay `frozen` for `time` blocks."
      },
      "StakeSlashed(bytes32,uint256)": {
        "details": "Emitted when a stake for overlay `slashed` is slashed by `amount`."
      },
      "StakeUpdated(bytes32,uint256,address,uint256)": {
        "details": "Emitted when a stake is created or updated by `owner` of the `overlay` by `stakeamount`, during `lastUpdatedBlock`."
      },
      "Unpaused(address)": {
        "details": "Emitted when the pause is lifted by `account`."
      }
    },
    "kind": "dev",
    "methods": {
      "constructor": {
        "params": {
          "_NetworkId": "Swarm network ID",
          "_bzzToken": "Address of the staked ERC20 token"
        }
      },
      "depositStake(address,bytes32,uint256)": {
        "details": "At least `_initialBalancePerChunk*2^depth` number of tokens need to be preapproved for this contract.",
        "params": {
          "_owner": "Eth address used for overlay calculation.",
          "amount": "Deposited amount of ERC20 tokens.",
          "nonce": "Nonce that was used for overlay calculation."
        }
      },
      "freezeDeposit(bytes32,uint256)": {
        "details": "Freeze an existing stake, can only be called by the redistributor",
        "params": {
          "overlay": "the overlay selected",
          "time": "penalty length in blocknumbers"
        }
      },
      "getRoleAdmin(bytes32)": {
        "details": "Returns the admin role that controls `role`. See {grantRole} and {revokeRole}. To change a role's admin, use {_setRoleAdmin}."
      },
      "grantRole(bytes32,address)": {
        "details": "Grants `role` to `account`. If `account` had not been already granted `role`, emits a {RoleGranted} event. Requirements: - the caller must have ``role``'s admin role. May emit a {RoleGranted} event."
      },
      "hasRole(bytes32,address)": {
        "details": "Returns `true` if `account` has been granted `role`."
      },
      "lastUpdatedBlockNumberOfOverlay(bytes32)": {
        "details": "Returns the `lastUpdatedBlockNumber` of `overlay`."
      },
      "ownerOfOverlay(bytes32)": {
        "details": "Returns the eth address of the owner of `overlay`.",
        "params": {
          "overlay": "Overlay of node"
        }
      },
      "pause()": {
        "details": "Pause the contract. The contract is provably stopped by renouncing the pauser role and the admin role after pausing, can only be called by the `PAUSER`"
      },
      "paused()": {
        "details": "Returns true if the contract is paused, and false otherwise."
      },
      "renounceRole(bytes32,address)": {
        "details": "Revokes `role` from the calling account. Roles are often managed via {grantRole} and {revokeRole}: this function's purpose is to provide a mechanism for accounts to lose their privileges if they are compromised (such as when a trusted device is misplaced). If the calling account had been revoked `role`, emits a {RoleRevoked} event. Requirements: - the caller must be `account`. May emit a {RoleRevoked} event."
      },
      "revokeRole(bytes32,address)": {
        "details": "Revokes `role` from `account`. If `account` had been granted `role`, emits a {RoleRevoked} event. Requirements: - the caller must have ``role``'s admin role. May emit a {RoleRevoked} event."
      },
      "slashDeposit(bytes32,uint256)": {
        "details": "Slash an existing stake, can only be called by the `redistributor`",
        "params": {
          "amount": "the amount to be slashed",
          "overlay": "the overlay selected"
        }
      },
      "stakeOfOverlay(bytes32)": {
        "details": "Returns the current `stakeAmount` of `overlay`.",
        "params": {
          "overlay": "Overlay of node"
        }
      },
      "supportsInterface(bytes4)": {
        "details": "See {IERC165-supportsInterface}."
      },
      "unPause()": {
        "details": "Unpause the contract, can only be called by the pauser when paused"
      },
      "usableStakeOfOverlay(bytes32)": {
        "details": "Returns the current usable `stakeAmount` of `overlay`. Checks whether the stake is currently frozen.",
        "params": {
          "overlay": "Overlay of node"
        }
      },
      "withdrawFromStake(bytes32,uint256)": {
        "details": "Withdraw stake only when the staking contract is paused, can only be called by the owner specific to the associated `overlay`",
        "params": {
          "amount": "The amount of ERC20 tokens to be withdrawn",
          "overlay": "The overlay to withdraw from"
        }
      }
    },
    "title": "Staking contract for the Swarm storage incentives",
    "version": 1
  },
  "userdoc": {
    "kind": "user",
    "methods": {
      "depositStake(address,bytes32,uint256)": {
        "notice": "Create a new stake or update an existing one."
      }
    },
    "version": 1
  },
  "storageLayout": {
    "storage": [
      {
        "astId": 24,
        "contract": "src/Staking.sol:StakeRegistry",
        "label": "_roles",
        "offset": 0,
        "slot": "0",
        "type": "t_mapping(t_bytes32,t_struct(RoleData)19_storage)"
      },
      {
        "astId": 556,
        "contract": "src/Staking.sol:StakeRegistry",
        "label": "_paused",
        "offset": 0,
        "slot": "1",
        "type": "t_bool"
      },
      {
        "astId": 9720,
        "contract": "src/Staking.sol:StakeRegistry",
        "label": "stakes",
        "offset": 0,
        "slot": "2",
        "type": "t_mapping(t_bytes32,t_struct(Stake)9715_storage)"
      },
      {
        "astId": 9732,
        "contract": "src/Staking.sol:StakeRegistry",
        "label": "NetworkId",
        "offset": 0,
        "slot": "3",
        "type": "t_uint64"
      },
      {
        "astId": 9734,
        "contract": "src/Staking.sol:StakeRegistry",
        "label": "bzzToken",
        "offset": 8,
        "slot": "3",
        "type": "t_address"
      }
    ],
    "types": {
      "t_address": {
        "encoding": "inplace",
        "label": "address",
        "numberOfBytes": "20"
      },
      "t_bool": {
        "encoding": "inplace",
        "label": "bool",
        "numberOfBytes": "1"
      },
      "t_bytes32": {
        "encoding": "inplace",
        "label": "bytes32",
        "numberOfBytes": "32"
      },
      "t_mapping(t_address,t_bool)": {
        "encoding": "mapping",
        "key": "t_address",
        "label": "mapping(address => bool)",
        "numberOfBytes": "32",
        "value": "t_bool"
      },
      "t_mapping(t_bytes32,t_struct(RoleData)19_storage)": {
        "encoding": "mapping",
        "key": "t_bytes32",
        "label": "mapping(bytes32 => struct AccessControl.RoleData)",
        "numberOfBytes": "32",
        "value": "t_struct(RoleData)19_storage"
      },
      "t_mapping(t_bytes32,t_struct(Stake)9715_storage)": {
        "encoding": "mapping",
        "key": "t_bytes32",
        "label": "mapping(bytes32 => struct StakeRegistry.Stake)",
        "numberOfBytes": "32",
        "value": "t_struct(Stake)9715_storage"
      },
      "t_struct(RoleData)19_storage": {
        "encoding": "inplace",
        "label": "struct AccessControl.RoleData",
        "members": [
          {
            "astId": 16,
            "contract": "src/Staking.sol:StakeRegistry",
            "label": "members",
            "offset": 0,
            "slot": "0",
            "type": "t_mapping(t_address,t_bool)"
          },
          {
            "astId": 18,
            "contract": "src/Staking.sol:StakeRegistry",
            "label": "adminRole",
            "offset": 0,
            "slot": "1",
            "type": "t_bytes32"
          }
        ],
        "numberOfBytes": "64"
      },
      "t_struct(Stake)9715_storage": {
        "encoding": "inplace",
        "label": "struct StakeRegistry.Stake",
        "members": [
          {
            "astId": 9706,
            "contract": "src/Staking.sol:StakeRegistry",
            "label": "overlay",
            "offset": 0,
            "slot": "0",
            "type": "t_bytes32"
          },
          {
            "astId": 9708,
            "contract": "src/Staking.sol:StakeRegistry",
            "label": "stakeAmount",
            "offset": 0,
            "slot": "1",
            "type": "t_uint256"
          },
          {
            "astId": 9710,
            "contract": "src/Staking.sol:StakeRegistry",
            "label": "owner",
            "offset": 0,
            "slot": "2",
            "type": "t_address"
          },
          {
            "astId": 9712,
            "contract": "src/Staking.sol:StakeRegistry",
            "label": "lastUpdatedBlockNumber",
            "offset": 0,
            "slot": "3",
            "type": "t_uint256"
          },
          {
            "astId": 9714,
            "contract": "src/Staking.sol:StakeRegistry",
            "label": "isValue",
            "offset": 0,
            "slot": "4",
            "type": "t_bool"
          }
        ],
        "numberOfBytes": "160"
      },
      "t_uint256": {
        "encoding": "inplace",
        "label": "uint256",
        "numberOfBytes": "32"
      },
      "t_uint64": {
        "encoding": "inplace",
        "label": "uint64",
        "numberOfBytes": "8"
      }
    }
  }
}