{
  "address": "0xBe212EA1A4978a64e8f7636Ae18305C38CA092Bd",
  "abi": [
    {
      "inputs": [
        {
          "internalType": "address",
          "name": "_bzzToken",
          "type": "address"
        },
        {
          "internalType": "uint64",
          "name": "_NetworkId",
          "type": "uint64"
        },
        {
          "internalType": "address",
          "name": "_oracleContract",
          "type": "address"
        }
      ],
      "stateMutability": "nonpayable",
      "type": "constructor"
    },
    {
      "inputs": [],
      "name": "BelowMinimumStake",
      "type": "error"
    },
    {
      "inputs": [],
      "name": "Frozen",
      "type": "error"
    },
    {
      "inputs": [],
      "name": "OnlyPauser",
      "type": "error"
    },
    {
      "inputs": [],
      "name": "OnlyRedistributor",
      "type": "error"
    },
    {
      "inputs": [],
      "name": "TransferFailed",
      "type": "error"
    },
    {
      "inputs": [],
      "name": "Unauthorized",
      "type": "error"
    },
    {
      "anonymous": false,
      "inputs": [
        {
          "indexed": false,
          "internalType": "address",
          "name": "owner",
          "type": "address"
        },
        {
          "indexed": false,
          "internalType": "bytes32",
          "name": "overlay",
          "type": "bytes32"
        }
      ],
      "name": "OverlayChanged",
      "type": "event"
    },
    {
      "anonymous": false,
      "inputs": [
        {
          "indexed": false,
          "internalType": "address",
          "name": "account",
          "type": "address"
        }
      ],
      "name": "Paused",
      "type": "event"
    },
    {
      "anonymous": false,
      "inputs": [
        {
          "indexed": true,
          "internalType": "bytes32",
          "name": "role",
          "type": "bytes32"
        },
        {
          "indexed": true,
          "internalType": "bytes32",
          "name": "previousAdminRole",
          "type": "bytes32"
        },
        {
          "indexed": true,
          "internalType": "bytes32",
          "name": "newAdminRole",
          "type": "bytes32"
        }
      ],
      "name": "RoleAdminChanged",
      "type": "event"
    },
    {
      "anonymous": false,
      "inputs": [
        {
          "indexed": true,
          "internalType": "bytes32",
          "name": "role",
          "type": "bytes32"
        },
        {
          "indexed": true,
          "internalType": "address",
          "name": "account",
          "type": "address"
        },
        {
          "indexed": true,
          "internalType": "address",
          "name": "sender",
          "type": "address"
        }
      ],
      "name": "RoleGranted",
      "type": "event"
    },
    {
      "anonymous": false,
      "inputs": [
        {
          "indexed": true,
          "internalType": "bytes32",
          "name": "role",
          "type": "bytes32"
        },
        {
          "indexed": true,
          "internalType": "address",
          "name": "account",
          "type": "address"
        },
        {
          "indexed": true,
          "internalType": "address",
          "name": "sender",
          "type": "address"
        }
      ],
      "name": "RoleRevoked",
      "type": "event"
    },
    {
      "anonymous": false,
      "inputs": [
        {
          "indexed": false,
          "internalType": "address",
          "name": "frozen",
          "type": "address"
        },
        {
          "indexed": false,
          "internalType": "bytes32",
          "name": "overlay",
          "type": "bytes32"
        },
        {
          "indexed": false,
          "internalType": "uint256",
          "name": "time",
          "type": "uint256"
        }
      ],
      "name": "StakeFrozen",
      "type": "event"
    },
    {
      "anonymous": false,
      "inputs": [
        {
          "indexed": false,
          "internalType": "address",
          "name": "slashed",
          "type": "address"
        },
        {
          "indexed": false,
          "internalType": "bytes32",
          "name": "overlay",
          "type": "bytes32"
        },
        {
          "indexed": false,
          "internalType": "uint256",
          "name": "amount",
          "type": "uint256"
        }
      ],
      "name": "StakeSlashed",
      "type": "event"
    },
    {
      "anonymous": false,
      "inputs": [
        {
          "indexed": true,
          "internalType": "address",
          "name": "owner",
          "type": "address"
        },
        {
          "indexed": false,
          "internalType": "uint256",
          "name": "committedStake",
          "type": "uint256"
        },
        {
          "indexed": false,
          "internalType": "uint256",
          "name": "potentialStake",
          "type": "uint256"
        },
        {
          "indexed": false,
          "internalType": "bytes32",
          "name": "overlay",
          "type": "bytes32"
        },
        {
          "indexed": false,
          "internalType": "uint256",
          "name": "lastUpdatedBlock",
          "type": "uint256"
        }
      ],
      "name": "StakeUpdated",
      "type": "event"
    },
    {
      "anonymous": false,
      "inputs": [
        {
          "indexed": false,
          "internalType": "address",
          "name": "node",
          "type": "address"
        },
        {
          "indexed": false,
          "internalType": "uint256",
          "name": "amount",
          "type": "uint256"
        }
      ],
      "name": "StakeWithdrawn",
      "type": "event"
    },
    {
      "anonymous": false,
      "inputs": [
        {
          "indexed": false,
          "internalType": "address",
          "name": "account",
          "type": "address"
        }
      ],
      "name": "Unpaused",
      "type": "event"
    },
    {
      "inputs": [],
      "name": "DEFAULT_ADMIN_ROLE",
      "outputs": [
        {
          "internalType": "bytes32",
          "name": "",
          "type": "bytes32"
        }
      ],
      "stateMutability": "view",
      "type": "function"
    },
    {
      "inputs": [],
      "name": "OracleContract",
      "outputs": [
        {
          "internalType": "contract IPriceOracle",
          "name": "",
          "type": "address"
        }
      ],
      "stateMutability": "view",
      "type": "function"
    },
    {
      "inputs": [],
      "name": "REDISTRIBUTOR_ROLE",
      "outputs": [
        {
          "internalType": "bytes32",
          "name": "",
          "type": "bytes32"
        }
      ],
      "stateMutability": "view",
      "type": "function"
    },
    {
      "inputs": [],
      "name": "bzzToken",
      "outputs": [
        {
          "internalType": "address",
          "name": "",
          "type": "address"
        }
      ],
      "stateMutability": "view",
      "type": "function"
    },
    {
      "inputs": [
        {
          "internalType": "uint64",
          "name": "_NetworkId",
          "type": "uint64"
        }
      ],
      "name": "changeNetworkId",
      "outputs": [],
      "stateMutability": "nonpayable",
      "type": "function"
    },
    {
      "inputs": [
        {
          "internalType": "address",
          "name": "_owner",
          "type": "address"
        },
        {
          "internalType": "uint256",
          "name": "_time",
          "type": "uint256"
        }
      ],
      "name": "freezeDeposit",
      "outputs": [],
      "stateMutability": "nonpayable",
      "type": "function"
    },
    {
      "inputs": [
        {
          "internalType": "bytes32",
          "name": "role",
          "type": "bytes32"
        }
      ],
      "name": "getRoleAdmin",
      "outputs": [
        {
          "internalType": "bytes32",
          "name": "",
          "type": "bytes32"
        }
      ],
      "stateMutability": "view",
      "type": "function"
    },
    {
      "inputs": [
        {
          "internalType": "bytes32",
          "name": "role",
          "type": "bytes32"
        },
        {
          "internalType": "address",
          "name": "account",
          "type": "address"
        }
      ],
      "name": "grantRole",
      "outputs": [],
      "stateMutability": "nonpayable",
      "type": "function"
    },
    {
      "inputs": [
        {
          "internalType": "bytes32",
          "name": "role",
          "type": "bytes32"
        },
        {
          "internalType": "address",
          "name": "account",
          "type": "address"
        }
      ],
      "name": "hasRole",
      "outputs": [
        {
          "internalType": "bool",
          "name": "",
          "type": "bool"
        }
      ],
      "stateMutability": "view",
      "type": "function"
    },
    {
      "inputs": [
        {
          "internalType": "address",
          "name": "_owner",
          "type": "address"
        }
      ],
      "name": "lastUpdatedBlockNumberOfAddress",
      "outputs": [
        {
          "internalType": "uint256",
          "name": "",
          "type": "uint256"
        }
      ],
      "stateMutability": "view",
      "type": "function"
    },
    {
      "inputs": [
        {
          "internalType": "bytes32",
          "name": "_setNonce",
          "type": "bytes32"
        },
        {
          "internalType": "uint256",
          "name": "_addAmount",
          "type": "uint256"
        }
      ],
      "name": "manageStake",
      "outputs": [],
      "stateMutability": "nonpayable",
      "type": "function"
    },
    {
      "inputs": [],
      "name": "migrateStake",
      "outputs": [],
      "stateMutability": "nonpayable",
      "type": "function"
    },
    {
      "inputs": [
        {
          "internalType": "address",
          "name": "_owner",
          "type": "address"
        }
      ],
      "name": "nodeEffectiveStake",
      "outputs": [
        {
          "internalType": "uint256",
          "name": "",
          "type": "uint256"
        }
      ],
      "stateMutability": "view",
      "type": "function"
    },
    {
      "inputs": [
        {
          "internalType": "address",
          "name": "_owner",
          "type": "address"
        }
      ],
      "name": "overlayOfAddress",
      "outputs": [
        {
          "internalType": "bytes32",
          "name": "",
          "type": "bytes32"
        }
      ],
      "stateMutability": "view",
      "type": "function"
    },
    {
      "inputs": [],
      "name": "pause",
      "outputs": [],
      "stateMutability": "nonpayable",
      "type": "function"
    },
    {
      "inputs": [],
      "name": "paused",
      "outputs": [
        {
          "internalType": "bool",
          "name": "",
          "type": "bool"
        }
      ],
      "stateMutability": "view",
      "type": "function"
    },
    {
      "inputs": [
        {
          "internalType": "bytes32",
          "name": "role",
          "type": "bytes32"
        },
        {
          "internalType": "address",
          "name": "account",
          "type": "address"
        }
      ],
      "name": "renounceRole",
      "outputs": [],
      "stateMutability": "nonpayable",
      "type": "function"
    },
    {
      "inputs": [
        {
          "internalType": "bytes32",
          "name": "role",
          "type": "bytes32"
        },
        {
          "internalType": "address",
          "name": "account",
          "type": "address"
        }
      ],
      "name": "revokeRole",
      "outputs": [],
      "stateMutability": "nonpayable",
      "type": "function"
    },
    {
      "inputs": [
        {
          "internalType": "address",
          "name": "_owner",
          "type": "address"
        },
        {
          "internalType": "uint256",
          "name": "_amount",
          "type": "uint256"
        }
      ],
      "name": "slashDeposit",
      "outputs": [],
      "stateMutability": "nonpayable",
      "type": "function"
    },
    {
      "inputs": [
        {
          "internalType": "address",
          "name": "",
          "type": "address"
        }
      ],
      "name": "stakes",
      "outputs": [
        {
          "internalType": "bytes32",
          "name": "overlay",
          "type": "bytes32"
        },
        {
          "internalType": "uint256",
          "name": "committedStake",
          "type": "uint256"
        },
        {
          "internalType": "uint256",
          "name": "potentialStake",
          "type": "uint256"
        },
        {
          "internalType": "uint256",
          "name": "lastUpdatedBlockNumber",
          "type": "uint256"
        }
      ],
      "stateMutability": "view",
      "type": "function"
    },
    {
      "inputs": [
        {
          "internalType": "bytes4",
          "name": "interfaceId",
          "type": "bytes4"
        }
      ],
      "name": "supportsInterface",
      "outputs": [
        {
          "internalType": "bool",
          "name": "",
          "type": "bool"
        }
      ],
      "stateMutability": "view",
      "type": "function"
    },
    {
      "inputs": [],
      "name": "unPause",
      "outputs": [],
      "stateMutability": "nonpayable",
      "type": "function"
    },
    {
      "inputs": [],
      "name": "withdrawFromStake",
      "outputs": [],
      "stateMutability": "nonpayable",
      "type": "function"
    },
    {
      "inputs": [],
      "name": "withdrawableStake",
      "outputs": [
        {
          "internalType": "uint256",
          "name": "",
          "type": "uint256"
        }
      ],
      "stateMutability": "view",
      "type": "function"
    }
  ],
  "transactionHash": "0xeeb3a03d465c4426971409d1b72c7037c44e713344371dd0a5ec08d3314df1f9",
  "args": [
    "0xdBF3Ea6F5beE45c02255B2c26a16F300502F68da",
    1,
    "0x86DE783Bf23Bc13DaeF5A55ec531C198da8f10cF"
  ],
  "numDeployments": 2,
  "solcInputHash": "61a68bd215ba2141fb06ecc444ca0734",
  "bytecode": "0x60a06040523480156200001157600080fd5b5060405162001ab438038062001ab483398101604081905262000034916200015a565b6001805460ff19169055600380546001600160a01b03808616608052831668010000000000000000026001600160e01b03199091166001600160401b03851617179055620000846000336200008d565b505050620001b2565b6200009982826200009d565b5050565b6000828152602081815260408083206001600160a01b038516845290915290205460ff1662000099576000828152602081815260408083206001600160a01b03851684529091529020805460ff19166001179055620000f93390565b6001600160a01b0316816001600160a01b0316837f2f8788117e7eff1d82e926ec794901d17c78024a50270940304540a733656f0d60405160405180910390a45050565b80516001600160a01b03811681146200015557600080fd5b919050565b6000806000606084860312156200017057600080fd5b6200017b846200013d565b60208501519093506001600160401b03811681146200019957600080fd5b9150620001a9604085016200013d565b90509250925092565b6080516118d1620001e36000396000818161029d0152818161051c015281816108c40152610a6801526118d16000f3fe608060405234801561001057600080fd5b50600436106101985760003560e01c8063830a053e116100e3578063d009b2d61161008c578063d547741f11610066578063d547741f14610405578063e8e8d87e14610418578063f7b188a51461042b57600080fd5b8063d009b2d6146103b3578063d1052d1f146103c6578063d48bfaeb146103f257600080fd5b806397adedb5116100bd57806397adedb51461035b578063a217fddf14610384578063a6471a1d1461038c57600080fd5b8063830a053e146103095780638456cb591461031c57806391d148541461032457600080fd5b80632f2ff15d116101455780635c975abb1161011f5780635c975abb146102d757806369da9114146102e25780636f1c5de71461030157600080fd5b80632f2ff15d1461027257806336568abe14610285578063420fc4db1461029857600080fd5b806312236a771161017657806312236a77146101e257806316934fc4146101ea578063248a9ca31461024157600080fd5b806301ffc9a71461019d5780630aed7b0d146101c557806310ae2147146101cf575b600080fd5b6101b06101ab36600461158f565b610433565b60405190151581526020015b60405180910390f35b6101cd6104cc565b005b6101cd6101dd3660046115d1565b6105d6565b6101cd6109eb565b6102216101f836600461160f565b600260208190526000918252604090912080546001820154928201546003909201549092919084565b6040805194855260208501939093529183015260608201526080016101bc565b61026461024f36600461162a565b60009081526020819052604090206001015490565b6040519081526020016101bc565b6101cd610280366004611643565b610b39565b6101cd610293366004611643565b610b63565b6102bf7f000000000000000000000000000000000000000000000000000000000000000081565b6040516001600160a01b0390911681526020016101bc565b60015460ff166101b0565b6003546102bf906801000000000000000090046001600160a01b031681565b610264610bf0565b61026461031736600461160f565b610c25565b6101cd610c7b565b6101b0610332366004611643565b6000918252602082815260408084206001600160a01b0393909316845291905290205460ff1690565b61026461036936600461160f565b6001600160a01b031660009081526002602052604090205490565b610264600081565b6102647f3e35b14a9f4fef84b59f9bdcd3044fc28783144b7e42bfb2cd075e6a02cb082881565b6101cd6103c136600461166f565b610cd2565b6102646103d436600461160f565b6001600160a01b031660009081526002602052604090206003015490565b6101cd610400366004611699565b610dae565b6101cd610413366004611643565b610e3a565b6101cd61042636600461166f565b610e5f565b6101cd610fcb565b60007fffffffff0000000000000000000000000000000000000000000000000000000082167f7965db0b0000000000000000000000000000000000000000000000000000000014806104c657507f01ffc9a7000000000000000000000000000000000000000000000000000000007fffffffff000000000000000000000000000000000000000000000000000000008316145b92915050565b6104d4611022565b33600090815260026020526040902060030154156105d457336000818152600260208190526040918290200154905163a9059cbb60e01b8152600481019290925260248201527f00000000000000000000000000000000000000000000000000000000000000006001600160a01b03169063a9059cbb906044016020604051808303816000875af115801561056d573d6000803e3d6000fd5b505050506040513d601f19601f8201168201806040525081019061059191906116c3565b6105ae576040516312171d8360e31b815260040160405180910390fd5b336000908152600260208190526040822082815560018101839055908101829055600301555b565b6105de611074565b336000818152600260209081526040822080546003918201549154909491939265ff000000ff00600883811b91821664ff000000ff9490911c93841617601090811b67ff000000ff0000009290921666ff000000ff0000949094169390931790921c9190911780821b6bffffffffffffffff0000000016911c63ffffffff161760405160609290921b6bffffffffffffffffffffffff1916602083015260c01b7fffffffffffffffff000000000000000000000000000000000000000000000000166034820152603c8101869052605c016040516020818303038152906040528051906020012090506000600360089054906101000a90046001600160a01b03166001600160a01b0316639d1b464a6040518163ffffffff1660e01b8152600401602060405180830381865afa15801561071c573d6000803e3d6000fd5b505050506040513d601f19601f8201168201806040525081019061074091906116e5565b6107509063ffffffff1686611721565b905067016345785d8a000085108015610767575082155b1561079e576040517f8ecf3d0300000000000000000000000000000000000000000000000000000000815260040160405180910390fd5b82158015906107bf5750336000908152600260205260409020600301544311155b156107f6576040517fa8cab3d100000000000000000000000000000000000000000000000000000000815260040160405180910390fd5b33600090815260026020526040812060010154610814908390611743565b3360009081526002602081905260408220015491925090610836908890611743565b604080516080810182528681526020808201868152828401858152436060850190815233600090815260029485905295909520935184559051600184015551908201559051600390910155905086156109a0576040517f23b872dd000000000000000000000000000000000000000000000000000000008152336004820152306024820152604481018890527f00000000000000000000000000000000000000000000000000000000000000006001600160a01b0316906323b872dd906064016020604051808303816000875af1158015610915573d6000803e3d6000fd5b505050506040513d601f19601f8201168201806040525081019061093991906116c3565b610956576040516312171d8360e31b815260040160405180910390fd5b604080518381526020810183905290810185905243606082015233907ff3fb57c8e9287d05c0b3c8612031896c43149edcf7ca6f1b287ac836b4b5d5699060800160405180910390a25b8386146109e15760408051338152602081018690527fe188baf4bcb1c4413d19ba0eaef908614d30e8df9570d6fc4d584b75f4a37a3a910160405180910390a15b5050505050505050565b336000908152600260208190526040822090810154600190910154909190610a1390836110c7565b610a1d9083611756565b90508015610b35573360009081526002602081905260408220018054839290610a47908490611756565b909155505060405163a9059cbb60e01b8152336004820152602481018290527f00000000000000000000000000000000000000000000000000000000000000006001600160a01b03169063a9059cbb906044016020604051808303816000875af1158015610ab9573d6000803e3d6000fd5b505050506040513d601f19601f82011682018060405250810190610add91906116c3565b610afa576040516312171d8360e31b815260040160405180910390fd5b60408051338152602081018390527f8108595eb6bad3acefa9da467d90cc2217686d5c5ac85460f8b7849c840645fc91015b60405180910390a15b5050565b600082815260208190526040902060010154610b548161116b565b610b5e8383611178565b505050565b6001600160a01b0381163314610be65760405162461bcd60e51b815260206004820152602f60248201527f416363657373436f6e74726f6c3a2063616e206f6e6c792072656e6f756e636560448201527f20726f6c657320666f722073656c66000000000000000000000000000000000060648201526084015b60405180910390fd5b610b358282611216565b336000908152600260208190526040822090810154600190910154610c1590826110c7565b610c1f9082611756565b91505090565b6001600160a01b0381166000908152600260205260408120600301544311610c4e5760006104c6565b6001600160a01b038216600090815260026020819052604090912060018101549101546104c691906110c7565b3360009081527fad3228b676f7d3cd4284a5443f17f1962b36e491b30a40b2405849e597ba5fb5602052604090205460ff16610cca57604051631d77d47760e21b815260040160405180910390fd5b6105d4611295565b3360009081527f10fa80d2e578284bf61a483a3da84fbdd683a7e7256a9895dc4461ac543f4a16602052604090205460ff16610d2157604051630490edbf60e31b815260040160405180910390fd5b6001600160a01b03821660009081526002602052604090206003015415610b3557610d4c8143611743565b6001600160a01b038316600081815260026020908152604091829020600381019490945592548151928352928201929092529081018290527fd7863535575e7de6678ea9d340a4bfe0b84d77323bfa2ef602c3c1df82aea78090606001610b2c565b3360009081527fad3228b676f7d3cd4284a5443f17f1962b36e491b30a40b2405849e597ba5fb5602052604090205460ff16610e16576040517f82b4290000000000000000000000000000000000000000000000000000000000815260040160405180910390fd5b6003805467ffffffffffffffff191667ffffffffffffffff92909216919091179055565b600082815260208190526040902060010154610e558161116b565b610b5e8383611216565b3360009081527f10fa80d2e578284bf61a483a3da84fbdd683a7e7256a9895dc4461ac543f4a16602052604090205460ff16610eae57604051630490edbf60e31b815260040160405180910390fd5b6001600160a01b03821660009081526002602052604090206003015415610f76576001600160a01b03821660009081526002602081905260409091200154811015610f47576001600160a01b03821660009081526002602081905260408220018054839290610f1e908490611756565b90915550506001600160a01b038216600090815260026020526040902043600390910155610f76565b6001600160a01b0382166000908152600260208190526040822082815560018101839055908101829055600301555b6001600160a01b0382166000818152600260209081526040918290205482519384529083015281018290527f5f52ce031e6eba64e8a81288196b93a3e422096e80aea812f1f5a77866359b3a90606001610b2c565b3360009081527fad3228b676f7d3cd4284a5443f17f1962b36e491b30a40b2405849e597ba5fb5602052604090205460ff1661101a57604051631d77d47760e21b815260040160405180910390fd5b6105d46112e9565b60015460ff166105d45760405162461bcd60e51b815260206004820152601460248201527f5061757361626c653a206e6f74207061757365640000000000000000000000006044820152606401610bdd565b60015460ff16156105d45760405162461bcd60e51b815260206004820152601060248201527f5061757361626c653a20706175736564000000000000000000000000000000006044820152606401610bdd565b600080600360089054906101000a90046001600160a01b03166001600160a01b0316639d1b464a6040518163ffffffff1660e01b8152600401602060405180830381865afa15801561111d573d6000803e3d6000fd5b505050506040513d601f19601f8201168201806040525081019061114191906116e5565b6111519063ffffffff1685611769565b9050828110156111625790506104c6565b829150506104c6565b6111758133611322565b50565b6000828152602081815260408083206001600160a01b038516845290915290205460ff16610b35576000828152602081815260408083206001600160a01b03851684529091529020805460ff191660011790556111d23390565b6001600160a01b0316816001600160a01b0316837f2f8788117e7eff1d82e926ec794901d17c78024a50270940304540a733656f0d60405160405180910390a45050565b6000828152602081815260408083206001600160a01b038516845290915290205460ff1615610b35576000828152602081815260408083206001600160a01b0385168085529252808320805460ff1916905551339285917ff6391f5c32d9c69d2a47ea670b442974b53935d1edc7fd64eb21e047a839171b9190a45050565b61129d611074565b6001805460ff1916811790557f62e78cea01bee320cd4e420270b5ea74000d11b0c9f74754ebdbfc544b05a258335b6040516001600160a01b03909116815260200160405180910390a1565b6112f1611022565b6001805460ff191690557f5db9ee0a495bf2e6ff9c91a7834c1ba4fdd244a5e8aa4e537bd38aeae4b073aa336112cc565b6000828152602081815260408083206001600160a01b038516845290915290205460ff16610b355761135381611395565b61135e8360206113a7565b60405160200161136f9291906117a4565b60408051601f198184030181529082905262461bcd60e51b8252610bdd91600401611825565b60606104c66001600160a01b03831660145b606060006113b6836002611769565b6113c1906002611743565b67ffffffffffffffff8111156113d9576113d9611858565b6040519080825280601f01601f191660200182016040528015611403576020820181803683370190505b5090507f30000000000000000000000000000000000000000000000000000000000000008160008151811061143a5761143a61186e565b60200101906001600160f81b031916908160001a9053507f7800000000000000000000000000000000000000000000000000000000000000816001815181106114855761148561186e565b60200101906001600160f81b031916908160001a90535060006114a9846002611769565b6114b4906001611743565b90505b6001811115611539577f303132333435363738396162636465660000000000000000000000000000000085600f16601081106114f5576114f561186e565b1a60f81b82828151811061150b5761150b61186e565b60200101906001600160f81b031916908160001a90535060049490941c9361153281611884565b90506114b7565b5083156115885760405162461bcd60e51b815260206004820181905260248201527f537472696e67733a20686578206c656e67746820696e73756666696369656e746044820152606401610bdd565b9392505050565b6000602082840312156115a157600080fd5b81357fffffffff000000000000000000000000000000000000000000000000000000008116811461158857600080fd5b600080604083850312156115e457600080fd5b50508035926020909101359150565b80356001600160a01b038116811461160a57600080fd5b919050565b60006020828403121561162157600080fd5b611588826115f3565b60006020828403121561163c57600080fd5b5035919050565b6000806040838503121561165657600080fd5b82359150611666602084016115f3565b90509250929050565b6000806040838503121561168257600080fd5b61168b836115f3565b946020939093013593505050565b6000602082840312156116ab57600080fd5b813567ffffffffffffffff8116811461158857600080fd5b6000602082840312156116d557600080fd5b8151801515811461158857600080fd5b6000602082840312156116f757600080fd5b815163ffffffff8116811461158857600080fd5b634e487b7160e01b600052601160045260246000fd5b60008261173e57634e487b7160e01b600052601260045260246000fd5b500490565b808201808211156104c6576104c661170b565b818103818111156104c6576104c661170b565b80820281158282048414176104c6576104c661170b565b60005b8381101561179b578181015183820152602001611783565b50506000910152565b7f416363657373436f6e74726f6c3a206163636f756e74200000000000000000008152600083516117dc816017850160208801611780565b7f206973206d697373696e6720726f6c65200000000000000000000000000000006017918401918201528351611819816028840160208801611780565b01602801949350505050565b6020815260008251806020840152611844816040850160208701611780565b601f01601f19169190910160400192915050565b634e487b7160e01b600052604160045260246000fd5b634e487b7160e01b600052603260045260246000fd5b6000816118935761189361170b565b50600019019056fea26469706673582212208bfe4c61da67ab0201caa241720a421db808c61d5820cfde14e7a06f558c7b1164736f6c63430008130033",
  "devdoc": {
    "author": "The Swarm Authors",
    "details": "Allows users to stake tokens in order to be eligible for the Redistribution Schelling co-ordination game. Stakes are frozen or slashed by the Redistribution contract in response to violations of the protocol.",
    "events": {
      "OverlayChanged(address,bytes32)": {
        "details": "Emitted when a address changes overlay it uses"
      },
      "Paused(address)": {
        "details": "Emitted when the pause is triggered by `account`."
      },
      "RoleAdminChanged(bytes32,bytes32,bytes32)": {
        "details": "Emitted when `newAdminRole` is set as ``role``'s admin role, replacing `previousAdminRole` `DEFAULT_ADMIN_ROLE` is the starting admin for all roles, despite {RoleAdminChanged} not being emitted signaling this. _Available since v3.1._"
      },
      "RoleGranted(bytes32,address,address)": {
        "details": "Emitted when `account` is granted `role`. `sender` is the account that originated the contract call, an admin role bearer except when using {AccessControl-_setupRole}."
      },
      "RoleRevoked(bytes32,address,address)": {
        "details": "Emitted when `account` is revoked `role`. `sender` is the account that originated the contract call:   - if using `revokeRole`, it is the admin role bearer   - if using `renounceRole`, it is the role bearer (i.e. `account`)"
      },
      "StakeFrozen(address,bytes32,uint256)": {
        "details": "Emitted when a stake for address `frozen` is frozen for `time` blocks."
      },
      "StakeSlashed(address,bytes32,uint256)": {
        "details": "Emitted when a stake for address `slashed` is slashed by `amount`."
      },
      "StakeUpdated(address,uint256,uint256,bytes32,uint256)": {
        "details": "Emitted when a stake is created or updated by `owner` of the `overlay` by `committedStake`, and `potentialStake` during `lastUpdatedBlock`."
      },
      "StakeWithdrawn(address,uint256)": {
        "details": "Emitted when a stake for address is withdrawn"
      },
      "Unpaused(address)": {
        "details": "Emitted when the pause is lifted by `account`."
      }
    },
    "kind": "dev",
    "methods": {
      "constructor": {
        "params": {
          "_NetworkId": "Swarm network ID",
          "_bzzToken": "Address of the staked ERC20 token"
        }
      },
      "freezeDeposit(address,uint256)": {
        "details": "Freeze an existing stake, can only be called by the redistributor",
        "params": {
          "_owner": "the addres selected",
          "_time": "penalty length in blocknumbers"
        }
      },
      "getRoleAdmin(bytes32)": {
        "details": "Returns the admin role that controls `role`. See {grantRole} and {revokeRole}. To change a role's admin, use {_setRoleAdmin}."
      },
      "grantRole(bytes32,address)": {
        "details": "Grants `role` to `account`. If `account` had not been already granted `role`, emits a {RoleGranted} event. Requirements: - the caller must have ``role``'s admin role. May emit a {RoleGranted} event."
      },
      "hasRole(bytes32,address)": {
        "details": "Returns `true` if `account` has been granted `role`."
      },
      "lastUpdatedBlockNumberOfAddress(address)": {
        "details": "Returns the `lastUpdatedBlockNumber` of `address`."
      },
      "manageStake(bytes32,uint256)": {
        "details": "At least `_initialBalancePerChunk*2^depth` number of tokens need to be preapproved for this contract.",
        "params": {
          "_addAmount": "Deposited amount of ERC20 tokens, equals to added Potential stake value",
          "_setNonce": "Nonce that was used for overlay calculation."
        }
      },
      "migrateStake()": {
        "details": "Migrate stake only when the staking contract is paused, can only be called by the owner of the stake"
      },
      "nodeEffectiveStake(address)": {
        "details": "Returns the current `effectiveStake` of `address`. previously usable stake",
        "params": {
          "_owner": "_owner of node"
        }
      },
      "overlayOfAddress(address)": {
        "details": "Returns the currently used overlay of the address.",
        "params": {
          "_owner": "address of node"
        }
      },
      "pause()": {
        "details": "Pause the contract. The contract is provably stopped by renouncing the pauser role and the admin role after pausing, can only be called by the `PAUSER`"
      },
      "paused()": {
        "details": "Returns true if the contract is paused, and false otherwise."
      },
      "renounceRole(bytes32,address)": {
        "details": "Revokes `role` from the calling account. Roles are often managed via {grantRole} and {revokeRole}: this function's purpose is to provide a mechanism for accounts to lose their privileges if they are compromised (such as when a trusted device is misplaced). If the calling account had been revoked `role`, emits a {RoleRevoked} event. Requirements: - the caller must be `account`. May emit a {RoleRevoked} event."
      },
      "revokeRole(bytes32,address)": {
        "details": "Revokes `role` from `account`. If `account` had been granted `role`, emits a {RoleRevoked} event. Requirements: - the caller must have ``role``'s admin role. May emit a {RoleRevoked} event."
      },
      "slashDeposit(address,uint256)": {
        "details": "Slash an existing stake, can only be called by the `redistributor`",
        "params": {
          "_amount": "the amount to be slashed",
          "_owner": "the _owner adress selected"
        }
      },
      "supportsInterface(bytes4)": {
        "details": "See {IERC165-supportsInterface}."
      },
      "unPause()": {
        "details": "Unpause the contract, can only be called by the pauser when paused"
      },
      "withdrawFromStake()": {
        "details": "Withdraw node stake surplus"
      },
      "withdrawableStake()": {
        "details": "Check the amount that is possible to withdraw as surplus"
      }
    },
    "title": "Staking contract for the Swarm storage incentives",
    "version": 1
  },
  "userdoc": {
    "kind": "user",
    "methods": {
      "manageStake(bytes32,uint256)": {
        "notice": "Create a new stake or update an existing one, change overlay of node"
      }
    },
    "version": 1
  },
  "storageLayout": {
    "storage": [
      {
        "astId": 24,
        "contract": "src/Staking.sol:StakeRegistry",
        "label": "_roles",
        "offset": 0,
        "slot": "0",
        "type": "t_mapping(t_bytes32,t_struct(RoleData)19_storage)"
      },
      {
        "astId": 556,
        "contract": "src/Staking.sol:StakeRegistry",
        "label": "_paused",
        "offset": 0,
        "slot": "1",
        "type": "t_bool"
      },
      {
        "astId": 9727,
        "contract": "src/Staking.sol:StakeRegistry",
        "label": "stakes",
        "offset": 0,
        "slot": "2",
        "type": "t_mapping(t_address,t_struct(Stake)9722_storage)"
      },
      {
        "astId": 9734,
        "contract": "src/Staking.sol:StakeRegistry",
        "label": "NetworkId",
        "offset": 0,
        "slot": "3",
        "type": "t_uint64"
      },
      {
        "astId": 9742,
        "contract": "src/Staking.sol:StakeRegistry",
        "label": "OracleContract",
        "offset": 8,
        "slot": "3",
        "type": "t_contract(IPriceOracle)9708"
      }
    ],
    "types": {
      "t_address": {
        "encoding": "inplace",
        "label": "address",
        "numberOfBytes": "20"
      },
      "t_bool": {
        "encoding": "inplace",
        "label": "bool",
        "numberOfBytes": "1"
      },
      "t_bytes32": {
        "encoding": "inplace",
        "label": "bytes32",
        "numberOfBytes": "32"
      },
      "t_contract(IPriceOracle)9708": {
        "encoding": "inplace",
        "label": "contract IPriceOracle",
        "numberOfBytes": "20"
      },
      "t_mapping(t_address,t_bool)": {
        "encoding": "mapping",
        "key": "t_address",
        "label": "mapping(address => bool)",
        "numberOfBytes": "32",
        "value": "t_bool"
      },
      "t_mapping(t_address,t_struct(Stake)9722_storage)": {
        "encoding": "mapping",
        "key": "t_address",
        "label": "mapping(address => struct StakeRegistry.Stake)",
        "numberOfBytes": "32",
        "value": "t_struct(Stake)9722_storage"
      },
      "t_mapping(t_bytes32,t_struct(RoleData)19_storage)": {
        "encoding": "mapping",
        "key": "t_bytes32",
        "label": "mapping(bytes32 => struct AccessControl.RoleData)",
        "numberOfBytes": "32",
        "value": "t_struct(RoleData)19_storage"
      },
      "t_struct(RoleData)19_storage": {
        "encoding": "inplace",
        "label": "struct AccessControl.RoleData",
        "members": [
          {
            "astId": 16,
            "contract": "src/Staking.sol:StakeRegistry",
            "label": "members",
            "offset": 0,
            "slot": "0",
            "type": "t_mapping(t_address,t_bool)"
          },
          {
            "astId": 18,
            "contract": "src/Staking.sol:StakeRegistry",
            "label": "adminRole",
            "offset": 0,
            "slot": "1",
            "type": "t_bytes32"
          }
        ],
        "numberOfBytes": "64"
      },
      "t_struct(Stake)9722_storage": {
        "encoding": "inplace",
        "label": "struct StakeRegistry.Stake",
        "members": [
          {
            "astId": 9715,
            "contract": "src/Staking.sol:StakeRegistry",
            "label": "overlay",
            "offset": 0,
            "slot": "0",
            "type": "t_bytes32"
          },
          {
            "astId": 9717,
            "contract": "src/Staking.sol:StakeRegistry",
            "label": "committedStake",
            "offset": 0,
            "slot": "1",
            "type": "t_uint256"
          },
          {
            "astId": 9719,
            "contract": "src/Staking.sol:StakeRegistry",
            "label": "potentialStake",
            "offset": 0,
            "slot": "2",
            "type": "t_uint256"
          },
          {
            "astId": 9721,
            "contract": "src/Staking.sol:StakeRegistry",
            "label": "lastUpdatedBlockNumber",
            "offset": 0,
            "slot": "3",
            "type": "t_uint256"
          }
        ],
        "numberOfBytes": "128"
      },
      "t_uint256": {
        "encoding": "inplace",
        "label": "uint256",
        "numberOfBytes": "32"
      },
      "t_uint64": {
        "encoding": "inplace",
        "label": "uint64",
        "numberOfBytes": "8"
      }
    }
  }
}