{
  "address": "0x35A00b2Ce2bf100e4C2dc04FbA72d71c214EEF89",
  "abi": [
    {
      "inputs": [
        {
          "internalType": "address",
          "name": "_bzzToken",
          "type": "address"
        },
        {
          "internalType": "uint8",
          "name": "_minimumBucketDepth",
          "type": "uint8"
        },
        {
          "internalType": "address",
          "name": "multisig",
          "type": "address"
        }
      ],
      "stateMutability": "nonpayable",
      "type": "constructor"
    },
    {
      "inputs": [],
      "name": "AdministratorOnly",
      "type": "error"
    },
    {
      "inputs": [],
      "name": "BatchDoesNotExist",
      "type": "error"
    },
    {
      "inputs": [],
      "name": "BatchExists",
      "type": "error"
    },
    {
      "inputs": [],
      "name": "BatchExpired",
      "type": "error"
    },
    {
      "inputs": [],
      "name": "BatchIsImmutable",
      "type": "error"
    },
    {
      "inputs": [],
      "name": "BatchTooSmall",
      "type": "error"
    },
    {
      "inputs": [],
      "name": "DepthNotIncreasing",
      "type": "error"
    },
    {
      "inputs": [],
      "name": "InsufficienChunkCount",
      "type": "error"
    },
    {
      "inputs": [],
      "name": "InsufficientBalance",
      "type": "error"
    },
    {
      "inputs": [],
      "name": "InvalidDepth",
      "type": "error"
    },
    {
      "inputs": [],
      "name": "NoBatchesExist",
      "type": "error"
    },
    {
      "inputs": [],
      "name": "NotBatchOwner",
      "type": "error"
    },
    {
      "inputs": [],
      "name": "OnlyPauser",
      "type": "error"
    },
    {
      "inputs": [],
      "name": "OnlyRedistributor",
      "type": "error"
    },
    {
      "inputs": [],
      "name": "PriceOracleOnly",
      "type": "error"
    },
    {
      "inputs": [],
      "name": "TotalOutpaymentDecreased",
      "type": "error"
    },
    {
      "inputs": [],
      "name": "TransferFailed",
      "type": "error"
    },
    {
      "inputs": [],
      "name": "ValueCannotBeZero",
      "type": "error"
    },
    {
      "inputs": [],
      "name": "ValueDoesNotExist",
      "type": "error"
    },
    {
      "inputs": [],
      "name": "ValueKeyPairExists",
      "type": "error"
    },
    {
      "inputs": [],
      "name": "ZeroAddress",
      "type": "error"
    },
    {
      "inputs": [],
      "name": "ZeroBalance",
      "type": "error"
    },
    {
      "anonymous": false,
      "inputs": [
        {
          "indexed": true,
          "internalType": "bytes32",
          "name": "batchId",
          "type": "bytes32"
        },
        {
          "indexed": false,
          "internalType": "uint256",
          "name": "totalAmount",
          "type": "uint256"
        },
        {
          "indexed": false,
          "internalType": "uint256",
          "name": "normalisedBalance",
          "type": "uint256"
        },
        {
          "indexed": false,
          "internalType": "address",
          "name": "owner",
          "type": "address"
        },
        {
          "indexed": false,
          "internalType": "uint8",
          "name": "depth",
          "type": "uint8"
        },
        {
          "indexed": false,
          "internalType": "uint8",
          "name": "bucketDepth",
          "type": "uint8"
        },
        {
          "indexed": false,
          "internalType": "bool",
          "name": "immutableFlag",
          "type": "bool"
        }
      ],
      "name": "BatchCreated",
      "type": "event"
    },
    {
      "anonymous": false,
      "inputs": [
        {
          "indexed": true,
          "internalType": "bytes32",
          "name": "batchId",
          "type": "bytes32"
        },
        {
          "indexed": false,
          "internalType": "uint8",
          "name": "newDepth",
          "type": "uint8"
        },
        {
          "indexed": false,
          "internalType": "uint256",
          "name": "normalisedBalance",
          "type": "uint256"
        }
      ],
      "name": "BatchDepthIncrease",
      "type": "event"
    },
    {
      "anonymous": false,
      "inputs": [
        {
          "indexed": true,
          "internalType": "bytes32",
          "name": "batchId",
          "type": "bytes32"
        },
        {
          "indexed": false,
          "internalType": "uint256",
          "name": "topupAmount",
          "type": "uint256"
        },
        {
          "indexed": false,
          "internalType": "uint256",
          "name": "normalisedBalance",
          "type": "uint256"
        }
      ],
      "name": "BatchTopUp",
      "type": "event"
    },
    {
      "anonymous": false,
      "inputs": [
        {
          "indexed": false,
          "internalType": "address",
          "name": "account",
          "type": "address"
        }
      ],
      "name": "Paused",
      "type": "event"
    },
    {
      "anonymous": false,
      "inputs": [
        {
          "indexed": false,
          "internalType": "address",
          "name": "recipient",
          "type": "address"
        },
        {
          "indexed": false,
          "internalType": "uint256",
          "name": "totalAmount",
          "type": "uint256"
        }
      ],
      "name": "PotWithdrawn",
      "type": "event"
    },
    {
      "anonymous": false,
      "inputs": [
        {
          "indexed": false,
          "internalType": "uint256",
          "name": "price",
          "type": "uint256"
        }
      ],
      "name": "PriceUpdate",
      "type": "event"
    },
    {
      "anonymous": false,
      "inputs": [
        {
          "indexed": true,
          "internalType": "bytes32",
          "name": "role",
          "type": "bytes32"
        },
        {
          "indexed": true,
          "internalType": "bytes32",
          "name": "previousAdminRole",
          "type": "bytes32"
        },
        {
          "indexed": true,
          "internalType": "bytes32",
          "name": "newAdminRole",
          "type": "bytes32"
        }
      ],
      "name": "RoleAdminChanged",
      "type": "event"
    },
    {
      "anonymous": false,
      "inputs": [
        {
          "indexed": true,
          "internalType": "bytes32",
          "name": "role",
          "type": "bytes32"
        },
        {
          "indexed": true,
          "internalType": "address",
          "name": "account",
          "type": "address"
        },
        {
          "indexed": true,
          "internalType": "address",
          "name": "sender",
          "type": "address"
        }
      ],
      "name": "RoleGranted",
      "type": "event"
    },
    {
      "anonymous": false,
      "inputs": [
        {
          "indexed": true,
          "internalType": "bytes32",
          "name": "role",
          "type": "bytes32"
        },
        {
          "indexed": true,
          "internalType": "address",
          "name": "account",
          "type": "address"
        },
        {
          "indexed": true,
          "internalType": "address",
          "name": "sender",
          "type": "address"
        }
      ],
      "name": "RoleRevoked",
      "type": "event"
    },
    {
      "anonymous": false,
      "inputs": [
        {
          "indexed": false,
          "internalType": "address",
          "name": "account",
          "type": "address"
        }
      ],
      "name": "Unpaused",
      "type": "event"
    },
    {
      "inputs": [],
      "name": "DEFAULT_ADMIN_ROLE",
      "outputs": [
        {
          "internalType": "bytes32",
          "name": "",
          "type": "bytes32"
        }
      ],
      "stateMutability": "view",
      "type": "function"
    },
    {
      "inputs": [],
      "name": "PAUSER_ROLE",
      "outputs": [
        {
          "internalType": "bytes32",
          "name": "",
          "type": "bytes32"
        }
      ],
      "stateMutability": "view",
      "type": "function"
    },
    {
      "inputs": [],
      "name": "PRICE_ORACLE_ROLE",
      "outputs": [
        {
          "internalType": "bytes32",
          "name": "",
          "type": "bytes32"
        }
      ],
      "stateMutability": "view",
      "type": "function"
    },
    {
      "inputs": [],
      "name": "REDISTRIBUTOR_ROLE",
      "outputs": [
        {
          "internalType": "bytes32",
          "name": "",
          "type": "bytes32"
        }
      ],
      "stateMutability": "view",
      "type": "function"
    },
    {
      "inputs": [
        {
          "internalType": "bytes32",
          "name": "_batchId",
          "type": "bytes32"
        }
      ],
      "name": "batchBucketDepth",
      "outputs": [
        {
          "internalType": "uint8",
          "name": "",
          "type": "uint8"
        }
      ],
      "stateMutability": "view",
      "type": "function"
    },
    {
      "inputs": [
        {
          "internalType": "bytes32",
          "name": "_batchId",
          "type": "bytes32"
        }
      ],
      "name": "batchDepth",
      "outputs": [
        {
          "internalType": "uint8",
          "name": "",
          "type": "uint8"
        }
      ],
      "stateMutability": "view",
      "type": "function"
    },
    {
      "inputs": [
        {
          "internalType": "bytes32",
          "name": "_batchId",
          "type": "bytes32"
        }
      ],
      "name": "batchImmutableFlag",
      "outputs": [
        {
          "internalType": "bool",
          "name": "",
          "type": "bool"
        }
      ],
      "stateMutability": "view",
      "type": "function"
    },
    {
      "inputs": [
        {
          "internalType": "bytes32",
          "name": "_batchId",
          "type": "bytes32"
        }
      ],
      "name": "batchLastUpdatedBlockNumber",
      "outputs": [
        {
          "internalType": "uint256",
          "name": "",
          "type": "uint256"
        }
      ],
      "stateMutability": "view",
      "type": "function"
    },
    {
      "inputs": [
        {
          "internalType": "bytes32",
          "name": "_batchId",
          "type": "bytes32"
        }
      ],
      "name": "batchNormalisedBalance",
      "outputs": [
        {
          "internalType": "uint256",
          "name": "",
          "type": "uint256"
        }
      ],
      "stateMutability": "view",
      "type": "function"
    },
    {
      "inputs": [
        {
          "internalType": "bytes32",
          "name": "_batchId",
          "type": "bytes32"
        }
      ],
      "name": "batchOwner",
      "outputs": [
        {
          "internalType": "address",
          "name": "",
          "type": "address"
        }
      ],
      "stateMutability": "view",
      "type": "function"
    },
    {
      "inputs": [
        {
          "internalType": "bytes32",
          "name": "",
          "type": "bytes32"
        }
      ],
      "name": "batches",
      "outputs": [
        {
          "internalType": "address",
          "name": "owner",
          "type": "address"
        },
        {
          "internalType": "uint8",
          "name": "depth",
          "type": "uint8"
        },
        {
          "internalType": "uint8",
          "name": "bucketDepth",
          "type": "uint8"
        },
        {
          "internalType": "bool",
          "name": "immutableFlag",
          "type": "bool"
        },
        {
          "internalType": "uint256",
          "name": "normalisedBalance",
          "type": "uint256"
        },
        {
          "internalType": "uint256",
          "name": "lastUpdatedBlockNumber",
          "type": "uint256"
        }
      ],
      "stateMutability": "view",
      "type": "function"
    },
    {
      "inputs": [],
      "name": "bzzToken",
      "outputs": [
        {
          "internalType": "address",
          "name": "",
          "type": "address"
        }
      ],
      "stateMutability": "view",
      "type": "function"
    },
    {
      "inputs": [
        {
          "internalType": "address",
          "name": "_owner",
          "type": "address"
        },
        {
          "internalType": "uint256",
          "name": "_initialBalancePerChunk",
          "type": "uint256"
        },
        {
          "internalType": "uint8",
          "name": "_depth",
          "type": "uint8"
        },
        {
          "internalType": "uint8",
          "name": "_bucketDepth",
          "type": "uint8"
        },
        {
          "internalType": "bytes32",
          "name": "_batchId",
          "type": "bytes32"
        },
        {
          "internalType": "bool",
          "name": "_immutable",
          "type": "bool"
        }
      ],
      "name": "copyBatch",
      "outputs": [],
      "stateMutability": "nonpayable",
      "type": "function"
    },
    {
      "inputs": [
        {
          "internalType": "address",
          "name": "_owner",
          "type": "address"
        },
        {
          "internalType": "uint256",
          "name": "_initialBalancePerChunk",
          "type": "uint256"
        },
        {
          "internalType": "uint8",
          "name": "_depth",
          "type": "uint8"
        },
        {
          "internalType": "uint8",
          "name": "_bucketDepth",
          "type": "uint8"
        },
        {
          "internalType": "bytes32",
          "name": "_nonce",
          "type": "bytes32"
        },
        {
          "internalType": "bool",
          "name": "_immutable",
          "type": "bool"
        }
      ],
      "name": "createBatch",
      "outputs": [],
      "stateMutability": "nonpayable",
      "type": "function"
    },
    {
      "inputs": [],
      "name": "currentTotalOutPayment",
      "outputs": [
        {
          "internalType": "uint256",
          "name": "",
          "type": "uint256"
        }
      ],
      "stateMutability": "view",
      "type": "function"
    },
    {
      "inputs": [
        {
          "internalType": "uint256",
          "name": "limit",
          "type": "uint256"
        }
      ],
      "name": "expireLimited",
      "outputs": [],
      "stateMutability": "nonpayable",
      "type": "function"
    },
    {
      "inputs": [],
      "name": "expiredBatchesExist",
      "outputs": [
        {
          "internalType": "bool",
          "name": "",
          "type": "bool"
        }
      ],
      "stateMutability": "view",
      "type": "function"
    },
    {
      "inputs": [],
      "name": "firstBatchId",
      "outputs": [
        {
          "internalType": "bytes32",
          "name": "",
          "type": "bytes32"
        }
      ],
      "stateMutability": "view",
      "type": "function"
    },
    {
      "inputs": [
        {
          "internalType": "bytes32",
          "name": "role",
          "type": "bytes32"
        }
      ],
      "name": "getRoleAdmin",
      "outputs": [
        {
          "internalType": "bytes32",
          "name": "",
          "type": "bytes32"
        }
      ],
      "stateMutability": "view",
      "type": "function"
    },
    {
      "inputs": [
        {
          "internalType": "bytes32",
          "name": "role",
          "type": "bytes32"
        },
        {
          "internalType": "address",
          "name": "account",
          "type": "address"
        }
      ],
      "name": "grantRole",
      "outputs": [],
      "stateMutability": "nonpayable",
      "type": "function"
    },
    {
      "inputs": [
        {
          "internalType": "bytes32",
          "name": "role",
          "type": "bytes32"
        },
        {
          "internalType": "address",
          "name": "account",
          "type": "address"
        }
      ],
      "name": "hasRole",
      "outputs": [
        {
          "internalType": "bool",
          "name": "",
          "type": "bool"
        }
      ],
      "stateMutability": "view",
      "type": "function"
    },
    {
      "inputs": [
        {
          "internalType": "bytes32",
          "name": "_batchId",
          "type": "bytes32"
        },
        {
          "internalType": "uint8",
          "name": "_newDepth",
          "type": "uint8"
        }
      ],
      "name": "increaseDepth",
      "outputs": [],
      "stateMutability": "nonpayable",
      "type": "function"
    },
    {
      "inputs": [],
      "name": "isBatchesTreeEmpty",
      "outputs": [
        {
          "internalType": "bool",
          "name": "",
          "type": "bool"
        }
      ],
      "stateMutability": "view",
      "type": "function"
    },
    {
      "inputs": [],
      "name": "lastExpiryBalance",
      "outputs": [
        {
          "internalType": "uint256",
          "name": "",
          "type": "uint256"
        }
      ],
      "stateMutability": "view",
      "type": "function"
    },
    {
      "inputs": [],
      "name": "lastPrice",
      "outputs": [
        {
          "internalType": "uint64",
          "name": "",
          "type": "uint64"
        }
      ],
      "stateMutability": "view",
      "type": "function"
    },
    {
      "inputs": [],
      "name": "lastUpdatedBlock",
      "outputs": [
        {
          "internalType": "uint64",
          "name": "",
          "type": "uint64"
        }
      ],
      "stateMutability": "view",
      "type": "function"
    },
    {
      "inputs": [],
      "name": "minimumBucketDepth",
      "outputs": [
        {
          "internalType": "uint8",
          "name": "",
          "type": "uint8"
        }
      ],
      "stateMutability": "view",
      "type": "function"
    },
    {
      "inputs": [],
      "name": "minimumInitialBalancePerChunk",
      "outputs": [
        {
          "internalType": "uint256",
          "name": "",
          "type": "uint256"
        }
      ],
      "stateMutability": "view",
      "type": "function"
    },
    {
      "inputs": [],
      "name": "minimumValidityBlocks",
      "outputs": [
        {
          "internalType": "uint64",
          "name": "",
          "type": "uint64"
        }
      ],
      "stateMutability": "view",
      "type": "function"
    },
    {
      "inputs": [],
      "name": "pause",
      "outputs": [],
      "stateMutability": "nonpayable",
      "type": "function"
    },
    {
      "inputs": [],
      "name": "paused",
      "outputs": [
        {
          "internalType": "bool",
          "name": "",
          "type": "bool"
        }
      ],
      "stateMutability": "view",
      "type": "function"
    },
    {
      "inputs": [],
      "name": "pot",
      "outputs": [
        {
          "internalType": "uint256",
          "name": "",
          "type": "uint256"
        }
      ],
      "stateMutability": "view",
      "type": "function"
    },
    {
      "inputs": [
        {
          "internalType": "bytes32",
          "name": "_batchId",
          "type": "bytes32"
        }
      ],
      "name": "remainingBalance",
      "outputs": [
        {
          "internalType": "uint256",
          "name": "",
          "type": "uint256"
        }
      ],
      "stateMutability": "view",
      "type": "function"
    },
    {
      "inputs": [
        {
          "internalType": "bytes32",
          "name": "role",
          "type": "bytes32"
        },
        {
          "internalType": "address",
          "name": "account",
          "type": "address"
        }
      ],
      "name": "renounceRole",
      "outputs": [],
      "stateMutability": "nonpayable",
      "type": "function"
    },
    {
      "inputs": [
        {
          "internalType": "bytes32",
          "name": "role",
          "type": "bytes32"
        },
        {
          "internalType": "address",
          "name": "account",
          "type": "address"
        }
      ],
      "name": "revokeRole",
      "outputs": [],
      "stateMutability": "nonpayable",
      "type": "function"
    },
    {
      "inputs": [
        {
          "internalType": "uint256",
          "name": "_value",
          "type": "uint256"
        }
      ],
      "name": "setMinimumValidityBlocks",
      "outputs": [],
      "stateMutability": "nonpayable",
      "type": "function"
    },
    {
      "inputs": [
        {
          "internalType": "uint256",
          "name": "_price",
          "type": "uint256"
        }
      ],
      "name": "setPrice",
      "outputs": [],
      "stateMutability": "nonpayable",
      "type": "function"
    },
    {
      "inputs": [
        {
          "internalType": "bytes4",
          "name": "interfaceId",
          "type": "bytes4"
        }
      ],
      "name": "supportsInterface",
      "outputs": [
        {
          "internalType": "bool",
          "name": "",
          "type": "bool"
        }
      ],
      "stateMutability": "view",
      "type": "function"
    },
    {
      "inputs": [
        {
          "internalType": "bytes32",
          "name": "_batchId",
          "type": "bytes32"
        },
        {
          "internalType": "uint256",
          "name": "_topupAmountPerChunk",
          "type": "uint256"
        }
      ],
      "name": "topUp",
      "outputs": [],
      "stateMutability": "nonpayable",
      "type": "function"
    },
    {
      "inputs": [],
      "name": "totalPot",
      "outputs": [
        {
          "internalType": "uint256",
          "name": "",
          "type": "uint256"
        }
      ],
      "stateMutability": "nonpayable",
      "type": "function"
    },
    {
      "inputs": [],
      "name": "unPause",
      "outputs": [],
      "stateMutability": "nonpayable",
      "type": "function"
    },
    {
      "inputs": [],
      "name": "validChunkCount",
      "outputs": [
        {
          "internalType": "uint256",
          "name": "",
          "type": "uint256"
        }
      ],
      "stateMutability": "view",
      "type": "function"
    },
    {
      "inputs": [
        {
          "internalType": "address",
          "name": "beneficiary",
          "type": "address"
        }
      ],
      "name": "withdraw",
      "outputs": [],
      "stateMutability": "nonpayable",
      "type": "function"
    }
  ],
  "transactionHash": "0x6324751cd6341a01cdc053e155c2d68e6920890bd951de40907c216c5f54dd16",
  "args": [
    "0x2aC3c1d3e24b45c6C310534Bc2Dd84B5ed576335",
    16,
    "0xb1C7F17Ed88189Abf269Bf68A3B2Ed83C5276aAe"
  ],
  "numDeployments": 1,
  "solcInputHash": "966c96a7df81c4f3d9cb298c62a38164",
  "bytecode": "0x60e060405260098054600160401b600160801b03191669438000000000000000001790553480156200003057600080fd5b50604051620039c9380380620039c98339810160408190526200005391620001e2565b600180546001600160b01b0319166101006001600160a01b0386160260ff60a81b191617600160a81b60ff8516021790557f1337d7d57528a8879766fdf2d0456253114c66c4fc263c97168bfdb007c64c666080527f65d7a28e3265b37a6474929f336521b332c1681b933f6cb9f3376673440d862a60a0527f3e35b14a9f4fef84b59f9bdcd3044fc28783144b7e42bfb2cd075e6a02cb082860c052620000fd60008262000115565b60a0516200010c903362000115565b50505062000233565b62000121828262000125565b5050565b6000828152602081815260408083206001600160a01b038516845290915290205460ff1662000121576000828152602081815260408083206001600160a01b03851684529091529020805460ff19166001179055620001813390565b6001600160a01b0316816001600160a01b0316837f2f8788117e7eff1d82e926ec794901d17c78024a50270940304540a733656f0d60405160405180910390a45050565b80516001600160a01b0381168114620001dd57600080fd5b919050565b600080600060608486031215620001f857600080fd5b6200020384620001c5565b9250602084015160ff811681146200021a57600080fd5b91506200022a60408501620001c5565b90509250925092565b60805160a05160c05161374a6200027f6000396000818161059d01526110bc015260008181610740015281816117d90152611d570152600081816105eb01526118ca015261374a6000f3fe608060405234801561001057600080fd5b50600436106102e95760003560e01c806381e508b911610191578063b998902f116100e3578063dd483cfb11610097578063ea612e1f11610071578063ea612e1f14610762578063f7b188a51461076b578063f90ce5ba1461077357600080fd5b8063dd483cfb146106f8578063df67438514610718578063e63ab1e91461073b57600080fd5b8063d547741f116100c8578063d547741f146106a8578063d71ba7c4146106bb578063d968f44b146106ce57600080fd5b8063b998902f146105e6578063c81e25ab1461060d57600080fd5b806391b7f5ed11610145578063a6471a1d1161011f578063a6471a1d14610598578063a81064ee146105bf578063b67644b9146105d357600080fd5b806391b7f5ed1461054657806391d1485414610559578063a217fddf1461059057600080fd5b80638a5e8e32116101765780638a5e8e321461052d5780638b82547f14610536578063906978421461053e57600080fd5b806381e508b9146105015780638456cb591461052557600080fd5b8063420fc4db1161024a57806351b17cd0116101fe5780635c975abb116101d85780635c975abb146104db578063628de877146104e6578063711bfa2b146104f957600080fd5b806351b17cd0146104ad57806351cff8d9146104b55780635239af71146104c857600080fd5b806347aab79b1161022f57806347aab79b1461047e57806348652ce7146104915780634ba2363a146104a457600080fd5b8063420fc4db1461043c57806344beae8e1461045457600080fd5b8063248a9ca3116102a15780632f2ff15d116102865780632f2ff15d146103da57806332ac57dd146103ed57806336568abe1461042957600080fd5b8063248a9ca3146103a157806324b570a9146103d257600080fd5b80631889b99b116102d25780631889b99b1461034357806318c8572f1461034b5780632182ddb11461036057600080fd5b806301ffc9a7146102ee578063053f14da14610316575b600080fd5b6103016102fc366004613353565b61078e565b60405190151581526020015b60405180910390f35b60095461032a9067ffffffffffffffff1681565b60405167ffffffffffffffff909116815260200161030d565b610301610827565b61035e6103593660046133cb565b610839565b005b61038961036e366004613435565b6000908152600260205260409020546001600160a01b031690565b6040516001600160a01b03909116815260200161030d565b6103c46103af366004613435565b60009081526020819052604090206001015490565b60405190815260200161030d565b6103c4610b6f565b61035e6103e836600461344e565b610c22565b6104176103fb366004613435565b600090815260026020526040902054600160a81b900460ff1690565b60405160ff909116815260200161030d565b61035e61043736600461344e565b610c4c565b6001546103899061010090046001600160a01b031681565b610417610462366004613435565b600090815260026020526040902054600160a01b900460ff1690565b61035e61048c36600461347a565b610cdd565b61035e61049f366004613435565b610fcc565b6103c460075481565b6103c4611062565b61035e6104c336600461349d565b6110ba565b61035e6104d63660046133cb565b611237565b60015460ff16610301565b61035e6104f4366004613435565b611590565b6103016117ae565b6103c461050f366004613435565b6000908152600260208190526040909120015490565b61035e6117d7565b6103c460065481565b6103c461183a565b6103c4611890565b61035e610554366004613435565b6118c8565b61030161056736600461344e565b6000918252602082815260408084206001600160a01b0393909316845291905290205460ff1690565b6103c4600081565b6103c47f000000000000000000000000000000000000000000000000000000000000000081565b60015461041790600160a81b900460ff1681565b61035e6105e13660046134b8565b6119d7565b6103c47f000000000000000000000000000000000000000000000000000000000000000081565b61066861061b366004613435565b60026020819052600091825260409091208054600182015491909201546001600160a01b0383169260ff600160a01b8204811693600160a81b8304821693600160b01b9093049091169186565b604080516001600160a01b0397909716875260ff9586166020880152939094169285019290925215156060840152608083015260a082015260c00161030d565b61035e6106b636600461344e565b611c6b565b6103c46106c9366004613435565b611c90565b6103016106dc366004613435565b600090815260026020526040902054600160b01b900460ff1690565b60095461032a9068010000000000000000900467ffffffffffffffff1681565b6103c4610726366004613435565b60009081526002602052604090206001015490565b6103c47f000000000000000000000000000000000000000000000000000000000000000081565b6103c460085481565b61035e611d55565b60095461032a90600160801b900467ffffffffffffffff1681565b60007fffffffff0000000000000000000000000000000000000000000000000000000082167f7965db0b00000000000000000000000000000000000000000000000000000000148061082157507f01ffc9a7000000000000000000000000000000000000000000000000000000007fffffffff000000000000000000000000000000000000000000000000000000008316145b92915050565b60006108336003611db6565b15919050565b610841611dc6565b3360009081527fad3228b676f7d3cd4284a5443f17f1962b36e491b30a40b2405849e597ba5fb5602052604090205460ff1661089057604051635844c9e760e11b815260040160405180910390fd5b6001600160a01b0386166108b75760405163d92e233d60e01b815260040160405180910390fd5b60ff831615806108cd57508360ff168360ff1610155b156108eb57604051630a0b2c3560e41b815260040160405180910390fd5b6000828152600260205260409020546001600160a01b031615610921576040516311ab459f60e21b815260040160405180910390fd5b6000610933600160ff87161b876134f0565b6001546040516323b872dd60e01b81523360048201523060248201526044810183905291925061010090046001600160a01b0316906323b872dd906064016020604051808303816000875af1158015610990573d6000803e3d6000fd5b505050506040513d601f19601f820116820180604052508101906109b49190613507565b6109d1576040516312171d8360e31b815260040160405180910390fd5b6000866109dc611062565b6109e69190613524565b905080600003610a095760405163334ab3f560e11b815260040160405180910390fd5b610a14600019611590565b8560ff166001901b60066000828254610a2d9190613524565b90915550506040805160c0810182526001600160a01b03808b16825260ff808a1660208085019182528a831685870190815289151560608701908152608087018981524360a0890190815260008e815260029586905299909920975188549551935192511515600160b01b0260ff60b01b19938816600160a81b029390931661ffff60a81b1994909716600160a01b0274ffffffffffffffffffffffffffffffffffffffffff19909616971696909617939093171692909217178355905160018301559151910155610b0160038583611e19565b60408051838152602081018390526001600160a01b038a168183015260ff88811660608301528716608082015284151560a0820152905185917f9b088e2c89b322a3c1d81515e1c88db3d386d022926f0e2d0b9b5813b7413d58919081900360c00190a25050505050505050565b6000610b7c600019611590565b6001546040517f70a0823100000000000000000000000000000000000000000000000000000000815230600482015260009161010090046001600160a01b0316906370a0823190602401602060405180830381865afa158015610be3573d6000803e3d6000fd5b505050506040513d601f19601f82011682018060405250810190610c079190613537565b90508060075410610c185780610c1c565b6007545b91505090565b600082815260208190526040902060010154610c3d8161201c565b610c478383612029565b505050565b6001600160a01b0381163314610ccf5760405162461bcd60e51b815260206004820152602f60248201527f416363657373436f6e74726f6c3a2063616e206f6e6c792072656e6f756e636560448201527f20726f6c657320666f722073656c66000000000000000000000000000000000060648201526084015b60405180910390fd5b610cd982826120c7565b5050565b610ce5611dc6565b600082815260026020818152604092839020835160c08101855281546001600160a01b03811680835260ff600160a01b8304811695840195909552600160a81b8204851696830196909652600160b01b900490921615156060830152600181015460808301529091015460a0820152903314610d8d576040517fb72bcb2f00000000000000000000000000000000000000000000000000000000815260040160405180910390fd5b60015460ff808416600160a81b90920416108015610db457508160ff16816020015160ff16105b610dea576040517fd5fd03fc00000000000000000000000000000000000000000000000000000000815260040160405180910390fd5b806060015115610e26576040517f42b69b8e00000000000000000000000000000000000000000000000000000000815260040160405180910390fd5b610e2e611062565b816080015111610e51576040516368aebbc560e01b815260040160405180910390fd5b6000816020015183610e639190613550565b90506000600160ff83161b610e7786611c90565b610e819190613569565b9050610e8b611890565b811015610eab57604051631e9acf1760e31b815260040160405180910390fd5b610eb6600019611590565b826020015160ff166001901b8460ff166001901b610ed4919061358b565b60066000828254610ee59190613524565b90915550506080830151610efd906003908790612146565b600085815260026020819052604090912080547fffffffffffffffffffffff00ffffffffffffffffffffffffffffffffffffffff16600160a01b60ff8816021781554391015580610f4c611062565b610f569190613524565b6080840181815260008781526002602052604090206001019190915551610f81906003908790611e19565b60808301516040805160ff87168152602081019290925286917faf27998ec15e9d3809edad41aec1b5551d8412e71bd07c91611a0237ead1dc8e910160405180910390a25050505050565b3360009081527fad3228b676f7d3cd4284a5443f17f1962b36e491b30a40b2405849e597ba5fb5602052604090205460ff1661101b57604051635844c9e760e11b815260040160405180910390fd5b6009805467ffffffffffffffff90921668010000000000000000027fffffffffffffffffffffffffffffffff0000000000000000ffffffffffffffff909216919091179055565b600954600090819061108590600160801b900467ffffffffffffffff164361358b565b6009549091506000906110a390839067ffffffffffffffff166134f0565b9050806005546110b39190613524565b9250505090565b7f000000000000000000000000000000000000000000000000000000000000000060009081526020818152604080832033845290915290205460ff1661112c576040517f24876df800000000000000000000000000000000000000000000000000000000815260040160405180910390fd5b6000611136610b6f565b6001546040517fa9059cbb0000000000000000000000000000000000000000000000000000000081526001600160a01b038581166004830152602482018490529293506101009091049091169063a9059cbb906044016020604051808303816000875af11580156111ab573d6000803e3d6000fd5b505050506040513d601f19601f820116820180604052508101906111cf9190613507565b6111ec576040516312171d8360e31b815260040160405180910390fd5b604080516001600160a01b0384168152602081018390527ff5d8f9b1e7af440e1e7915f4693ccc004d1461a7dafd17ea7347d03decf298e1910160405180910390a150506000600755565b61123f611dc6565b6001600160a01b0386166112665760405163d92e233d60e01b815260040160405180910390fd5b60ff83161580611285575060015460ff600160a81b9091048116908416105b8061129657508360ff168360ff1610155b156112b457604051630a0b2c3560e41b815260040160405180910390fd5b6040805133602082015290810183905260009060600160408051601f198184030181529181528151602092830120600081815260029093529120549091506001600160a01b031615611319576040516311ab459f60e21b815260040160405180910390fd5b611321611890565b86101561134157604051631e9acf1760e31b815260040160405180910390fd5b6000611353600160ff88161b886134f0565b6001546040516323b872dd60e01b81523360048201523060248201526044810183905291925061010090046001600160a01b0316906323b872dd906064016020604051808303816000875af11580156113b0573d6000803e3d6000fd5b505050506040513d601f19601f820116820180604052508101906113d49190613507565b6113f1576040516312171d8360e31b815260040160405180910390fd5b6000876113fc611062565b6114069190613524565b9050806000036114295760405163334ab3f560e11b815260040160405180910390fd5b611434600019611590565b8660ff166001901b6006600082825461144d9190613524565b90915550506040805160c0810182526001600160a01b03808c16825260ff808b1660208085019182528b83168587019081528a151560608701908152608087018981524360a0890190815260008d815260029586905299909920975188549551935192511515600160b01b0260ff60b01b19938816600160a81b029390931661ffff60a81b1994909716600160a01b0274ffffffffffffffffffffffffffffffffffffffffff1990961697169690961793909317169290921717835590516001830155915191015561152160038483611e19565b60408051838152602081018390526001600160a01b038b168183015260ff89811660608301528816608082015285151560a0820152905184917f9b088e2c89b322a3c1d81515e1c88db3d386d022926f0e2d0b9b5813b7413d58919081900360c00190a2505050505050505050565b60085460005b8281101561173c576115a6610827565b156115bb576115b3611062565b60085561173c565b60006115c561183a565b905060006115d282611c90565b11156115e9576115e0611062565b6008555061173c565b600081815260026020818152604092839020835160c08101855281546001600160a01b038116825260ff600160a01b82048116948301859052600160a81b8204811696830196909652600160b01b900490941615156060850152600180820154608086015292015460a084015260065491901b90811115611696576040517f9b02220b00000000000000000000000000000000000000000000000000000000815260040160405180910390fd5b80600660008282546116a8919061358b565b909155505060808201516116bd90869061358b565b6116c790826134f0565b600760008282546116d89190613524565b909155505060808201516116f0906003908590612146565b50506000908152600260208190526040822080547fffffffffffffffffff0000000000000000000000000000000000000000000000168155600180820184905591019190915501611596565b816008541015611778576040517f530da97a00000000000000000000000000000000000000000000000000000000815260040160405180910390fd5b81600854611786919061358b565b60065461179391906134f0565b600760008282546117a49190613524565b9091555050505050565b60006117b8610827565b156117c35750600090565b60006117d06106c961183a565b1115905090565b7f000000000000000000000000000000000000000000000000000000000000000060009081526020818152604080832033845290915290205460ff1661183057604051631d77d47760e21b815260040160405180910390fd5b611838612497565b565b60008061184760036124eb565b905080600003611883576040517f46c83ec800000000000000000000000000000000000000000000000000000000815260040160405180910390fd5b610c1c6003826000612532565b6009546000906118b99067ffffffffffffffff808216916801000000000000000090041661359e565b67ffffffffffffffff16905090565b7f000000000000000000000000000000000000000000000000000000000000000060009081526020818152604080832033845290915290205460ff1661193a576040517fea0f601b00000000000000000000000000000000000000000000000000000000815260040160405180910390fd5b60095467ffffffffffffffff161561195857611954611062565b6005555b600980544367ffffffffffffffff908116600160801b027fffffffffffffffff0000000000000000ffffffffffffffff0000000000000000909216908416171790556040517fae46785019700e30375a5d7b4f91e32f8060ef085111f896ebf889450aa2ab5a906119cc9083815260200190565b60405180910390a150565b6119df611dc6565b600082815260026020818152604092839020835160c08101855281546001600160a01b03811680835260ff600160a01b8304811695840195909552600160a81b8204851696830196909652600160b01b900490921615156060830152600181015460808301529091015460a082015290611a6c57604051634ee9bc0f60e01b815260040160405180910390fd5b611a74611062565b816080015111611a97576040516368aebbc560e01b815260040160405180910390fd5b600154602082015160ff600160a81b9092048216911611611ae4576040517f7103b80500000000000000000000000000000000000000000000000000000000815260040160405180910390fd5b611aec611890565b82611af685611c90565b611b009190613524565b1015611b1f57604051631e9acf1760e31b815260040160405180910390fd5b6000816020015160ff166001901b83611b3891906134f0565b6001546040516323b872dd60e01b81523360048201523060248201526044810183905291925061010090046001600160a01b0316906323b872dd906064016020604051808303816000875af1158015611b95573d6000803e3d6000fd5b505050506040513d601f19601f82011682018060405250810190611bb99190613507565b611bd6576040516312171d8360e31b815260040160405180910390fd5b6080820151611be9906003908690612146565b828260800151611bf99190613524565b60808301819052611c0e906003908690611e19565b60808201805160008681526002602090815260409182902060010192909255915182518481529182015285917faf5756c62d6c0722ef9be1f82bef97ab06ea5aea7f3eb8ad348422079f01d88d910160405180910390a250505050565b600082815260208190526040902060010154611c868161201c565b610c4783836120c7565b6000818152600260208181526040808420815160c08101835281546001600160a01b03811680835260ff600160a01b8304811696840196909652600160a81b8204861694830194909452600160b01b900490931615156060840152600181015460808401529092015460a082015290611d1c57604051634ee9bc0f60e01b815260040160405180910390fd5b611d24611062565b816080015111611d375750600092915050565b611d3f611062565b8160800151611d4e919061358b565b9392505050565b7f000000000000000000000000000000000000000000000000000000000000000060009081526020818152604080832033845290915290205460ff16611dae57604051631d77d47760e21b815260040160405180910390fd5b611838612594565b60006108218283600001546125cd565b60015460ff16156118385760405162461bcd60e51b815260206004820152601060248201527f5061757361626c653a20706175736564000000000000000000000000000000006044820152606401610cc6565b80611e37576040516363868c5560e11b815260040160405180910390fd5b611e428383836125f9565b15611e79576040517f6082d5c100000000000000000000000000000000000000000000000000000000815260040160405180910390fd5b82546000905b8015611f5d5780915080831015611ea9576000908152600180860160205260409091200154611f34565b80831115611eca576000908152600185016020526040902060020154611f34565b808303611f34576000818152600180870160209081526040832060040180548084018255818552918420909101879055918390529054611f0a919061358b565b60009182526001909501602090815260408083209583526005909501905292909220929092555050565b60008281526001860160205260408120600601805491611f53836135ca565b9190505550611e7f565b600083815260018087016020908152604083208581558083018490556002810184905560038101805460ff1916841790556004810180548085018255818652929094209091018790559154611fb2919061358b565b600086815260058301602052604090205582611fd05783865561200a565b82841015611ff3576000838152600180880160205260409091200184905561200a565b600083815260018701602052604090206002018490555b612014868561265f565b505050505050565b61202681336128c7565b50565b6000828152602081815260408083206001600160a01b038516845290915290205460ff16610cd9576000828152602081815260408083206001600160a01b03851684529091529020805460ff191660011790556120833390565b6001600160a01b0316816001600160a01b0316837f2f8788117e7eff1d82e926ec794901d17c78024a50270940304540a733656f0d60405160405180910390a45050565b6000828152602081815260408083206001600160a01b038516845290915290205460ff1615610cd9576000828152602081815260408083206001600160a01b0385168085529252808320805460ff1916905551339285917ff6391f5c32d9c69d2a47ea670b442974b53935d1edc7fd64eb21e047a839171b9190a45050565b80612164576040516363868c5560e11b815260040160405180910390fd5b61216f8383836125f9565b61218c57604051635889b1c560e11b815260040160405180910390fd5b60008181526001808501602090815260408084208685526005810190925283205460048201805492949193919290916121c49161358b565b815481106121d4576121d46135e3565b90600052602060002001549050808360040183815481106121f7576121f76135e3565b600091825260208083209091019290925582815260058501909152604090208290556004830180548061222c5761222c6135f9565b60019003818190600052602060002001600090559055600080846004018054905060000361248d5760008681526001808a0160205260409091200154158061228557506000868152600189016020526040902060020154155b156122915750846122d9565b5060008581526001880160205260409020600201545b60008181526001808a0160205260409091200154156122d95760009081526001808901602052604090912001546122a7565b60008181526001808a01602052604090912001541561230d5760008181526001808a01602052604090912001549150612324565b600081815260018901602052604090206002015491505b600081815260018901602052604080822054848352912081905580156123945760008181526001808b016020526040909120015482036123795760008181526001808b01602052604090912001839055612398565b600081815260018a0160205260409020600201839055612398565b8289555b600082815260018a01602052604090206003015460ff161587831461242b576123c28a848a61293a565b600088815260018b8101602052604080832080830154878552828520938401819055845281842087905560028082015490840181905584529083208690556003908101549286905201805460ff191660ff909216151591909117905591969161242b8a896129b3565b801561243b5761243b8a85612a20565b6124458a836129b3565b60008381526001808c01602052604082208281559081018290556002810182905560038101805460ff19169055906124806004830182613321565b6006820160009055505050505b5050505050505050565b61249f611dc6565b6001805460ff1916811790557f62e78cea01bee320cd4e420270b5ea74000d11b0c9f74754ebdbfc544b05a258335b6040516001600160a01b03909116815260200160405180910390a1565b8054806124fa57506000919050565b5b60008181526001808401602052604090912001541561252d5760009081526001808301602052604090912001546124fb565b919050565b600061253e8484612e39565b61255b57604051635889b1c560e11b815260040160405180910390fd5b60008381526001850160205260409020600401805483908110612580576125806135e3565b906000526020600020015490509392505050565b61259c612e7f565b6001805460ff191690557f5db9ee0a495bf2e6ff9c91a7834c1ba4fdd244a5e8aa4e537bd38aeae4b073aa336124ce565b60008181526001830160205260408120600681015460048201546125f19190613524565b949350505050565b60006126058483612e39565b61261157506000611d4e565b60008281526001850160209081526040808320868452600581019092529091205460049091018054859290811061264a5761264a6135e3565b90600052602060002001541490509392505050565b60005b8254821480159061268c5750600082815260018401602052604080822054825290206003015460ff165b156128a557600082815260018085016020526040808320548084528184205484529220015481036127ad5760008181526001850160205260408082205482528082206002015480835291206003015490925060ff1615612734576000818152600180860160205260408083206003808201805460ff1990811690915587865283862082018054821690558254865292852001805490921690921790559082905254925061289f565b6000818152600185016020526040902060020154830361275b5780925061275b8484612ed1565b50600082815260018085016020526040808320548084528184206003808201805460ff199081169091558254875293862001805490931690931790915591829052546127a890859061304e565b61289f565b6000818152600180860160205260408083205483528083209091015480835291206003015490925060ff161561282b576000818152600180860160205260408083206003808201805460ff1990811690915587865283862082018054821690558254865292852001805490921690921790559082905254925061289f565b6000818152600180860160205260409091200154830361285257809250612852848461304e565b50600082815260018085016020526040808320548084528184206003808201805460ff1990811690915582548752938620018054909316909317909155918290525461289f908590612ed1565b50612662565b505080546000908152600190910160205260409020600301805460ff19169055565b6000828152602081815260408083206001600160a01b038516845290915290205460ff16610cd9576128f88161312e565b612903836020613140565b604051602001612914929190613633565b60408051601f198184030181529082905262461bcd60e51b8252610cc6916004016136b4565b600081815260018401602052604080822054848352912081905580612961578284556129ad565b6000818152600180860160205260409091200154820361299657600081815260018086016020526040909120018390556129ad565b600081815260018501602052604090206002018390555b50505050565b8015610cd95760008181526001830160205260409020600201546129d89083906125cd565b60008281526001808501602052604090912001546129f79084906125cd565b612a019190613524565b60009182526001830160205260409091206006810191909155546129b3565b60005b82548214801590612a485750600082815260018401602052604090206003015460ff16155b15612e1a5760008281526001808501602052604080832054808452922001548303612c435760008181526001850160205260408082206002015480835291206003015490925060ff1615612aeb576000828152600180860160205260408083206003908101805460ff19908116909155858552919093209092018054909216179055612ad48482612ed1565b600081815260018501602052604090206002015491505b60008281526001808601602052604080832090910154825290206003015460ff16158015612b365750600082815260018501602052604080822060020154825290206003015460ff16155b15612b6357600082815260018581016020526040909120600301805460ff19169091179055915081612e14565b600082815260018501602052604080822060020154825290206003015460ff16612be0576000828152600180860160205260408083208083015484529083206003908101805460ff1990811690915593869052018054909216179055612bc9848361304e565b600081815260018501602052604090206002015491505b600081815260018501602052604080822060039081018054868552838520808401805460ff909316151560ff199384161790558254821690925560029091015484529190922090910180549091169055612c3a8482612ed1565b83549250612e14565b6000818152600180860160205260408083209091015480835291206003015490925060ff1615612cc2576000828152600180860160205260408083206003908101805460ff19908116909155858552919093209092018054909216179055612cab848261304e565b600081815260018086016020526040909120015491505b600082815260018501602052604080822060020154825290206003015460ff16158015612d0d575060008281526001808601602052604080832090910154825290206003015460ff16155b15612d3a57600082815260018581016020526040909120600301805460ff19169091179055915081612e14565b60008281526001808601602052604080832090910154825290206003015460ff16612db957600082815260018086016020526040808320600281015484529083206003908101805460ff1990811690915593869052018054909216179055612da28483612ed1565b600081815260018086016020526040909120015491505b60008181526001808601602052604080832060039081018054878652838620808401805460ff909316151560ff19938416179055825482169092559301548452922090910180549091169055612e0f848261304e565b835492505b50612a23565b506000908152600190910160205260409020600301805460ff19169055565b600081612e4857506000610821565b82548203612e5857506001610821565b600082815260018401602052604090205415612e7657506001610821565b50600092915050565b60015460ff166118385760405162461bcd60e51b815260206004820152601460248201527f5061757361626c653a206e6f74207061757365640000000000000000000000006044820152606401610cc6565b600081815260018084016020526040808320600281018054915482865292852090930154938590529183905590918015612f1957600081815260018601602052604090208490555b6000838152600186016020526040902082905581612f3957828555612f85565b60008281526001808701602052604090912001548403612f6e5760008281526001808701602052604090912001839055612f85565b600082815260018601602052604090206002018390555b600083815260018087016020526040808320909101869055858252902083815560020154612fb49086906125cd565b6000858152600180880160205260409091200154612fd39087906125cd565b612fdd9190613524565b60008581526001870160205260408082206006019290925584815220600201546130089086906125cd565b60008481526001808801602052604090912001546130279087906125cd565b6130319190613524565b600093845260019095016020525050604090206006019190915550565b6000818152600180840160205260408083209182018054925483855291842060020154938590528390559091801561309457600081815260018601602052604090208490555b60008381526001860160205260409020829055816130b457828555613100565b600082815260018601602052604090206002015484036130e95760008281526001860160205260409020600201839055613100565b600082815260018087016020526040909120018390555b6000838152600186016020526040808220600290810187905586835291208481550154612fb49086906125cd565b60606108216001600160a01b03831660145b6060600061314f8360026134f0565b61315a906002613524565b67ffffffffffffffff811115613172576131726136e7565b6040519080825280601f01601f19166020018201604052801561319c576020820181803683370190505b5090507f3000000000000000000000000000000000000000000000000000000000000000816000815181106131d3576131d36135e3565b60200101906001600160f81b031916908160001a9053507f78000000000000000000000000000000000000000000000000000000000000008160018151811061321e5761321e6135e3565b60200101906001600160f81b031916908160001a90535060006132428460026134f0565b61324d906001613524565b90505b60018111156132d2577f303132333435363738396162636465660000000000000000000000000000000085600f166010811061328e5761328e6135e3565b1a60f81b8282815181106132a4576132a46135e3565b60200101906001600160f81b031916908160001a90535060049490941c936132cb816136fd565b9050613250565b508315611d4e5760405162461bcd60e51b815260206004820181905260248201527f537472696e67733a20686578206c656e67746820696e73756666696369656e746044820152606401610cc6565b508054600082559060005260206000209081019061202691905b8082111561334f576000815560010161333b565b5090565b60006020828403121561336557600080fd5b81357fffffffff0000000000000000000000000000000000000000000000000000000081168114611d4e57600080fd5b80356001600160a01b038116811461252d57600080fd5b803560ff8116811461252d57600080fd5b801515811461202657600080fd5b60008060008060008060c087890312156133e457600080fd5b6133ed87613395565b955060208701359450613402604088016133ac565b9350613410606088016133ac565b92506080870135915060a0870135613427816133bd565b809150509295509295509295565b60006020828403121561344757600080fd5b5035919050565b6000806040838503121561346157600080fd5b8235915061347160208401613395565b90509250929050565b6000806040838503121561348d57600080fd5b82359150613471602084016133ac565b6000602082840312156134af57600080fd5b611d4e82613395565b600080604083850312156134cb57600080fd5b50508035926020909101359150565b634e487b7160e01b600052601160045260246000fd5b8082028115828204841417610821576108216134da565b60006020828403121561351957600080fd5b8151611d4e816133bd565b80820180821115610821576108216134da565b60006020828403121561354957600080fd5b5051919050565b60ff8281168282160390811115610821576108216134da565b60008261358657634e487b7160e01b600052601260045260246000fd5b500490565b81810381811115610821576108216134da565b67ffffffffffffffff8181168382160280821691908281146135c2576135c26134da565b505092915050565b6000600182016135dc576135dc6134da565b5060010190565b634e487b7160e01b600052603260045260246000fd5b634e487b7160e01b600052603160045260246000fd5b60005b8381101561362a578181015183820152602001613612565b50506000910152565b7f416363657373436f6e74726f6c3a206163636f756e742000000000000000000081526000835161366b81601785016020880161360f565b7f206973206d697373696e6720726f6c652000000000000000000000000000000060179184019182015283516136a881602884016020880161360f565b01602801949350505050565b60208152600082518060208401526136d381604085016020870161360f565b601f01601f19169190910160400192915050565b634e487b7160e01b600052604160045260246000fd5b60008161370c5761370c6134da565b50600019019056fea2646970667358221220283b23fcd56305033e2a7f5cc39570577c6625b4253446167e2cd539c47a718b64736f6c63430008130033",
  "devdoc": {
    "author": "The Swarm Authors",
    "details": "The postage stamp contracts allows users to create and manage postage stamp batches. The current balance for each batch is stored ordered in descending order of normalised balance. Balance is normalised to be per chunk and the total spend since the contract was deployed, i.e. when a batch is bought, its per-chunk balance is supplemented with the current cost of storing one chunk since the beginning of time, as if the batch had existed since the contract's inception. During the _expiry_ process, each of these balances is checked against the _currentTotalOutPayment_, a similarly normalised figure that represents the current cost of storing one chunk since the beginning of time. A batch with a normalised balance less than _currentTotalOutPayment_ is treated as expired. The _currentTotalOutPayment_ is calculated using _totalOutPayment_ which is updated during _setPrice_ events so that the applicable per-chunk prices can be charged for the relevant periods of time. This can then be multiplied by the amount of chunks which are allowed to be stamped by each batch to get the actual cost of storage. The amount of chunks a batch can stamp is determined by the _bucketDepth_. A batch may store a maximum of 2^depth chunks. The global figure for the currently allowed chunks is tracked by _validChunkCount_ and updated during batch _expiry_ events.",
    "events": {
      "BatchCreated(bytes32,uint256,uint256,address,uint8,uint8,bool)": {
        "details": "Emitted when a new batch is created."
      },
      "BatchDepthIncrease(bytes32,uint8,uint256)": {
        "details": "Emitted when the depth of an existing batch increases."
      },
      "BatchTopUp(bytes32,uint256,uint256)": {
        "details": "Emitted when an existing batch is topped up."
      },
      "Paused(address)": {
        "details": "Emitted when the pause is triggered by `account`."
      },
      "PotWithdrawn(address,uint256)": {
        "details": "Emitted when an pot is Withdrawn."
      },
      "PriceUpdate(uint256)": {
        "details": "Emitted on every price update."
      },
      "RoleAdminChanged(bytes32,bytes32,bytes32)": {
        "details": "Emitted when `newAdminRole` is set as ``role``'s admin role, replacing `previousAdminRole` `DEFAULT_ADMIN_ROLE` is the starting admin for all roles, despite {RoleAdminChanged} not being emitted signaling this. _Available since v3.1._"
      },
      "RoleGranted(bytes32,address,address)": {
        "details": "Emitted when `account` is granted `role`. `sender` is the account that originated the contract call, an admin role bearer except when using {AccessControl-_setupRole}."
      },
      "RoleRevoked(bytes32,address,address)": {
        "details": "Emitted when `account` is revoked `role`. `sender` is the account that originated the contract call:   - if using `revokeRole`, it is the admin role bearer   - if using `renounceRole`, it is the role bearer (i.e. `account`)"
      },
      "Unpaused(address)": {
        "details": "Emitted when the pause is lifted by `account`."
      }
    },
    "kind": "dev",
    "methods": {
      "constructor": {
        "params": {
          "_bzzToken": "The ERC20 token address to reference in this contract.",
          "_minimumBucketDepth": "The minimum bucket depth of batches that can be purchased."
        }
      },
      "copyBatch(address,uint256,uint8,uint8,bytes32,bool)": {
        "details": "At least `_initialBalancePerChunk*2^depth` tokens must be approved in the ERC20 token contract.",
        "params": {
          "_batchId": "BatchId being copied (from previous version contract data).",
          "_depth": "Initial depth of the new batch.",
          "_immutable": "Whether the batch is mutable.",
          "_initialBalancePerChunk": "Initial balance per chunk of the batch.",
          "_owner": "Owner of the new batch."
        }
      },
      "createBatch(address,uint256,uint8,uint8,bytes32,bool)": {
        "details": "At least `_initialBalancePerChunk*2^depth` tokens must be approved in the ERC20 token contract.",
        "params": {
          "_depth": "Initial depth of the new batch.",
          "_immutable": "Whether the batch is mutable.",
          "_initialBalancePerChunk": "Initial balance per chunk.",
          "_nonce": "A random value used in the batch id derivation to allow multiple batches per owner.",
          "_owner": "Owner of the new batch."
        }
      },
      "currentTotalOutPayment()": {
        "details": "Returns the total normalised all-time per chunk payout. Only Batches with a normalised balance greater than this are valid."
      },
      "expireLimited(uint256)": {
        "details": "Can be used if reclaiming all expired batches would exceed the block gas limit, causing other contract method calls to fail.",
        "params": {
          "limit": "The maximum number of batches to expire."
        }
      },
      "firstBatchId()": {
        "details": "If more than one batch id, return index at 0, if no batches, revert."
      },
      "getRoleAdmin(bytes32)": {
        "details": "Returns the admin role that controls `role`. See {grantRole} and {revokeRole}. To change a role's admin, use {_setRoleAdmin}."
      },
      "grantRole(bytes32,address)": {
        "details": "Grants `role` to `account`. If `account` had not been already granted `role`, emits a {RoleGranted} event. Requirements: - the caller must have ``role``'s admin role. May emit a {RoleGranted} event."
      },
      "hasRole(bytes32,address)": {
        "details": "Returns `true` if `account` has been granted `role`."
      },
      "increaseDepth(bytes32,uint8)": {
        "details": "Can only be called by the owner of the batch.",
        "params": {
          "_batchId": "the id of an existing batch.",
          "_newDepth": "the new (larger than the previous one) depth for this batch."
        }
      },
      "pause()": {
        "details": "Can only be called by the pauser when not paused. The contract can be provably stopped by renouncing the pauser role and the admin role once paused."
      },
      "paused()": {
        "details": "Returns true if the contract is paused, and false otherwise."
      },
      "remainingBalance(bytes32)": {
        "params": {
          "_batchId": "The id of an existing batch."
        }
      },
      "renounceRole(bytes32,address)": {
        "details": "Revokes `role` from the calling account. Roles are often managed via {grantRole} and {revokeRole}: this function's purpose is to provide a mechanism for accounts to lose their privileges if they are compromised (such as when a trusted device is misplaced). If the calling account had been revoked `role`, emits a {RoleRevoked} event. Requirements: - the caller must be `account`. May emit a {RoleRevoked} event."
      },
      "revokeRole(bytes32,address)": {
        "details": "Revokes `role` from `account`. If `account` had been granted `role`, emits a {RoleRevoked} event. Requirements: - the caller must have ``role``'s admin role. May emit a {RoleRevoked} event."
      },
      "setPrice(uint256)": {
        "details": "Can only be called by the price oracle role.",
        "params": {
          "_price": "The new price."
        }
      },
      "supportsInterface(bytes4)": {
        "details": "See {IERC165-supportsInterface}."
      },
      "topUp(bytes32,uint256)": {
        "details": "At least `_topupAmountPerChunk*2^depth` tokens must be approved in the ERC20 token contract.",
        "params": {
          "_batchId": "The id of an existing batch.",
          "_topupAmountPerChunk": "The amount of additional tokens to add per chunk."
        }
      },
      "unPause()": {
        "details": "Can only be called by the pauser role while paused."
      },
      "withdraw(address)": {
        "params": {
          "beneficiary": "Recieves the current total pot."
        }
      }
    },
    "title": "PostageStamp contract",
    "version": 1
  },
  "userdoc": {
    "kind": "user",
    "methods": {
      "copyBatch(address,uint256,uint8,uint8,bytes32,bool)": {
        "notice": "Manually create a new batch when facilitating migration, can only be called by the Admin role."
      },
      "createBatch(address,uint256,uint8,uint8,bytes32,bool)": {
        "notice": "Create a new batch."
      },
      "currentTotalOutPayment()": {
        "notice": "Total per-chunk cost since the contract's deployment."
      },
      "expireLimited(uint256)": {
        "notice": "Reclaims a limited number of expired batches"
      },
      "expiredBatchesExist()": {
        "notice": "Indicates whether expired batches exist."
      },
      "firstBatchId()": {
        "notice": "Get the first batch id ordered by ascending normalised balance."
      },
      "increaseDepth(bytes32,uint8)": {
        "notice": "Increase the depth of an existing batch."
      },
      "isBatchesTreeEmpty()": {
        "notice": "Return true if no batches exist"
      },
      "pause()": {
        "notice": "Pause the contract."
      },
      "remainingBalance(bytes32)": {
        "notice": "Return the per chunk balance not yet used up."
      },
      "setPrice(uint256)": {
        "notice": "Set a new price."
      },
      "topUp(bytes32,uint256)": {
        "notice": "Top up an existing batch."
      },
      "totalPot()": {
        "notice": "The current pot."
      },
      "unPause()": {
        "notice": "Unpause the contract."
      },
      "withdraw(address)": {
        "notice": "Withdraw the pot, authorised callers only."
      }
    },
    "version": 1
  },
  "storageLayout": {
    "storage": [
      {
        "astId": 24,
        "contract": "src/PostageStamp.sol:PostageStamp",
        "label": "_roles",
        "offset": 0,
        "slot": "0",
        "type": "t_mapping(t_bytes32,t_struct(RoleData)19_storage)"
      },
      {
        "astId": 556,
        "contract": "src/PostageStamp.sol:PostageStamp",
        "label": "_paused",
        "offset": 0,
        "slot": "1",
        "type": "t_bool"
      },
      {
        "astId": 5326,
        "contract": "src/PostageStamp.sol:PostageStamp",
        "label": "bzzToken",
        "offset": 1,
        "slot": "1",
        "type": "t_address"
      },
      {
        "astId": 5328,
        "contract": "src/PostageStamp.sol:PostageStamp",
        "label": "minimumBucketDepth",
        "offset": 21,
        "slot": "1",
        "type": "t_uint8"
      },
      {
        "astId": 5339,
        "contract": "src/PostageStamp.sol:PostageStamp",
        "label": "batches",
        "offset": 0,
        "slot": "2",
        "type": "t_mapping(t_bytes32,t_struct(Batch)5370_storage)"
      },
      {
        "astId": 5342,
        "contract": "src/PostageStamp.sol:PostageStamp",
        "label": "tree",
        "offset": 0,
        "slot": "3",
        "type": "t_struct(Tree)3295_storage"
      },
      {
        "astId": 5344,
        "contract": "src/PostageStamp.sol:PostageStamp",
        "label": "totalOutPayment",
        "offset": 0,
        "slot": "5",
        "type": "t_uint256"
      },
      {
        "astId": 5346,
        "contract": "src/PostageStamp.sol:PostageStamp",
        "label": "validChunkCount",
        "offset": 0,
        "slot": "6",
        "type": "t_uint256"
      },
      {
        "astId": 5348,
        "contract": "src/PostageStamp.sol:PostageStamp",
        "label": "pot",
        "offset": 0,
        "slot": "7",
        "type": "t_uint256"
      },
      {
        "astId": 5350,
        "contract": "src/PostageStamp.sol:PostageStamp",
        "label": "lastExpiryBalance",
        "offset": 0,
        "slot": "8",
        "type": "t_uint256"
      },
      {
        "astId": 5352,
        "contract": "src/PostageStamp.sol:PostageStamp",
        "label": "lastPrice",
        "offset": 0,
        "slot": "9",
        "type": "t_uint64"
      },
      {
        "astId": 5355,
        "contract": "src/PostageStamp.sol:PostageStamp",
        "label": "minimumValidityBlocks",
        "offset": 8,
        "slot": "9",
        "type": "t_uint64"
      },
      {
        "astId": 5357,
        "contract": "src/PostageStamp.sol:PostageStamp",
        "label": "lastUpdatedBlock",
        "offset": 16,
        "slot": "9",
        "type": "t_uint64"
      }
    ],
    "types": {
      "t_address": {
        "encoding": "inplace",
        "label": "address",
        "numberOfBytes": "20"
      },
      "t_array(t_bytes32)dyn_storage": {
        "base": "t_bytes32",
        "encoding": "dynamic_array",
        "label": "bytes32[]",
        "numberOfBytes": "32"
      },
      "t_bool": {
        "encoding": "inplace",
        "label": "bool",
        "numberOfBytes": "1"
      },
      "t_bytes32": {
        "encoding": "inplace",
        "label": "bytes32",
        "numberOfBytes": "32"
      },
      "t_mapping(t_address,t_bool)": {
        "encoding": "mapping",
        "key": "t_address",
        "label": "mapping(address => bool)",
        "numberOfBytes": "32",
        "value": "t_bool"
      },
      "t_mapping(t_bytes32,t_struct(Batch)5370_storage)": {
        "encoding": "mapping",
        "key": "t_bytes32",
        "label": "mapping(bytes32 => struct PostageStamp.Batch)",
        "numberOfBytes": "32",
        "value": "t_struct(Batch)5370_storage"
      },
      "t_mapping(t_bytes32,t_struct(RoleData)19_storage)": {
        "encoding": "mapping",
        "key": "t_bytes32",
        "label": "mapping(bytes32 => struct AccessControl.RoleData)",
        "numberOfBytes": "32",
        "value": "t_struct(RoleData)19_storage"
      },
      "t_mapping(t_bytes32,t_uint256)": {
        "encoding": "mapping",
        "key": "t_bytes32",
        "label": "mapping(bytes32 => uint256)",
        "numberOfBytes": "32",
        "value": "t_uint256"
      },
      "t_mapping(t_uint256,t_struct(Node)3287_storage)": {
        "encoding": "mapping",
        "key": "t_uint256",
        "label": "mapping(uint256 => struct HitchensOrderStatisticsTreeLib.Node)",
        "numberOfBytes": "32",
        "value": "t_struct(Node)3287_storage"
      },
      "t_struct(Batch)5370_storage": {
        "encoding": "inplace",
        "label": "struct PostageStamp.Batch",
        "members": [
          {
            "astId": 5359,
            "contract": "src/PostageStamp.sol:PostageStamp",
            "label": "owner",
            "offset": 0,
            "slot": "0",
            "type": "t_address"
          },
          {
            "astId": 5361,
            "contract": "src/PostageStamp.sol:PostageStamp",
            "label": "depth",
            "offset": 20,
            "slot": "0",
            "type": "t_uint8"
          },
          {
            "astId": 5363,
            "contract": "src/PostageStamp.sol:PostageStamp",
            "label": "bucketDepth",
            "offset": 21,
            "slot": "0",
            "type": "t_uint8"
          },
          {
            "astId": 5365,
            "contract": "src/PostageStamp.sol:PostageStamp",
            "label": "immutableFlag",
            "offset": 22,
            "slot": "0",
            "type": "t_bool"
          },
          {
            "astId": 5367,
            "contract": "src/PostageStamp.sol:PostageStamp",
            "label": "normalisedBalance",
            "offset": 0,
            "slot": "1",
            "type": "t_uint256"
          },
          {
            "astId": 5369,
            "contract": "src/PostageStamp.sol:PostageStamp",
            "label": "lastUpdatedBlockNumber",
            "offset": 0,
            "slot": "2",
            "type": "t_uint256"
          }
        ],
        "numberOfBytes": "96"
      },
      "t_struct(Node)3287_storage": {
        "encoding": "inplace",
        "label": "struct HitchensOrderStatisticsTreeLib.Node",
        "members": [
          {
            "astId": 3271,
            "contract": "src/PostageStamp.sol:PostageStamp",
            "label": "parent",
            "offset": 0,
            "slot": "0",
            "type": "t_uint256"
          },
          {
            "astId": 3273,
            "contract": "src/PostageStamp.sol:PostageStamp",
            "label": "left",
            "offset": 0,
            "slot": "1",
            "type": "t_uint256"
          },
          {
            "astId": 3275,
            "contract": "src/PostageStamp.sol:PostageStamp",
            "label": "right",
            "offset": 0,
            "slot": "2",
            "type": "t_uint256"
          },
          {
            "astId": 3277,
            "contract": "src/PostageStamp.sol:PostageStamp",
            "label": "red",
            "offset": 0,
            "slot": "3",
            "type": "t_bool"
          },
          {
            "astId": 3280,
            "contract": "src/PostageStamp.sol:PostageStamp",
            "label": "keys",
            "offset": 0,
            "slot": "4",
            "type": "t_array(t_bytes32)dyn_storage"
          },
          {
            "astId": 3284,
            "contract": "src/PostageStamp.sol:PostageStamp",
            "label": "keyMap",
            "offset": 0,
            "slot": "5",
            "type": "t_mapping(t_bytes32,t_uint256)"
          },
          {
            "astId": 3286,
            "contract": "src/PostageStamp.sol:PostageStamp",
            "label": "count",
            "offset": 0,
            "slot": "6",
            "type": "t_uint256"
          }
        ],
        "numberOfBytes": "224"
      },
      "t_struct(RoleData)19_storage": {
        "encoding": "inplace",
        "label": "struct AccessControl.RoleData",
        "members": [
          {
            "astId": 16,
            "contract": "src/PostageStamp.sol:PostageStamp",
            "label": "members",
            "offset": 0,
            "slot": "0",
            "type": "t_mapping(t_address,t_bool)"
          },
          {
            "astId": 18,
            "contract": "src/PostageStamp.sol:PostageStamp",
            "label": "adminRole",
            "offset": 0,
            "slot": "1",
            "type": "t_bytes32"
          }
        ],
        "numberOfBytes": "64"
      },
      "t_struct(Tree)3295_storage": {
        "encoding": "inplace",
        "label": "struct HitchensOrderStatisticsTreeLib.Tree",
        "members": [
          {
            "astId": 3289,
            "contract": "src/PostageStamp.sol:PostageStamp",
            "label": "root",
            "offset": 0,
            "slot": "0",
            "type": "t_uint256"
          },
          {
            "astId": 3294,
            "contract": "src/PostageStamp.sol:PostageStamp",
            "label": "nodes",
            "offset": 0,
            "slot": "1",
            "type": "t_mapping(t_uint256,t_struct(Node)3287_storage)"
          }
        ],
        "numberOfBytes": "64"
      },
      "t_uint256": {
        "encoding": "inplace",
        "label": "uint256",
        "numberOfBytes": "32"
      },
      "t_uint64": {
        "encoding": "inplace",
        "label": "uint64",
        "numberOfBytes": "8"
      },
      "t_uint8": {
        "encoding": "inplace",
        "label": "uint8",
        "numberOfBytes": "1"
      }
    }
  }
}