{
  "address": "0x3398a0C47d473349d38E7D2c1873c0bD1f763858",
  "abi": [
    {
      "inputs": [
        {
          "internalType": "address",
          "name": "_bzzToken",
          "type": "address"
        },
        {
          "internalType": "uint8",
          "name": "_minimumBucketDepth",
          "type": "uint8"
        },
        {
          "internalType": "address",
          "name": "multisig",
          "type": "address"
        }
      ],
      "stateMutability": "nonpayable",
      "type": "constructor"
    },
    {
      "anonymous": false,
      "inputs": [
        {
          "indexed": true,
          "internalType": "bytes32",
          "name": "batchId",
          "type": "bytes32"
        },
        {
          "indexed": false,
          "internalType": "uint256",
          "name": "totalAmount",
          "type": "uint256"
        },
        {
          "indexed": false,
          "internalType": "uint256",
          "name": "normalisedBalance",
          "type": "uint256"
        },
        {
          "indexed": false,
          "internalType": "address",
          "name": "owner",
          "type": "address"
        },
        {
          "indexed": false,
          "internalType": "uint8",
          "name": "depth",
          "type": "uint8"
        },
        {
          "indexed": false,
          "internalType": "uint8",
          "name": "bucketDepth",
          "type": "uint8"
        },
        {
          "indexed": false,
          "internalType": "bool",
          "name": "immutableFlag",
          "type": "bool"
        }
      ],
      "name": "BatchCreated",
      "type": "event"
    },
    {
      "anonymous": false,
      "inputs": [
        {
          "indexed": true,
          "internalType": "bytes32",
          "name": "batchId",
          "type": "bytes32"
        },
        {
          "indexed": false,
          "internalType": "uint8",
          "name": "newDepth",
          "type": "uint8"
        },
        {
          "indexed": false,
          "internalType": "uint256",
          "name": "normalisedBalance",
          "type": "uint256"
        }
      ],
      "name": "BatchDepthIncrease",
      "type": "event"
    },
    {
      "anonymous": false,
      "inputs": [
        {
          "indexed": true,
          "internalType": "bytes32",
          "name": "batchId",
          "type": "bytes32"
        },
        {
          "indexed": false,
          "internalType": "uint256",
          "name": "topupAmount",
          "type": "uint256"
        },
        {
          "indexed": false,
          "internalType": "uint256",
          "name": "normalisedBalance",
          "type": "uint256"
        }
      ],
      "name": "BatchTopUp",
      "type": "event"
    },
    {
      "anonymous": false,
      "inputs": [
        {
          "indexed": false,
          "internalType": "address",
          "name": "account",
          "type": "address"
        }
      ],
      "name": "Paused",
      "type": "event"
    },
    {
      "anonymous": false,
      "inputs": [
        {
          "indexed": false,
          "internalType": "address",
          "name": "recipient",
          "type": "address"
        },
        {
          "indexed": false,
          "internalType": "uint256",
          "name": "totalAmount",
          "type": "uint256"
        }
      ],
      "name": "PotWithdrawn",
      "type": "event"
    },
    {
      "anonymous": false,
      "inputs": [
        {
          "indexed": false,
          "internalType": "uint256",
          "name": "price",
          "type": "uint256"
        }
      ],
      "name": "PriceUpdate",
      "type": "event"
    },
    {
      "anonymous": false,
      "inputs": [
        {
          "indexed": true,
          "internalType": "bytes32",
          "name": "role",
          "type": "bytes32"
        },
        {
          "indexed": true,
          "internalType": "bytes32",
          "name": "previousAdminRole",
          "type": "bytes32"
        },
        {
          "indexed": true,
          "internalType": "bytes32",
          "name": "newAdminRole",
          "type": "bytes32"
        }
      ],
      "name": "RoleAdminChanged",
      "type": "event"
    },
    {
      "anonymous": false,
      "inputs": [
        {
          "indexed": true,
          "internalType": "bytes32",
          "name": "role",
          "type": "bytes32"
        },
        {
          "indexed": true,
          "internalType": "address",
          "name": "account",
          "type": "address"
        },
        {
          "indexed": true,
          "internalType": "address",
          "name": "sender",
          "type": "address"
        }
      ],
      "name": "RoleGranted",
      "type": "event"
    },
    {
      "anonymous": false,
      "inputs": [
        {
          "indexed": true,
          "internalType": "bytes32",
          "name": "role",
          "type": "bytes32"
        },
        {
          "indexed": true,
          "internalType": "address",
          "name": "account",
          "type": "address"
        },
        {
          "indexed": true,
          "internalType": "address",
          "name": "sender",
          "type": "address"
        }
      ],
      "name": "RoleRevoked",
      "type": "event"
    },
    {
      "anonymous": false,
      "inputs": [
        {
          "indexed": false,
          "internalType": "address",
          "name": "account",
          "type": "address"
        }
      ],
      "name": "Unpaused",
      "type": "event"
    },
    {
      "inputs": [],
      "name": "DEFAULT_ADMIN_ROLE",
      "outputs": [
        {
          "internalType": "bytes32",
          "name": "",
          "type": "bytes32"
        }
      ],
      "stateMutability": "view",
      "type": "function"
    },
    {
      "inputs": [],
      "name": "PAUSER_ROLE",
      "outputs": [
        {
          "internalType": "bytes32",
          "name": "",
          "type": "bytes32"
        }
      ],
      "stateMutability": "view",
      "type": "function"
    },
    {
      "inputs": [],
      "name": "PRICE_ORACLE_ROLE",
      "outputs": [
        {
          "internalType": "bytes32",
          "name": "",
          "type": "bytes32"
        }
      ],
      "stateMutability": "view",
      "type": "function"
    },
    {
      "inputs": [],
      "name": "REDISTRIBUTOR_ROLE",
      "outputs": [
        {
          "internalType": "bytes32",
          "name": "",
          "type": "bytes32"
        }
      ],
      "stateMutability": "view",
      "type": "function"
    },
    {
      "inputs": [
        {
          "internalType": "bytes32",
          "name": "_batchId",
          "type": "bytes32"
        }
      ],
      "name": "batchBucketDepth",
      "outputs": [
        {
          "internalType": "uint8",
          "name": "",
          "type": "uint8"
        }
      ],
      "stateMutability": "view",
      "type": "function"
    },
    {
      "inputs": [
        {
          "internalType": "bytes32",
          "name": "_batchId",
          "type": "bytes32"
        }
      ],
      "name": "batchDepth",
      "outputs": [
        {
          "internalType": "uint8",
          "name": "",
          "type": "uint8"
        }
      ],
      "stateMutability": "view",
      "type": "function"
    },
    {
      "inputs": [
        {
          "internalType": "bytes32",
          "name": "_batchId",
          "type": "bytes32"
        }
      ],
      "name": "batchImmutableFlag",
      "outputs": [
        {
          "internalType": "bool",
          "name": "",
          "type": "bool"
        }
      ],
      "stateMutability": "view",
      "type": "function"
    },
    {
      "inputs": [
        {
          "internalType": "bytes32",
          "name": "_batchId",
          "type": "bytes32"
        }
      ],
      "name": "batchLastUpdatedBlockNumber",
      "outputs": [
        {
          "internalType": "uint256",
          "name": "",
          "type": "uint256"
        }
      ],
      "stateMutability": "view",
      "type": "function"
    },
    {
      "inputs": [
        {
          "internalType": "bytes32",
          "name": "_batchId",
          "type": "bytes32"
        }
      ],
      "name": "batchNormalisedBalance",
      "outputs": [
        {
          "internalType": "uint256",
          "name": "",
          "type": "uint256"
        }
      ],
      "stateMutability": "view",
      "type": "function"
    },
    {
      "inputs": [
        {
          "internalType": "bytes32",
          "name": "_batchId",
          "type": "bytes32"
        }
      ],
      "name": "batchOwner",
      "outputs": [
        {
          "internalType": "address",
          "name": "",
          "type": "address"
        }
      ],
      "stateMutability": "view",
      "type": "function"
    },
    {
      "inputs": [
        {
          "internalType": "bytes32",
          "name": "",
          "type": "bytes32"
        }
      ],
      "name": "batches",
      "outputs": [
        {
          "internalType": "address",
          "name": "owner",
          "type": "address"
        },
        {
          "internalType": "uint8",
          "name": "depth",
          "type": "uint8"
        },
        {
          "internalType": "uint8",
          "name": "bucketDepth",
          "type": "uint8"
        },
        {
          "internalType": "bool",
          "name": "immutableFlag",
          "type": "bool"
        },
        {
          "internalType": "uint256",
          "name": "normalisedBalance",
          "type": "uint256"
        },
        {
          "internalType": "uint256",
          "name": "lastUpdatedBlockNumber",
          "type": "uint256"
        }
      ],
      "stateMutability": "view",
      "type": "function"
    },
    {
      "inputs": [],
      "name": "bzzToken",
      "outputs": [
        {
          "internalType": "address",
          "name": "",
          "type": "address"
        }
      ],
      "stateMutability": "view",
      "type": "function"
    },
    {
      "inputs": [
        {
          "internalType": "address",
          "name": "_owner",
          "type": "address"
        },
        {
          "internalType": "uint256",
          "name": "_initialBalancePerChunk",
          "type": "uint256"
        },
        {
          "internalType": "uint8",
          "name": "_depth",
          "type": "uint8"
        },
        {
          "internalType": "uint8",
          "name": "_bucketDepth",
          "type": "uint8"
        },
        {
          "internalType": "bytes32",
          "name": "_batchId",
          "type": "bytes32"
        },
        {
          "internalType": "bool",
          "name": "_immutable",
          "type": "bool"
        }
      ],
      "name": "copyBatch",
      "outputs": [],
      "stateMutability": "nonpayable",
      "type": "function"
    },
    {
      "inputs": [
        {
          "internalType": "address",
          "name": "_owner",
          "type": "address"
        },
        {
          "internalType": "uint256",
          "name": "_initialBalancePerChunk",
          "type": "uint256"
        },
        {
          "internalType": "uint8",
          "name": "_depth",
          "type": "uint8"
        },
        {
          "internalType": "uint8",
          "name": "_bucketDepth",
          "type": "uint8"
        },
        {
          "internalType": "bytes32",
          "name": "_nonce",
          "type": "bytes32"
        },
        {
          "internalType": "bool",
          "name": "_immutable",
          "type": "bool"
        }
      ],
      "name": "createBatch",
      "outputs": [],
      "stateMutability": "nonpayable",
      "type": "function"
    },
    {
      "inputs": [],
      "name": "currentTotalOutPayment",
      "outputs": [
        {
          "internalType": "uint256",
          "name": "",
          "type": "uint256"
        }
      ],
      "stateMutability": "view",
      "type": "function"
    },
    {
      "inputs": [
        {
          "internalType": "uint256",
          "name": "limit",
          "type": "uint256"
        }
      ],
      "name": "expireLimited",
      "outputs": [],
      "stateMutability": "nonpayable",
      "type": "function"
    },
    {
      "inputs": [],
      "name": "expiredBatchesExist",
      "outputs": [
        {
          "internalType": "bool",
          "name": "",
          "type": "bool"
        }
      ],
      "stateMutability": "view",
      "type": "function"
    },
    {
      "inputs": [],
      "name": "firstBatchId",
      "outputs": [
        {
          "internalType": "bytes32",
          "name": "",
          "type": "bytes32"
        }
      ],
      "stateMutability": "view",
      "type": "function"
    },
    {
      "inputs": [
        {
          "internalType": "bytes32",
          "name": "role",
          "type": "bytes32"
        }
      ],
      "name": "getRoleAdmin",
      "outputs": [
        {
          "internalType": "bytes32",
          "name": "",
          "type": "bytes32"
        }
      ],
      "stateMutability": "view",
      "type": "function"
    },
    {
      "inputs": [
        {
          "internalType": "bytes32",
          "name": "role",
          "type": "bytes32"
        },
        {
          "internalType": "address",
          "name": "account",
          "type": "address"
        }
      ],
      "name": "grantRole",
      "outputs": [],
      "stateMutability": "nonpayable",
      "type": "function"
    },
    {
      "inputs": [
        {
          "internalType": "bytes32",
          "name": "role",
          "type": "bytes32"
        },
        {
          "internalType": "address",
          "name": "account",
          "type": "address"
        }
      ],
      "name": "hasRole",
      "outputs": [
        {
          "internalType": "bool",
          "name": "",
          "type": "bool"
        }
      ],
      "stateMutability": "view",
      "type": "function"
    },
    {
      "inputs": [
        {
          "internalType": "bytes32",
          "name": "_batchId",
          "type": "bytes32"
        },
        {
          "internalType": "uint8",
          "name": "_newDepth",
          "type": "uint8"
        }
      ],
      "name": "increaseDepth",
      "outputs": [],
      "stateMutability": "nonpayable",
      "type": "function"
    },
    {
      "inputs": [],
      "name": "isBatchesTreeEmpty",
      "outputs": [
        {
          "internalType": "bool",
          "name": "",
          "type": "bool"
        }
      ],
      "stateMutability": "view",
      "type": "function"
    },
    {
      "inputs": [],
      "name": "lastExpiryBalance",
      "outputs": [
        {
          "internalType": "uint256",
          "name": "",
          "type": "uint256"
        }
      ],
      "stateMutability": "view",
      "type": "function"
    },
    {
      "inputs": [],
      "name": "lastPrice",
      "outputs": [
        {
          "internalType": "uint256",
          "name": "",
          "type": "uint256"
        }
      ],
      "stateMutability": "view",
      "type": "function"
    },
    {
      "inputs": [],
      "name": "lastUpdatedBlock",
      "outputs": [
        {
          "internalType": "uint256",
          "name": "",
          "type": "uint256"
        }
      ],
      "stateMutability": "view",
      "type": "function"
    },
    {
      "inputs": [],
      "name": "minimumBucketDepth",
      "outputs": [
        {
          "internalType": "uint8",
          "name": "",
          "type": "uint8"
        }
      ],
      "stateMutability": "view",
      "type": "function"
    },
    {
      "inputs": [],
      "name": "minimumInitialBalancePerChunk",
      "outputs": [
        {
          "internalType": "uint256",
          "name": "",
          "type": "uint256"
        }
      ],
      "stateMutability": "view",
      "type": "function"
    },
    {
      "inputs": [],
      "name": "minimumValidityBlocks",
      "outputs": [
        {
          "internalType": "uint256",
          "name": "",
          "type": "uint256"
        }
      ],
      "stateMutability": "view",
      "type": "function"
    },
    {
      "inputs": [],
      "name": "pause",
      "outputs": [],
      "stateMutability": "nonpayable",
      "type": "function"
    },
    {
      "inputs": [],
      "name": "paused",
      "outputs": [
        {
          "internalType": "bool",
          "name": "",
          "type": "bool"
        }
      ],
      "stateMutability": "view",
      "type": "function"
    },
    {
      "inputs": [],
      "name": "pot",
      "outputs": [
        {
          "internalType": "uint256",
          "name": "",
          "type": "uint256"
        }
      ],
      "stateMutability": "view",
      "type": "function"
    },
    {
      "inputs": [
        {
          "internalType": "bytes32",
          "name": "_batchId",
          "type": "bytes32"
        }
      ],
      "name": "remainingBalance",
      "outputs": [
        {
          "internalType": "uint256",
          "name": "",
          "type": "uint256"
        }
      ],
      "stateMutability": "view",
      "type": "function"
    },
    {
      "inputs": [
        {
          "internalType": "bytes32",
          "name": "role",
          "type": "bytes32"
        },
        {
          "internalType": "address",
          "name": "account",
          "type": "address"
        }
      ],
      "name": "renounceRole",
      "outputs": [],
      "stateMutability": "nonpayable",
      "type": "function"
    },
    {
      "inputs": [
        {
          "internalType": "bytes32",
          "name": "role",
          "type": "bytes32"
        },
        {
          "internalType": "address",
          "name": "account",
          "type": "address"
        }
      ],
      "name": "revokeRole",
      "outputs": [],
      "stateMutability": "nonpayable",
      "type": "function"
    },
    {
      "inputs": [
        {
          "internalType": "uint256",
          "name": "_value",
          "type": "uint256"
        }
      ],
      "name": "setMinimumValidityBlocks",
      "outputs": [],
      "stateMutability": "nonpayable",
      "type": "function"
    },
    {
      "inputs": [
        {
          "internalType": "uint256",
          "name": "_price",
          "type": "uint256"
        }
      ],
      "name": "setPrice",
      "outputs": [],
      "stateMutability": "nonpayable",
      "type": "function"
    },
    {
      "inputs": [
        {
          "internalType": "bytes4",
          "name": "interfaceId",
          "type": "bytes4"
        }
      ],
      "name": "supportsInterface",
      "outputs": [
        {
          "internalType": "bool",
          "name": "",
          "type": "bool"
        }
      ],
      "stateMutability": "view",
      "type": "function"
    },
    {
      "inputs": [
        {
          "internalType": "bytes32",
          "name": "_batchId",
          "type": "bytes32"
        },
        {
          "internalType": "uint256",
          "name": "_topupAmountPerChunk",
          "type": "uint256"
        }
      ],
      "name": "topUp",
      "outputs": [],
      "stateMutability": "nonpayable",
      "type": "function"
    },
    {
      "inputs": [],
      "name": "totalPot",
      "outputs": [
        {
          "internalType": "uint256",
          "name": "",
          "type": "uint256"
        }
      ],
      "stateMutability": "nonpayable",
      "type": "function"
    },
    {
      "inputs": [],
      "name": "unPause",
      "outputs": [],
      "stateMutability": "nonpayable",
      "type": "function"
    },
    {
      "inputs": [],
      "name": "validChunkCount",
      "outputs": [
        {
          "internalType": "uint256",
          "name": "",
          "type": "uint256"
        }
      ],
      "stateMutability": "view",
      "type": "function"
    },
    {
      "inputs": [
        {
          "internalType": "address",
          "name": "beneficiary",
          "type": "address"
        }
      ],
      "name": "withdraw",
      "outputs": [],
      "stateMutability": "nonpayable",
      "type": "function"
    }
  ],
  "transactionHash": "0xfd869a535828be30a94b13b4ddcc50eb81d648c91e4c127c26cc84cf38095873",
  "args": [
    "0xa66be4A7De4DfA5478Cb2308469D90115C45aA23",
    16,
    "0xb1C7F17Ed88189Abf269Bf68A3B2Ed83C5276aAe"
  ],
  "numDeployments": 1,
  "solcInputHash": "e01c5c249d0758ea8c726cc6f6ca793d",
  "bytecode": "0x6080604052614380600a556000600b553480156200001c57600080fd5b5060405162003bea38038062003bea8339810160408190526200003f916200019b565b6001805460ff19908116909155600580546001600160a01b0319166001600160a01b0386161790556007805490911660ff841617905562000082600082620000b7565b620000ae7f65d7a28e3265b37a6474929f336521b332c1681b933f6cb9f3376673440d862a33620000b7565b505050620001ea565b620000c38282620000c7565b5050565b620000d3828262000151565b620000c3576000828152602081815260408083206001600160a01b03851684529091529020805460ff191660011790556200010d6200017a565b6001600160a01b0316816001600160a01b0316837f2f8788117e7eff1d82e926ec794901d17c78024a50270940304540a733656f0d60405160405180910390a45050565b6000918252602082815260408084206001600160a01b0393909316845291905290205460ff1690565b3390565b80516001600160a01b03811681146200019657600080fd5b919050565b600080600060608486031215620001b0578283fd5b620001bb846200017e565b9250602084015160ff81168114620001d1578283fd5b9150620001e1604085016200017e565b90509250925092565b6139f080620001fa6000396000f3fe608060405234801561001057600080fd5b50600436106102695760003560e01c806381e508b911610151578063b998902f116100c3578063dd483cfb11610087578063dd483cfb146104ce578063df674385146104d6578063e63ab1e9146104e9578063ea612e1f146104f1578063f7b188a5146104f9578063f90ce5ba1461050157610269565b8063b998902f14610468578063c81e25ab14610470578063d547741f14610495578063d71ba7c4146104a8578063d968f44b146104bb57610269565b806391b7f5ed1161011557806391b7f5ed1461041757806391d148541461042a578063a217fddf1461043d578063a6471a1d14610445578063a81064ee1461044d578063b67644b91461045557610269565b806381e508b9146103e45780638456cb59146103f75780638a5e8e32146103ff5780638b82547f14610407578063906978421461040f57610269565b8063420fc4db116101ea57806351b17cd0116101ae57806351b17cd01461039357806351cff8d91461039b5780635239af71146103ae5780635c975abb146103c1578063628de877146103c9578063711bfa2b146103dc57610269565b8063420fc4db1461034a57806344beae8e1461035257806347aab79b1461036557806348652ce7146103785780634ba2363a1461038b57610269565b8063248a9ca311610231578063248a9ca3146102e957806324b570a9146102fc5780632f2ff15d1461030457806332ac57dd1461031757806336568abe1461033757610269565b806301ffc9a71461026e578063053f14da146102975780631889b99b146102ac57806318c8572f146102b45780632182ddb1146102c9575b600080fd5b61028161027c366004612e4b565b610509565b60405161028e9190612f8c565b60405180910390f35b61029f610536565b60405161028e9190612f97565b61028161053c565b6102c76102c2366004612d40565b61054f565b005b6102dc6102d7366004612dc5565b610833565b60405161028e9190612f00565b61029f6102f7366004612dc5565b61084e565b61029f610863565b6102c7610312366004612ddd565b61090c565b61032a610325366004612dc5565b61092d565b60405161028e9190613886565b6102c7610345366004612ddd565b610949565b6102dc61098f565b61032a610360366004612dc5565b61099e565b6102c7610373366004612e29565b6109ba565b6102c7610386366004612dc5565b610bc9565b61029f610bf5565b61029f610bfb565b6102c76103a9366004612d26565b610c35565b6102c76103bc366004612d40565b610d68565b610281611091565b6102c76103d7366004612dc5565b61109a565b610281611224565b61029f6103f2366004612dc5565b61124f565b6102c7611265565b61029f6112b5565b61029f6112bb565b61029f6112f7565b6102c7610425366004612dc5565b61130e565b610281610438366004612ddd565b6113ac565b61029f6113d7565b61029f6113dc565b61032a611400565b6102c7610463366004612e08565b611409565b61029f611618565b61048361047e366004612dc5565b61163c565b60405161028e96959493929190612f51565b6102c76104a3366004612ddd565b611689565b61029f6104b6366004612dc5565b6116a5565b6102816104c9366004612dc5565b611714565b61029f611730565b61029f6104e4366004612dc5565b611736565b61029f61174b565b61029f61176f565b6102c7611775565b61029f6117c3565b60006001600160e01b03198216637965db0b60e01b148061052e575061052e826117c9565b90505b919050565b600b5481565b600061054860036117e2565b1590505b90565b6105576117f2565b6105626000336113ac565b6105875760405162461bcd60e51b815260040161057e9061374d565b60405180910390fd5b6001600160a01b0386166105ad5760405162461bcd60e51b815260040161057e90612fd3565b60ff8316158015906105c457508360ff168360ff16105b6105e05760405162461bcd60e51b815260040161057e90613203565b6000828152600260205260409020546001600160a01b0316156106155760405162461bcd60e51b815260040161057e906134c1565b6000610627600160ff87161b876138df565b6005546040516323b872dd60e01b81529192506001600160a01b0316906323b872dd9061065c90339030908690600401612f14565b602060405180830381600087803b15801561067657600080fd5b505af115801561068a573d6000803e3d6000fd5b505050506040513d601f19601f820116820180604052508101906106ae9190612da9565b6106ca5760405162461bcd60e51b815260040161057e90613724565b6000866106d5610bfb565b6106df91906138a7565b90508560ff166001901b600860008282546106fa91906138a7565b90915550506040805160c0810182526001600160a01b038a8116825260ff89811660208085019182528a831685870190815289151560608701908152608087018981524360a0890190815260008e815260029586905299909920975188549551935192516001600160a01b031990961697169690961760ff60a01b1916600160a01b928616929092029190911760ff60a81b1916600160a81b91909416029290921760ff60b01b1916600160b01b91151591909102178355905160018301559151910155806107db5760405162461bcd60e51b815260040161057e9061311f565b6107e760038583611817565b837f9b088e2c89b322a3c1d81515e1c88db3d386d022926f0e2d0b9b5813b7413d5883838b8a8a896040516108219695949392919061384d565b60405180910390a25050505050505050565b6000908152600260205260409020546001600160a01b031690565b60009081526020819052604090206001015490565b600061087060001961109a565b6005546040516370a0823160e01b81526000916001600160a01b0316906370a08231906108a1903090600401612f00565b60206040518083038186803b1580156108b957600080fd5b505afa1580156108cd573d6000803e3d6000fd5b505050506040513d601f19601f820116820180604052508101906108f19190612e73565b905080600954106109025780610906565b6009545b91505090565b6109158261084e565b61091e816119fc565b6109288383611a10565b505050565b600090815260026020526040902054600160a81b900460ff1690565b610951611a95565b6001600160a01b0316816001600160a01b0316146109815760405162461bcd60e51b815260040161057e90613793565b61098b8282611a99565b5050565b6005546001600160a01b031681565b600090815260026020526040902054600160a01b900460ff1690565b6109c26117f2565b600082815260026020526040902080546001600160a01b031633146109f95760405162461bcd60e51b815260040161057e90613268565b60075460ff8084169116108015610a1d5750805460ff808416600160a01b90920416105b610a395760405162461bcd60e51b815260040161057e906136a6565b8054600160b01b900460ff1615610a625760405162461bcd60e51b815260040161057e9061345e565b610a6a610bfb565b816001015411610a8c5760405162461bcd60e51b815260040161057e906135d8565b8054600090610aa590600160a01b900460ff1684613915565b90506000600160ff83161b610ab9866116a5565b610ac391906138bf565b9050610acd6112f7565b811015610aec5760405162461bcd60e51b815260040161057e90613526565b610af760001961109a565b8254610b1790600160ff600160a01b909204821681901b9187161b6138fe565b60086000828254610b2891906138a7565b90915550506001830154610b40906003908790611b1c565b825460ff60a01b1916600160a01b60ff86160217835543600284015580610b65610bfb565b610b6f91906138a7565b60018401819055610b84906003908790611817565b847faf27998ec15e9d3809edad41aec1b5551d8412e71bd07c91611a0237ead1dc8e858560010154604051610bba929190613894565b60405180910390a25050505050565b610bd46000336113ac565b610bf05760405162461bcd60e51b815260040161057e90613154565b600a55565b60095481565b600080600c5443610c0c91906138fe565b9050600081600b54610c1e91906138df565b905080600654610c2e91906138a7565b9250505090565b610c5f7f3e35b14a9f4fef84b59f9bdcd3044fc28783144b7e42bfb2cd075e6a02cb0828336113ac565b610c7b5760405162461bcd60e51b815260040161057e90613343565b6000610c85610863565b60055460405163a9059cbb60e01b81529192506001600160a01b03169063a9059cbb90610cb89085908590600401612f38565b602060405180830381600087803b158015610cd257600080fd5b505af1158015610ce6573d6000803e3d6000fd5b505050506040513d601f19601f82011682018060405250810190610d0a9190612da9565b610d265760405162461bcd60e51b815260040161057e90613724565b7ff5d8f9b1e7af440e1e7915f4693ccc004d1461a7dafd17ea7347d03decf298e18282604051610d57929190612f38565b60405180910390a150506000600955565b610d706117f2565b6001600160a01b038616610d965760405162461bcd60e51b815260040161057e90612fd3565b60ff831615801590610db0575060075460ff808516911611155b8015610dc157508360ff168360ff16105b610ddd5760405162461bcd60e51b815260040161057e90613203565b60003383604051602001610df2929190612f38565b60408051601f198184030181529181528151602092830120600081815260029093529120549091506001600160a01b031615610e405760405162461bcd60e51b815260040161057e906134c1565b610e486112f7565b861015610e675760405162461bcd60e51b815260040161057e906132ee565b6000610e79600160ff88161b886138df565b6005546040516323b872dd60e01b81529192506001600160a01b0316906323b872dd90610eae90339030908690600401612f14565b602060405180830381600087803b158015610ec857600080fd5b505af1158015610edc573d6000803e3d6000fd5b505050506040513d601f19601f82011682018060405250810190610f009190612da9565b610f1c5760405162461bcd60e51b815260040161057e90613724565b600087610f27610bfb565b610f3191906138a7565b9050610f3e60001961109a565b8660ff166001901b60086000828254610f5791906138a7565b90915550506040805160c0810182526001600160a01b038b8116825260ff8a811660208085019182528b83168587019081528a151560608701908152608087018981524360a0890190815260008d815260029586905299909920975188549551935192516001600160a01b031990961697169690961760ff60a01b1916600160a01b928616929092029190911760ff60a81b1916600160a81b91909416029290921760ff60b01b1916600160b01b91151591909102178355905160018301559151910155806110385760405162461bcd60e51b815260040161057e9061311f565b61104460038483611817565b827f9b088e2c89b322a3c1d81515e1c88db3d386d022926f0e2d0b9b5813b7413d5883838c8b8b8a60405161107e9695949392919061384d565b60405180910390a2505050505050505050565b60015460ff1690565b600d5460005b828110156111cc576110b061053c565b156110c5576110bd610bfb565b600d556111cc565b60006110cf6112bb565b905060006110dc826116a5565b11156110f3576110ea610bfb565b600d55506111cc565b600081815260026020526040902080546008546001600160a01b90920460ff169190911b908111156111375760405162461bcd60e51b815260040161057e90613008565b806008600082825461114991906138fe565b9091555050600182015461115e9086906138fe565b61116890826138df565b6009600082825461117991906138a7565b90915550506001820154611191906003908590611b1c565b50506000908152600260208190526040822080546001600160b81b0319168155600181018390550155806111c48161397b565b9150506110a0565b81600d5410156111ee5760405162461bcd60e51b815260040161057e906130d1565b81600d546111fc91906138fe565b60085461120991906138df565b6009600082825461121a91906138a7565b9091555050505050565b600061122e61053c565b1561123b5750600061054c565b60006112486104b66112bb565b1115905090565b6000908152600260208190526040909120015490565b61128f7f65d7a28e3265b37a6474929f336521b332c1681b933f6cb9f3376673440d862a336113ac565b6112ab5760405162461bcd60e51b815260040161057e90613074565b6112b3611e98565b565b60085481565b6000806112c86003611eec565b9050600081116112ea5760405162461bcd60e51b815260040161057e9061367c565b6109066003826000611f2e565b6000600b54600a5461130991906138df565b905090565b6113387fdd24a0f121e5ab7c3e97c63eaaf859e0b46792c3e0edfd86e2b3ad50f63011d8336113ac565b6113545760405162461bcd60e51b815260040161057e90613595565b600b541561136857611364610bfb565b6006555b600b81905543600c556040517fae46785019700e30375a5d7b4f91e32f8060ef085111f896ebf889450aa2ab5a906113a1908390612f97565b60405180910390a150565b6000828152602081815260408083206001600160a01b038516845290915290205460ff165b92915050565b600081565b7f3e35b14a9f4fef84b59f9bdcd3044fc28783144b7e42bfb2cd075e6a02cb082881565b60075460ff1681565b6114116117f2565b600082815260026020526040902080546001600160a01b03166114465760405162461bcd60e51b815260040161057e9061341b565b61144e610bfb565b8160010154116114705760405162461bcd60e51b815260040161057e906135d8565b600754815460ff918216600160a01b909104909116116114a25760405162461bcd60e51b815260040161057e906134ef565b6114aa6112f7565b826114b4856116a5565b6114be91906138a7565b10156114dc5760405162461bcd60e51b815260040161057e906137e2565b80546000906114f9906001600160a01b90910460ff161b846138df565b6005546040516323b872dd60e01b81529192506001600160a01b0316906323b872dd9061152e90339030908690600401612f14565b602060405180830381600087803b15801561154857600080fd5b505af115801561155c573d6000803e3d6000fd5b505050506040513d601f19601f820116820180604052508101906115809190612da9565b61159c5760405162461bcd60e51b815260040161057e90613724565b60018201546115af906003908690611b1c565b8282600101546115bf91906138a7565b600183018190556115d4906003908690611817565b837faf5756c62d6c0722ef9be1f82bef97ab06ea5aea7f3eb8ad348422079f01d88d82846001015460405161160a92919061383f565b60405180910390a250505050565b7fdd24a0f121e5ab7c3e97c63eaaf859e0b46792c3e0edfd86e2b3ad50f63011d881565b60026020819052600091825260409091208054600182015491909201546001600160a01b0383169260ff600160a01b8204811693600160a81b8304821693600160b01b9093049091169186565b6116928261084e565b61169b816119fc565b6109288383611a99565b600081815260026020526040812080546001600160a01b03166116da5760405162461bcd60e51b815260040161057e9061348a565b6116e2610bfb565b8160010154116116f6576000915050610531565b6116fe610bfb565b816001015461170d91906138fe565b9392505050565b600090815260026020526040902054600160b01b900460ff1690565b600a5481565b60009081526002602052604090206001015490565b7f65d7a28e3265b37a6474929f336521b332c1681b933f6cb9f3376673440d862a81565b600d5481565b61179f7f65d7a28e3265b37a6474929f336521b332c1681b933f6cb9f3376673440d862a336113ac565b6117bb5760405162461bcd60e51b815260040161057e90613231565b6112b3611f9d565b600c5481565b6001600160e01b031981166301ffc9a760e01b14919050565b600061052e828360000154611fd8565b6117fa611091565b156112b35760405162461bcd60e51b815260040161057e90613394565b806118345760405162461bcd60e51b815260040161057e906131a6565b61183f838383612004565b1561185c5760405162461bcd60e51b815260040161057e90613607565b82546000905b801561193d578091508083101561188c576000908152600180860160205260409091200154611914565b808311156118ad576000908152600185016020526040902060020154611914565b808314156119145760008181526001808701602090815260408320600401805480840182558185529184209091018790559183905290546118ee91906138fe565b600091825260018601602090815260408084208785526005019091529091205550610928565b600082815260018601602052604081206006018054916119338361397b565b9190505550611862565b600083815260018087016020908152604083208581558083018490556002810184905560038101805460ff191684179055600481018054808501825581865292909420909101879055915461199291906138fe565b6000868152600583016020526040902055826119b0578386556119ea565b828410156119d357600083815260018088016020526040909120018490556119ea565b600083815260018701602052604090206002018490555b6119f48685612078565b505050505050565b611a0d81611a08611a95565b6122e3565b50565b611a1a82826113ac565b61098b576000828152602081815260408083206001600160a01b03851684529091529020805460ff19166001179055611a51611a95565b6001600160a01b0316816001600160a01b0316837f2f8788117e7eff1d82e926ec794901d17c78024a50270940304540a733656f0d60405160405180910390a45050565b3390565b611aa382826113ac565b1561098b576000828152602081815260408083206001600160a01b03851684529091529020805460ff19169055611ad8611a95565b6001600160a01b0316816001600160a01b0316837ff6391f5c32d9c69d2a47ea670b442974b53935d1edc7fd64eb21e047a839171b60405160405180910390a45050565b80611b395760405162461bcd60e51b815260040161057e90613291565b611b44838383612004565b611b605760405162461bcd60e51b815260040161057e906133be565b6000818152600180850160209081526040808420868552600581019092528320546004820180549294919391929091611b98916138fe565b81548110611bb657634e487b7160e01b600052603260045260246000fd5b9060005260206000200154905080836004018381548110611be757634e487b7160e01b600052603260045260246000fd5b6000918252602080832090910192909255828152600585019091526040902082905560048301805480611c2a57634e487b7160e01b600052603160045260246000fd5b60019003818190600052602060002001600090559055600080846004018054905060001415611e8e5760008681526001808a01602052604090912001541580611c8457506000868152600189016020526040902060020154155b15611c90575084611cd8565b5060008581526001880160205260409020600201545b60008181526001808a016020526040909120015415611cd8576000908152600180890160205260409091200154611ca6565b60008181526001808a016020526040909120015415611d0c5760008181526001808a01602052604090912001549150611d23565b600081815260018901602052604090206002015491505b60008181526001890160205260408082205484835291208190558015611d955760008181526001808b0160205260409091200154821415611d795760008181526001808b01602052604090912001839055611d90565b600081815260018a01602052604090206002018390555b611d99565b8289555b600082815260018a01602052604090206003015460ff1615878314611e2c57611dc38a848a61233c565b600088815260018b8101602052604080832080830154878552828520938401819055845281842087905560028082015490840181905584529083208690556003908101549286905201805460ff191660ff9092161515919091179055919691611e2c8a896123b6565b8015611e3c57611e3c8a85612423565b611e468a836123b6565b60008381526001808c01602052604082208281559081018290556002810182905560038101805460ff1916905590611e816004830182612ccc565b6006820160009055505050505b5050505050505050565b611ea06117f2565b6001805460ff1916811790557f62e78cea01bee320cd4e420270b5ea74000d11b0c9f74754ebdbfc544b05a258611ed5611a95565b604051611ee29190612f00565b60405180910390a1565b805480611efb57506000610531565b5b600081815260018084016020526040909120015415610531576000908152600180830160205260409091200154611efc565b6000611f3a848461283e565b611f565760405162461bcd60e51b815260040161057e906136d4565b60008381526001850160205260409020600401805483908110611f8957634e487b7160e01b600052603260045260246000fd5b906000526020600020015490509392505050565b611fa5612885565b6001805460ff191690557f5db9ee0a495bf2e6ff9c91a7834c1ba4fdd244a5e8aa4e537bd38aeae4b073aa611ed5611a95565b6000818152600183016020526040812060068101546004820154611ffc91906138a7565b949350505050565b6000612010848361283e565b61201c5750600061170d565b60008281526001850160209081526040808320868452600581019092529091205460049091018054859290811061206357634e487b7160e01b600052603260045260246000fd5b90600052602060002001541490509392505050565b60005b825482148015906120a55750600082815260018401602052604080822054825290206003015460ff165b156122c15760008281526001808501602052604080832054808452818420548452922001548114156121c85760008181526001850160205260408082205482528082206002015480835291206003015490925060ff161561214e576000818152600180860160205260408083206003808201805460ff199081169091558786528386208201805482169055825486529285200180549092169092179055908290525492506121c3565b60008181526001850160205260409020600201548314156121765780925061217684846128a9565b50600082815260018085016020526040808320548084528184206003808201805460ff199081169091558254875293862001805490931690931790915591829052546121c3908590612a27565b6122bb565b6000818152600180860160205260408083205483528083209091015480835291206003015490925060ff1615612246576000818152600180860160205260408083206003808201805460ff199081169091558786528386208201805482169055825486529285200180549092169092179055908290525492506122bb565b600081815260018086016020526040909120015483141561226e5780925061226e8484612a27565b50600082815260018085016020526040808320548084528184206003808201805460ff199081169091558254875293862001805490931690931790915591829052546122bb9085906128a9565b5061207b565b505080546000908152600190910160205260409020600301805460ff19169055565b6122ed82826113ac565b61098b576122fa81612b08565b612305836020612b1a565b604051602001612316929190612e8b565b60408051601f198184030181529082905262461bcd60e51b825261057e91600401612fa0565b600081815260018401602052604080822054848352912081905580612363578284556123b0565b600081815260018086016020526040909120015482141561239957600081815260018086016020526040909120018390556123b0565b600081815260018501602052604090206002018390555b50505050565b801561098b5760008181526001830160205260409020600201546123db908390611fd8565b60008281526001808501602052604090912001546123fa908490611fd8565b61240491906138a7565b60009182526001830160205260409091206006810191909155546123b6565b60005b8254821480159061244b5750600082815260018401602052604090206003015460ff16155b1561281f5760008281526001808501602052604080832054808452922001548314156126485760008181526001850160205260408082206002015480835291206003015490925060ff16156124ef576000828152600180860160205260408083206003908101805460ff199081169091558585529190932090920180549092161790556124d884826128a9565b600081815260018501602052604090206002015491505b60008281526001808601602052604080832090910154825290206003015460ff1615801561253a5750600082815260018501602052604080822060020154825290206003015460ff16155b1561256757600082815260018581016020526040909120600301805460ff19169091179055915081612643565b600082815260018501602052604080822060020154825290206003015460ff166125e4576000828152600180860160205260408083208083015484529083206003908101805460ff19908116909155938690520180549092161790556125cd8483612a27565b600081815260018501602052604090206002015491505b600081815260018501602052604080822060039081018054868552838520808401805460ff909316151560ff19938416179055825482169092556002909101548452919092209091018054909116905561263e84826128a9565b835492505b612819565b6000818152600180860160205260408083209091015480835291206003015490925060ff16156126c7576000828152600180860160205260408083206003908101805460ff199081169091558585529190932090920180549092161790556126b08482612a27565b600081815260018086016020526040909120015491505b600082815260018501602052604080822060020154825290206003015460ff16158015612712575060008281526001808601602052604080832090910154825290206003015460ff16155b1561273f57600082815260018581016020526040909120600301805460ff19169091179055915081612819565b60008281526001808601602052604080832090910154825290206003015460ff166127be57600082815260018086016020526040808320600281015484529083206003908101805460ff19908116909155938690520180549092161790556127a784836128a9565b600081815260018086016020526040909120015491505b60008181526001808601602052604080832060039081018054878652838620808401805460ff909316151560ff199384161790558254821690925593015484529220909101805490911690556128148482612a27565b835492505b50612426565b506000908152600190910160205260409020600301805460ff19169055565b60008161284d575060006113d1565b825482141561285e575060016113d1565b60008281526001840160205260409020541561287c575060016113d1565b50600092915050565b61288d611091565b6112b35760405162461bcd60e51b815260040161057e906130a3565b6000818152600180840160205260408083206002810180549154828652928520909301549385905291839055909180156128f157600081815260018601602052604090208490555b60008381526001860160205260409020829055816129115782855561295e565b6000828152600180870160205260409091200154841415612947576000828152600180870160205260409091200183905561295e565b600082815260018601602052604090206002018390555b60008381526001808701602052604080832090910186905585825290208381556002015461298d908690611fd8565b60008581526001808801602052604090912001546129ac908790611fd8565b6129b691906138a7565b60008581526001870160205260408082206006019290925584815220600201546129e1908690611fd8565b6000848152600180880160205260409091200154612a00908790611fd8565b612a0a91906138a7565b600093845260019095016020525050604090206006019190915550565b60008181526001808401602052604080832091820180549254838552918420600201549385905283905590918015612a6d57600081815260018601602052604090208490555b6000838152600186016020526040902082905581612a8d57828555612ada565b6000828152600186016020526040902060020154841415612ac35760008281526001860160205260409020600201839055612ada565b600082815260018087016020526040909120018390555b600083815260018601602052604080822060029081018790558683529120848155015461298d908690611fd8565b606061052e6001600160a01b03831660145b60606000612b298360026138df565b612b349060026138a7565b67ffffffffffffffff811115612b5a57634e487b7160e01b600052604160045260246000fd5b6040519080825280601f01601f191660200182016040528015612b84576020820181803683370190505b509050600360fc1b81600081518110612bad57634e487b7160e01b600052603260045260246000fd5b60200101906001600160f81b031916908160001a905350600f60fb1b81600181518110612bea57634e487b7160e01b600052603260045260246000fd5b60200101906001600160f81b031916908160001a9053506000612c0e8460026138df565b612c199060016138a7565b90505b6001811115612cad576f181899199a1a9b1b9c1cb0b131b232b360811b85600f1660108110612c5b57634e487b7160e01b600052603260045260246000fd5b1a60f81b828281518110612c7f57634e487b7160e01b600052603260045260246000fd5b60200101906001600160f81b031916908160001a90535060049490941c93612ca681613964565b9050612c1c565b50831561170d5760405162461bcd60e51b815260040161057e9061303f565b5080546000825590600052602060002090810190611a0d91905b80821115612cfa5760008155600101612ce6565b5090565b80356001600160a01b038116811461053157600080fd5b803560ff8116811461053157600080fd5b600060208284031215612d37578081fd5b61170d82612cfe565b60008060008060008060c08789031215612d58578182fd5b612d6187612cfe565b955060208701359450612d7660408801612d15565b9350612d8460608801612d15565b92506080870135915060a0870135612d9b816139ac565b809150509295509295509295565b600060208284031215612dba578081fd5b815161170d816139ac565b600060208284031215612dd6578081fd5b5035919050565b60008060408385031215612def578182fd5b82359150612dff60208401612cfe565b90509250929050565b60008060408385031215612e1a578182fd5b50508035926020909101359150565b60008060408385031215612e3b578182fd5b82359150612dff60208401612d15565b600060208284031215612e5c578081fd5b81356001600160e01b03198116811461170d578182fd5b600060208284031215612e84578081fd5b5051919050565b60007f416363657373436f6e74726f6c3a206163636f756e742000000000000000000082528351612ec3816017850160208801613938565b7001034b99036b4b9b9b4b733903937b6329607d1b6017918401918201528351612ef4816028840160208801613938565b01602801949350505050565b6001600160a01b0391909116815260200190565b6001600160a01b039384168152919092166020820152604081019190915260600190565b6001600160a01b03929092168252602082015260400190565b6001600160a01b0396909616865260ff948516602087015292909316604085015215156060840152608083019190915260a082015260c00190565b901515815260200190565b90815260200190565b6000602082528251806020840152612fbf816040850160208701613938565b601f01601f19169190910160400192915050565b6020808252818101527f6f776e65722063616e6e6f7420626520746865207a65726f2061646472657373604082015260600190565b6020808252601e908201527f696e73756666696369656e742076616c6964206368756e6b20636f756e740000604082015260600190565b6020808252818101527f537472696e67733a20686578206c656e67746820696e73756666696369656e74604082015260600190565b6020808252601590820152746f6e6c79207061757365722063616e20706175736560581b604082015260600190565b60208082526014908201527314185d5cd8589b194e881b9bdd081c185d5cd95960621b604082015260600190565b6020808252602e908201527f63757272656e7420746f74616c206f75747061796d656e742073686f756c642060408201526d6e6576657220646563726561736560901b606082015260800190565b6020808252818101527f6e6f726d616c6973656442616c616e63652063616e6e6f74206265207a65726f604082015260600190565b60208082526032908201527f6f6e6c792061646d696e6973747261746f722063616e20736574206d696e696d604082015271756d2076616c696469747920626c6f636b7360701b606082015260800190565b60208082526039908201527f4f7264657253746174697374696373547265652834303529202d2056616c756560408201527f20746f20696e736572742063616e6e6f74206265207a65726f00000000000000606082015260800190565b6020808252601490820152730d2dcecc2d8d2c840c4eac6d6cae840c8cae0e8d60631b604082015260600190565b60208082526017908201527f6f6e6c79207061757365722063616e20756e7061757365000000000000000000604082015260600190565b6020808252600f908201526e3737ba103130ba31b41037bbb732b960891b604082015260600190565b60208082526039908201527f4f7264657253746174697374696373547265652834303729202d2056616c756560408201527f20746f2064656c6574652063616e6e6f74206265207a65726f00000000000000606082015260800190565b60208082526035908201527f696e73756666696369656e7420696e697469616c2062616c616e636520666f7260408201527420323468206d696e696d756d2076616c696469747960581b606082015260800190565b60208082526031908201527f6f6e6c792072656469737472696275746f722063616e20776974686472617720604082015270199c9bdb481d1a194818dbdb9d1c9858dd607a1b606082015260800190565b60208082526010908201526f14185d5cd8589b194e881c185d5cd95960821b604082015260600190565b6020808252603a908201527f4f7264657253746174697374696373547265652834303829202d2056616c756560408201527f20746f2064656c65746520646f6573206e6f742065786973742e000000000000606082015260800190565b60208082526023908201527f626174636820646f6573206e6f74206578697374206f722068617320657870696040820152621c995960ea1b606082015260800190565b602080825260129082015271626174636820697320696d6d757461626c6560701b604082015260600190565b6020808252601f908201527f626174636820646f6573206e6f74206578697374206f72206578706972656400604082015260600190565b602080825260149082015273626174636820616c72656164792065786973747360601b604082015260600190565b60208082526018908201527f626174636820746f6f20736d616c6c20746f2072656e65770000000000000000604082015260600190565b60208082526049908201527f72656d61696e696e672062616c616e636520616674657220646570746820696e60408201527f63726561736520776f756c646e2774206d65657420323468206d696e696d756d6060820152682076616c696469747960b81b608082015260a00190565b60208082526023908201527f6f6e6c79207072696365206f7261636c652063616e207365742074686520707260408201526269636560e81b606082015260800190565b60208082526015908201527418985d18da08185b1c9958591e48195e1c1a5c9959605a1b604082015260600190565b6020808252604f908201527f4f7264657253746174697374696373547265652834303629202d2056616c756560408201527f20616e64204b65792070616972206578697374732e2043616e6e6f742062652060608201526e34b739b2b93a32b21030b3b0b4b71760891b608082015260a00190565b60208082526010908201526f1b9bc818985d18da195cc8195e1a5cdd60821b604082015260600190565b6020808252601490820152736465707468206e6f7420696e6372656173696e6760601b604082015260600190565b60208082526030908201527f4f7264657253746174697374696373547265652834303429202d2056616c756560408201526f103237b2b9903737ba1032bc34b9ba1760811b606082015260800190565b6020808252600f908201526e3330b4b632b2103a3930b739b332b960891b604082015260600190565b60208082526026908201527f6f6e6c792061646d696e6973747261746f722063616e2075736520636f7079206040820152651b595d1a1bd960d21b606082015260800190565b6020808252602f908201527f416363657373436f6e74726f6c3a2063616e206f6e6c792072656e6f756e636560408201526e103937b632b9903337b91039b2b63360891b606082015260800190565b60208082526037908201527f696e73756666696369656e7420746f707065642075702062616c616e6365206660408201527f6f7220323468206d696e696d756d2076616c6964697479000000000000000000606082015260800190565b918252602082015260400190565b95865260208601949094526001600160a01b0392909216604085015260ff9081166060850152166080830152151560a082015260c00190565b60ff91909116815260200190565b60ff929092168252602082015260400190565b600082198211156138ba576138ba613996565b500190565b6000826138da57634e487b7160e01b81526012600452602481fd5b500490565b60008160001904831182151516156138f9576138f9613996565b500290565b60008282101561391057613910613996565b500390565b600060ff821660ff84168082101561392f5761392f613996565b90039392505050565b60005b8381101561395357818101518382015260200161393b565b838111156123b05750506000910152565b60008161397357613973613996565b506000190190565b600060001982141561398f5761398f613996565b5060010190565b634e487b7160e01b600052601160045260246000fd5b8015158114611a0d57600080fdfea2646970667358221220c050f2cfa3d87f1ff18cc45c52096dd8551ce58bbbdc63dcd6e6d42495074a5964736f6c63430008010033",
  "devdoc": {
    "author": "The Swarm Authors",
    "details": "The postage stamp contracts allows users to create and manage postage stamp batches. The current balance for each batch is stored ordered in descending order of normalised balance. Balance is normalised to be per chunk and the total spend since the contract was deployed, i.e. when a batch is bought, its per-chunk balance is supplemented with the current cost of storing one chunk since the beginning of time, as if the batch had existed since the contract's inception. During the _expiry_ process, each of these balances is checked against the _currentTotalOutPayment_, a similarly normalised figure that represents the current cost of storing one chunk since the beginning of time. A batch with a normalised balance less than _currentTotalOutPayment_ is treated as expired. The _currentTotalOutPayment_ is calculated using _totalOutPayment_ which is updated during _setPrice_ events so that the applicable per-chunk prices can be charged for the relevant periods of time. This can then be multiplied by the amount of chunks which are allowed to be stamped by each batch to get the actual cost of storage. The amount of chunks a batch can stamp is determined by the _bucketDepth_. A batch may store a maximum of 2^depth chunks. The global figure for the currently allowed chunks is tracked by _validChunkCount_ and updated during batch _expiry_ events.",
    "events": {
      "BatchCreated(bytes32,uint256,uint256,address,uint8,uint8,bool)": {
        "details": "Emitted when a new batch is created."
      },
      "BatchDepthIncrease(bytes32,uint8,uint256)": {
        "details": "Emitted when the depth of an existing batch increases."
      },
      "BatchTopUp(bytes32,uint256,uint256)": {
        "details": "Emitted when an existing batch is topped up."
      },
      "PriceUpdate(uint256)": {
        "details": "Emitted on every price update."
      }
    },
    "kind": "dev",
    "methods": {
      "constructor": {
        "params": {
          "_bzzToken": "The ERC20 token address to reference in this contract.",
          "_minimumBucketDepth": "The minimum bucket depth of batches that can be purchased."
        }
      },
      "copyBatch(address,uint256,uint8,uint8,bytes32,bool)": {
        "details": "At least `_initialBalancePerChunk*2^depth` tokens must be approved in the ERC20 token contract.",
        "params": {
          "_batchId": "BatchId being copied (from previous version contract data).",
          "_depth": "Initial depth of the new batch.",
          "_immutable": "Whether the batch is mutable.",
          "_initialBalancePerChunk": "Initial balance per chunk of the batch.",
          "_owner": "Owner of the new batch."
        }
      },
      "createBatch(address,uint256,uint8,uint8,bytes32,bool)": {
        "details": "At least `_initialBalancePerChunk*2^depth` tokens must be approved in the ERC20 token contract.",
        "params": {
          "_depth": "Initial depth of the new batch.",
          "_immutable": "Whether the batch is mutable.",
          "_initialBalancePerChunk": "Initial balance per chunk.",
          "_nonce": "A random value used in the batch id derivation to allow multiple batches per owner.",
          "_owner": "Owner of the new batch."
        }
      },
      "currentTotalOutPayment()": {
        "details": "Returns the total normalised all-time per chunk payout. Only Batches with a normalised balance greater than this are valid."
      },
      "expireLimited(uint256)": {
        "details": "Can be used if reclaiming all expired batches would exceed the block gas limit, causing other contract method calls to fail.",
        "params": {
          "limit": "The maximum number of batches to expire."
        }
      },
      "firstBatchId()": {
        "details": "If more than one batch id, return index at 0, if no batches, revert."
      },
      "getRoleAdmin(bytes32)": {
        "details": "Returns the admin role that controls `role`. See {grantRole} and {revokeRole}. To change a role's admin, use {_setRoleAdmin}."
      },
      "grantRole(bytes32,address)": {
        "details": "Grants `role` to `account`. If `account` had not been already granted `role`, emits a {RoleGranted} event. Requirements: - the caller must have ``role``'s admin role. May emit a {RoleGranted} event."
      },
      "hasRole(bytes32,address)": {
        "details": "Returns `true` if `account` has been granted `role`."
      },
      "increaseDepth(bytes32,uint8)": {
        "details": "Can only be called by the owner of the batch.",
        "params": {
          "_batchId": "the id of an existing batch.",
          "_newDepth": "the new (larger than the previous one) depth for this batch."
        }
      },
      "pause()": {
        "details": "Can only be called by the pauser when not paused. The contract can be provably stopped by renouncing the pauser role and the admin role once paused."
      },
      "paused()": {
        "details": "Returns true if the contract is paused, and false otherwise."
      },
      "remainingBalance(bytes32)": {
        "params": {
          "_batchId": "The id of an existing batch."
        }
      },
      "renounceRole(bytes32,address)": {
        "details": "Revokes `role` from the calling account. Roles are often managed via {grantRole} and {revokeRole}: this function's purpose is to provide a mechanism for accounts to lose their privileges if they are compromised (such as when a trusted device is misplaced). If the calling account had been revoked `role`, emits a {RoleRevoked} event. Requirements: - the caller must be `account`. May emit a {RoleRevoked} event."
      },
      "revokeRole(bytes32,address)": {
        "details": "Revokes `role` from `account`. If `account` had been granted `role`, emits a {RoleRevoked} event. Requirements: - the caller must have ``role``'s admin role. May emit a {RoleRevoked} event."
      },
      "setPrice(uint256)": {
        "details": "Can only be called by the price oracle role.",
        "params": {
          "_price": "The new price."
        }
      },
      "supportsInterface(bytes4)": {
        "details": "See {IERC165-supportsInterface}."
      },
      "topUp(bytes32,uint256)": {
        "details": "At least `_topupAmountPerChunk*2^depth` tokens must be approved in the ERC20 token contract.",
        "params": {
          "_batchId": "The id of an existing batch.",
          "_topupAmountPerChunk": "The amount of additional tokens to add per chunk."
        }
      },
      "unPause()": {
        "details": "Can only be called by the pauser role while paused."
      },
      "withdraw(address)": {
        "params": {
          "beneficiary": "Recieves the current total pot."
        }
      }
    },
    "title": "PostageStamp contract",
    "version": 1
  },
  "userdoc": {
    "kind": "user",
    "methods": {
      "copyBatch(address,uint256,uint8,uint8,bytes32,bool)": {
        "notice": "Manually create a new batch when faciliatating migration, can only be called by the Admin role."
      },
      "createBatch(address,uint256,uint8,uint8,bytes32,bool)": {
        "notice": "Create a new batch."
      },
      "currentTotalOutPayment()": {
        "notice": "Total per-chunk cost since the contract's deployment."
      },
      "expireLimited(uint256)": {
        "notice": "Reclaims a limited number of expired batches"
      },
      "expiredBatchesExist()": {
        "notice": "Indicates whether expired batches exist."
      },
      "firstBatchId()": {
        "notice": "Get the first batch id ordered by ascending normalised balance."
      },
      "increaseDepth(bytes32,uint8)": {
        "notice": "Increase the depth of an existing batch."
      },
      "isBatchesTreeEmpty()": {
        "notice": "Return true if no batches exist"
      },
      "pause()": {
        "notice": "Pause the contract."
      },
      "remainingBalance(bytes32)": {
        "notice": "Return the per chunk balance not yet used up."
      },
      "setPrice(uint256)": {
        "notice": "Set a new price."
      },
      "topUp(bytes32,uint256)": {
        "notice": "Top up an existing batch."
      },
      "totalPot()": {
        "notice": "The current pot."
      },
      "unPause()": {
        "notice": "Unpause the contract."
      },
      "withdraw(address)": {
        "notice": "Withdraw the pot, authorised callers only."
      }
    },
    "version": 1
  },
  "storageLayout": {
    "storage": [
      {
        "astId": 24,
        "contract": "src/PostageStamp.sol:PostageStamp",
        "label": "_roles",
        "offset": 0,
        "slot": "0",
        "type": "t_mapping(t_bytes32,t_struct(RoleData)19_storage)"
      },
      {
        "astId": 556,
        "contract": "src/PostageStamp.sol:PostageStamp",
        "label": "_paused",
        "offset": 0,
        "slot": "1",
        "type": "t_bool"
      },
      {
        "astId": 5389,
        "contract": "src/PostageStamp.sol:PostageStamp",
        "label": "batches",
        "offset": 0,
        "slot": "2",
        "type": "t_mapping(t_bytes32,t_struct(Batch)5369_storage)"
      },
      {
        "astId": 5392,
        "contract": "src/PostageStamp.sol:PostageStamp",
        "label": "tree",
        "offset": 0,
        "slot": "3",
        "type": "t_struct(Tree)3295_storage"
      },
      {
        "astId": 5394,
        "contract": "src/PostageStamp.sol:PostageStamp",
        "label": "bzzToken",
        "offset": 0,
        "slot": "5",
        "type": "t_address"
      },
      {
        "astId": 5396,
        "contract": "src/PostageStamp.sol:PostageStamp",
        "label": "totalOutPayment",
        "offset": 0,
        "slot": "6",
        "type": "t_uint256"
      },
      {
        "astId": 5398,
        "contract": "src/PostageStamp.sol:PostageStamp",
        "label": "minimumBucketDepth",
        "offset": 0,
        "slot": "7",
        "type": "t_uint8"
      },
      {
        "astId": 5400,
        "contract": "src/PostageStamp.sol:PostageStamp",
        "label": "validChunkCount",
        "offset": 0,
        "slot": "8",
        "type": "t_uint256"
      },
      {
        "astId": 5402,
        "contract": "src/PostageStamp.sol:PostageStamp",
        "label": "pot",
        "offset": 0,
        "slot": "9",
        "type": "t_uint256"
      },
      {
        "astId": 5405,
        "contract": "src/PostageStamp.sol:PostageStamp",
        "label": "minimumValidityBlocks",
        "offset": 0,
        "slot": "10",
        "type": "t_uint256"
      },
      {
        "astId": 5408,
        "contract": "src/PostageStamp.sol:PostageStamp",
        "label": "lastPrice",
        "offset": 0,
        "slot": "11",
        "type": "t_uint256"
      },
      {
        "astId": 5410,
        "contract": "src/PostageStamp.sol:PostageStamp",
        "label": "lastUpdatedBlock",
        "offset": 0,
        "slot": "12",
        "type": "t_uint256"
      },
      {
        "astId": 5412,
        "contract": "src/PostageStamp.sol:PostageStamp",
        "label": "lastExpiryBalance",
        "offset": 0,
        "slot": "13",
        "type": "t_uint256"
      }
    ],
    "types": {
      "t_address": {
        "encoding": "inplace",
        "label": "address",
        "numberOfBytes": "20"
      },
      "t_array(t_bytes32)dyn_storage": {
        "base": "t_bytes32",
        "encoding": "dynamic_array",
        "label": "bytes32[]",
        "numberOfBytes": "32"
      },
      "t_bool": {
        "encoding": "inplace",
        "label": "bool",
        "numberOfBytes": "1"
      },
      "t_bytes32": {
        "encoding": "inplace",
        "label": "bytes32",
        "numberOfBytes": "32"
      },
      "t_mapping(t_address,t_bool)": {
        "encoding": "mapping",
        "key": "t_address",
        "label": "mapping(address => bool)",
        "numberOfBytes": "32",
        "value": "t_bool"
      },
      "t_mapping(t_bytes32,t_struct(Batch)5369_storage)": {
        "encoding": "mapping",
        "key": "t_bytes32",
        "label": "mapping(bytes32 => struct PostageStamp.Batch)",
        "numberOfBytes": "32",
        "value": "t_struct(Batch)5369_storage"
      },
      "t_mapping(t_bytes32,t_struct(RoleData)19_storage)": {
        "encoding": "mapping",
        "key": "t_bytes32",
        "label": "mapping(bytes32 => struct AccessControl.RoleData)",
        "numberOfBytes": "32",
        "value": "t_struct(RoleData)19_storage"
      },
      "t_mapping(t_bytes32,t_uint256)": {
        "encoding": "mapping",
        "key": "t_bytes32",
        "label": "mapping(bytes32 => uint256)",
        "numberOfBytes": "32",
        "value": "t_uint256"
      },
      "t_mapping(t_uint256,t_struct(Node)3287_storage)": {
        "encoding": "mapping",
        "key": "t_uint256",
        "label": "mapping(uint256 => struct HitchensOrderStatisticsTreeLib.Node)",
        "numberOfBytes": "32",
        "value": "t_struct(Node)3287_storage"
      },
      "t_struct(Batch)5369_storage": {
        "encoding": "inplace",
        "label": "struct PostageStamp.Batch",
        "members": [
          {
            "astId": 5358,
            "contract": "src/PostageStamp.sol:PostageStamp",
            "label": "owner",
            "offset": 0,
            "slot": "0",
            "type": "t_address"
          },
          {
            "astId": 5360,
            "contract": "src/PostageStamp.sol:PostageStamp",
            "label": "depth",
            "offset": 20,
            "slot": "0",
            "type": "t_uint8"
          },
          {
            "astId": 5362,
            "contract": "src/PostageStamp.sol:PostageStamp",
            "label": "bucketDepth",
            "offset": 21,
            "slot": "0",
            "type": "t_uint8"
          },
          {
            "astId": 5364,
            "contract": "src/PostageStamp.sol:PostageStamp",
            "label": "immutableFlag",
            "offset": 22,
            "slot": "0",
            "type": "t_bool"
          },
          {
            "astId": 5366,
            "contract": "src/PostageStamp.sol:PostageStamp",
            "label": "normalisedBalance",
            "offset": 0,
            "slot": "1",
            "type": "t_uint256"
          },
          {
            "astId": 5368,
            "contract": "src/PostageStamp.sol:PostageStamp",
            "label": "lastUpdatedBlockNumber",
            "offset": 0,
            "slot": "2",
            "type": "t_uint256"
          }
        ],
        "numberOfBytes": "96"
      },
      "t_struct(Node)3287_storage": {
        "encoding": "inplace",
        "label": "struct HitchensOrderStatisticsTreeLib.Node",
        "members": [
          {
            "astId": 3271,
            "contract": "src/PostageStamp.sol:PostageStamp",
            "label": "parent",
            "offset": 0,
            "slot": "0",
            "type": "t_uint256"
          },
          {
            "astId": 3273,
            "contract": "src/PostageStamp.sol:PostageStamp",
            "label": "left",
            "offset": 0,
            "slot": "1",
            "type": "t_uint256"
          },
          {
            "astId": 3275,
            "contract": "src/PostageStamp.sol:PostageStamp",
            "label": "right",
            "offset": 0,
            "slot": "2",
            "type": "t_uint256"
          },
          {
            "astId": 3277,
            "contract": "src/PostageStamp.sol:PostageStamp",
            "label": "red",
            "offset": 0,
            "slot": "3",
            "type": "t_bool"
          },
          {
            "astId": 3280,
            "contract": "src/PostageStamp.sol:PostageStamp",
            "label": "keys",
            "offset": 0,
            "slot": "4",
            "type": "t_array(t_bytes32)dyn_storage"
          },
          {
            "astId": 3284,
            "contract": "src/PostageStamp.sol:PostageStamp",
            "label": "keyMap",
            "offset": 0,
            "slot": "5",
            "type": "t_mapping(t_bytes32,t_uint256)"
          },
          {
            "astId": 3286,
            "contract": "src/PostageStamp.sol:PostageStamp",
            "label": "count",
            "offset": 0,
            "slot": "6",
            "type": "t_uint256"
          }
        ],
        "numberOfBytes": "224"
      },
      "t_struct(RoleData)19_storage": {
        "encoding": "inplace",
        "label": "struct AccessControl.RoleData",
        "members": [
          {
            "astId": 16,
            "contract": "src/PostageStamp.sol:PostageStamp",
            "label": "members",
            "offset": 0,
            "slot": "0",
            "type": "t_mapping(t_address,t_bool)"
          },
          {
            "astId": 18,
            "contract": "src/PostageStamp.sol:PostageStamp",
            "label": "adminRole",
            "offset": 0,
            "slot": "1",
            "type": "t_bytes32"
          }
        ],
        "numberOfBytes": "64"
      },
      "t_struct(Tree)3295_storage": {
        "encoding": "inplace",
        "label": "struct HitchensOrderStatisticsTreeLib.Tree",
        "members": [
          {
            "astId": 3289,
            "contract": "src/PostageStamp.sol:PostageStamp",
            "label": "root",
            "offset": 0,
            "slot": "0",
            "type": "t_uint256"
          },
          {
            "astId": 3294,
            "contract": "src/PostageStamp.sol:PostageStamp",
            "label": "nodes",
            "offset": 0,
            "slot": "1",
            "type": "t_mapping(t_uint256,t_struct(Node)3287_storage)"
          }
        ],
        "numberOfBytes": "64"
      },
      "t_uint256": {
        "encoding": "inplace",
        "label": "uint256",
        "numberOfBytes": "32"
      },
      "t_uint8": {
        "encoding": "inplace",
        "label": "uint8",
        "numberOfBytes": "1"
      }
    }
  }
}