{
  "address": "0xFE337DE44C84380E1CbA8a2B8F288d60e3914a35",
  "abi": [
    {
      "anonymous": false,
      "inputs": [
        {
          "indexed": false,
          "internalType": "address",
          "name": "previousAdmin",
          "type": "address"
        },
        {
          "indexed": false,
          "internalType": "address",
          "name": "newAdmin",
          "type": "address"
        }
      ],
      "name": "AdminChanged",
      "type": "event"
    },
    {
      "anonymous": false,
      "inputs": [
        {
          "indexed": true,
          "internalType": "bytes32",
          "name": "batchId",
          "type": "bytes32"
        },
        {
          "indexed": false,
          "internalType": "uint256",
          "name": "totalAmount",
          "type": "uint256"
        },
        {
          "indexed": false,
          "internalType": "uint256",
          "name": "normalisedBalance",
          "type": "uint256"
        },
        {
          "indexed": false,
          "internalType": "address",
          "name": "owner",
          "type": "address"
        },
        {
          "indexed": false,
          "internalType": "uint8",
          "name": "depth",
          "type": "uint8"
        },
        {
          "indexed": false,
          "internalType": "uint8",
          "name": "bucketDepth",
          "type": "uint8"
        },
        {
          "indexed": false,
          "internalType": "bool",
          "name": "immutableFlag",
          "type": "bool"
        }
      ],
      "name": "BatchCreated",
      "type": "event"
    },
    {
      "anonymous": false,
      "inputs": [
        {
          "indexed": true,
          "internalType": "bytes32",
          "name": "batchId",
          "type": "bytes32"
        },
        {
          "indexed": false,
          "internalType": "uint8",
          "name": "newDepth",
          "type": "uint8"
        },
        {
          "indexed": false,
          "internalType": "uint256",
          "name": "normalisedBalance",
          "type": "uint256"
        }
      ],
      "name": "BatchDepthIncrease",
      "type": "event"
    },
    {
      "anonymous": false,
      "inputs": [
        {
          "indexed": true,
          "internalType": "bytes32",
          "name": "batchId",
          "type": "bytes32"
        },
        {
          "indexed": false,
          "internalType": "uint256",
          "name": "topupAmount",
          "type": "uint256"
        },
        {
          "indexed": false,
          "internalType": "uint256",
          "name": "normalisedBalance",
          "type": "uint256"
        }
      ],
      "name": "BatchTopUp",
      "type": "event"
    },
    {
      "anonymous": false,
      "inputs": [
        {
          "indexed": true,
          "internalType": "address",
          "name": "beacon",
          "type": "address"
        }
      ],
      "name": "BeaconUpgraded",
      "type": "event"
    },
    {
      "anonymous": false,
      "inputs": [
        {
          "indexed": false,
          "internalType": "uint8",
          "name": "version",
          "type": "uint8"
        }
      ],
      "name": "Initialized",
      "type": "event"
    },
    {
      "anonymous": false,
      "inputs": [
        {
          "indexed": false,
          "internalType": "address",
          "name": "account",
          "type": "address"
        }
      ],
      "name": "Paused",
      "type": "event"
    },
    {
      "anonymous": false,
      "inputs": [
        {
          "indexed": false,
          "internalType": "address",
          "name": "recipient",
          "type": "address"
        },
        {
          "indexed": false,
          "internalType": "uint256",
          "name": "totalAmount",
          "type": "uint256"
        }
      ],
      "name": "PotWithdrawn",
      "type": "event"
    },
    {
      "anonymous": false,
      "inputs": [
        {
          "indexed": false,
          "internalType": "uint256",
          "name": "price",
          "type": "uint256"
        }
      ],
      "name": "PriceUpdate",
      "type": "event"
    },
    {
      "anonymous": false,
      "inputs": [
        {
          "indexed": true,
          "internalType": "bytes32",
          "name": "role",
          "type": "bytes32"
        },
        {
          "indexed": true,
          "internalType": "bytes32",
          "name": "previousAdminRole",
          "type": "bytes32"
        },
        {
          "indexed": true,
          "internalType": "bytes32",
          "name": "newAdminRole",
          "type": "bytes32"
        }
      ],
      "name": "RoleAdminChanged",
      "type": "event"
    },
    {
      "anonymous": false,
      "inputs": [
        {
          "indexed": true,
          "internalType": "bytes32",
          "name": "role",
          "type": "bytes32"
        },
        {
          "indexed": true,
          "internalType": "address",
          "name": "account",
          "type": "address"
        },
        {
          "indexed": true,
          "internalType": "address",
          "name": "sender",
          "type": "address"
        }
      ],
      "name": "RoleGranted",
      "type": "event"
    },
    {
      "anonymous": false,
      "inputs": [
        {
          "indexed": true,
          "internalType": "bytes32",
          "name": "role",
          "type": "bytes32"
        },
        {
          "indexed": true,
          "internalType": "address",
          "name": "account",
          "type": "address"
        },
        {
          "indexed": true,
          "internalType": "address",
          "name": "sender",
          "type": "address"
        }
      ],
      "name": "RoleRevoked",
      "type": "event"
    },
    {
      "anonymous": false,
      "inputs": [
        {
          "indexed": false,
          "internalType": "address",
          "name": "account",
          "type": "address"
        }
      ],
      "name": "Unpaused",
      "type": "event"
    },
    {
      "anonymous": false,
      "inputs": [
        {
          "indexed": true,
          "internalType": "address",
          "name": "implementation",
          "type": "address"
        }
      ],
      "name": "Upgraded",
      "type": "event"
    },
    {
      "inputs": [],
      "name": "DEFAULT_ADMIN_ROLE",
      "outputs": [
        {
          "internalType": "bytes32",
          "name": "",
          "type": "bytes32"
        }
      ],
      "stateMutability": "view",
      "type": "function"
    },
    {
      "inputs": [],
      "name": "PAUSER_ROLE",
      "outputs": [
        {
          "internalType": "bytes32",
          "name": "",
          "type": "bytes32"
        }
      ],
      "stateMutability": "view",
      "type": "function"
    },
    {
      "inputs": [],
      "name": "PRICE_ORACLE_ROLE",
      "outputs": [
        {
          "internalType": "bytes32",
          "name": "",
          "type": "bytes32"
        }
      ],
      "stateMutability": "view",
      "type": "function"
    },
    {
      "inputs": [],
      "name": "REDISTRIBUTOR_ROLE",
      "outputs": [
        {
          "internalType": "bytes32",
          "name": "",
          "type": "bytes32"
        }
      ],
      "stateMutability": "view",
      "type": "function"
    },
    {
      "inputs": [
        {
          "internalType": "bytes32",
          "name": "_batchId",
          "type": "bytes32"
        }
      ],
      "name": "batchBucketDepth",
      "outputs": [
        {
          "internalType": "uint8",
          "name": "",
          "type": "uint8"
        }
      ],
      "stateMutability": "view",
      "type": "function"
    },
    {
      "inputs": [
        {
          "internalType": "bytes32",
          "name": "_batchId",
          "type": "bytes32"
        }
      ],
      "name": "batchDepth",
      "outputs": [
        {
          "internalType": "uint8",
          "name": "",
          "type": "uint8"
        }
      ],
      "stateMutability": "view",
      "type": "function"
    },
    {
      "inputs": [
        {
          "internalType": "bytes32",
          "name": "_batchId",
          "type": "bytes32"
        }
      ],
      "name": "batchImmutableFlag",
      "outputs": [
        {
          "internalType": "bool",
          "name": "",
          "type": "bool"
        }
      ],
      "stateMutability": "view",
      "type": "function"
    },
    {
      "inputs": [
        {
          "internalType": "bytes32",
          "name": "_batchId",
          "type": "bytes32"
        }
      ],
      "name": "batchLastUpdatedBlockNumber",
      "outputs": [
        {
          "internalType": "uint256",
          "name": "",
          "type": "uint256"
        }
      ],
      "stateMutability": "view",
      "type": "function"
    },
    {
      "inputs": [
        {
          "internalType": "bytes32",
          "name": "_batchId",
          "type": "bytes32"
        }
      ],
      "name": "batchNormalisedBalance",
      "outputs": [
        {
          "internalType": "uint256",
          "name": "",
          "type": "uint256"
        }
      ],
      "stateMutability": "view",
      "type": "function"
    },
    {
      "inputs": [
        {
          "internalType": "bytes32",
          "name": "_batchId",
          "type": "bytes32"
        }
      ],
      "name": "batchOwner",
      "outputs": [
        {
          "internalType": "address",
          "name": "",
          "type": "address"
        }
      ],
      "stateMutability": "view",
      "type": "function"
    },
    {
      "inputs": [
        {
          "internalType": "bytes32",
          "name": "",
          "type": "bytes32"
        }
      ],
      "name": "batches",
      "outputs": [
        {
          "internalType": "address",
          "name": "owner",
          "type": "address"
        },
        {
          "internalType": "uint8",
          "name": "depth",
          "type": "uint8"
        },
        {
          "internalType": "uint8",
          "name": "bucketDepth",
          "type": "uint8"
        },
        {
          "internalType": "bool",
          "name": "immutableFlag",
          "type": "bool"
        },
        {
          "internalType": "uint256",
          "name": "normalisedBalance",
          "type": "uint256"
        },
        {
          "internalType": "uint256",
          "name": "lastUpdatedBlockNumber",
          "type": "uint256"
        }
      ],
      "stateMutability": "view",
      "type": "function"
    },
    {
      "inputs": [],
      "name": "bzzToken",
      "outputs": [
        {
          "internalType": "address",
          "name": "",
          "type": "address"
        }
      ],
      "stateMutability": "view",
      "type": "function"
    },
    {
      "inputs": [
        {
          "internalType": "address",
          "name": "_owner",
          "type": "address"
        },
        {
          "internalType": "uint256",
          "name": "_initialBalancePerChunk",
          "type": "uint256"
        },
        {
          "internalType": "uint8",
          "name": "_depth",
          "type": "uint8"
        },
        {
          "internalType": "uint8",
          "name": "_bucketDepth",
          "type": "uint8"
        },
        {
          "internalType": "bytes32",
          "name": "_batchId",
          "type": "bytes32"
        },
        {
          "internalType": "bool",
          "name": "_immutable",
          "type": "bool"
        }
      ],
      "name": "copyBatch",
      "outputs": [],
      "stateMutability": "nonpayable",
      "type": "function"
    },
    {
      "inputs": [
        {
          "internalType": "address",
          "name": "_owner",
          "type": "address"
        },
        {
          "internalType": "uint256",
          "name": "_initialBalancePerChunk",
          "type": "uint256"
        },
        {
          "internalType": "uint8",
          "name": "_depth",
          "type": "uint8"
        },
        {
          "internalType": "uint8",
          "name": "_bucketDepth",
          "type": "uint8"
        },
        {
          "internalType": "bytes32",
          "name": "_nonce",
          "type": "bytes32"
        },
        {
          "internalType": "bool",
          "name": "_immutable",
          "type": "bool"
        }
      ],
      "name": "createBatch",
      "outputs": [],
      "stateMutability": "nonpayable",
      "type": "function"
    },
    {
      "inputs": [],
      "name": "currentTotalOutPayment",
      "outputs": [
        {
          "internalType": "uint256",
          "name": "",
          "type": "uint256"
        }
      ],
      "stateMutability": "view",
      "type": "function"
    },
    {
      "inputs": [
        {
          "internalType": "uint256",
          "name": "limit",
          "type": "uint256"
        }
      ],
      "name": "expireLimited",
      "outputs": [],
      "stateMutability": "nonpayable",
      "type": "function"
    },
    {
      "inputs": [],
      "name": "expiredBatchesExist",
      "outputs": [
        {
          "internalType": "bool",
          "name": "",
          "type": "bool"
        }
      ],
      "stateMutability": "view",
      "type": "function"
    },
    {
      "inputs": [],
      "name": "firstBatchId",
      "outputs": [
        {
          "internalType": "bytes32",
          "name": "",
          "type": "bytes32"
        }
      ],
      "stateMutability": "view",
      "type": "function"
    },
    {
      "inputs": [
        {
          "internalType": "bytes32",
          "name": "role",
          "type": "bytes32"
        }
      ],
      "name": "getRoleAdmin",
      "outputs": [
        {
          "internalType": "bytes32",
          "name": "",
          "type": "bytes32"
        }
      ],
      "stateMutability": "view",
      "type": "function"
    },
    {
      "inputs": [
        {
          "internalType": "bytes32",
          "name": "role",
          "type": "bytes32"
        },
        {
          "internalType": "address",
          "name": "account",
          "type": "address"
        }
      ],
      "name": "grantRole",
      "outputs": [],
      "stateMutability": "nonpayable",
      "type": "function"
    },
    {
      "inputs": [
        {
          "internalType": "bytes32",
          "name": "role",
          "type": "bytes32"
        },
        {
          "internalType": "address",
          "name": "account",
          "type": "address"
        }
      ],
      "name": "hasRole",
      "outputs": [
        {
          "internalType": "bool",
          "name": "",
          "type": "bool"
        }
      ],
      "stateMutability": "view",
      "type": "function"
    },
    {
      "inputs": [
        {
          "internalType": "bytes32",
          "name": "_batchId",
          "type": "bytes32"
        },
        {
          "internalType": "uint8",
          "name": "_newDepth",
          "type": "uint8"
        }
      ],
      "name": "increaseDepth",
      "outputs": [],
      "stateMutability": "nonpayable",
      "type": "function"
    },
    {
      "inputs": [],
      "name": "increment",
      "outputs": [],
      "stateMutability": "nonpayable",
      "type": "function"
    },
    {
      "inputs": [
        {
          "internalType": "address",
          "name": "_bzzToken",
          "type": "address"
        },
        {
          "internalType": "uint8",
          "name": "_minimumBucketDepth",
          "type": "uint8"
        }
      ],
      "name": "initialize",
      "outputs": [],
      "stateMutability": "nonpayable",
      "type": "function"
    },
    {
      "inputs": [],
      "name": "isBatchesTreeEmpty",
      "outputs": [
        {
          "internalType": "bool",
          "name": "",
          "type": "bool"
        }
      ],
      "stateMutability": "view",
      "type": "function"
    },
    {
      "inputs": [],
      "name": "lastExpiryBalance",
      "outputs": [
        {
          "internalType": "uint256",
          "name": "",
          "type": "uint256"
        }
      ],
      "stateMutability": "view",
      "type": "function"
    },
    {
      "inputs": [],
      "name": "lastPrice",
      "outputs": [
        {
          "internalType": "uint256",
          "name": "",
          "type": "uint256"
        }
      ],
      "stateMutability": "view",
      "type": "function"
    },
    {
      "inputs": [],
      "name": "lastUpdatedBlock",
      "outputs": [
        {
          "internalType": "uint256",
          "name": "",
          "type": "uint256"
        }
      ],
      "stateMutability": "view",
      "type": "function"
    },
    {
      "inputs": [],
      "name": "minimumBucketDepth",
      "outputs": [
        {
          "internalType": "uint8",
          "name": "",
          "type": "uint8"
        }
      ],
      "stateMutability": "view",
      "type": "function"
    },
    {
      "inputs": [],
      "name": "minimumInitialBalancePerChunk",
      "outputs": [
        {
          "internalType": "uint256",
          "name": "",
          "type": "uint256"
        }
      ],
      "stateMutability": "view",
      "type": "function"
    },
    {
      "inputs": [],
      "name": "minimumValidityBlocks",
      "outputs": [
        {
          "internalType": "uint256",
          "name": "",
          "type": "uint256"
        }
      ],
      "stateMutability": "view",
      "type": "function"
    },
    {
      "inputs": [],
      "name": "pause",
      "outputs": [],
      "stateMutability": "nonpayable",
      "type": "function"
    },
    {
      "inputs": [],
      "name": "paused",
      "outputs": [
        {
          "internalType": "bool",
          "name": "",
          "type": "bool"
        }
      ],
      "stateMutability": "view",
      "type": "function"
    },
    {
      "inputs": [],
      "name": "pot",
      "outputs": [
        {
          "internalType": "uint256",
          "name": "",
          "type": "uint256"
        }
      ],
      "stateMutability": "view",
      "type": "function"
    },
    {
      "inputs": [],
      "name": "proxiableUUID",
      "outputs": [
        {
          "internalType": "bytes32",
          "name": "",
          "type": "bytes32"
        }
      ],
      "stateMutability": "view",
      "type": "function"
    },
    {
      "inputs": [
        {
          "internalType": "bytes32",
          "name": "_batchId",
          "type": "bytes32"
        }
      ],
      "name": "remainingBalance",
      "outputs": [
        {
          "internalType": "uint256",
          "name": "",
          "type": "uint256"
        }
      ],
      "stateMutability": "view",
      "type": "function"
    },
    {
      "inputs": [
        {
          "internalType": "bytes32",
          "name": "role",
          "type": "bytes32"
        },
        {
          "internalType": "address",
          "name": "account",
          "type": "address"
        }
      ],
      "name": "renounceRole",
      "outputs": [],
      "stateMutability": "nonpayable",
      "type": "function"
    },
    {
      "inputs": [
        {
          "internalType": "bytes32",
          "name": "role",
          "type": "bytes32"
        },
        {
          "internalType": "address",
          "name": "account",
          "type": "address"
        }
      ],
      "name": "revokeRole",
      "outputs": [],
      "stateMutability": "nonpayable",
      "type": "function"
    },
    {
      "inputs": [
        {
          "internalType": "uint256",
          "name": "_value",
          "type": "uint256"
        }
      ],
      "name": "setMinimumValidityBlocks",
      "outputs": [],
      "stateMutability": "nonpayable",
      "type": "function"
    },
    {
      "inputs": [
        {
          "internalType": "uint256",
          "name": "_price",
          "type": "uint256"
        }
      ],
      "name": "setPrice",
      "outputs": [],
      "stateMutability": "nonpayable",
      "type": "function"
    },
    {
      "inputs": [
        {
          "internalType": "bytes4",
          "name": "interfaceId",
          "type": "bytes4"
        }
      ],
      "name": "supportsInterface",
      "outputs": [
        {
          "internalType": "bool",
          "name": "",
          "type": "bool"
        }
      ],
      "stateMutability": "view",
      "type": "function"
    },
    {
      "inputs": [
        {
          "internalType": "bytes32",
          "name": "_batchId",
          "type": "bytes32"
        },
        {
          "internalType": "uint256",
          "name": "_topupAmountPerChunk",
          "type": "uint256"
        }
      ],
      "name": "topUp",
      "outputs": [],
      "stateMutability": "nonpayable",
      "type": "function"
    },
    {
      "inputs": [],
      "name": "totalPot",
      "outputs": [
        {
          "internalType": "uint256",
          "name": "",
          "type": "uint256"
        }
      ],
      "stateMutability": "nonpayable",
      "type": "function"
    },
    {
      "inputs": [],
      "name": "unPause",
      "outputs": [],
      "stateMutability": "nonpayable",
      "type": "function"
    },
    {
      "inputs": [
        {
          "internalType": "address",
          "name": "newImplementation",
          "type": "address"
        }
      ],
      "name": "upgradeTo",
      "outputs": [],
      "stateMutability": "nonpayable",
      "type": "function"
    },
    {
      "inputs": [
        {
          "internalType": "address",
          "name": "newImplementation",
          "type": "address"
        },
        {
          "internalType": "bytes",
          "name": "data",
          "type": "bytes"
        }
      ],
      "name": "upgradeToAndCall",
      "outputs": [],
      "stateMutability": "payable",
      "type": "function"
    },
    {
      "inputs": [],
      "name": "validChunkCount",
      "outputs": [
        {
          "internalType": "uint256",
          "name": "",
          "type": "uint256"
        }
      ],
      "stateMutability": "view",
      "type": "function"
    },
    {
      "inputs": [
        {
          "internalType": "address",
          "name": "beneficiary",
          "type": "address"
        }
      ],
      "name": "withdraw",
      "outputs": [],
      "stateMutability": "nonpayable",
      "type": "function"
    }
  ],
  "transactionHash": "0x55de339c83b9216db261f55548725ae911038f7e31b883fef66f4121ac30ce6f",
  "args": [],
  "numDeployments": 3,
  "solcInputHash": "0b8428b7b21788ec0e6c55288d7fe507",
  "bytecode": "0x60a06040523060805234801561001457600080fd5b5060805161457b61004c60003960008181610eba01528181610efa015281816113290152818161136901526119cf015261457b6000f3fe6080604052600436106102935760003560e01c806381e508b91161015a578063b998902f116100c1578063dd483cfb1161007a578063dd483cfb146108b5578063df674385146108cc578063e63ab1e9146108fd578063ea612e1f1461091f578063f7b188a514610936578063f90ce5ba1461094b57600080fd5b8063b998902f1461074c578063c81e25ab14610780578063d09de08a14610828578063d547741f1461083d578063d71ba7c41461085d578063d968f44b1461087d57600080fd5b806391d148541161011357806391d1485414610688578063943b24b2146106a8578063a217fddf146106c8578063a6471a1d146106dd578063a81064ee14610711578063b67644b91461072c57600080fd5b806381e508b9146105e15780638456cb59146106125780638a5e8e32146106275780638b82547f1461063e578063906978421461065357806391b7f5ed1461066857600080fd5b806344beae8e116101fe57806351cff8d9116101b757806351cff8d91461053f5780635239af711461055f57806352d1902d1461057f5780635c975abb14610594578063628de877146105ac578063711bfa2b146105cc57600080fd5b806344beae8e1461048857806347aab79b146104c057806348652ce7146104e05780634ba2363a146105005780634f1ef2861461051757806351b17cd01461052a57600080fd5b806324b570a91161025057806324b570a9146103a85780632f2ff15d146103bd57806332ac57dd146103dd57806336568abe146104275780633659cfe614610447578063420fc4db1461046757600080fd5b806301ffc9a714610298578063053f14da146102cd5780631889b99b146102f257806318c8572f146103075780632182ddb114610329578063248a9ca314610378575b600080fd5b3480156102a457600080fd5b506102b86102b3366004613f20565b610962565b60405190151581526020015b60405180910390f35b3480156102d957600080fd5b506102e46101365481565b6040519081526020016102c4565b3480156102fe57600080fd5b506102b8610999565b34801561031357600080fd5b50610327610322366004613f80565b6109ac565b005b34801561033557600080fd5b50610360610344366004613fea565b600090815261012d60205260409020546001600160a01b031690565b6040516001600160a01b0390911681526020016102c4565b34801561038457600080fd5b506102e4610393366004613fea565b600090815260c9602052604090206001015490565b3480156103b457600080fd5b506102e4610d70565b3480156103c957600080fd5b506103276103d8366004614003565b610e08565b3480156103e957600080fd5b506104156103f8366004613fea565b600090815261012d6020526040902054600160a81b900460ff1690565b60405160ff90911681526020016102c4565b34801561043357600080fd5b50610327610442366004614003565b610e32565b34801561045357600080fd5b5061032761046236600461402f565b610eb0565b34801561047357600080fd5b5061013054610360906001600160a01b031681565b34801561049457600080fd5b506104156104a3366004613fea565b600090815261012d6020526040902054600160a01b900460ff1690565b3480156104cc57600080fd5b506103276104db36600461404a565b610f8f565b3480156104ec57600080fd5b506103276104fb366004613fea565b6112a7565b34801561050c57600080fd5b506102e46101345481565b610327610525366004614083565b61131f565b34801561053657600080fd5b506102e46113eb565b34801561054b57600080fd5b5061032761055a36600461402f565b611428565b34801561056b57600080fd5b5061032761057a366004613f80565b6115a4565b34801561058b57600080fd5b506102e46119c2565b3480156105a057600080fd5b5060fb5460ff166102b8565b3480156105b857600080fd5b506103276105c7366004613fea565b611a75565b3480156105d857600080fd5b506102b8611c83565b3480156105ed57600080fd5b506102e46105fc366004613fea565b600090815261012d602052604090206002015490565b34801561061e57600080fd5b50610327611cac565b34801561063357600080fd5b506102e46101335481565b34801561064a57600080fd5b506102e4611d12565b34801561065f57600080fd5b506102e4611d73565b34801561067457600080fd5b50610327610683366004613fea565b611d8c565b34801561069457600080fd5b506102b86106a3366004614003565b611e65565b3480156106b457600080fd5b506103276106c3366004614145565b611e90565b3480156106d457600080fd5b506102e4600081565b3480156106e957600080fd5b506102e47f3e35b14a9f4fef84b59f9bdcd3044fc28783144b7e42bfb2cd075e6a02cb082881565b34801561071d57600080fd5b50610132546104159060ff1681565b34801561073857600080fd5b5061032761074736600461416f565b612007565b34801561075857600080fd5b506102e47fdd24a0f121e5ab7c3e97c63eaaf859e0b46792c3e0edfd86e2b3ad50f63011d881565b34801561078c57600080fd5b506107e861079b366004613fea565b61012d602052600090815260409020805460018201546002909201546001600160a01b0382169260ff600160a01b8404811693600160a81b8104821693600160b01b909104909116919086565b604080516001600160a01b0397909716875260ff9586166020880152939094169285019290925215156060840152608083015260a082015260c0016102c4565b34801561083457600080fd5b50610327612303565b34801561084957600080fd5b50610327610858366004614003565b61231b565b34801561086957600080fd5b506102e4610878366004613fea565b612340565b34801561088957600080fd5b506102b8610898366004613fea565b600090815261012d6020526040902054600160b01b900460ff1690565b3480156108c157600080fd5b506102e46101355481565b3480156108d857600080fd5b506102e46108e7366004613fea565b600090815261012d602052604090206001015490565b34801561090957600080fd5b506102e46000805160206144ff83398151915281565b34801561092b57600080fd5b506102e46101385481565b34801561094257600080fd5b506103276123df565b34801561095757600080fd5b506102e46101375481565b60006001600160e01b03198216637965db0b60e01b148061099357506301ffc9a760e01b6001600160e01b03198316145b92915050565b60006109a661012e61244b565b15919050565b6109b461245b565b6109bf600033611e65565b610a1f5760405162461bcd60e51b815260206004820152602660248201527f6f6e6c792061646d696e6973747261746f722063616e2075736520636f7079206044820152651b595d1a1bd960d21b60648201526084015b60405180910390fd5b6001600160a01b038616610a755760405162461bcd60e51b815260206004820181905260248201527f6f776e65722063616e6e6f7420626520746865207a65726f20616464726573736044820152606401610a16565b60ff831615801590610a8c57508360ff168360ff16105b610acf5760405162461bcd60e51b81526020600482015260146024820152730d2dcecc2d8d2c840c4eac6d6cae840c8cae0e8d60631b6044820152606401610a16565b600082815261012d60205260409020546001600160a01b031615610b2c5760405162461bcd60e51b8152602060048201526014602482015273626174636820616c72656164792065786973747360601b6044820152606401610a16565b6000610b3e600160ff87161b876141a7565b610130546040516323b872dd60e01b8152336004820152306024820152604481018390529192506001600160a01b0316906323b872dd906064016020604051808303816000875af1158015610b97573d6000803e3d6000fd5b505050506040513d601f19601f82011682018060405250810190610bbb91906141be565b610bd75760405162461bcd60e51b8152600401610a16906141db565b600086610be26113eb565b610bec9190614204565b90508560ff166001901b6101336000828254610c089190614204565b90915550506040805160c0810182526001600160a01b03808b16825260ff808a1660208085019182528a831685870190815289151560608701908152608087018981524360a0890190815260008e815261012d90955298909320965187549451925191511515600160b01b0260ff60b01b19928716600160a81b029290921661ffff60a81b1993909616600160a01b026001600160a81b0319909516961695909517929092179190911691909117919091178255516001820155905160029091015580610d175760405162461bcd60e51b815260206004820181905260248201527f6e6f726d616c6973656442616c616e63652063616e6e6f74206265207a65726f6044820152606401610a16565b610d2461012e85836124a1565b837f9b088e2c89b322a3c1d81515e1c88db3d386d022926f0e2d0b9b5813b7413d5883838b8a8a89604051610d5e96959493929190614217565b60405180910390a25050505050505050565b6000610d7d600019611a75565b610130546040516370a0823160e01b81523060048201526000916001600160a01b0316906370a0823190602401602060405180830381865afa158015610dc7573d6000803e3d6000fd5b505050506040513d601f19601f82011682018060405250810190610deb9190614250565b9050806101345410610dfd5780610e02565b610134545b91505090565b600082815260c96020526040902060010154610e238161274d565b610e2d8383612757565b505050565b6001600160a01b0381163314610ea25760405162461bcd60e51b815260206004820152602f60248201527f416363657373436f6e74726f6c3a2063616e206f6e6c792072656e6f756e636560448201526e103937b632b9903337b91039b2b63360891b6064820152608401610a16565b610eac82826127dd565b5050565b6001600160a01b037f0000000000000000000000000000000000000000000000000000000000000000163003610ef85760405162461bcd60e51b8152600401610a1690614269565b7f00000000000000000000000000000000000000000000000000000000000000006001600160a01b0316610f416000805160206144df833981519152546001600160a01b031690565b6001600160a01b031614610f675760405162461bcd60e51b8152600401610a16906142b5565b610f7081612844565b60408051600080825260208201909252610f8c9183919061284f565b50565b610f9761245b565b600082815261012d6020526040902080546001600160a01b03163314610ff15760405162461bcd60e51b815260206004820152600f60248201526e3737ba103130ba31b41037bbb732b960891b6044820152606401610a16565b6101325460ff80841691161080156110165750805460ff808416600160a01b90920416105b6110595760405162461bcd60e51b81526020600482015260146024820152736465707468206e6f7420696e6372656173696e6760601b6044820152606401610a16565b8054600160b01b900460ff16156110a75760405162461bcd60e51b8152602060048201526012602482015271626174636820697320696d6d757461626c6560701b6044820152606401610a16565b6110af6113eb565b8160010154116110f95760405162461bcd60e51b815260206004820152601560248201527418985d18da08185b1c9958591e48195e1c1a5c9959605a1b6044820152606401610a16565b805460009061111290600160a01b900460ff1684614301565b90506000600160ff83161b61112686612340565b611130919061431a565b905061113a611d73565b8110156111c15760405162461bcd60e51b815260206004820152604960248201527f72656d61696e696e672062616c616e636520616674657220646570746820696e60448201527f63726561736520776f756c646e2774206d65657420323468206d696e696d756d6064820152682076616c696469747960b81b608482015260a401610a16565b6111cc600019611a75565b82546111ec90600160ff600160a01b909204821681901b9187161b61433c565b61013360008282546111fe9190614204565b909155505060018301546112179061012e9087906129ba565b825460ff60a01b1916600160a01b60ff8616021783554360028401558061123c6113eb565b6112469190614204565b6001840181905561125c9061012e9087906124a1565b60018301546040805160ff87168152602081019290925286917faf27998ec15e9d3809edad41aec1b5551d8412e71bd07c91611a0237ead1dc8e910160405180910390a25050505050565b6112b2600033611e65565b6113195760405162461bcd60e51b815260206004820152603260248201527f6f6e6c792061646d696e6973747261746f722063616e20736574206d696e696d604482015271756d2076616c696469747920626c6f636b7360701b6064820152608401610a16565b61013555565b6001600160a01b037f00000000000000000000000000000000000000000000000000000000000000001630036113675760405162461bcd60e51b8152600401610a1690614269565b7f00000000000000000000000000000000000000000000000000000000000000006001600160a01b03166113b06000805160206144df833981519152546001600160a01b031690565b6001600160a01b0316146113d65760405162461bcd60e51b8152600401610a16906142b5565b6113df82612844565b610eac8282600161284f565b60008061013754436113fd919061433c565b90506000816101365461141091906141a7565b905080610131546114219190614204565b9250505090565b6114527f3e35b14a9f4fef84b59f9bdcd3044fc28783144b7e42bfb2cd075e6a02cb082833611e65565b6114b85760405162461bcd60e51b815260206004820152603160248201527f6f6e6c792072656469737472696275746f722063616e20776974686472617720604482015270199c9bdb481d1a194818dbdb9d1c9858dd607a1b6064820152608401610a16565b60006114c2610d70565b6101305460405163a9059cbb60e01b81526001600160a01b0385811660048301526024820184905292935091169063a9059cbb906044016020604051808303816000875af1158015611518573d6000803e3d6000fd5b505050506040513d601f19601f8201168201806040525081019061153c91906141be565b6115585760405162461bcd60e51b8152600401610a16906141db565b604080516001600160a01b0384168152602081018390527ff5d8f9b1e7af440e1e7915f4693ccc004d1461a7dafd17ea7347d03decf298e1910160405180910390a15050600061013455565b6115ac61245b565b6001600160a01b0386166116025760405162461bcd60e51b815260206004820181905260248201527f6f776e65722063616e6e6f7420626520746865207a65726f20616464726573736044820152606401610a16565b60ff83161580159061161d57506101325460ff808516911611155b801561162e57508360ff168360ff16105b6116715760405162461bcd60e51b81526020600482015260146024820152730d2dcecc2d8d2c840c4eac6d6cae840c8cae0e8d60631b6044820152606401610a16565b6040805133602082015290810183905260009060600160408051601f198184030181529181528151602092830120600081815261012d9093529120549091506001600160a01b0316156116fd5760405162461bcd60e51b8152602060048201526014602482015273626174636820616c72656164792065786973747360601b6044820152606401610a16565b611705611d73565b8610156117725760405162461bcd60e51b815260206004820152603560248201527f696e73756666696369656e7420696e697469616c2062616c616e636520666f7260448201527420323468206d696e696d756d2076616c696469747960581b6064820152608401610a16565b6000611784600160ff88161b886141a7565b610130546040516323b872dd60e01b8152336004820152306024820152604481018390529192506001600160a01b0316906323b872dd906064016020604051808303816000875af11580156117dd573d6000803e3d6000fd5b505050506040513d601f19601f8201168201806040525081019061180191906141be565b61181d5760405162461bcd60e51b8152600401610a16906141db565b6000876118286113eb565b6118329190614204565b905061183f600019611a75565b8660ff166001901b61013360008282546118599190614204565b90915550506040805160c0810182526001600160a01b03808c16825260ff808b1660208085019182528b83168587019081528a151560608701908152608087018981524360a0890190815260008d815261012d90955298909320965187549451925191511515600160b01b0260ff60b01b19928716600160a81b029290921661ffff60a81b1993909616600160a01b026001600160a81b03199095169616959095179290921791909116919091179190911782555160018201559051600290910155806119685760405162461bcd60e51b815260206004820181905260248201527f6e6f726d616c6973656442616c616e63652063616e6e6f74206265207a65726f6044820152606401610a16565b61197561012e84836124a1565b827f9b088e2c89b322a3c1d81515e1c88db3d386d022926f0e2d0b9b5813b7413d5883838c8b8b8a6040516119af96959493929190614217565b60405180910390a2505050505050505050565b6000306001600160a01b037f00000000000000000000000000000000000000000000000000000000000000001614611a625760405162461bcd60e51b815260206004820152603860248201527f555550535570677261646561626c653a206d757374206e6f742062652063616c60448201527f6c6564207468726f7567682064656c656761746563616c6c00000000000000006064820152608401610a16565b506000805160206144df83398151915290565b6101385460005b82811015611be057611a8c610999565b15611aa257611a996113eb565b61013855611be0565b6000611aac611d12565b90506000611ab982612340565b1115611ad157611ac76113eb565b6101385550611be0565b600081815261012d602052604090208054610133546001600160a01b90920460ff169190911b90811115611b475760405162461bcd60e51b815260206004820152601e60248201527f696e73756666696369656e742076616c6964206368756e6b20636f756e7400006044820152606401610a16565b806101336000828254611b5a919061433c565b90915550506001820154611b6f90869061433c565b611b7990826141a7565b6101346000828254611b8b9190614204565b90915550506001820154611ba49061012e9085906129ba565b5050600090815261012d6020526040812080546001600160b81b0319168155600181018290556002015580611bd88161434f565b915050611a7c565b81610138541015611c4a5760405162461bcd60e51b815260206004820152602e60248201527f63757272656e7420746f74616c206f75747061796d656e742073686f756c642060448201526d6e6576657220646563726561736560901b6064820152608401610a16565b8161013854611c59919061433c565b61013354611c6791906141a7565b6101346000828254611c799190614204565b9091555050505050565b6000611c8d610999565b15611c985750600090565b6000611ca5610878611d12565b1115905090565b611cc46000805160206144ff83398151915233611e65565b611d085760405162461bcd60e51b81526020600482015260156024820152746f6e6c79207061757365722063616e20706175736560581b6044820152606401610a16565b611d10612db5565b565b600080611d2061012e612e0f565b905060008111611d655760405162461bcd60e51b815260206004820152601060248201526f1b9bc818985d18da195cc8195e1a5cdd60821b6044820152606401610a16565b610e0261012e826000612e56565b60006101365461013554611d8791906141a7565b905090565b611db67fdd24a0f121e5ab7c3e97c63eaaf859e0b46792c3e0edfd86e2b3ad50f63011d833611e65565b611e0e5760405162461bcd60e51b815260206004820152602360248201527f6f6e6c79207072696365206f7261636c652063616e207365742074686520707260448201526269636560e81b6064820152608401610a16565b6101365415611e2457611e1f6113eb565b610131555b61013681905543610137556040518181527fae46785019700e30375a5d7b4f91e32f8060ef085111f896ebf889450aa2ab5a9060200160405180910390a150565b600091825260c9602090815260408084206001600160a01b0393909316845291905290205460ff1690565b600054610100900460ff1615808015611eb05750600054600160ff909116105b80611eca5750303b158015611eca575060005460ff166001145b611f2d5760405162461bcd60e51b815260206004820152602e60248201527f496e697469616c697a61626c653a20636f6e747261637420697320616c72656160448201526d191e481a5b9a5d1a585b1a5e995960921b6064820152608401610a16565b6000805460ff191660011790558015611f50576000805461ff0019166101001790555b61013080546001600160a01b0319166001600160a01b038516179055610132805460ff191660ff8416179055612c10610135556000610136819055611f959033612f00565b611fad6000805160206144ff83398151915233612f00565b611fb5612f0a565b611fbd612f31565b8015610e2d576000805461ff0019169055604051600181527f7f26b83ff96e1f2b6a682f133852f6798a09c465da95921460cefb38474024989060200160405180910390a1505050565b61200f61245b565b600082815261012d6020526040902080546001600160a01b03166120815760405162461bcd60e51b815260206004820152602360248201527f626174636820646f6573206e6f74206578697374206f722068617320657870696044820152621c995960ea1b6064820152608401610a16565b6120896113eb565b8160010154116120d35760405162461bcd60e51b815260206004820152601560248201527418985d18da08185b1c9958591e48195e1c1a5c9959605a1b6044820152606401610a16565b61013254815460ff918216600160a01b909104909116116121365760405162461bcd60e51b815260206004820152601860248201527f626174636820746f6f20736d616c6c20746f2072656e657700000000000000006044820152606401610a16565b61213e611d73565b8261214885612340565b6121529190614204565b10156121c65760405162461bcd60e51b815260206004820152603760248201527f696e73756666696369656e7420746f707065642075702062616c616e6365206660448201527f6f7220323468206d696e696d756d2076616c69646974790000000000000000006064820152608401610a16565b80546000906121e3906001600160a01b90910460ff161b846141a7565b610130546040516323b872dd60e01b8152336004820152306024820152604481018390529192506001600160a01b0316906323b872dd906064016020604051808303816000875af115801561223c573d6000803e3d6000fd5b505050506040513d601f19601f8201168201806040525081019061226091906141be565b61227c5760405162461bcd60e51b8152600401610a16906141db565b60018201546122909061012e9086906129ba565b8282600101546122a09190614204565b600183018190556122b69061012e9086906124a1565b837faf5756c62d6c0722ef9be1f82bef97ab06ea5aea7f3eb8ad348422079f01d88d8284600101546040516122f5929190918252602082015260400190565b60405180910390a250505050565b61013580549060006123148361434f565b9190505550565b600082815260c960205260409020600101546123368161274d565b610e2d83836127dd565b600081815261012d6020526040812080546001600160a01b03166123a65760405162461bcd60e51b815260206004820152601f60248201527f626174636820646f6573206e6f74206578697374206f722065787069726564006044820152606401610a16565b6123ae6113eb565b8160010154116123c15750600092915050565b6123c96113eb565b81600101546123d8919061433c565b9392505050565b6123f76000805160206144ff83398151915233611e65565b6124435760405162461bcd60e51b815260206004820152601760248201527f6f6e6c79207061757365722063616e20756e70617573650000000000000000006044820152606401610a16565b611d10612f60565b6000610993828360000154612f99565b60fb5460ff1615611d105760405162461bcd60e51b815260206004820152601060248201526f14185d5cd8589b194e881c185d5cd95960821b6044820152606401610a16565b806125145760405162461bcd60e51b815260206004820152603960248201527f4f7264657253746174697374696373547265652834303529202d2056616c756560448201527f20746f20696e736572742063616e6e6f74206265207a65726f000000000000006064820152608401610a16565b61251f838383612fc5565b156125aa5760405162461bcd60e51b815260206004820152604f60248201527f4f7264657253746174697374696373547265652834303629202d2056616c756560448201527f20616e64204b65792070616972206578697374732e2043616e6e6f742062652060648201526e34b739b2b93a32b21030b3b0b4b71760891b608482015260a401610a16565b82546000905b801561268e57809150808310156125da576000908152600180860160205260409091200154612665565b808311156125fb576000908152600185016020526040902060020154612665565b80830361266557600081815260018087016020908152604083206004018054808401825581855291842090910187905591839052905461263b919061433c565b60009182526001909501602090815260408083209583526005909501905292909220929092555050565b600082815260018601602052604081206006018054916126848361434f565b91905055506125b0565b600083815260018087016020908152604083208581558083018490556002810184905560038101805460ff19168417905560048101805480850182558186529290942090910187905591546126e3919061433c565b6000868152600583016020526040902055826127015783865561273b565b82841015612724576000838152600180880160205260409091200184905561273b565b600083815260018701602052604090206002018490555b612745868561302b565b505050505050565b610f8c8133613293565b6127618282611e65565b610eac57600082815260c9602090815260408083206001600160a01b03851684529091529020805460ff191660011790556127993390565b6001600160a01b0316816001600160a01b0316837f2f8788117e7eff1d82e926ec794901d17c78024a50270940304540a733656f0d60405160405180910390a45050565b6127e78282611e65565b15610eac57600082815260c9602090815260408083206001600160a01b0385168085529252808320805460ff1916905551339285917ff6391f5c32d9c69d2a47ea670b442974b53935d1edc7fd64eb21e047a839171b9190a45050565b6000610eac8161274d565b7f4910fdfa16fed3260ed0e7147f7cc6da11a60208b5b9406d12a635614ffd91435460ff161561288257610e2d836132ec565b826001600160a01b03166352d1902d6040518163ffffffff1660e01b8152600401602060405180830381865afa9250505080156128dc575060408051601f3d908101601f191682019092526128d991810190614250565b60015b61293f5760405162461bcd60e51b815260206004820152602e60248201527f45524331393637557067726164653a206e657720696d706c656d656e7461746960448201526d6f6e206973206e6f74205555505360901b6064820152608401610a16565b6000805160206144df83398151915281146129ae5760405162461bcd60e51b815260206004820152602960248201527f45524331393637557067726164653a20756e737570706f727465642070726f786044820152681a58589b195555525160ba1b6064820152608401610a16565b50610e2d838383613388565b80612a2d5760405162461bcd60e51b815260206004820152603960248201527f4f7264657253746174697374696373547265652834303729202d2056616c756560448201527f20746f2064656c6574652063616e6e6f74206265207a65726f000000000000006064820152608401610a16565b612a38838383612fc5565b612aaa5760405162461bcd60e51b815260206004820152603a60248201527f4f7264657253746174697374696373547265652834303829202d2056616c756560448201527f20746f2064656c65746520646f6573206e6f742065786973742e0000000000006064820152608401610a16565b6000818152600180850160209081526040808420868552600581019092528320546004820180549294919391929091612ae29161433c565b81548110612af257612af2614368565b9060005260206000200154905080836004018381548110612b1557612b15614368565b6000918252602080832090910192909255828152600585019091526040902082905560048301805480612b4a57612b4a61437e565b600190038181906000526020600020016000905590556000808460040180549050600003612dab5760008681526001808a01602052604090912001541580612ba357506000868152600189016020526040902060020154155b15612baf575084612bf7565b5060008581526001880160205260409020600201545b60008181526001808a016020526040909120015415612bf7576000908152600180890160205260409091200154612bc5565b60008181526001808a016020526040909120015415612c2b5760008181526001808a01602052604090912001549150612c42565b600081815260018901602052604090206002015491505b60008181526001890160205260408082205484835291208190558015612cb25760008181526001808b01602052604090912001548203612c975760008181526001808b01602052604090912001839055612cb6565b600081815260018a0160205260409020600201839055612cb6565b8289555b600082815260018a01602052604090206003015460ff1615878314612d4957612ce08a848a6133b3565b600088815260018b8101602052604080832080830154878552828520938401819055845281842087905560028082015490840181905584529083208690556003908101549286905201805460ff191660ff9092161515919091179055919691612d498a89613429565b8015612d5957612d598a85613496565b612d638a83613429565b60008381526001808c01602052604082208281559081018290556002810182905560038101805460ff1916905590612d9e6004830182613eee565b6006820160009055505050505b5050505050505050565b612dbd61245b565b60fb805460ff191660011790557f62e78cea01bee320cd4e420270b5ea74000d11b0c9f74754ebdbfc544b05a258612df23390565b6040516001600160a01b03909116815260200160405180910390a1565b805480612e1e57506000919050565b5b600081815260018084016020526040909120015415612e51576000908152600180830160205260409091200154612e1f565b919050565b6000612e6284846138af565b612ec75760405162461bcd60e51b815260206004820152603060248201527f4f7264657253746174697374696373547265652834303429202d2056616c756560448201526f103237b2b9903737ba1032bc34b9ba1760811b6064820152608401610a16565b60008381526001850160205260409020600401805483908110612eec57612eec614368565b906000526020600020015490509392505050565b610eac8282612757565b600054610100900460ff16611d105760405162461bcd60e51b8152600401610a1690614394565b600054610100900460ff16612f585760405162461bcd60e51b8152600401610a1690614394565b611d106138f5565b612f68613928565b60fb805460ff191690557f5db9ee0a495bf2e6ff9c91a7834c1ba4fdd244a5e8aa4e537bd38aeae4b073aa33612df2565b6000818152600183016020526040812060068101546004820154612fbd9190614204565b949350505050565b6000612fd184836138af565b612fdd575060006123d8565b60008281526001850160209081526040808320868452600581019092529091205460049091018054859290811061301657613016614368565b90600052602060002001541490509392505050565b60005b825482148015906130585750600082815260018401602052604080822054825290206003015460ff165b1561327157600082815260018085016020526040808320548084528184205484529220015481036131795760008181526001850160205260408082205482528082206002015480835291206003015490925060ff1615613100576000818152600180860160205260408083206003808201805460ff1990811690915587865283862082018054821690558254865292852001805490921690921790559082905254925061326b565b60008181526001850160205260409020600201548303613127578092506131278484613971565b50600082815260018085016020526040808320548084528184206003808201805460ff19908116909155825487529386200180549093169093179091559182905254613174908590613aee565b61326b565b6000818152600180860160205260408083205483528083209091015480835291206003015490925060ff16156131f7576000818152600180860160205260408083206003808201805460ff1990811690915587865283862082018054821690558254865292852001805490921690921790559082905254925061326b565b6000818152600180860160205260409091200154830361321e5780925061321e8484613aee565b50600082815260018085016020526040808320548084528184206003808201805460ff1990811690915582548752938620018054909316909317909155918290525461326b908590613971565b5061302e565b505080546000908152600190910160205260409020600301805460ff19169055565b61329d8282611e65565b610eac576132aa81613bce565b6132b5836020613be0565b6040516020016132c6929190614403565b60408051601f198184030181529082905262461bcd60e51b8252610a1691600401614478565b6001600160a01b0381163b6133595760405162461bcd60e51b815260206004820152602d60248201527f455243313936373a206e657720696d706c656d656e746174696f6e206973206e60448201526c1bdd08184818dbdb9d1c9858dd609a1b6064820152608401610a16565b6000805160206144df83398151915280546001600160a01b0319166001600160a01b0392909216919091179055565b61339183613d7c565b60008251118061339e5750805b15610e2d576133ad8383613dbc565b50505050565b6000818152600184016020526040808220548483529120819055806133da578284556133ad565b6000818152600180860160205260409091200154820361340f57600081815260018086016020526040909120018390556133ad565b600090815260019390930160205250604090912060020155565b8015610eac57600081815260018301602052604090206002015461344e908390612f99565b600082815260018085016020526040909120015461346d908490612f99565b6134779190614204565b6000918252600183016020526040909120600681019190915554613429565b60005b825482148015906134be5750600082815260018401602052604090206003015460ff16155b1561389057600082815260018085016020526040808320548084529220015483036136b95760008181526001850160205260408082206002015480835291206003015490925060ff1615613561576000828152600180860160205260408083206003908101805460ff1990811690915585855291909320909201805490921617905561354a8482613971565b600081815260018501602052604090206002015491505b60008281526001808601602052604080832090910154825290206003015460ff161580156135ac5750600082815260018501602052604080822060020154825290206003015460ff16155b156135d957600082815260018581016020526040909120600301805460ff1916909117905591508161388a565b600082815260018501602052604080822060020154825290206003015460ff16613656576000828152600180860160205260408083208083015484529083206003908101805460ff199081169091559386905201805490921617905561363f8483613aee565b600081815260018501602052604090206002015491505b600081815260018501602052604080822060039081018054868552838520808401805460ff909316151560ff1993841617905582548216909255600290910154845291909220909101805490911690556136b08482613971565b8354925061388a565b6000818152600180860160205260408083209091015480835291206003015490925060ff1615613738576000828152600180860160205260408083206003908101805460ff199081169091558585529190932090920180549092161790556137218482613aee565b600081815260018086016020526040909120015491505b600082815260018501602052604080822060020154825290206003015460ff16158015613783575060008281526001808601602052604080832090910154825290206003015460ff16155b156137b057600082815260018581016020526040909120600301805460ff1916909117905591508161388a565b60008281526001808601602052604080832090910154825290206003015460ff1661382f57600082815260018086016020526040808320600281015484529083206003908101805460ff19908116909155938690520180549092161790556138188483613971565b600081815260018086016020526040909120015491505b60008181526001808601602052604080832060039081018054878652838620808401805460ff909316151560ff199384161790558254821690925593015484529220909101805490911690556138858482613aee565b835492505b50613499565b506000908152600190910160205260409020600301805460ff19169055565b6000816138be57506000610993565b825482036138ce57506001610993565b6000828152600184016020526040902054156138ec57506001610993565b50600092915050565b600054610100900460ff1661391c5760405162461bcd60e51b8152600401610a1690614394565b60fb805460ff19169055565b60fb5460ff16611d105760405162461bcd60e51b815260206004820152601460248201527314185d5cd8589b194e881b9bdd081c185d5cd95960621b6044820152606401610a16565b6000818152600180840160205260408083206002810180549154828652928520909301549385905291839055909180156139b957600081815260018601602052604090208490555b60008381526001860160205260409020829055816139d957828555613a25565b60008281526001808701602052604090912001548403613a0e5760008281526001808701602052604090912001839055613a25565b600082815260018601602052604090206002018390555b600083815260018087016020526040808320909101869055858252902083815560020154613a54908690612f99565b6000858152600180880160205260409091200154613a73908790612f99565b613a7d9190614204565b6000858152600187016020526040808220600601929092558481522060020154613aa8908690612f99565b6000848152600180880160205260409091200154613ac7908790612f99565b613ad19190614204565b600093845260019095016020525050604090206006019190915550565b60008181526001808401602052604080832091820180549254838552918420600201549385905283905590918015613b3457600081815260018601602052604090208490555b6000838152600186016020526040902082905581613b5457828555613ba0565b60008281526001860160205260409020600201548403613b895760008281526001860160205260409020600201839055613ba0565b600082815260018087016020526040909120018390555b6000838152600186016020526040808220600290810187905586835291208481550154613a54908690612f99565b60606109936001600160a01b03831660145b60606000613bef8360026141a7565b613bfa906002614204565b67ffffffffffffffff811115613c1257613c1261406d565b6040519080825280601f01601f191660200182016040528015613c3c576020820181803683370190505b509050600360fc1b81600081518110613c5757613c57614368565b60200101906001600160f81b031916908160001a905350600f60fb1b81600181518110613c8657613c86614368565b60200101906001600160f81b031916908160001a9053506000613caa8460026141a7565b613cb5906001614204565b90505b6001811115613d2d576f181899199a1a9b1b9c1cb0b131b232b360811b85600f1660108110613ce957613ce9614368565b1a60f81b828281518110613cff57613cff614368565b60200101906001600160f81b031916908160001a90535060049490941c93613d26816144ab565b9050613cb8565b5083156123d85760405162461bcd60e51b815260206004820181905260248201527f537472696e67733a20686578206c656e67746820696e73756666696369656e746044820152606401610a16565b613d85816132ec565b6040516001600160a01b038216907fbc7cd75a20ee27fd9adebab32041f755214dbc6bffa90cc0225b39da2e5c2d3b90600090a250565b60606001600160a01b0383163b613e245760405162461bcd60e51b815260206004820152602660248201527f416464726573733a2064656c65676174652063616c6c20746f206e6f6e2d636f6044820152651b9d1c9858dd60d21b6064820152608401610a16565b600080846001600160a01b031684604051613e3f91906144c2565b600060405180830381855af49150503d8060008114613e7a576040519150601f19603f3d011682016040523d82523d6000602084013e613e7f565b606091505b5091509150613ea7828260405180606001604052806027815260200161451f60279139613eb0565b95945050505050565b60608315613ebf5750816123d8565b6123d88383815115613ed45781518083602001fd5b8060405162461bcd60e51b8152600401610a169190614478565b5080546000825590600052602060002090810190610f8c91905b80821115613f1c5760008155600101613f08565b5090565b600060208284031215613f3257600080fd5b81356001600160e01b0319811681146123d857600080fd5b80356001600160a01b0381168114612e5157600080fd5b803560ff81168114612e5157600080fd5b8015158114610f8c57600080fd5b60008060008060008060c08789031215613f9957600080fd5b613fa287613f4a565b955060208701359450613fb760408801613f61565b9350613fc560608801613f61565b92506080870135915060a0870135613fdc81613f72565b809150509295509295509295565b600060208284031215613ffc57600080fd5b5035919050565b6000806040838503121561401657600080fd5b8235915061402660208401613f4a565b90509250929050565b60006020828403121561404157600080fd5b6123d882613f4a565b6000806040838503121561405d57600080fd5b8235915061402660208401613f61565b634e487b7160e01b600052604160045260246000fd5b6000806040838503121561409657600080fd5b61409f83613f4a565b9150602083013567ffffffffffffffff808211156140bc57600080fd5b818501915085601f8301126140d057600080fd5b8135818111156140e2576140e261406d565b604051601f8201601f19908116603f0116810190838211818310171561410a5761410a61406d565b8160405282815288602084870101111561412357600080fd5b8260208601602083013760006020848301015280955050505050509250929050565b6000806040838503121561415857600080fd5b61416183613f4a565b915061402660208401613f61565b6000806040838503121561418257600080fd5b50508035926020909101359150565b634e487b7160e01b600052601160045260246000fd5b808202811582820484141761099357610993614191565b6000602082840312156141d057600080fd5b81516123d881613f72565b6020808252600f908201526e3330b4b632b2103a3930b739b332b960891b604082015260600190565b8082018082111561099357610993614191565b95865260208601949094526001600160a01b0392909216604085015260ff9081166060850152166080830152151560a082015260c00190565b60006020828403121561426257600080fd5b5051919050565b6020808252602c908201527f46756e6374696f6e206d7573742062652063616c6c6564207468726f7567682060408201526b19195b1959d85d1958d85b1b60a21b606082015260800190565b6020808252602c908201527f46756e6374696f6e206d7573742062652063616c6c6564207468726f7567682060408201526b6163746976652070726f787960a01b606082015260800190565b60ff828116828216039081111561099357610993614191565b60008261433757634e487b7160e01b600052601260045260246000fd5b500490565b8181038181111561099357610993614191565b60006001820161436157614361614191565b5060010190565b634e487b7160e01b600052603260045260246000fd5b634e487b7160e01b600052603160045260246000fd5b6020808252602b908201527f496e697469616c697a61626c653a20636f6e7472616374206973206e6f74206960408201526a6e697469616c697a696e6760a81b606082015260800190565b60005b838110156143fa5781810151838201526020016143e2565b50506000910152565b7f416363657373436f6e74726f6c3a206163636f756e742000000000000000000081526000835161443b8160178501602088016143df565b7001034b99036b4b9b9b4b733903937b6329607d1b601791840191820152835161446c8160288401602088016143df565b01602801949350505050565b60208152600082518060208401526144978160408501602087016143df565b601f01601f19169190910160400192915050565b6000816144ba576144ba614191565b506000190190565b600082516144d48184602087016143df565b919091019291505056fe360894a13ba1a3210667c828492db98dca3e2076cc3735a920a3ca505d382bbc65d7a28e3265b37a6474929f336521b332c1681b933f6cb9f3376673440d862a416464726573733a206c6f772d6c6576656c2064656c65676174652063616c6c206661696c6564a26469706673582212201b19156abf9463c6c6c8db85c5aca58d10820b5d3f7a36818152ffba05288c2364736f6c63430008120033",
  "devdoc": {
    "author": "The Swarm Authors",
    "details": "The postage stamp contracts allows users to create and manage postage stamp batches. The current balance for each batch is stored ordered in descending order of normalised balance. Balance is normalised to be per chunk and the total spend since the contract was deployed, i.e. when a batch is bought, its per-chunk balance is supplemented with the current cost of storing one chunk since the beginning of time, as if the batch had existed since the contract's inception. During the _expiry_ process, each of these balances is checked against the _currentTotalOutPayment_, a similarly normalised figure that represents the current cost of storing one chunk since the beginning of time. A batch with a normalised balance less than _currentTotalOutPayment_ is treated as expired. The _currentTotalOutPayment_ is calculated using _totalOutPayment_ which is updated during _setPrice_ events so that the applicable per-chunk prices can be charged for the relevant periods of time. This can then be multiplied by the amount of chunks which are allowed to be stamped by each batch to get the actual cost of storage. The amount of chunks a batch can stamp is determined by the _bucketDepth_. A batch may store a maximum of 2^depth chunks. The global figure for the currently allowed chunks is tracked by _validChunkCount_ and updated during batch _expiry_ events.",
    "events": {
      "AdminChanged(address,address)": {
        "details": "Emitted when the admin account has changed."
      },
      "BatchCreated(bytes32,uint256,uint256,address,uint8,uint8,bool)": {
        "details": "Emitted when a new batch is created."
      },
      "BatchDepthIncrease(bytes32,uint8,uint256)": {
        "details": "Emitted when the depth of an existing batch increases."
      },
      "BatchTopUp(bytes32,uint256,uint256)": {
        "details": "Emitted when an existing batch is topped up."
      },
      "BeaconUpgraded(address)": {
        "details": "Emitted when the beacon is changed."
      },
      "Initialized(uint8)": {
        "details": "Triggered when the contract has been initialized or reinitialized."
      },
      "Paused(address)": {
        "details": "Emitted when the pause is triggered by `account`."
      },
      "PriceUpdate(uint256)": {
        "details": "Emitted on every price update."
      },
      "RoleAdminChanged(bytes32,bytes32,bytes32)": {
        "details": "Emitted when `newAdminRole` is set as ``role``'s admin role, replacing `previousAdminRole` `DEFAULT_ADMIN_ROLE` is the starting admin for all roles, despite {RoleAdminChanged} not being emitted signaling this. _Available since v3.1._"
      },
      "RoleGranted(bytes32,address,address)": {
        "details": "Emitted when `account` is granted `role`. `sender` is the account that originated the contract call, an admin role bearer except when using {AccessControl-_setupRole}."
      },
      "RoleRevoked(bytes32,address,address)": {
        "details": "Emitted when `account` is revoked `role`. `sender` is the account that originated the contract call:   - if using `revokeRole`, it is the admin role bearer   - if using `renounceRole`, it is the role bearer (i.e. `account`)"
      },
      "Unpaused(address)": {
        "details": "Emitted when the pause is lifted by `account`."
      },
      "Upgraded(address)": {
        "details": "Emitted when the implementation is upgraded."
      }
    },
    "kind": "dev",
    "methods": {
      "copyBatch(address,uint256,uint8,uint8,bytes32,bool)": {
        "details": "At least `_initialBalancePerChunk*2^depth` tokens must be approved in the ERC20 token contract.",
        "params": {
          "_batchId": "BatchId being copied (from previous version contract data).",
          "_depth": "Initial depth of the new batch.",
          "_immutable": "Whether the batch is mutable.",
          "_initialBalancePerChunk": "Initial balance per chunk of the batch.",
          "_owner": "Owner of the new batch."
        }
      },
      "createBatch(address,uint256,uint8,uint8,bytes32,bool)": {
        "details": "At least `_initialBalancePerChunk*2^depth` tokens must be approved in the ERC20 token contract.",
        "params": {
          "_depth": "Initial depth of the new batch.",
          "_immutable": "Whether the batch is mutable.",
          "_initialBalancePerChunk": "Initial balance per chunk.",
          "_nonce": "A random value used in the batch id derivation to allow multiple batches per owner.",
          "_owner": "Owner of the new batch."
        }
      },
      "currentTotalOutPayment()": {
        "details": "Returns the total normalised all-time per chunk payout. Only Batches with a normalised balance greater than this are valid."
      },
      "expireLimited(uint256)": {
        "details": "Can be used if reclaiming all expired batches would exceed the block gas limit, causing other contract method calls to fail.",
        "params": {
          "limit": "The maximum number of batches to expire."
        }
      },
      "firstBatchId()": {
        "details": "If more than one batch id, return index at 0, if no batches, revert."
      },
      "getRoleAdmin(bytes32)": {
        "details": "Returns the admin role that controls `role`. See {grantRole} and {revokeRole}. To change a role's admin, use {_setRoleAdmin}."
      },
      "grantRole(bytes32,address)": {
        "details": "Grants `role` to `account`. If `account` had not been already granted `role`, emits a {RoleGranted} event. Requirements: - the caller must have ``role``'s admin role. May emit a {RoleGranted} event."
      },
      "hasRole(bytes32,address)": {
        "details": "Returns `true` if `account` has been granted `role`."
      },
      "increaseDepth(bytes32,uint8)": {
        "details": "Can only be called by the owner of the batch.",
        "params": {
          "_batchId": "the id of an existing batch.",
          "_newDepth": "the new (larger than the previous one) depth for this batch."
        }
      },
      "initialize(address,uint8)": {
        "params": {
          "_bzzToken": "The ERC20 token address to reference in this contract.",
          "_minimumBucketDepth": "The minimum bucket depth of batches that can be purchased."
        }
      },
      "pause()": {
        "details": "Can only be called by the pauser when not paused. The contract can be provably stopped by renouncing the pauser role and the admin role once paused."
      },
      "paused()": {
        "details": "Returns true if the contract is paused, and false otherwise."
      },
      "proxiableUUID()": {
        "details": "Implementation of the ERC1822 {proxiableUUID} function. This returns the storage slot used by the implementation. It is used to validate the implementation's compatibility when performing an upgrade. IMPORTANT: A proxy pointing at a proxiable contract should not be considered proxiable itself, because this risks bricking a proxy that upgrades to it, by delegating to itself until out of gas. Thus it is critical that this function revert if invoked through a proxy. This is guaranteed by the `notDelegated` modifier."
      },
      "remainingBalance(bytes32)": {
        "params": {
          "_batchId": "The id of an existing batch."
        }
      },
      "renounceRole(bytes32,address)": {
        "details": "Revokes `role` from the calling account. Roles are often managed via {grantRole} and {revokeRole}: this function's purpose is to provide a mechanism for accounts to lose their privileges if they are compromised (such as when a trusted device is misplaced). If the calling account had been revoked `role`, emits a {RoleRevoked} event. Requirements: - the caller must be `account`. May emit a {RoleRevoked} event."
      },
      "revokeRole(bytes32,address)": {
        "details": "Revokes `role` from `account`. If `account` had been granted `role`, emits a {RoleRevoked} event. Requirements: - the caller must have ``role``'s admin role. May emit a {RoleRevoked} event."
      },
      "setPrice(uint256)": {
        "details": "Can only be called by the price oracle role.",
        "params": {
          "_price": "The new price."
        }
      },
      "supportsInterface(bytes4)": {
        "details": "See {IERC165-supportsInterface}."
      },
      "topUp(bytes32,uint256)": {
        "details": "At least `_topupAmountPerChunk*2^depth` tokens must be approved in the ERC20 token contract.",
        "params": {
          "_batchId": "The id of an existing batch.",
          "_topupAmountPerChunk": "The amount of additional tokens to add per chunk."
        }
      },
      "unPause()": {
        "details": "Can only be called by the pauser role while paused."
      },
      "upgradeTo(address)": {
        "details": "Upgrade the implementation of the proxy to `newImplementation`. Calls {_authorizeUpgrade}. Emits an {Upgraded} event."
      },
      "upgradeToAndCall(address,bytes)": {
        "details": "Upgrade the implementation of the proxy to `newImplementation`, and subsequently execute the function call encoded in `data`. Calls {_authorizeUpgrade}. Emits an {Upgraded} event."
      },
      "withdraw(address)": {
        "params": {
          "beneficiary": "Recieves the current total pot."
        }
      }
    },
    "title": "PostageStamp contract",
    "version": 1
  },
  "userdoc": {
    "kind": "user",
    "methods": {
      "copyBatch(address,uint256,uint8,uint8,bytes32,bool)": {
        "notice": "Manually create a new batch when faciliatating migration, can only be called by the Admin role."
      },
      "createBatch(address,uint256,uint8,uint8,bytes32,bool)": {
        "notice": "Create a new batch."
      },
      "currentTotalOutPayment()": {
        "notice": "Total per-chunk cost since the contract's deployment."
      },
      "expireLimited(uint256)": {
        "notice": "Reclaims a limited number of expired batches"
      },
      "expiredBatchesExist()": {
        "notice": "Indicates whether expired batches exist."
      },
      "firstBatchId()": {
        "notice": "Get the first batch id ordered by ascending normalised balance."
      },
      "increaseDepth(bytes32,uint8)": {
        "notice": "Increase the depth of an existing batch."
      },
      "isBatchesTreeEmpty()": {
        "notice": "Return true if no batches exist"
      },
      "pause()": {
        "notice": "Pause the contract."
      },
      "remainingBalance(bytes32)": {
        "notice": "Return the per chunk balance not yet used up."
      },
      "setPrice(uint256)": {
        "notice": "Set a new price."
      },
      "topUp(bytes32,uint256)": {
        "notice": "Top up an existing batch."
      },
      "totalPot()": {
        "notice": "The current pot."
      },
      "unPause()": {
        "notice": "Unpause the contract."
      },
      "withdraw(address)": {
        "notice": "Withdraw the pot, authorised callers only."
      }
    },
    "version": 1
  },
  "storageLayout": {
    "storage": [
      {
        "astId": 811,
        "contract": "src/PostageStamp.sol:PostageStamp",
        "label": "_initialized",
        "offset": 0,
        "slot": "0",
        "type": "t_uint8"
      },
      {
        "astId": 814,
        "contract": "src/PostageStamp.sol:PostageStamp",
        "label": "_initializing",
        "offset": 1,
        "slot": "0",
        "type": "t_bool"
      },
      {
        "astId": 793,
        "contract": "src/PostageStamp.sol:PostageStamp",
        "label": "__gap",
        "offset": 0,
        "slot": "1",
        "type": "t_array(t_uint256)50_storage"
      },
      {
        "astId": 1108,
        "contract": "src/PostageStamp.sol:PostageStamp",
        "label": "__gap",
        "offset": 0,
        "slot": "51",
        "type": "t_array(t_uint256)50_storage"
      },
      {
        "astId": 1561,
        "contract": "src/PostageStamp.sol:PostageStamp",
        "label": "__gap",
        "offset": 0,
        "slot": "101",
        "type": "t_array(t_uint256)50_storage"
      },
      {
        "astId": 1840,
        "contract": "src/PostageStamp.sol:PostageStamp",
        "label": "__gap",
        "offset": 0,
        "slot": "151",
        "type": "t_array(t_uint256)50_storage"
      },
      {
        "astId": 39,
        "contract": "src/PostageStamp.sol:PostageStamp",
        "label": "_roles",
        "offset": 0,
        "slot": "201",
        "type": "t_mapping(t_bytes32,t_struct(RoleData)34_storage)"
      },
      {
        "astId": 334,
        "contract": "src/PostageStamp.sol:PostageStamp",
        "label": "__gap",
        "offset": 0,
        "slot": "202",
        "type": "t_array(t_uint256)49_storage"
      },
      {
        "astId": 1130,
        "contract": "src/PostageStamp.sol:PostageStamp",
        "label": "_paused",
        "offset": 0,
        "slot": "251",
        "type": "t_bool"
      },
      {
        "astId": 1235,
        "contract": "src/PostageStamp.sol:PostageStamp",
        "label": "__gap",
        "offset": 0,
        "slot": "252",
        "type": "t_array(t_uint256)49_storage"
      },
      {
        "astId": 5561,
        "contract": "src/PostageStamp.sol:PostageStamp",
        "label": "batches",
        "offset": 0,
        "slot": "301",
        "type": "t_mapping(t_bytes32,t_struct(Batch)5541_storage)"
      },
      {
        "astId": 5564,
        "contract": "src/PostageStamp.sol:PostageStamp",
        "label": "tree",
        "offset": 0,
        "slot": "302",
        "type": "t_struct(Tree)3461_storage"
      },
      {
        "astId": 5566,
        "contract": "src/PostageStamp.sol:PostageStamp",
        "label": "bzzToken",
        "offset": 0,
        "slot": "304",
        "type": "t_address"
      },
      {
        "astId": 5568,
        "contract": "src/PostageStamp.sol:PostageStamp",
        "label": "totalOutPayment",
        "offset": 0,
        "slot": "305",
        "type": "t_uint256"
      },
      {
        "astId": 5570,
        "contract": "src/PostageStamp.sol:PostageStamp",
        "label": "minimumBucketDepth",
        "offset": 0,
        "slot": "306",
        "type": "t_uint8"
      },
      {
        "astId": 5572,
        "contract": "src/PostageStamp.sol:PostageStamp",
        "label": "validChunkCount",
        "offset": 0,
        "slot": "307",
        "type": "t_uint256"
      },
      {
        "astId": 5574,
        "contract": "src/PostageStamp.sol:PostageStamp",
        "label": "pot",
        "offset": 0,
        "slot": "308",
        "type": "t_uint256"
      },
      {
        "astId": 5576,
        "contract": "src/PostageStamp.sol:PostageStamp",
        "label": "minimumValidityBlocks",
        "offset": 0,
        "slot": "309",
        "type": "t_uint256"
      },
      {
        "astId": 5578,
        "contract": "src/PostageStamp.sol:PostageStamp",
        "label": "lastPrice",
        "offset": 0,
        "slot": "310",
        "type": "t_uint256"
      },
      {
        "astId": 5580,
        "contract": "src/PostageStamp.sol:PostageStamp",
        "label": "lastUpdatedBlock",
        "offset": 0,
        "slot": "311",
        "type": "t_uint256"
      },
      {
        "astId": 5582,
        "contract": "src/PostageStamp.sol:PostageStamp",
        "label": "lastExpiryBalance",
        "offset": 0,
        "slot": "312",
        "type": "t_uint256"
      }
    ],
    "types": {
      "t_address": {
        "encoding": "inplace",
        "label": "address",
        "numberOfBytes": "20"
      },
      "t_array(t_bytes32)dyn_storage": {
        "base": "t_bytes32",
        "encoding": "dynamic_array",
        "label": "bytes32[]",
        "numberOfBytes": "32"
      },
      "t_array(t_uint256)49_storage": {
        "base": "t_uint256",
        "encoding": "inplace",
        "label": "uint256[49]",
        "numberOfBytes": "1568"
      },
      "t_array(t_uint256)50_storage": {
        "base": "t_uint256",
        "encoding": "inplace",
        "label": "uint256[50]",
        "numberOfBytes": "1600"
      },
      "t_bool": {
        "encoding": "inplace",
        "label": "bool",
        "numberOfBytes": "1"
      },
      "t_bytes32": {
        "encoding": "inplace",
        "label": "bytes32",
        "numberOfBytes": "32"
      },
      "t_mapping(t_address,t_bool)": {
        "encoding": "mapping",
        "key": "t_address",
        "label": "mapping(address => bool)",
        "numberOfBytes": "32",
        "value": "t_bool"
      },
      "t_mapping(t_bytes32,t_struct(Batch)5541_storage)": {
        "encoding": "mapping",
        "key": "t_bytes32",
        "label": "mapping(bytes32 => struct PostageStamp.Batch)",
        "numberOfBytes": "32",
        "value": "t_struct(Batch)5541_storage"
      },
      "t_mapping(t_bytes32,t_struct(RoleData)34_storage)": {
        "encoding": "mapping",
        "key": "t_bytes32",
        "label": "mapping(bytes32 => struct AccessControlUpgradeable.RoleData)",
        "numberOfBytes": "32",
        "value": "t_struct(RoleData)34_storage"
      },
      "t_mapping(t_bytes32,t_uint256)": {
        "encoding": "mapping",
        "key": "t_bytes32",
        "label": "mapping(bytes32 => uint256)",
        "numberOfBytes": "32",
        "value": "t_uint256"
      },
      "t_mapping(t_uint256,t_struct(Node)3453_storage)": {
        "encoding": "mapping",
        "key": "t_uint256",
        "label": "mapping(uint256 => struct HitchensOrderStatisticsTreeLib.Node)",
        "numberOfBytes": "32",
        "value": "t_struct(Node)3453_storage"
      },
      "t_struct(Batch)5541_storage": {
        "encoding": "inplace",
        "label": "struct PostageStamp.Batch",
        "members": [
          {
            "astId": 5530,
            "contract": "src/PostageStamp.sol:PostageStamp",
            "label": "owner",
            "offset": 0,
            "slot": "0",
            "type": "t_address"
          },
          {
            "astId": 5532,
            "contract": "src/PostageStamp.sol:PostageStamp",
            "label": "depth",
            "offset": 20,
            "slot": "0",
            "type": "t_uint8"
          },
          {
            "astId": 5534,
            "contract": "src/PostageStamp.sol:PostageStamp",
            "label": "bucketDepth",
            "offset": 21,
            "slot": "0",
            "type": "t_uint8"
          },
          {
            "astId": 5536,
            "contract": "src/PostageStamp.sol:PostageStamp",
            "label": "immutableFlag",
            "offset": 22,
            "slot": "0",
            "type": "t_bool"
          },
          {
            "astId": 5538,
            "contract": "src/PostageStamp.sol:PostageStamp",
            "label": "normalisedBalance",
            "offset": 0,
            "slot": "1",
            "type": "t_uint256"
          },
          {
            "astId": 5540,
            "contract": "src/PostageStamp.sol:PostageStamp",
            "label": "lastUpdatedBlockNumber",
            "offset": 0,
            "slot": "2",
            "type": "t_uint256"
          }
        ],
        "numberOfBytes": "96"
      },
      "t_struct(Node)3453_storage": {
        "encoding": "inplace",
        "label": "struct HitchensOrderStatisticsTreeLib.Node",
        "members": [
          {
            "astId": 3437,
            "contract": "src/PostageStamp.sol:PostageStamp",
            "label": "parent",
            "offset": 0,
            "slot": "0",
            "type": "t_uint256"
          },
          {
            "astId": 3439,
            "contract": "src/PostageStamp.sol:PostageStamp",
            "label": "left",
            "offset": 0,
            "slot": "1",
            "type": "t_uint256"
          },
          {
            "astId": 3441,
            "contract": "src/PostageStamp.sol:PostageStamp",
            "label": "right",
            "offset": 0,
            "slot": "2",
            "type": "t_uint256"
          },
          {
            "astId": 3443,
            "contract": "src/PostageStamp.sol:PostageStamp",
            "label": "red",
            "offset": 0,
            "slot": "3",
            "type": "t_bool"
          },
          {
            "astId": 3446,
            "contract": "src/PostageStamp.sol:PostageStamp",
            "label": "keys",
            "offset": 0,
            "slot": "4",
            "type": "t_array(t_bytes32)dyn_storage"
          },
          {
            "astId": 3450,
            "contract": "src/PostageStamp.sol:PostageStamp",
            "label": "keyMap",
            "offset": 0,
            "slot": "5",
            "type": "t_mapping(t_bytes32,t_uint256)"
          },
          {
            "astId": 3452,
            "contract": "src/PostageStamp.sol:PostageStamp",
            "label": "count",
            "offset": 0,
            "slot": "6",
            "type": "t_uint256"
          }
        ],
        "numberOfBytes": "224"
      },
      "t_struct(RoleData)34_storage": {
        "encoding": "inplace",
        "label": "struct AccessControlUpgradeable.RoleData",
        "members": [
          {
            "astId": 31,
            "contract": "src/PostageStamp.sol:PostageStamp",
            "label": "members",
            "offset": 0,
            "slot": "0",
            "type": "t_mapping(t_address,t_bool)"
          },
          {
            "astId": 33,
            "contract": "src/PostageStamp.sol:PostageStamp",
            "label": "adminRole",
            "offset": 0,
            "slot": "1",
            "type": "t_bytes32"
          }
        ],
        "numberOfBytes": "64"
      },
      "t_struct(Tree)3461_storage": {
        "encoding": "inplace",
        "label": "struct HitchensOrderStatisticsTreeLib.Tree",
        "members": [
          {
            "astId": 3455,
            "contract": "src/PostageStamp.sol:PostageStamp",
            "label": "root",
            "offset": 0,
            "slot": "0",
            "type": "t_uint256"
          },
          {
            "astId": 3460,
            "contract": "src/PostageStamp.sol:PostageStamp",
            "label": "nodes",
            "offset": 0,
            "slot": "1",
            "type": "t_mapping(t_uint256,t_struct(Node)3453_storage)"
          }
        ],
        "numberOfBytes": "64"
      },
      "t_uint256": {
        "encoding": "inplace",
        "label": "uint256",
        "numberOfBytes": "32"
      },
      "t_uint8": {
        "encoding": "inplace",
        "label": "uint8",
        "numberOfBytes": "1"
      }
    }
  }
}