{
  "address": "0x5b1C7001C2b1a4462E40d705236033dE2b71AB38",
  "abi": [
    {
      "inputs": [
        {
          "internalType": "address",
          "name": "_postageStamp",
          "type": "address"
        },
        {
          "internalType": "address",
          "name": "multisig",
          "type": "address"
        }
      ],
      "stateMutability": "nonpayable",
      "type": "constructor"
    },
    {
      "inputs": [],
      "name": "CallerNotAdmin",
      "type": "error"
    },
    {
      "inputs": [],
      "name": "CallerNotPriceUpdater",
      "type": "error"
    },
    {
      "inputs": [],
      "name": "PriceAlreadyAdjusted",
      "type": "error"
    },
    {
      "inputs": [],
      "name": "UnexpectedZero",
      "type": "error"
    },
    {
      "anonymous": false,
      "inputs": [
        {
          "indexed": false,
          "internalType": "uint256",
          "name": "price",
          "type": "uint256"
        }
      ],
      "name": "PriceUpdate",
      "type": "event"
    },
    {
      "anonymous": false,
      "inputs": [
        {
          "indexed": true,
          "internalType": "bytes32",
          "name": "role",
          "type": "bytes32"
        },
        {
          "indexed": true,
          "internalType": "bytes32",
          "name": "previousAdminRole",
          "type": "bytes32"
        },
        {
          "indexed": true,
          "internalType": "bytes32",
          "name": "newAdminRole",
          "type": "bytes32"
        }
      ],
      "name": "RoleAdminChanged",
      "type": "event"
    },
    {
      "anonymous": false,
      "inputs": [
        {
          "indexed": true,
          "internalType": "bytes32",
          "name": "role",
          "type": "bytes32"
        },
        {
          "indexed": true,
          "internalType": "address",
          "name": "account",
          "type": "address"
        },
        {
          "indexed": true,
          "internalType": "address",
          "name": "sender",
          "type": "address"
        }
      ],
      "name": "RoleGranted",
      "type": "event"
    },
    {
      "anonymous": false,
      "inputs": [
        {
          "indexed": true,
          "internalType": "bytes32",
          "name": "role",
          "type": "bytes32"
        },
        {
          "indexed": true,
          "internalType": "address",
          "name": "account",
          "type": "address"
        },
        {
          "indexed": true,
          "internalType": "address",
          "name": "sender",
          "type": "address"
        }
      ],
      "name": "RoleRevoked",
      "type": "event"
    },
    {
      "inputs": [],
      "name": "DEFAULT_ADMIN_ROLE",
      "outputs": [
        {
          "internalType": "bytes32",
          "name": "",
          "type": "bytes32"
        }
      ],
      "stateMutability": "view",
      "type": "function"
    },
    {
      "inputs": [],
      "name": "PRICE_UPDATER_ROLE",
      "outputs": [
        {
          "internalType": "bytes32",
          "name": "",
          "type": "bytes32"
        }
      ],
      "stateMutability": "view",
      "type": "function"
    },
    {
      "inputs": [
        {
          "internalType": "uint16",
          "name": "redundancy",
          "type": "uint16"
        }
      ],
      "name": "adjustPrice",
      "outputs": [],
      "stateMutability": "nonpayable",
      "type": "function"
    },
    {
      "inputs": [],
      "name": "currentPrice",
      "outputs": [
        {
          "internalType": "uint32",
          "name": "",
          "type": "uint32"
        }
      ],
      "stateMutability": "view",
      "type": "function"
    },
    {
      "inputs": [],
      "name": "currentRound",
      "outputs": [
        {
          "internalType": "uint64",
          "name": "",
          "type": "uint64"
        }
      ],
      "stateMutability": "view",
      "type": "function"
    },
    {
      "inputs": [
        {
          "internalType": "bytes32",
          "name": "role",
          "type": "bytes32"
        }
      ],
      "name": "getRoleAdmin",
      "outputs": [
        {
          "internalType": "bytes32",
          "name": "",
          "type": "bytes32"
        }
      ],
      "stateMutability": "view",
      "type": "function"
    },
    {
      "inputs": [
        {
          "internalType": "bytes32",
          "name": "role",
          "type": "bytes32"
        },
        {
          "internalType": "address",
          "name": "account",
          "type": "address"
        }
      ],
      "name": "grantRole",
      "outputs": [],
      "stateMutability": "nonpayable",
      "type": "function"
    },
    {
      "inputs": [
        {
          "internalType": "bytes32",
          "name": "role",
          "type": "bytes32"
        },
        {
          "internalType": "address",
          "name": "account",
          "type": "address"
        }
      ],
      "name": "hasRole",
      "outputs": [
        {
          "internalType": "bool",
          "name": "",
          "type": "bool"
        }
      ],
      "stateMutability": "view",
      "type": "function"
    },
    {
      "inputs": [
        {
          "internalType": "uint256",
          "name": "",
          "type": "uint256"
        }
      ],
      "name": "increaseRate",
      "outputs": [
        {
          "internalType": "uint32",
          "name": "",
          "type": "uint32"
        }
      ],
      "stateMutability": "view",
      "type": "function"
    },
    {
      "inputs": [],
      "name": "isPaused",
      "outputs": [
        {
          "internalType": "bool",
          "name": "",
          "type": "bool"
        }
      ],
      "stateMutability": "view",
      "type": "function"
    },
    {
      "inputs": [],
      "name": "lastAdjustedRound",
      "outputs": [
        {
          "internalType": "uint64",
          "name": "",
          "type": "uint64"
        }
      ],
      "stateMutability": "view",
      "type": "function"
    },
    {
      "inputs": [],
      "name": "minimumPrice",
      "outputs": [
        {
          "internalType": "uint32",
          "name": "",
          "type": "uint32"
        }
      ],
      "stateMutability": "view",
      "type": "function"
    },
    {
      "inputs": [],
      "name": "pause",
      "outputs": [],
      "stateMutability": "nonpayable",
      "type": "function"
    },
    {
      "inputs": [],
      "name": "postageStamp",
      "outputs": [
        {
          "internalType": "contract IPostageStamp",
          "name": "",
          "type": "address"
        }
      ],
      "stateMutability": "view",
      "type": "function"
    },
    {
      "inputs": [],
      "name": "priceBase",
      "outputs": [
        {
          "internalType": "uint32",
          "name": "",
          "type": "uint32"
        }
      ],
      "stateMutability": "view",
      "type": "function"
    },
    {
      "inputs": [
        {
          "internalType": "bytes32",
          "name": "role",
          "type": "bytes32"
        },
        {
          "internalType": "address",
          "name": "account",
          "type": "address"
        }
      ],
      "name": "renounceRole",
      "outputs": [],
      "stateMutability": "nonpayable",
      "type": "function"
    },
    {
      "inputs": [
        {
          "internalType": "bytes32",
          "name": "role",
          "type": "bytes32"
        },
        {
          "internalType": "address",
          "name": "account",
          "type": "address"
        }
      ],
      "name": "revokeRole",
      "outputs": [],
      "stateMutability": "nonpayable",
      "type": "function"
    },
    {
      "inputs": [
        {
          "internalType": "uint32",
          "name": "_price",
          "type": "uint32"
        }
      ],
      "name": "setPrice",
      "outputs": [],
      "stateMutability": "nonpayable",
      "type": "function"
    },
    {
      "inputs": [
        {
          "internalType": "bytes4",
          "name": "interfaceId",
          "type": "bytes4"
        }
      ],
      "name": "supportsInterface",
      "outputs": [
        {
          "internalType": "bool",
          "name": "",
          "type": "bool"
        }
      ],
      "stateMutability": "view",
      "type": "function"
    },
    {
      "inputs": [],
      "name": "unPause",
      "outputs": [],
      "stateMutability": "nonpayable",
      "type": "function"
    }
  ],
  "transactionHash": "0x337a03148336ca629719071863a78d1c01e64b791db8dbccecbae92596ee6dcc",
  "args": [
    "0x35A00b2Ce2bf100e4C2dc04FbA72d71c214EEF89",
    "0xb1C7F17Ed88189Abf269Bf68A3B2Ed83C5276aAe"
  ],
  "numDeployments": 1,
  "solcInputHash": "966c96a7df81c4f3d9cb298c62a38164",
  "bytecode": "0x6001805464ffffffffff60a01b1916634001000160a21b17905560028054600160401b600160a01b0319811663ffffffff68010000000000000000600160401b600160801b03199093166e07d86b0000040000000000000000009081179390930416600160801b02171790556101c06040526207d88f60a09081526207d88660c0526207d87d60e0526207d874610100526207d86b610120526207d862610140526207d859610160526207d850610180526207d8476101a052620000c89060039060096200023b565b50348015620000d657600080fd5b506040516200155338038062001553833981016040819052620000f99162000311565b6200010660008262000177565b600180546001600160a01b0319166001600160a01b0384161790556200012b62000187565b600280546001600160401b0319166001600160401b039290921691909117905550507fd96ba01d6560c2ab35f2940dd8d70c5f5fe06236c72674237120515918198fb06080526200036c565b6200018382826200019b565b5050565b60006200019660984362000349565b905090565b6000828152602081815260408083206001600160a01b038516845290915290205460ff1662000183576000828152602081815260408083206001600160a01b03851684529091529020805460ff19166001179055620001f73390565b6001600160a01b0316816001600160a01b0316837f2f8788117e7eff1d82e926ec794901d17c78024a50270940304540a733656f0d60405160405180910390a45050565b600283019183908215620002cb5791602002820160005b838211156200029757835183826101000a81548163ffffffff021916908362ffffff160217905550926020019260040160208160030104928301926001030262000252565b8015620002c95782816101000a81549063ffffffff021916905560040160208160030104928301926001030262000297565b505b50620002d9929150620002dd565b5090565b5b80821115620002d95760008155600101620002de565b80516001600160a01b03811681146200030c57600080fd5b919050565b600080604083850312156200032557600080fd5b6200033083620002f4565b91506200034060208401620002f4565b90509250929050565b6000826200036757634e487b7160e01b600052601260045260246000fd5b500490565b6080516111c46200038f6000396000818161035a015261076701526111c46000f3fe608060405234801561001057600080fd5b506004361061016b5760003560e01c806391d14854116100cd578063daafe0a511610081578063f7b188a511610066578063f7b188a51461034d578063fb8d810114610355578063ffb98fe31461037c57600080fd5b8063daafe0a51461030f578063e0632c641461032257600080fd5b8063a217fddf116100b2578063a217fddf146102e0578063b187bd26146102e8578063d547741f146102fc57600080fd5b806391d14854146102925780639d1b464a146102c957600080fd5b806355bdcd23116101245780637f386b6c116101095780637f386b6c146102665780638456cb59146102825780638a19c8bc1461028a57600080fd5b806355bdcd23146102195780637310561b1461024657600080fd5b8063248a9ca311610155578063248a9ca3146101c05780632f2ff15d146101f157806336568abe1461020657600080fd5b806280248f1461017057806301ffc9a71461019d575b600080fd5b61018361017e366004610e73565b61038f565b60405163ffffffff90911681526020015b60405180910390f35b6101b06101ab366004610e8c565b6103bf565b6040519015158152602001610194565b6101e36101ce366004610e73565b60009081526020819052604090206001015490565b604051908152602001610194565b6102046101ff366004610ece565b610458565b005b610204610214366004610ece565b610482565b60025461022d9067ffffffffffffffff1681565b60405167ffffffffffffffff9091168152602001610194565b600254610183906c01000000000000000000000000900463ffffffff1681565b6002546101839068010000000000000000900463ffffffff1681565b610204610513565b61022d610577565b6101b06102a0366004610ece565b6000918252602082815260408084206001600160a01b0393909316845291905290205460ff1690565b60025461018390600160801b900463ffffffff1681565b6101e3600081565b6001546101b090600160c01b900460ff1681565b61020461030a366004610ece565b610589565b61020461031d366004610f0a565b6105ae565b600154610335906001600160a01b031681565b6040516001600160a01b039091168152602001610194565b6102046106f1565b6101e37f000000000000000000000000000000000000000000000000000000000000000081565b61020461038a366004610f30565b61074f565b6003816009811061039f57600080fd5b60089182820401919006600402915054906101000a900463ffffffff1681565b60007fffffffff0000000000000000000000000000000000000000000000000000000082167f7965db0b00000000000000000000000000000000000000000000000000000000148061045257507f01ffc9a7000000000000000000000000000000000000000000000000000000007fffffffff000000000000000000000000000000000000000000000000000000008316145b92915050565b60008281526020819052604090206001015461047381610adf565b61047d8383610ae9565b505050565b6001600160a01b03811633146105055760405162461bcd60e51b815260206004820152602f60248201527f416363657373436f6e74726f6c3a2063616e206f6e6c792072656e6f756e636560448201527f20726f6c657320666f722073656c66000000000000000000000000000000000060648201526084015b60405180910390fd5b61050f8282610b87565b5050565b3360009081527fad3228b676f7d3cd4284a5443f17f1962b36e491b30a40b2405849e597ba5fb5602052604090205460ff166105625760405163036c8cf960e11b815260040160405180910390fd5b6001805460ff60c01b1916600160c01b179055565b6000610584609843610f80565b905090565b6000828152602081905260409020600101546105a481610adf565b61047d8383610b87565b3360009081527fad3228b676f7d3cd4284a5443f17f1962b36e491b30a40b2405849e597ba5fb5602052604090205460ff166105fd5760405163036c8cf960e11b815260040160405180910390fd5b600254819063ffffffff680100000000000000009091048116908216811115610624578091505b6002805473ffffffff000000000000000000000000000000001916600160801b63ffffffff8516908102919091179091556001546040516391b7f5ed60e01b815260048101929092526001600160a01b0316906391b7f5ed90602401600060405180830381600087803b15801561069a57600080fd5b505af11580156106ae573d6000803e3d6000fd5b505060405163ffffffff851681527fae46785019700e30375a5d7b4f91e32f8060ef085111f896ebf889450aa2ab5a9250602001905060405180910390a1505050565b3360009081527fad3228b676f7d3cd4284a5443f17f1962b36e491b30a40b2405849e597ba5fb5602052604090205460ff166107405760405163036c8cf960e11b815260040160405180910390fd5b6001805460ff60c01b19169055565b600154600160c01b900460ff161515600003610adc577f000000000000000000000000000000000000000000000000000000000000000060009081526020818152604080832033845290915290205460ff166107d7576040517f262791ec00000000000000000000000000000000000000000000000000000000815260040160405180910390fd5b8060006107e2610577565b60025490915067ffffffffffffffff9081169082161161082e576040517f08a5cb4c00000000000000000000000000000000000000000000000000000000815260040160405180910390fd5b8261ffff1660000361086c576040517fb5ca2d7100000000000000000000000000000000000000000000000000000000815260040160405180910390fd5b6001546000906108b49061ffff760100000000000000000000000000000000000000000000820481169174010000000000000000000000000000000000000000900416610f94565b90508061ffff168461ffff1611156108ca578092505b60025463ffffffff600160801b82048116916801000000000000000081048216916c01000000000000000000000000820416906000906001906109179067ffffffffffffffff1688610fb6565b6109219190610fb6565b9050600060038861ffff166009811061093c5761093c610fd7565b600891828204019190066004029054906101000a900463ffffffff1690508285826109679190610fed565b6109719190611015565b945067ffffffffffffffff8216156109d7575060035463ffffffff1660005b8267ffffffffffffffff168167ffffffffffffffff1610156109d557836109b78784610fed565b6109c19190611015565b9550806109cd81611038565b915050610990565b505b8363ffffffff168563ffffffff1610156109ef578394505b6002805473ffffffff000000000000000000000000000000001916600160801b63ffffffff8816908102919091179091556001546040516391b7f5ed60e01b815260048101929092526001600160a01b0316906391b7f5ed90602401600060405180830381600087803b158015610a6557600080fd5b505af1158015610a79573d6000803e3d6000fd5b50506002805467ffffffffffffffff191667ffffffffffffffff8b16179055505060405163ffffffff861681527fae46785019700e30375a5d7b4f91e32f8060ef085111f896ebf889450aa2ab5a9060200160405180910390a150505050505050505b50565b610adc8133610c06565b6000828152602081815260408083206001600160a01b038516845290915290205460ff1661050f576000828152602081815260408083206001600160a01b03851684529091529020805460ff19166001179055610b433390565b6001600160a01b0316816001600160a01b0316837f2f8788117e7eff1d82e926ec794901d17c78024a50270940304540a733656f0d60405160405180910390a45050565b6000828152602081815260408083206001600160a01b038516845290915290205460ff161561050f576000828152602081815260408083206001600160a01b0385168085529252808320805460ff1916905551339285917ff6391f5c32d9c69d2a47ea670b442974b53935d1edc7fd64eb21e047a839171b9190a45050565b6000828152602081815260408083206001600160a01b038516845290915290205460ff1661050f57610c3781610c79565b610c42836020610c8b565b604051602001610c53929190611083565b60408051601f198184030181529082905262461bcd60e51b82526104fc91600401611104565b60606104526001600160a01b03831660145b60606000610c9a836002611137565b610ca590600261114e565b67ffffffffffffffff811115610cbd57610cbd611161565b6040519080825280601f01601f191660200182016040528015610ce7576020820181803683370190505b5090507f300000000000000000000000000000000000000000000000000000000000000081600081518110610d1e57610d1e610fd7565b60200101906001600160f81b031916908160001a9053507f780000000000000000000000000000000000000000000000000000000000000081600181518110610d6957610d69610fd7565b60200101906001600160f81b031916908160001a9053506000610d8d846002611137565b610d9890600161114e565b90505b6001811115610e1d577f303132333435363738396162636465660000000000000000000000000000000085600f1660108110610dd957610dd9610fd7565b1a60f81b828281518110610def57610def610fd7565b60200101906001600160f81b031916908160001a90535060049490941c93610e1681611177565b9050610d9b565b508315610e6c5760405162461bcd60e51b815260206004820181905260248201527f537472696e67733a20686578206c656e67746820696e73756666696369656e7460448201526064016104fc565b9392505050565b600060208284031215610e8557600080fd5b5035919050565b600060208284031215610e9e57600080fd5b81357fffffffff0000000000000000000000000000000000000000000000000000000081168114610e6c57600080fd5b60008060408385031215610ee157600080fd5b8235915060208301356001600160a01b0381168114610eff57600080fd5b809150509250929050565b600060208284031215610f1c57600080fd5b813563ffffffff81168114610e6c57600080fd5b600060208284031215610f4257600080fd5b813561ffff81168114610e6c57600080fd5b634e487b7160e01b600052601260045260246000fd5b634e487b7160e01b600052601160045260246000fd5b600082610f8f57610f8f610f54565b500490565b61ffff818116838216019080821115610faf57610faf610f6a565b5092915050565b67ffffffffffffffff828116828216039080821115610faf57610faf610f6a565b634e487b7160e01b600052603260045260246000fd5b63ffffffff81811683821602808216919082811461100d5761100d610f6a565b505092915050565b600063ffffffff8084168061102c5761102c610f54565b92169190910492915050565b600067ffffffffffffffff80831681810361105557611055610f6a565b6001019392505050565b60005b8381101561107a578181015183820152602001611062565b50506000910152565b7f416363657373436f6e74726f6c3a206163636f756e74200000000000000000008152600083516110bb81601785016020880161105f565b7f206973206d697373696e6720726f6c652000000000000000000000000000000060179184019182015283516110f881602884016020880161105f565b01602801949350505050565b602081526000825180602084015261112381604085016020870161105f565b601f01601f19169190910160400192915050565b808202811582820484141761045257610452610f6a565b8082018082111561045257610452610f6a565b634e487b7160e01b600052604160045260246000fd5b60008161118657611186610f6a565b50600019019056fea264697066735822122092ae63bec989493901d808e07d2d0e619e40818521aff60b6fdf11ef1be9462564736f6c63430008130033",
  "devdoc": {
    "author": "The Swarm Authors.",
    "details": "The price oracle contract emits a price feed using events.",
    "events": {
      "PriceUpdate(uint256)": {
        "details": "Emitted on every price update."
      },
      "RoleAdminChanged(bytes32,bytes32,bytes32)": {
        "details": "Emitted when `newAdminRole` is set as ``role``'s admin role, replacing `previousAdminRole` `DEFAULT_ADMIN_ROLE` is the starting admin for all roles, despite {RoleAdminChanged} not being emitted signaling this. _Available since v3.1._"
      },
      "RoleGranted(bytes32,address,address)": {
        "details": "Emitted when `account` is granted `role`. `sender` is the account that originated the contract call, an admin role bearer except when using {AccessControl-_setupRole}."
      },
      "RoleRevoked(bytes32,address,address)": {
        "details": "Emitted when `account` is revoked `role`. `sender` is the account that originated the contract call:   - if using `revokeRole`, it is the admin role bearer   - if using `renounceRole`, it is the role bearer (i.e. `account`)"
      }
    },
    "kind": "dev",
    "methods": {
      "getRoleAdmin(bytes32)": {
        "details": "Returns the admin role that controls `role`. See {grantRole} and {revokeRole}. To change a role's admin, use {_setRoleAdmin}."
      },
      "grantRole(bytes32,address)": {
        "details": "Grants `role` to `account`. If `account` had not been already granted `role`, emits a {RoleGranted} event. Requirements: - the caller must have ``role``'s admin role. May emit a {RoleGranted} event."
      },
      "hasRole(bytes32,address)": {
        "details": "Returns `true` if `account` has been granted `role`."
      },
      "renounceRole(bytes32,address)": {
        "details": "Revokes `role` from the calling account. Roles are often managed via {grantRole} and {revokeRole}: this function's purpose is to provide a mechanism for accounts to lose their privileges if they are compromised (such as when a trusted device is misplaced). If the calling account had been revoked `role`, emits a {RoleRevoked} event. Requirements: - the caller must be `account`. May emit a {RoleRevoked} event."
      },
      "revokeRole(bytes32,address)": {
        "details": "Revokes `role` from `account`. If `account` had been granted `role`, emits a {RoleRevoked} event. Requirements: - the caller must have ``role``'s admin role. May emit a {RoleRevoked} event."
      },
      "setPrice(uint32)": {
        "details": "Can only be called by the admin role.",
        "params": {
          "_price": "The new price."
        }
      },
      "supportsInterface(bytes4)": {
        "details": "See {IERC165-supportsInterface}."
      }
    },
    "title": "PriceOracle contract.",
    "version": 1
  },
  "userdoc": {
    "kind": "user",
    "methods": {
      "currentRound()": {
        "notice": "Return the number of the current round."
      },
      "setPrice(uint32)": {
        "notice": "Manually set the price."
      }
    },
    "version": 1
  },
  "storageLayout": {
    "storage": [
      {
        "astId": 24,
        "contract": "src/PriceOracle.sol:PriceOracle",
        "label": "_roles",
        "offset": 0,
        "slot": "0",
        "type": "t_mapping(t_bytes32,t_struct(RoleData)19_storage)"
      },
      {
        "astId": 6657,
        "contract": "src/PriceOracle.sol:PriceOracle",
        "label": "postageStamp",
        "offset": 0,
        "slot": "1",
        "type": "t_contract(IPostageStamp)10847"
      },
      {
        "astId": 6660,
        "contract": "src/PriceOracle.sol:PriceOracle",
        "label": "targetRedundancy",
        "offset": 20,
        "slot": "1",
        "type": "t_uint16"
      },
      {
        "astId": 6663,
        "contract": "src/PriceOracle.sol:PriceOracle",
        "label": "maxConsideredExtraRedundancy",
        "offset": 22,
        "slot": "1",
        "type": "t_uint16"
      },
      {
        "astId": 6666,
        "contract": "src/PriceOracle.sol:PriceOracle",
        "label": "isPaused",
        "offset": 24,
        "slot": "1",
        "type": "t_bool"
      },
      {
        "astId": 6668,
        "contract": "src/PriceOracle.sol:PriceOracle",
        "label": "lastAdjustedRound",
        "offset": 0,
        "slot": "2",
        "type": "t_uint64"
      },
      {
        "astId": 6671,
        "contract": "src/PriceOracle.sol:PriceOracle",
        "label": "minimumPrice",
        "offset": 8,
        "slot": "2",
        "type": "t_uint32"
      },
      {
        "astId": 6674,
        "contract": "src/PriceOracle.sol:PriceOracle",
        "label": "priceBase",
        "offset": 12,
        "slot": "2",
        "type": "t_uint32"
      },
      {
        "astId": 6677,
        "contract": "src/PriceOracle.sol:PriceOracle",
        "label": "currentPrice",
        "offset": 16,
        "slot": "2",
        "type": "t_uint32"
      },
      {
        "astId": 6691,
        "contract": "src/PriceOracle.sol:PriceOracle",
        "label": "increaseRate",
        "offset": 0,
        "slot": "3",
        "type": "t_array(t_uint32)9_storage"
      }
    ],
    "types": {
      "t_address": {
        "encoding": "inplace",
        "label": "address",
        "numberOfBytes": "20"
      },
      "t_array(t_uint32)9_storage": {
        "base": "t_uint32",
        "encoding": "inplace",
        "label": "uint32[9]",
        "numberOfBytes": "64"
      },
      "t_bool": {
        "encoding": "inplace",
        "label": "bool",
        "numberOfBytes": "1"
      },
      "t_bytes32": {
        "encoding": "inplace",
        "label": "bytes32",
        "numberOfBytes": "32"
      },
      "t_contract(IPostageStamp)10847": {
        "encoding": "inplace",
        "label": "contract IPostageStamp",
        "numberOfBytes": "20"
      },
      "t_mapping(t_address,t_bool)": {
        "encoding": "mapping",
        "key": "t_address",
        "label": "mapping(address => bool)",
        "numberOfBytes": "32",
        "value": "t_bool"
      },
      "t_mapping(t_bytes32,t_struct(RoleData)19_storage)": {
        "encoding": "mapping",
        "key": "t_bytes32",
        "label": "mapping(bytes32 => struct AccessControl.RoleData)",
        "numberOfBytes": "32",
        "value": "t_struct(RoleData)19_storage"
      },
      "t_struct(RoleData)19_storage": {
        "encoding": "inplace",
        "label": "struct AccessControl.RoleData",
        "members": [
          {
            "astId": 16,
            "contract": "src/PriceOracle.sol:PriceOracle",
            "label": "members",
            "offset": 0,
            "slot": "0",
            "type": "t_mapping(t_address,t_bool)"
          },
          {
            "astId": 18,
            "contract": "src/PriceOracle.sol:PriceOracle",
            "label": "adminRole",
            "offset": 0,
            "slot": "1",
            "type": "t_bytes32"
          }
        ],
        "numberOfBytes": "64"
      },
      "t_uint16": {
        "encoding": "inplace",
        "label": "uint16",
        "numberOfBytes": "2"
      },
      "t_uint32": {
        "encoding": "inplace",
        "label": "uint32",
        "numberOfBytes": "4"
      },
      "t_uint64": {
        "encoding": "inplace",
        "label": "uint64",
        "numberOfBytes": "8"
      }
    }
  }
}