{
  "address": "0xcc11eB972482b14014Dec19f640bA0d416498f7D",
  "abi": [
    {
      "inputs": [
        {
          "internalType": "address",
          "name": "_postageStamp",
          "type": "address"
        }
      ],
      "stateMutability": "nonpayable",
      "type": "constructor"
    },
    {
      "anonymous": false,
      "inputs": [
        {
          "indexed": false,
          "internalType": "uint256",
          "name": "price",
          "type": "uint256"
        }
      ],
      "name": "PriceUpdate",
      "type": "event"
    },
    {
      "anonymous": false,
      "inputs": [
        {
          "indexed": true,
          "internalType": "bytes32",
          "name": "role",
          "type": "bytes32"
        },
        {
          "indexed": true,
          "internalType": "bytes32",
          "name": "previousAdminRole",
          "type": "bytes32"
        },
        {
          "indexed": true,
          "internalType": "bytes32",
          "name": "newAdminRole",
          "type": "bytes32"
        }
      ],
      "name": "RoleAdminChanged",
      "type": "event"
    },
    {
      "anonymous": false,
      "inputs": [
        {
          "indexed": true,
          "internalType": "bytes32",
          "name": "role",
          "type": "bytes32"
        },
        {
          "indexed": true,
          "internalType": "address",
          "name": "account",
          "type": "address"
        },
        {
          "indexed": true,
          "internalType": "address",
          "name": "sender",
          "type": "address"
        }
      ],
      "name": "RoleGranted",
      "type": "event"
    },
    {
      "anonymous": false,
      "inputs": [
        {
          "indexed": true,
          "internalType": "bytes32",
          "name": "role",
          "type": "bytes32"
        },
        {
          "indexed": true,
          "internalType": "address",
          "name": "account",
          "type": "address"
        },
        {
          "indexed": true,
          "internalType": "address",
          "name": "sender",
          "type": "address"
        }
      ],
      "name": "RoleRevoked",
      "type": "event"
    },
    {
      "inputs": [],
      "name": "DEFAULT_ADMIN_ROLE",
      "outputs": [
        {
          "internalType": "bytes32",
          "name": "",
          "type": "bytes32"
        }
      ],
      "stateMutability": "view",
      "type": "function"
    },
    {
      "inputs": [],
      "name": "PRICE_UPDATER_ROLE",
      "outputs": [
        {
          "internalType": "bytes32",
          "name": "",
          "type": "bytes32"
        }
      ],
      "stateMutability": "view",
      "type": "function"
    },
    {
      "inputs": [
        {
          "internalType": "uint256",
          "name": "redundancy",
          "type": "uint256"
        }
      ],
      "name": "adjustPrice",
      "outputs": [],
      "stateMutability": "nonpayable",
      "type": "function"
    },
    {
      "inputs": [],
      "name": "currentPrice",
      "outputs": [
        {
          "internalType": "uint256",
          "name": "",
          "type": "uint256"
        }
      ],
      "stateMutability": "view",
      "type": "function"
    },
    {
      "inputs": [
        {
          "internalType": "bytes32",
          "name": "role",
          "type": "bytes32"
        }
      ],
      "name": "getRoleAdmin",
      "outputs": [
        {
          "internalType": "bytes32",
          "name": "",
          "type": "bytes32"
        }
      ],
      "stateMutability": "view",
      "type": "function"
    },
    {
      "inputs": [
        {
          "internalType": "bytes32",
          "name": "role",
          "type": "bytes32"
        },
        {
          "internalType": "address",
          "name": "account",
          "type": "address"
        }
      ],
      "name": "grantRole",
      "outputs": [],
      "stateMutability": "nonpayable",
      "type": "function"
    },
    {
      "inputs": [
        {
          "internalType": "bytes32",
          "name": "role",
          "type": "bytes32"
        },
        {
          "internalType": "address",
          "name": "account",
          "type": "address"
        }
      ],
      "name": "hasRole",
      "outputs": [
        {
          "internalType": "bool",
          "name": "",
          "type": "bool"
        }
      ],
      "stateMutability": "view",
      "type": "function"
    },
    {
      "inputs": [
        {
          "internalType": "uint256",
          "name": "",
          "type": "uint256"
        }
      ],
      "name": "increaseRate",
      "outputs": [
        {
          "internalType": "uint256",
          "name": "",
          "type": "uint256"
        }
      ],
      "stateMutability": "view",
      "type": "function"
    },
    {
      "inputs": [],
      "name": "isPaused",
      "outputs": [
        {
          "internalType": "bool",
          "name": "",
          "type": "bool"
        }
      ],
      "stateMutability": "view",
      "type": "function"
    },
    {
      "inputs": [],
      "name": "minimumPrice",
      "outputs": [
        {
          "internalType": "uint256",
          "name": "",
          "type": "uint256"
        }
      ],
      "stateMutability": "view",
      "type": "function"
    },
    {
      "inputs": [],
      "name": "pause",
      "outputs": [],
      "stateMutability": "nonpayable",
      "type": "function"
    },
    {
      "inputs": [],
      "name": "postageStamp",
      "outputs": [
        {
          "internalType": "contract IPostageStamp",
          "name": "",
          "type": "address"
        }
      ],
      "stateMutability": "view",
      "type": "function"
    },
    {
      "inputs": [
        {
          "internalType": "bytes32",
          "name": "role",
          "type": "bytes32"
        },
        {
          "internalType": "address",
          "name": "account",
          "type": "address"
        }
      ],
      "name": "renounceRole",
      "outputs": [],
      "stateMutability": "nonpayable",
      "type": "function"
    },
    {
      "inputs": [
        {
          "internalType": "bytes32",
          "name": "role",
          "type": "bytes32"
        },
        {
          "internalType": "address",
          "name": "account",
          "type": "address"
        }
      ],
      "name": "revokeRole",
      "outputs": [],
      "stateMutability": "nonpayable",
      "type": "function"
    },
    {
      "inputs": [
        {
          "internalType": "uint256",
          "name": "_price",
          "type": "uint256"
        }
      ],
      "name": "setPrice",
      "outputs": [],
      "stateMutability": "nonpayable",
      "type": "function"
    },
    {
      "inputs": [
        {
          "internalType": "bytes4",
          "name": "interfaceId",
          "type": "bytes4"
        }
      ],
      "name": "supportsInterface",
      "outputs": [
        {
          "internalType": "bool",
          "name": "",
          "type": "bool"
        }
      ],
      "stateMutability": "view",
      "type": "function"
    },
    {
      "inputs": [],
      "name": "unPause",
      "outputs": [],
      "stateMutability": "nonpayable",
      "type": "function"
    }
  ],
  "transactionHash": "0xa874802ad285f0655a9898ee124388b432810055308c1ea82a337bd3c386573b",
  "args": [
    "0x70058cC8A9e538140007853fE7c553eBE1773C06"
  ],
  "numDeployments": 1,
  "solcInputHash": "e6218dd64212b7a5e5f5c4c2f9f296c2",
  "bytecode": "0x61040060018190556101a06040526000608090815261040c60a05261040360c05261040160e052610100919091526103ff610120526103fd610140526103f9610160526103f461018052620000599060029060096200018e565b506003805464ffffffffff19166401000400041790553480156200007c57600080fd5b5060405162000ef238038062000ef28339810160408190526200009f91620001fb565b620000ac600033620000de565b600380546001600160a01b039092166501000000000002600160281b600160c81b03199092169190911790556200022d565b620000ea8282620000ee565b5050565b6000828152602081815260408083206001600160a01b038516845290915290205460ff16620000ea576000828152602081815260408083206001600160a01b03851684529091529020805460ff191660011790556200014a3390565b6001600160a01b0316816001600160a01b0316837f2f8788117e7eff1d82e926ec794901d17c78024a50270940304540a733656f0d60405160405180910390a45050565b828054828255906000526020600020908101928215620001d2579160200282015b82811115620001d2578251829061ffff16905591602001919060010190620001af565b50620001e0929150620001e4565b5090565b5b80821115620001e05760008155600101620001e5565b6000602082840312156200020e57600080fd5b81516001600160a01b03811681146200022657600080fd5b9392505050565b610cb5806200023d6000396000f3fe608060405234801561001057600080fd5b506004361061010a5760003560e01c806391b7f5ed116100a2578063b187bd2611610071578063b187bd26146101fe578063d547741f14610213578063e0632c6414610226578063f7b188a51461025a578063fb8d81011461026257600080fd5b806391b7f5ed146101c757806391d14854146101da5780639d1b464a146101ed578063a217fddf146101f657600080fd5b806336568abe116100de57806336568abe1461019057806372bf079e146101a35780637f386b6c146101b65780638456cb59146101bf57600080fd5b806280248f1461010f57806301ffc9a714610135578063248a9ca3146101585780632f2ff15d1461017b575b600080fd5b61012261011d366004610a36565b610289565b6040519081526020015b60405180910390f35b610148610143366004610a4f565b6102aa565b604051901515815260200161012c565b610122610166366004610a36565b60009081526020819052604090206001015490565b61018e610189366004610a79565b6102e1565b005b61018e61019e366004610a79565b61030b565b61018e6101b1366004610a36565b61038e565b61012261040081565b61018e61058d565b61018e6101d5366004610a36565b6105cb565b6101486101e8366004610a79565b6106b0565b61012260015481565b610122600081565b60035461014890640100000000900460ff1681565b61018e610221366004610a79565b6106d9565b600354610242906501000000000090046001600160a01b031681565b6040516001600160a01b03909116815260200161012c565b61018e6106fe565b6101227f74b366a297145849fa9687e16ecad1e3a60cf84f6c2256ae73e20a9f7666980481565b6002818154811061029957600080fd5b600091825260209091200154905081565b60006001600160e01b03198216637965db0b60e01b14806102db57506301ffc9a760e01b6001600160e01b03198316145b92915050565b6000828152602081905260409020600101546102fc81610735565b610306838361073f565b505050565b6001600160a01b03811633146103805760405162461bcd60e51b815260206004820152602f60248201527f416363657373436f6e74726f6c3a2063616e206f6e6c792072656e6f756e636560448201526e103937b632b9903337b91039b2b63360891b60648201526084015b60405180910390fd5b61038a82826107c3565b5050565b600354640100000000900460ff16151560000361058a576103cf7f74b366a297145849fa9687e16ecad1e3a60cf84f6c2256ae73e20a9f76669804336106b0565b61041b5760405162461bcd60e51b815260206004820152601d60248201527f63616c6c6572206973206e6f74206120707269636520757064617465720000006044820152606401610377565b610400818061045e5760405162461bcd60e51b815260206004820152600f60248201526e756e6578706563746564207a65726f60881b6044820152606401610377565b60035460009061047a9061ffff62010000820481169116610acb565b90508061ffff16841115610490578061ffff1691505b6000600283815481106104a5576104a5610aed565b9060005260206000200154905083600154826104c19190610b03565b6104cb9190610b1a565b600181905561040011156104e0576104006001555b6003546001546040516391b7f5ed60e01b81526004810191909152650100000000009091046001600160a01b0316906391b7f5ed90602401600060405180830381600087803b15801561053257600080fd5b505af1158015610546573d6000803e3d6000fd5b505050507fae46785019700e30375a5d7b4f91e32f8060ef085111f896ebf889450aa2ab5a60015460405161057d91815260200190565b60405180910390a1505050505b50565b6105986000336106b0565b6105b45760405162461bcd60e51b815260040161037790610b3c565b6003805464ff000000001916640100000000179055565b6105d66000336106b0565b6105f25760405162461bcd60e51b815260040161037790610b3c565b6001819055610400811015610608576104006001555b6003546001546040516391b7f5ed60e01b81526004810191909152650100000000009091046001600160a01b0316906391b7f5ed90602401600060405180830381600087803b15801561065a57600080fd5b505af115801561066e573d6000803e3d6000fd5b505050507fae46785019700e30375a5d7b4f91e32f8060ef085111f896ebf889450aa2ab5a6001546040516106a591815260200190565b60405180910390a150565b6000918252602082815260408084206001600160a01b0393909316845291905290205460ff1690565b6000828152602081905260409020600101546106f481610735565b61030683836107c3565b6107096000336106b0565b6107255760405162461bcd60e51b815260040161037790610b3c565b6003805464ff0000000019169055565b61058a8133610828565b61074982826106b0565b61038a576000828152602081815260408083206001600160a01b03851684529091529020805460ff1916600117905561077f3390565b6001600160a01b0316816001600160a01b0316837f2f8788117e7eff1d82e926ec794901d17c78024a50270940304540a733656f0d60405160405180910390a45050565b6107cd82826106b0565b1561038a576000828152602081815260408083206001600160a01b0385168085529252808320805460ff1916905551339285917ff6391f5c32d9c69d2a47ea670b442974b53935d1edc7fd64eb21e047a839171b9190a45050565b61083282826106b0565b61038a5761083f81610881565b61084a836020610893565b60405160200161085b929190610b97565b60408051601f198184030181529082905262461bcd60e51b825261037791600401610c0c565b60606102db6001600160a01b03831660145b606060006108a2836002610b03565b6108ad906002610c3f565b67ffffffffffffffff8111156108c5576108c5610c52565b6040519080825280601f01601f1916602001820160405280156108ef576020820181803683370190505b509050600360fc1b8160008151811061090a5761090a610aed565b60200101906001600160f81b031916908160001a905350600f60fb1b8160018151811061093957610939610aed565b60200101906001600160f81b031916908160001a905350600061095d846002610b03565b610968906001610c3f565b90505b60018111156109e0576f181899199a1a9b1b9c1cb0b131b232b360811b85600f166010811061099c5761099c610aed565b1a60f81b8282815181106109b2576109b2610aed565b60200101906001600160f81b031916908160001a90535060049490941c936109d981610c68565b905061096b565b508315610a2f5760405162461bcd60e51b815260206004820181905260248201527f537472696e67733a20686578206c656e67746820696e73756666696369656e746044820152606401610377565b9392505050565b600060208284031215610a4857600080fd5b5035919050565b600060208284031215610a6157600080fd5b81356001600160e01b031981168114610a2f57600080fd5b60008060408385031215610a8c57600080fd5b8235915060208301356001600160a01b0381168114610aaa57600080fd5b809150509250929050565b634e487b7160e01b600052601160045260246000fd5b61ffff818116838216019080821115610ae657610ae6610ab5565b5092915050565b634e487b7160e01b600052603260045260246000fd5b80820281158282048414176102db576102db610ab5565b600082610b3757634e487b7160e01b600052601260045260246000fd5b500490565b60208082526017908201527f63616c6c6572206973206e6f74207468652061646d696e000000000000000000604082015260600190565b60005b83811015610b8e578181015183820152602001610b76565b50506000910152565b7f416363657373436f6e74726f6c3a206163636f756e7420000000000000000000815260008351610bcf816017850160208801610b73565b7001034b99036b4b9b9b4b733903937b6329607d1b6017918401918201528351610c00816028840160208801610b73565b01602801949350505050565b6020815260008251806020840152610c2b816040850160208701610b73565b601f01601f19169190910160400192915050565b808201808211156102db576102db610ab5565b634e487b7160e01b600052604160045260246000fd5b600081610c7757610c77610ab5565b50600019019056fea2646970667358221220083ec43e082a81fad0de4a3d3e524a670ea329c2419c52ea02d923b2554c639e64736f6c63430008120033",
  "devdoc": {
    "author": "The Swarm Authors.",
    "details": "The price oracle contract emits a price feed using events.",
    "events": {
      "PriceUpdate(uint256)": {
        "details": "Emitted on every price update."
      },
      "RoleAdminChanged(bytes32,bytes32,bytes32)": {
        "details": "Emitted when `newAdminRole` is set as ``role``'s admin role, replacing `previousAdminRole` `DEFAULT_ADMIN_ROLE` is the starting admin for all roles, despite {RoleAdminChanged} not being emitted signaling this. _Available since v3.1._"
      },
      "RoleGranted(bytes32,address,address)": {
        "details": "Emitted when `account` is granted `role`. `sender` is the account that originated the contract call, an admin role bearer except when using {AccessControl-_setupRole}."
      },
      "RoleRevoked(bytes32,address,address)": {
        "details": "Emitted when `account` is revoked `role`. `sender` is the account that originated the contract call:   - if using `revokeRole`, it is the admin role bearer   - if using `renounceRole`, it is the role bearer (i.e. `account`)"
      }
    },
    "kind": "dev",
    "methods": {
      "adjustPrice(uint256)": {
        "details": "The ideal redundancy in Swarm is 4 nodes per neighbourhood. Each round, the Redistribution contract reports the current amount of nodes in the neighbourhood who have commited and revealed truthy reserve commitment hashes, this is called the redundancy signal. The target redundancy is 4, so, if the redundancy signal is 4, no action is taken. If the redundancy signal is greater than 4, i.e. there is extra redundancy, a price decrease is applied in order to reduce the incentive to run a node. If the redundancy signal is less than 4, a price increase is applied in order to increase the incentive to run a node. If the redundancy signal is more than 8, we apply the max price decrease as if there were just four extra nodes. Can only be called by the price updater role, this should be set to be the deployed Redistribution contract's address. Rounds down to return an integer."
      },
      "getRoleAdmin(bytes32)": {
        "details": "Returns the admin role that controls `role`. See {grantRole} and {revokeRole}. To change a role's admin, use {_setRoleAdmin}."
      },
      "grantRole(bytes32,address)": {
        "details": "Grants `role` to `account`. If `account` had not been already granted `role`, emits a {RoleGranted} event. Requirements: - the caller must have ``role``'s admin role. May emit a {RoleGranted} event."
      },
      "hasRole(bytes32,address)": {
        "details": "Returns `true` if `account` has been granted `role`."
      },
      "pause()": {
        "details": "Can only be called by the admin role."
      },
      "renounceRole(bytes32,address)": {
        "details": "Revokes `role` from the calling account. Roles are often managed via {grantRole} and {revokeRole}: this function's purpose is to provide a mechanism for accounts to lose their privileges if they are compromised (such as when a trusted device is misplaced). If the calling account had been revoked `role`, emits a {RoleRevoked} event. Requirements: - the caller must be `account`. May emit a {RoleRevoked} event."
      },
      "revokeRole(bytes32,address)": {
        "details": "Revokes `role` from `account`. If `account` had been granted `role`, emits a {RoleRevoked} event. Requirements: - the caller must have ``role``'s admin role. May emit a {RoleRevoked} event."
      },
      "setPrice(uint256)": {
        "details": "Can only be called by the admin role.",
        "params": {
          "_price": "The new price."
        }
      },
      "supportsInterface(bytes4)": {
        "details": "See {IERC165-supportsInterface}."
      },
      "unPause()": {
        "details": "Can only be called by the admin role."
      }
    },
    "title": "PriceOracle contract.",
    "version": 1
  },
  "userdoc": {
    "kind": "user",
    "methods": {
      "adjustPrice(uint256)": {
        "notice": "Automatically adjusts the price, called from the Redistribution contract"
      },
      "pause()": {
        "notice": "Pause the contract."
      },
      "setPrice(uint256)": {
        "notice": "Manually set the price."
      },
      "unPause()": {
        "notice": "Unpause the contract."
      }
    },
    "version": 1
  },
  "storageLayout": {
    "storage": [
      {
        "astId": 2743,
        "contract": "src/PriceOracle.sol:PriceOracle",
        "label": "_roles",
        "offset": 0,
        "slot": "0",
        "type": "t_mapping(t_bytes32,t_struct(RoleData)2738_storage)"
      },
      {
        "astId": 9303,
        "contract": "src/PriceOracle.sol:PriceOracle",
        "label": "currentPrice",
        "offset": 0,
        "slot": "1",
        "type": "t_uint256"
      },
      {
        "astId": 9316,
        "contract": "src/PriceOracle.sol:PriceOracle",
        "label": "increaseRate",
        "offset": 0,
        "slot": "2",
        "type": "t_array(t_uint256)dyn_storage"
      },
      {
        "astId": 9319,
        "contract": "src/PriceOracle.sol:PriceOracle",
        "label": "targetRedundancy",
        "offset": 0,
        "slot": "3",
        "type": "t_uint16"
      },
      {
        "astId": 9322,
        "contract": "src/PriceOracle.sol:PriceOracle",
        "label": "maxConsideredExtraRedundancy",
        "offset": 2,
        "slot": "3",
        "type": "t_uint16"
      },
      {
        "astId": 9325,
        "contract": "src/PriceOracle.sol:PriceOracle",
        "label": "isPaused",
        "offset": 4,
        "slot": "3",
        "type": "t_bool"
      },
      {
        "astId": 9328,
        "contract": "src/PriceOracle.sol:PriceOracle",
        "label": "postageStamp",
        "offset": 5,
        "slot": "3",
        "type": "t_contract(IPostageStamp)9284"
      }
    ],
    "types": {
      "t_address": {
        "encoding": "inplace",
        "label": "address",
        "numberOfBytes": "20"
      },
      "t_array(t_uint256)dyn_storage": {
        "base": "t_uint256",
        "encoding": "dynamic_array",
        "label": "uint256[]",
        "numberOfBytes": "32"
      },
      "t_bool": {
        "encoding": "inplace",
        "label": "bool",
        "numberOfBytes": "1"
      },
      "t_bytes32": {
        "encoding": "inplace",
        "label": "bytes32",
        "numberOfBytes": "32"
      },
      "t_contract(IPostageStamp)9284": {
        "encoding": "inplace",
        "label": "contract IPostageStamp",
        "numberOfBytes": "20"
      },
      "t_mapping(t_address,t_bool)": {
        "encoding": "mapping",
        "key": "t_address",
        "label": "mapping(address => bool)",
        "numberOfBytes": "32",
        "value": "t_bool"
      },
      "t_mapping(t_bytes32,t_struct(RoleData)2738_storage)": {
        "encoding": "mapping",
        "key": "t_bytes32",
        "label": "mapping(bytes32 => struct AccessControl.RoleData)",
        "numberOfBytes": "32",
        "value": "t_struct(RoleData)2738_storage"
      },
      "t_struct(RoleData)2738_storage": {
        "encoding": "inplace",
        "label": "struct AccessControl.RoleData",
        "members": [
          {
            "astId": 2735,
            "contract": "src/PriceOracle.sol:PriceOracle",
            "label": "members",
            "offset": 0,
            "slot": "0",
            "type": "t_mapping(t_address,t_bool)"
          },
          {
            "astId": 2737,
            "contract": "src/PriceOracle.sol:PriceOracle",
            "label": "adminRole",
            "offset": 0,
            "slot": "1",
            "type": "t_bytes32"
          }
        ],
        "numberOfBytes": "64"
      },
      "t_uint16": {
        "encoding": "inplace",
        "label": "uint16",
        "numberOfBytes": "2"
      },
      "t_uint256": {
        "encoding": "inplace",
        "label": "uint256",
        "numberOfBytes": "32"
      }
    }
  }
}