{
  "address": "0xf19F9d88e963A61c735C1716F8A689Dc2887F463",
  "abi": [
    {
      "inputs": [
        {
          "internalType": "address",
          "name": "_postageStamp",
          "type": "address"
        }
      ],
      "stateMutability": "nonpayable",
      "type": "constructor"
    },
    {
      "inputs": [],
      "name": "CallerNotAdmin",
      "type": "error"
    },
    {
      "inputs": [],
      "name": "CallerNotPriceUpdater",
      "type": "error"
    },
    {
      "inputs": [],
      "name": "PriceAlreadyAdjusted",
      "type": "error"
    },
    {
      "inputs": [],
      "name": "UnexpectedZero",
      "type": "error"
    },
    {
      "anonymous": false,
      "inputs": [
        {
          "indexed": false,
          "internalType": "uint256",
          "name": "price",
          "type": "uint256"
        }
      ],
      "name": "PriceUpdate",
      "type": "event"
    },
    {
      "anonymous": false,
      "inputs": [
        {
          "indexed": true,
          "internalType": "bytes32",
          "name": "role",
          "type": "bytes32"
        },
        {
          "indexed": true,
          "internalType": "bytes32",
          "name": "previousAdminRole",
          "type": "bytes32"
        },
        {
          "indexed": true,
          "internalType": "bytes32",
          "name": "newAdminRole",
          "type": "bytes32"
        }
      ],
      "name": "RoleAdminChanged",
      "type": "event"
    },
    {
      "anonymous": false,
      "inputs": [
        {
          "indexed": true,
          "internalType": "bytes32",
          "name": "role",
          "type": "bytes32"
        },
        {
          "indexed": true,
          "internalType": "address",
          "name": "account",
          "type": "address"
        },
        {
          "indexed": true,
          "internalType": "address",
          "name": "sender",
          "type": "address"
        }
      ],
      "name": "RoleGranted",
      "type": "event"
    },
    {
      "anonymous": false,
      "inputs": [
        {
          "indexed": true,
          "internalType": "bytes32",
          "name": "role",
          "type": "bytes32"
        },
        {
          "indexed": true,
          "internalType": "address",
          "name": "account",
          "type": "address"
        },
        {
          "indexed": true,
          "internalType": "address",
          "name": "sender",
          "type": "address"
        }
      ],
      "name": "RoleRevoked",
      "type": "event"
    },
    {
      "inputs": [],
      "name": "DEFAULT_ADMIN_ROLE",
      "outputs": [
        {
          "internalType": "bytes32",
          "name": "",
          "type": "bytes32"
        }
      ],
      "stateMutability": "view",
      "type": "function"
    },
    {
      "inputs": [],
      "name": "PRICE_UPDATER_ROLE",
      "outputs": [
        {
          "internalType": "bytes32",
          "name": "",
          "type": "bytes32"
        }
      ],
      "stateMutability": "view",
      "type": "function"
    },
    {
      "inputs": [
        {
          "internalType": "uint16",
          "name": "redundancy",
          "type": "uint16"
        }
      ],
      "name": "adjustPrice",
      "outputs": [],
      "stateMutability": "nonpayable",
      "type": "function"
    },
    {
      "inputs": [
        {
          "internalType": "uint256",
          "name": "",
          "type": "uint256"
        }
      ],
      "name": "changeRate",
      "outputs": [
        {
          "internalType": "uint32",
          "name": "",
          "type": "uint32"
        }
      ],
      "stateMutability": "view",
      "type": "function"
    },
    {
      "inputs": [],
      "name": "currentPrice",
      "outputs": [
        {
          "internalType": "uint32",
          "name": "",
          "type": "uint32"
        }
      ],
      "stateMutability": "view",
      "type": "function"
    },
    {
      "inputs": [],
      "name": "currentPriceUpScaled",
      "outputs": [
        {
          "internalType": "uint64",
          "name": "",
          "type": "uint64"
        }
      ],
      "stateMutability": "view",
      "type": "function"
    },
    {
      "inputs": [],
      "name": "currentRound",
      "outputs": [
        {
          "internalType": "uint64",
          "name": "",
          "type": "uint64"
        }
      ],
      "stateMutability": "view",
      "type": "function"
    },
    {
      "inputs": [
        {
          "internalType": "bytes32",
          "name": "role",
          "type": "bytes32"
        }
      ],
      "name": "getRoleAdmin",
      "outputs": [
        {
          "internalType": "bytes32",
          "name": "",
          "type": "bytes32"
        }
      ],
      "stateMutability": "view",
      "type": "function"
    },
    {
      "inputs": [
        {
          "internalType": "bytes32",
          "name": "role",
          "type": "bytes32"
        },
        {
          "internalType": "address",
          "name": "account",
          "type": "address"
        }
      ],
      "name": "grantRole",
      "outputs": [],
      "stateMutability": "nonpayable",
      "type": "function"
    },
    {
      "inputs": [
        {
          "internalType": "bytes32",
          "name": "role",
          "type": "bytes32"
        },
        {
          "internalType": "address",
          "name": "account",
          "type": "address"
        }
      ],
      "name": "hasRole",
      "outputs": [
        {
          "internalType": "bool",
          "name": "",
          "type": "bool"
        }
      ],
      "stateMutability": "view",
      "type": "function"
    },
    {
      "inputs": [],
      "name": "isPaused",
      "outputs": [
        {
          "internalType": "bool",
          "name": "",
          "type": "bool"
        }
      ],
      "stateMutability": "view",
      "type": "function"
    },
    {
      "inputs": [],
      "name": "lastAdjustedRound",
      "outputs": [
        {
          "internalType": "uint64",
          "name": "",
          "type": "uint64"
        }
      ],
      "stateMutability": "view",
      "type": "function"
    },
    {
      "inputs": [],
      "name": "minimumPrice",
      "outputs": [
        {
          "internalType": "uint32",
          "name": "",
          "type": "uint32"
        }
      ],
      "stateMutability": "view",
      "type": "function"
    },
    {
      "inputs": [],
      "name": "minimumPriceUpscaled",
      "outputs": [
        {
          "internalType": "uint32",
          "name": "",
          "type": "uint32"
        }
      ],
      "stateMutability": "view",
      "type": "function"
    },
    {
      "inputs": [],
      "name": "pause",
      "outputs": [],
      "stateMutability": "nonpayable",
      "type": "function"
    },
    {
      "inputs": [],
      "name": "postageStamp",
      "outputs": [
        {
          "internalType": "contract IPostageStamp",
          "name": "",
          "type": "address"
        }
      ],
      "stateMutability": "view",
      "type": "function"
    },
    {
      "inputs": [],
      "name": "priceBase",
      "outputs": [
        {
          "internalType": "uint32",
          "name": "",
          "type": "uint32"
        }
      ],
      "stateMutability": "view",
      "type": "function"
    },
    {
      "inputs": [
        {
          "internalType": "bytes32",
          "name": "role",
          "type": "bytes32"
        },
        {
          "internalType": "address",
          "name": "account",
          "type": "address"
        }
      ],
      "name": "renounceRole",
      "outputs": [],
      "stateMutability": "nonpayable",
      "type": "function"
    },
    {
      "inputs": [
        {
          "internalType": "bytes32",
          "name": "role",
          "type": "bytes32"
        },
        {
          "internalType": "address",
          "name": "account",
          "type": "address"
        }
      ],
      "name": "revokeRole",
      "outputs": [],
      "stateMutability": "nonpayable",
      "type": "function"
    },
    {
      "inputs": [
        {
          "internalType": "uint32",
          "name": "_price",
          "type": "uint32"
        }
      ],
      "name": "setPrice",
      "outputs": [],
      "stateMutability": "nonpayable",
      "type": "function"
    },
    {
      "inputs": [
        {
          "internalType": "bytes4",
          "name": "interfaceId",
          "type": "bytes4"
        }
      ],
      "name": "supportsInterface",
      "outputs": [
        {
          "internalType": "bool",
          "name": "",
          "type": "bool"
        }
      ],
      "stateMutability": "view",
      "type": "function"
    },
    {
      "inputs": [],
      "name": "unPause",
      "outputs": [],
      "stateMutability": "nonpayable",
      "type": "function"
    }
  ],
  "transactionHash": "0x2d90d4ba363f45dd178b1730f7a5c813489af279353760c7486dc2b897d0256d",
  "args": [
    "0xcdfdC3752caaA826fE62531E0000C40546eC56A6"
  ],
  "numDeployments": 2,
  "solcInputHash": "c39ceb5ddfc36744a77362b8ce122638",
  "bytecode": "0x600180546201000160a21b64ffffffffff60a01b1990911617905560028054600160401b600160c01b0319811663ffffffff68010000000000000000600160401b600160801b03199093166e0800000177000000000000000000009081179390930416600160801b02171790556101c06040526208002460a09081526208001b60c0526208001260e052620800096101005262080000610120526207fff7610140526207ffee610160526207ffe5610180526207ffdc6101a052620000c99060039060096200023b565b50348015620000d757600080fd5b506040516200163438038062001634833981016040819052620000fa91620002f4565b6200010760003362000177565b600180546001600160a01b0319166001600160a01b0383161790556200012c62000187565b600280546001600160401b0319166001600160401b0392909216919091179055507fd96ba01d6560c2ab35f2940dd8d70c5f5fe06236c72674237120515918198fb060805262000349565b6200018382826200019b565b5050565b60006200019660984362000326565b905090565b6000828152602081815260408083206001600160a01b038516845290915290205460ff1662000183576000828152602081815260408083206001600160a01b03851684529091529020805460ff19166001179055620001f73390565b6001600160a01b0316816001600160a01b0316837f2f8788117e7eff1d82e926ec794901d17c78024a50270940304540a733656f0d60405160405180910390a45050565b600283019183908215620002cb5791602002820160005b838211156200029757835183826101000a81548163ffffffff021916908362ffffff160217905550926020019260040160208160030104928301926001030262000252565b8015620002c95782816101000a81549063ffffffff021916905560040160208160030104928301926001030262000297565b505b50620002d9929150620002dd565b5090565b5b80821115620002d95760008155600101620002de565b6000602082840312156200030757600080fd5b81516001600160a01b03811681146200031f57600080fd5b9392505050565b6000826200034457634e487b7160e01b600052601260045260246000fd5b500490565b6080516112c86200036c600039600081816103ac015261080d01526112c86000f3fe608060405234801561001057600080fd5b50600436106101825760003560e01c806391d14854116100d8578063daafe0a51161008c578063f7b188a511610066578063f7b188a51461039f578063fb8d8101146103a7578063ffb98fe3146103ce57600080fd5b8063daafe0a514610346578063dcd8ffb814610359578063e0632c641461037457600080fd5b8063a217fddf116100bd578063a217fddf14610317578063b187bd261461031f578063d547741f1461033357600080fd5b806391d14854146102c55780639d1b464a146102fc57600080fd5b80637310561b1161013a5780637f386b6c116101145780637f386b6c146102995780638456cb59146102b55780638a19c8bc146102bd57600080fd5b80637310561b1461023557806374e7493b1461026a5780637e8effdd1461027d57600080fd5b80632f2ff15d1161016b5780632f2ff15d146101e057806336568abe146101f557806355bdcd231461020857600080fd5b806301ffc9a714610187578063248a9ca3146101af575b600080fd5b61019a610195366004610f6f565b6103e1565b60405190151581526020015b60405180910390f35b6101d26101bd366004610fb1565b60009081526020819052604090206001015490565b6040519081526020016101a6565b6101f36101ee366004610fca565b61047a565b005b6101f3610203366004610fca565b6104a4565b60025461021c9067ffffffffffffffff1681565b60405167ffffffffffffffff90911681526020016101a6565b600254610255906c01000000000000000000000000900463ffffffff1681565b60405163ffffffff90911681526020016101a6565b610255610278366004610fb1565b610535565b6002546102559068010000000000000000900463ffffffff1681565b600254680100000000000000009004600a1c623fffff16610255565b6101f3610565565b61021c6105c9565b61019a6102d3366004610fca565b6000918252602082815260408084206001600160a01b0393909316845291905290205460ff1690565b600254600160801b9004600a1c663fffffffffffff16610255565b6101d2600081565b60015461019a90600160c01b900460ff1681565b6101f3610341366004610fca565b6105db565b6101f3610354366004611006565b610600565b60025461021c90600160801b900467ffffffffffffffff1681565b600154610387906001600160a01b031681565b6040516001600160a01b0390911681526020016101a6565b6101f3610797565b6101d27f000000000000000000000000000000000000000000000000000000000000000081565b6101f36103dc36600461102c565b6107f5565b60007fffffffff0000000000000000000000000000000000000000000000000000000082167f7965db0b00000000000000000000000000000000000000000000000000000000148061047457507f01ffc9a7000000000000000000000000000000000000000000000000000000007fffffffff000000000000000000000000000000000000000000000000000000008316145b92915050565b60008281526020819052604090206001015461049581610bdb565b61049f8383610be5565b505050565b6001600160a01b03811633146105275760405162461bcd60e51b815260206004820152602f60248201527f416363657373436f6e74726f6c3a2063616e206f6e6c792072656e6f756e636560448201527f20726f6c657320666f722073656c66000000000000000000000000000000000060648201526084015b60405180910390fd5b6105318282610c83565b5050565b6003816009811061054557600080fd5b60089182820401919006600402915054906101000a900463ffffffff1681565b3360009081527fad3228b676f7d3cd4284a5443f17f1962b36e491b30a40b2405849e597ba5fb5602052604090205460ff166105b45760405163036c8cf960e11b815260040160405180910390fd5b6001805460ff60c01b1916600160c01b179055565b60006105d660984361107c565b905090565b6000828152602081905260409020600101546105f681610bdb565b61049f8383610c83565b3360009081527fad3228b676f7d3cd4284a5443f17f1962b36e491b30a40b2405849e597ba5fb5602052604090205460ff1661064f5760405163036c8cf960e11b815260040160405180910390fd5b60025463fffffc00600a83901b169068010000000000000000900463ffffffff168082101561067c578091505b6002805467ffffffffffffffff8416600160801b027fffffffffffffffff0000000000000000ffffffffffffffffffffffffffffffff9091161790556001546001600160a01b03166391b7f5ed6106e6600254663fffffffffffff600160801b909104600a1c1690565b63ffffffff166040518263ffffffff1660e01b815260040161070a91815260200190565b600060405180830381600087803b15801561072457600080fd5b505af1158015610738573d6000803e3d6000fd5b505050507fae46785019700e30375a5d7b4f91e32f8060ef085111f896ebf889450aa2ab5a61077a600254663fffffffffffff600160801b909104600a1c1690565b60405163ffffffff909116815260200160405180910390a1505050565b3360009081527fad3228b676f7d3cd4284a5443f17f1962b36e491b30a40b2405849e597ba5fb5602052604090205460ff166107e65760405163036c8cf960e11b815260040160405180910390fd5b6001805460ff60c01b19169055565b600154600160c01b900460ff161515600003610bd8577f000000000000000000000000000000000000000000000000000000000000000060009081526020818152604080832033845290915290205460ff1661087d576040517f262791ec00000000000000000000000000000000000000000000000000000000815260040160405180910390fd5b8060006108886105c9565b60025490915067ffffffffffffffff908116908216116108d4576040517f08a5cb4c00000000000000000000000000000000000000000000000000000000815260040160405180910390fd5b8261ffff16600003610912576040517fb5ca2d7100000000000000000000000000000000000000000000000000000000815260040160405180910390fd5b60015460009061095a9061ffff760100000000000000000000000000000000000000000000820481169174010000000000000000000000000000000000000000900416611090565b90508061ffff168461ffff161115610970578092505b60025467ffffffffffffffff600160801b820481169163ffffffff6801000000000000000082048116926c010000000000000000000000008304909116916000916001916109bf9116886110b2565b6109c991906110b2565b9050600060038861ffff16600981106109e4576109e46110d3565b60088104919091015460079091166004026101000a900463ffffffff90811691508316610a1186836110e9565b610a1b9190611115565b945067ffffffffffffffff821615610a8f575060035463ffffffff1660005b8267ffffffffffffffff168167ffffffffffffffff161015610a8d578363ffffffff16868363ffffffff16610a6f91906110e9565b610a799190611115565b955080610a858161113c565b915050610a3a565b505b8367ffffffffffffffff168567ffffffffffffffff161015610aaf578394505b600280547fffffffffffffffff0000000000000000ffffffffffffffff000000000000000016600160801b67ffffffffffffffff888116820267ffffffffffffffff191692909217918a1691909117918290556001546001600160a01b0316916391b7f5ed919004600a1c663fffffffffffff1663ffffffff166040518263ffffffff1660e01b8152600401610b4791815260200190565b600060405180830381600087803b158015610b6157600080fd5b505af1158015610b75573d6000803e3d6000fd5b505050507fae46785019700e30375a5d7b4f91e32f8060ef085111f896ebf889450aa2ab5a610bb7600254663fffffffffffff600160801b909104600a1c1690565b60405163ffffffff909116815260200160405180910390a150505050505050505b50565b610bd88133610d02565b6000828152602081815260408083206001600160a01b038516845290915290205460ff16610531576000828152602081815260408083206001600160a01b03851684529091529020805460ff19166001179055610c3f3390565b6001600160a01b0316816001600160a01b0316837f2f8788117e7eff1d82e926ec794901d17c78024a50270940304540a733656f0d60405160405180910390a45050565b6000828152602081815260408083206001600160a01b038516845290915290205460ff1615610531576000828152602081815260408083206001600160a01b0385168085529252808320805460ff1916905551339285917ff6391f5c32d9c69d2a47ea670b442974b53935d1edc7fd64eb21e047a839171b9190a45050565b6000828152602081815260408083206001600160a01b038516845290915290205460ff1661053157610d3381610d75565b610d3e836020610d87565b604051602001610d4f929190611187565b60408051601f198184030181529082905262461bcd60e51b825261051e91600401611208565b60606104746001600160a01b03831660145b60606000610d9683600261123b565b610da1906002611252565b67ffffffffffffffff811115610db957610db9611265565b6040519080825280601f01601f191660200182016040528015610de3576020820181803683370190505b5090507f300000000000000000000000000000000000000000000000000000000000000081600081518110610e1a57610e1a6110d3565b60200101906001600160f81b031916908160001a9053507f780000000000000000000000000000000000000000000000000000000000000081600181518110610e6557610e656110d3565b60200101906001600160f81b031916908160001a9053506000610e8984600261123b565b610e94906001611252565b90505b6001811115610f19577f303132333435363738396162636465660000000000000000000000000000000085600f1660108110610ed557610ed56110d3565b1a60f81b828281518110610eeb57610eeb6110d3565b60200101906001600160f81b031916908160001a90535060049490941c93610f128161127b565b9050610e97565b508315610f685760405162461bcd60e51b815260206004820181905260248201527f537472696e67733a20686578206c656e67746820696e73756666696369656e74604482015260640161051e565b9392505050565b600060208284031215610f8157600080fd5b81357fffffffff0000000000000000000000000000000000000000000000000000000081168114610f6857600080fd5b600060208284031215610fc357600080fd5b5035919050565b60008060408385031215610fdd57600080fd5b8235915060208301356001600160a01b0381168114610ffb57600080fd5b809150509250929050565b60006020828403121561101857600080fd5b813563ffffffff81168114610f6857600080fd5b60006020828403121561103e57600080fd5b813561ffff81168114610f6857600080fd5b634e487b7160e01b600052601260045260246000fd5b634e487b7160e01b600052601160045260246000fd5b60008261108b5761108b611050565b500490565b61ffff8181168382160190808211156110ab576110ab611066565b5092915050565b67ffffffffffffffff8281168282160390808211156110ab576110ab611066565b634e487b7160e01b600052603260045260246000fd5b67ffffffffffffffff81811683821602808216919082811461110d5761110d611066565b505092915050565b600067ffffffffffffffff8084168061113057611130611050565b92169190910492915050565b600067ffffffffffffffff80831681810361115957611159611066565b6001019392505050565b60005b8381101561117e578181015183820152602001611166565b50506000910152565b7f416363657373436f6e74726f6c3a206163636f756e74200000000000000000008152600083516111bf816017850160208801611163565b7f206973206d697373696e6720726f6c652000000000000000000000000000000060179184019182015283516111fc816028840160208801611163565b01602801949350505050565b6020815260008251806020840152611227816040850160208701611163565b601f01601f19169190910160400192915050565b808202811582820484141761047457610474611066565b8082018082111561047457610474611066565b634e487b7160e01b600052604160045260246000fd5b60008161128a5761128a611066565b50600019019056fea2646970667358221220ae138e65b6afda072afc2642ba44cd4f0dba23acc91686a94131453ad482fce464736f6c63430008130033",
  "devdoc": {
    "author": "The Swarm Authors.",
    "details": "The price oracle contract emits a price feed using events.",
    "events": {
      "PriceUpdate(uint256)": {
        "details": "Emitted on every price update."
      },
      "RoleAdminChanged(bytes32,bytes32,bytes32)": {
        "details": "Emitted when `newAdminRole` is set as ``role``'s admin role, replacing `previousAdminRole` `DEFAULT_ADMIN_ROLE` is the starting admin for all roles, despite {RoleAdminChanged} not being emitted signaling this. _Available since v3.1._"
      },
      "RoleGranted(bytes32,address,address)": {
        "details": "Emitted when `account` is granted `role`. `sender` is the account that originated the contract call, an admin role bearer except when using {AccessControl-_setupRole}."
      },
      "RoleRevoked(bytes32,address,address)": {
        "details": "Emitted when `account` is revoked `role`. `sender` is the account that originated the contract call:   - if using `revokeRole`, it is the admin role bearer   - if using `renounceRole`, it is the role bearer (i.e. `account`)"
      }
    },
    "kind": "dev",
    "methods": {
      "getRoleAdmin(bytes32)": {
        "details": "Returns the admin role that controls `role`. See {grantRole} and {revokeRole}. To change a role's admin, use {_setRoleAdmin}."
      },
      "grantRole(bytes32,address)": {
        "details": "Grants `role` to `account`. If `account` had not been already granted `role`, emits a {RoleGranted} event. Requirements: - the caller must have ``role``'s admin role. May emit a {RoleGranted} event."
      },
      "hasRole(bytes32,address)": {
        "details": "Returns `true` if `account` has been granted `role`."
      },
      "renounceRole(bytes32,address)": {
        "details": "Revokes `role` from the calling account. Roles are often managed via {grantRole} and {revokeRole}: this function's purpose is to provide a mechanism for accounts to lose their privileges if they are compromised (such as when a trusted device is misplaced). If the calling account had been revoked `role`, emits a {RoleRevoked} event. Requirements: - the caller must be `account`. May emit a {RoleRevoked} event."
      },
      "revokeRole(bytes32,address)": {
        "details": "Revokes `role` from `account`. If `account` had been granted `role`, emits a {RoleRevoked} event. Requirements: - the caller must have ``role``'s admin role. May emit a {RoleRevoked} event."
      },
      "setPrice(uint32)": {
        "details": "Can only be called by the admin role.",
        "params": {
          "_price": "The new price."
        }
      },
      "supportsInterface(bytes4)": {
        "details": "See {IERC165-supportsInterface}."
      }
    },
    "title": "PriceOracle contract.",
    "version": 1
  },
  "userdoc": {
    "kind": "user",
    "methods": {
      "currentPrice()": {
        "notice": "Return the price downscaled"
      },
      "currentRound()": {
        "notice": "Return the number of the current round."
      },
      "minimumPrice()": {
        "notice": "Return the price downscaled"
      },
      "setPrice(uint32)": {
        "notice": "Manually set the price."
      }
    },
    "version": 1
  },
  "storageLayout": {
    "storage": [
      {
        "astId": 24,
        "contract": "src/PriceOracle.sol:PriceOracle",
        "label": "_roles",
        "offset": 0,
        "slot": "0",
        "type": "t_mapping(t_bytes32,t_struct(RoleData)19_storage)"
      },
      {
        "astId": 6716,
        "contract": "src/PriceOracle.sol:PriceOracle",
        "label": "postageStamp",
        "offset": 0,
        "slot": "1",
        "type": "t_contract(IPostageStamp)11149"
      },
      {
        "astId": 6719,
        "contract": "src/PriceOracle.sol:PriceOracle",
        "label": "targetRedundancy",
        "offset": 20,
        "slot": "1",
        "type": "t_uint16"
      },
      {
        "astId": 6722,
        "contract": "src/PriceOracle.sol:PriceOracle",
        "label": "maxConsideredExtraRedundancy",
        "offset": 22,
        "slot": "1",
        "type": "t_uint16"
      },
      {
        "astId": 6725,
        "contract": "src/PriceOracle.sol:PriceOracle",
        "label": "isPaused",
        "offset": 24,
        "slot": "1",
        "type": "t_bool"
      },
      {
        "astId": 6727,
        "contract": "src/PriceOracle.sol:PriceOracle",
        "label": "lastAdjustedRound",
        "offset": 0,
        "slot": "2",
        "type": "t_uint64"
      },
      {
        "astId": 6732,
        "contract": "src/PriceOracle.sol:PriceOracle",
        "label": "minimumPriceUpscaled",
        "offset": 8,
        "slot": "2",
        "type": "t_uint32"
      },
      {
        "astId": 6735,
        "contract": "src/PriceOracle.sol:PriceOracle",
        "label": "priceBase",
        "offset": 12,
        "slot": "2",
        "type": "t_uint32"
      },
      {
        "astId": 6738,
        "contract": "src/PriceOracle.sol:PriceOracle",
        "label": "currentPriceUpScaled",
        "offset": 16,
        "slot": "2",
        "type": "t_uint64"
      },
      {
        "astId": 6752,
        "contract": "src/PriceOracle.sol:PriceOracle",
        "label": "changeRate",
        "offset": 0,
        "slot": "3",
        "type": "t_array(t_uint32)9_storage"
      }
    ],
    "types": {
      "t_address": {
        "encoding": "inplace",
        "label": "address",
        "numberOfBytes": "20"
      },
      "t_array(t_uint32)9_storage": {
        "base": "t_uint32",
        "encoding": "inplace",
        "label": "uint32[9]",
        "numberOfBytes": "64"
      },
      "t_bool": {
        "encoding": "inplace",
        "label": "bool",
        "numberOfBytes": "1"
      },
      "t_bytes32": {
        "encoding": "inplace",
        "label": "bytes32",
        "numberOfBytes": "32"
      },
      "t_contract(IPostageStamp)11149": {
        "encoding": "inplace",
        "label": "contract IPostageStamp",
        "numberOfBytes": "20"
      },
      "t_mapping(t_address,t_bool)": {
        "encoding": "mapping",
        "key": "t_address",
        "label": "mapping(address => bool)",
        "numberOfBytes": "32",
        "value": "t_bool"
      },
      "t_mapping(t_bytes32,t_struct(RoleData)19_storage)": {
        "encoding": "mapping",
        "key": "t_bytes32",
        "label": "mapping(bytes32 => struct AccessControl.RoleData)",
        "numberOfBytes": "32",
        "value": "t_struct(RoleData)19_storage"
      },
      "t_struct(RoleData)19_storage": {
        "encoding": "inplace",
        "label": "struct AccessControl.RoleData",
        "members": [
          {
            "astId": 16,
            "contract": "src/PriceOracle.sol:PriceOracle",
            "label": "members",
            "offset": 0,
            "slot": "0",
            "type": "t_mapping(t_address,t_bool)"
          },
          {
            "astId": 18,
            "contract": "src/PriceOracle.sol:PriceOracle",
            "label": "adminRole",
            "offset": 0,
            "slot": "1",
            "type": "t_bytes32"
          }
        ],
        "numberOfBytes": "64"
      },
      "t_uint16": {
        "encoding": "inplace",
        "label": "uint16",
        "numberOfBytes": "2"
      },
      "t_uint32": {
        "encoding": "inplace",
        "label": "uint32",
        "numberOfBytes": "4"
      },
      "t_uint64": {
        "encoding": "inplace",
        "label": "uint64",
        "numberOfBytes": "8"
      }
    }
  }
}