{
  "address": "0x38Db6e0fb64bf05f3c8d02F3E03a697c72ed397C",
  "abi": [
    {
      "inputs": [
        {
          "internalType": "address",
          "name": "_postageStamp",
          "type": "address"
        },
        {
          "internalType": "address",
          "name": "multisig",
          "type": "address"
        }
      ],
      "stateMutability": "nonpayable",
      "type": "constructor"
    },
    {
      "anonymous": false,
      "inputs": [
        {
          "indexed": false,
          "internalType": "uint256",
          "name": "price",
          "type": "uint256"
        }
      ],
      "name": "PriceUpdate",
      "type": "event"
    },
    {
      "anonymous": false,
      "inputs": [
        {
          "indexed": true,
          "internalType": "bytes32",
          "name": "role",
          "type": "bytes32"
        },
        {
          "indexed": true,
          "internalType": "bytes32",
          "name": "previousAdminRole",
          "type": "bytes32"
        },
        {
          "indexed": true,
          "internalType": "bytes32",
          "name": "newAdminRole",
          "type": "bytes32"
        }
      ],
      "name": "RoleAdminChanged",
      "type": "event"
    },
    {
      "anonymous": false,
      "inputs": [
        {
          "indexed": true,
          "internalType": "bytes32",
          "name": "role",
          "type": "bytes32"
        },
        {
          "indexed": true,
          "internalType": "address",
          "name": "account",
          "type": "address"
        },
        {
          "indexed": true,
          "internalType": "address",
          "name": "sender",
          "type": "address"
        }
      ],
      "name": "RoleGranted",
      "type": "event"
    },
    {
      "anonymous": false,
      "inputs": [
        {
          "indexed": true,
          "internalType": "bytes32",
          "name": "role",
          "type": "bytes32"
        },
        {
          "indexed": true,
          "internalType": "address",
          "name": "account",
          "type": "address"
        },
        {
          "indexed": true,
          "internalType": "address",
          "name": "sender",
          "type": "address"
        }
      ],
      "name": "RoleRevoked",
      "type": "event"
    },
    {
      "inputs": [],
      "name": "DEFAULT_ADMIN_ROLE",
      "outputs": [
        {
          "internalType": "bytes32",
          "name": "",
          "type": "bytes32"
        }
      ],
      "stateMutability": "view",
      "type": "function"
    },
    {
      "inputs": [],
      "name": "PRICE_UPDATER_ROLE",
      "outputs": [
        {
          "internalType": "bytes32",
          "name": "",
          "type": "bytes32"
        }
      ],
      "stateMutability": "view",
      "type": "function"
    },
    {
      "inputs": [
        {
          "internalType": "uint256",
          "name": "redundancy",
          "type": "uint256"
        }
      ],
      "name": "adjustPrice",
      "outputs": [],
      "stateMutability": "nonpayable",
      "type": "function"
    },
    {
      "inputs": [],
      "name": "currentPrice",
      "outputs": [
        {
          "internalType": "uint256",
          "name": "",
          "type": "uint256"
        }
      ],
      "stateMutability": "view",
      "type": "function"
    },
    {
      "inputs": [
        {
          "internalType": "bytes32",
          "name": "role",
          "type": "bytes32"
        }
      ],
      "name": "getRoleAdmin",
      "outputs": [
        {
          "internalType": "bytes32",
          "name": "",
          "type": "bytes32"
        }
      ],
      "stateMutability": "view",
      "type": "function"
    },
    {
      "inputs": [
        {
          "internalType": "bytes32",
          "name": "role",
          "type": "bytes32"
        },
        {
          "internalType": "address",
          "name": "account",
          "type": "address"
        }
      ],
      "name": "grantRole",
      "outputs": [],
      "stateMutability": "nonpayable",
      "type": "function"
    },
    {
      "inputs": [
        {
          "internalType": "bytes32",
          "name": "role",
          "type": "bytes32"
        },
        {
          "internalType": "address",
          "name": "account",
          "type": "address"
        }
      ],
      "name": "hasRole",
      "outputs": [
        {
          "internalType": "bool",
          "name": "",
          "type": "bool"
        }
      ],
      "stateMutability": "view",
      "type": "function"
    },
    {
      "inputs": [
        {
          "internalType": "uint256",
          "name": "",
          "type": "uint256"
        }
      ],
      "name": "increaseRate",
      "outputs": [
        {
          "internalType": "uint256",
          "name": "",
          "type": "uint256"
        }
      ],
      "stateMutability": "view",
      "type": "function"
    },
    {
      "inputs": [],
      "name": "isPaused",
      "outputs": [
        {
          "internalType": "bool",
          "name": "",
          "type": "bool"
        }
      ],
      "stateMutability": "view",
      "type": "function"
    },
    {
      "inputs": [],
      "name": "minimumPrice",
      "outputs": [
        {
          "internalType": "uint256",
          "name": "",
          "type": "uint256"
        }
      ],
      "stateMutability": "view",
      "type": "function"
    },
    {
      "inputs": [],
      "name": "pause",
      "outputs": [],
      "stateMutability": "nonpayable",
      "type": "function"
    },
    {
      "inputs": [],
      "name": "postageStamp",
      "outputs": [
        {
          "internalType": "contract IPostageStamp",
          "name": "",
          "type": "address"
        }
      ],
      "stateMutability": "view",
      "type": "function"
    },
    {
      "inputs": [
        {
          "internalType": "bytes32",
          "name": "role",
          "type": "bytes32"
        },
        {
          "internalType": "address",
          "name": "account",
          "type": "address"
        }
      ],
      "name": "renounceRole",
      "outputs": [],
      "stateMutability": "nonpayable",
      "type": "function"
    },
    {
      "inputs": [
        {
          "internalType": "bytes32",
          "name": "role",
          "type": "bytes32"
        },
        {
          "internalType": "address",
          "name": "account",
          "type": "address"
        }
      ],
      "name": "revokeRole",
      "outputs": [],
      "stateMutability": "nonpayable",
      "type": "function"
    },
    {
      "inputs": [
        {
          "internalType": "uint256",
          "name": "_price",
          "type": "uint256"
        }
      ],
      "name": "setPrice",
      "outputs": [],
      "stateMutability": "nonpayable",
      "type": "function"
    },
    {
      "inputs": [
        {
          "internalType": "bytes4",
          "name": "interfaceId",
          "type": "bytes4"
        }
      ],
      "name": "supportsInterface",
      "outputs": [
        {
          "internalType": "bool",
          "name": "",
          "type": "bool"
        }
      ],
      "stateMutability": "view",
      "type": "function"
    },
    {
      "inputs": [],
      "name": "unPause",
      "outputs": [],
      "stateMutability": "nonpayable",
      "type": "function"
    }
  ],
  "transactionHash": "0x455814ad727edf13b016402277a78d11a20db82374bce5ef9af53a17c4a068eb",
  "args": [
    "0x3398a0C47d473349d38E7D2c1873c0bD1f763858",
    "0xb1C7F17Ed88189Abf269Bf68A3B2Ed83C5276aAe"
  ],
  "numDeployments": 1,
  "solcInputHash": "e01c5c249d0758ea8c726cc6f6ca793d",
  "bytecode": "0x61040060018190556101a06040526000608090815261040c60a05261040360c05261040160e052610100919091526103ff610120526103fd610140526103f9610160526103f46101805262000059906002906009620001be565b5060038054640100000000600461ffff199092169190911763ffff00001916620400001760ff60201b19161790553480156200009457600080fd5b506040516200100c3803806200100c833981016040819052620000b79162000248565b620000c4600082620000f7565b50600380546001600160a01b039092166501000000000002600160281b600160c81b03199092169190911790556200027f565b62000103828262000107565b5050565b62000113828262000191565b62000103576000828152602081815260408083206001600160a01b03851684529091529020805460ff191660011790556200014d620001ba565b6001600160a01b0316816001600160a01b0316837f2f8788117e7eff1d82e926ec794901d17c78024a50270940304540a733656f0d60405160405180910390a45050565b6000918252602082815260408084206001600160a01b0393909316845291905290205460ff1690565b3390565b82805482825590600052602060002090810192821562000202579160200282015b8281111562000202578251829061ffff16905591602001919060010190620001df565b506200021092915062000214565b5090565b5b8082111562000210576000815560010162000215565b80516001600160a01b03811681146200024357600080fd5b919050565b600080604083850312156200025b578182fd5b62000266836200022b565b915062000276602084016200022b565b90509250929050565b610d7d806200028f6000396000f3fe608060405234801561001057600080fd5b506004361061010a5760003560e01c806391b7f5ed116100a2578063b187bd2611610071578063b187bd26146101ec578063d547741f146101f4578063e0632c6414610207578063f7b188a51461021c578063fb8d8101146102245761010a565b806391b7f5ed146101b657806391d14854146101c95780639d1b464a146101dc578063a217fddf146101e45761010a565b806336568abe116100de57806336568abe1461018057806372bf079e146101935780637f386b6c146101a65780638456cb59146101ae5761010a565b806280248f1461010f57806301ffc9a714610138578063248a9ca3146101585780632f2ff15d1461016b575b600080fd5b61012261011d366004610a08565b61022c565b60405161012f9190610b02565b60405180910390f35b61014b610146366004610a5a565b61024d565b60405161012f9190610af7565b610122610166366004610a08565b610278565b61017e610179366004610a20565b61028d565b005b61017e61018e366004610a20565b6102ae565b61017e6101a1366004610a08565b6102fd565b6101226104b2565b61017e6104b8565b61017e6101c4366004610a08565b6104f6565b61014b6101d7366004610a20565b6105da565b610122610603565b610122610609565b61014b61060e565b61017e610202366004610a20565b61061f565b61020f61063b565b60405161012f9190610b0b565b61017e610653565b61012261068a565b6002818154811061023c57600080fd5b600091825260209091200154905081565b60006001600160e01b03198216637965db0b60e01b14806102725750610272826106ae565b92915050565b60009081526020819052604090206001015490565b61029682610278565b61029f816106c7565b6102a983836106d8565b505050565b6102b661075d565b6001600160a01b0316816001600160a01b0316146102ef5760405162461bcd60e51b81526004016102e690610c1e565b60405180910390fd5b6102f98282610761565b5050565b600354640100000000900460ff166104af576103397f74b366a297145849fa9687e16ecad1e3a60cf84f6c2256ae73e20a9f76669804336105da565b6103555760405162461bcd60e51b81526004016102e690610b87565b61040081806103765760405162461bcd60e51b81526004016102e690610bbe565b6003546000906103929061ffff62010000820481169116610c6d565b90508061ffff168411156103a8578061ffff1691505b6000600283815481106103cb57634e487b7160e01b600052603260045260246000fd5b9060005260206000200154905083600154826103e79190610ccb565b6103f19190610cab565b60018190556104001115610406576104006001555b6003546001546040516391b7f5ed60e01b8152650100000000009092046001600160a01b0316916391b7f5ed9161043f91600401610b02565b600060405180830381600087803b15801561045957600080fd5b505af115801561046d573d6000803e3d6000fd5b505050507fae46785019700e30375a5d7b4f91e32f8060ef085111f896ebf889450aa2ab5a6001546040516104a29190610b02565b60405180910390a1505050505b50565b61040081565b6104c36000336105da565b6104df5760405162461bcd60e51b81526004016102e690610be7565b6003805464ff000000001916640100000000179055565b6105016000336105da565b61051d5760405162461bcd60e51b81526004016102e690610be7565b6001819055610400811015610533576104006001555b6003546001546040516391b7f5ed60e01b8152650100000000009092046001600160a01b0316916391b7f5ed9161056c91600401610b02565b600060405180830381600087803b15801561058657600080fd5b505af115801561059a573d6000803e3d6000fd5b505050507fae46785019700e30375a5d7b4f91e32f8060ef085111f896ebf889450aa2ab5a6001546040516105cf9190610b02565b60405180910390a150565b6000918252602082815260408084206001600160a01b0393909316845291905290205460ff1690565b60015481565b600081565b600354640100000000900460ff1681565b61062882610278565b610631816106c7565b6102a98383610761565b6003546501000000000090046001600160a01b031681565b61065e6000336105da565b61067a5760405162461bcd60e51b81526004016102e690610be7565b6003805464ff0000000019169055565b7f74b366a297145849fa9687e16ecad1e3a60cf84f6c2256ae73e20a9f7666980481565b6001600160e01b031981166301ffc9a760e01b14919050565b6104af816106d361075d565b6107e4565b6106e282826105da565b6102f9576000828152602081815260408083206001600160a01b03851684529091529020805460ff1916600117905561071961075d565b6001600160a01b0316816001600160a01b0316837f2f8788117e7eff1d82e926ec794901d17c78024a50270940304540a733656f0d60405160405180910390a45050565b3390565b61076b82826105da565b156102f9576000828152602081815260408083206001600160a01b03851684529091529020805460ff191690556107a061075d565b6001600160a01b0316816001600160a01b0316837ff6391f5c32d9c69d2a47ea670b442974b53935d1edc7fd64eb21e047a839171b60405160405180910390a45050565b6107ee82826105da565b6102f9576107fb8161083d565b61080683602061084f565b604051602001610817929190610a82565b60408051601f198184030181529082905262461bcd60e51b82526102e691600401610b1f565b60606102726001600160a01b03831660145b6060600061085e836002610ccb565b610869906002610c93565b67ffffffffffffffff81111561088f57634e487b7160e01b600052604160045260246000fd5b6040519080825280601f01601f1916602001820160405280156108b9576020820181803683370190505b509050600360fc1b816000815181106108e257634e487b7160e01b600052603260045260246000fd5b60200101906001600160f81b031916908160001a905350600f60fb1b8160018151811061091f57634e487b7160e01b600052603260045260246000fd5b60200101906001600160f81b031916908160001a9053506000610943846002610ccb565b61094e906001610c93565b90505b60018111156109e2576f181899199a1a9b1b9c1cb0b131b232b360811b85600f166010811061099057634e487b7160e01b600052603260045260246000fd5b1a60f81b8282815181106109b457634e487b7160e01b600052603260045260246000fd5b60200101906001600160f81b031916908160001a90535060049490941c936109db81610d1a565b9050610951565b508315610a015760405162461bcd60e51b81526004016102e690610b52565b9392505050565b600060208284031215610a19578081fd5b5035919050565b60008060408385031215610a32578081fd5b8235915060208301356001600160a01b0381168114610a4f578182fd5b809150509250929050565b600060208284031215610a6b578081fd5b81356001600160e01b031981168114610a01578182fd5b60007f416363657373436f6e74726f6c3a206163636f756e742000000000000000000082528351610aba816017850160208801610cea565b7001034b99036b4b9b9b4b733903937b6329607d1b6017918401918201528351610aeb816028840160208801610cea565b01602801949350505050565b901515815260200190565b90815260200190565b6001600160a01b0391909116815260200190565b6000602082528251806020840152610b3e816040850160208701610cea565b601f01601f19169190910160400192915050565b6020808252818101527f537472696e67733a20686578206c656e67746820696e73756666696369656e74604082015260600190565b6020808252601d908201527f63616c6c6572206973206e6f7420612070726963652075706461746572000000604082015260600190565b6020808252600f908201526e756e6578706563746564207a65726f60881b604082015260600190565b60208082526017908201527f63616c6c6572206973206e6f74207468652061646d696e000000000000000000604082015260600190565b6020808252602f908201527f416363657373436f6e74726f6c3a2063616e206f6e6c792072656e6f756e636560408201526e103937b632b9903337b91039b2b63360891b606082015260800190565b600061ffff808316818516808303821115610c8a57610c8a610d31565b01949350505050565b60008219821115610ca657610ca6610d31565b500190565b600082610cc657634e487b7160e01b81526012600452602481fd5b500490565b6000816000190483118215151615610ce557610ce5610d31565b500290565b60005b83811015610d05578181015183820152602001610ced565b83811115610d14576000848401525b50505050565b600081610d2957610d29610d31565b506000190190565b634e487b7160e01b600052601160045260246000fdfea264697066735822122022df81412178edd827ad215c8bd41362a53f065ffba27e92afecc8554b51204f64736f6c63430008010033",
  "devdoc": {
    "author": "The Swarm Authors.",
    "details": "The price oracle contract emits a price feed using events.",
    "events": {
      "PriceUpdate(uint256)": {
        "details": "Emitted on every price update."
      }
    },
    "kind": "dev",
    "methods": {
      "adjustPrice(uint256)": {
        "details": "The ideal redundancy in Swarm is 4 nodes per neighbourhood. Each round, the Redistribution contract reports the current amount of nodes in the neighbourhood who have commited and revealed truthy reserve commitment hashes, this is called the redundancy signal. The target redundancy is 4, so, if the redundancy signal is 4, no action is taken. If the redundancy signal is greater than 4, i.e. there is extra redundancy, a price decrease is applied in order to reduce the incentive to run a node. If the redundancy signal is less than 4, a price increase is applied in order to increase the incentive to run a node. If the redundancy signal is more than 8, we apply the max price decrease as if there were just four extra nodes. Can only be called by the price updater role, this should be set to be the deployed Redistribution contract's address. Rounds down to return an integer."
      },
      "getRoleAdmin(bytes32)": {
        "details": "Returns the admin role that controls `role`. See {grantRole} and {revokeRole}. To change a role's admin, use {_setRoleAdmin}."
      },
      "grantRole(bytes32,address)": {
        "details": "Grants `role` to `account`. If `account` had not been already granted `role`, emits a {RoleGranted} event. Requirements: - the caller must have ``role``'s admin role. May emit a {RoleGranted} event."
      },
      "hasRole(bytes32,address)": {
        "details": "Returns `true` if `account` has been granted `role`."
      },
      "pause()": {
        "details": "Can only be called by the admin role."
      },
      "renounceRole(bytes32,address)": {
        "details": "Revokes `role` from the calling account. Roles are often managed via {grantRole} and {revokeRole}: this function's purpose is to provide a mechanism for accounts to lose their privileges if they are compromised (such as when a trusted device is misplaced). If the calling account had been revoked `role`, emits a {RoleRevoked} event. Requirements: - the caller must be `account`. May emit a {RoleRevoked} event."
      },
      "revokeRole(bytes32,address)": {
        "details": "Revokes `role` from `account`. If `account` had been granted `role`, emits a {RoleRevoked} event. Requirements: - the caller must have ``role``'s admin role. May emit a {RoleRevoked} event."
      },
      "setPrice(uint256)": {
        "details": "Can only be called by the admin role.",
        "params": {
          "_price": "The new price."
        }
      },
      "supportsInterface(bytes4)": {
        "details": "See {IERC165-supportsInterface}."
      },
      "unPause()": {
        "details": "Can only be called by the admin role."
      }
    },
    "title": "PriceOracle contract.",
    "version": 1
  },
  "userdoc": {
    "kind": "user",
    "methods": {
      "adjustPrice(uint256)": {
        "notice": "Automatically adjusts the price, called from the Redistribution contract"
      },
      "pause()": {
        "notice": "Pause the contract."
      },
      "setPrice(uint256)": {
        "notice": "Manually set the price."
      },
      "unPause()": {
        "notice": "Unpause the contract."
      }
    },
    "version": 1
  },
  "storageLayout": {
    "storage": [
      {
        "astId": 24,
        "contract": "src/PriceOracle.sol:PriceOracle",
        "label": "_roles",
        "offset": 0,
        "slot": "0",
        "type": "t_mapping(t_bytes32,t_struct(RoleData)19_storage)"
      },
      {
        "astId": 6538,
        "contract": "src/PriceOracle.sol:PriceOracle",
        "label": "currentPrice",
        "offset": 0,
        "slot": "1",
        "type": "t_uint256"
      },
      {
        "astId": 6551,
        "contract": "src/PriceOracle.sol:PriceOracle",
        "label": "increaseRate",
        "offset": 0,
        "slot": "2",
        "type": "t_array(t_uint256)dyn_storage"
      },
      {
        "astId": 6554,
        "contract": "src/PriceOracle.sol:PriceOracle",
        "label": "targetRedundancy",
        "offset": 0,
        "slot": "3",
        "type": "t_uint16"
      },
      {
        "astId": 6557,
        "contract": "src/PriceOracle.sol:PriceOracle",
        "label": "maxConsideredExtraRedundancy",
        "offset": 2,
        "slot": "3",
        "type": "t_uint16"
      },
      {
        "astId": 6560,
        "contract": "src/PriceOracle.sol:PriceOracle",
        "label": "isPaused",
        "offset": 4,
        "slot": "3",
        "type": "t_bool"
      },
      {
        "astId": 6563,
        "contract": "src/PriceOracle.sol:PriceOracle",
        "label": "postageStamp",
        "offset": 5,
        "slot": "3",
        "type": "t_contract(IPostageStamp)6519"
      }
    ],
    "types": {
      "t_address": {
        "encoding": "inplace",
        "label": "address",
        "numberOfBytes": "20"
      },
      "t_array(t_uint256)dyn_storage": {
        "base": "t_uint256",
        "encoding": "dynamic_array",
        "label": "uint256[]",
        "numberOfBytes": "32"
      },
      "t_bool": {
        "encoding": "inplace",
        "label": "bool",
        "numberOfBytes": "1"
      },
      "t_bytes32": {
        "encoding": "inplace",
        "label": "bytes32",
        "numberOfBytes": "32"
      },
      "t_contract(IPostageStamp)6519": {
        "encoding": "inplace",
        "label": "contract IPostageStamp",
        "numberOfBytes": "20"
      },
      "t_mapping(t_address,t_bool)": {
        "encoding": "mapping",
        "key": "t_address",
        "label": "mapping(address => bool)",
        "numberOfBytes": "32",
        "value": "t_bool"
      },
      "t_mapping(t_bytes32,t_struct(RoleData)19_storage)": {
        "encoding": "mapping",
        "key": "t_bytes32",
        "label": "mapping(bytes32 => struct AccessControl.RoleData)",
        "numberOfBytes": "32",
        "value": "t_struct(RoleData)19_storage"
      },
      "t_struct(RoleData)19_storage": {
        "encoding": "inplace",
        "label": "struct AccessControl.RoleData",
        "members": [
          {
            "astId": 16,
            "contract": "src/PriceOracle.sol:PriceOracle",
            "label": "members",
            "offset": 0,
            "slot": "0",
            "type": "t_mapping(t_address,t_bool)"
          },
          {
            "astId": 18,
            "contract": "src/PriceOracle.sol:PriceOracle",
            "label": "adminRole",
            "offset": 0,
            "slot": "1",
            "type": "t_bytes32"
          }
        ],
        "numberOfBytes": "64"
      },
      "t_uint16": {
        "encoding": "inplace",
        "label": "uint16",
        "numberOfBytes": "2"
      },
      "t_uint256": {
        "encoding": "inplace",
        "label": "uint256",
        "numberOfBytes": "32"
      }
    }
  }
}