{
  "address": "0xC5241172f010AB24ff3eeC61B4c684E1A9482D2b",
  "abi": [
    {
      "inputs": [
        {
          "internalType": "address",
          "name": "_postageStamp",
          "type": "address"
        }
      ],
      "stateMutability": "nonpayable",
      "type": "constructor"
    },
    {
      "inputs": [],
      "name": "CallerNotAdmin",
      "type": "error"
    },
    {
      "inputs": [],
      "name": "CallerNotPriceUpdater",
      "type": "error"
    },
    {
      "inputs": [],
      "name": "PriceAlreadyAdjusted",
      "type": "error"
    },
    {
      "inputs": [],
      "name": "UnexpectedZero",
      "type": "error"
    },
    {
      "anonymous": false,
      "inputs": [
        {
          "indexed": false,
          "internalType": "uint256",
          "name": "price",
          "type": "uint256"
        }
      ],
      "name": "PriceUpdate",
      "type": "event"
    },
    {
      "anonymous": false,
      "inputs": [
        {
          "indexed": true,
          "internalType": "bytes32",
          "name": "role",
          "type": "bytes32"
        },
        {
          "indexed": true,
          "internalType": "bytes32",
          "name": "previousAdminRole",
          "type": "bytes32"
        },
        {
          "indexed": true,
          "internalType": "bytes32",
          "name": "newAdminRole",
          "type": "bytes32"
        }
      ],
      "name": "RoleAdminChanged",
      "type": "event"
    },
    {
      "anonymous": false,
      "inputs": [
        {
          "indexed": true,
          "internalType": "bytes32",
          "name": "role",
          "type": "bytes32"
        },
        {
          "indexed": true,
          "internalType": "address",
          "name": "account",
          "type": "address"
        },
        {
          "indexed": true,
          "internalType": "address",
          "name": "sender",
          "type": "address"
        }
      ],
      "name": "RoleGranted",
      "type": "event"
    },
    {
      "anonymous": false,
      "inputs": [
        {
          "indexed": true,
          "internalType": "bytes32",
          "name": "role",
          "type": "bytes32"
        },
        {
          "indexed": true,
          "internalType": "address",
          "name": "account",
          "type": "address"
        },
        {
          "indexed": true,
          "internalType": "address",
          "name": "sender",
          "type": "address"
        }
      ],
      "name": "RoleRevoked",
      "type": "event"
    },
    {
      "anonymous": false,
      "inputs": [
        {
          "indexed": false,
          "internalType": "uint256",
          "name": "attemptedPrice",
          "type": "uint256"
        }
      ],
      "name": "StampPriceUpdateFailed",
      "type": "event"
    },
    {
      "inputs": [],
      "name": "DEFAULT_ADMIN_ROLE",
      "outputs": [
        {
          "internalType": "bytes32",
          "name": "",
          "type": "bytes32"
        }
      ],
      "stateMutability": "view",
      "type": "function"
    },
    {
      "inputs": [],
      "name": "PRICE_UPDATER_ROLE",
      "outputs": [
        {
          "internalType": "bytes32",
          "name": "",
          "type": "bytes32"
        }
      ],
      "stateMutability": "view",
      "type": "function"
    },
    {
      "inputs": [
        {
          "internalType": "uint16",
          "name": "redundancy",
          "type": "uint16"
        }
      ],
      "name": "adjustPrice",
      "outputs": [
        {
          "internalType": "bool",
          "name": "",
          "type": "bool"
        }
      ],
      "stateMutability": "nonpayable",
      "type": "function"
    },
    {
      "inputs": [
        {
          "internalType": "uint256",
          "name": "",
          "type": "uint256"
        }
      ],
      "name": "changeRate",
      "outputs": [
        {
          "internalType": "uint32",
          "name": "",
          "type": "uint32"
        }
      ],
      "stateMutability": "view",
      "type": "function"
    },
    {
      "inputs": [],
      "name": "currentPrice",
      "outputs": [
        {
          "internalType": "uint32",
          "name": "",
          "type": "uint32"
        }
      ],
      "stateMutability": "view",
      "type": "function"
    },
    {
      "inputs": [],
      "name": "currentPriceUpScaled",
      "outputs": [
        {
          "internalType": "uint64",
          "name": "",
          "type": "uint64"
        }
      ],
      "stateMutability": "view",
      "type": "function"
    },
    {
      "inputs": [],
      "name": "currentRound",
      "outputs": [
        {
          "internalType": "uint64",
          "name": "",
          "type": "uint64"
        }
      ],
      "stateMutability": "view",
      "type": "function"
    },
    {
      "inputs": [
        {
          "internalType": "bytes32",
          "name": "role",
          "type": "bytes32"
        }
      ],
      "name": "getRoleAdmin",
      "outputs": [
        {
          "internalType": "bytes32",
          "name": "",
          "type": "bytes32"
        }
      ],
      "stateMutability": "view",
      "type": "function"
    },
    {
      "inputs": [
        {
          "internalType": "bytes32",
          "name": "role",
          "type": "bytes32"
        },
        {
          "internalType": "address",
          "name": "account",
          "type": "address"
        }
      ],
      "name": "grantRole",
      "outputs": [],
      "stateMutability": "nonpayable",
      "type": "function"
    },
    {
      "inputs": [
        {
          "internalType": "bytes32",
          "name": "role",
          "type": "bytes32"
        },
        {
          "internalType": "address",
          "name": "account",
          "type": "address"
        }
      ],
      "name": "hasRole",
      "outputs": [
        {
          "internalType": "bool",
          "name": "",
          "type": "bool"
        }
      ],
      "stateMutability": "view",
      "type": "function"
    },
    {
      "inputs": [],
      "name": "isPaused",
      "outputs": [
        {
          "internalType": "bool",
          "name": "",
          "type": "bool"
        }
      ],
      "stateMutability": "view",
      "type": "function"
    },
    {
      "inputs": [],
      "name": "lastAdjustedRound",
      "outputs": [
        {
          "internalType": "uint64",
          "name": "",
          "type": "uint64"
        }
      ],
      "stateMutability": "view",
      "type": "function"
    },
    {
      "inputs": [],
      "name": "minimumPrice",
      "outputs": [
        {
          "internalType": "uint32",
          "name": "",
          "type": "uint32"
        }
      ],
      "stateMutability": "view",
      "type": "function"
    },
    {
      "inputs": [],
      "name": "minimumPriceUpscaled",
      "outputs": [
        {
          "internalType": "uint32",
          "name": "",
          "type": "uint32"
        }
      ],
      "stateMutability": "view",
      "type": "function"
    },
    {
      "inputs": [],
      "name": "pause",
      "outputs": [],
      "stateMutability": "nonpayable",
      "type": "function"
    },
    {
      "inputs": [],
      "name": "postageStamp",
      "outputs": [
        {
          "internalType": "contract IPostageStamp",
          "name": "",
          "type": "address"
        }
      ],
      "stateMutability": "view",
      "type": "function"
    },
    {
      "inputs": [],
      "name": "priceBase",
      "outputs": [
        {
          "internalType": "uint32",
          "name": "",
          "type": "uint32"
        }
      ],
      "stateMutability": "view",
      "type": "function"
    },
    {
      "inputs": [
        {
          "internalType": "bytes32",
          "name": "role",
          "type": "bytes32"
        },
        {
          "internalType": "address",
          "name": "account",
          "type": "address"
        }
      ],
      "name": "renounceRole",
      "outputs": [],
      "stateMutability": "nonpayable",
      "type": "function"
    },
    {
      "inputs": [
        {
          "internalType": "bytes32",
          "name": "role",
          "type": "bytes32"
        },
        {
          "internalType": "address",
          "name": "account",
          "type": "address"
        }
      ],
      "name": "revokeRole",
      "outputs": [],
      "stateMutability": "nonpayable",
      "type": "function"
    },
    {
      "inputs": [
        {
          "internalType": "uint32",
          "name": "_price",
          "type": "uint32"
        }
      ],
      "name": "setPrice",
      "outputs": [
        {
          "internalType": "bool",
          "name": "",
          "type": "bool"
        }
      ],
      "stateMutability": "nonpayable",
      "type": "function"
    },
    {
      "inputs": [
        {
          "internalType": "bytes4",
          "name": "interfaceId",
          "type": "bytes4"
        }
      ],
      "name": "supportsInterface",
      "outputs": [
        {
          "internalType": "bool",
          "name": "",
          "type": "bool"
        }
      ],
      "stateMutability": "view",
      "type": "function"
    },
    {
      "inputs": [],
      "name": "unPause",
      "outputs": [],
      "stateMutability": "nonpayable",
      "type": "function"
    }
  ],
  "transactionHash": "0xfd15dbd97eb977ecbcbf78a79dbc57fc0ce3306201fbbc8b6ab51329594753e9",
  "args": [
    "0xcdfdC3752caaA826fE62531E0000C40546eC56A6"
  ],
  "numDeployments": 4,
  "solcInputHash": "294e4684ec82046939090fa9e468f317",
  "bytecode": "0x600180546201000160a21b64ffffffffff60a01b1990911617905560028054600160401b600160c01b0319811663ffffffff68010000000000000000600160401b600160801b03199093166e1000000177000000000000000000009081179390930416600160801b02171790556101c06040526210034960a09081526210027660c052621001a460e052621000d2610100526210000061012052620fff2e61014052620ffe5c61016052620ffd8a61018052620ffcb86101a052620000c990600390600962000291565b50348015620000d757600080fd5b506040516200181938038062001819833981016040819052620000fa916200034a565b62000107600033620001cd565b600180546001600160a01b0319166001600160a01b0383161790556200012c620001dd565b600280546001600160401b0319166001600160401b03929092169190911790557fd96ba01d6560c2ab35f2940dd8d70c5f5fe06236c72674237120515918198fb06080527fae46785019700e30375a5d7b4f91e32f8060ef085111f896ebf889450aa2ab5a620001ae600254600160801b9004600a1c663fffffffffffff1690565b60405163ffffffff909116815260200160405180910390a1506200039f565b620001d98282620001f1565b5050565b6000620001ec6098436200037c565b905090565b6000828152602081815260408083206001600160a01b038516845290915290205460ff16620001d9576000828152602081815260408083206001600160a01b03851684529091529020805460ff191660011790556200024d3390565b6001600160a01b0316816001600160a01b0316837f2f8788117e7eff1d82e926ec794901d17c78024a50270940304540a733656f0d60405160405180910390a45050565b600283019183908215620003215791602002820160005b83821115620002ed57835183826101000a81548163ffffffff021916908362ffffff1602179055509260200192600401602081600301049283019260010302620002a8565b80156200031f5782816101000a81549063ffffffff0219169055600401602081600301049283019260010302620002ed565b505b506200032f92915062000333565b5090565b5b808211156200032f576000815560010162000334565b6000602082840312156200035d57600080fd5b81516001600160a01b03811681146200037557600080fd5b9392505050565b6000826200039a57634e487b7160e01b600052601260045260246000fd5b500490565b608051611457620003c2600039600081816103ac01526108bf01526114576000f3fe608060405234801561001057600080fd5b50600436106101825760003560e01c806391d14854116100d8578063daafe0a51161008c578063f7b188a511610066578063f7b188a51461039f578063fb8d8101146103a7578063ffb98fe3146103ce57600080fd5b8063daafe0a514610346578063dcd8ffb814610359578063e0632c641461037457600080fd5b8063a217fddf116100bd578063a217fddf14610317578063b187bd261461031f578063d547741f1461033357600080fd5b806391d14854146102c55780639d1b464a146102fc57600080fd5b80637310561b1161013a5780637f386b6c116101145780637f386b6c146102995780638456cb59146102b55780638a19c8bc146102bd57600080fd5b80637310561b1461023557806374e7493b1461026a5780637e8effdd1461027d57600080fd5b80632f2ff15d1161016b5780632f2ff15d146101e057806336568abe146101f557806355bdcd231461020857600080fd5b806301ffc9a714610187578063248a9ca3146101af575b600080fd5b61019a6101953660046110e2565b6103e1565b60405190151581526020015b60405180910390f35b6101d26101bd366004611124565b60009081526020819052604090206001015490565b6040519081526020016101a6565b6101f36101ee36600461113d565b61047a565b005b6101f361020336600461113d565b6104a4565b60025461021c9067ffffffffffffffff1681565b60405167ffffffffffffffff90911681526020016101a6565b600254610255906c01000000000000000000000000900463ffffffff1681565b60405163ffffffff90911681526020016101a6565b610255610278366004611124565b610535565b6002546102559068010000000000000000900463ffffffff1681565b600254680100000000000000009004600a1c623fffff16610255565b6101f3610565565b61021c6105c9565b61019a6102d336600461113d565b6000918252602082815260408084206001600160a01b0393909316845291905290205460ff1690565b600254600160801b9004600a1c663fffffffffffff16610255565b6101d2600081565b60015461019a90600160c01b900460ff1681565b6101f361034136600461113d565b6105db565b61019a610354366004611179565b610600565b60025461021c90600160801b900467ffffffffffffffff1681565b600154610387906001600160a01b031681565b6040516001600160a01b0390911681526020016101a6565b6101f3610847565b6101d27f000000000000000000000000000000000000000000000000000000000000000081565b61019a6103dc36600461119f565b6108a5565b60007fffffffff0000000000000000000000000000000000000000000000000000000082167f7965db0b00000000000000000000000000000000000000000000000000000000148061047457507f01ffc9a7000000000000000000000000000000000000000000000000000000007fffffffff000000000000000000000000000000000000000000000000000000008316145b92915050565b60008281526020819052604090206001015461049581610d4b565b61049f8383610d58565b505050565b6001600160a01b03811633146105275760405162461bcd60e51b815260206004820152602f60248201527f416363657373436f6e74726f6c3a2063616e206f6e6c792072656e6f756e636560448201527f20726f6c657320666f722073656c66000000000000000000000000000000000060648201526084015b60405180910390fd5b6105318282610df6565b5050565b6003816009811061054557600080fd5b60089182820401919006600402915054906101000a900463ffffffff1681565b3360009081527fad3228b676f7d3cd4284a5443f17f1962b36e491b30a40b2405849e597ba5fb5602052604090205460ff166105b45760405163036c8cf960e11b815260040160405180910390fd5b6001805460ff60c01b1916600160c01b179055565b60006105d66098436111ef565b905090565b6000828152602081905260409020600101546105f681610d4b565b61049f8383610df6565b3360009081527fad3228b676f7d3cd4284a5443f17f1962b36e491b30a40b2405849e597ba5fb5602052604081205460ff1661064f5760405163036c8cf960e11b815260040160405180910390fd5b60025463fffffc00600a84901b169068010000000000000000900463ffffffff168082101561067c578091505b6002805467ffffffffffffffff8416600160801b027fffffffffffffffff0000000000000000ffffffffffffffffffffffffffffffff9091161790556001546000906001600160a01b03166106e4600254663fffffffffffff600160801b909104600a1c1690565b63ffffffff166040516024016106fc91815260200190565b60408051601f198184030181529181526020820180517bffffffffffffffffffffffffffffffffffffffffffffffffffffffff166391b7f5ed60e01b179052516107469190611227565b6000604051808303816000865af19150503d8060008114610783576040519150601f19603f3d011682016040523d82523d6000602084013e610788565b606091505b50509050806107ec576002547fd2821f4adadf1d64076091cc92984c0f001a300541dd58cff8e8e29d6290c33d90600160801b9004600a1c663fffffffffffff1660405163ffffffff909116815260200160405180910390a1506000949350505050565b6002547fae46785019700e30375a5d7b4f91e32f8060ef085111f896ebf889450aa2ab5a90600160801b9004600a1c663fffffffffffff1660405163ffffffff909116815260200160405180910390a1506001949350505050565b3360009081527fad3228b676f7d3cd4284a5443f17f1962b36e491b30a40b2405849e597ba5fb5602052604090205460ff166108965760405163036c8cf960e11b815260040160405180910390fd5b6001805460ff60c01b19169055565b600154600090600160c01b900460ff1615158103610d43577f000000000000000000000000000000000000000000000000000000000000000060009081526020818152604080832033845290915290205460ff1661092f576040517f262791ec00000000000000000000000000000000000000000000000000000000815260040160405180910390fd5b81600061093a6105c9565b60025490915067ffffffffffffffff90811690821611610986576040517f08a5cb4c00000000000000000000000000000000000000000000000000000000815260040160405180910390fd5b8361ffff166000036109c4576040517fb5ca2d7100000000000000000000000000000000000000000000000000000000815260040160405180910390fd5b600154600090610a0c9061ffff760100000000000000000000000000000000000000000000820481169174010000000000000000000000000000000000000000900416611243565b90508061ffff168561ffff161115610a22578092505b60025467ffffffffffffffff600160801b820481169163ffffffff6801000000000000000082048116926c01000000000000000000000000830490911691600091600191610a71911688611265565b610a7b9190611265565b9050600060038861ffff1660098110610a9657610a96611286565b60088104919091015460079091166004026101000a900463ffffffff90811691508316610ac3868361129c565b610acd91906112c8565b945067ffffffffffffffff821615610b41575060035463ffffffff1660005b8267ffffffffffffffff168167ffffffffffffffff161015610b3f578363ffffffff16868363ffffffff16610b21919061129c565b610b2b91906112c8565b955080610b37816112ef565b915050610aec565b505b8367ffffffffffffffff168567ffffffffffffffff161015610b61578394505b600280547fffffffffffffffff0000000000000000ffffffffffffffff000000000000000016600160801b67ffffffffffffffff888116820267ffffffffffffffff191692909217918a1691909117918290556001546000926001600160a01b03909116919004600a1c663fffffffffffff1663ffffffff16604051602401610bec91815260200190565b60408051601f198184030181529181526020820180517bffffffffffffffffffffffffffffffffffffffffffffffffffffffff166391b7f5ed60e01b17905251610c369190611227565b6000604051808303816000865af19150503d8060008114610c73576040519150601f19603f3d011682016040523d82523d6000602084013e610c78565b606091505b5050905080610ce2576002547fd2821f4adadf1d64076091cc92984c0f001a300541dd58cff8e8e29d6290c33d90600160801b9004600a1c663fffffffffffff1660405163ffffffff909116815260200160405180910390a15060009a9950505050505050505050565b6002547fae46785019700e30375a5d7b4f91e32f8060ef085111f896ebf889450aa2ab5a90600160801b9004600a1c663fffffffffffff1660405163ffffffff909116815260200160405180910390a15060019a9950505050505050505050565b506000919050565b610d558133610e75565b50565b6000828152602081815260408083206001600160a01b038516845290915290205460ff16610531576000828152602081815260408083206001600160a01b03851684529091529020805460ff19166001179055610db23390565b6001600160a01b0316816001600160a01b0316837f2f8788117e7eff1d82e926ec794901d17c78024a50270940304540a733656f0d60405160405180910390a45050565b6000828152602081815260408083206001600160a01b038516845290915290205460ff1615610531576000828152602081815260408083206001600160a01b0385168085529252808320805460ff1916905551339285917ff6391f5c32d9c69d2a47ea670b442974b53935d1edc7fd64eb21e047a839171b9190a45050565b6000828152602081815260408083206001600160a01b038516845290915290205460ff1661053157610ea681610ee8565b610eb1836020610efa565b604051602001610ec2929190611316565b60408051601f198184030181529082905262461bcd60e51b825261051e91600401611397565b60606104746001600160a01b03831660145b60606000610f098360026113ca565b610f149060026113e1565b67ffffffffffffffff811115610f2c57610f2c6113f4565b6040519080825280601f01601f191660200182016040528015610f56576020820181803683370190505b5090507f300000000000000000000000000000000000000000000000000000000000000081600081518110610f8d57610f8d611286565b60200101906001600160f81b031916908160001a9053507f780000000000000000000000000000000000000000000000000000000000000081600181518110610fd857610fd8611286565b60200101906001600160f81b031916908160001a9053506000610ffc8460026113ca565b6110079060016113e1565b90505b600181111561108c577f303132333435363738396162636465660000000000000000000000000000000085600f166010811061104857611048611286565b1a60f81b82828151811061105e5761105e611286565b60200101906001600160f81b031916908160001a90535060049490941c936110858161140a565b905061100a565b5083156110db5760405162461bcd60e51b815260206004820181905260248201527f537472696e67733a20686578206c656e67746820696e73756666696369656e74604482015260640161051e565b9392505050565b6000602082840312156110f457600080fd5b81357fffffffff00000000000000000000000000000000000000000000000000000000811681146110db57600080fd5b60006020828403121561113657600080fd5b5035919050565b6000806040838503121561115057600080fd5b8235915060208301356001600160a01b038116811461116e57600080fd5b809150509250929050565b60006020828403121561118b57600080fd5b813563ffffffff811681146110db57600080fd5b6000602082840312156111b157600080fd5b813561ffff811681146110db57600080fd5b634e487b7160e01b600052601260045260246000fd5b634e487b7160e01b600052601160045260246000fd5b6000826111fe576111fe6111c3565b500490565b60005b8381101561121e578181015183820152602001611206565b50506000910152565b60008251611239818460208701611203565b9190910192915050565b61ffff81811683821601908082111561125e5761125e6111d9565b5092915050565b67ffffffffffffffff82811682821603908082111561125e5761125e6111d9565b634e487b7160e01b600052603260045260246000fd5b67ffffffffffffffff8181168382160280821691908281146112c0576112c06111d9565b505092915050565b600067ffffffffffffffff808416806112e3576112e36111c3565b92169190910492915050565b600067ffffffffffffffff80831681810361130c5761130c6111d9565b6001019392505050565b7f416363657373436f6e74726f6c3a206163636f756e742000000000000000000081526000835161134e816017850160208801611203565b7f206973206d697373696e6720726f6c6520000000000000000000000000000000601791840191820152835161138b816028840160208801611203565b01602801949350505050565b60208152600082518060208401526113b6816040850160208701611203565b601f01601f19169190910160400192915050565b8082028115828204841417610474576104746111d9565b80820180821115610474576104746111d9565b634e487b7160e01b600052604160045260246000fd5b600081611419576114196111d9565b50600019019056fea2646970667358221220d9f2bae3059a195fbe106eecfa17d7818ae58f76c3efa4ab6bd7920ebaaf271664736f6c63430008130033",
  "devdoc": {
    "author": "The Swarm Authors.",
    "details": "The price oracle contract emits a price feed using events.",
    "events": {
      "PriceUpdate(uint256)": {
        "details": "Emitted on every price update."
      },
      "RoleAdminChanged(bytes32,bytes32,bytes32)": {
        "details": "Emitted when `newAdminRole` is set as ``role``'s admin role, replacing `previousAdminRole` `DEFAULT_ADMIN_ROLE` is the starting admin for all roles, despite {RoleAdminChanged} not being emitted signaling this. _Available since v3.1._"
      },
      "RoleGranted(bytes32,address,address)": {
        "details": "Emitted when `account` is granted `role`. `sender` is the account that originated the contract call, an admin role bearer except when using {AccessControl-_setupRole}."
      },
      "RoleRevoked(bytes32,address,address)": {
        "details": "Emitted when `account` is revoked `role`. `sender` is the account that originated the contract call:   - if using `revokeRole`, it is the admin role bearer   - if using `renounceRole`, it is the role bearer (i.e. `account`)"
      }
    },
    "kind": "dev",
    "methods": {
      "getRoleAdmin(bytes32)": {
        "details": "Returns the admin role that controls `role`. See {grantRole} and {revokeRole}. To change a role's admin, use {_setRoleAdmin}."
      },
      "grantRole(bytes32,address)": {
        "details": "Grants `role` to `account`. If `account` had not been already granted `role`, emits a {RoleGranted} event. Requirements: - the caller must have ``role``'s admin role. May emit a {RoleGranted} event."
      },
      "hasRole(bytes32,address)": {
        "details": "Returns `true` if `account` has been granted `role`."
      },
      "renounceRole(bytes32,address)": {
        "details": "Revokes `role` from the calling account. Roles are often managed via {grantRole} and {revokeRole}: this function's purpose is to provide a mechanism for accounts to lose their privileges if they are compromised (such as when a trusted device is misplaced). If the calling account had been revoked `role`, emits a {RoleRevoked} event. Requirements: - the caller must be `account`. May emit a {RoleRevoked} event."
      },
      "revokeRole(bytes32,address)": {
        "details": "Revokes `role` from `account`. If `account` had been granted `role`, emits a {RoleRevoked} event. Requirements: - the caller must have ``role``'s admin role. May emit a {RoleRevoked} event."
      },
      "setPrice(uint32)": {
        "details": "Can only be called by the admin role.",
        "params": {
          "_price": "The new price."
        }
      },
      "supportsInterface(bytes4)": {
        "details": "See {IERC165-supportsInterface}."
      }
    },
    "title": "PriceOracle contract.",
    "version": 1
  },
  "userdoc": {
    "kind": "user",
    "methods": {
      "currentPrice()": {
        "notice": "Return the price downscaled"
      },
      "currentRound()": {
        "notice": "Return the number of the current round."
      },
      "minimumPrice()": {
        "notice": "Return the price downscaled"
      },
      "setPrice(uint32)": {
        "notice": "Manually set the price."
      }
    },
    "version": 1
  },
  "storageLayout": {
    "storage": [
      {
        "astId": 24,
        "contract": "src/PriceOracle.sol:PriceOracle",
        "label": "_roles",
        "offset": 0,
        "slot": "0",
        "type": "t_mapping(t_bytes32,t_struct(RoleData)19_storage)"
      },
      {
        "astId": 6716,
        "contract": "src/PriceOracle.sol:PriceOracle",
        "label": "postageStamp",
        "offset": 0,
        "slot": "1",
        "type": "t_contract(IPostageStamp)11359"
      },
      {
        "astId": 6719,
        "contract": "src/PriceOracle.sol:PriceOracle",
        "label": "targetRedundancy",
        "offset": 20,
        "slot": "1",
        "type": "t_uint16"
      },
      {
        "astId": 6722,
        "contract": "src/PriceOracle.sol:PriceOracle",
        "label": "maxConsideredExtraRedundancy",
        "offset": 22,
        "slot": "1",
        "type": "t_uint16"
      },
      {
        "astId": 6725,
        "contract": "src/PriceOracle.sol:PriceOracle",
        "label": "isPaused",
        "offset": 24,
        "slot": "1",
        "type": "t_bool"
      },
      {
        "astId": 6727,
        "contract": "src/PriceOracle.sol:PriceOracle",
        "label": "lastAdjustedRound",
        "offset": 0,
        "slot": "2",
        "type": "t_uint64"
      },
      {
        "astId": 6732,
        "contract": "src/PriceOracle.sol:PriceOracle",
        "label": "minimumPriceUpscaled",
        "offset": 8,
        "slot": "2",
        "type": "t_uint32"
      },
      {
        "astId": 6735,
        "contract": "src/PriceOracle.sol:PriceOracle",
        "label": "priceBase",
        "offset": 12,
        "slot": "2",
        "type": "t_uint32"
      },
      {
        "astId": 6738,
        "contract": "src/PriceOracle.sol:PriceOracle",
        "label": "currentPriceUpScaled",
        "offset": 16,
        "slot": "2",
        "type": "t_uint64"
      },
      {
        "astId": 6752,
        "contract": "src/PriceOracle.sol:PriceOracle",
        "label": "changeRate",
        "offset": 0,
        "slot": "3",
        "type": "t_array(t_uint32)9_storage"
      }
    ],
    "types": {
      "t_address": {
        "encoding": "inplace",
        "label": "address",
        "numberOfBytes": "20"
      },
      "t_array(t_uint32)9_storage": {
        "base": "t_uint32",
        "encoding": "inplace",
        "label": "uint32[9]",
        "numberOfBytes": "64"
      },
      "t_bool": {
        "encoding": "inplace",
        "label": "bool",
        "numberOfBytes": "1"
      },
      "t_bytes32": {
        "encoding": "inplace",
        "label": "bytes32",
        "numberOfBytes": "32"
      },
      "t_contract(IPostageStamp)11359": {
        "encoding": "inplace",
        "label": "contract IPostageStamp",
        "numberOfBytes": "20"
      },
      "t_mapping(t_address,t_bool)": {
        "encoding": "mapping",
        "key": "t_address",
        "label": "mapping(address => bool)",
        "numberOfBytes": "32",
        "value": "t_bool"
      },
      "t_mapping(t_bytes32,t_struct(RoleData)19_storage)": {
        "encoding": "mapping",
        "key": "t_bytes32",
        "label": "mapping(bytes32 => struct AccessControl.RoleData)",
        "numberOfBytes": "32",
        "value": "t_struct(RoleData)19_storage"
      },
      "t_struct(RoleData)19_storage": {
        "encoding": "inplace",
        "label": "struct AccessControl.RoleData",
        "members": [
          {
            "astId": 16,
            "contract": "src/PriceOracle.sol:PriceOracle",
            "label": "members",
            "offset": 0,
            "slot": "0",
            "type": "t_mapping(t_address,t_bool)"
          },
          {
            "astId": 18,
            "contract": "src/PriceOracle.sol:PriceOracle",
            "label": "adminRole",
            "offset": 0,
            "slot": "1",
            "type": "t_bytes32"
          }
        ],
        "numberOfBytes": "64"
      },
      "t_uint16": {
        "encoding": "inplace",
        "label": "uint16",
        "numberOfBytes": "2"
      },
      "t_uint32": {
        "encoding": "inplace",
        "label": "uint32",
        "numberOfBytes": "4"
      },
      "t_uint64": {
        "encoding": "inplace",
        "label": "uint64",
        "numberOfBytes": "8"
      }
    }
  }
}