{
  "address": "0x7cb4eFee1Ce83980d6774D4B98F12D3F39008aB7",
  "abi": [
    {
      "inputs": [
        {
          "internalType": "address",
          "name": "staking",
          "type": "address"
        },
        {
          "internalType": "address",
          "name": "postageContract",
          "type": "address"
        },
        {
          "internalType": "address",
          "name": "oracleContract",
          "type": "address"
        }
      ],
      "stateMutability": "nonpayable",
      "type": "constructor"
    },
    {
      "anonymous": false,
      "inputs": [
        {
          "indexed": false,
          "internalType": "uint256",
          "name": "validChunkCount",
          "type": "uint256"
        }
      ],
      "name": "ChunkCount",
      "type": "event"
    },
    {
      "anonymous": false,
      "inputs": [
        {
          "indexed": false,
          "internalType": "uint256",
          "name": "roundNumber",
          "type": "uint256"
        },
        {
          "indexed": false,
          "internalType": "bytes32",
          "name": "overlay",
          "type": "bytes32"
        }
      ],
      "name": "Committed",
      "type": "event"
    },
    {
      "anonymous": false,
      "inputs": [
        {
          "indexed": false,
          "internalType": "uint256",
          "name": "_count",
          "type": "uint256"
        }
      ],
      "name": "CountCommits",
      "type": "event"
    },
    {
      "anonymous": false,
      "inputs": [
        {
          "indexed": false,
          "internalType": "uint256",
          "name": "_count",
          "type": "uint256"
        }
      ],
      "name": "CountReveals",
      "type": "event"
    },
    {
      "anonymous": false,
      "inputs": [
        {
          "indexed": false,
          "internalType": "uint256",
          "name": "roundNumber",
          "type": "uint256"
        },
        {
          "indexed": false,
          "internalType": "bytes32",
          "name": "anchor",
          "type": "bytes32"
        }
      ],
      "name": "CurrentRevealAnchor",
      "type": "event"
    },
    {
      "anonymous": false,
      "inputs": [
        {
          "indexed": false,
          "internalType": "address",
          "name": "account",
          "type": "address"
        }
      ],
      "name": "Paused",
      "type": "event"
    },
    {
      "anonymous": false,
      "inputs": [
        {
          "indexed": false,
          "internalType": "uint256",
          "name": "roundNumber",
          "type": "uint256"
        },
        {
          "indexed": false,
          "internalType": "bytes32",
          "name": "overlay",
          "type": "bytes32"
        },
        {
          "indexed": false,
          "internalType": "uint256",
          "name": "stake",
          "type": "uint256"
        },
        {
          "indexed": false,
          "internalType": "uint256",
          "name": "stakeDensity",
          "type": "uint256"
        },
        {
          "indexed": false,
          "internalType": "bytes32",
          "name": "reserveCommitment",
          "type": "bytes32"
        },
        {
          "indexed": false,
          "internalType": "uint8",
          "name": "depth",
          "type": "uint8"
        }
      ],
      "name": "Revealed",
      "type": "event"
    },
    {
      "anonymous": false,
      "inputs": [
        {
          "indexed": true,
          "internalType": "bytes32",
          "name": "role",
          "type": "bytes32"
        },
        {
          "indexed": true,
          "internalType": "bytes32",
          "name": "previousAdminRole",
          "type": "bytes32"
        },
        {
          "indexed": true,
          "internalType": "bytes32",
          "name": "newAdminRole",
          "type": "bytes32"
        }
      ],
      "name": "RoleAdminChanged",
      "type": "event"
    },
    {
      "anonymous": false,
      "inputs": [
        {
          "indexed": true,
          "internalType": "bytes32",
          "name": "role",
          "type": "bytes32"
        },
        {
          "indexed": true,
          "internalType": "address",
          "name": "account",
          "type": "address"
        },
        {
          "indexed": true,
          "internalType": "address",
          "name": "sender",
          "type": "address"
        }
      ],
      "name": "RoleGranted",
      "type": "event"
    },
    {
      "anonymous": false,
      "inputs": [
        {
          "indexed": true,
          "internalType": "bytes32",
          "name": "role",
          "type": "bytes32"
        },
        {
          "indexed": true,
          "internalType": "address",
          "name": "account",
          "type": "address"
        },
        {
          "indexed": true,
          "internalType": "address",
          "name": "sender",
          "type": "address"
        }
      ],
      "name": "RoleRevoked",
      "type": "event"
    },
    {
      "anonymous": false,
      "inputs": [
        {
          "indexed": false,
          "internalType": "bytes32",
          "name": "hash",
          "type": "bytes32"
        },
        {
          "indexed": false,
          "internalType": "uint8",
          "name": "depth",
          "type": "uint8"
        }
      ],
      "name": "TruthSelected",
      "type": "event"
    },
    {
      "anonymous": false,
      "inputs": [
        {
          "indexed": false,
          "internalType": "address",
          "name": "account",
          "type": "address"
        }
      ],
      "name": "Unpaused",
      "type": "event"
    },
    {
      "anonymous": false,
      "inputs": [
        {
          "components": [
            {
              "internalType": "address",
              "name": "owner",
              "type": "address"
            },
            {
              "internalType": "bytes32",
              "name": "overlay",
              "type": "bytes32"
            },
            {
              "internalType": "uint256",
              "name": "stake",
              "type": "uint256"
            },
            {
              "internalType": "uint256",
              "name": "stakeDensity",
              "type": "uint256"
            },
            {
              "internalType": "bytes32",
              "name": "hash",
              "type": "bytes32"
            },
            {
              "internalType": "uint8",
              "name": "depth",
              "type": "uint8"
            }
          ],
          "indexed": false,
          "internalType": "struct Redistribution.Reveal",
          "name": "winner",
          "type": "tuple"
        }
      ],
      "name": "WinnerSelected",
      "type": "event"
    },
    {
      "inputs": [],
      "name": "DEFAULT_ADMIN_ROLE",
      "outputs": [
        {
          "internalType": "bytes32",
          "name": "",
          "type": "bytes32"
        }
      ],
      "stateMutability": "view",
      "type": "function"
    },
    {
      "inputs": [],
      "name": "OracleContract",
      "outputs": [
        {
          "internalType": "contract IPriceOracle",
          "name": "",
          "type": "address"
        }
      ],
      "stateMutability": "view",
      "type": "function"
    },
    {
      "inputs": [],
      "name": "PAUSER_ROLE",
      "outputs": [
        {
          "internalType": "bytes32",
          "name": "",
          "type": "bytes32"
        }
      ],
      "stateMutability": "view",
      "type": "function"
    },
    {
      "inputs": [],
      "name": "PostageContract",
      "outputs": [
        {
          "internalType": "contract IPostageStamp",
          "name": "",
          "type": "address"
        }
      ],
      "stateMutability": "view",
      "type": "function"
    },
    {
      "inputs": [],
      "name": "Stakes",
      "outputs": [
        {
          "internalType": "contract IStakeRegistry",
          "name": "",
          "type": "address"
        }
      ],
      "stateMutability": "view",
      "type": "function"
    },
    {
      "inputs": [],
      "name": "claim",
      "outputs": [],
      "stateMutability": "nonpayable",
      "type": "function"
    },
    {
      "inputs": [
        {
          "internalType": "bytes32",
          "name": "_obfuscatedHash",
          "type": "bytes32"
        },
        {
          "internalType": "bytes32",
          "name": "_overlay",
          "type": "bytes32"
        },
        {
          "internalType": "uint256",
          "name": "_roundNumber",
          "type": "uint256"
        }
      ],
      "name": "commit",
      "outputs": [],
      "stateMutability": "nonpayable",
      "type": "function"
    },
    {
      "inputs": [],
      "name": "currentClaimRound",
      "outputs": [
        {
          "internalType": "uint256",
          "name": "",
          "type": "uint256"
        }
      ],
      "stateMutability": "view",
      "type": "function"
    },
    {
      "inputs": [],
      "name": "currentCommitRound",
      "outputs": [
        {
          "internalType": "uint256",
          "name": "",
          "type": "uint256"
        }
      ],
      "stateMutability": "view",
      "type": "function"
    },
    {
      "inputs": [
        {
          "internalType": "uint256",
          "name": "",
          "type": "uint256"
        }
      ],
      "name": "currentCommits",
      "outputs": [
        {
          "internalType": "bytes32",
          "name": "overlay",
          "type": "bytes32"
        },
        {
          "internalType": "address",
          "name": "owner",
          "type": "address"
        },
        {
          "internalType": "uint256",
          "name": "stake",
          "type": "uint256"
        },
        {
          "internalType": "bytes32",
          "name": "obfuscatedHash",
          "type": "bytes32"
        },
        {
          "internalType": "bool",
          "name": "revealed",
          "type": "bool"
        },
        {
          "internalType": "uint256",
          "name": "revealIndex",
          "type": "uint256"
        }
      ],
      "stateMutability": "view",
      "type": "function"
    },
    {
      "inputs": [],
      "name": "currentPhaseClaim",
      "outputs": [
        {
          "internalType": "bool",
          "name": "",
          "type": "bool"
        }
      ],
      "stateMutability": "view",
      "type": "function"
    },
    {
      "inputs": [],
      "name": "currentPhaseCommit",
      "outputs": [
        {
          "internalType": "bool",
          "name": "",
          "type": "bool"
        }
      ],
      "stateMutability": "view",
      "type": "function"
    },
    {
      "inputs": [],
      "name": "currentPhaseReveal",
      "outputs": [
        {
          "internalType": "bool",
          "name": "",
          "type": "bool"
        }
      ],
      "stateMutability": "view",
      "type": "function"
    },
    {
      "inputs": [],
      "name": "currentRevealRound",
      "outputs": [
        {
          "internalType": "uint256",
          "name": "",
          "type": "uint256"
        }
      ],
      "stateMutability": "view",
      "type": "function"
    },
    {
      "inputs": [
        {
          "internalType": "uint256",
          "name": "",
          "type": "uint256"
        }
      ],
      "name": "currentReveals",
      "outputs": [
        {
          "internalType": "address",
          "name": "owner",
          "type": "address"
        },
        {
          "internalType": "bytes32",
          "name": "overlay",
          "type": "bytes32"
        },
        {
          "internalType": "uint256",
          "name": "stake",
          "type": "uint256"
        },
        {
          "internalType": "uint256",
          "name": "stakeDensity",
          "type": "uint256"
        },
        {
          "internalType": "bytes32",
          "name": "hash",
          "type": "bytes32"
        },
        {
          "internalType": "uint8",
          "name": "depth",
          "type": "uint8"
        }
      ],
      "stateMutability": "view",
      "type": "function"
    },
    {
      "inputs": [],
      "name": "currentRound",
      "outputs": [
        {
          "internalType": "uint256",
          "name": "",
          "type": "uint256"
        }
      ],
      "stateMutability": "view",
      "type": "function"
    },
    {
      "inputs": [],
      "name": "currentRoundAnchor",
      "outputs": [
        {
          "internalType": "bytes32",
          "name": "returnVal",
          "type": "bytes32"
        }
      ],
      "stateMutability": "view",
      "type": "function"
    },
    {
      "inputs": [],
      "name": "currentRoundReveals",
      "outputs": [
        {
          "components": [
            {
              "internalType": "address",
              "name": "owner",
              "type": "address"
            },
            {
              "internalType": "bytes32",
              "name": "overlay",
              "type": "bytes32"
            },
            {
              "internalType": "uint256",
              "name": "stake",
              "type": "uint256"
            },
            {
              "internalType": "uint256",
              "name": "stakeDensity",
              "type": "uint256"
            },
            {
              "internalType": "bytes32",
              "name": "hash",
              "type": "bytes32"
            },
            {
              "internalType": "uint8",
              "name": "depth",
              "type": "uint8"
            }
          ],
          "internalType": "struct Redistribution.Reveal[]",
          "name": "",
          "type": "tuple[]"
        }
      ],
      "stateMutability": "view",
      "type": "function"
    },
    {
      "inputs": [],
      "name": "currentSeed",
      "outputs": [
        {
          "internalType": "bytes32",
          "name": "",
          "type": "bytes32"
        }
      ],
      "stateMutability": "view",
      "type": "function"
    },
    {
      "inputs": [
        {
          "internalType": "bytes32",
          "name": "role",
          "type": "bytes32"
        }
      ],
      "name": "getRoleAdmin",
      "outputs": [
        {
          "internalType": "bytes32",
          "name": "",
          "type": "bytes32"
        }
      ],
      "stateMutability": "view",
      "type": "function"
    },
    {
      "inputs": [
        {
          "internalType": "bytes32",
          "name": "role",
          "type": "bytes32"
        },
        {
          "internalType": "address",
          "name": "account",
          "type": "address"
        }
      ],
      "name": "grantRole",
      "outputs": [],
      "stateMutability": "nonpayable",
      "type": "function"
    },
    {
      "inputs": [
        {
          "internalType": "bytes32",
          "name": "role",
          "type": "bytes32"
        },
        {
          "internalType": "address",
          "name": "account",
          "type": "address"
        }
      ],
      "name": "hasRole",
      "outputs": [
        {
          "internalType": "bool",
          "name": "",
          "type": "bool"
        }
      ],
      "stateMutability": "view",
      "type": "function"
    },
    {
      "inputs": [
        {
          "internalType": "bytes32",
          "name": "A",
          "type": "bytes32"
        },
        {
          "internalType": "bytes32",
          "name": "B",
          "type": "bytes32"
        },
        {
          "internalType": "uint8",
          "name": "minimum",
          "type": "uint8"
        }
      ],
      "name": "inProximity",
      "outputs": [
        {
          "internalType": "bool",
          "name": "",
          "type": "bool"
        }
      ],
      "stateMutability": "pure",
      "type": "function"
    },
    {
      "inputs": [
        {
          "internalType": "bytes32",
          "name": "overlay",
          "type": "bytes32"
        },
        {
          "internalType": "uint8",
          "name": "depth",
          "type": "uint8"
        }
      ],
      "name": "isParticipatingInUpcomingRound",
      "outputs": [
        {
          "internalType": "bool",
          "name": "",
          "type": "bool"
        }
      ],
      "stateMutability": "view",
      "type": "function"
    },
    {
      "inputs": [
        {
          "internalType": "bytes32",
          "name": "_overlay",
          "type": "bytes32"
        }
      ],
      "name": "isWinner",
      "outputs": [
        {
          "internalType": "bool",
          "name": "",
          "type": "bool"
        }
      ],
      "stateMutability": "view",
      "type": "function"
    },
    {
      "inputs": [],
      "name": "minimumStake",
      "outputs": [
        {
          "internalType": "uint256",
          "name": "",
          "type": "uint256"
        }
      ],
      "stateMutability": "view",
      "type": "function"
    },
    {
      "inputs": [],
      "name": "nextSeed",
      "outputs": [
        {
          "internalType": "bytes32",
          "name": "",
          "type": "bytes32"
        }
      ],
      "stateMutability": "view",
      "type": "function"
    },
    {
      "inputs": [],
      "name": "pause",
      "outputs": [],
      "stateMutability": "nonpayable",
      "type": "function"
    },
    {
      "inputs": [],
      "name": "paused",
      "outputs": [
        {
          "internalType": "bool",
          "name": "",
          "type": "bool"
        }
      ],
      "stateMutability": "view",
      "type": "function"
    },
    {
      "inputs": [],
      "name": "penaltyMultiplierDisagreement",
      "outputs": [
        {
          "internalType": "uint256",
          "name": "",
          "type": "uint256"
        }
      ],
      "stateMutability": "view",
      "type": "function"
    },
    {
      "inputs": [],
      "name": "penaltyMultiplierNonRevealed",
      "outputs": [
        {
          "internalType": "uint256",
          "name": "",
          "type": "uint256"
        }
      ],
      "stateMutability": "view",
      "type": "function"
    },
    {
      "inputs": [
        {
          "internalType": "bytes32",
          "name": "role",
          "type": "bytes32"
        },
        {
          "internalType": "address",
          "name": "account",
          "type": "address"
        }
      ],
      "name": "renounceRole",
      "outputs": [],
      "stateMutability": "nonpayable",
      "type": "function"
    },
    {
      "inputs": [
        {
          "internalType": "bytes32",
          "name": "_overlay",
          "type": "bytes32"
        },
        {
          "internalType": "uint8",
          "name": "_depth",
          "type": "uint8"
        },
        {
          "internalType": "bytes32",
          "name": "_hash",
          "type": "bytes32"
        },
        {
          "internalType": "bytes32",
          "name": "_revealNonce",
          "type": "bytes32"
        }
      ],
      "name": "reveal",
      "outputs": [],
      "stateMutability": "nonpayable",
      "type": "function"
    },
    {
      "inputs": [
        {
          "internalType": "bytes32",
          "name": "role",
          "type": "bytes32"
        },
        {
          "internalType": "address",
          "name": "account",
          "type": "address"
        }
      ],
      "name": "revokeRole",
      "outputs": [],
      "stateMutability": "nonpayable",
      "type": "function"
    },
    {
      "inputs": [],
      "name": "roundLength",
      "outputs": [
        {
          "internalType": "uint256",
          "name": "",
          "type": "uint256"
        }
      ],
      "stateMutability": "view",
      "type": "function"
    },
    {
      "inputs": [
        {
          "internalType": "uint256",
          "name": "_penaltyMultiplierDisagreement",
          "type": "uint256"
        },
        {
          "internalType": "uint256",
          "name": "_penaltyMultiplierNonRevealed",
          "type": "uint256"
        }
      ],
      "name": "setFreezingParams",
      "outputs": [],
      "stateMutability": "nonpayable",
      "type": "function"
    },
    {
      "inputs": [
        {
          "internalType": "bytes4",
          "name": "interfaceId",
          "type": "bytes4"
        }
      ],
      "name": "supportsInterface",
      "outputs": [
        {
          "internalType": "bool",
          "name": "",
          "type": "bool"
        }
      ],
      "stateMutability": "view",
      "type": "function"
    },
    {
      "inputs": [],
      "name": "unPause",
      "outputs": [],
      "stateMutability": "nonpayable",
      "type": "function"
    },
    {
      "inputs": [],
      "name": "winner",
      "outputs": [
        {
          "internalType": "address",
          "name": "owner",
          "type": "address"
        },
        {
          "internalType": "bytes32",
          "name": "overlay",
          "type": "bytes32"
        },
        {
          "internalType": "uint256",
          "name": "stake",
          "type": "uint256"
        },
        {
          "internalType": "uint256",
          "name": "stakeDensity",
          "type": "uint256"
        },
        {
          "internalType": "bytes32",
          "name": "hash",
          "type": "bytes32"
        },
        {
          "internalType": "uint8",
          "name": "depth",
          "type": "uint8"
        }
      ],
      "stateMutability": "view",
      "type": "function"
    },
    {
      "inputs": [
        {
          "internalType": "bytes32",
          "name": "_overlay",
          "type": "bytes32"
        },
        {
          "internalType": "uint8",
          "name": "_depth",
          "type": "uint8"
        },
        {
          "internalType": "bytes32",
          "name": "_hash",
          "type": "bytes32"
        },
        {
          "internalType": "bytes32",
          "name": "revealNonce",
          "type": "bytes32"
        }
      ],
      "name": "wrapCommit",
      "outputs": [
        {
          "internalType": "bytes32",
          "name": "",
          "type": "bytes32"
        }
      ],
      "stateMutability": "pure",
      "type": "function"
    }
  ],
  "transactionHash": "0xfe6ea8ff2d1be2088ec1d58cd5925b13829b3f4050cab3c4a7f78ba1f8796e7c",
  "args": [
    "0x45d13eBeA8292029A8366D5d807d16E793dcEaec",
    "0x70058cC8A9e538140007853fE7c553eBE1773C06",
    "0xcc11eB972482b14014Dec19f640bA0d416498f7D"
  ],
  "numDeployments": 1,
  "solcInputHash": "e6218dd64212b7a5e5f5c4c2f9f296c2",
  "bytecode": "0x6080604052600160065560026007556001600160801b0360085567016345785d8a0000600b556098600f553480156200003757600080fd5b506040516200346e3803806200346e8339810160408190526200005a91620001b6565b60018054600380546001600160a01b03199081166001600160a01b03888116919091179092556001600160a81b0319909216610100868316021790925560028054909116918316919091179055620000b4600033620000e9565b620000e07f65d7a28e3265b37a6474929f336521b332c1681b933f6cb9f3376673440d862a33620000e9565b50505062000200565b620000f58282620000f9565b5050565b6000828152602081815260408083206001600160a01b038516845290915290205460ff16620000f5576000828152602081815260408083206001600160a01b03851684529091529020805460ff19166001179055620001553390565b6001600160a01b0316816001600160a01b0316837f2f8788117e7eff1d82e926ec794901d17c78024a50270940304540a733656f0d60405160405180910390a45050565b80516001600160a01b0381168114620001b157600080fd5b919050565b600080600060608486031215620001cc57600080fd5b620001d78462000199565b9250620001e76020850162000199565b9150620001f76040850162000199565b90509250925092565b61325e80620002106000396000f3fe608060405234801561001057600080fd5b50600436106102485760003560e01c806382b39b1b1161013b578063c203ce52116100b8578063dfbf53ae1161007c578063dfbf53ae146104f9578063e63ab1e914610523578063ec5ffac21461054a578063f7b188a514610553578063fb00f2f31461055b57600080fd5b8063c203ce52146104af578063ce987745146104b8578063d1e8b63d146104cb578063d547741f146104d3578063d9106d25146104e657600080fd5b80638d8b6428116100ff5780638d8b64281461046657806391d148541461046e578063a217fddf14610481578063b78a52a714610489578063c1d810d51461049c57600080fd5b806382b39b1b146103f857806383220626146104455780638456cb591461044d5780638a19c8bc146104555780638b649b941461045d57600080fd5b80635c975abb116101c957806369da91141161018d57806369da9114146103765780636f94aaf21461038957806372286cba1461039257806377c75d10146103dc5780637fe019c6146103ef57600080fd5b80635c975abb1461033f5780635d4844ea1461034a57806362fd29ae1461035d57806364c34a851461036557806369bfac011461036d57600080fd5b80632f3906da116102105780632f3906da1461030057806336568abe146103085780634a2e75981461031b5780634e3727d21461032e5780634e71d92d1461033757600080fd5b806301ffc9a71461024d5780631835009614610275578063248a9ca3146102a55780632a4e6249146102d65780632f2ff15d146102eb575b600080fd5b61026061025b366004612c24565b61056e565b60405190151581526020015b60405180910390f35b60015461028d9061010090046001600160a01b031681565b6040516001600160a01b03909116815260200161026c565b6102c86102b3366004612c4e565b60009081526020819052604090206001015490565b60405190815260200161026c565b6102de6105a5565b60405161026c9190612c67565b6102fe6102f9366004612d00565b6106c2565b005b6102606106ec565b6102fe610316366004612d00565b61073f565b6102fe610329366004612d30565b6107bd565b6102c860065481565b6102fe610dc9565b60015460ff16610260565b60035461028d906001600160a01b031681565b6102c8611564565b6102c86115e8565b6102c8600c5481565b60025461028d906001600160a01b031681565b6102c8600e5481565b6103a56103a0366004612c4e565b6116b5565b604080519687526001600160a01b0390951660208701529385019290925260608401521515608083015260a082015260c00161026c565b6102606103ea366004612c4e565b61170b565b6102c8600d5481565b61040b610406366004612c4e565b6119ac565b604080516001600160a01b0390971687526020870195909552938501929092526060840152608083015260ff1660a082015260c00161026c565b6102c86119ff565b6102fe611a0a565b6102c8611a82565b6102c8600f5481565b610260611a97565b61026061047c366004612d00565b611ac6565b6102c8600081565b610260610497366004612d72565b611aef565b6102fe6104aa366004612d9e565b611d0e565b6102c860075481565b6102c86104c6366004612d9e565b6122e6565b610260612331565b6102fe6104e1366004612d00565b61235b565b6102fe6104f4366004612dd9565b612380565b60105460115460125460135460145460155461040b956001600160a01b0316949392919060ff1686565b6102c87f65d7a28e3265b37a6474929f336521b332c1681b933f6cb9f3376673440d862a81565b6102c8600b5481565b6102fe6123e2565b610260610569366004612dfb565b612460565b60006001600160e01b03198216637965db0b60e01b148061059f57506301ffc9a760e01b6001600160e01b03198316145b92915050565b60606105af611a97565b6105f55760405162461bcd60e51b81526020600482015260126024820152716e6f7420696e20636c61696d20706861736560701b60448201526064015b60405180910390fd5b60006105ff611a82565b9050600d5481146106225760405162461bcd60e51b81526004016105ec90612e30565b6005805480602002602001604051908101604052809291908181526020016000905b828210156106b85760008481526020908190206040805160c0810182526006860290920180546001600160a01b031683526001808201548486015260028201549284019290925260038101546060840152600481015460808401526005015460ff1660a08301529083529092019101610644565b5050505091505090565b6000828152602081905260409020600101546106dd8161249c565b6106e783836124a9565b505050565b600080600f54436106fd9190612e7d565b90506004600f5461070e9190612ea7565b811015801561072a57506002600f546107279190612ea7565b81105b1561073757600191505090565b600091505090565b6001600160a01b03811633146107af5760405162461bcd60e51b815260206004820152602f60248201527f416363657373436f6e74726f6c3a2063616e206f6e6c792072656e6f756e636560448201526e103937b632b9903337b91039b2b63360891b60648201526084016105ec565b6107b9828261252d565b5050565b6107c5612592565b6107cd612331565b61080f5760405162461bcd60e51b81526020600482015260136024820152726e6f7420696e20636f6d6d697420706861736560681b60448201526064016105ec565b60016004600f546108209190612ea7565b61082a9190612ebb565b600f546108379043612e7d565b036108925760405162461bcd60e51b815260206004820152602560248201527f63616e206e6f7420636f6d6d697420696e206c61737420626c6f636b206f6620604482015264706861736560d81b60648201526084016105ec565b600061089c611a82565b9050818111156108e25760405162461bcd60e51b815260206004820152601160248201527031b7b6b6b4ba103937bab7321037bb32b960791b60448201526064016105ec565b818110156109325760405162461bcd60e51b815260206004820152601c60248201527f636f6d6d697420726f756e64206e6f742073746172746564207965740000000060448201526064016105ec565b6003546040516348962b9360e01b8152600481018590526000916001600160a01b0316906348962b9390602401602060405180830381865afa15801561097c573d6000803e3d6000fd5b505050506040513d601f19601f820116820180604052508101906109a09190612ece565b9050600b548110156109f45760405162461bcd60e51b815260206004820152601960248201527f7374616b65206d75737420657863656564206d696e696d756d0000000000000060448201526064016105ec565b60035460405163a0d22b2160e01b81526004810186905233916001600160a01b03169063a0d22b2190602401602060405180830381865afa158015610a3d573d6000803e3d6000fd5b505050506040513d601f19601f82011682018060405250810190610a619190612ee7565b6001600160a01b031614610ab75760405162461bcd60e51b815260206004820152601760248201527f6f776e6572206d757374206d617463682073656e64657200000000000000000060448201526064016105ec565b600f54610ac5906002612f04565b610acf9043612ebb565b6003546040516376f2098160e11b8152600481018790526001600160a01b039091169063ede4130290602401602060405180830381865afa158015610b18573d6000803e3d6000fd5b505050506040513d601f19601f82011682018060405250810190610b3c9190612ece565b10610b895760405162461bcd60e51b815260206004820152601f60248201527f6d7573742068617665207374616b6564203220726f756e6473207072696f720060448201526064016105ec565b600c548214610ba457610b9e60046000612b54565b600c8290555b60045460005b81811015610c37578560048281548110610bc657610bc6612f1b565b90600052602060002090600602016000015403610c255760405162461bcd60e51b815260206004820152601e60248201527f6f6e6c79206f6e6520636f6d6d697420656163682070657220726f756e64000060448201526064016105ec565b80610c2f81612f31565b915050610baa565b506040805160c081018252868152336020808301918252828401868152606084018b815260006080860181815260a0870182815260048054600181018255935296517f8a35acfbc15ff81a39ae7d344fd709f28e8600b4aa8c65c6b64bfe7fe36bd19b60069093029283015594517f8a35acfbc15ff81a39ae7d344fd709f28e8600b4aa8c65c6b64bfe7fe36bd19c820180546001600160a01b0319166001600160a01b0390921691909117905591517f8a35acfbc15ff81a39ae7d344fd709f28e8600b4aa8c65c6b64bfe7fe36bd19d830155517f8a35acfbc15ff81a39ae7d344fd709f28e8600b4aa8c65c6b64bfe7fe36bd19e82015591517f8a35acfbc15ff81a39ae7d344fd709f28e8600b4aa8c65c6b64bfe7fe36bd19f8301805460ff191691151591909117905591517f8a35acfbc15ff81a39ae7d344fd709f28e8600b4aa8c65c6b64bfe7fe36bd1a09091015581518681529081018790527f68e0867601a98978930107aee7f425665e61edd70ca594c68ca5da9e81f84c29910160405180910390a1505050505050565b610dd1612592565b610dd9611a97565b610e1a5760405162461bcd60e51b81526020600482015260126024820152716e6f7420696e20636c61696d20706861736560701b60448201526064016105ec565b6000610e24611a82565b9050600d548114610e475760405162461bcd60e51b81526004016105ec90612e30565b600e548111610e685760405162461bcd60e51b81526004016105ec90612f4a565b6000806000806000806000610e7b6125d8565b90506000610e8761265f565b6004546005549297509095509060005b828110156112dd5760048181548110610eb257610eb2612f1b565b906000526020600020906006020160050154955060048181548110610ed957610ed9612f1b565b600091825260209091206004600690920201015460ff168015610f1f575060058681548110610f0a57610f0a612f1b565b90600052602060002090600602016004015488145b8015610f56575060058681548110610f3957610f39612f1b565b600091825260209091206005600690920201015460ff8881169116145b156110975760058681548110610f6e57610f6e612f1b565b9060005260206000209060060201600301548b610f8b9190612f91565b9a508484604051602001610fa0929190612fc8565b60408051601f198184030181529190528051602090910120600854909a50808b169950610fce906001612f91565b60058781548110610fe157610fe1612f1b565b906000526020600020906006020160030154610ffd9190612f04565b6110078c8b612f04565b1015611089576005868154811061102057611020612f1b565b600091825260209091206006909102018054601080546001600160a01b0319166001600160a01b039092169190911790556001810154601155600281015460125560038101546013556004810154601455600501546015805460ff191660ff9092169190911790555b8361109381612f31565b9450505b600481815481106110aa576110aa612f1b565b600091825260209091206004600690920201015460ff1680156111275750600586815481106110db576110db612f1b565b9060005260206000209060060201600401548814158061112757506005868154811061110957611109612f1b565b600091825260209091206005600690920201015460ff888116911614155b156111e657600354600580546001600160a01b039092169163837fd16a91908990811061115657611156612f1b565b90600052602060002090600602016001015489600261117591906130ce565b600f546006546111859190612f04565b61118f9190612f04565b6040516001600160e01b031960e085901b16815260048101929092526024820152604401600060405180830381600087803b1580156111cd57600080fd5b505af11580156111e1573d6000803e3d6000fd5b505050505b600481815481106111f9576111f9612f1b565b600091825260209091206004600690920201015460ff166112cb57600354600480546001600160a01b039092169163837fd16a91908490811061123e5761123e612f1b565b600091825260209091206006909102015461125a8a60026130ce565b600f5460075461126a9190612f04565b6112749190612f04565b6040516001600160e01b031960e085901b16815260048101929092526024820152604401600060405180830381600087803b1580156112b257600080fd5b505af11580156112c6573d6000803e3d6000fd5b505050505b806112d581612f31565b915050610e97565b506001546010546040516351cff8d960e01b81526001600160a01b03918216600482015261010090920416906351cff8d990602401600060405180830381600087803b15801561132c57600080fd5b505af1158015611340573d6000803e3d6000fd5b505060025460405163395f83cf60e11b8152600481018790526001600160a01b0390911692506372bf079e9150602401600060405180830381600087803b15801561138a57600080fd5b505af115801561139e573d6000803e3d6000fd5b505050600e8c9055506040518281527f6752c5e71c95fb93bc7137adeb115a33fa4e54e2683e33d3f90c2bb1c4b6c2a59060200160405180910390a16040518181527f4c03de6a759749c0c9387b7014634dc5c6af610e1366023d90751c783a998f8d9060200160405180910390a16040805188815260ff881660208201527f34e8eda4cd857cd2865becf58a47748f31415f4a382cbb2cc0c64b9a27c717be910160405180910390a1604080516010546001600160a01b031681526011546020820152601254818301526013546060820152601454608082015260155460ff1660a082015290517f2756aa512df0e32847d196f374c5b2fa5f30705f2fe3a75b8baeac52f2af5b399181900360c00190a17fbee3fc8a3523c1a65fa9308ce1f2b8fd90c24975b141b754603194597846e4dd60018054906101000a90046001600160a01b03166001600160a01b0316638a5e8e326040518163ffffffff1660e01b8152600401602060405180830381865afa158015611522573d6000803e3d6000fd5b505050506040513d601f19601f820116820180604052508101906115469190612ece565b60405190815260200160405180910390a15050505050505050505050565b60008061156f611a82565b61157a906001612f91565b600a54600d549192509061158f906001612f91565b82111561059f5760006001600d54846115a89190612ebb565b6115b29190612ebb565b60408051602081018590529081018290529091506060016040516020818303038152906040528051906020012091505092915050565b6000806115f3611a82565b90506115fd612331565b806116195750600d54811180156116195750611617611a97565b155b1561162c576116266119ff565b91505090565b6116346106ec565b80156116415750600d5481145b1561169c5760405162461bcd60e51b815260206004820152602560248201527f63616e27742072657475726e2076616c75652061667465722066697273742072604482015264195d99585b60da1b60648201526084016105ec565b6116a4611a97565b156116b157611626611564565b5090565b600481815481106116c557600080fd5b60009182526020909120600690910201805460018201546002830154600384015460048501546005909501549395506001600160a01b0390921693909260ff9091169086565b6000611715611a97565b6117615760405162461bcd60e51b815260206004820152601960248201527f77696e6e6572206e6f742064657465726d696e6564207965740000000000000060448201526064016105ec565b600061176b611a82565b9050600d54811461178e5760405162461bcd60e51b81526004016105ec90612e30565b600e5481116117af5760405162461bcd60e51b81526004016105ec90612f4a565b6000806000806000806000806117c36125d8565b905060006117cf61265f565b600454919650945060005b8181101561199857600481815481106117f5576117f5612f1b565b90600052602060002090600602016005015494506004818154811061181c5761181c612f1b565b600091825260209091206004600690920201015460ff16801561186257506005858154811061184d5761184d612f1b565b90600052602060002090600602016004015487145b801561189957506005858154811061187c5761187c612f1b565b600091825260209091206005600690920201015460ff8781169116145b1561198657600585815481106118b1576118b1612f1b565b9060005260206000209060060201600301548b6118ce9190612f91565b9a5083836040516020016118e3929190612fc8565b60408051601f198184030181529190528051602090910120600854909950808a169850611911906001612f91565b6005868154811061192457611924612f1b565b9060005260206000209060060201600301546119409190612f04565b61194a8c8a612f04565b1015611978576005858154811061196357611963612f1b565b90600052602060002090600602016001015499505b8261198281612f31565b9350505b8061199081612f31565b9150506117da565b505050959099149998505050505050505050565b600581815481106119bc57600080fd5b60009182526020909120600690910201805460018201546002830154600384015460048501546005909501546001600160a01b0390941695509193909260ff1686565b60008061157a611a82565b611a347f65d7a28e3265b37a6474929f336521b332c1681b933f6cb9f3376673440d862a33611ac6565b611a785760405162461bcd60e51b81526020600482015260156024820152746f6e6c79207061757365722063616e20706175736560581b60448201526064016105ec565b611a80612805565b565b6000600f5443611a929190612ea7565b905090565b60006002600f54611aa89190612ea7565b600f54611ab59043612e7d565b10611ac05750600190565b50600090565b6000918252602082815260408084206001600160a01b0393909316845291905290205460ff1690565b6000611af9611a97565b80611b075750611b07612331565b611b615760405162461bcd60e51b815260206004820152602560248201527f6e6f742064657465726d696e656420666f72207570636f6d696e6720726f756e60448201526419081e595d60da1b60648201526084016105ec565b600f54611b6f906002612f04565b611b799043612ebb565b6003546040516376f2098160e11b8152600481018690526001600160a01b039091169063ede4130290602401602060405180830381865afa158015611bc2573d6000803e3d6000fd5b505050506040513d601f19601f82011682018060405250810190611be69190612ece565b10611c2c5760405162461bcd60e51b81526020600482015260166024820152757374616b65207570646174656420726563656e746c7960501b60448201526064016105ec565b600b546003546040516348962b9360e01b8152600481018690526001600160a01b03909116906348962b9390602401602060405180830381865afa158015611c78573d6000803e3d6000fd5b505050506040513d601f19601f82011682018060405250810190611c9c9190612ece565b1015611cf55760405162461bcd60e51b815260206004820152602260248201527f7374616b6520616d6f756e7420646f6573206e6f74206d656574206d696e696d604482015261756d60f01b60648201526084016105ec565b611d0783611d016115e8565b84612460565b9392505050565b611d16612592565b611d1e6106ec565b611d605760405162461bcd60e51b81526020600482015260136024820152726e6f7420696e2072657665616c20706861736560681b60448201526064016105ec565b6000611d6a611a82565b9050600c548114611dbd5760405162461bcd60e51b815260206004820152601960248201527f726f756e64207265636569766564206e6f20636f6d6d6974730000000000000060448201526064016105ec565b600d548114611e5657611dce6115e8565b600955611ddd60056000612b75565b600d8190556009546040805183815260208101929092527ff0ae472da9c8da86bda4991a549c03a3cb328b5f360ea11a5b8814f32bb85176910160405180910390a1611e56600a54604080516020810192909252449082015260600160408051601f198184030181529190528051602090910120600a55565b6000611e64868686866122e6565b60045490915060005b81811015612297578760048281548110611e8957611e89612f1b565b906000526020600020906006020160000154148015611ecb575060048181548110611eb657611eb6612f1b565b90600052602060002090600602016003015483145b1561228557611f0160048281548110611ee657611ee6612f1b565b90600052602060002090600602016000015460095489612460565b611f575760405162461bcd60e51b815260206004820152602160248201527f616e63686f72206f7574206f662073656c66207265706f7274656420646570746044820152600d60fb1b60648201526084016105ec565b60048181548110611f6a57611f6a612f1b565b600091825260209091206004600690920201015460ff1615611fce5760405162461bcd60e51b815260206004820152601c60248201527f7061727469636970616e7420616c72656164792072657665616c65640000000060448201526064016105ec565b600160048281548110611fe357611fe3612f1b565b906000526020600020906006020160040160006101000a81548160ff0219169083151502179055506005805490506004828154811061202457612024612f1b565b90600052602060002090600602016005018190555060056040518060c001604052806004848154811061205957612059612f1b565b6000918252602091829020600160069092020101546001600160a01b031682526004805492909101918590811061209257612092612f1b565b9060005260206000209060060201600001548152602001600484815481106120bc576120bc612f1b565b90600052602060002090600602016002015481526020018960026120e091906130ce565b600485815481106120f3576120f3612f1b565b90600052602060002090600602016002015461210f9190612f04565b815260208082018a905260ff8b8116604093840152845460018082018755600096875295839020855160069092020180546001600160a01b0319166001600160a01b03909216919091178155918401519482019490945590820151600282015560608201516003820155608082015160048083019190915560a0909201516005909101805460ff1916919093161790915580547f13fc17fd71632266fe82092de6dd91a06b4fa68d8dc950492e5421cbed55a6a5918691849081106121d6576121d6612f1b565b906000526020600020906006020160000154600484815481106121fb576121fb612f1b565b9060005260206000209060060201600201548a600261221a91906130ce565b6004868154811061222d5761222d612f1b565b9060005260206000209060060201600201546122499190612f04565b6040805194855260208501939093529183015260608201526080810188905260ff891660a082015260c00160405180910390a1505050506122e0565b8061228f81612f31565b915050611e6d565b5060405162461bcd60e51b815260206004820152601a60248201527f6e6f206d61746368696e6720636f6d6d6974206f72206861736800000000000060448201526064016105ec565b50505050565b6040805160208082019690965260f89490941b6001600160f81b0319168482015260418401929092526061808401919091528151808403909101815260819092019052805191012090565b60006004600f546123429190612ea7565b600f5461234f9043612e7d565b1015611ac05750600190565b6000828152602081905260409020600101546123768161249c565b6106e7838361252d565b61238b600033611ac6565b6123d75760405162461bcd60e51b815260206004820152601760248201527f63616c6c6572206973206e6f74207468652061646d696e00000000000000000060448201526064016105ec565b600691909155600755565b61240c7f65d7a28e3265b37a6474929f336521b332c1681b933f6cb9f3376673440d862a33611ac6565b6124585760405162461bcd60e51b815260206004820152601760248201527f6f6e6c79207061757365722063616e20756e706175736500000000000000000060448201526064016105ec565b611a80612859565b60008160ff1660000361247557506001611d07565b61248460ff83166101006130dd565b61248f9060026130ff565b8484181090509392505050565b6124a68133612892565b50565b6124b38282611ac6565b6107b9576000828152602081815260408083206001600160a01b03851684529091529020805460ff191660011790556124e93390565b6001600160a01b0316816001600160a01b0316837f2f8788117e7eff1d82e926ec794901d17c78024a50270940304540a733656f0d60405160405180910390a45050565b6125378282611ac6565b156107b9576000828152602081815260408083206001600160a01b0385168085529252808320805460ff1916905551339285917ff6391f5c32d9c69d2a47ea670b442974b53935d1edc7fd64eb21e047a839171b9190a45050565b60015460ff1615611a805760405162461bcd60e51b815260206004820152601060248201526f14185d5cd8589b194e881c185d5cd95960821b60448201526064016105ec565b60606125e2611a97565b6125fe5760405162461bcd60e51b81526004016105ec9061310f565b6000612608611a82565b9050600d54811461262b5760405162461bcd60e51b81526004016105ec90612e30565b600a5460405160200161264a918152603160f81b602082015260210190565b60405160208183030381529060405291505090565b60008060008060008060008060006126756128eb565b60045490915060005b818110156127f4576004818154811061269957612699612f1b565b600091825260209091206004600690920201015460ff16156127e257600481815481106126c8576126c8612f1b565b9060005260206000209060060201600501549350600584815481106126ef576126ef612f1b565b9060005260206000209060060201600301548961270c9190612f91565b98508281604051602001612721929190612fc8565b60408051601f198184030181529190528051602090910120600854909850808916975061274f906001612f91565b6005858154811061276257612762612f1b565b90600052602060002090600602016003015461277e9190612f04565b6127888a89612f04565b10156127e257600584815481106127a1576127a1612f1b565b9060005260206000209060060201600401549550600584815481106127c8576127c8612f1b565b600091825260209091206005600690920201015460ff1694505b806127ec81612f31565b91505061267e565b509399929850919650505050505050565b61280d612592565b6001805460ff1916811790557f62e78cea01bee320cd4e420270b5ea74000d11b0c9f74754ebdbfc544b05a258335b6040516001600160a01b03909116815260200160405180910390a1565b61286161295d565b6001805460ff191690557f5db9ee0a495bf2e6ff9c91a7834c1ba4fdd244a5e8aa4e537bd38aeae4b073aa3361283c565b61289c8282611ac6565b6107b9576128a9816129a6565b6128b48360206129b8565b6040516020016128c5929190613153565b60408051601f198184030181529082905262461bcd60e51b82526105ec916004016131c8565b60606128f5611a97565b6129115760405162461bcd60e51b81526004016105ec9061310f565b600061291b611a82565b9050600d54811461293e5760405162461bcd60e51b81526004016105ec90612e30565b600a5460405160200161264a918152600360fc1b602082015260210190565b60015460ff16611a805760405162461bcd60e51b815260206004820152601460248201527314185d5cd8589b194e881b9bdd081c185d5cd95960621b60448201526064016105ec565b606061059f6001600160a01b03831660145b606060006129c7836002612f04565b6129d2906002612f91565b67ffffffffffffffff8111156129ea576129ea6131fb565b6040519080825280601f01601f191660200182016040528015612a14576020820181803683370190505b509050600360fc1b81600081518110612a2f57612a2f612f1b565b60200101906001600160f81b031916908160001a905350600f60fb1b81600181518110612a5e57612a5e612f1b565b60200101906001600160f81b031916908160001a9053506000612a82846002612f04565b612a8d906001612f91565b90505b6001811115612b05576f181899199a1a9b1b9c1cb0b131b232b360811b85600f1660108110612ac157612ac1612f1b565b1a60f81b828281518110612ad757612ad7612f1b565b60200101906001600160f81b031916908160001a90535060049490941c93612afe81613211565b9050612a90565b508315611d075760405162461bcd60e51b815260206004820181905260248201527f537472696e67733a20686578206c656e67746820696e73756666696369656e7460448201526064016105ec565b50805460008255600602906000526020600020908101906124a69190612b96565b50805460008255600602906000526020600020908101906124a69190612bdd565b5b808211156116b15760008082556001820180546001600160a01b0319169055600282018190556003820181905560048201805460ff191690556005820155600601612b97565b5b808211156116b15780546001600160a01b03191681556000600182018190556002820181905560038201819055600482015560058101805460ff19169055600601612bde565b600060208284031215612c3657600080fd5b81356001600160e01b031981168114611d0757600080fd5b600060208284031215612c6057600080fd5b5035919050565b602080825282518282018190526000919060409081850190868401855b82811015612cde57815180516001600160a01b0316855286810151878601528581015186860152606080820151908601526080808201519086015260a09081015160ff169085015260c09093019290850190600101612c84565b5091979650505050505050565b6001600160a01b03811681146124a657600080fd5b60008060408385031215612d1357600080fd5b823591506020830135612d2581612ceb565b809150509250929050565b600080600060608486031215612d4557600080fd5b505081359360208301359350604090920135919050565b803560ff81168114612d6d57600080fd5b919050565b60008060408385031215612d8557600080fd5b82359150612d9560208401612d5c565b90509250929050565b60008060008060808587031215612db457600080fd5b84359350612dc460208601612d5c565b93969395505050506040820135916060013590565b60008060408385031215612dec57600080fd5b50508035926020909101359150565b600080600060608486031215612e1057600080fd5b8335925060208401359150612e2760408501612d5c565b90509250925092565b60208082526019908201527f726f756e64207265636569766564206e6f2072657665616c7300000000000000604082015260600190565b634e487b7160e01b600052601260045260246000fd5b600082612e8c57612e8c612e67565b500690565b634e487b7160e01b600052601160045260246000fd5b600082612eb657612eb6612e67565b500490565b8181038181111561059f5761059f612e91565b600060208284031215612ee057600080fd5b5051919050565b600060208284031215612ef957600080fd5b8151611d0781612ceb565b808202811582820484141761059f5761059f612e91565b634e487b7160e01b600052603260045260246000fd5b600060018201612f4357612f43612e91565b5060010190565b60208082526027908201527f726f756e6420616c7265616479207265636569766564207375636365737366756040820152666c20636c61696d60c81b606082015260800190565b8082018082111561059f5761059f612e91565b60005b83811015612fbf578181015183820152602001612fa7565b50506000910152565b60008351612fda818460208801612fa4565b9190910191825250602001919050565b600181815b8085111561302557816000190482111561300b5761300b612e91565b8085161561301857918102915b93841c9390800290612fef565b509250929050565b60008261303c5750600161059f565b816130495750600061059f565b816001811461305f576002811461306957613085565b600191505061059f565b60ff84111561307a5761307a612e91565b50506001821b61059f565b5060208310610133831016604e8410600b84101617156130a8575081810a61059f565b6130b28383612fea565b80600019048211156130c6576130c6612e91565b029392505050565b6000611d0760ff84168361302d565b61ffff8281168282160390808211156130f8576130f8612e91565b5092915050565b6000611d0761ffff84168361302d565b60208082526024908201527f6e6f742064657465726d696e656420666f722063757272656e7420726f756e64604082015263081e595d60e21b606082015260800190565b7f416363657373436f6e74726f6c3a206163636f756e742000000000000000000081526000835161318b816017850160208801612fa4565b7001034b99036b4b9b9b4b733903937b6329607d1b60179184019182015283516131bc816028840160208801612fa4565b01602801949350505050565b60208152600082518060208401526131e7816040850160208701612fa4565b601f01601f19169190910160400192915050565b634e487b7160e01b600052604160045260246000fd5b60008161322057613220612e91565b50600019019056fea2646970667358221220f11047117a3321280c487298a672e38a478005d2123cc1db1d9603610c64446c64736f6c63430008120033",
  "devdoc": {
    "author": "The Swarm Authors",
    "details": "Implements a Schelling Co-ordination game to form consensus around the Reserve Commitment hash. This takes place in three phases: _commit_, _reveal_ and _claim_. A node, upon establishing that it _isParticipatingInUpcomingRound_, i.e. it's overlay falls within proximity order of its reported depth with the _currentRoundAnchor_, prepares a \"reserve commitment hash\" using the chunks it currently stores in its reserve and calculates the \"storage depth\" (see Bee for details). These values, if calculated honestly, and with the right chunks stored, should be the same for every node in a neighbourhood. This is the Schelling point. Each eligible node can then use these values, together with a random, single use, secret  _revealNonce_ and their _overlay_ as the pre-image values for the obsfucated _commit_, using the _wrapCommit_ method. Once the _commit_ round has elapsed, participating nodes must provide the values used to calculate their obsfucated _commit_ hash, which, once verified for correctness and proximity to the anchor are retained in the _currentReveals_. Nodes that have commited but do not reveal the correct values used to create the pre-image will have their stake \"frozen\" for a period of rounds proportional to their reported depth. During the _reveal_ round, randomness is updated after every successful reveal. Once the reveal round is concluded, the _currentRoundAnchor_ is updated and users can determine if they will be eligible their overlay will be eligible for the next commit phase using _isParticipatingInUpcomingRound_. When the _reveal_ phase has been concluded, the claim phase can begin. At this point, the truth teller and winner are already determined. By calling _isWinner_, an applicant node can run the relevant logic to determine if they have been selected as the beneficiary of this round. When calling _claim_, the current pot from the PostageStamp contract is withdrawn and transferred to that beneficiaries address. Nodes that have revealed values that differ from the truth, have their stakes \"frozen\" for a period of rounds proportional to their reported depth.",
    "events": {
      "ChunkCount(uint256)": {
        "details": "Emit from Postagestamp contract valid chunk count at the end of claim"
      },
      "Committed(uint256,bytes32)": {
        "details": "Logs that an overlay has committed"
      },
      "CountCommits(uint256)": {
        "details": "Emits the number of commits being processed by the claim phase."
      },
      "CountReveals(uint256)": {
        "details": "Emits the number of reveals being processed by the claim phase."
      },
      "CurrentRevealAnchor(uint256,bytes32)": {
        "details": "Bytes32 anhor of current reveal round"
      },
      "Paused(address)": {
        "details": "Emitted when the pause is triggered by `account`."
      },
      "Revealed(uint256,bytes32,uint256,uint256,bytes32,uint8)": {
        "details": "Logs that an overlay has revealed"
      },
      "RoleAdminChanged(bytes32,bytes32,bytes32)": {
        "details": "Emitted when `newAdminRole` is set as ``role``'s admin role, replacing `previousAdminRole` `DEFAULT_ADMIN_ROLE` is the starting admin for all roles, despite {RoleAdminChanged} not being emitted signaling this. _Available since v3.1._"
      },
      "RoleGranted(bytes32,address,address)": {
        "details": "Emitted when `account` is granted `role`. `sender` is the account that originated the contract call, an admin role bearer except when using {AccessControl-_setupRole}."
      },
      "RoleRevoked(bytes32,address,address)": {
        "details": "Emitted when `account` is revoked `role`. `sender` is the account that originated the contract call:   - if using `revokeRole`, it is the admin role bearer   - if using `renounceRole`, it is the role bearer (i.e. `account`)"
      },
      "TruthSelected(bytes32,uint8)": {
        "details": "Emitted when the truth oracle of a round is selected in the claim phase."
      },
      "Unpaused(address)": {
        "details": "Emitted when the pause is lifted by `account`."
      },
      "WinnerSelected((address,bytes32,uint256,uint256,bytes32,uint8))": {
        "details": "Emitted when the winner of a round is selected in the claim phase"
      }
    },
    "kind": "dev",
    "methods": {
      "commit(bytes32,bytes32,uint256)": {
        "details": "If a node's overlay is _inProximity_(_depth_) of the _currentRoundAnchor_, that node may compute an _obfuscatedHash_ by providing their _overlay_, reported storage _depth_, reserve commitment _hash_ and a randomly generated, and secret _revealNonce_ to the _wrapCommit_ method.",
        "params": {
          "_obfuscatedHash": "The calculated hash resultant of the required pre-image values.",
          "_overlay": "The overlay referenced in the pre-image. Must be staked by at least the minimum value, and be derived from the same key pair as the message sender."
        }
      },
      "constructor": {
        "params": {
          "oracleContract": "the address of the linked PriceOracle contract.",
          "postageContract": "the address of the linked PostageStamp contract.",
          "staking": "the address of the linked Staking contract."
        }
      },
      "currentRoundAnchor()": {
        "details": "A node must be within proximity order of less than or equal to the storage depth they intend to report."
      },
      "getRoleAdmin(bytes32)": {
        "details": "Returns the admin role that controls `role`. See {grantRole} and {revokeRole}. To change a role's admin, use {_setRoleAdmin}."
      },
      "grantRole(bytes32,address)": {
        "details": "Grants `role` to `account`. If `account` had not been already granted `role`, emits a {RoleGranted} event. Requirements: - the caller must have ``role``'s admin role. May emit a {RoleGranted} event."
      },
      "hasRole(bytes32,address)": {
        "details": "Returns `true` if `account` has been granted `role`."
      },
      "inProximity(bytes32,bytes32,uint8)": {
        "params": {
          "A": "An overlay address to compare.",
          "B": "An overlay address to compare.",
          "minimum": "Minimum proximity order."
        }
      },
      "isParticipatingInUpcomingRound(bytes32,uint8)": {
        "params": {
          "depth": "The storage depth the applicant intends to report.",
          "overlay": "The overlay address of the applicant."
        }
      },
      "isWinner(bytes32)": {
        "params": {
          "_overlay": "The overlay address of the applicant."
        }
      },
      "pause()": {
        "details": "Pause the contract. The contract is provably stopped by renouncing the pauser role and the admin role after pausing, can only be called by the `PAUSER`"
      },
      "paused()": {
        "details": "Returns true if the contract is paused, and false otherwise."
      },
      "renounceRole(bytes32,address)": {
        "details": "Revokes `role` from the calling account. Roles are often managed via {grantRole} and {revokeRole}: this function's purpose is to provide a mechanism for accounts to lose their privileges if they are compromised (such as when a trusted device is misplaced). If the calling account had been revoked `role`, emits a {RoleRevoked} event. Requirements: - the caller must be `account`. May emit a {RoleRevoked} event."
      },
      "reveal(bytes32,uint8,bytes32,bytes32)": {
        "params": {
          "_depth": "The reported depth.",
          "_hash": "The reserve commitment hash.",
          "_overlay": "The overlay address of the applicant.",
          "_revealNonce": "The nonce used to generate the commit that is being revealed."
        }
      },
      "revokeRole(bytes32,address)": {
        "details": "Revokes `role` from `account`. If `account` had been granted `role`, emits a {RoleRevoked} event. Requirements: - the caller must have ``role``'s admin role. May emit a {RoleRevoked} event."
      },
      "supportsInterface(bytes4)": {
        "details": "See {IERC165-supportsInterface}."
      },
      "unPause()": {
        "details": "Unpause the contract, can only be called by the pauser when paused"
      },
      "wrapCommit(bytes32,uint8,bytes32,bytes32)": {
        "details": "_revealNonce_ must be randomly generated, used once and kept secret until the reveal phase.",
        "params": {
          "_depth": "The reported depth.",
          "_hash": "The reserve commitment hash.",
          "_overlay": "The overlay address of the applicant.",
          "revealNonce": "A random, single use, secret nonce."
        }
      }
    },
    "title": "Redistribution contract",
    "version": 1
  },
  "userdoc": {
    "kind": "user",
    "methods": {
      "claim()": {
        "notice": "Conclude the current round by identifying the selected truth teller and beneficiary."
      },
      "commit(bytes32,bytes32,uint256)": {
        "notice": "Begin application for a round if eligible. Commit a hashed value for which the pre-image will be subsequently revealed."
      },
      "currentPhaseClaim()": {
        "notice": "Returns true if current block is during claim phase."
      },
      "currentPhaseCommit()": {
        "notice": "Returns true if current block is during commit phase."
      },
      "currentPhaseReveal()": {
        "notice": "Returns true if current block is during reveal phase."
      },
      "currentRound()": {
        "notice": "The number of the current round."
      },
      "currentRoundAnchor()": {
        "notice": "The anchor used to determine eligibility for the current round."
      },
      "currentRoundReveals()": {
        "notice": "Returns true if current block is during reveal phase."
      },
      "currentSeed()": {
        "notice": "Returns the current random seed which is used to determine later utilised random numbers. If rounds have elapsed without reveals, hash the seed with an incremented nonce to produce a new random seed and hence a new round anchor."
      },
      "inProximity(bytes32,bytes32,uint8)": {
        "notice": "Returns true if an overlay address _A_ is within proximity order _minimum_ of _B_."
      },
      "isParticipatingInUpcomingRound(bytes32,uint8)": {
        "notice": "Determine if a the owner of a given overlay can participate in the upcoming round."
      },
      "isWinner(bytes32)": {
        "notice": "Determine if a the owner of a given overlay will be the beneficiary of the claim phase."
      },
      "nextSeed()": {
        "notice": "Returns the seed which will become current once the next commit phase begins. Used to determine what the next round's anchor will be."
      },
      "reveal(bytes32,uint8,bytes32,bytes32)": {
        "notice": "Reveal the pre-image values used to generate commit provided during this round's commit phase."
      },
      "setFreezingParams(uint256,uint256)": {
        "notice": "Set freezing parameters"
      },
      "wrapCommit(bytes32,uint8,bytes32,bytes32)": {
        "notice": "Hash the pre-image values to the obsfucated hash."
      }
    },
    "version": 1
  },
  "storageLayout": {
    "storage": [
      {
        "astId": 2743,
        "contract": "src/Redistribution.sol:Redistribution",
        "label": "_roles",
        "offset": 0,
        "slot": "0",
        "type": "t_mapping(t_bytes32,t_struct(RoleData)2738_storage)"
      },
      {
        "astId": 3275,
        "contract": "src/Redistribution.sol:Redistribution",
        "label": "_paused",
        "offset": 0,
        "slot": "1",
        "type": "t_bool"
      },
      {
        "astId": 9592,
        "contract": "src/Redistribution.sol:Redistribution",
        "label": "PostageContract",
        "offset": 1,
        "slot": "1",
        "type": "t_contract(IPostageStamp)9523"
      },
      {
        "astId": 9595,
        "contract": "src/Redistribution.sol:Redistribution",
        "label": "OracleContract",
        "offset": 0,
        "slot": "2",
        "type": "t_contract(IPriceOracle)9529"
      },
      {
        "astId": 9598,
        "contract": "src/Redistribution.sol:Redistribution",
        "label": "Stakes",
        "offset": 0,
        "slot": "3",
        "type": "t_contract(IStakeRegistry)9558"
      },
      {
        "astId": 9602,
        "contract": "src/Redistribution.sol:Redistribution",
        "label": "currentCommits",
        "offset": 0,
        "slot": "4",
        "type": "t_array(t_struct(Commit)9576_storage)dyn_storage"
      },
      {
        "astId": 9606,
        "contract": "src/Redistribution.sol:Redistribution",
        "label": "currentReveals",
        "offset": 0,
        "slot": "5",
        "type": "t_array(t_struct(Reveal)9589_storage)dyn_storage"
      },
      {
        "astId": 9614,
        "contract": "src/Redistribution.sol:Redistribution",
        "label": "penaltyMultiplierDisagreement",
        "offset": 0,
        "slot": "6",
        "type": "t_uint256"
      },
      {
        "astId": 9617,
        "contract": "src/Redistribution.sol:Redistribution",
        "label": "penaltyMultiplierNonRevealed",
        "offset": 0,
        "slot": "7",
        "type": "t_uint256"
      },
      {
        "astId": 9623,
        "contract": "src/Redistribution.sol:Redistribution",
        "label": "MaxH",
        "offset": 0,
        "slot": "8",
        "type": "t_bytes32"
      },
      {
        "astId": 9625,
        "contract": "src/Redistribution.sol:Redistribution",
        "label": "currentRevealRoundAnchor",
        "offset": 0,
        "slot": "9",
        "type": "t_bytes32"
      },
      {
        "astId": 9627,
        "contract": "src/Redistribution.sol:Redistribution",
        "label": "seed",
        "offset": 0,
        "slot": "10",
        "type": "t_bytes32"
      },
      {
        "astId": 9630,
        "contract": "src/Redistribution.sol:Redistribution",
        "label": "minimumStake",
        "offset": 0,
        "slot": "11",
        "type": "t_uint256"
      },
      {
        "astId": 9632,
        "contract": "src/Redistribution.sol:Redistribution",
        "label": "currentCommitRound",
        "offset": 0,
        "slot": "12",
        "type": "t_uint256"
      },
      {
        "astId": 9634,
        "contract": "src/Redistribution.sol:Redistribution",
        "label": "currentRevealRound",
        "offset": 0,
        "slot": "13",
        "type": "t_uint256"
      },
      {
        "astId": 9636,
        "contract": "src/Redistribution.sol:Redistribution",
        "label": "currentClaimRound",
        "offset": 0,
        "slot": "14",
        "type": "t_uint256"
      },
      {
        "astId": 9639,
        "contract": "src/Redistribution.sol:Redistribution",
        "label": "roundLength",
        "offset": 0,
        "slot": "15",
        "type": "t_uint256"
      },
      {
        "astId": 9642,
        "contract": "src/Redistribution.sol:Redistribution",
        "label": "winner",
        "offset": 0,
        "slot": "16",
        "type": "t_struct(Reveal)9589_storage"
      }
    ],
    "types": {
      "t_address": {
        "encoding": "inplace",
        "label": "address",
        "numberOfBytes": "20"
      },
      "t_array(t_struct(Commit)9576_storage)dyn_storage": {
        "base": "t_struct(Commit)9576_storage",
        "encoding": "dynamic_array",
        "label": "struct Redistribution.Commit[]",
        "numberOfBytes": "32"
      },
      "t_array(t_struct(Reveal)9589_storage)dyn_storage": {
        "base": "t_struct(Reveal)9589_storage",
        "encoding": "dynamic_array",
        "label": "struct Redistribution.Reveal[]",
        "numberOfBytes": "32"
      },
      "t_bool": {
        "encoding": "inplace",
        "label": "bool",
        "numberOfBytes": "1"
      },
      "t_bytes32": {
        "encoding": "inplace",
        "label": "bytes32",
        "numberOfBytes": "32"
      },
      "t_contract(IPostageStamp)9523": {
        "encoding": "inplace",
        "label": "contract IPostageStamp",
        "numberOfBytes": "20"
      },
      "t_contract(IPriceOracle)9529": {
        "encoding": "inplace",
        "label": "contract IPriceOracle",
        "numberOfBytes": "20"
      },
      "t_contract(IStakeRegistry)9558": {
        "encoding": "inplace",
        "label": "contract IStakeRegistry",
        "numberOfBytes": "20"
      },
      "t_mapping(t_address,t_bool)": {
        "encoding": "mapping",
        "key": "t_address",
        "label": "mapping(address => bool)",
        "numberOfBytes": "32",
        "value": "t_bool"
      },
      "t_mapping(t_bytes32,t_struct(RoleData)2738_storage)": {
        "encoding": "mapping",
        "key": "t_bytes32",
        "label": "mapping(bytes32 => struct AccessControl.RoleData)",
        "numberOfBytes": "32",
        "value": "t_struct(RoleData)2738_storage"
      },
      "t_struct(Commit)9576_storage": {
        "encoding": "inplace",
        "label": "struct Redistribution.Commit",
        "members": [
          {
            "astId": 9565,
            "contract": "src/Redistribution.sol:Redistribution",
            "label": "overlay",
            "offset": 0,
            "slot": "0",
            "type": "t_bytes32"
          },
          {
            "astId": 9567,
            "contract": "src/Redistribution.sol:Redistribution",
            "label": "owner",
            "offset": 0,
            "slot": "1",
            "type": "t_address"
          },
          {
            "astId": 9569,
            "contract": "src/Redistribution.sol:Redistribution",
            "label": "stake",
            "offset": 0,
            "slot": "2",
            "type": "t_uint256"
          },
          {
            "astId": 9571,
            "contract": "src/Redistribution.sol:Redistribution",
            "label": "obfuscatedHash",
            "offset": 0,
            "slot": "3",
            "type": "t_bytes32"
          },
          {
            "astId": 9573,
            "contract": "src/Redistribution.sol:Redistribution",
            "label": "revealed",
            "offset": 0,
            "slot": "4",
            "type": "t_bool"
          },
          {
            "astId": 9575,
            "contract": "src/Redistribution.sol:Redistribution",
            "label": "revealIndex",
            "offset": 0,
            "slot": "5",
            "type": "t_uint256"
          }
        ],
        "numberOfBytes": "192"
      },
      "t_struct(Reveal)9589_storage": {
        "encoding": "inplace",
        "label": "struct Redistribution.Reveal",
        "members": [
          {
            "astId": 9578,
            "contract": "src/Redistribution.sol:Redistribution",
            "label": "owner",
            "offset": 0,
            "slot": "0",
            "type": "t_address"
          },
          {
            "astId": 9580,
            "contract": "src/Redistribution.sol:Redistribution",
            "label": "overlay",
            "offset": 0,
            "slot": "1",
            "type": "t_bytes32"
          },
          {
            "astId": 9582,
            "contract": "src/Redistribution.sol:Redistribution",
            "label": "stake",
            "offset": 0,
            "slot": "2",
            "type": "t_uint256"
          },
          {
            "astId": 9584,
            "contract": "src/Redistribution.sol:Redistribution",
            "label": "stakeDensity",
            "offset": 0,
            "slot": "3",
            "type": "t_uint256"
          },
          {
            "astId": 9586,
            "contract": "src/Redistribution.sol:Redistribution",
            "label": "hash",
            "offset": 0,
            "slot": "4",
            "type": "t_bytes32"
          },
          {
            "astId": 9588,
            "contract": "src/Redistribution.sol:Redistribution",
            "label": "depth",
            "offset": 0,
            "slot": "5",
            "type": "t_uint8"
          }
        ],
        "numberOfBytes": "192"
      },
      "t_struct(RoleData)2738_storage": {
        "encoding": "inplace",
        "label": "struct AccessControl.RoleData",
        "members": [
          {
            "astId": 2735,
            "contract": "src/Redistribution.sol:Redistribution",
            "label": "members",
            "offset": 0,
            "slot": "0",
            "type": "t_mapping(t_address,t_bool)"
          },
          {
            "astId": 2737,
            "contract": "src/Redistribution.sol:Redistribution",
            "label": "adminRole",
            "offset": 0,
            "slot": "1",
            "type": "t_bytes32"
          }
        ],
        "numberOfBytes": "64"
      },
      "t_uint256": {
        "encoding": "inplace",
        "label": "uint256",
        "numberOfBytes": "32"
      },
      "t_uint8": {
        "encoding": "inplace",
        "label": "uint8",
        "numberOfBytes": "1"
      }
    }
  }
}