{
  "address": "0x6F4f442d5a2a6CC10582bfC908001DA15313F5E3",
  "abi": [
    {
      "inputs": [
        {
          "internalType": "address",
          "name": "staking",
          "type": "address"
        },
        {
          "internalType": "address",
          "name": "postageContract",
          "type": "address"
        },
        {
          "internalType": "address",
          "name": "oracleContract",
          "type": "address"
        }
      ],
      "stateMutability": "nonpayable",
      "type": "constructor"
    },
    {
      "inputs": [],
      "name": "AlreadyClaimed",
      "type": "error"
    },
    {
      "inputs": [],
      "name": "AlreadyCommitted",
      "type": "error"
    },
    {
      "inputs": [],
      "name": "AlreadyRevealed",
      "type": "error"
    },
    {
      "inputs": [
        {
          "internalType": "bytes32",
          "name": "",
          "type": "bytes32"
        }
      ],
      "name": "BatchDoesNotExist",
      "type": "error"
    },
    {
      "inputs": [
        {
          "internalType": "bytes32",
          "name": "",
          "type": "bytes32"
        }
      ],
      "name": "BucketDiffers",
      "type": "error"
    },
    {
      "inputs": [],
      "name": "CommitRoundNotStarted",
      "type": "error"
    },
    {
      "inputs": [],
      "name": "CommitRoundOver",
      "type": "error"
    },
    {
      "inputs": [],
      "name": "FirstRevealDone",
      "type": "error"
    },
    {
      "inputs": [
        {
          "internalType": "uint8",
          "name": "",
          "type": "uint8"
        },
        {
          "internalType": "bytes32",
          "name": "",
          "type": "bytes32"
        }
      ],
      "name": "InclusionProofFailed",
      "type": "error"
    },
    {
      "inputs": [
        {
          "internalType": "bytes32",
          "name": "",
          "type": "bytes32"
        }
      ],
      "name": "IndexOutsideSet",
      "type": "error"
    },
    {
      "inputs": [],
      "name": "InvalidSignatureLength",
      "type": "error"
    },
    {
      "inputs": [],
      "name": "LastElementCheckFailed",
      "type": "error"
    },
    {
      "inputs": [],
      "name": "MustStake2Rounds",
      "type": "error"
    },
    {
      "inputs": [],
      "name": "NoCommitsReceived",
      "type": "error"
    },
    {
      "inputs": [],
      "name": "NoMatchingCommit",
      "type": "error"
    },
    {
      "inputs": [],
      "name": "NoReveals",
      "type": "error"
    },
    {
      "inputs": [],
      "name": "NotAdmin",
      "type": "error"
    },
    {
      "inputs": [],
      "name": "NotClaimPhase",
      "type": "error"
    },
    {
      "inputs": [],
      "name": "NotCommitPhase",
      "type": "error"
    },
    {
      "inputs": [],
      "name": "NotMatchingOwner",
      "type": "error"
    },
    {
      "inputs": [],
      "name": "NotRevealPhase",
      "type": "error"
    },
    {
      "inputs": [],
      "name": "NotStaked",
      "type": "error"
    },
    {
      "inputs": [],
      "name": "OnlyPauser",
      "type": "error"
    },
    {
      "inputs": [],
      "name": "OutOfDepth",
      "type": "error"
    },
    {
      "inputs": [
        {
          "internalType": "uint8",
          "name": "",
          "type": "uint8"
        }
      ],
      "name": "OutOfDepthClaim",
      "type": "error"
    },
    {
      "inputs": [
        {
          "internalType": "bytes32",
          "name": "",
          "type": "bytes32"
        }
      ],
      "name": "OutOfDepthReveal",
      "type": "error"
    },
    {
      "inputs": [],
      "name": "PhaseLastBlock",
      "type": "error"
    },
    {
      "inputs": [],
      "name": "RandomElementCheckFailed",
      "type": "error"
    },
    {
      "inputs": [
        {
          "internalType": "bytes32",
          "name": "trALast",
          "type": "bytes32"
        }
      ],
      "name": "ReserveCheckFailed",
      "type": "error"
    },
    {
      "inputs": [
        {
          "internalType": "bytes32",
          "name": "",
          "type": "bytes32"
        }
      ],
      "name": "SigRecoveryFailed",
      "type": "error"
    },
    {
      "inputs": [
        {
          "internalType": "bytes32",
          "name": "",
          "type": "bytes32"
        }
      ],
      "name": "SocCalcNotMatching",
      "type": "error"
    },
    {
      "inputs": [
        {
          "internalType": "bytes32",
          "name": "",
          "type": "bytes32"
        }
      ],
      "name": "SocVerificationFailed",
      "type": "error"
    },
    {
      "inputs": [],
      "name": "WrongPhase",
      "type": "error"
    },
    {
      "anonymous": false,
      "inputs": [
        {
          "indexed": false,
          "internalType": "uint256",
          "name": "validChunkCount",
          "type": "uint256"
        }
      ],
      "name": "ChunkCount",
      "type": "event"
    },
    {
      "anonymous": false,
      "inputs": [
        {
          "indexed": false,
          "internalType": "uint256",
          "name": "roundNumber",
          "type": "uint256"
        },
        {
          "indexed": false,
          "internalType": "bytes32",
          "name": "overlay",
          "type": "bytes32"
        }
      ],
      "name": "Committed",
      "type": "event"
    },
    {
      "anonymous": false,
      "inputs": [
        {
          "indexed": false,
          "internalType": "uint256",
          "name": "_count",
          "type": "uint256"
        }
      ],
      "name": "CountCommits",
      "type": "event"
    },
    {
      "anonymous": false,
      "inputs": [
        {
          "indexed": false,
          "internalType": "uint256",
          "name": "_count",
          "type": "uint256"
        }
      ],
      "name": "CountReveals",
      "type": "event"
    },
    {
      "anonymous": false,
      "inputs": [
        {
          "indexed": false,
          "internalType": "uint256",
          "name": "roundNumber",
          "type": "uint256"
        },
        {
          "indexed": false,
          "internalType": "bytes32",
          "name": "anchor",
          "type": "bytes32"
        }
      ],
      "name": "CurrentRevealAnchor",
      "type": "event"
    },
    {
      "anonymous": false,
      "inputs": [
        {
          "indexed": false,
          "internalType": "address",
          "name": "account",
          "type": "address"
        }
      ],
      "name": "Paused",
      "type": "event"
    },
    {
      "anonymous": false,
      "inputs": [
        {
          "indexed": false,
          "internalType": "uint256",
          "name": "roundNumber",
          "type": "uint256"
        },
        {
          "indexed": false,
          "internalType": "bytes32",
          "name": "overlay",
          "type": "bytes32"
        },
        {
          "indexed": false,
          "internalType": "uint256",
          "name": "stake",
          "type": "uint256"
        },
        {
          "indexed": false,
          "internalType": "uint256",
          "name": "stakeDensity",
          "type": "uint256"
        },
        {
          "indexed": false,
          "internalType": "bytes32",
          "name": "reserveCommitment",
          "type": "bytes32"
        },
        {
          "indexed": false,
          "internalType": "uint8",
          "name": "depth",
          "type": "uint8"
        }
      ],
      "name": "Revealed",
      "type": "event"
    },
    {
      "anonymous": false,
      "inputs": [
        {
          "indexed": true,
          "internalType": "bytes32",
          "name": "role",
          "type": "bytes32"
        },
        {
          "indexed": true,
          "internalType": "bytes32",
          "name": "previousAdminRole",
          "type": "bytes32"
        },
        {
          "indexed": true,
          "internalType": "bytes32",
          "name": "newAdminRole",
          "type": "bytes32"
        }
      ],
      "name": "RoleAdminChanged",
      "type": "event"
    },
    {
      "anonymous": false,
      "inputs": [
        {
          "indexed": true,
          "internalType": "bytes32",
          "name": "role",
          "type": "bytes32"
        },
        {
          "indexed": true,
          "internalType": "address",
          "name": "account",
          "type": "address"
        },
        {
          "indexed": true,
          "internalType": "address",
          "name": "sender",
          "type": "address"
        }
      ],
      "name": "RoleGranted",
      "type": "event"
    },
    {
      "anonymous": false,
      "inputs": [
        {
          "indexed": true,
          "internalType": "bytes32",
          "name": "role",
          "type": "bytes32"
        },
        {
          "indexed": true,
          "internalType": "address",
          "name": "account",
          "type": "address"
        },
        {
          "indexed": true,
          "internalType": "address",
          "name": "sender",
          "type": "address"
        }
      ],
      "name": "RoleRevoked",
      "type": "event"
    },
    {
      "anonymous": false,
      "inputs": [
        {
          "indexed": false,
          "internalType": "bytes32",
          "name": "hash",
          "type": "bytes32"
        },
        {
          "indexed": false,
          "internalType": "uint8",
          "name": "depth",
          "type": "uint8"
        }
      ],
      "name": "TruthSelected",
      "type": "event"
    },
    {
      "anonymous": false,
      "inputs": [
        {
          "indexed": false,
          "internalType": "address",
          "name": "account",
          "type": "address"
        }
      ],
      "name": "Unpaused",
      "type": "event"
    },
    {
      "anonymous": false,
      "inputs": [
        {
          "components": [
            {
              "internalType": "bytes32",
              "name": "overlay",
              "type": "bytes32"
            },
            {
              "internalType": "address",
              "name": "owner",
              "type": "address"
            },
            {
              "internalType": "uint8",
              "name": "depth",
              "type": "uint8"
            },
            {
              "internalType": "uint256",
              "name": "stake",
              "type": "uint256"
            },
            {
              "internalType": "uint256",
              "name": "stakeDensity",
              "type": "uint256"
            },
            {
              "internalType": "bytes32",
              "name": "hash",
              "type": "bytes32"
            }
          ],
          "indexed": false,
          "internalType": "struct Redistribution.Reveal",
          "name": "winner",
          "type": "tuple"
        }
      ],
      "name": "WinnerSelected",
      "type": "event"
    },
    {
      "anonymous": false,
      "inputs": [
        {
          "indexed": false,
          "internalType": "uint256",
          "name": "indexInRC",
          "type": "uint256"
        },
        {
          "indexed": false,
          "internalType": "bytes32",
          "name": "chunkAddress",
          "type": "bytes32"
        }
      ],
      "name": "transformedChunkAddressFromInclusionProof",
      "type": "event"
    },
    {
      "inputs": [],
      "name": "DEFAULT_ADMIN_ROLE",
      "outputs": [
        {
          "internalType": "bytes32",
          "name": "",
          "type": "bytes32"
        }
      ],
      "stateMutability": "view",
      "type": "function"
    },
    {
      "inputs": [],
      "name": "OracleContract",
      "outputs": [
        {
          "internalType": "contract IPriceOracle",
          "name": "",
          "type": "address"
        }
      ],
      "stateMutability": "view",
      "type": "function"
    },
    {
      "inputs": [],
      "name": "PostageContract",
      "outputs": [
        {
          "internalType": "contract IPostageStamp",
          "name": "",
          "type": "address"
        }
      ],
      "stateMutability": "view",
      "type": "function"
    },
    {
      "inputs": [],
      "name": "Stakes",
      "outputs": [
        {
          "internalType": "contract IStakeRegistry",
          "name": "",
          "type": "address"
        }
      ],
      "stateMutability": "view",
      "type": "function"
    },
    {
      "inputs": [
        {
          "components": [
            {
              "internalType": "bytes32[]",
              "name": "proofSegments",
              "type": "bytes32[]"
            },
            {
              "internalType": "bytes32",
              "name": "proveSegment",
              "type": "bytes32"
            },
            {
              "internalType": "bytes32[]",
              "name": "proofSegments2",
              "type": "bytes32[]"
            },
            {
              "internalType": "bytes32",
              "name": "proveSegment2",
              "type": "bytes32"
            },
            {
              "internalType": "uint64",
              "name": "chunkSpan",
              "type": "uint64"
            },
            {
              "internalType": "bytes32[]",
              "name": "proofSegments3",
              "type": "bytes32[]"
            },
            {
              "components": [
                {
                  "internalType": "bytes",
                  "name": "signature",
                  "type": "bytes"
                },
                {
                  "internalType": "bytes32",
                  "name": "postageId",
                  "type": "bytes32"
                },
                {
                  "internalType": "uint64",
                  "name": "index",
                  "type": "uint64"
                },
                {
                  "internalType": "uint64",
                  "name": "timeStamp",
                  "type": "uint64"
                }
              ],
              "internalType": "struct Redistribution.PostageProof",
              "name": "postageProof",
              "type": "tuple"
            },
            {
              "components": [
                {
                  "internalType": "address",
                  "name": "signer",
                  "type": "address"
                },
                {
                  "internalType": "bytes",
                  "name": "signature",
                  "type": "bytes"
                },
                {
                  "internalType": "bytes32",
                  "name": "identifier",
                  "type": "bytes32"
                },
                {
                  "internalType": "bytes32",
                  "name": "chunkAddr",
                  "type": "bytes32"
                }
              ],
              "internalType": "struct Redistribution.SOCProof[]",
              "name": "socProof",
              "type": "tuple[]"
            }
          ],
          "internalType": "struct Redistribution.ChunkInclusionProof",
          "name": "entryProof1",
          "type": "tuple"
        },
        {
          "components": [
            {
              "internalType": "bytes32[]",
              "name": "proofSegments",
              "type": "bytes32[]"
            },
            {
              "internalType": "bytes32",
              "name": "proveSegment",
              "type": "bytes32"
            },
            {
              "internalType": "bytes32[]",
              "name": "proofSegments2",
              "type": "bytes32[]"
            },
            {
              "internalType": "bytes32",
              "name": "proveSegment2",
              "type": "bytes32"
            },
            {
              "internalType": "uint64",
              "name": "chunkSpan",
              "type": "uint64"
            },
            {
              "internalType": "bytes32[]",
              "name": "proofSegments3",
              "type": "bytes32[]"
            },
            {
              "components": [
                {
                  "internalType": "bytes",
                  "name": "signature",
                  "type": "bytes"
                },
                {
                  "internalType": "bytes32",
                  "name": "postageId",
                  "type": "bytes32"
                },
                {
                  "internalType": "uint64",
                  "name": "index",
                  "type": "uint64"
                },
                {
                  "internalType": "uint64",
                  "name": "timeStamp",
                  "type": "uint64"
                }
              ],
              "internalType": "struct Redistribution.PostageProof",
              "name": "postageProof",
              "type": "tuple"
            },
            {
              "components": [
                {
                  "internalType": "address",
                  "name": "signer",
                  "type": "address"
                },
                {
                  "internalType": "bytes",
                  "name": "signature",
                  "type": "bytes"
                },
                {
                  "internalType": "bytes32",
                  "name": "identifier",
                  "type": "bytes32"
                },
                {
                  "internalType": "bytes32",
                  "name": "chunkAddr",
                  "type": "bytes32"
                }
              ],
              "internalType": "struct Redistribution.SOCProof[]",
              "name": "socProof",
              "type": "tuple[]"
            }
          ],
          "internalType": "struct Redistribution.ChunkInclusionProof",
          "name": "entryProof2",
          "type": "tuple"
        },
        {
          "components": [
            {
              "internalType": "bytes32[]",
              "name": "proofSegments",
              "type": "bytes32[]"
            },
            {
              "internalType": "bytes32",
              "name": "proveSegment",
              "type": "bytes32"
            },
            {
              "internalType": "bytes32[]",
              "name": "proofSegments2",
              "type": "bytes32[]"
            },
            {
              "internalType": "bytes32",
              "name": "proveSegment2",
              "type": "bytes32"
            },
            {
              "internalType": "uint64",
              "name": "chunkSpan",
              "type": "uint64"
            },
            {
              "internalType": "bytes32[]",
              "name": "proofSegments3",
              "type": "bytes32[]"
            },
            {
              "components": [
                {
                  "internalType": "bytes",
                  "name": "signature",
                  "type": "bytes"
                },
                {
                  "internalType": "bytes32",
                  "name": "postageId",
                  "type": "bytes32"
                },
                {
                  "internalType": "uint64",
                  "name": "index",
                  "type": "uint64"
                },
                {
                  "internalType": "uint64",
                  "name": "timeStamp",
                  "type": "uint64"
                }
              ],
              "internalType": "struct Redistribution.PostageProof",
              "name": "postageProof",
              "type": "tuple"
            },
            {
              "components": [
                {
                  "internalType": "address",
                  "name": "signer",
                  "type": "address"
                },
                {
                  "internalType": "bytes",
                  "name": "signature",
                  "type": "bytes"
                },
                {
                  "internalType": "bytes32",
                  "name": "identifier",
                  "type": "bytes32"
                },
                {
                  "internalType": "bytes32",
                  "name": "chunkAddr",
                  "type": "bytes32"
                }
              ],
              "internalType": "struct Redistribution.SOCProof[]",
              "name": "socProof",
              "type": "tuple[]"
            }
          ],
          "internalType": "struct Redistribution.ChunkInclusionProof",
          "name": "entryProofLast",
          "type": "tuple"
        }
      ],
      "name": "claim",
      "outputs": [],
      "stateMutability": "nonpayable",
      "type": "function"
    },
    {
      "inputs": [
        {
          "internalType": "bytes32",
          "name": "_obfuscatedHash",
          "type": "bytes32"
        },
        {
          "internalType": "uint64",
          "name": "_roundNumber",
          "type": "uint64"
        }
      ],
      "name": "commit",
      "outputs": [],
      "stateMutability": "nonpayable",
      "type": "function"
    },
    {
      "inputs": [],
      "name": "currentClaimRound",
      "outputs": [
        {
          "internalType": "uint64",
          "name": "",
          "type": "uint64"
        }
      ],
      "stateMutability": "view",
      "type": "function"
    },
    {
      "inputs": [],
      "name": "currentCommitRound",
      "outputs": [
        {
          "internalType": "uint64",
          "name": "",
          "type": "uint64"
        }
      ],
      "stateMutability": "view",
      "type": "function"
    },
    {
      "inputs": [
        {
          "internalType": "uint256",
          "name": "",
          "type": "uint256"
        }
      ],
      "name": "currentCommits",
      "outputs": [
        {
          "internalType": "bytes32",
          "name": "overlay",
          "type": "bytes32"
        },
        {
          "internalType": "address",
          "name": "owner",
          "type": "address"
        },
        {
          "internalType": "bool",
          "name": "revealed",
          "type": "bool"
        },
        {
          "internalType": "uint256",
          "name": "stake",
          "type": "uint256"
        },
        {
          "internalType": "bytes32",
          "name": "obfuscatedHash",
          "type": "bytes32"
        },
        {
          "internalType": "uint256",
          "name": "revealIndex",
          "type": "uint256"
        }
      ],
      "stateMutability": "view",
      "type": "function"
    },
    {
      "inputs": [],
      "name": "currentMinimumDepth",
      "outputs": [
        {
          "internalType": "uint8",
          "name": "",
          "type": "uint8"
        }
      ],
      "stateMutability": "view",
      "type": "function"
    },
    {
      "inputs": [],
      "name": "currentPhaseClaim",
      "outputs": [
        {
          "internalType": "bool",
          "name": "",
          "type": "bool"
        }
      ],
      "stateMutability": "view",
      "type": "function"
    },
    {
      "inputs": [],
      "name": "currentPhaseCommit",
      "outputs": [
        {
          "internalType": "bool",
          "name": "",
          "type": "bool"
        }
      ],
      "stateMutability": "view",
      "type": "function"
    },
    {
      "inputs": [],
      "name": "currentPhaseReveal",
      "outputs": [
        {
          "internalType": "bool",
          "name": "",
          "type": "bool"
        }
      ],
      "stateMutability": "view",
      "type": "function"
    },
    {
      "inputs": [],
      "name": "currentRevealRound",
      "outputs": [
        {
          "internalType": "uint64",
          "name": "",
          "type": "uint64"
        }
      ],
      "stateMutability": "view",
      "type": "function"
    },
    {
      "inputs": [
        {
          "internalType": "uint256",
          "name": "",
          "type": "uint256"
        }
      ],
      "name": "currentReveals",
      "outputs": [
        {
          "internalType": "bytes32",
          "name": "overlay",
          "type": "bytes32"
        },
        {
          "internalType": "address",
          "name": "owner",
          "type": "address"
        },
        {
          "internalType": "uint8",
          "name": "depth",
          "type": "uint8"
        },
        {
          "internalType": "uint256",
          "name": "stake",
          "type": "uint256"
        },
        {
          "internalType": "uint256",
          "name": "stakeDensity",
          "type": "uint256"
        },
        {
          "internalType": "bytes32",
          "name": "hash",
          "type": "bytes32"
        }
      ],
      "stateMutability": "view",
      "type": "function"
    },
    {
      "inputs": [],
      "name": "currentRound",
      "outputs": [
        {
          "internalType": "uint64",
          "name": "",
          "type": "uint64"
        }
      ],
      "stateMutability": "view",
      "type": "function"
    },
    {
      "inputs": [],
      "name": "currentRoundAnchor",
      "outputs": [
        {
          "internalType": "bytes32",
          "name": "returnVal",
          "type": "bytes32"
        }
      ],
      "stateMutability": "view",
      "type": "function"
    },
    {
      "inputs": [],
      "name": "currentRoundReveals",
      "outputs": [
        {
          "components": [
            {
              "internalType": "bytes32",
              "name": "overlay",
              "type": "bytes32"
            },
            {
              "internalType": "address",
              "name": "owner",
              "type": "address"
            },
            {
              "internalType": "uint8",
              "name": "depth",
              "type": "uint8"
            },
            {
              "internalType": "uint256",
              "name": "stake",
              "type": "uint256"
            },
            {
              "internalType": "uint256",
              "name": "stakeDensity",
              "type": "uint256"
            },
            {
              "internalType": "bytes32",
              "name": "hash",
              "type": "bytes32"
            }
          ],
          "internalType": "struct Redistribution.Reveal[]",
          "name": "",
          "type": "tuple[]"
        }
      ],
      "stateMutability": "view",
      "type": "function"
    },
    {
      "inputs": [],
      "name": "currentSeed",
      "outputs": [
        {
          "internalType": "bytes32",
          "name": "",
          "type": "bytes32"
        }
      ],
      "stateMutability": "view",
      "type": "function"
    },
    {
      "inputs": [
        {
          "internalType": "bytes32",
          "name": "role",
          "type": "bytes32"
        }
      ],
      "name": "getRoleAdmin",
      "outputs": [
        {
          "internalType": "bytes32",
          "name": "",
          "type": "bytes32"
        }
      ],
      "stateMutability": "view",
      "type": "function"
    },
    {
      "inputs": [
        {
          "internalType": "bytes32",
          "name": "role",
          "type": "bytes32"
        },
        {
          "internalType": "address",
          "name": "account",
          "type": "address"
        }
      ],
      "name": "grantRole",
      "outputs": [],
      "stateMutability": "nonpayable",
      "type": "function"
    },
    {
      "inputs": [
        {
          "internalType": "bytes32",
          "name": "role",
          "type": "bytes32"
        },
        {
          "internalType": "address",
          "name": "account",
          "type": "address"
        }
      ],
      "name": "hasRole",
      "outputs": [
        {
          "internalType": "bool",
          "name": "",
          "type": "bool"
        }
      ],
      "stateMutability": "view",
      "type": "function"
    },
    {
      "inputs": [
        {
          "internalType": "bytes32",
          "name": "A",
          "type": "bytes32"
        },
        {
          "internalType": "bytes32",
          "name": "B",
          "type": "bytes32"
        },
        {
          "internalType": "uint8",
          "name": "minimum",
          "type": "uint8"
        }
      ],
      "name": "inProximity",
      "outputs": [
        {
          "internalType": "bool",
          "name": "",
          "type": "bool"
        }
      ],
      "stateMutability": "pure",
      "type": "function"
    },
    {
      "inputs": [
        {
          "internalType": "address",
          "name": "_owner",
          "type": "address"
        },
        {
          "internalType": "uint8",
          "name": "_depth",
          "type": "uint8"
        }
      ],
      "name": "isParticipatingInUpcomingRound",
      "outputs": [
        {
          "internalType": "bool",
          "name": "",
          "type": "bool"
        }
      ],
      "stateMutability": "view",
      "type": "function"
    },
    {
      "inputs": [
        {
          "internalType": "bytes32",
          "name": "_overlay",
          "type": "bytes32"
        }
      ],
      "name": "isWinner",
      "outputs": [
        {
          "internalType": "bool",
          "name": "",
          "type": "bool"
        }
      ],
      "stateMutability": "view",
      "type": "function"
    },
    {
      "inputs": [],
      "name": "nextSeed",
      "outputs": [
        {
          "internalType": "bytes32",
          "name": "",
          "type": "bytes32"
        }
      ],
      "stateMutability": "view",
      "type": "function"
    },
    {
      "inputs": [],
      "name": "pause",
      "outputs": [],
      "stateMutability": "nonpayable",
      "type": "function"
    },
    {
      "inputs": [],
      "name": "paused",
      "outputs": [
        {
          "internalType": "bool",
          "name": "",
          "type": "bool"
        }
      ],
      "stateMutability": "view",
      "type": "function"
    },
    {
      "inputs": [
        {
          "internalType": "bytes32",
          "name": "role",
          "type": "bytes32"
        },
        {
          "internalType": "address",
          "name": "account",
          "type": "address"
        }
      ],
      "name": "renounceRole",
      "outputs": [],
      "stateMutability": "nonpayable",
      "type": "function"
    },
    {
      "inputs": [
        {
          "internalType": "uint8",
          "name": "_depth",
          "type": "uint8"
        },
        {
          "internalType": "bytes32",
          "name": "_hash",
          "type": "bytes32"
        },
        {
          "internalType": "bytes32",
          "name": "_revealNonce",
          "type": "bytes32"
        }
      ],
      "name": "reveal",
      "outputs": [],
      "stateMutability": "nonpayable",
      "type": "function"
    },
    {
      "inputs": [
        {
          "internalType": "bytes32",
          "name": "role",
          "type": "bytes32"
        },
        {
          "internalType": "address",
          "name": "account",
          "type": "address"
        }
      ],
      "name": "revokeRole",
      "outputs": [],
      "stateMutability": "nonpayable",
      "type": "function"
    },
    {
      "inputs": [
        {
          "internalType": "uint8",
          "name": "_penaltyMultiplierDisagreement",
          "type": "uint8"
        },
        {
          "internalType": "uint8",
          "name": "_penaltyMultiplierNonRevealed",
          "type": "uint8"
        },
        {
          "internalType": "uint8",
          "name": "_penaltyRandomFactor",
          "type": "uint8"
        }
      ],
      "name": "setFreezingParams",
      "outputs": [],
      "stateMutability": "nonpayable",
      "type": "function"
    },
    {
      "inputs": [
        {
          "internalType": "uint256",
          "name": "_sampleMaxValue",
          "type": "uint256"
        }
      ],
      "name": "setSampleMaxValue",
      "outputs": [],
      "stateMutability": "nonpayable",
      "type": "function"
    },
    {
      "inputs": [
        {
          "internalType": "bytes4",
          "name": "interfaceId",
          "type": "bytes4"
        }
      ],
      "name": "supportsInterface",
      "outputs": [
        {
          "internalType": "bool",
          "name": "",
          "type": "bool"
        }
      ],
      "stateMutability": "view",
      "type": "function"
    },
    {
      "inputs": [],
      "name": "unPause",
      "outputs": [],
      "stateMutability": "nonpayable",
      "type": "function"
    },
    {
      "inputs": [],
      "name": "winner",
      "outputs": [
        {
          "internalType": "bytes32",
          "name": "overlay",
          "type": "bytes32"
        },
        {
          "internalType": "address",
          "name": "owner",
          "type": "address"
        },
        {
          "internalType": "uint8",
          "name": "depth",
          "type": "uint8"
        },
        {
          "internalType": "uint256",
          "name": "stake",
          "type": "uint256"
        },
        {
          "internalType": "uint256",
          "name": "stakeDensity",
          "type": "uint256"
        },
        {
          "internalType": "bytes32",
          "name": "hash",
          "type": "bytes32"
        }
      ],
      "stateMutability": "view",
      "type": "function"
    },
    {
      "inputs": [
        {
          "internalType": "bytes32",
          "name": "_overlay",
          "type": "bytes32"
        },
        {
          "internalType": "uint8",
          "name": "_depth",
          "type": "uint8"
        },
        {
          "internalType": "bytes32",
          "name": "_hash",
          "type": "bytes32"
        },
        {
          "internalType": "bytes32",
          "name": "revealNonce",
          "type": "bytes32"
        }
      ],
      "name": "wrapCommit",
      "outputs": [
        {
          "internalType": "bytes32",
          "name": "",
          "type": "bytes32"
        }
      ],
      "stateMutability": "pure",
      "type": "function"
    }
  ],
  "transactionHash": "0x6e90698aef41bb1138f6f526b940998b35185aea609e70620a2f72efde6dde21",
  "args": [
    "0x5CF39e699b601c2EBc3e25b19Fd4102d8366b56F",
    "0xcdfdC3752caaA826fE62531E0000C40546eC56A6",
    "0xf19F9d88e963A61c735C1716F8A689Dc2887F463"
  ],
  "numDeployments": 7,
  "solcInputHash": "c39ceb5ddfc36744a77362b8ce122638",
  "bytecode": "0x60806040526008805462ffffff60c01b19166264020160c01b1790557dba1914b54e0348a1028d1a103a95ed55c4004b9d332400000000000000006009553480156200004a57600080fd5b5060405162004af938038062004af98339810160408190526200006d916200019d565b60018054600380546001600160a01b03199081166001600160a01b03888116919091179092556001600160a81b0319909216610100868316021790925560028054909116918316919091179055620000c7600033620000d0565b505050620001e7565b620000dc8282620000e0565b5050565b6000828152602081815260408083206001600160a01b038516845290915290205460ff16620000dc576000828152602081815260408083206001600160a01b03851684529091529020805460ff191660011790556200013c3390565b6001600160a01b0316816001600160a01b0316837f2f8788117e7eff1d82e926ec794901d17c78024a50270940304540a733656f0d60405160405180910390a45050565b80516001600160a01b03811681146200019857600080fd5b919050565b600080600060608486031215620001b357600080fd5b620001be8462000180565b9250620001ce6020850162000180565b9150620001de6040850162000180565b90509250925092565b61490280620001f76000396000f3fe608060405234801561001057600080fd5b50600436106102775760003560e01c806377c75d1011610160578063b6cd5822116100d8578063dfbf53ae1161008c578063f69ee1d111610071578063f69ee1d1146105d5578063f7b188a5146105e8578063fb00f2f3146105f057600080fd5b8063dfbf53ae14610592578063f4e6fcca146105c257600080fd5b8063ce987745116100bd578063ce98774514610564578063d1e8b63d14610577578063d547741f1461057f57600080fd5b8063b6cd582214610537578063c46b40291461054a57600080fd5b80638456cb591161012f5780638d8b6428116101145780638d8b6428146104f057806391d14854146104f8578063a217fddf1461052f57600080fd5b80638456cb59146104e05780638a19c8bc146104e857600080fd5b806377c75d101461045a5780637fe019c61461046d57806382b39b1b1461048857806383220626146104d857600080fd5b80635c975abb116101f357806364c34a85116101c257806369da9114116101a757806369da9114146103de5780636f94aaf2146103f157806372286cba1461040c57600080fd5b806364c34a85146103a957806369bfac01146103b157600080fd5b80635c975abb146103705780635d4844ea1461037b57806362fd29ae1461038e57806363f5cf7c1461039657600080fd5b80632a4e62491161024a5780632f3906da1161022f5780632f3906da1461034257806336568abe1461034a5780635838d6731461035d57600080fd5b80632a4e6249146103185780632f2ff15d1461032d57600080fd5b806301ffc9a71461027c5780631736d472146102a457806318350096146102b7578063248a9ca3146102e7575b600080fd5b61028f61028a366004614053565b610603565b60405190151581526020015b60405180910390f35b61028f6102b23660046140a1565b61066c565b6001546102cf9061010090046001600160a01b031681565b6040516001600160a01b03909116815260200161029b565b61030a6102f53660046140da565b60009081526020819052604090206001015490565b60405190815260200161029b565b6103206107d4565b60405161029b91906140f3565b61034061033b366004614182565b6108e1565b005b61028f61090b565b610340610358366004614182565b610955565b61034061036b3660046141c4565b6109e6565b60015460ff1661028f565b6003546102cf906001600160a01b031681565b61030a610f48565b6103406103a4366004614209565b611014565b61030a6113af565b6008546103c59067ffffffffffffffff1681565b60405167ffffffffffffffff909116815260200161029b565b6002546102cf906001600160a01b031681565b6008546103c590600160801b900467ffffffffffffffff1681565b61041f61041a3660046140da565b61148f565b604080519687526001600160a01b039095166020870152921515938501939093526060840152608083019190915260a082015260c00161029b565b61028f6104683660046140da565b6114e6565b6008546103c590600160401b900467ffffffffffffffff1681565b61049b6104963660046140da565b611796565b604080519687526001600160a01b03909516602087015260ff909316938501939093526060840152608083019190915260a082015260c00161029b565b61030a6117a6565b6103406117b1565b6103c561180a565b61028f611817565b61028f610506366004614182565b6000918252602082815260408084206001600160a01b0393909316845291905290205460ff1690565b61030a600081565b610340610545366004614291565b611841565b610552611d7e565b60405160ff909116815260200161029b565b61030a6105723660046142c6565b611e03565b61028f611e72565b61034061058d366004614182565b611e97565b600a54600b54600c54600d54600e5461049b94936001600160a01b03811693600160a01b90910460ff1692909186565b6103406105d0366004614303565b611ebc565b6103406105e33660046140da565b611fa3565b610340611ff7565b61028f6105fe36600461434e565b61204e565b60006001600160e01b031982167f7965db0b00000000000000000000000000000000000000000000000000000000148061066657507f01ffc9a7000000000000000000000000000000000000000000000000000000006001600160e01b03198316145b92915050565b600061067661090b565b156106ad576040517fe2586bcc00000000000000000000000000000000000000000000000000000000815260040160405180910390fd5b6106b960986002614392565b6106c390436143a9565b60035460405163d1052d1f60e01b81526001600160a01b0386811660048301529091169063d1052d1f90602401602060405180830381865afa15801561070d573d6000803e3d6000fd5b505050506040513d601f19601f8201168201806040525081019061073191906143bc565b1061074f57604051630a0744c560e01b815260040160405180910390fd5b6003546040516397adedb560e01b81526001600160a01b0385811660048301526107cd9216906397adedb590602401602060405180830381865afa15801561079b573d6000803e3d6000fd5b505050506040513d601f19601f820116820180604052508101906107bf91906143bc565b6107c76113af565b8461204e565b9392505050565b60606107de611817565b6107fb57604051633788c6c160e11b815260040160405180910390fd5b600061080561180a565b60085490915067ffffffffffffffff808316600160401b909204161461083e57604051636fbabc7760e01b815260040160405180910390fd5b6005805480602002602001604051908101604052809291908181526020016000905b828210156108d75760008481526020908190206040805160c08101825260058602909201805483526001808201546001600160a01b03811685870152600160a01b900460ff169284019290925260028101546060840152600381015460808401526004015460a08301529083529092019101610860565b5050505091505090565b6000828152602081905260409020600101546108fc8161208a565b6109068383612097565b505050565b6000806109196098436143eb565b9050610927600460986143ff565b8110158015610940575061093d600260986143ff565b81105b1561094d57600191505090565b600091505090565b6001600160a01b03811633146109d85760405162461bcd60e51b815260206004820152602f60248201527f416363657373436f6e74726f6c3a2063616e206f6e6c792072656e6f756e636560448201527f20726f6c657320666f722073656c66000000000000000000000000000000000060648201526084015b60405180910390fd5b6109e28282612135565b5050565b6109ee6121b4565b60006109f861180a565b6003546040516397adedb560e01b81523360048201529192506000916001600160a01b03909116906397adedb590602401602060405180830381865afa158015610a46573d6000803e3d6000fd5b505050506040513d601f19601f82011682018060405250810190610a6a91906143bc565b6003546040517f830a053e0000000000000000000000000000000000000000000000000000000081523360048201529192506000916001600160a01b039091169063830a053e90602401602060405180830381865afa158015610ad1573d6000803e3d6000fd5b505050506040513d601f19601f82011682018060405250810190610af591906143bc565b60035460405163d1052d1f60e01b81523360048201529192506000916001600160a01b039091169063d1052d1f90602401602060405180830381865afa158015610b43573d6000803e3d6000fd5b505050506040513d601f19601f82011682018060405250810190610b6791906143bc565b9050610b71611e72565b610ba7576040517fdc816a8700000000000000000000000000000000000000000000000000000000815260040160405180910390fd5b6001610bb5600460986143ff565b610bbf91906143a9565b610bca6098436143eb565b03610c01576040517f5baef6b600000000000000000000000000000000000000000000000000000000815260040160405180910390fd5b8467ffffffffffffffff168467ffffffffffffffff161115610c4f576040517f50ff7c0000000000000000000000000000000000000000000000000000000000815260040160405180910390fd5b8467ffffffffffffffff168467ffffffffffffffff161015610c9d576040517f7a0c0fd600000000000000000000000000000000000000000000000000000000815260040160405180910390fd5b80600003610cd7576040517f039f2e1800000000000000000000000000000000000000000000000000000000815260040160405180910390fd5b610ce360986002614392565b610ced90436143a9565b8110610d0c57604051630a0744c560e01b815260040160405180910390fd5b60085467ffffffffffffffff858116911614610d4c57610d2e60046000613fea565b6008805467ffffffffffffffff191667ffffffffffffffff86161790555b60045460005b81811015610dbf578460048281548110610d6e57610d6e614413565b90600052602060002090600502016000015403610db7576040517fbfec555800000000000000000000000000000000000000000000000000000000815260040160405180910390fd5b600101610d52565b506040805160c081018252858152336020808301918252600083850181815260608501898152608086018e815260a0870184815260048054600181018255955296517f8a35acfbc15ff81a39ae7d344fd709f28e8600b4aa8c65c6b64bfe7fe36bd19b60059095029485015594517f8a35acfbc15ff81a39ae7d344fd709f28e8600b4aa8c65c6b64bfe7fe36bd19c8401805493516001600160a01b0390921674ffffffffffffffffffffffffffffffffffffffffff1990941693909317600160a01b9115159190910217909155517f8a35acfbc15ff81a39ae7d344fd709f28e8600b4aa8c65c6b64bfe7fe36bd19d82015591517f8a35acfbc15ff81a39ae7d344fd709f28e8600b4aa8c65c6b64bfe7fe36bd19e83015591517f8a35acfbc15ff81a39ae7d344fd709f28e8600b4aa8c65c6b64bfe7fe36bd19f90910155815167ffffffffffffffff891681529081018690527f68e0867601a98978930107aee7f425665e61edd70ca594c68ca5da9e81f84c29910160405180910390a150505050505050565b600080610f5361180a565b610f5e906001614429565b60075460085491925090610f8490600160401b900467ffffffffffffffff166001614429565b67ffffffffffffffff168267ffffffffffffffff16111561066657600854600090600190610fc390600160401b900467ffffffffffffffff1685614451565b610fcd9190614451565b67ffffffffffffffff1690508181604051602001610ff5929190918252602082015260400190565b6040516020818303038152906040528051906020012091505092915050565b61101c6121b4565b611024612207565b6040805160c081018252600a548152600b546001600160a01b0381166020830152600160a01b900460ff1691810191909152600c546060820152600d546080820152600e5460a08201526006546007546000918291611084600f826143eb565b9350611091600e826143eb565b92508383106110a857826110a481614472565b9350505b6110bb866020013583876040015161204e565b6110db57604051633b5f43a360e01b8152600360048201526024016109cf565b6110e686601e612813565b6110ef86612b25565b6110f886612e32565b61110b886020013583876040015161204e565b61112b57604051633b5f43a360e01b8152600260048201526024016109cf565b61113f8861113a866002614392565b612813565b61114888612b25565b61115188612e32565b611164876020013583876040015161204e565b61118457604051633b5f43a360e01b8152600160048201526024016109cf565b6111938761113a856002614392565b61119c87612b25565b6111a587612e32565b61121b84846111b48b8061448b565b60008181106111c5576111c5614413565b602002919091013590506111d98b8061448b565b60008181106111ea576111ea614413565b602002919091013590506111fe8b8061448b565b600081811061120f5761120f614413565b905060200201356130c6565b611245611228878061448b565b600081811061123957611239614413565b90506020020135613153565b60015460208601516040517f51cff8d90000000000000000000000000000000000000000000000000000000081526001600160a01b03918216600482015261010090920416906351cff8d990602401600060405180830381600087803b1580156112ae57600080fd5b505af11580156112c2573d6000803e3d6000fd5b505050507f788e77979e6e6a8a6a5d2c19c58b1ff9671298f54c85ac6f6aa30379aed5861a856040516112f591906144dc565b60405180910390a17fbee3fc8a3523c1a65fa9308ce1f2b8fd90c24975b141b754603194597846e4dd60018054906101000a90046001600160a01b03166001600160a01b0316638a5e8e326040518163ffffffff1660e01b8152600401602060405180830381865afa15801561136f573d6000803e3d6000fd5b505050506040513d601f19601f8201168201806040525081019061139391906143bc565b6040519081526020015b60405180910390a15050505050505050565b60006113b9611e72565b806113f75750600854600160401b900467ffffffffffffffff166113db61180a565b67ffffffffffffffff161180156113f757506113f5611817565b155b15611409576114046117a6565b905090565b611411611817565b1561141e57611404610f48565b61142661090b565b80156114555750600854600160401b900467ffffffffffffffff1661144961180a565b67ffffffffffffffff16145b1561148c576040517f36b7884b00000000000000000000000000000000000000000000000000000000815260040160405180910390fd5b90565b6004818154811061149f57600080fd5b6000918252602090912060059091020180546001820154600283015460038401546004909401549294506001600160a01b03821693600160a01b90920460ff169290919086565b60006114f0611817565b61150d57604051633788c6c160e11b815260040160405180910390fd5b600061151761180a565b60085490915067ffffffffffffffff808316600160401b909204161461155057604051636fbabc7760e01b815260040160405180910390fd5b60085467ffffffffffffffff600160801b90910481169082161161158757604051630c8d9eab60e31b815260040160405180910390fd5b60008060008060008060008061159b613191565b905060006115a761324b565b600454919650945060005b8181101561178257600481815481106115cd576115cd614413565b9060005260206000209060050201600401549450600481815481106115f4576115f4614413565b906000526020600020906005020160010160149054906101000a900460ff16801561164257506005858154811061162d5761162d614413565b90600052602060002090600502016004015487145b801561168057506005858154811061165c5761165c614413565b600091825260209091206001600590920201015460ff878116600160a01b90920416145b1561177a576005858154811061169857611698614413565b9060005260206000209060050201600301548b6116b5919061452b565b9a5083836040516020016116ca929190614562565b60408051601f19818403018152919052805160209091012098506fffffffffffffffffffffffffffffffff808a16985061170590600161452b565b6005868154811061171857611718614413565b9060005260206000209060050201600301546117349190614392565b61173e8c8a614392565b101561176c576005858154811061175757611757614413565b90600052602060002090600502016000015499505b8261177681614472565b9350505b6001016115b2565b505050959099149998505050505050505050565b6005818154811061149f57600080fd5b600080610f5e61180a565b3360009081527fad3228b676f7d3cd4284a5443f17f1962b36e491b30a40b2405849e597ba5fb5602052604090205460ff1661180057604051631d77d47760e21b815260040160405180910390fd5b611808613404565b565b60006114046098436143ff565b6000611825600260986143ff565b6118306098436143eb565b1061183b5750600190565b50600090565b6118496121b4565b600061185361180a565b6003546040516397adedb560e01b81523360048201529192506000916001600160a01b03909116906397adedb590602401602060405180830381865afa1580156118a1573d6000803e3d6000fd5b505050506040513d601f19601f820116820180604052508101906118c591906143bc565b90506118cf611d7e565b60ff168560ff16101561190e576040517f83d9b7bd00000000000000000000000000000000000000000000000000000000815260040160405180910390fd5b61191661090b565b61194c576040517fd1088db600000000000000000000000000000000000000000000000000000000815260040160405180910390fd5b60085467ffffffffffffffff838116911614611994576040517f842a9e0a00000000000000000000000000000000000000000000000000000000815260040160405180910390fd5b60085467ffffffffffffffff838116600160401b9092041614611a7c576119b96113af565b6006556119c860056000613fea565b600880547fffffffffffffffffffffffffffffffff0000000000000000ffffffffffffffff16600160401b67ffffffffffffffff8516908102919091179091556006546040805192835260208301919091527ff0ae472da9c8da86bda4991a549c03a3cb328b5f360ea11a5b8814f32bb85176910160405180910390a1611a7c600754604080516020810192909252449082015260600160408051601f198184030181529190528051602090910120600755565b6000611a8a82878787611e03565b90506000611a988383613458565b9050600060048281548110611aaf57611aaf614413565b60009182526020918290206040805160c081018252600593909302909101805480845260018201546001600160a01b03811695850195909552600160a01b90940460ff1615159183019190915260028101546060830152600381015460808301526004015460a0820152600654909250611b2a91908a61204e565b611b66576006546040517f14ebbbe40000000000000000000000000000000000000000000000000000000081526004016109cf91815260200190565b806040015115611ba2576040517fa89ac15100000000000000000000000000000000000000000000000000000000815260040160405180910390fd5b600160048381548110611bb757611bb7614413565b906000526020600020906005020160010160146101000a81548160ff02191690831515021790555060058054905060048381548110611bf857611bf8614413565b90600052602060002090600502016004018190555060056040518060c001604052808360000151815260200183602001516001600160a01b031681526020018a60ff168152602001836060015181526020018a6002611c579190614668565b8460600151611c669190614392565b815260209081018a90528254600181810185556000948552938290208351600590920201908155908201519281018054604084015160ff16600160a01b0274ffffffffffffffffffffffffffffffffffffffffff199091166001600160a01b0390951694909417939093179092556060808201516002808501919091556080830151600385015560a0909201516004909301929092558251918301517f13fc17fd71632266fe82092de6dd91a06b4fa68d8dc950492e5421cbed55a6a5928892909190611d34908d90614668565b8560600151611d439190614392565b6040805167ffffffffffffffff909516855260208501939093529183015260608201526080810189905260ff8a1660a082015260c00161139d565b6008546000908190611da39067ffffffffffffffff600160801b820481169116614451565b67ffffffffffffffff169050600060fe8211611dbf5781611dc2565b60fe5b611dcd906001614677565b600b5490915060ff600160a01b9091048116908216811115611df857611df38282614690565b611dfb565b60005b935050505090565b60408051602081018690527fff0000000000000000000000000000000000000000000000000000000000000060f886901b169181019190915260418101839052606181018290526000906081015b6040516020818303038152906040528051906020012090505b949350505050565b6000611e80600460986143ff565b611e8b6098436143eb565b101561183b5750600190565b600082815260208190526040902060010154611eb28161208a565b6109068383612135565b3360009081527fad3228b676f7d3cd4284a5443f17f1962b36e491b30a40b2405849e597ba5fb5602052604090205460ff16611f0b57604051637bfa4b9f60e01b815260040160405180910390fd5b600880547fffffffffffff0000ffffffffffffffffffffffffffffffffffffffffffffffff16600160c01b60ff958616027fffffffffffff00ffffffffffffffffffffffffffffffffffffffffffffffffff1617600160c81b93851693909302929092177fffffffffff00ffffffffffffffffffffffffffffffffffffffffffffffffffff16600160d01b9190931602919091179055565b3360009081527fad3228b676f7d3cd4284a5443f17f1962b36e491b30a40b2405849e597ba5fb5602052604090205460ff16611ff257604051637bfa4b9f60e01b815260040160405180910390fd5b600955565b3360009081527fad3228b676f7d3cd4284a5443f17f1962b36e491b30a40b2405849e597ba5fb5602052604090205460ff1661204657604051631d77d47760e21b815260040160405180910390fd5b611808613503565b60008160ff16600003612063575060016107cd565b61207260ff83166101006146a9565b61207d9060026146c4565b8484181090509392505050565b612094813361353c565b50565b6000828152602081815260408083206001600160a01b038516845290915290205460ff166109e2576000828152602081815260408083206001600160a01b03851684529091529020805460ff191660011790556120f13390565b6001600160a01b0316816001600160a01b0316837f2f8788117e7eff1d82e926ec794901d17c78024a50270940304540a733656f0d60405160405180910390a45050565b6000828152602081815260408083206001600160a01b038516845290915290205460ff16156109e2576000828152602081815260408083206001600160a01b0385168085529252808320805460ff1916905551339285917ff6391f5c32d9c69d2a47ea670b442974b53935d1edc7fd64eb21e047a839171b9190a45050565b60015460ff16156118085760405162461bcd60e51b815260206004820152601060248201527f5061757361626c653a207061757365640000000000000000000000000000000060448201526064016109cf565b600061221161180a565b905061221b611817565b61223857604051633788c6c160e11b815260040160405180910390fd5b60085467ffffffffffffffff828116600160401b909204161461226e57604051636fbabc7760e01b815260040160405180910390fd5b60085467ffffffffffffffff600160801b9091048116908216116122a557604051630c8d9eab60e31b815260040160405180910390fd5b600454604051818152600091829182918291829182917f6752c5e71c95fb93bc7137adeb115a33fa4e54e2683e33d3f90c2bb1c4b6c2a59060200160405180910390a16005546040519081527f4c03de6a759749c0c9387b7014634dc5c6af610e1366023d90751c783a998f8d9060200160405180910390a161232661324b565b6040805183815260ff831660208201529295509093507f34e8eda4cd857cd2865becf58a47748f31415f4a382cbb2cc0c64b9a27c717be910160405180910390a16000612371613191565b905060005b8281101561274d5760006004828154811061239357612393614413565b600091825260208083206040805160c08101825260059485029092018054835260018101546001600160a01b03811694840194909452600160a01b90930460ff16151590820152600282015460608201526003820154608082015260049091015460a0820181905282549194509291908390811061241357612413614413565b60009182526020918290206040805160c0810182526005939093029091018054835260018101546001600160a01b03811694840194909452600160a01b90930460ff1682820152600283015460608301526003830154608083015260049092015460a082015290840151909150801561248f57508060a0015188145b80156124a45750806040015160ff168760ff16145b156125995760808101516124b8908d61452b565b9b50848b6040516020016124cd929190614562565b60408051601f19818403018152919052805160209091012099506fffffffffffffffffffffffffffffffff808b16995061250890600161452b565b81608001516125179190614392565b6125218d8b614392565b101561258b578051600a556020810151600b8054604084015160ff16600160a01b0274ffffffffffffffffffffffffffffffffffffffffff199091166001600160a01b03909316929092179190911790556060810151600c556080810151600d5560a0810151600e555b8a61259581614472565b9b50505b826040015180156125c257508060a00151881415806125c25750806040015160ff168760ff1614155b80156125e35750600854600160d01b900460ff166125e16064446143eb565b105b1561268f5760035460208201516001600160a01b039091169063d009b2d69061260d8a6002614668565b60085461262690609890600160c01b900460ff16614392565b6126309190614392565b6040516001600160e01b031960e085901b1681526001600160a01b0390921660048301526024820152604401600060405180830381600087803b15801561267657600080fd5b505af115801561268a573d6000803e3d6000fd5b505050505b826040015161273f5760035460208401516001600160a01b039091169063d009b2d6906126bd8a6002614668565b6008546126d690609890600160c81b900460ff16614392565b6126e09190614392565b6040516001600160e01b031960e085901b1681526001600160a01b0390921660048301526024820152604401600060405180830381600087803b15801561272657600080fd5b505af115801561273a573d6000803e3d6000fd5b505050505b836001019350505050612376565b506002546040517fffb98fe300000000000000000000000000000000000000000000000000000000815261ffff891660048201526001600160a01b039091169063ffb98fe390602401600060405180830381600087803b1580156127b057600080fd5b505af11580156127c4573d6000803e3d6000fd5b50506008805467ffffffffffffffff909c16600160801b027fffffffffffffffff0000000000000000ffffffffffffffffffffffffffffffff909c169b909b17909a5550505050505050505050565b600754600090612825906080906143eb565b9050600061288861283960a086018661448b565b8080602002602001604051908101604052809392919081815260200183836020028082843760009201919091525050505060608601358461288060a0890160808a016146d4565b6006546135af565b60408051858152602081018390529192507f94e252069a85aa79db21f5bd8ca4e14dd3a3927aa492711017a2c8ddad95af00910160405180910390a16129106128d1858061448b565b80806020026020016040519081016040528093929190818152602001838360200280828437600092019190915250505050602086013585610400613727565b600e541461293b5760405163755f0a2560e01b815260016004820152602481018290526044016109cf565b61294860a085018561448b565b600081811061295957612959614413565b90506020020135848060400190612970919061448b565b600081811061298157612981614413565b90506020020135146129b05760405163755f0a2560e01b815260026004820152602481018290526044016109cf565b6000806129c060e087018761448b565b9050116129d1578460200135612a06565b6129de60e086018661448b565b60008181106129ef576129ef614413565b9050602002810190612a0191906146ef565b606001355b9050612a64612a18604087018761448b565b80806020026020016040519081016040528093929190818152602001838360200280828437600092019190915250505050606087013585612a5f60a08a0160808b016146d4565b613727565b8114612a8d5760405163755f0a2560e01b815260036004820152602481018390526044016109cf565b6000612a9c60e087018761448b565b90501115612ad45760408051602080880135908201529081018390526060016040516020818303038152906040528051906020012091505b81612adf868061448b565b6000818110612af057612af0614413565b9050602002013514612b1e5760405163755f0a2560e01b8152600481810152602481018390526044016109cf565b5050505050565b6001546000908190819061010090046001600160a01b031663c81e25ab612b4f60c08701876146ef565b602001356040518263ffffffff1660e01b8152600401612b7191815260200190565b60c060405180830381865afa158015612b8e573d6000803e3d6000fd5b505050506040513d601f19601f82011682018060405250810190612bb2919061470f565b509396509194509250506001600160a01b0384169050612c1257612bd960c08501856146ef565b602001356040517f2396d34e0000000000000000000000000000000000000000000000000000000081526004016109cf91815260200190565b6000612c35612c2460c08701876146ef565b61148c9060608101906040016146d4565b90506000612c438484613895565b9050808263ffffffff1610612c9857612c5f60c08701876146ef565b602001356040517f1362e4a00000000000000000000000000000000000000000000000000000000081526004016109cf91815260200190565b6000612cc7612caa60c08901896146ef565b612cbb9060608101906040016146d4565b60201c63ffffffff1690565b90506000612cd98860200135866138b0565b63ffffffff16905067ffffffffffffffff82168114612d3857612cff60c08901896146ef565b602001356040517f6dd6a24f0000000000000000000000000000000000000000000000000000000081526004016109cf91815260200190565b612dde87612d4960c08b018b6146ef565b612d539080614787565b8080601f01602080910402602001604051908101604052809392919081815260200183838082843760009201919091525050505060208b0135612d9960c08d018d6146ef565b60200135612daa60c08e018e6146ef565b612dbb9060608101906040016146d4565b612dc860c08f018f6146ef565b612dd99060808101906060016146d4565b6138d7565b612e2857612def60c08901896146ef565b602001356040517fdb12fb9d0000000000000000000000000000000000000000000000000000000081526004016109cf91815260200190565b5050505050505050565b612e3f60e082018261448b565b9050600003612e4b5750565b612f6c612e5b60e083018361448b565b6000818110612e6c57612e6c614413565b9050602002810190612e7e91906146ef565b612e8c9060208101906147ce565b612e9960e084018461448b565b6000818110612eaa57612eaa614413565b9050602002810190612ebc91906146ef565b612eca906020810190614787565b8080601f016020809104026020016040519081016040528093929190818152602001838380828437600092019190915250612f0c9250505060e085018561448b565b6000818110612f1d57612f1d614413565b9050602002810190612f2f91906146ef565b60400135612f4060e086018661448b565b6000818110612f5157612f51614413565b9050602002810190612f6391906146ef565b6060013561396e565b612fd957612f7d60e082018261448b565b6000818110612f8e57612f8e614413565b9050602002810190612fa091906146ef565b606001356040517fd740df610000000000000000000000000000000000000000000000000000000081526004016109cf91815260200190565b6020810135613058612fee60e084018461448b565b6000818110612fff57612fff614413565b905060200281019061301191906146ef565b6040013561302260e085018561448b565b600081811061303357613033614413565b905060200281019061304591906146ef565b6130539060208101906147ce565b613a01565b146120945761306a60e082018261448b565b600081811061307b5761307b614413565b905060200281019061308d91906146ef565b606001356040517f82f2469d0000000000000000000000000000000000000000000000000000000081526004016109cf91815260200190565b83851015613113578183106130ee57604051633d386eb360e11b815260040160405180910390fd5b80821061310e57604051633588c6d360e11b815260040160405180910390fd5b612b1e565b82821061313357604051633d386eb360e11b815260040160405180910390fd5b808310612b1e57604051633588c6d360e11b815260040160405180910390fd5b6009548110612094576040517fb6052cdf000000000000000000000000000000000000000000000000000000008152600481018290526024016109cf565b606061319b611817565b6131b857604051633788c6c160e11b815260040160405180910390fd5b60006131c261180a565b60085490915067ffffffffffffffff808316600160401b90920416146131fb57604051636fbabc7760e01b815260040160405180910390fd5b6007546040516020016132369181527f3100000000000000000000000000000000000000000000000000000000000000602082015260210190565b60405160208183030381529060405291505090565b6000806000806000806000806000613261613a4f565b60045490915060005b818110156133f3576004818154811061328557613285614413565b906000526020600020906005020160010160149054906101000a900460ff16156133eb57600481815481106132bc576132bc614413565b9060005260206000209060050201600401549350600584815481106132e3576132e3614413565b90600052602060002090600502016003015489613300919061452b565b98508281604051602001613315929190614562565b60408051601f19818403018152919052805160209091012097506fffffffffffffffffffffffffffffffff808916975061335090600161452b565b6005858154811061336357613363614413565b90600052602060002090600502016003015461337f9190614392565b6133898a89614392565b10156133eb57600584815481106133a2576133a2614413565b9060005260206000209060050201600401549550600584815481106133c9576133c9614413565b906000526020600020906005020160010160149054906101000a900460ff1694505b60010161326a565b509399929850919650505050505050565b61340c6121b4565b6001805460ff1916811790557f62e78cea01bee320cd4e420270b5ea74000d11b0c9f74754ebdbfc544b05a258335b6040516001600160a01b03909116815260200160405180910390a1565b6000805b6004548110156134d057836004828154811061347a5761347a614413565b9060005260206000209060050201600001541480156134bc5750600481815481106134a7576134a7614413565b90600052602060002090600502016003015483145b156134c8579050610666565b60010161345c565b506040517fd950091500000000000000000000000000000000000000000000000000000000815260040160405180910390fd5b61350b613ad8565b6001805460ff191690557f5db9ee0a495bf2e6ff9c91a7834c1ba4fdd244a5e8aa4e537bd38aeae4b073aa3361343b565b6000828152602081815260408083206001600160a01b038516845290915290205460ff166109e25761356d81613b2a565b613578836020613b3c565b6040516020016135899291906147eb565b60408051601f198184030181529082905262461bcd60e51b82526109cf9160040161486c565b6000806135be87878786613d01565b9050826136c3856000808267ffffffffffffffff1690506008817eff00ff00ff00ff00ff00ff00ff00ff00ff00ff00ff00ff00ff00ff00ff00ff16901b600882901c7eff00ff00ff00ff00ff00ff00ff00ff00ff00ff00ff00ff00ff00ff00ff00ff161790506010817dffff0000ffff0000ffff0000ffff0000ffff0000ffff0000ffff0000ffff16901b601082901c7dffff0000ffff0000ffff0000ffff0000ffff0000ffff0000ffff0000ffff161790506020817bffffffff00000000ffffffff00000000ffffffff00000000ffffffff16901b602082901c7bffffffff00000000ffffffff00000000ffffffff00000000ffffffff1617905080915050919050565b826040516020016137059392919092835260c09190911b77ffffffffffffffffffffffffffffffffffffffffffffffff19166020830152602882015260480190565b6040516020818303038152906040528051906020012091505095945050505050565b600080613735868686613d77565b9050613839836000808267ffffffffffffffff1690506008817eff00ff00ff00ff00ff00ff00ff00ff00ff00ff00ff00ff00ff00ff00ff00ff16901b600882901c7eff00ff00ff00ff00ff00ff00ff00ff00ff00ff00ff00ff00ff00ff00ff00ff161790506010817dffff0000ffff0000ffff0000ffff0000ffff0000ffff0000ffff0000ffff16901b601082901c7dffff0000ffff0000ffff0000ffff0000ffff0000ffff0000ffff0000ffff161790506020817bffffffff00000000ffffffff00000000ffffffff00000000ffffffff16901b602082901c7bffffffff00000000ffffffff00000000ffffffff00000000ffffffff1617905080915050919050565b8160405160200161387492919060c09290921b77ffffffffffffffffffffffffffffffffffffffffffffffff19168252600882015260280190565b60405160208183030381529060405280519060200120915050949350505050565b60006138a18284614690565b60ff166001901b905092915050565b600060e083901c6138c2836020614690565b60ff168163ffffffff16901c91505092915050565b6000806138e686868686613ddf565b90506000613941826040517f19457468657265756d205369676e6564204d6573736167653a0a3332000000006020820152603c8101829052600090605c01604051602081830303815290604052805190602001209050919050565b9050886001600160a01b0316613957828a613e2a565b6001600160a01b0316149998505050505050505050565b60008061397b8484613ea9565b905060006139d6826040517f19457468657265756d205369676e6564204d6573736167653a0a3332000000006020820152603c8101829052600090605c01604051602081830303815290604052805190602001209050919050565b9050866001600160a01b03166139ec8288613e2a565b6001600160a01b031614979650505050505050565b60008282604051602001613a3192919091825260601b6bffffffffffffffffffffffff1916602082015260340190565b60405160208183030381529060405280519060200120905092915050565b6060613a59611817565b613a7657604051633788c6c160e11b815260040160405180910390fd5b6000613a8061180a565b60085490915067ffffffffffffffff808316600160401b9092041614613ab957604051636fbabc7760e01b815260040160405180910390fd5b600754604051602001613236918152600360fc1b602082015260210190565b60015460ff166118085760405162461bcd60e51b815260206004820152601460248201527f5061757361626c653a206e6f742070617573656400000000000000000000000060448201526064016109cf565b60606106666001600160a01b03831660145b60606000613b4b836002614392565b613b5690600261452b565b67ffffffffffffffff811115613b6e57613b6e61489f565b6040519080825280601f01601f191660200182016040528015613b98576020820181803683370190505b509050600360fc1b81600081518110613bb357613bb3614413565b60200101906001600160f81b031916908160001a9053507f780000000000000000000000000000000000000000000000000000000000000081600181518110613bfe57613bfe614413565b60200101906001600160f81b031916908160001a9053506000613c22846002614392565b613c2d90600161452b565b90505b6001811115613cb2577f303132333435363738396162636465660000000000000000000000000000000085600f1660108110613c6e57613c6e614413565b1a60f81b828281518110613c8457613c84614413565b60200101906001600160f81b031916908160001a90535060049490941c93613cab816148b5565b9050613c30565b5083156107cd5760405162461bcd60e51b815260206004820181905260248201527f537472696e67733a20686578206c656e67746820696e73756666696369656e7460448201526064016109cf565b8260005b8551811015613d6e576000613d1b6002866143eb565b15613d27576000613d2a565b60015b9050613d5183888481518110613d4257613d42614413565b60200260200101518387613ec5565b9250600185901c9450508080613d6690614472565b915050613d05565b50949350505050565b8160005b8451811015613dd7576000613d916002856143eb565b6000149050613dba83878481518110613dac57613dac614413565b602002602001015183613f25565b9250600184901c9350508080613dcf90614472565b915050613d7b565b509392505050565b604080516020810186905290810184905277ffffffffffffffffffffffffffffffffffffffffffffffff1960c084811b8216606084015283901b166068820152600090607001611e51565b600080600080613e3985613f8c565b6040805160008152602081018083528b905260ff8316918101919091526060810184905260808101839052929550909350915060019060a0016020604051602081039080840390855afa158015613e94573d6000803e3d6000fd5b5050604051601f190151979650505050505050565b6040805160208101849052908101829052600090606001613a31565b60008215613f0557604080516020810184905290810186905260608101859052608001604051602081830303815290604052805190602001209050611e6a565b604080516020810184905290810185905260608101869052608001611e51565b60008115613f5e5760408051602081018690529081018490526060016040516020818303038152906040528051906020012090506107cd565b5050604080516020808201939093528082019390935280518084038201815260609093019052815191012090565b60008060008351604114613fcc576040517f4be6321b00000000000000000000000000000000000000000000000000000000815260040160405180910390fd5b50505060208101516040820151606090920151909260009190911a90565b508054600082556005029060005260206000209081019061209491905b8082111561404f57600080825560018201805474ffffffffffffffffffffffffffffffffffffffffff1916905560028201819055600382018190556004820155600501614007565b5090565b60006020828403121561406557600080fd5b81356001600160e01b0319811681146107cd57600080fd5b6001600160a01b038116811461209457600080fd5b60ff8116811461209457600080fd5b600080604083850312156140b457600080fd5b82356140bf8161407d565b915060208301356140cf81614092565b809150509250929050565b6000602082840312156140ec57600080fd5b5035919050565b6020808252825182820181905260009190848201906040850190845b8181101561417657614163838551805182526001600160a01b03602082015116602083015260ff6040820151166040830152606081015160608301526080810151608083015260a081015160a08301525050565b9284019260c0929092019160010161410f565b50909695505050505050565b6000806040838503121561419557600080fd5b8235915060208301356140cf8161407d565b803567ffffffffffffffff811681146141bf57600080fd5b919050565b600080604083850312156141d757600080fd5b823591506141e7602084016141a7565b90509250929050565b6000610100828403121561420357600080fd5b50919050565b60008060006060848603121561421e57600080fd5b833567ffffffffffffffff8082111561423657600080fd5b614242878388016141f0565b9450602086013591508082111561425857600080fd5b614264878388016141f0565b9350604086013591508082111561427a57600080fd5b50614287868287016141f0565b9150509250925092565b6000806000606084860312156142a657600080fd5b83356142b181614092565b95602085013595506040909401359392505050565b600080600080608085870312156142dc57600080fd5b8435935060208501356142ee81614092565b93969395505050506040820135916060013590565b60008060006060848603121561431857600080fd5b833561432381614092565b9250602084013561433381614092565b9150604084013561434381614092565b809150509250925092565b60008060006060848603121561436357600080fd5b8335925060208401359150604084013561434381614092565b634e487b7160e01b600052601160045260246000fd5b80820281158282048414176106665761066661437c565b818103818111156106665761066661437c565b6000602082840312156143ce57600080fd5b5051919050565b634e487b7160e01b600052601260045260246000fd5b6000826143fa576143fa6143d5565b500690565b60008261440e5761440e6143d5565b500490565b634e487b7160e01b600052603260045260246000fd5b67ffffffffffffffff81811683821601908082111561444a5761444a61437c565b5092915050565b67ffffffffffffffff82811682821603908082111561444a5761444a61437c565b6000600182016144845761448461437c565b5060010190565b6000808335601e198436030181126144a257600080fd5b83018035915067ffffffffffffffff8211156144bd57600080fd5b6020019150600581901b36038213156144d557600080fd5b9250929050565b60c081016106668284805182526001600160a01b03602082015116602083015260ff6040820151166040830152606081015160608301526080810151608083015260a081015160a08301525050565b808201808211156106665761066661437c565b60005b83811015614559578181015183820152602001614541565b50506000910152565b6000835161457481846020880161453e565b9190910191825250602001919050565b600181815b808511156145bf5781600019048211156145a5576145a561437c565b808516156145b257918102915b93841c9390800290614589565b509250929050565b6000826145d657506001610666565b816145e357506000610666565b81600181146145f957600281146146035761461f565b6001915050610666565b60ff8411156146145761461461437c565b50506001821b610666565b5060208310610133831016604e8410600b8410161715614642575081810a610666565b61464c8383614584565b80600019048211156146605761466061437c565b029392505050565b60006107cd60ff8416836145c7565b60ff81811683821601908111156106665761066661437c565b60ff82811682821603908111156106665761066661437c565b61ffff82811682821603908082111561444a5761444a61437c565b60006107cd61ffff8416836145c7565b6000602082840312156146e657600080fd5b6107cd826141a7565b60008235607e1983360301811261470557600080fd5b9190910192915050565b60008060008060008060c0878903121561472857600080fd5b86516147338161407d565b602088015190965061474481614092565b604088015190955061475581614092565b6060880151909450801515811461476b57600080fd5b809350506080870151915060a087015190509295509295509295565b6000808335601e1984360301811261479e57600080fd5b83018035915067ffffffffffffffff8211156147b957600080fd5b6020019150368190038213156144d557600080fd5b6000602082840312156147e057600080fd5b81356107cd8161407d565b7f416363657373436f6e74726f6c3a206163636f756e742000000000000000000081526000835161482381601785016020880161453e565b7f206973206d697373696e6720726f6c6520000000000000000000000000000000601791840191820152835161486081602884016020880161453e565b01602801949350505050565b602081526000825180602084015261488b81604085016020870161453e565b601f01601f19169190910160400192915050565b634e487b7160e01b600052604160045260246000fd5b6000816148c4576148c461437c565b50600019019056fea26469706673582212200ee3b010b6e6132df84327e2ab5e573e177e3ed2a665f5c10ddbb299e9a458d464736f6c63430008130033",
  "devdoc": {
    "author": "The Swarm Authors",
    "details": "Implements a Schelling Co-ordination game to form consensus around the Reserve Commitment hash. This takes place in three phases: _commit_, _reveal_ and _claim_. A node, upon establishing that it _isParticipatingInUpcomingRound_, i.e. it's overlay falls within proximity order of its reported depth with the _currentRoundAnchor_, prepares a \"reserve commitment hash\" using the chunks it currently stores in its reserve and calculates the \"storage depth\" (see Bee for details). These values, if calculated honestly, and with the right chunks stored, should be the same for every node in a neighbourhood. This is the Schelling point. Each eligible node can then use these values, together with a random, single use, secret  _revealNonce_ and their _overlay_ as the pre-image values for the obsfucated _commit_, using the _wrapCommit_ method. Once the _commit_ round has elapsed, participating nodes must provide the values used to calculate their obsfucated _commit_ hash, which, once verified for correctness and proximity to the anchor are retained in the _currentReveals_. Nodes that have committed but do not reveal the correct values used to create the pre-image will have their stake \"frozen\" for a period of rounds proportional to their reported depth. During the _reveal_ round, randomness is updated after every successful reveal. Once the reveal round is concluded, the _currentRoundAnchor_ is updated and users can determine if they will be eligible their overlay will be eligible for the next commit phase using _isParticipatingInUpcomingRound_. When the _reveal_ phase has been concluded, the claim phase can begin. At this point, the truth teller and winner are already determined. By calling _isWinner_, an applicant node can run the relevant logic to determine if they have been selected as the beneficiary of this round. When calling _claim_, the current pot from the PostageStamp contract is withdrawn and transferred to that beneficiaries address. Nodes that have revealed values that differ from the truth, have their stakes \"frozen\" for a period of rounds proportional to their reported depth.",
    "events": {
      "ChunkCount(uint256)": {
        "details": "Emit from Postagestamp contract valid chunk count at the end of claim"
      },
      "Committed(uint256,bytes32)": {
        "details": "Logs that an overlay has committed"
      },
      "CountCommits(uint256)": {
        "details": "Emits the number of commits being processed by the claim phase."
      },
      "CountReveals(uint256)": {
        "details": "Emits the number of reveals being processed by the claim phase."
      },
      "CurrentRevealAnchor(uint256,bytes32)": {
        "details": "Bytes32 anhor of current reveal round"
      },
      "Paused(address)": {
        "details": "Emitted when the pause is triggered by `account`."
      },
      "Revealed(uint256,bytes32,uint256,uint256,bytes32,uint8)": {
        "details": "Logs that an overlay has revealed"
      },
      "RoleAdminChanged(bytes32,bytes32,bytes32)": {
        "details": "Emitted when `newAdminRole` is set as ``role``'s admin role, replacing `previousAdminRole` `DEFAULT_ADMIN_ROLE` is the starting admin for all roles, despite {RoleAdminChanged} not being emitted signaling this. _Available since v3.1._"
      },
      "RoleGranted(bytes32,address,address)": {
        "details": "Emitted when `account` is granted `role`. `sender` is the account that originated the contract call, an admin role bearer except when using {AccessControl-_setupRole}."
      },
      "RoleRevoked(bytes32,address,address)": {
        "details": "Emitted when `account` is revoked `role`. `sender` is the account that originated the contract call:   - if using `revokeRole`, it is the admin role bearer   - if using `renounceRole`, it is the role bearer (i.e. `account`)"
      },
      "TruthSelected(bytes32,uint8)": {
        "details": "Emitted when the truth oracle of a round is selected in the claim phase."
      },
      "Unpaused(address)": {
        "details": "Emitted when the pause is lifted by `account`."
      },
      "WinnerSelected((bytes32,address,uint8,uint256,uint256,bytes32))": {
        "details": "Emitted when the winner of a round is selected in the claim phase"
      },
      "transformedChunkAddressFromInclusionProof(uint256,bytes32)": {
        "details": "Logs for inclusion proof"
      }
    },
    "kind": "dev",
    "methods": {
      "commit(bytes32,uint64)": {
        "details": "If a node's overlay is _inProximity_(_depth_) of the _currentRoundAnchor_, that node may compute an _obfuscatedHash_ by providing their _overlay_, reported storage _depth_, reserve commitment _hash_ and a randomly generated, and secret _revealNonce_ to the _wrapCommit_ method.",
        "params": {
          "_obfuscatedHash": "The calculated hash resultant of the required pre-image values. and be derived from the same key pair as the message sender.",
          "_roundNumber": "Node needs to provide round number for which commit is valid"
        }
      },
      "constructor": {
        "params": {
          "oracleContract": "the address of the linked PriceOracle contract.",
          "postageContract": "the address of the linked PostageStamp contract.",
          "staking": "the address of the linked Staking contract."
        }
      },
      "currentRoundAnchor()": {
        "details": "A node must be within proximity order of less than or equal to the storage depth they intend to report."
      },
      "getRoleAdmin(bytes32)": {
        "details": "Returns the admin role that controls `role`. See {grantRole} and {revokeRole}. To change a role's admin, use {_setRoleAdmin}."
      },
      "grantRole(bytes32,address)": {
        "details": "Grants `role` to `account`. If `account` had not been already granted `role`, emits a {RoleGranted} event. Requirements: - the caller must have ``role``'s admin role. May emit a {RoleGranted} event."
      },
      "hasRole(bytes32,address)": {
        "details": "Returns `true` if `account` has been granted `role`."
      },
      "inProximity(bytes32,bytes32,uint8)": {
        "params": {
          "A": "An overlay address to compare.",
          "B": "An overlay address to compare.",
          "minimum": "Minimum proximity order."
        }
      },
      "isParticipatingInUpcomingRound(address,uint8)": {
        "params": {
          "_depth": "The storage depth the applicant intends to report.",
          "_owner": "The address of the applicant from."
        }
      },
      "isWinner(bytes32)": {
        "params": {
          "_overlay": "The overlay address of the applicant."
        }
      },
      "pause()": {
        "details": "Pause the contract. The contract is provably stopped by renouncing the pauser role and the admin role after pausing, can only be called by the `PAUSER`"
      },
      "paused()": {
        "details": "Returns true if the contract is paused, and false otherwise."
      },
      "renounceRole(bytes32,address)": {
        "details": "Revokes `role` from the calling account. Roles are often managed via {grantRole} and {revokeRole}: this function's purpose is to provide a mechanism for accounts to lose their privileges if they are compromised (such as when a trusted device is misplaced). If the calling account had been revoked `role`, emits a {RoleRevoked} event. Requirements: - the caller must be `account`. May emit a {RoleRevoked} event."
      },
      "reveal(uint8,bytes32,bytes32)": {
        "params": {
          "_depth": "The reported depth.",
          "_hash": "The reserve commitment hash.",
          "_revealNonce": "The nonce used to generate the commit that is being revealed."
        }
      },
      "revokeRole(bytes32,address)": {
        "details": "Revokes `role` from `account`. If `account` had been granted `role`, emits a {RoleRevoked} event. Requirements: - the caller must have ``role``'s admin role. May emit a {RoleRevoked} event."
      },
      "supportsInterface(bytes4)": {
        "details": "See {IERC165-supportsInterface}."
      },
      "unPause()": {
        "details": "Unpause the contract, can only be called by the pauser when paused"
      },
      "wrapCommit(bytes32,uint8,bytes32,bytes32)": {
        "details": "_revealNonce_ must be randomly generated, used once and kept secret until the reveal phase.",
        "params": {
          "_depth": "The reported depth.",
          "_hash": "The reserve commitment hash.",
          "_overlay": "The overlay address of the applicant.",
          "revealNonce": "A random, single use, secret nonce."
        }
      }
    },
    "title": "Redistribution contract",
    "version": 1
  },
  "userdoc": {
    "kind": "user",
    "methods": {
      "claim((bytes32[],bytes32,bytes32[],bytes32,uint64,bytes32[],(bytes,bytes32,uint64,uint64),(address,bytes,bytes32,bytes32)[]),(bytes32[],bytes32,bytes32[],bytes32,uint64,bytes32[],(bytes,bytes32,uint64,uint64),(address,bytes,bytes32,bytes32)[]),(bytes32[],bytes32,bytes32[],bytes32,uint64,bytes32[],(bytes,bytes32,uint64,uint64),(address,bytes,bytes32,bytes32)[]))": {
        "notice": "Helper function to get this round truth"
      },
      "commit(bytes32,uint64)": {
        "notice": "Begin application for a round if eligible. Commit a hashed value for which the pre-image will be subsequently revealed."
      },
      "currentMinimumDepth()": {
        "notice": "Returns minimum depth reveal has to have to participate in this round"
      },
      "currentPhaseClaim()": {
        "notice": "Returns true if current block is during claim phase."
      },
      "currentPhaseCommit()": {
        "notice": "Returns true if current block is during commit phase."
      },
      "currentPhaseReveal()": {
        "notice": "Returns true if current block is during reveal phase."
      },
      "currentRound()": {
        "notice": "The number of the current round."
      },
      "currentRoundAnchor()": {
        "notice": "The anchor used to determine eligibility for the current round."
      },
      "currentRoundReveals()": {
        "notice": "Returns true if current block is during reveal phase."
      },
      "currentSeed()": {
        "notice": "Returns the current random seed which is used to determine later utilised random numbers. If rounds have elapsed without reveals, hash the seed with an incremented nonce to produce a new random seed and hence a new round anchor."
      },
      "inProximity(bytes32,bytes32,uint8)": {
        "notice": "Returns true if an overlay address _A_ is within proximity order _minimum_ of _B_."
      },
      "isParticipatingInUpcomingRound(address,uint8)": {
        "notice": "Determine if a the owner of a given overlay can participate in the upcoming round."
      },
      "isWinner(bytes32)": {
        "notice": "Determine if a the owner of a given overlay will be the beneficiary of the claim phase."
      },
      "nextSeed()": {
        "notice": "Returns the seed which will become current once the next commit phase begins. Used to determine what the next round's anchor will be."
      },
      "reveal(uint8,bytes32,bytes32)": {
        "notice": "Reveal the pre-image values used to generate commit provided during this round's commit phase."
      },
      "setFreezingParams(uint8,uint8,uint8)": {
        "notice": "Set freezing parameters"
      },
      "setSampleMaxValue(uint256)": {
        "notice": "changes the max sample value used for reserve estimation"
      },
      "wrapCommit(bytes32,uint8,bytes32,bytes32)": {
        "notice": "Hash the pre-image values to the obsfucated hash."
      }
    },
    "version": 1
  },
  "storageLayout": {
    "storage": [
      {
        "astId": 24,
        "contract": "src/Redistribution.sol:Redistribution",
        "label": "_roles",
        "offset": 0,
        "slot": "0",
        "type": "t_mapping(t_bytes32,t_struct(RoleData)19_storage)"
      },
      {
        "astId": 556,
        "contract": "src/Redistribution.sol:Redistribution",
        "label": "_paused",
        "offset": 0,
        "slot": "1",
        "type": "t_bool"
      },
      {
        "astId": 7228,
        "contract": "src/Redistribution.sol:Redistribution",
        "label": "PostageContract",
        "offset": 1,
        "slot": "1",
        "type": "t_contract(IPostageStamp)11149"
      },
      {
        "astId": 7231,
        "contract": "src/Redistribution.sol:Redistribution",
        "label": "OracleContract",
        "offset": 0,
        "slot": "2",
        "type": "t_contract(IPriceOracle)7117"
      },
      {
        "astId": 7234,
        "contract": "src/Redistribution.sol:Redistribution",
        "label": "Stakes",
        "offset": 0,
        "slot": "3",
        "type": "t_contract(IStakeRegistry)7153"
      },
      {
        "astId": 7238,
        "contract": "src/Redistribution.sol:Redistribution",
        "label": "currentCommits",
        "offset": 0,
        "slot": "4",
        "type": "t_array(t_struct(Commit)7171_storage)dyn_storage"
      },
      {
        "astId": 7242,
        "contract": "src/Redistribution.sol:Redistribution",
        "label": "currentReveals",
        "offset": 0,
        "slot": "5",
        "type": "t_array(t_struct(Reveal)7184_storage)dyn_storage"
      },
      {
        "astId": 7244,
        "contract": "src/Redistribution.sol:Redistribution",
        "label": "currentRevealRoundAnchor",
        "offset": 0,
        "slot": "6",
        "type": "t_bytes32"
      },
      {
        "astId": 7246,
        "contract": "src/Redistribution.sol:Redistribution",
        "label": "seed",
        "offset": 0,
        "slot": "7",
        "type": "t_bytes32"
      },
      {
        "astId": 7248,
        "contract": "src/Redistribution.sol:Redistribution",
        "label": "currentCommitRound",
        "offset": 0,
        "slot": "8",
        "type": "t_uint64"
      },
      {
        "astId": 7250,
        "contract": "src/Redistribution.sol:Redistribution",
        "label": "currentRevealRound",
        "offset": 8,
        "slot": "8",
        "type": "t_uint64"
      },
      {
        "astId": 7252,
        "contract": "src/Redistribution.sol:Redistribution",
        "label": "currentClaimRound",
        "offset": 16,
        "slot": "8",
        "type": "t_uint64"
      },
      {
        "astId": 7255,
        "contract": "src/Redistribution.sol:Redistribution",
        "label": "penaltyMultiplierDisagreement",
        "offset": 24,
        "slot": "8",
        "type": "t_uint8"
      },
      {
        "astId": 7258,
        "contract": "src/Redistribution.sol:Redistribution",
        "label": "penaltyMultiplierNonRevealed",
        "offset": 25,
        "slot": "8",
        "type": "t_uint8"
      },
      {
        "astId": 7261,
        "contract": "src/Redistribution.sol:Redistribution",
        "label": "penaltyRandomFactor",
        "offset": 26,
        "slot": "8",
        "type": "t_uint8"
      },
      {
        "astId": 7264,
        "contract": "src/Redistribution.sol:Redistribution",
        "label": "sampleMaxValue",
        "offset": 0,
        "slot": "9",
        "type": "t_uint256"
      },
      {
        "astId": 7267,
        "contract": "src/Redistribution.sol:Redistribution",
        "label": "winner",
        "offset": 0,
        "slot": "10",
        "type": "t_struct(Reveal)7184_storage"
      }
    ],
    "types": {
      "t_address": {
        "encoding": "inplace",
        "label": "address",
        "numberOfBytes": "20"
      },
      "t_array(t_struct(Commit)7171_storage)dyn_storage": {
        "base": "t_struct(Commit)7171_storage",
        "encoding": "dynamic_array",
        "label": "struct Redistribution.Commit[]",
        "numberOfBytes": "32"
      },
      "t_array(t_struct(Reveal)7184_storage)dyn_storage": {
        "base": "t_struct(Reveal)7184_storage",
        "encoding": "dynamic_array",
        "label": "struct Redistribution.Reveal[]",
        "numberOfBytes": "32"
      },
      "t_bool": {
        "encoding": "inplace",
        "label": "bool",
        "numberOfBytes": "1"
      },
      "t_bytes32": {
        "encoding": "inplace",
        "label": "bytes32",
        "numberOfBytes": "32"
      },
      "t_contract(IPostageStamp)11149": {
        "encoding": "inplace",
        "label": "contract IPostageStamp",
        "numberOfBytes": "20"
      },
      "t_contract(IPriceOracle)7117": {
        "encoding": "inplace",
        "label": "contract IPriceOracle",
        "numberOfBytes": "20"
      },
      "t_contract(IStakeRegistry)7153": {
        "encoding": "inplace",
        "label": "contract IStakeRegistry",
        "numberOfBytes": "20"
      },
      "t_mapping(t_address,t_bool)": {
        "encoding": "mapping",
        "key": "t_address",
        "label": "mapping(address => bool)",
        "numberOfBytes": "32",
        "value": "t_bool"
      },
      "t_mapping(t_bytes32,t_struct(RoleData)19_storage)": {
        "encoding": "mapping",
        "key": "t_bytes32",
        "label": "mapping(bytes32 => struct AccessControl.RoleData)",
        "numberOfBytes": "32",
        "value": "t_struct(RoleData)19_storage"
      },
      "t_struct(Commit)7171_storage": {
        "encoding": "inplace",
        "label": "struct Redistribution.Commit",
        "members": [
          {
            "astId": 7160,
            "contract": "src/Redistribution.sol:Redistribution",
            "label": "overlay",
            "offset": 0,
            "slot": "0",
            "type": "t_bytes32"
          },
          {
            "astId": 7162,
            "contract": "src/Redistribution.sol:Redistribution",
            "label": "owner",
            "offset": 0,
            "slot": "1",
            "type": "t_address"
          },
          {
            "astId": 7164,
            "contract": "src/Redistribution.sol:Redistribution",
            "label": "revealed",
            "offset": 20,
            "slot": "1",
            "type": "t_bool"
          },
          {
            "astId": 7166,
            "contract": "src/Redistribution.sol:Redistribution",
            "label": "stake",
            "offset": 0,
            "slot": "2",
            "type": "t_uint256"
          },
          {
            "astId": 7168,
            "contract": "src/Redistribution.sol:Redistribution",
            "label": "obfuscatedHash",
            "offset": 0,
            "slot": "3",
            "type": "t_bytes32"
          },
          {
            "astId": 7170,
            "contract": "src/Redistribution.sol:Redistribution",
            "label": "revealIndex",
            "offset": 0,
            "slot": "4",
            "type": "t_uint256"
          }
        ],
        "numberOfBytes": "160"
      },
      "t_struct(Reveal)7184_storage": {
        "encoding": "inplace",
        "label": "struct Redistribution.Reveal",
        "members": [
          {
            "astId": 7173,
            "contract": "src/Redistribution.sol:Redistribution",
            "label": "overlay",
            "offset": 0,
            "slot": "0",
            "type": "t_bytes32"
          },
          {
            "astId": 7175,
            "contract": "src/Redistribution.sol:Redistribution",
            "label": "owner",
            "offset": 0,
            "slot": "1",
            "type": "t_address"
          },
          {
            "astId": 7177,
            "contract": "src/Redistribution.sol:Redistribution",
            "label": "depth",
            "offset": 20,
            "slot": "1",
            "type": "t_uint8"
          },
          {
            "astId": 7179,
            "contract": "src/Redistribution.sol:Redistribution",
            "label": "stake",
            "offset": 0,
            "slot": "2",
            "type": "t_uint256"
          },
          {
            "astId": 7181,
            "contract": "src/Redistribution.sol:Redistribution",
            "label": "stakeDensity",
            "offset": 0,
            "slot": "3",
            "type": "t_uint256"
          },
          {
            "astId": 7183,
            "contract": "src/Redistribution.sol:Redistribution",
            "label": "hash",
            "offset": 0,
            "slot": "4",
            "type": "t_bytes32"
          }
        ],
        "numberOfBytes": "160"
      },
      "t_struct(RoleData)19_storage": {
        "encoding": "inplace",
        "label": "struct AccessControl.RoleData",
        "members": [
          {
            "astId": 16,
            "contract": "src/Redistribution.sol:Redistribution",
            "label": "members",
            "offset": 0,
            "slot": "0",
            "type": "t_mapping(t_address,t_bool)"
          },
          {
            "astId": 18,
            "contract": "src/Redistribution.sol:Redistribution",
            "label": "adminRole",
            "offset": 0,
            "slot": "1",
            "type": "t_bytes32"
          }
        ],
        "numberOfBytes": "64"
      },
      "t_uint256": {
        "encoding": "inplace",
        "label": "uint256",
        "numberOfBytes": "32"
      },
      "t_uint64": {
        "encoding": "inplace",
        "label": "uint64",
        "numberOfBytes": "8"
      },
      "t_uint8": {
        "encoding": "inplace",
        "label": "uint8",
        "numberOfBytes": "1"
      }
    }
  }
}