{
  "address": "0x66eb6c5bE83851B0Ec5131580d7C5D1220B20626",
  "abi": [
    {
      "inputs": [
        {
          "internalType": "address",
          "name": "staking",
          "type": "address"
        },
        {
          "internalType": "address",
          "name": "postageContract",
          "type": "address"
        },
        {
          "internalType": "address",
          "name": "oracleContract",
          "type": "address"
        },
        {
          "internalType": "address",
          "name": "multisig",
          "type": "address"
        }
      ],
      "stateMutability": "nonpayable",
      "type": "constructor"
    },
    {
      "inputs": [],
      "name": "AlreadyClaimed",
      "type": "error"
    },
    {
      "inputs": [],
      "name": "AlreadyCommited",
      "type": "error"
    },
    {
      "inputs": [],
      "name": "AlreadyRevealed",
      "type": "error"
    },
    {
      "inputs": [
        {
          "internalType": "bytes32",
          "name": "",
          "type": "bytes32"
        }
      ],
      "name": "BalanceValidationFailed",
      "type": "error"
    },
    {
      "inputs": [],
      "name": "BelowMinimumStake",
      "type": "error"
    },
    {
      "inputs": [
        {
          "internalType": "bytes32",
          "name": "",
          "type": "bytes32"
        }
      ],
      "name": "BucketDiffers",
      "type": "error"
    },
    {
      "inputs": [],
      "name": "CommitRoundNotStarted",
      "type": "error"
    },
    {
      "inputs": [],
      "name": "CommitRoundOver",
      "type": "error"
    },
    {
      "inputs": [],
      "name": "FirstRevealDone",
      "type": "error"
    },
    {
      "inputs": [
        {
          "internalType": "uint8",
          "name": "",
          "type": "uint8"
        },
        {
          "internalType": "bytes32",
          "name": "",
          "type": "bytes32"
        }
      ],
      "name": "InclusionProofFailed",
      "type": "error"
    },
    {
      "inputs": [
        {
          "internalType": "bytes32",
          "name": "",
          "type": "bytes32"
        }
      ],
      "name": "IndexOutsideSet",
      "type": "error"
    },
    {
      "inputs": [],
      "name": "InvalidSignatureLength",
      "type": "error"
    },
    {
      "inputs": [],
      "name": "LastElementCheckFailed",
      "type": "error"
    },
    {
      "inputs": [],
      "name": "MustStake2Rounds",
      "type": "error"
    },
    {
      "inputs": [],
      "name": "NoCommitsReceived",
      "type": "error"
    },
    {
      "inputs": [],
      "name": "NoMatchingCommit",
      "type": "error"
    },
    {
      "inputs": [],
      "name": "NoReveals",
      "type": "error"
    },
    {
      "inputs": [],
      "name": "NotAdmin",
      "type": "error"
    },
    {
      "inputs": [],
      "name": "NotClaimPhase",
      "type": "error"
    },
    {
      "inputs": [],
      "name": "NotCommitPhase",
      "type": "error"
    },
    {
      "inputs": [],
      "name": "NotMatchingOwner",
      "type": "error"
    },
    {
      "inputs": [],
      "name": "NotRevealPhase",
      "type": "error"
    },
    {
      "inputs": [],
      "name": "OnlyPauser",
      "type": "error"
    },
    {
      "inputs": [],
      "name": "OutOfDepth",
      "type": "error"
    },
    {
      "inputs": [
        {
          "internalType": "uint8",
          "name": "",
          "type": "uint8"
        }
      ],
      "name": "OutOfDepthClaim",
      "type": "error"
    },
    {
      "inputs": [
        {
          "internalType": "bytes32",
          "name": "",
          "type": "bytes32"
        }
      ],
      "name": "OutOfDepthReveal",
      "type": "error"
    },
    {
      "inputs": [],
      "name": "PhaseLastBlock",
      "type": "error"
    },
    {
      "inputs": [],
      "name": "RandomElementCheckFailed",
      "type": "error"
    },
    {
      "inputs": [],
      "name": "ReserveCheckFailed",
      "type": "error"
    },
    {
      "inputs": [
        {
          "internalType": "bytes32",
          "name": "",
          "type": "bytes32"
        }
      ],
      "name": "SigRecoveryFailed",
      "type": "error"
    },
    {
      "inputs": [
        {
          "internalType": "bytes32",
          "name": "",
          "type": "bytes32"
        }
      ],
      "name": "SocCalcNotMatching",
      "type": "error"
    },
    {
      "inputs": [
        {
          "internalType": "bytes32",
          "name": "",
          "type": "bytes32"
        }
      ],
      "name": "SocVerificationFailed",
      "type": "error"
    },
    {
      "inputs": [],
      "name": "WrongPhase",
      "type": "error"
    },
    {
      "anonymous": false,
      "inputs": [
        {
          "indexed": false,
          "internalType": "uint256",
          "name": "validChunkCount",
          "type": "uint256"
        }
      ],
      "name": "ChunkCount",
      "type": "event"
    },
    {
      "anonymous": false,
      "inputs": [
        {
          "indexed": false,
          "internalType": "uint256",
          "name": "roundNumber",
          "type": "uint256"
        },
        {
          "indexed": false,
          "internalType": "bytes32",
          "name": "overlay",
          "type": "bytes32"
        }
      ],
      "name": "Committed",
      "type": "event"
    },
    {
      "anonymous": false,
      "inputs": [
        {
          "indexed": false,
          "internalType": "uint256",
          "name": "_count",
          "type": "uint256"
        }
      ],
      "name": "CountCommits",
      "type": "event"
    },
    {
      "anonymous": false,
      "inputs": [
        {
          "indexed": false,
          "internalType": "uint256",
          "name": "_count",
          "type": "uint256"
        }
      ],
      "name": "CountReveals",
      "type": "event"
    },
    {
      "anonymous": false,
      "inputs": [
        {
          "indexed": false,
          "internalType": "uint256",
          "name": "roundNumber",
          "type": "uint256"
        },
        {
          "indexed": false,
          "internalType": "bytes32",
          "name": "anchor",
          "type": "bytes32"
        }
      ],
      "name": "CurrentRevealAnchor",
      "type": "event"
    },
    {
      "anonymous": false,
      "inputs": [
        {
          "indexed": false,
          "internalType": "address",
          "name": "account",
          "type": "address"
        }
      ],
      "name": "Paused",
      "type": "event"
    },
    {
      "anonymous": false,
      "inputs": [
        {
          "indexed": false,
          "internalType": "uint256",
          "name": "roundNumber",
          "type": "uint256"
        },
        {
          "indexed": false,
          "internalType": "bytes32",
          "name": "overlay",
          "type": "bytes32"
        },
        {
          "indexed": false,
          "internalType": "uint256",
          "name": "stake",
          "type": "uint256"
        },
        {
          "indexed": false,
          "internalType": "uint256",
          "name": "stakeDensity",
          "type": "uint256"
        },
        {
          "indexed": false,
          "internalType": "bytes32",
          "name": "reserveCommitment",
          "type": "bytes32"
        },
        {
          "indexed": false,
          "internalType": "uint8",
          "name": "depth",
          "type": "uint8"
        }
      ],
      "name": "Revealed",
      "type": "event"
    },
    {
      "anonymous": false,
      "inputs": [
        {
          "indexed": true,
          "internalType": "bytes32",
          "name": "role",
          "type": "bytes32"
        },
        {
          "indexed": true,
          "internalType": "bytes32",
          "name": "previousAdminRole",
          "type": "bytes32"
        },
        {
          "indexed": true,
          "internalType": "bytes32",
          "name": "newAdminRole",
          "type": "bytes32"
        }
      ],
      "name": "RoleAdminChanged",
      "type": "event"
    },
    {
      "anonymous": false,
      "inputs": [
        {
          "indexed": true,
          "internalType": "bytes32",
          "name": "role",
          "type": "bytes32"
        },
        {
          "indexed": true,
          "internalType": "address",
          "name": "account",
          "type": "address"
        },
        {
          "indexed": true,
          "internalType": "address",
          "name": "sender",
          "type": "address"
        }
      ],
      "name": "RoleGranted",
      "type": "event"
    },
    {
      "anonymous": false,
      "inputs": [
        {
          "indexed": true,
          "internalType": "bytes32",
          "name": "role",
          "type": "bytes32"
        },
        {
          "indexed": true,
          "internalType": "address",
          "name": "account",
          "type": "address"
        },
        {
          "indexed": true,
          "internalType": "address",
          "name": "sender",
          "type": "address"
        }
      ],
      "name": "RoleRevoked",
      "type": "event"
    },
    {
      "anonymous": false,
      "inputs": [
        {
          "indexed": false,
          "internalType": "bytes32",
          "name": "hash",
          "type": "bytes32"
        },
        {
          "indexed": false,
          "internalType": "uint8",
          "name": "depth",
          "type": "uint8"
        }
      ],
      "name": "TruthSelected",
      "type": "event"
    },
    {
      "anonymous": false,
      "inputs": [
        {
          "indexed": false,
          "internalType": "address",
          "name": "account",
          "type": "address"
        }
      ],
      "name": "Unpaused",
      "type": "event"
    },
    {
      "anonymous": false,
      "inputs": [
        {
          "components": [
            {
              "internalType": "bytes32",
              "name": "overlay",
              "type": "bytes32"
            },
            {
              "internalType": "address",
              "name": "owner",
              "type": "address"
            },
            {
              "internalType": "uint8",
              "name": "depth",
              "type": "uint8"
            },
            {
              "internalType": "uint256",
              "name": "stake",
              "type": "uint256"
            },
            {
              "internalType": "uint256",
              "name": "stakeDensity",
              "type": "uint256"
            },
            {
              "internalType": "bytes32",
              "name": "hash",
              "type": "bytes32"
            }
          ],
          "indexed": false,
          "internalType": "struct Redistribution.Reveal",
          "name": "winner",
          "type": "tuple"
        }
      ],
      "name": "WinnerSelected",
      "type": "event"
    },
    {
      "anonymous": false,
      "inputs": [
        {
          "indexed": false,
          "internalType": "uint256",
          "name": "indexInRC",
          "type": "uint256"
        },
        {
          "indexed": false,
          "internalType": "bytes32",
          "name": "chunkAddress",
          "type": "bytes32"
        }
      ],
      "name": "transformedChunkAddressFromInclusionProof",
      "type": "event"
    },
    {
      "inputs": [],
      "name": "DEFAULT_ADMIN_ROLE",
      "outputs": [
        {
          "internalType": "bytes32",
          "name": "",
          "type": "bytes32"
        }
      ],
      "stateMutability": "view",
      "type": "function"
    },
    {
      "inputs": [],
      "name": "OracleContract",
      "outputs": [
        {
          "internalType": "contract IPriceOracle",
          "name": "",
          "type": "address"
        }
      ],
      "stateMutability": "view",
      "type": "function"
    },
    {
      "inputs": [],
      "name": "PostageContract",
      "outputs": [
        {
          "internalType": "contract IPostageStamp",
          "name": "",
          "type": "address"
        }
      ],
      "stateMutability": "view",
      "type": "function"
    },
    {
      "inputs": [],
      "name": "Stakes",
      "outputs": [
        {
          "internalType": "contract IStakeRegistry",
          "name": "",
          "type": "address"
        }
      ],
      "stateMutability": "view",
      "type": "function"
    },
    {
      "inputs": [
        {
          "components": [
            {
              "internalType": "bytes32[]",
              "name": "proofSegments",
              "type": "bytes32[]"
            },
            {
              "internalType": "bytes32",
              "name": "proveSegment",
              "type": "bytes32"
            },
            {
              "internalType": "bytes32[]",
              "name": "proofSegments2",
              "type": "bytes32[]"
            },
            {
              "internalType": "bytes32",
              "name": "proveSegment2",
              "type": "bytes32"
            },
            {
              "internalType": "uint64",
              "name": "chunkSpan",
              "type": "uint64"
            },
            {
              "internalType": "bytes32[]",
              "name": "proofSegments3",
              "type": "bytes32[]"
            },
            {
              "components": [
                {
                  "internalType": "bytes",
                  "name": "signature",
                  "type": "bytes"
                },
                {
                  "internalType": "bytes32",
                  "name": "postageId",
                  "type": "bytes32"
                },
                {
                  "internalType": "uint64",
                  "name": "index",
                  "type": "uint64"
                },
                {
                  "internalType": "uint64",
                  "name": "timeStamp",
                  "type": "uint64"
                }
              ],
              "internalType": "struct Redistribution.PostageProof",
              "name": "postageProof",
              "type": "tuple"
            },
            {
              "components": [
                {
                  "internalType": "address",
                  "name": "signer",
                  "type": "address"
                },
                {
                  "internalType": "bytes",
                  "name": "signature",
                  "type": "bytes"
                },
                {
                  "internalType": "bytes32",
                  "name": "identifier",
                  "type": "bytes32"
                },
                {
                  "internalType": "bytes32",
                  "name": "chunkAddr",
                  "type": "bytes32"
                }
              ],
              "internalType": "struct Redistribution.SOCProof[]",
              "name": "socProof",
              "type": "tuple[]"
            }
          ],
          "internalType": "struct Redistribution.ChunkInclusionProof",
          "name": "entryProof1",
          "type": "tuple"
        },
        {
          "components": [
            {
              "internalType": "bytes32[]",
              "name": "proofSegments",
              "type": "bytes32[]"
            },
            {
              "internalType": "bytes32",
              "name": "proveSegment",
              "type": "bytes32"
            },
            {
              "internalType": "bytes32[]",
              "name": "proofSegments2",
              "type": "bytes32[]"
            },
            {
              "internalType": "bytes32",
              "name": "proveSegment2",
              "type": "bytes32"
            },
            {
              "internalType": "uint64",
              "name": "chunkSpan",
              "type": "uint64"
            },
            {
              "internalType": "bytes32[]",
              "name": "proofSegments3",
              "type": "bytes32[]"
            },
            {
              "components": [
                {
                  "internalType": "bytes",
                  "name": "signature",
                  "type": "bytes"
                },
                {
                  "internalType": "bytes32",
                  "name": "postageId",
                  "type": "bytes32"
                },
                {
                  "internalType": "uint64",
                  "name": "index",
                  "type": "uint64"
                },
                {
                  "internalType": "uint64",
                  "name": "timeStamp",
                  "type": "uint64"
                }
              ],
              "internalType": "struct Redistribution.PostageProof",
              "name": "postageProof",
              "type": "tuple"
            },
            {
              "components": [
                {
                  "internalType": "address",
                  "name": "signer",
                  "type": "address"
                },
                {
                  "internalType": "bytes",
                  "name": "signature",
                  "type": "bytes"
                },
                {
                  "internalType": "bytes32",
                  "name": "identifier",
                  "type": "bytes32"
                },
                {
                  "internalType": "bytes32",
                  "name": "chunkAddr",
                  "type": "bytes32"
                }
              ],
              "internalType": "struct Redistribution.SOCProof[]",
              "name": "socProof",
              "type": "tuple[]"
            }
          ],
          "internalType": "struct Redistribution.ChunkInclusionProof",
          "name": "entryProof2",
          "type": "tuple"
        },
        {
          "components": [
            {
              "internalType": "bytes32[]",
              "name": "proofSegments",
              "type": "bytes32[]"
            },
            {
              "internalType": "bytes32",
              "name": "proveSegment",
              "type": "bytes32"
            },
            {
              "internalType": "bytes32[]",
              "name": "proofSegments2",
              "type": "bytes32[]"
            },
            {
              "internalType": "bytes32",
              "name": "proveSegment2",
              "type": "bytes32"
            },
            {
              "internalType": "uint64",
              "name": "chunkSpan",
              "type": "uint64"
            },
            {
              "internalType": "bytes32[]",
              "name": "proofSegments3",
              "type": "bytes32[]"
            },
            {
              "components": [
                {
                  "internalType": "bytes",
                  "name": "signature",
                  "type": "bytes"
                },
                {
                  "internalType": "bytes32",
                  "name": "postageId",
                  "type": "bytes32"
                },
                {
                  "internalType": "uint64",
                  "name": "index",
                  "type": "uint64"
                },
                {
                  "internalType": "uint64",
                  "name": "timeStamp",
                  "type": "uint64"
                }
              ],
              "internalType": "struct Redistribution.PostageProof",
              "name": "postageProof",
              "type": "tuple"
            },
            {
              "components": [
                {
                  "internalType": "address",
                  "name": "signer",
                  "type": "address"
                },
                {
                  "internalType": "bytes",
                  "name": "signature",
                  "type": "bytes"
                },
                {
                  "internalType": "bytes32",
                  "name": "identifier",
                  "type": "bytes32"
                },
                {
                  "internalType": "bytes32",
                  "name": "chunkAddr",
                  "type": "bytes32"
                }
              ],
              "internalType": "struct Redistribution.SOCProof[]",
              "name": "socProof",
              "type": "tuple[]"
            }
          ],
          "internalType": "struct Redistribution.ChunkInclusionProof",
          "name": "entryProofLast",
          "type": "tuple"
        }
      ],
      "name": "claim",
      "outputs": [],
      "stateMutability": "nonpayable",
      "type": "function"
    },
    {
      "inputs": [
        {
          "internalType": "bytes32",
          "name": "_obfuscatedHash",
          "type": "bytes32"
        },
        {
          "internalType": "bytes32",
          "name": "_overlay",
          "type": "bytes32"
        },
        {
          "internalType": "uint64",
          "name": "_roundNumber",
          "type": "uint64"
        }
      ],
      "name": "commit",
      "outputs": [],
      "stateMutability": "nonpayable",
      "type": "function"
    },
    {
      "inputs": [],
      "name": "currentClaimRound",
      "outputs": [
        {
          "internalType": "uint64",
          "name": "",
          "type": "uint64"
        }
      ],
      "stateMutability": "view",
      "type": "function"
    },
    {
      "inputs": [],
      "name": "currentCommitRound",
      "outputs": [
        {
          "internalType": "uint64",
          "name": "",
          "type": "uint64"
        }
      ],
      "stateMutability": "view",
      "type": "function"
    },
    {
      "inputs": [
        {
          "internalType": "uint256",
          "name": "",
          "type": "uint256"
        }
      ],
      "name": "currentCommits",
      "outputs": [
        {
          "internalType": "bytes32",
          "name": "overlay",
          "type": "bytes32"
        },
        {
          "internalType": "address",
          "name": "owner",
          "type": "address"
        },
        {
          "internalType": "bool",
          "name": "revealed",
          "type": "bool"
        },
        {
          "internalType": "uint256",
          "name": "stake",
          "type": "uint256"
        },
        {
          "internalType": "bytes32",
          "name": "obfuscatedHash",
          "type": "bytes32"
        },
        {
          "internalType": "uint256",
          "name": "revealIndex",
          "type": "uint256"
        }
      ],
      "stateMutability": "view",
      "type": "function"
    },
    {
      "inputs": [],
      "name": "currentMinimumDepth",
      "outputs": [
        {
          "internalType": "uint8",
          "name": "",
          "type": "uint8"
        }
      ],
      "stateMutability": "view",
      "type": "function"
    },
    {
      "inputs": [],
      "name": "currentPhaseClaim",
      "outputs": [
        {
          "internalType": "bool",
          "name": "",
          "type": "bool"
        }
      ],
      "stateMutability": "view",
      "type": "function"
    },
    {
      "inputs": [],
      "name": "currentPhaseCommit",
      "outputs": [
        {
          "internalType": "bool",
          "name": "",
          "type": "bool"
        }
      ],
      "stateMutability": "view",
      "type": "function"
    },
    {
      "inputs": [],
      "name": "currentPhaseReveal",
      "outputs": [
        {
          "internalType": "bool",
          "name": "",
          "type": "bool"
        }
      ],
      "stateMutability": "view",
      "type": "function"
    },
    {
      "inputs": [],
      "name": "currentRevealRound",
      "outputs": [
        {
          "internalType": "uint64",
          "name": "",
          "type": "uint64"
        }
      ],
      "stateMutability": "view",
      "type": "function"
    },
    {
      "inputs": [
        {
          "internalType": "uint256",
          "name": "",
          "type": "uint256"
        }
      ],
      "name": "currentReveals",
      "outputs": [
        {
          "internalType": "bytes32",
          "name": "overlay",
          "type": "bytes32"
        },
        {
          "internalType": "address",
          "name": "owner",
          "type": "address"
        },
        {
          "internalType": "uint8",
          "name": "depth",
          "type": "uint8"
        },
        {
          "internalType": "uint256",
          "name": "stake",
          "type": "uint256"
        },
        {
          "internalType": "uint256",
          "name": "stakeDensity",
          "type": "uint256"
        },
        {
          "internalType": "bytes32",
          "name": "hash",
          "type": "bytes32"
        }
      ],
      "stateMutability": "view",
      "type": "function"
    },
    {
      "inputs": [],
      "name": "currentRound",
      "outputs": [
        {
          "internalType": "uint64",
          "name": "",
          "type": "uint64"
        }
      ],
      "stateMutability": "view",
      "type": "function"
    },
    {
      "inputs": [],
      "name": "currentRoundAnchor",
      "outputs": [
        {
          "internalType": "bytes32",
          "name": "returnVal",
          "type": "bytes32"
        }
      ],
      "stateMutability": "view",
      "type": "function"
    },
    {
      "inputs": [],
      "name": "currentRoundReveals",
      "outputs": [
        {
          "components": [
            {
              "internalType": "bytes32",
              "name": "overlay",
              "type": "bytes32"
            },
            {
              "internalType": "address",
              "name": "owner",
              "type": "address"
            },
            {
              "internalType": "uint8",
              "name": "depth",
              "type": "uint8"
            },
            {
              "internalType": "uint256",
              "name": "stake",
              "type": "uint256"
            },
            {
              "internalType": "uint256",
              "name": "stakeDensity",
              "type": "uint256"
            },
            {
              "internalType": "bytes32",
              "name": "hash",
              "type": "bytes32"
            }
          ],
          "internalType": "struct Redistribution.Reveal[]",
          "name": "",
          "type": "tuple[]"
        }
      ],
      "stateMutability": "view",
      "type": "function"
    },
    {
      "inputs": [],
      "name": "currentSeed",
      "outputs": [
        {
          "internalType": "bytes32",
          "name": "",
          "type": "bytes32"
        }
      ],
      "stateMutability": "view",
      "type": "function"
    },
    {
      "inputs": [
        {
          "internalType": "bytes32",
          "name": "role",
          "type": "bytes32"
        }
      ],
      "name": "getRoleAdmin",
      "outputs": [
        {
          "internalType": "bytes32",
          "name": "",
          "type": "bytes32"
        }
      ],
      "stateMutability": "view",
      "type": "function"
    },
    {
      "inputs": [
        {
          "internalType": "bytes32",
          "name": "role",
          "type": "bytes32"
        },
        {
          "internalType": "address",
          "name": "account",
          "type": "address"
        }
      ],
      "name": "grantRole",
      "outputs": [],
      "stateMutability": "nonpayable",
      "type": "function"
    },
    {
      "inputs": [
        {
          "internalType": "bytes32",
          "name": "role",
          "type": "bytes32"
        },
        {
          "internalType": "address",
          "name": "account",
          "type": "address"
        }
      ],
      "name": "hasRole",
      "outputs": [
        {
          "internalType": "bool",
          "name": "",
          "type": "bool"
        }
      ],
      "stateMutability": "view",
      "type": "function"
    },
    {
      "inputs": [
        {
          "internalType": "bytes32",
          "name": "A",
          "type": "bytes32"
        },
        {
          "internalType": "bytes32",
          "name": "B",
          "type": "bytes32"
        },
        {
          "internalType": "uint8",
          "name": "minimum",
          "type": "uint8"
        }
      ],
      "name": "inProximity",
      "outputs": [
        {
          "internalType": "bool",
          "name": "",
          "type": "bool"
        }
      ],
      "stateMutability": "pure",
      "type": "function"
    },
    {
      "inputs": [
        {
          "internalType": "bytes32",
          "name": "overlay",
          "type": "bytes32"
        },
        {
          "internalType": "uint8",
          "name": "depth",
          "type": "uint8"
        }
      ],
      "name": "isParticipatingInUpcomingRound",
      "outputs": [
        {
          "internalType": "bool",
          "name": "",
          "type": "bool"
        }
      ],
      "stateMutability": "view",
      "type": "function"
    },
    {
      "inputs": [
        {
          "internalType": "bytes32",
          "name": "_overlay",
          "type": "bytes32"
        }
      ],
      "name": "isWinner",
      "outputs": [
        {
          "internalType": "bool",
          "name": "",
          "type": "bool"
        }
      ],
      "stateMutability": "view",
      "type": "function"
    },
    {
      "inputs": [],
      "name": "nextSeed",
      "outputs": [
        {
          "internalType": "bytes32",
          "name": "",
          "type": "bytes32"
        }
      ],
      "stateMutability": "view",
      "type": "function"
    },
    {
      "inputs": [],
      "name": "pause",
      "outputs": [],
      "stateMutability": "nonpayable",
      "type": "function"
    },
    {
      "inputs": [],
      "name": "paused",
      "outputs": [
        {
          "internalType": "bool",
          "name": "",
          "type": "bool"
        }
      ],
      "stateMutability": "view",
      "type": "function"
    },
    {
      "inputs": [
        {
          "internalType": "bytes32",
          "name": "role",
          "type": "bytes32"
        },
        {
          "internalType": "address",
          "name": "account",
          "type": "address"
        }
      ],
      "name": "renounceRole",
      "outputs": [],
      "stateMutability": "nonpayable",
      "type": "function"
    },
    {
      "inputs": [
        {
          "internalType": "bytes32",
          "name": "_overlay",
          "type": "bytes32"
        },
        {
          "internalType": "uint8",
          "name": "_depth",
          "type": "uint8"
        },
        {
          "internalType": "bytes32",
          "name": "_hash",
          "type": "bytes32"
        },
        {
          "internalType": "bytes32",
          "name": "_revealNonce",
          "type": "bytes32"
        }
      ],
      "name": "reveal",
      "outputs": [],
      "stateMutability": "nonpayable",
      "type": "function"
    },
    {
      "inputs": [
        {
          "internalType": "bytes32",
          "name": "role",
          "type": "bytes32"
        },
        {
          "internalType": "address",
          "name": "account",
          "type": "address"
        }
      ],
      "name": "revokeRole",
      "outputs": [],
      "stateMutability": "nonpayable",
      "type": "function"
    },
    {
      "inputs": [
        {
          "internalType": "uint8",
          "name": "_penaltyMultiplierDisagreement",
          "type": "uint8"
        },
        {
          "internalType": "uint8",
          "name": "_penaltyMultiplierNonRevealed",
          "type": "uint8"
        }
      ],
      "name": "setFreezingParams",
      "outputs": [],
      "stateMutability": "nonpayable",
      "type": "function"
    },
    {
      "inputs": [
        {
          "internalType": "bytes4",
          "name": "interfaceId",
          "type": "bytes4"
        }
      ],
      "name": "supportsInterface",
      "outputs": [
        {
          "internalType": "bool",
          "name": "",
          "type": "bool"
        }
      ],
      "stateMutability": "view",
      "type": "function"
    },
    {
      "inputs": [],
      "name": "unPause",
      "outputs": [],
      "stateMutability": "nonpayable",
      "type": "function"
    },
    {
      "inputs": [],
      "name": "winner",
      "outputs": [
        {
          "internalType": "bytes32",
          "name": "overlay",
          "type": "bytes32"
        },
        {
          "internalType": "address",
          "name": "owner",
          "type": "address"
        },
        {
          "internalType": "uint8",
          "name": "depth",
          "type": "uint8"
        },
        {
          "internalType": "uint256",
          "name": "stake",
          "type": "uint256"
        },
        {
          "internalType": "uint256",
          "name": "stakeDensity",
          "type": "uint256"
        },
        {
          "internalType": "bytes32",
          "name": "hash",
          "type": "bytes32"
        }
      ],
      "stateMutability": "view",
      "type": "function"
    },
    {
      "inputs": [
        {
          "internalType": "bytes32",
          "name": "_overlay",
          "type": "bytes32"
        },
        {
          "internalType": "uint8",
          "name": "_depth",
          "type": "uint8"
        },
        {
          "internalType": "bytes32",
          "name": "_hash",
          "type": "bytes32"
        },
        {
          "internalType": "bytes32",
          "name": "revealNonce",
          "type": "bytes32"
        }
      ],
      "name": "wrapCommit",
      "outputs": [
        {
          "internalType": "bytes32",
          "name": "",
          "type": "bytes32"
        }
      ],
      "stateMutability": "pure",
      "type": "function"
    }
  ],
  "transactionHash": "0x6e466fa69fb29941eda3c48279a631e93255a4ec232821a6ea9f231f76ff72d7",
  "args": [
    "0xEA744438b61269EC83A790860E10C1a55081bBD8",
    "0x35A00b2Ce2bf100e4C2dc04FbA72d71c214EEF89",
    "0x5b1C7001C2b1a4462E40d705236033dE2b71AB38",
    "0xb1C7F17Ed88189Abf269Bf68A3B2Ed83C5276aAe"
  ],
  "numDeployments": 1,
  "solcInputHash": "966c96a7df81c4f3d9cb298c62a38164",
  "bytecode": "0x60a06040526008805461ffff60c01b191661020160c01b1790553480156200002657600080fd5b5060405162004b0e38038062004b0e8339810160408190526200004991620001ad565b60018054600380546001600160a01b03199081166001600160a01b03898116919091179092556001600160a81b03199092166101008783160217909255600280549091169184169190911790557f65d7a28e3265b37a6474929f336521b332c1681b933f6cb9f3376673440d862a608052620000c7600082620000e0565b608051620000d69033620000e0565b505050506200020a565b620000ec8282620000f0565b5050565b6000828152602081815260408083206001600160a01b038516845290915290205460ff16620000ec576000828152602081815260408083206001600160a01b03851684529091529020805460ff191660011790556200014c3390565b6001600160a01b0316816001600160a01b0316837f2f8788117e7eff1d82e926ec794901d17c78024a50270940304540a733656f0d60405160405180910390a45050565b80516001600160a01b0381168114620001a857600080fd5b919050565b60008060008060808587031215620001c457600080fd5b620001cf8562000190565b9350620001df6020860162000190565b9250620001ef6040860162000190565b9150620001ff6060860162000190565b905092959194509250565b6080516148e16200022d600039600081816110910152611f1a01526148e16000f3fe608060405234801561001057600080fd5b506004361061025c5760003560e01c806382b39b1b11610145578063b78a52a7116100bd578063d1e8b63d1161008c578063dfbf53ae11610071578063dfbf53ae1461058a578063f7b188a5146105ba578063fb00f2f3146105c257600080fd5b8063d1e8b63d1461056f578063d547741f1461057757600080fd5b8063b78a52a71461051c578063c1d810d51461052f578063c46b402914610542578063ce9877451461055c57600080fd5b80638d8b64281161011457806391d14854116100f957806391d14854146104ca578063a217fddf14610501578063aeace9dc1461050957600080fd5b80638d8b6428146104af57806391276bec146104b757600080fd5b806382b39b1b1461044757806383220626146104975780638456cb591461049f5780638a19c8bc146104a757600080fd5b806362fd29ae116101d857806369da9114116101a757806372286cba1161018c57806372286cba146103cb57806377c75d10146104195780637fe019c61461042c57600080fd5b806369da91141461039d5780636f94aaf2146103b057600080fd5b806362fd29ae1461034d57806363f5cf7c1461035557806364c34a851461036857806369bfac011461037057600080fd5b80632f2ff15d1161022f57806336568abe1161021457806336568abe1461031c5780635c975abb1461032f5780635d4844ea1461033a57600080fd5b80632f2ff15d146102ff5780632f3906da1461031457600080fd5b806301ffc9a7146102615780631835009614610289578063248a9ca3146102b95780632a4e6249146102ea575b600080fd5b61027461026f36600461405c565b6105d5565b60405190151581526020015b60405180910390f35b6001546102a19061010090046001600160a01b031681565b6040516001600160a01b039091168152602001610280565b6102dc6102c7366004614086565b60009081526020819052604090206001015490565b604051908152602001610280565b6102f261063e565b604051610280919061409f565b61031261030d366004614143565b61074b565b005b610274610775565b61031261032a366004614143565b6107bf565b60015460ff16610274565b6003546102a1906001600160a01b031681565b6102dc610850565b61031261036336600461418c565b61091c565b6102dc610c8d565b6008546103849067ffffffffffffffff1681565b60405167ffffffffffffffff9091168152602001610280565b6002546102a1906001600160a01b031681565b60085461038490600160801b900467ffffffffffffffff1681565b6103de6103d9366004614086565b610d6d565b604080519687526001600160a01b039095166020870152921515938501939093526060840152608083019190915260a082015260c001610280565b610274610427366004614086565b610dc4565b60085461038490600160401b900467ffffffffffffffff1681565b61045a610455366004614086565b611074565b604080519687526001600160a01b03909516602087015260ff909316938501939093526060840152608083019190915260a082015260c001610280565b6102dc611084565b61031261108f565b6103846110f2565b6102746110ff565b6103126104c5366004614231565b611129565b6102746104d8366004614143565b6000918252602082815260408084206001600160a01b0393909316845291905290205460ff1690565b6102dc600081565b610312610517366004614275565b6116af565b61027461052a3660046142a3565b611780565b61031261053d3660046142c8565b61190f565b61054a611dda565b60405160ff9091168152602001610280565b6102dc61056a3660046142c8565b611e5f565b610274611ece565b610312610585366004614143565b611ef3565b600954600a54600b54600c54600d5461045a94936001600160a01b03811693600160a01b90910460ff1692909186565b610312611f18565b6102746105d0366004614305565b611f79565b60006001600160e01b031982167f7965db0b00000000000000000000000000000000000000000000000000000000148061063857507f01ffc9a7000000000000000000000000000000000000000000000000000000006001600160e01b03198316145b92915050565b60606106486110ff565b61066557604051633788c6c160e11b815260040160405180910390fd5b600061066f6110f2565b60085490915067ffffffffffffffff808316600160401b90920416146106a857604051636fbabc7760e01b815260040160405180910390fd5b6005805480602002602001604051908101604052809291908181526020016000905b828210156107415760008481526020908190206040805160c08101825260058602909201805483526001808201546001600160a01b03811685870152600160a01b900460ff169284019290925260028101546060840152600381015460808401526004015460a083015290835290920191016106ca565b5050505091505090565b60008281526020819052604090206001015461076681611fb5565b6107708383611fc2565b505050565b600080610783609843614354565b90506107916004609861437e565b81101580156107aa57506107a76002609861437e565b81105b156107b757600191505090565b600091505090565b6001600160a01b03811633146108425760405162461bcd60e51b815260206004820152602f60248201527f416363657373436f6e74726f6c3a2063616e206f6e6c792072656e6f756e636560448201527f20726f6c657320666f722073656c66000000000000000000000000000000000060648201526084015b60405180910390fd5b61084c8282612060565b5050565b60008061085b6110f2565b610866906001614392565b6007546008549192509061088c90600160401b900467ffffffffffffffff166001614392565b67ffffffffffffffff168267ffffffffffffffff161115610638576008546000906001906108cb90600160401b900467ffffffffffffffff16856143ba565b6108d591906143ba565b67ffffffffffffffff16905081816040516020016108fd929190918252602082015260400190565b6040516020818303038152906040528051906020012091505092915050565b6109246120df565b61092c612132565b6040805160c0810182526009548152600a546001600160a01b0381166020830152600160a01b900460ff1691810191909152600b546060820152600c546080820152600d5460a0820152600654600754600091829161098c600f82614354565b9350610999600e82614354565b92508383106109b057826109ac816143db565b9350505b6109c38660200135838760400151611f79565b6109e357604051633b5f43a360e01b815260036004820152602401610839565b6109ee86601e612707565b6109f786612a19565b610a0086612e19565b610a138860200135838760400151611f79565b610a3357604051633b5f43a360e01b815260026004820152602401610839565b610a4788610a428660026143f4565b612707565b610a5088612a19565b610a5988612e19565b610a6c8760200135838760400151611f79565b610a8c57604051633b5f43a360e01b815260016004820152602401610839565b610a9b87610a428560026143f4565b610aa487612a19565b610aad87612e19565b610b238484610abc8b8061440b565b6000818110610acd57610acd61445c565b60200291909101359050610ae18b8061440b565b6000818110610af257610af261445c565b60200291909101359050610b068b8061440b565b6000818110610b1757610b1761445c565b905060200201356130ad565b60015460208601516040517f51cff8d90000000000000000000000000000000000000000000000000000000081526001600160a01b03918216600482015261010090920416906351cff8d990602401600060405180830381600087803b158015610b8c57600080fd5b505af1158015610ba0573d6000803e3d6000fd5b505050507f788e77979e6e6a8a6a5d2c19c58b1ff9671298f54c85ac6f6aa30379aed5861a85604051610bd39190614472565b60405180910390a17fbee3fc8a3523c1a65fa9308ce1f2b8fd90c24975b141b754603194597846e4dd60018054906101000a90046001600160a01b03166001600160a01b0316638a5e8e326040518163ffffffff1660e01b8152600401602060405180830381865afa158015610c4d573d6000803e3d6000fd5b505050506040513d601f19601f82011682018060405250810190610c7191906144c1565b6040519081526020015b60405180910390a15050505050505050565b6000610c97611ece565b80610cd55750600854600160401b900467ffffffffffffffff16610cb96110f2565b67ffffffffffffffff16118015610cd55750610cd36110ff565b155b15610ce757610ce2611084565b905090565b610cef6110ff565b15610cfc57610ce2610850565b610d04610775565b8015610d335750600854600160401b900467ffffffffffffffff16610d276110f2565b67ffffffffffffffff16145b15610d6a576040517f36b7884b00000000000000000000000000000000000000000000000000000000815260040160405180910390fd5b90565b60048181548110610d7d57600080fd5b6000918252602090912060059091020180546001820154600283015460038401546004909401549294506001600160a01b03821693600160a01b90920460ff169290919086565b6000610dce6110ff565b610deb57604051633788c6c160e11b815260040160405180910390fd5b6000610df56110f2565b60085490915067ffffffffffffffff808316600160401b9092041614610e2e57604051636fbabc7760e01b815260040160405180910390fd5b60085467ffffffffffffffff600160801b909104811690821611610e6557604051630c8d9eab60e31b815260040160405180910390fd5b600080600080600080600080610e79613143565b90506000610e856131fd565b600454919650945060005b818110156110605760048181548110610eab57610eab61445c565b906000526020600020906005020160040154945060048181548110610ed257610ed261445c565b906000526020600020906005020160010160149054906101000a900460ff168015610f20575060058581548110610f0b57610f0b61445c565b90600052602060002090600502016004015487145b8015610f5e575060058581548110610f3a57610f3a61445c565b600091825260209091206001600590920201015460ff878116600160a01b90920416145b156110585760058581548110610f7657610f7661445c565b9060005260206000209060050201600301548b610f9391906144da565b9a508383604051602001610fa8929190614511565b60408051601f19818403018152919052805160209091012098506fffffffffffffffffffffffffffffffff808a169850610fe39060016144da565b60058681548110610ff657610ff661445c565b90600052602060002090600502016003015461101291906143f4565b61101c8c8a6143f4565b101561104a57600585815481106110355761103561445c565b90600052602060002090600502016000015499505b82611054816143db565b9350505b600101610e90565b505050959099149998505050505050505050565b60058181548110610d7d57600080fd5b6000806108666110f2565b7f000000000000000000000000000000000000000000000000000000000000000060009081526020818152604080832033845290915290205460ff166110e857604051631d77d47760e21b815260040160405180910390fd5b6110f06133b6565b565b6000610ce260984361437e565b600061110d6002609861437e565b611118609843614354565b106111235750600190565b50600090565b6111316120df565b600061113b6110f2565b6003546040516348962b9360e01b8152600481018690529192506000916001600160a01b03909116906348962b9390602401602060405180830381865afa15801561118a573d6000803e3d6000fd5b505050506040513d601f19601f820116820180604052508101906111ae91906144c1565b90506111b8611ece565b6111ee576040517fdc816a8700000000000000000000000000000000000000000000000000000000815260040160405180910390fd5b60016111fc6004609861437e565b6112069190614533565b611211609843614354565b03611248576040517f5baef6b600000000000000000000000000000000000000000000000000000000815260040160405180910390fd5b8267ffffffffffffffff168267ffffffffffffffff161115611296576040517f50ff7c0000000000000000000000000000000000000000000000000000000000815260040160405180910390fd5b8267ffffffffffffffff168267ffffffffffffffff1610156112e4576040517f7a0c0fd600000000000000000000000000000000000000000000000000000000815260040160405180910390fd5b67016345785d8a000081101561130d57604051638ecf3d0360e01b815260040160405180910390fd5b6003546040517fa0d22b210000000000000000000000000000000000000000000000000000000081526004810186905233916001600160a01b03169063a0d22b2190602401602060405180830381865afa15801561136f573d6000803e3d6000fd5b505050506040513d601f19601f820116820180604052508101906113939190614546565b6001600160a01b0316146113d3576040517fb78fd5c600000000000000000000000000000000000000000000000000000000815260040160405180910390fd5b6113df609860026143f4565b6113e99043614533565b6003546040516376f2098160e11b8152600481018790526001600160a01b039091169063ede4130290602401602060405180830381865afa158015611432573d6000803e3d6000fd5b505050506040513d601f19601f8201168201806040525081019061145691906144c1565b1061147457604051630a0744c560e01b815260040160405180910390fd5b60085467ffffffffffffffff8381169116146114b45761149660046000613ff3565b6008805467ffffffffffffffff191667ffffffffffffffff84161790555b60045460005b818110156115275785600482815481106114d6576114d661445c565b9060005260206000209060050201600001540361151f576040517ffc507a3100000000000000000000000000000000000000000000000000000000815260040160405180910390fd5b6001016114ba565b506040805160c081018252868152336020808301918252600083850181815260608501888152608086018d815260a0870184815260048054600181018255955296517f8a35acfbc15ff81a39ae7d344fd709f28e8600b4aa8c65c6b64bfe7fe36bd19b60059095029485015594517f8a35acfbc15ff81a39ae7d344fd709f28e8600b4aa8c65c6b64bfe7fe36bd19c8401805493516001600160a01b0390921674ffffffffffffffffffffffffffffffffffffffffff1990941693909317600160a01b9115159190910217909155517f8a35acfbc15ff81a39ae7d344fd709f28e8600b4aa8c65c6b64bfe7fe36bd19d82015591517f8a35acfbc15ff81a39ae7d344fd709f28e8600b4aa8c65c6b64bfe7fe36bd19e83015591517f8a35acfbc15ff81a39ae7d344fd709f28e8600b4aa8c65c6b64bfe7fe36bd19f90910155815167ffffffffffffffff871681529081018790527f68e0867601a98978930107aee7f425665e61edd70ca594c68ca5da9e81f84c29910160405180910390a1505050505050565b3360009081527fad3228b676f7d3cd4284a5443f17f1962b36e491b30a40b2405849e597ba5fb5602052604090205460ff16611717576040517f7bfa4b9f00000000000000000000000000000000000000000000000000000000815260040160405180910390fd5b600880547fffffffffffff0000ffffffffffffffffffffffffffffffffffffffffffffffff16600160c01b60ff948516027fffffffffffff00ffffffffffffffffffffffffffffffffffffffffffffffffff1617600160c81b9290931691909102919091179055565b600061178a610775565b156117c1576040517fe2586bcc00000000000000000000000000000000000000000000000000000000815260040160405180910390fd5b6117cd609860026143f4565b6117d79043614533565b6003546040516376f2098160e11b8152600481018690526001600160a01b039091169063ede4130290602401602060405180830381865afa158015611820573d6000803e3d6000fd5b505050506040513d601f19601f8201168201806040525081019061184491906144c1565b1061186257604051630a0744c560e01b815260040160405180910390fd5b6003546040516348962b9360e01b81526004810185905267016345785d8a0000916001600160a01b0316906348962b9390602401602060405180830381865afa1580156118b3573d6000803e3d6000fd5b505050506040513d601f19601f820116820180604052508101906118d791906144c1565b10156118f657604051638ecf3d0360e01b815260040160405180910390fd5b61190883611902610c8d565b84611f79565b9392505050565b6119176120df565b60006119216110f2565b905061192b611dda565b60ff168460ff16101561196a576040517f83d9b7bd00000000000000000000000000000000000000000000000000000000815260040160405180910390fd5b611972610775565b6119a8576040517fd1088db600000000000000000000000000000000000000000000000000000000815260040160405180910390fd5b60085467ffffffffffffffff8281169116146119f0576040517f842a9e0a00000000000000000000000000000000000000000000000000000000815260040160405180910390fd5b60085467ffffffffffffffff828116600160401b9092041614611ad857611a15610c8d565b600655611a2460056000613ff3565b600880547fffffffffffffffffffffffffffffffff0000000000000000ffffffffffffffff16600160401b67ffffffffffffffff8416908102919091179091556006546040805192835260208301919091527ff0ae472da9c8da86bda4991a549c03a3cb328b5f360ea11a5b8814f32bb85176910160405180910390a1611ad8600754604080516020810192909252449082015260600160408051601f198184030181529190528051602090910120600755565b6000611ae686868686611e5f565b90506000611af4878361340a565b9050600060048281548110611b0b57611b0b61445c565b60009182526020918290206040805160c081018252600593909302909101805480845260018201546001600160a01b03811695850195909552600160a01b90940460ff1615159183019190915260028101546060830152600381015460808301526004015460a0820152600654909250611b86919089611f79565b611bc2576006546040517f14ebbbe400000000000000000000000000000000000000000000000000000000815260040161083991815260200190565b806040015115611bfe576040517fa89ac15100000000000000000000000000000000000000000000000000000000815260040160405180910390fd5b600160048381548110611c1357611c1361445c565b906000526020600020906005020160010160146101000a81548160ff02191690831515021790555060058054905060048381548110611c5457611c5461445c565b90600052602060002090600502016004018190555060056040518060c001604052808360000151815260200183602001516001600160a01b031681526020018960ff16815260200183606001518152602001896002611cb39190614647565b8460600151611cc291906143f4565b815260209081018990528254600181810185556000948552938290208351600590920201908155908201519281018054604084015160ff16600160a01b0274ffffffffffffffffffffffffffffffffffffffffff199091166001600160a01b0390951694909417939093179092556060808201516002808501919091556080830151600385015560a0909201516004909301929092558251918301517f13fc17fd71632266fe82092de6dd91a06b4fa68d8dc950492e5421cbed55a6a5928792909190611d90908c90614647565b8560600151611d9f91906143f4565b6040805167ffffffffffffffff909516855260208501939093529183015260608201526080810188905260ff891660a082015260c001610c7b565b6008546000908190611dff9067ffffffffffffffff600160801b8204811691166143ba565b67ffffffffffffffff169050600060fe8211611e1b5781611e1e565b60fe5b611e29906001614656565b600a5490915060ff600160a01b9091048116908216811115611e5457611e4f828261466f565b611e57565b60005b935050505090565b60408051602081018690527fff0000000000000000000000000000000000000000000000000000000000000060f886901b169181019190915260418101839052606181018290526000906081015b6040516020818303038152906040528051906020012090505b949350505050565b6000611edc6004609861437e565b611ee7609843614354565b10156111235750600190565b600082815260208190526040902060010154611f0e81611fb5565b6107708383612060565b7f000000000000000000000000000000000000000000000000000000000000000060009081526020818152604080832033845290915290205460ff16611f7157604051631d77d47760e21b815260040160405180910390fd5b6110f06134b5565b60008160ff16600003611f8e57506001611908565b611f9d60ff8316610100614688565b611fa89060026146a3565b8484181090509392505050565b611fbf81336134ee565b50565b6000828152602081815260408083206001600160a01b038516845290915290205460ff1661084c576000828152602081815260408083206001600160a01b03851684529091529020805460ff1916600117905561201c3390565b6001600160a01b0316816001600160a01b0316837f2f8788117e7eff1d82e926ec794901d17c78024a50270940304540a733656f0d60405160405180910390a45050565b6000828152602081815260408083206001600160a01b038516845290915290205460ff161561084c576000828152602081815260408083206001600160a01b0385168085529252808320805460ff1916905551339285917ff6391f5c32d9c69d2a47ea670b442974b53935d1edc7fd64eb21e047a839171b9190a45050565b60015460ff16156110f05760405162461bcd60e51b815260206004820152601060248201527f5061757361626c653a20706175736564000000000000000000000000000000006044820152606401610839565b600061213c6110f2565b90506121466110ff565b61216357604051633788c6c160e11b815260040160405180910390fd5b60085467ffffffffffffffff828116600160401b909204161461219957604051636fbabc7760e01b815260040160405180910390fd5b60085467ffffffffffffffff600160801b9091048116908216116121d057604051630c8d9eab60e31b815260040160405180910390fd5b600454604051818152600091829182918291829182917f6752c5e71c95fb93bc7137adeb115a33fa4e54e2683e33d3f90c2bb1c4b6c2a59060200160405180910390a16005546040519081527f4c03de6a759749c0c9387b7014634dc5c6af610e1366023d90751c783a998f8d9060200160405180910390a16122516131fd565b6040805183815260ff831660208201529295509093507f34e8eda4cd857cd2865becf58a47748f31415f4a382cbb2cc0c64b9a27c717be910160405180910390a1600061229c613143565b905060005b82811015612641576000600482815481106122be576122be61445c565b600091825260208083206040805160c08101825260059485029092018054835260018101546001600160a01b03811694840194909452600160a01b90930460ff16151590820152600282015460608201526003820154608082015260049091015460a0820181905282549194509291908390811061233e5761233e61445c565b60009182526020918290206040805160c0810182526005939093029091018054835260018101546001600160a01b03811694840194909452600160a01b90930460ff1682820152600283015460608301526003830154608083015260049092015460a08201529084015190915080156123ba57508060a0015188145b80156123cf5750806040015160ff168760ff16145b156124c45760808101516123e3908d6144da565b9b50848b6040516020016123f8929190614511565b60408051601f19818403018152919052805160209091012099506fffffffffffffffffffffffffffffffff808b1699506124339060016144da565b816080015161244291906143f4565b61244c8d8b6143f4565b10156124b65780516009556020810151600a8054604084015160ff16600160a01b0274ffffffffffffffffffffffffffffffffffffffffff199091166001600160a01b03909316929092179190911790556060810151600b556080810151600c5560a0810151600d555b8a6124c0816143db565b9b50505b826040015180156124ed57508060a00151881415806124ed5750806040015160ff168760ff1614155b1561258e5760035481516001600160a01b039091169063837fd16a906125148a6002614647565b60085461252d90609890600160c01b900460ff166143f4565b61253791906143f4565b6040516001600160e01b031960e085901b16815260048101929092526024820152604401600060405180830381600087803b15801561257557600080fd5b505af1158015612589573d6000803e3d6000fd5b505050505b82604001516126335760035483516001600160a01b039091169063837fd16a906125b98a6002614647565b6008546125d290609890600160c81b900460ff166143f4565b6125dc91906143f4565b6040516001600160e01b031960e085901b16815260048101929092526024820152604401600060405180830381600087803b15801561261a57600080fd5b505af115801561262e573d6000803e3d6000fd5b505050505b8360010193505050506122a1565b506002546040517fffb98fe300000000000000000000000000000000000000000000000000000000815261ffff891660048201526001600160a01b039091169063ffb98fe390602401600060405180830381600087803b1580156126a457600080fd5b505af11580156126b8573d6000803e3d6000fd5b50506008805467ffffffffffffffff909c16600160801b027fffffffffffffffff0000000000000000ffffffffffffffffffffffffffffffff909c169b909b17909a5550505050505050505050565b60075460009061271990608090614354565b9050600061277c61272d60a086018661440b565b8080602002602001604051908101604052809392919081815260200183836020028082843760009201919091525050505060608601358461277460a0890160808a016146b3565b600654613561565b60408051858152602081018390529192507f94e252069a85aa79db21f5bd8ca4e14dd3a3927aa492711017a2c8ddad95af00910160405180910390a16128046127c5858061440b565b808060200260200160405190810160405280939291908181526020018383602002808284376000920191909152505050506020860135856104006136d9565b600d541461282f5760405163755f0a2560e01b81526001600482015260248101829052604401610839565b61283c60a085018561440b565b600081811061284d5761284d61445c565b90506020020135848060400190612864919061440b565b60008181106128755761287561445c565b90506020020135146128a45760405163755f0a2560e01b81526002600482015260248101829052604401610839565b6000806128b460e087018761440b565b9050116128c55784602001356128fa565b6128d260e086018661440b565b60008181106128e3576128e361445c565b90506020028101906128f591906146ce565b606001355b905061295861290c604087018761440b565b8080602002602001604051908101604052809392919081815260200183836020028082843760009201919091525050505060608701358561295360a08a0160808b016146b3565b6136d9565b81146129815760405163755f0a2560e01b81526003600482015260248101839052604401610839565b600061299060e087018761440b565b905011156129c85760408051602080880135908201529081018390526060016040516020818303038152906040528051906020012091505b816129d3868061440b565b60008181106129e4576129e461445c565b9050602002013514612a125760405163755f0a2560e01b815260048181015260248101839052604401610839565b5050505050565b6001546000908190819061010090046001600160a01b031663c81e25ab612a4360c08701876146ce565b602001356040518263ffffffff1660e01b8152600401612a6591815260200190565b60c060405180830381865afa158015612a82573d6000803e3d6000fd5b505050506040513d601f19601f82011682018060405250810190612aa691906146ee565b5050509250925092506000612ad5858060c00190612ac491906146ce565b610d6a9060608101906040016146b3565b90506000612ae38484613847565b9050808263ffffffff1610612b3857612aff60c08701876146ce565b602001356040517f1362e4a000000000000000000000000000000000000000000000000000000000815260040161083991815260200190565b60018054906101000a90046001600160a01b03166001600160a01b031663906978426040518163ffffffff1660e01b8152600401602060405180830381865afa158015612b89573d6000803e3d6000fd5b505050506040513d601f19601f82011682018060405250810190612bad91906144c1565b60015461010090046001600160a01b031663d71ba7c4612bd060c08a018a6146ce565b602001356040518263ffffffff1660e01b8152600401612bf291815260200190565b602060405180830381865afa158015612c0f573d6000803e3d6000fd5b505050506040513d601f19601f82011682018060405250810190612c3391906144c1565b1015612c7f57612c4660c08701876146ce565b602001356040517f55a9e7ce00000000000000000000000000000000000000000000000000000000815260040161083991815260200190565b6000612cae612c9160c08901896146ce565b612ca29060608101906040016146b3565b60201c63ffffffff1690565b90506000612cc0886020013586613862565b63ffffffff16905067ffffffffffffffff82168114612d1f57612ce660c08901896146ce565b602001356040517f6dd6a24f00000000000000000000000000000000000000000000000000000000815260040161083991815260200190565b612dc587612d3060c08b018b6146ce565b612d3a9080614766565b8080601f01602080910402602001604051908101604052809392919081815260200183838082843760009201919091525050505060208b0135612d8060c08d018d6146ce565b60200135612d9160c08e018e6146ce565b612da29060608101906040016146b3565b612daf60c08f018f6146ce565b612dc09060808101906060016146b3565b613889565b612e0f57612dd660c08901896146ce565b602001356040517fdb12fb9d00000000000000000000000000000000000000000000000000000000815260040161083991815260200190565b5050505050505050565b612e2660e082018261440b565b9050600003612e325750565b612f53612e4260e083018361440b565b6000818110612e5357612e5361445c565b9050602002810190612e6591906146ce565b612e739060208101906147ad565b612e8060e084018461440b565b6000818110612e9157612e9161445c565b9050602002810190612ea391906146ce565b612eb1906020810190614766565b8080601f016020809104026020016040519081016040528093929190818152602001838380828437600092019190915250612ef39250505060e085018561440b565b6000818110612f0457612f0461445c565b9050602002810190612f1691906146ce565b60400135612f2760e086018661440b565b6000818110612f3857612f3861445c565b9050602002810190612f4a91906146ce565b60600135613920565b612fc057612f6460e082018261440b565b6000818110612f7557612f7561445c565b9050602002810190612f8791906146ce565b606001356040517fd740df6100000000000000000000000000000000000000000000000000000000815260040161083991815260200190565b602081013561303f612fd560e084018461440b565b6000818110612fe657612fe661445c565b9050602002810190612ff891906146ce565b6040013561300960e085018561440b565b600081811061301a5761301a61445c565b905060200281019061302c91906146ce565b61303a9060208101906147ad565b6139b3565b14611fbf5761305160e082018261440b565b60008181106130625761306261445c565b905060200281019061307491906146ce565b606001356040517f82f2469d00000000000000000000000000000000000000000000000000000000815260040161083991815260200190565b838510156130fa578183106130d557604051633d386eb360e11b815260040160405180910390fd5b8082106130f557604051633588c6d360e11b815260040160405180910390fd5b61313a565b82821061311a57604051633d386eb360e11b815260040160405180910390fd5b80831061313a57604051633588c6d360e11b815260040160405180910390fd5b612a1281613a01565b606061314d6110ff565b61316a57604051633788c6c160e11b815260040160405180910390fd5b60006131746110f2565b60085490915067ffffffffffffffff808316600160401b90920416146131ad57604051636fbabc7760e01b815260040160405180910390fd5b6007546040516020016131e89181527f3100000000000000000000000000000000000000000000000000000000000000602082015260210190565b60405160208183030381529060405291505090565b6000806000806000806000806000613213613a58565b60045490915060005b818110156133a557600481815481106132375761323761445c565b906000526020600020906005020160010160149054906101000a900460ff161561339d576004818154811061326e5761326e61445c565b9060005260206000209060050201600401549350600584815481106132955761329561445c565b906000526020600020906005020160030154896132b291906144da565b985082816040516020016132c7929190614511565b60408051601f19818403018152919052805160209091012097506fffffffffffffffffffffffffffffffff80891697506133029060016144da565b600585815481106133155761331561445c565b90600052602060002090600502016003015461333191906143f4565b61333b8a896143f4565b101561339d57600584815481106133545761335461445c565b90600052602060002090600502016004015495506005848154811061337b5761337b61445c565b906000526020600020906005020160010160149054906101000a900460ff1694505b60010161321c565b509399929850919650505050505050565b6133be6120df565b6001805460ff1916811790557f62e78cea01bee320cd4e420270b5ea74000d11b0c9f74754ebdbfc544b05a258335b6040516001600160a01b03909116815260200160405180910390a1565b6000805b60045481101561348257836004828154811061342c5761342c61445c565b90600052602060002090600502016000015414801561346e5750600481815481106134595761345961445c565b90600052602060002090600502016003015483145b1561347a579050610638565b60010161340e565b506040517fd950091500000000000000000000000000000000000000000000000000000000815260040160405180910390fd5b6134bd613ae1565b6001805460ff191690557f5db9ee0a495bf2e6ff9c91a7834c1ba4fdd244a5e8aa4e537bd38aeae4b073aa336133ed565b6000828152602081815260408083206001600160a01b038516845290915290205460ff1661084c5761351f81613b33565b61352a836020613b45565b60405160200161353b9291906147ca565b60408051601f198184030181529082905262461bcd60e51b82526108399160040161484b565b60008061357087878786613d0a565b905082613675856000808267ffffffffffffffff1690506008817eff00ff00ff00ff00ff00ff00ff00ff00ff00ff00ff00ff00ff00ff00ff00ff16901b600882901c7eff00ff00ff00ff00ff00ff00ff00ff00ff00ff00ff00ff00ff00ff00ff00ff161790506010817dffff0000ffff0000ffff0000ffff0000ffff0000ffff0000ffff0000ffff16901b601082901c7dffff0000ffff0000ffff0000ffff0000ffff0000ffff0000ffff0000ffff161790506020817bffffffff00000000ffffffff00000000ffffffff00000000ffffffff16901b602082901c7bffffffff00000000ffffffff00000000ffffffff00000000ffffffff1617905080915050919050565b826040516020016136b79392919092835260c09190911b77ffffffffffffffffffffffffffffffffffffffffffffffff19166020830152602882015260480190565b6040516020818303038152906040528051906020012091505095945050505050565b6000806136e7868686613d80565b90506137eb836000808267ffffffffffffffff1690506008817eff00ff00ff00ff00ff00ff00ff00ff00ff00ff00ff00ff00ff00ff00ff00ff16901b600882901c7eff00ff00ff00ff00ff00ff00ff00ff00ff00ff00ff00ff00ff00ff00ff00ff161790506010817dffff0000ffff0000ffff0000ffff0000ffff0000ffff0000ffff0000ffff16901b601082901c7dffff0000ffff0000ffff0000ffff0000ffff0000ffff0000ffff0000ffff161790506020817bffffffff00000000ffffffff00000000ffffffff00000000ffffffff16901b602082901c7bffffffff00000000ffffffff00000000ffffffff00000000ffffffff1617905080915050919050565b8160405160200161382692919060c09290921b77ffffffffffffffffffffffffffffffffffffffffffffffff19168252600882015260280190565b60405160208183030381529060405280519060200120915050949350505050565b6000613853828461466f565b60ff166001901b905092915050565b600060e083901c61387483602061466f565b60ff168163ffffffff16901c91505092915050565b60008061389886868686613de8565b905060006138f3826040517f19457468657265756d205369676e6564204d6573736167653a0a3332000000006020820152603c8101829052600090605c01604051602081830303815290604052805190602001209050919050565b9050886001600160a01b0316613909828a613e33565b6001600160a01b0316149998505050505050505050565b60008061392d8484613eb2565b90506000613988826040517f19457468657265756d205369676e6564204d6573736167653a0a3332000000006020820152603c8101829052600090605c01604051602081830303815290604052805190602001209050919050565b9050866001600160a01b031661399e8288613e33565b6001600160a01b031614979650505050505050565b600082826040516020016139e392919091825260601b6bffffffffffffffffffffffff1916602082015260340190565b60405160208183030381529060405280519060200120905092915050565b7dba1914b54e0348a1028d1a103a95ed55c4004b9d332400000000000000008110611fbf576040517f9fad870f00000000000000000000000000000000000000000000000000000000815260040160405180910390fd5b6060613a626110ff565b613a7f57604051633788c6c160e11b815260040160405180910390fd5b6000613a896110f2565b60085490915067ffffffffffffffff808316600160401b9092041614613ac257604051636fbabc7760e01b815260040160405180910390fd5b6007546040516020016131e8918152600360fc1b602082015260210190565b60015460ff166110f05760405162461bcd60e51b815260206004820152601460248201527f5061757361626c653a206e6f74207061757365640000000000000000000000006044820152606401610839565b60606106386001600160a01b03831660145b60606000613b548360026143f4565b613b5f9060026144da565b67ffffffffffffffff811115613b7757613b7761487e565b6040519080825280601f01601f191660200182016040528015613ba1576020820181803683370190505b509050600360fc1b81600081518110613bbc57613bbc61445c565b60200101906001600160f81b031916908160001a9053507f780000000000000000000000000000000000000000000000000000000000000081600181518110613c0757613c0761445c565b60200101906001600160f81b031916908160001a9053506000613c2b8460026143f4565b613c369060016144da565b90505b6001811115613cbb577f303132333435363738396162636465660000000000000000000000000000000085600f1660108110613c7757613c7761445c565b1a60f81b828281518110613c8d57613c8d61445c565b60200101906001600160f81b031916908160001a90535060049490941c93613cb481614894565b9050613c39565b5083156119085760405162461bcd60e51b815260206004820181905260248201527f537472696e67733a20686578206c656e67746820696e73756666696369656e746044820152606401610839565b8260005b8551811015613d77576000613d24600286614354565b15613d30576000613d33565b60015b9050613d5a83888481518110613d4b57613d4b61445c565b60200260200101518387613ece565b9250600185901c9450508080613d6f906143db565b915050613d0e565b50949350505050565b8160005b8451811015613de0576000613d9a600285614354565b6000149050613dc383878481518110613db557613db561445c565b602002602001015183613f2e565b9250600184901c9350508080613dd8906143db565b915050613d84565b509392505050565b604080516020810186905290810184905277ffffffffffffffffffffffffffffffffffffffffffffffff1960c084811b8216606084015283901b166068820152600090607001611ead565b600080600080613e4285613f95565b6040805160008152602081018083528b905260ff8316918101919091526060810184905260808101839052929550909350915060019060a0016020604051602081039080840390855afa158015613e9d573d6000803e3d6000fd5b5050604051601f190151979650505050505050565b60408051602081018490529081018290526000906060016139e3565b60008215613f0e57604080516020810184905290810186905260608101859052608001604051602081830303815290604052805190602001209050611ec6565b604080516020810184905290810185905260608101869052608001611ead565b60008115613f67576040805160208101869052908101849052606001604051602081830303815290604052805190602001209050611908565b5050604080516020808201939093528082019390935280518084038201815260609093019052815191012090565b60008060008351604114613fd5576040517f4be6321b00000000000000000000000000000000000000000000000000000000815260040160405180910390fd5b50505060208101516040820151606090920151909260009190911a90565b5080546000825560050290600052602060002090810190611fbf91905b8082111561405857600080825560018201805474ffffffffffffffffffffffffffffffffffffffffff1916905560028201819055600382018190556004820155600501614010565b5090565b60006020828403121561406e57600080fd5b81356001600160e01b03198116811461190857600080fd5b60006020828403121561409857600080fd5b5035919050565b6020808252825182820181905260009190848201906040850190845b818110156141225761410f838551805182526001600160a01b03602082015116602083015260ff6040820151166040830152606081015160608301526080810151608083015260a081015160a08301525050565b9284019260c092909201916001016140bb565b50909695505050505050565b6001600160a01b0381168114611fbf57600080fd5b6000806040838503121561415657600080fd5b8235915060208301356141688161412e565b809150509250929050565b6000610100828403121561418657600080fd5b50919050565b6000806000606084860312156141a157600080fd5b833567ffffffffffffffff808211156141b957600080fd5b6141c587838801614173565b945060208601359150808211156141db57600080fd5b6141e787838801614173565b935060408601359150808211156141fd57600080fd5b5061420a86828701614173565b9150509250925092565b803567ffffffffffffffff8116811461422c57600080fd5b919050565b60008060006060848603121561424657600080fd5b833592506020840135915061425d60408501614214565b90509250925092565b60ff81168114611fbf57600080fd5b6000806040838503121561428857600080fd5b823561429381614266565b9150602083013561416881614266565b600080604083850312156142b657600080fd5b82359150602083013561416881614266565b600080600080608085870312156142de57600080fd5b8435935060208501356142f081614266565b93969395505050506040820135916060013590565b60008060006060848603121561431a57600080fd5b8335925060208401359150604084013561433381614266565b809150509250925092565b634e487b7160e01b600052601260045260246000fd5b6000826143635761436361433e565b500690565b634e487b7160e01b600052601160045260246000fd5b60008261438d5761438d61433e565b500490565b67ffffffffffffffff8181168382160190808211156143b3576143b3614368565b5092915050565b67ffffffffffffffff8281168282160390808211156143b3576143b3614368565b6000600182016143ed576143ed614368565b5060010190565b808202811582820484141761063857610638614368565b6000808335601e1984360301811261442257600080fd5b83018035915067ffffffffffffffff82111561443d57600080fd5b6020019150600581901b360382131561445557600080fd5b9250929050565b634e487b7160e01b600052603260045260246000fd5b60c081016106388284805182526001600160a01b03602082015116602083015260ff6040820151166040830152606081015160608301526080810151608083015260a081015160a08301525050565b6000602082840312156144d357600080fd5b5051919050565b8082018082111561063857610638614368565b60005b838110156145085781810151838201526020016144f0565b50506000910152565b600083516145238184602088016144ed565b9190910191825250602001919050565b8181038181111561063857610638614368565b60006020828403121561455857600080fd5b81516119088161412e565b600181815b8085111561459e57816000190482111561458457614584614368565b8085161561459157918102915b93841c9390800290614568565b509250929050565b6000826145b557506001610638565b816145c257506000610638565b81600181146145d857600281146145e2576145fe565b6001915050610638565b60ff8411156145f3576145f3614368565b50506001821b610638565b5060208310610133831016604e8410600b8410161715614621575081810a610638565b61462b8383614563565b806000190482111561463f5761463f614368565b029392505050565b600061190860ff8416836145a6565b60ff818116838216019081111561063857610638614368565b60ff828116828216039081111561063857610638614368565b61ffff8281168282160390808211156143b3576143b3614368565b600061190861ffff8416836145a6565b6000602082840312156146c557600080fd5b61190882614214565b60008235607e198336030181126146e457600080fd5b9190910192915050565b60008060008060008060c0878903121561470757600080fd5b86516147128161412e565b602088015190965061472381614266565b604088015190955061473481614266565b6060880151909450801515811461474a57600080fd5b809350506080870151915060a087015190509295509295509295565b6000808335601e1984360301811261477d57600080fd5b83018035915067ffffffffffffffff82111561479857600080fd5b60200191503681900382131561445557600080fd5b6000602082840312156147bf57600080fd5b81356119088161412e565b7f416363657373436f6e74726f6c3a206163636f756e74200000000000000000008152600083516148028160178501602088016144ed565b7f206973206d697373696e6720726f6c6520000000000000000000000000000000601791840191820152835161483f8160288401602088016144ed565b01602801949350505050565b602081526000825180602084015261486a8160408501602087016144ed565b601f01601f19169190910160400192915050565b634e487b7160e01b600052604160045260246000fd5b6000816148a3576148a3614368565b50600019019056fea2646970667358221220ac122b983bc40bd7f38ebbe379e5689456d6e5597ac4ef6f3bbb5893238022bd64736f6c63430008130033",
  "devdoc": {
    "author": "The Swarm Authors",
    "details": "Implements a Schelling Co-ordination game to form consensus around the Reserve Commitment hash. This takes place in three phases: _commit_, _reveal_ and _claim_. A node, upon establishing that it _isParticipatingInUpcomingRound_, i.e. it's overlay falls within proximity order of its reported depth with the _currentRoundAnchor_, prepares a \"reserve commitment hash\" using the chunks it currently stores in its reserve and calculates the \"storage depth\" (see Bee for details). These values, if calculated honestly, and with the right chunks stored, should be the same for every node in a neighbourhood. This is the Schelling point. Each eligible node can then use these values, together with a random, single use, secret  _revealNonce_ and their _overlay_ as the pre-image values for the obsfucated _commit_, using the _wrapCommit_ method. Once the _commit_ round has elapsed, participating nodes must provide the values used to calculate their obsfucated _commit_ hash, which, once verified for correctness and proximity to the anchor are retained in the _currentReveals_. Nodes that have commited but do not reveal the correct values used to create the pre-image will have their stake \"frozen\" for a period of rounds proportional to their reported depth. During the _reveal_ round, randomness is updated after every successful reveal. Once the reveal round is concluded, the _currentRoundAnchor_ is updated and users can determine if they will be eligible their overlay will be eligible for the next commit phase using _isParticipatingInUpcomingRound_. When the _reveal_ phase has been concluded, the claim phase can begin. At this point, the truth teller and winner are already determined. By calling _isWinner_, an applicant node can run the relevant logic to determine if they have been selected as the beneficiary of this round. When calling _claim_, the current pot from the PostageStamp contract is withdrawn and transferred to that beneficiaries address. Nodes that have revealed values that differ from the truth, have their stakes \"frozen\" for a period of rounds proportional to their reported depth.",
    "events": {
      "ChunkCount(uint256)": {
        "details": "Emit from Postagestamp contract valid chunk count at the end of claim"
      },
      "Committed(uint256,bytes32)": {
        "details": "Logs that an overlay has committed"
      },
      "CountCommits(uint256)": {
        "details": "Emits the number of commits being processed by the claim phase."
      },
      "CountReveals(uint256)": {
        "details": "Emits the number of reveals being processed by the claim phase."
      },
      "CurrentRevealAnchor(uint256,bytes32)": {
        "details": "Bytes32 anhor of current reveal round"
      },
      "Paused(address)": {
        "details": "Emitted when the pause is triggered by `account`."
      },
      "Revealed(uint256,bytes32,uint256,uint256,bytes32,uint8)": {
        "details": "Logs that an overlay has revealed"
      },
      "RoleAdminChanged(bytes32,bytes32,bytes32)": {
        "details": "Emitted when `newAdminRole` is set as ``role``'s admin role, replacing `previousAdminRole` `DEFAULT_ADMIN_ROLE` is the starting admin for all roles, despite {RoleAdminChanged} not being emitted signaling this. _Available since v3.1._"
      },
      "RoleGranted(bytes32,address,address)": {
        "details": "Emitted when `account` is granted `role`. `sender` is the account that originated the contract call, an admin role bearer except when using {AccessControl-_setupRole}."
      },
      "RoleRevoked(bytes32,address,address)": {
        "details": "Emitted when `account` is revoked `role`. `sender` is the account that originated the contract call:   - if using `revokeRole`, it is the admin role bearer   - if using `renounceRole`, it is the role bearer (i.e. `account`)"
      },
      "TruthSelected(bytes32,uint8)": {
        "details": "Emitted when the truth oracle of a round is selected in the claim phase."
      },
      "Unpaused(address)": {
        "details": "Emitted when the pause is lifted by `account`."
      },
      "WinnerSelected((bytes32,address,uint8,uint256,uint256,bytes32))": {
        "details": "Emitted when the winner of a round is selected in the claim phase"
      },
      "transformedChunkAddressFromInclusionProof(uint256,bytes32)": {
        "details": "Logs for inclusion proof"
      }
    },
    "kind": "dev",
    "methods": {
      "commit(bytes32,bytes32,uint64)": {
        "details": "If a node's overlay is _inProximity_(_depth_) of the _currentRoundAnchor_, that node may compute an _obfuscatedHash_ by providing their _overlay_, reported storage _depth_, reserve commitment _hash_ and a randomly generated, and secret _revealNonce_ to the _wrapCommit_ method.",
        "params": {
          "_obfuscatedHash": "The calculated hash resultant of the required pre-image values.",
          "_overlay": "The overlay referenced in the pre-image. Must be staked by at least the minimum value, and be derived from the same key pair as the message sender."
        }
      },
      "constructor": {
        "params": {
          "oracleContract": "the address of the linked PriceOracle contract.",
          "postageContract": "the address of the linked PostageStamp contract.",
          "staking": "the address of the linked Staking contract."
        }
      },
      "currentRoundAnchor()": {
        "details": "A node must be within proximity order of less than or equal to the storage depth they intend to report."
      },
      "getRoleAdmin(bytes32)": {
        "details": "Returns the admin role that controls `role`. See {grantRole} and {revokeRole}. To change a role's admin, use {_setRoleAdmin}."
      },
      "grantRole(bytes32,address)": {
        "details": "Grants `role` to `account`. If `account` had not been already granted `role`, emits a {RoleGranted} event. Requirements: - the caller must have ``role``'s admin role. May emit a {RoleGranted} event."
      },
      "hasRole(bytes32,address)": {
        "details": "Returns `true` if `account` has been granted `role`."
      },
      "inProximity(bytes32,bytes32,uint8)": {
        "params": {
          "A": "An overlay address to compare.",
          "B": "An overlay address to compare.",
          "minimum": "Minimum proximity order."
        }
      },
      "isParticipatingInUpcomingRound(bytes32,uint8)": {
        "params": {
          "depth": "The storage depth the applicant intends to report.",
          "overlay": "The overlay address of the applicant."
        }
      },
      "isWinner(bytes32)": {
        "params": {
          "_overlay": "The overlay address of the applicant."
        }
      },
      "pause()": {
        "details": "Pause the contract. The contract is provably stopped by renouncing the pauser role and the admin role after pausing, can only be called by the `PAUSER`"
      },
      "paused()": {
        "details": "Returns true if the contract is paused, and false otherwise."
      },
      "renounceRole(bytes32,address)": {
        "details": "Revokes `role` from the calling account. Roles are often managed via {grantRole} and {revokeRole}: this function's purpose is to provide a mechanism for accounts to lose their privileges if they are compromised (such as when a trusted device is misplaced). If the calling account had been revoked `role`, emits a {RoleRevoked} event. Requirements: - the caller must be `account`. May emit a {RoleRevoked} event."
      },
      "reveal(bytes32,uint8,bytes32,bytes32)": {
        "params": {
          "_depth": "The reported depth.",
          "_hash": "The reserve commitment hash.",
          "_overlay": "The overlay address of the applicant.",
          "_revealNonce": "The nonce used to generate the commit that is being revealed."
        }
      },
      "revokeRole(bytes32,address)": {
        "details": "Revokes `role` from `account`. If `account` had been granted `role`, emits a {RoleRevoked} event. Requirements: - the caller must have ``role``'s admin role. May emit a {RoleRevoked} event."
      },
      "supportsInterface(bytes4)": {
        "details": "See {IERC165-supportsInterface}."
      },
      "unPause()": {
        "details": "Unpause the contract, can only be called by the pauser when paused"
      },
      "wrapCommit(bytes32,uint8,bytes32,bytes32)": {
        "details": "_revealNonce_ must be randomly generated, used once and kept secret until the reveal phase.",
        "params": {
          "_depth": "The reported depth.",
          "_hash": "The reserve commitment hash.",
          "_overlay": "The overlay address of the applicant.",
          "revealNonce": "A random, single use, secret nonce."
        }
      }
    },
    "title": "Redistribution contract",
    "version": 1
  },
  "userdoc": {
    "kind": "user",
    "methods": {
      "claim((bytes32[],bytes32,bytes32[],bytes32,uint64,bytes32[],(bytes,bytes32,uint64,uint64),(address,bytes,bytes32,bytes32)[]),(bytes32[],bytes32,bytes32[],bytes32,uint64,bytes32[],(bytes,bytes32,uint64,uint64),(address,bytes,bytes32,bytes32)[]),(bytes32[],bytes32,bytes32[],bytes32,uint64,bytes32[],(bytes,bytes32,uint64,uint64),(address,bytes,bytes32,bytes32)[]))": {
        "notice": "Helper function to get this round truth"
      },
      "commit(bytes32,bytes32,uint64)": {
        "notice": "Begin application for a round if eligible. Commit a hashed value for which the pre-image will be subsequently revealed."
      },
      "currentMinimumDepth()": {
        "notice": "Returns minimum depth reveal has to have to participate in this round"
      },
      "currentPhaseClaim()": {
        "notice": "Returns true if current block is during claim phase."
      },
      "currentPhaseCommit()": {
        "notice": "Returns true if current block is during commit phase."
      },
      "currentPhaseReveal()": {
        "notice": "Returns true if current block is during reveal phase."
      },
      "currentRound()": {
        "notice": "The number of the current round."
      },
      "currentRoundAnchor()": {
        "notice": "The anchor used to determine eligibility for the current round."
      },
      "currentRoundReveals()": {
        "notice": "Returns true if current block is during reveal phase."
      },
      "currentSeed()": {
        "notice": "Returns the current random seed which is used to determine later utilised random numbers. If rounds have elapsed without reveals, hash the seed with an incremented nonce to produce a new random seed and hence a new round anchor."
      },
      "inProximity(bytes32,bytes32,uint8)": {
        "notice": "Returns true if an overlay address _A_ is within proximity order _minimum_ of _B_."
      },
      "isParticipatingInUpcomingRound(bytes32,uint8)": {
        "notice": "Determine if a the owner of a given overlay can participate in the upcoming round."
      },
      "isWinner(bytes32)": {
        "notice": "Determine if a the owner of a given overlay will be the beneficiary of the claim phase."
      },
      "nextSeed()": {
        "notice": "Returns the seed which will become current once the next commit phase begins. Used to determine what the next round's anchor will be."
      },
      "reveal(bytes32,uint8,bytes32,bytes32)": {
        "notice": "Reveal the pre-image values used to generate commit provided during this round's commit phase."
      },
      "setFreezingParams(uint8,uint8)": {
        "notice": "Set freezing parameters"
      },
      "wrapCommit(bytes32,uint8,bytes32,bytes32)": {
        "notice": "Hash the pre-image values to the obsfucated hash."
      }
    },
    "version": 1
  },
  "storageLayout": {
    "storage": [
      {
        "astId": 24,
        "contract": "src/Redistribution.sol:Redistribution",
        "label": "_roles",
        "offset": 0,
        "slot": "0",
        "type": "t_mapping(t_bytes32,t_struct(RoleData)19_storage)"
      },
      {
        "astId": 556,
        "contract": "src/Redistribution.sol:Redistribution",
        "label": "_paused",
        "offset": 0,
        "slot": "1",
        "type": "t_bool"
      },
      {
        "astId": 7122,
        "contract": "src/Redistribution.sol:Redistribution",
        "label": "PostageContract",
        "offset": 1,
        "slot": "1",
        "type": "t_contract(IPostageStamp)10847"
      },
      {
        "astId": 7125,
        "contract": "src/Redistribution.sol:Redistribution",
        "label": "OracleContract",
        "offset": 0,
        "slot": "2",
        "type": "t_contract(IPriceOracle)7018"
      },
      {
        "astId": 7128,
        "contract": "src/Redistribution.sol:Redistribution",
        "label": "Stakes",
        "offset": 0,
        "slot": "3",
        "type": "t_contract(IStakeRegistry)7047"
      },
      {
        "astId": 7132,
        "contract": "src/Redistribution.sol:Redistribution",
        "label": "currentCommits",
        "offset": 0,
        "slot": "4",
        "type": "t_array(t_struct(Commit)7065_storage)dyn_storage"
      },
      {
        "astId": 7136,
        "contract": "src/Redistribution.sol:Redistribution",
        "label": "currentReveals",
        "offset": 0,
        "slot": "5",
        "type": "t_array(t_struct(Reveal)7078_storage)dyn_storage"
      },
      {
        "astId": 7138,
        "contract": "src/Redistribution.sol:Redistribution",
        "label": "currentRevealRoundAnchor",
        "offset": 0,
        "slot": "6",
        "type": "t_bytes32"
      },
      {
        "astId": 7140,
        "contract": "src/Redistribution.sol:Redistribution",
        "label": "seed",
        "offset": 0,
        "slot": "7",
        "type": "t_bytes32"
      },
      {
        "astId": 7142,
        "contract": "src/Redistribution.sol:Redistribution",
        "label": "currentCommitRound",
        "offset": 0,
        "slot": "8",
        "type": "t_uint64"
      },
      {
        "astId": 7144,
        "contract": "src/Redistribution.sol:Redistribution",
        "label": "currentRevealRound",
        "offset": 8,
        "slot": "8",
        "type": "t_uint64"
      },
      {
        "astId": 7146,
        "contract": "src/Redistribution.sol:Redistribution",
        "label": "currentClaimRound",
        "offset": 16,
        "slot": "8",
        "type": "t_uint64"
      },
      {
        "astId": 7149,
        "contract": "src/Redistribution.sol:Redistribution",
        "label": "penaltyMultiplierDisagreement",
        "offset": 24,
        "slot": "8",
        "type": "t_uint8"
      },
      {
        "astId": 7152,
        "contract": "src/Redistribution.sol:Redistribution",
        "label": "penaltyMultiplierNonRevealed",
        "offset": 25,
        "slot": "8",
        "type": "t_uint8"
      },
      {
        "astId": 7155,
        "contract": "src/Redistribution.sol:Redistribution",
        "label": "winner",
        "offset": 0,
        "slot": "9",
        "type": "t_struct(Reveal)7078_storage"
      }
    ],
    "types": {
      "t_address": {
        "encoding": "inplace",
        "label": "address",
        "numberOfBytes": "20"
      },
      "t_array(t_struct(Commit)7065_storage)dyn_storage": {
        "base": "t_struct(Commit)7065_storage",
        "encoding": "dynamic_array",
        "label": "struct Redistribution.Commit[]",
        "numberOfBytes": "32"
      },
      "t_array(t_struct(Reveal)7078_storage)dyn_storage": {
        "base": "t_struct(Reveal)7078_storage",
        "encoding": "dynamic_array",
        "label": "struct Redistribution.Reveal[]",
        "numberOfBytes": "32"
      },
      "t_bool": {
        "encoding": "inplace",
        "label": "bool",
        "numberOfBytes": "1"
      },
      "t_bytes32": {
        "encoding": "inplace",
        "label": "bytes32",
        "numberOfBytes": "32"
      },
      "t_contract(IPostageStamp)10847": {
        "encoding": "inplace",
        "label": "contract IPostageStamp",
        "numberOfBytes": "20"
      },
      "t_contract(IPriceOracle)7018": {
        "encoding": "inplace",
        "label": "contract IPriceOracle",
        "numberOfBytes": "20"
      },
      "t_contract(IStakeRegistry)7047": {
        "encoding": "inplace",
        "label": "contract IStakeRegistry",
        "numberOfBytes": "20"
      },
      "t_mapping(t_address,t_bool)": {
        "encoding": "mapping",
        "key": "t_address",
        "label": "mapping(address => bool)",
        "numberOfBytes": "32",
        "value": "t_bool"
      },
      "t_mapping(t_bytes32,t_struct(RoleData)19_storage)": {
        "encoding": "mapping",
        "key": "t_bytes32",
        "label": "mapping(bytes32 => struct AccessControl.RoleData)",
        "numberOfBytes": "32",
        "value": "t_struct(RoleData)19_storage"
      },
      "t_struct(Commit)7065_storage": {
        "encoding": "inplace",
        "label": "struct Redistribution.Commit",
        "members": [
          {
            "astId": 7054,
            "contract": "src/Redistribution.sol:Redistribution",
            "label": "overlay",
            "offset": 0,
            "slot": "0",
            "type": "t_bytes32"
          },
          {
            "astId": 7056,
            "contract": "src/Redistribution.sol:Redistribution",
            "label": "owner",
            "offset": 0,
            "slot": "1",
            "type": "t_address"
          },
          {
            "astId": 7058,
            "contract": "src/Redistribution.sol:Redistribution",
            "label": "revealed",
            "offset": 20,
            "slot": "1",
            "type": "t_bool"
          },
          {
            "astId": 7060,
            "contract": "src/Redistribution.sol:Redistribution",
            "label": "stake",
            "offset": 0,
            "slot": "2",
            "type": "t_uint256"
          },
          {
            "astId": 7062,
            "contract": "src/Redistribution.sol:Redistribution",
            "label": "obfuscatedHash",
            "offset": 0,
            "slot": "3",
            "type": "t_bytes32"
          },
          {
            "astId": 7064,
            "contract": "src/Redistribution.sol:Redistribution",
            "label": "revealIndex",
            "offset": 0,
            "slot": "4",
            "type": "t_uint256"
          }
        ],
        "numberOfBytes": "160"
      },
      "t_struct(Reveal)7078_storage": {
        "encoding": "inplace",
        "label": "struct Redistribution.Reveal",
        "members": [
          {
            "astId": 7067,
            "contract": "src/Redistribution.sol:Redistribution",
            "label": "overlay",
            "offset": 0,
            "slot": "0",
            "type": "t_bytes32"
          },
          {
            "astId": 7069,
            "contract": "src/Redistribution.sol:Redistribution",
            "label": "owner",
            "offset": 0,
            "slot": "1",
            "type": "t_address"
          },
          {
            "astId": 7071,
            "contract": "src/Redistribution.sol:Redistribution",
            "label": "depth",
            "offset": 20,
            "slot": "1",
            "type": "t_uint8"
          },
          {
            "astId": 7073,
            "contract": "src/Redistribution.sol:Redistribution",
            "label": "stake",
            "offset": 0,
            "slot": "2",
            "type": "t_uint256"
          },
          {
            "astId": 7075,
            "contract": "src/Redistribution.sol:Redistribution",
            "label": "stakeDensity",
            "offset": 0,
            "slot": "3",
            "type": "t_uint256"
          },
          {
            "astId": 7077,
            "contract": "src/Redistribution.sol:Redistribution",
            "label": "hash",
            "offset": 0,
            "slot": "4",
            "type": "t_bytes32"
          }
        ],
        "numberOfBytes": "160"
      },
      "t_struct(RoleData)19_storage": {
        "encoding": "inplace",
        "label": "struct AccessControl.RoleData",
        "members": [
          {
            "astId": 16,
            "contract": "src/Redistribution.sol:Redistribution",
            "label": "members",
            "offset": 0,
            "slot": "0",
            "type": "t_mapping(t_address,t_bool)"
          },
          {
            "astId": 18,
            "contract": "src/Redistribution.sol:Redistribution",
            "label": "adminRole",
            "offset": 0,
            "slot": "1",
            "type": "t_bytes32"
          }
        ],
        "numberOfBytes": "64"
      },
      "t_uint256": {
        "encoding": "inplace",
        "label": "uint256",
        "numberOfBytes": "32"
      },
      "t_uint64": {
        "encoding": "inplace",
        "label": "uint64",
        "numberOfBytes": "8"
      },
      "t_uint8": {
        "encoding": "inplace",
        "label": "uint8",
        "numberOfBytes": "1"
      }
    }
  }
}