{
  "address": "0x7f48e18805A615fb068Fc266a5Ae17fB30709A25",
  "abi": [
    {
      "inputs": [
        {
          "internalType": "address",
          "name": "_bzzToken",
          "type": "address"
        },
        {
          "internalType": "uint64",
          "name": "_NetworkId",
          "type": "uint64"
        },
        {
          "internalType": "address",
          "name": "multisig",
          "type": "address"
        }
      ],
      "stateMutability": "nonpayable",
      "type": "constructor"
    },
    {
      "anonymous": false,
      "inputs": [
        {
          "indexed": false,
          "internalType": "address",
          "name": "account",
          "type": "address"
        }
      ],
      "name": "Paused",
      "type": "event"
    },
    {
      "anonymous": false,
      "inputs": [
        {
          "indexed": true,
          "internalType": "bytes32",
          "name": "role",
          "type": "bytes32"
        },
        {
          "indexed": true,
          "internalType": "bytes32",
          "name": "previousAdminRole",
          "type": "bytes32"
        },
        {
          "indexed": true,
          "internalType": "bytes32",
          "name": "newAdminRole",
          "type": "bytes32"
        }
      ],
      "name": "RoleAdminChanged",
      "type": "event"
    },
    {
      "anonymous": false,
      "inputs": [
        {
          "indexed": true,
          "internalType": "bytes32",
          "name": "role",
          "type": "bytes32"
        },
        {
          "indexed": true,
          "internalType": "address",
          "name": "account",
          "type": "address"
        },
        {
          "indexed": true,
          "internalType": "address",
          "name": "sender",
          "type": "address"
        }
      ],
      "name": "RoleGranted",
      "type": "event"
    },
    {
      "anonymous": false,
      "inputs": [
        {
          "indexed": true,
          "internalType": "bytes32",
          "name": "role",
          "type": "bytes32"
        },
        {
          "indexed": true,
          "internalType": "address",
          "name": "account",
          "type": "address"
        },
        {
          "indexed": true,
          "internalType": "address",
          "name": "sender",
          "type": "address"
        }
      ],
      "name": "RoleRevoked",
      "type": "event"
    },
    {
      "anonymous": false,
      "inputs": [
        {
          "indexed": false,
          "internalType": "bytes32",
          "name": "slashed",
          "type": "bytes32"
        },
        {
          "indexed": false,
          "internalType": "uint256",
          "name": "time",
          "type": "uint256"
        }
      ],
      "name": "StakeFrozen",
      "type": "event"
    },
    {
      "anonymous": false,
      "inputs": [
        {
          "indexed": false,
          "internalType": "bytes32",
          "name": "slashed",
          "type": "bytes32"
        },
        {
          "indexed": false,
          "internalType": "uint256",
          "name": "amount",
          "type": "uint256"
        }
      ],
      "name": "StakeSlashed",
      "type": "event"
    },
    {
      "anonymous": false,
      "inputs": [
        {
          "indexed": true,
          "internalType": "bytes32",
          "name": "overlay",
          "type": "bytes32"
        },
        {
          "indexed": false,
          "internalType": "uint256",
          "name": "stakeAmount",
          "type": "uint256"
        },
        {
          "indexed": false,
          "internalType": "address",
          "name": "owner",
          "type": "address"
        },
        {
          "indexed": false,
          "internalType": "uint256",
          "name": "lastUpdatedBlock",
          "type": "uint256"
        }
      ],
      "name": "StakeUpdated",
      "type": "event"
    },
    {
      "anonymous": false,
      "inputs": [
        {
          "indexed": false,
          "internalType": "address",
          "name": "account",
          "type": "address"
        }
      ],
      "name": "Unpaused",
      "type": "event"
    },
    {
      "inputs": [],
      "name": "DEFAULT_ADMIN_ROLE",
      "outputs": [
        {
          "internalType": "bytes32",
          "name": "",
          "type": "bytes32"
        }
      ],
      "stateMutability": "view",
      "type": "function"
    },
    {
      "inputs": [],
      "name": "PAUSER_ROLE",
      "outputs": [
        {
          "internalType": "bytes32",
          "name": "",
          "type": "bytes32"
        }
      ],
      "stateMutability": "view",
      "type": "function"
    },
    {
      "inputs": [],
      "name": "REDISTRIBUTOR_ROLE",
      "outputs": [
        {
          "internalType": "bytes32",
          "name": "",
          "type": "bytes32"
        }
      ],
      "stateMutability": "view",
      "type": "function"
    },
    {
      "inputs": [],
      "name": "bzzToken",
      "outputs": [
        {
          "internalType": "address",
          "name": "",
          "type": "address"
        }
      ],
      "stateMutability": "view",
      "type": "function"
    },
    {
      "inputs": [
        {
          "internalType": "address",
          "name": "_owner",
          "type": "address"
        },
        {
          "internalType": "bytes32",
          "name": "nonce",
          "type": "bytes32"
        },
        {
          "internalType": "uint256",
          "name": "amount",
          "type": "uint256"
        }
      ],
      "name": "depositStake",
      "outputs": [],
      "stateMutability": "nonpayable",
      "type": "function"
    },
    {
      "inputs": [
        {
          "internalType": "bytes32",
          "name": "overlay",
          "type": "bytes32"
        },
        {
          "internalType": "uint256",
          "name": "time",
          "type": "uint256"
        }
      ],
      "name": "freezeDeposit",
      "outputs": [],
      "stateMutability": "nonpayable",
      "type": "function"
    },
    {
      "inputs": [
        {
          "internalType": "bytes32",
          "name": "role",
          "type": "bytes32"
        }
      ],
      "name": "getRoleAdmin",
      "outputs": [
        {
          "internalType": "bytes32",
          "name": "",
          "type": "bytes32"
        }
      ],
      "stateMutability": "view",
      "type": "function"
    },
    {
      "inputs": [
        {
          "internalType": "bytes32",
          "name": "role",
          "type": "bytes32"
        },
        {
          "internalType": "address",
          "name": "account",
          "type": "address"
        }
      ],
      "name": "grantRole",
      "outputs": [],
      "stateMutability": "nonpayable",
      "type": "function"
    },
    {
      "inputs": [
        {
          "internalType": "bytes32",
          "name": "role",
          "type": "bytes32"
        },
        {
          "internalType": "address",
          "name": "account",
          "type": "address"
        }
      ],
      "name": "hasRole",
      "outputs": [
        {
          "internalType": "bool",
          "name": "",
          "type": "bool"
        }
      ],
      "stateMutability": "view",
      "type": "function"
    },
    {
      "inputs": [
        {
          "internalType": "bytes32",
          "name": "overlay",
          "type": "bytes32"
        }
      ],
      "name": "lastUpdatedBlockNumberOfOverlay",
      "outputs": [
        {
          "internalType": "uint256",
          "name": "",
          "type": "uint256"
        }
      ],
      "stateMutability": "view",
      "type": "function"
    },
    {
      "inputs": [
        {
          "internalType": "bytes32",
          "name": "overlay",
          "type": "bytes32"
        }
      ],
      "name": "ownerOfOverlay",
      "outputs": [
        {
          "internalType": "address",
          "name": "",
          "type": "address"
        }
      ],
      "stateMutability": "view",
      "type": "function"
    },
    {
      "inputs": [],
      "name": "pause",
      "outputs": [],
      "stateMutability": "nonpayable",
      "type": "function"
    },
    {
      "inputs": [],
      "name": "paused",
      "outputs": [
        {
          "internalType": "bool",
          "name": "",
          "type": "bool"
        }
      ],
      "stateMutability": "view",
      "type": "function"
    },
    {
      "inputs": [
        {
          "internalType": "bytes32",
          "name": "role",
          "type": "bytes32"
        },
        {
          "internalType": "address",
          "name": "account",
          "type": "address"
        }
      ],
      "name": "renounceRole",
      "outputs": [],
      "stateMutability": "nonpayable",
      "type": "function"
    },
    {
      "inputs": [
        {
          "internalType": "bytes32",
          "name": "role",
          "type": "bytes32"
        },
        {
          "internalType": "address",
          "name": "account",
          "type": "address"
        }
      ],
      "name": "revokeRole",
      "outputs": [],
      "stateMutability": "nonpayable",
      "type": "function"
    },
    {
      "inputs": [
        {
          "internalType": "bytes32",
          "name": "overlay",
          "type": "bytes32"
        },
        {
          "internalType": "uint256",
          "name": "amount",
          "type": "uint256"
        }
      ],
      "name": "slashDeposit",
      "outputs": [],
      "stateMutability": "nonpayable",
      "type": "function"
    },
    {
      "inputs": [
        {
          "internalType": "bytes32",
          "name": "overlay",
          "type": "bytes32"
        }
      ],
      "name": "stakeOfOverlay",
      "outputs": [
        {
          "internalType": "uint256",
          "name": "",
          "type": "uint256"
        }
      ],
      "stateMutability": "view",
      "type": "function"
    },
    {
      "inputs": [
        {
          "internalType": "bytes32",
          "name": "",
          "type": "bytes32"
        }
      ],
      "name": "stakes",
      "outputs": [
        {
          "internalType": "bytes32",
          "name": "overlay",
          "type": "bytes32"
        },
        {
          "internalType": "uint256",
          "name": "stakeAmount",
          "type": "uint256"
        },
        {
          "internalType": "address",
          "name": "owner",
          "type": "address"
        },
        {
          "internalType": "uint256",
          "name": "lastUpdatedBlockNumber",
          "type": "uint256"
        },
        {
          "internalType": "bool",
          "name": "isValue",
          "type": "bool"
        }
      ],
      "stateMutability": "view",
      "type": "function"
    },
    {
      "inputs": [
        {
          "internalType": "bytes4",
          "name": "interfaceId",
          "type": "bytes4"
        }
      ],
      "name": "supportsInterface",
      "outputs": [
        {
          "internalType": "bool",
          "name": "",
          "type": "bool"
        }
      ],
      "stateMutability": "view",
      "type": "function"
    },
    {
      "inputs": [],
      "name": "unPause",
      "outputs": [],
      "stateMutability": "nonpayable",
      "type": "function"
    },
    {
      "inputs": [
        {
          "internalType": "bytes32",
          "name": "overlay",
          "type": "bytes32"
        }
      ],
      "name": "usableStakeOfOverlay",
      "outputs": [
        {
          "internalType": "uint256",
          "name": "",
          "type": "uint256"
        }
      ],
      "stateMutability": "view",
      "type": "function"
    },
    {
      "inputs": [
        {
          "internalType": "bytes32",
          "name": "overlay",
          "type": "bytes32"
        },
        {
          "internalType": "uint256",
          "name": "amount",
          "type": "uint256"
        }
      ],
      "name": "withdrawFromStake",
      "outputs": [],
      "stateMutability": "nonpayable",
      "type": "function"
    }
  ],
  "transactionHash": "0xed9f492e341515c8339d40ad896c94445078a430cf9c0f373c395598fc3ac221",
  "args": [
    "0xa66be4A7De4DfA5478Cb2308469D90115C45aA23",
    10,
    "0xb1C7F17Ed88189Abf269Bf68A3B2Ed83C5276aAe"
  ],
  "numDeployments": 1,
  "solcInputHash": "e01c5c249d0758ea8c726cc6f6ca793d",
  "bytecode": "0x60806040523480156200001157600080fd5b5060405162001903380380620019038339810160408190526200003491620001a2565b6001805460ff19169055600380546001600160401b0319166001600160401b03841617600160401b600160e01b031916680100000000000000006001600160a01b0386160217905562000089600082620000be565b620000b57f65d7a28e3265b37a6474929f336521b332c1681b933f6cb9f3376673440d862a33620000be565b505050620001f8565b620000ca8282620000ce565b5050565b620000da828262000158565b620000ca576000828152602081815260408083206001600160a01b03851684529091529020805460ff191660011790556200011462000181565b6001600160a01b0316816001600160a01b0316837f2f8788117e7eff1d82e926ec794901d17c78024a50270940304540a733656f0d60405160405180910390a45050565b6000918252602082815260408084206001600160a01b0393909316845291905290205460ff1690565b3390565b80516001600160a01b03811681146200019d57600080fd5b919050565b600080600060608486031215620001b7578283fd5b620001c28462000185565b60208501519093506001600160401b0381168114620001df578283fd5b9150620001ef6040850162000185565b90509250925092565b6116fb80620002086000396000f3fe608060405234801561001057600080fd5b50600436106101425760003560e01c806391d14854116100b8578063abe385431161007c578063abe3854314610283578063d547741f14610296578063e34c4527146102a9578063e63ab1e9146102bc578063ede41302146102c4578063f7b188a5146102d757610142565b806391d148541461023a578063a0d22b211461024d578063a217fddf14610260578063a6471a1d14610268578063a6ce31d41461027057610142565b8063420fc4db1161010a578063420fc4db146101cb57806348962b93146101e05780635c975abb146101f3578063837fd16a146101fb5780638456cb591461020e5780638fee64071461021657610142565b806301ffc9a7146101475780631ed2cd4014610170578063248a9ca3146101855780632f2ff15d146101a557806336568abe146101b8575b600080fd5b61015a610155366004611193565b6102df565b60405161016791906112b8565b60405180910390f35b61018361017e3660046110dd565b61030c565b005b61019861019336600461112f565b610560565b60405161016791906112c3565b6101836101b3366004611147565b610575565b6101836101c6366004611147565b610596565b6101d36105dc565b6040516101679190611267565b6101986101ee36600461112f565b6105f2565b61015a610607565b610183610209366004611172565b610610565b6101836106c9565b61022961022436600461112f565b610719565b6040516101679594939291906112da565b61015a610248366004611147565b610755565b6101d361025b36600461112f565b61077e565b61019861079d565b6101986107a2565b61018361027e366004611172565b6107c6565b61019861029136600461112f565b6108f9565b6101836102a4366004611147565b610925565b6101836102b7366004611172565b610941565b610198610b94565b6101986102d236600461112f565b610bb8565b610183610bcd565b60006001600160e01b03198216637965db0b60e01b1480610304575061030482610c1b565b90505b919050565b610314610c34565b6001600160a01b03831633146103455760405162461bcd60e51b815260040161033c9061154c565b60405180910390fd5b60035460009084906103609067ffffffffffffffff16610c59565b84604051602001610373939291906111bb565b60408051601f19818403018152918152815160209283012060008181526002909352912060040154909150829060ff16156103ec576103b182610cb8565b6103cd5760405162461bcd60e51b815260040161033c90611515565b6000828152600260205260409020600101546103e9908461161a565b90505b6003546040516323b872dd60e01b8152600160401b9091046001600160a01b0316906323b872dd906104269033903090889060040161127b565b602060405180830381600087803b15801561044057600080fd5b505af1158015610454573d6000803e3d6000fd5b505050506040513d601f19601f82011682018060405250810190610478919061110f565b6104945760405162461bcd60e51b815260040161033c90611583565b817f61e979698346a2aa868a3a9f08d30c846174841dc9b074bbf2a82d20554bc6828287436040516104c8939291906115fb565b60405180910390a26040805160a08101825283815260208082019384526001600160a01b03978816828401908152436060840190815260016080850181815260009889526002948590529590972093518455945195830195909555935193810180546001600160a01b031916949097169390931790955551600382015592516004909301805460ff1916931515939093179092555050565b60009081526020819052604090206001015490565b61057e82610560565b61058781610ccf565b6105918383610ce3565b505050565b61059e610d68565b6001600160a01b0316816001600160a01b0316146105ce5760405162461bcd60e51b815260040161033c906115ac565b6105d88282610d6c565b5050565b600354600160401b90046001600160a01b031681565b60009081526002602052604090206001015490565b60015460ff1690565b61063a7f3e35b14a9f4fef84b59f9bdcd3044fc28783144b7e42bfb2cd075e6a02cb082833610755565b6106565760405162461bcd60e51b815260040161033c90611490565b60008281526002602052604090206004015460ff16156105d8577f340439a63c1ee2404f5b7010cab559b4dcbfc28b8baab9acade354fd688ae2b982826040516106a19291906112cc565b60405180910390a16106b3814361161a565b6000838152600260205260409020600301555050565b6106f37f65d7a28e3265b37a6474929f336521b332c1681b933f6cb9f3376673440d862a33610755565b61070f5760405162461bcd60e51b815260040161033c9061139b565b610717610def565b565b6002602081905260009182526040909120805460018201549282015460038301546004909301549193926001600160a01b039091169160ff1685565b6000918252602082815260408084206001600160a01b0393909316845291905290205460ff1690565b600090815260026020819052604090912001546001600160a01b031690565b600081565b7f3e35b14a9f4fef84b59f9bdcd3044fc28783144b7e42bfb2cd075e6a02cb082881565b6107f07f3e35b14a9f4fef84b59f9bdcd3044fc28783144b7e42bfb2cd075e6a02cb082833610755565b61080c5760405162461bcd60e51b815260040161033c906114d3565b7f0956b50d4d586f6b9c90800d4e713bd2b866e044decd047e6d70ea20314ab308828260405161083d9291906112cc565b60405180910390a160008281526002602052604090206004015460ff16156105d8576000828152600260205260409020600101548110156108b85760008281526002602052604081206001018054839290610899908490611651565b90915550506000828152600260205260409020436003909101556105d8565b50600090815260026020819052604082208281556001810183905590810180546001600160a01b03191690556003810191909155600401805460ff19169055565b600061090482610cb8565b61090f576000610304565b5060009081526002602052604090206001015490565b61092e82610560565b61093781610ccf565b6105918383610d6c565b610949610e43565b600082815260026020819052604090912001546001600160a01b031633146109835760405162461bcd60e51b815260040161033c90611459565b60008281526002602052604090206001015481908111156109b257506000828152600260205260409020600101545b600083815260026020526040902060010154811015610ab057600083815260026020526040812060010180548392906109ec908490611651565b9091555050600083815260026020526040908190204360039182015554905163a9059cbb60e01b8152600160401b9091046001600160a01b03169063a9059cbb90610a3d903390859060040161129f565b602060405180830381600087803b158015610a5757600080fd5b505af1158015610a6b573d6000803e3d6000fd5b505050506040513d601f19601f82011682018060405250810190610a8f919061110f565b610aab5760405162461bcd60e51b815260040161033c90611370565b610591565b60008381526002602081905260408083208381556001810184905591820180546001600160a01b03191690556003808301939093556004918201805460ff191690559154915163a9059cbb60e01b8152600160401b9092046001600160a01b03169163a9059cbb91610b2691339186910161129f565b602060405180830381600087803b158015610b4057600080fd5b505af1158015610b54573d6000803e3d6000fd5b505050506040513d601f19601f82011682018060405250810190610b78919061110f565b6105915760405162461bcd60e51b815260040161033c90611370565b7f65d7a28e3265b37a6474929f336521b332c1681b933f6cb9f3376673440d862a81565b60009081526002602052604090206003015490565b610bf77f65d7a28e3265b37a6474929f336521b332c1681b933f6cb9f3376673440d862a33610755565b610c135760405162461bcd60e51b815260040161033c906113f8565b610717610e67565b6001600160e01b031981166301ffc9a760e01b14919050565b610c3c610607565b156107175760405162461bcd60e51b815260040161033c9061142f565b600881811b67ff00ff00ff00ff001666ff00ff00ff00ff9290911c9190911617601081811b67ffff0000ffff00001665ffff0000ffff9290911c9190911617602081811b6bffffffffffffffff000000001691901c63ffffffff161790565b600090815260026020526040902060030154431190565b610ce081610cdb610d68565b610ea2565b50565b610ced8282610755565b6105d8576000828152602081815260408083206001600160a01b03851684529091529020805460ff19166001179055610d24610d68565b6001600160a01b0316816001600160a01b0316837f2f8788117e7eff1d82e926ec794901d17c78024a50270940304540a733656f0d60405160405180910390a45050565b3390565b610d768282610755565b156105d8576000828152602081815260408083206001600160a01b03851684529091529020805460ff19169055610dab610d68565b6001600160a01b0316816001600160a01b0316837ff6391f5c32d9c69d2a47ea670b442974b53935d1edc7fd64eb21e047a839171b60405160405180910390a45050565b610df7610c34565b6001805460ff1916811790557f62e78cea01bee320cd4e420270b5ea74000d11b0c9f74754ebdbfc544b05a258610e2c610d68565b604051610e399190611267565b60405180910390a1565b610e4b610607565b6107175760405162461bcd60e51b815260040161033c906113ca565b610e6f610e43565b6001805460ff191690557f5db9ee0a495bf2e6ff9c91a7834c1ba4fdd244a5e8aa4e537bd38aeae4b073aa610e2c610d68565b610eac8282610755565b6105d857610eb981610efb565b610ec4836020610f0d565b604051602001610ed59291906111f2565b60408051601f198184030181529082905262461bcd60e51b825261033c91600401611308565b60606103046001600160a01b03831660145b60606000610f1c836002611632565b610f2790600261161a565b67ffffffffffffffff811115610f4d57634e487b7160e01b600052604160045260246000fd5b6040519080825280601f01601f191660200182016040528015610f77576020820181803683370190505b509050600360fc1b81600081518110610fa057634e487b7160e01b600052603260045260246000fd5b60200101906001600160f81b031916908160001a905350600f60fb1b81600181518110610fdd57634e487b7160e01b600052603260045260246000fd5b60200101906001600160f81b031916908160001a9053506000611001846002611632565b61100c90600161161a565b90505b60018111156110a0576f181899199a1a9b1b9c1cb0b131b232b360811b85600f166010811061104e57634e487b7160e01b600052603260045260246000fd5b1a60f81b82828151811061107257634e487b7160e01b600052603260045260246000fd5b60200101906001600160f81b031916908160001a90535060049490941c9361109981611698565b905061100f565b5083156110bf5760405162461bcd60e51b815260040161033c9061133b565b9392505050565b80356001600160a01b038116811461030757600080fd5b6000806000606084860312156110f1578283fd5b6110fa846110c6565b95602085013595506040909401359392505050565b600060208284031215611120578081fd5b815180151581146110bf578182fd5b600060208284031215611140578081fd5b5035919050565b60008060408385031215611159578182fd5b82359150611169602084016110c6565b90509250929050565b60008060408385031215611184578182fd5b50508035926020909101359150565b6000602082840312156111a4578081fd5b81356001600160e01b0319811681146110bf578182fd5b60609390931b6bffffffffffffffffffffffff1916835260c09190911b6001600160c01b0319166014830152601c820152603c0190565b60007f416363657373436f6e74726f6c3a206163636f756e74200000000000000000008252835161122a816017850160208801611668565b7001034b99036b4b9b9b4b733903937b6329607d1b601791840191820152835161125b816028840160208801611668565b01602801949350505050565b6001600160a01b0391909116815260200190565b6001600160a01b039384168152919092166020820152604081019190915260600190565b6001600160a01b03929092168252602082015260400190565b901515815260200190565b90815260200190565b918252602082015260400190565b94855260208501939093526001600160a01b0391909116604084015260608301521515608082015260a00190565b6000602082528251806020840152611327816040850160208701611668565b601f01601f19169190910160400192915050565b6020808252818101527f537472696e67733a20686578206c656e67746820696e73756666696369656e74604082015260600190565b60208082526011908201527019985a5b1959081dda5d1a191c985dd85b607a1b604082015260600190565b6020808252601590820152746f6e6c79207061757365722063616e20706175736560581b604082015260600190565b60208082526014908201527314185d5cd8589b194e881b9bdd081c185d5cd95960621b604082015260600190565b60208082526017908201527f6f6e6c79207061757365722063616e20756e7061757365000000000000000000604082015260600190565b60208082526010908201526f14185d5cd8589b194e881c185d5cd95960821b604082015260600190565b6020808252601d908201527f6f6e6c79206f776e65722063616e207769746864726177207374616b65000000604082015260600190565b60208082526023908201527f6f6e6c792072656469737472696275746f722063616e20667265657a65207374604082015262616b6560e81b606082015260800190565b60208082526022908201527f6f6e6c792072656469737472696275746f722063616e20736c617368207374616040820152616b6560f01b606082015260800190565b60208082526018908201527f6f7665726c61792063757272656e746c792066726f7a656e0000000000000000604082015260600190565b6020808252601b908201527f6f6e6c79206f776e65722063616e20757064617465207374616b650000000000604082015260600190565b6020808252600f908201526e3330b4b632b2103a3930b739b332b960891b604082015260600190565b6020808252602f908201527f416363657373436f6e74726f6c3a2063616e206f6e6c792072656e6f756e636560408201526e103937b632b9903337b91039b2b63360891b606082015260800190565b9283526001600160a01b03919091166020830152604082015260600190565b6000821982111561162d5761162d6116af565b500190565b600081600019048311821515161561164c5761164c6116af565b500290565b600082821015611663576116636116af565b500390565b60005b8381101561168357818101518382015260200161166b565b83811115611692576000848401525b50505050565b6000816116a7576116a76116af565b506000190190565b634e487b7160e01b600052601160045260246000fdfea2646970667358221220a4fa835fec4fa1fa1952a1ffc3a89315a7774a5a0318eb8100197655c638624964736f6c63430008010033",
  "devdoc": {
    "author": "The Swarm Authors",
    "details": "Allows users to stake tokens in order to be eligible for the Redistribution Schelling co-ordination game. Stakes are not withdrawable unless the contract is paused, e.g. in the event of migration to a new staking contract. Stakes are frozen or slashed by the Redistribution contract in response to violations of the protocol.",
    "events": {
      "StakeFrozen(bytes32,uint256)": {
        "details": "Emitted when a stake for overlay `frozen` for `time` blocks."
      },
      "StakeSlashed(bytes32,uint256)": {
        "details": "Emitted when a stake for overlay `slashed` is slashed by `amount`."
      },
      "StakeUpdated(bytes32,uint256,address,uint256)": {
        "details": "Emitted when a stake is created or updated by `owner` of the `overlay` by `stakeamount`, during `lastUpdatedBlock`."
      }
    },
    "kind": "dev",
    "methods": {
      "constructor": {
        "params": {
          "_NetworkId": "Swarm network ID",
          "_bzzToken": "Address of the staked ERC20 token"
        }
      },
      "depositStake(address,bytes32,uint256)": {
        "details": "At least `_initialBalancePerChunk*2^depth` number of tokens need to be preapproved for this contract.",
        "params": {
          "_owner": "Eth address used for overlay calculation.",
          "amount": "Deposited amount of ERC20 tokens.",
          "nonce": "Nonce that was used for overlay calculation."
        }
      },
      "freezeDeposit(bytes32,uint256)": {
        "details": "Freeze an existing stake, can only be called by the redistributor",
        "params": {
          "overlay": "the overlay selected",
          "time": "penalty length in blocknumbers"
        }
      },
      "getRoleAdmin(bytes32)": {
        "details": "Returns the admin role that controls `role`. See {grantRole} and {revokeRole}. To change a role's admin, use {_setRoleAdmin}."
      },
      "grantRole(bytes32,address)": {
        "details": "Grants `role` to `account`. If `account` had not been already granted `role`, emits a {RoleGranted} event. Requirements: - the caller must have ``role``'s admin role. May emit a {RoleGranted} event."
      },
      "hasRole(bytes32,address)": {
        "details": "Returns `true` if `account` has been granted `role`."
      },
      "lastUpdatedBlockNumberOfOverlay(bytes32)": {
        "details": "Returns the `lastUpdatedBlockNumber` of `overlay`."
      },
      "ownerOfOverlay(bytes32)": {
        "details": "Returns the eth address of the owner of `overlay`.",
        "params": {
          "overlay": "Overlay of node"
        }
      },
      "pause()": {
        "details": "Pause the contract. The contract is provably stopped by renouncing the pauser role and the admin role after pausing, can only be called by the `PAUSER`"
      },
      "paused()": {
        "details": "Returns true if the contract is paused, and false otherwise."
      },
      "renounceRole(bytes32,address)": {
        "details": "Revokes `role` from the calling account. Roles are often managed via {grantRole} and {revokeRole}: this function's purpose is to provide a mechanism for accounts to lose their privileges if they are compromised (such as when a trusted device is misplaced). If the calling account had been revoked `role`, emits a {RoleRevoked} event. Requirements: - the caller must be `account`. May emit a {RoleRevoked} event."
      },
      "revokeRole(bytes32,address)": {
        "details": "Revokes `role` from `account`. If `account` had been granted `role`, emits a {RoleRevoked} event. Requirements: - the caller must have ``role``'s admin role. May emit a {RoleRevoked} event."
      },
      "slashDeposit(bytes32,uint256)": {
        "details": "Slash an existing stake, can only be called by the `redistributor`",
        "params": {
          "amount": "the amount to be slashed",
          "overlay": "the overlay selected"
        }
      },
      "stakeOfOverlay(bytes32)": {
        "details": "Returns the current `stakeAmount` of `overlay`.",
        "params": {
          "overlay": "Overlay of node"
        }
      },
      "supportsInterface(bytes4)": {
        "details": "See {IERC165-supportsInterface}."
      },
      "unPause()": {
        "details": "Unpause the contract, can only be called by the pauser when paused"
      },
      "usableStakeOfOverlay(bytes32)": {
        "details": "Returns the current usable `stakeAmount` of `overlay`. Checks whether the stake is currently frozen.",
        "params": {
          "overlay": "Overlay of node"
        }
      },
      "withdrawFromStake(bytes32,uint256)": {
        "details": "Withdraw stake only when the staking contract is paused, can only be called by the owner specific to the associated `overlay`",
        "params": {
          "amount": "The amount of ERC20 tokens to be withdrawn",
          "overlay": "The overlay to withdraw from"
        }
      }
    },
    "title": "Staking contract for the Swarm storage incentives",
    "version": 1
  },
  "userdoc": {
    "kind": "user",
    "methods": {
      "depositStake(address,bytes32,uint256)": {
        "notice": "Create a new stake or update an existing one."
      }
    },
    "version": 1
  },
  "storageLayout": {
    "storage": [
      {
        "astId": 24,
        "contract": "src/Staking.sol:StakeRegistry",
        "label": "_roles",
        "offset": 0,
        "slot": "0",
        "type": "t_mapping(t_bytes32,t_struct(RoleData)19_storage)"
      },
      {
        "astId": 556,
        "contract": "src/Staking.sol:StakeRegistry",
        "label": "_paused",
        "offset": 0,
        "slot": "1",
        "type": "t_bool"
      },
      {
        "astId": 8463,
        "contract": "src/Staking.sol:StakeRegistry",
        "label": "stakes",
        "offset": 0,
        "slot": "2",
        "type": "t_mapping(t_bytes32,t_struct(Stake)8458_storage)"
      },
      {
        "astId": 8475,
        "contract": "src/Staking.sol:StakeRegistry",
        "label": "NetworkId",
        "offset": 0,
        "slot": "3",
        "type": "t_uint64"
      },
      {
        "astId": 8477,
        "contract": "src/Staking.sol:StakeRegistry",
        "label": "bzzToken",
        "offset": 8,
        "slot": "3",
        "type": "t_address"
      }
    ],
    "types": {
      "t_address": {
        "encoding": "inplace",
        "label": "address",
        "numberOfBytes": "20"
      },
      "t_bool": {
        "encoding": "inplace",
        "label": "bool",
        "numberOfBytes": "1"
      },
      "t_bytes32": {
        "encoding": "inplace",
        "label": "bytes32",
        "numberOfBytes": "32"
      },
      "t_mapping(t_address,t_bool)": {
        "encoding": "mapping",
        "key": "t_address",
        "label": "mapping(address => bool)",
        "numberOfBytes": "32",
        "value": "t_bool"
      },
      "t_mapping(t_bytes32,t_struct(RoleData)19_storage)": {
        "encoding": "mapping",
        "key": "t_bytes32",
        "label": "mapping(bytes32 => struct AccessControl.RoleData)",
        "numberOfBytes": "32",
        "value": "t_struct(RoleData)19_storage"
      },
      "t_mapping(t_bytes32,t_struct(Stake)8458_storage)": {
        "encoding": "mapping",
        "key": "t_bytes32",
        "label": "mapping(bytes32 => struct StakeRegistry.Stake)",
        "numberOfBytes": "32",
        "value": "t_struct(Stake)8458_storage"
      },
      "t_struct(RoleData)19_storage": {
        "encoding": "inplace",
        "label": "struct AccessControl.RoleData",
        "members": [
          {
            "astId": 16,
            "contract": "src/Staking.sol:StakeRegistry",
            "label": "members",
            "offset": 0,
            "slot": "0",
            "type": "t_mapping(t_address,t_bool)"
          },
          {
            "astId": 18,
            "contract": "src/Staking.sol:StakeRegistry",
            "label": "adminRole",
            "offset": 0,
            "slot": "1",
            "type": "t_bytes32"
          }
        ],
        "numberOfBytes": "64"
      },
      "t_struct(Stake)8458_storage": {
        "encoding": "inplace",
        "label": "struct StakeRegistry.Stake",
        "members": [
          {
            "astId": 8449,
            "contract": "src/Staking.sol:StakeRegistry",
            "label": "overlay",
            "offset": 0,
            "slot": "0",
            "type": "t_bytes32"
          },
          {
            "astId": 8451,
            "contract": "src/Staking.sol:StakeRegistry",
            "label": "stakeAmount",
            "offset": 0,
            "slot": "1",
            "type": "t_uint256"
          },
          {
            "astId": 8453,
            "contract": "src/Staking.sol:StakeRegistry",
            "label": "owner",
            "offset": 0,
            "slot": "2",
            "type": "t_address"
          },
          {
            "astId": 8455,
            "contract": "src/Staking.sol:StakeRegistry",
            "label": "lastUpdatedBlockNumber",
            "offset": 0,
            "slot": "3",
            "type": "t_uint256"
          },
          {
            "astId": 8457,
            "contract": "src/Staking.sol:StakeRegistry",
            "label": "isValue",
            "offset": 0,
            "slot": "4",
            "type": "t_bool"
          }
        ],
        "numberOfBytes": "160"
      },
      "t_uint256": {
        "encoding": "inplace",
        "label": "uint256",
        "numberOfBytes": "32"
      },
      "t_uint64": {
        "encoding": "inplace",
        "label": "uint64",
        "numberOfBytes": "8"
      }
    }
  }
}