{
  "address": "0x2e9873B73376d20C54E4990b317cEAA7F2ab87c3",
  "abi": [
    {
      "inputs": [
        {
          "internalType": "address",
          "name": "_bzzToken",
          "type": "address"
        },
        {
          "internalType": "uint64",
          "name": "_NetworkId",
          "type": "uint64"
        },
        {
          "internalType": "address",
          "name": "_oracleContract",
          "type": "address"
        }
      ],
      "stateMutability": "nonpayable",
      "type": "constructor"
    },
    {
      "inputs": [],
      "name": "BelowMinimumStake",
      "type": "error"
    },
    {
      "inputs": [],
      "name": "Frozen",
      "type": "error"
    },
    {
      "inputs": [],
      "name": "OnlyPauser",
      "type": "error"
    },
    {
      "inputs": [],
      "name": "OnlyRedistributor",
      "type": "error"
    },
    {
      "inputs": [],
      "name": "TransferFailed",
      "type": "error"
    },
    {
      "inputs": [],
      "name": "Unauthorized",
      "type": "error"
    },
    {
      "anonymous": false,
      "inputs": [
        {
          "indexed": false,
          "internalType": "address",
          "name": "owner",
          "type": "address"
        },
        {
          "indexed": false,
          "internalType": "bytes32",
          "name": "overlay",
          "type": "bytes32"
        }
      ],
      "name": "OverlayChanged",
      "type": "event"
    },
    {
      "anonymous": false,
      "inputs": [
        {
          "indexed": false,
          "internalType": "address",
          "name": "account",
          "type": "address"
        }
      ],
      "name": "Paused",
      "type": "event"
    },
    {
      "anonymous": false,
      "inputs": [
        {
          "indexed": true,
          "internalType": "bytes32",
          "name": "role",
          "type": "bytes32"
        },
        {
          "indexed": true,
          "internalType": "bytes32",
          "name": "previousAdminRole",
          "type": "bytes32"
        },
        {
          "indexed": true,
          "internalType": "bytes32",
          "name": "newAdminRole",
          "type": "bytes32"
        }
      ],
      "name": "RoleAdminChanged",
      "type": "event"
    },
    {
      "anonymous": false,
      "inputs": [
        {
          "indexed": true,
          "internalType": "bytes32",
          "name": "role",
          "type": "bytes32"
        },
        {
          "indexed": true,
          "internalType": "address",
          "name": "account",
          "type": "address"
        },
        {
          "indexed": true,
          "internalType": "address",
          "name": "sender",
          "type": "address"
        }
      ],
      "name": "RoleGranted",
      "type": "event"
    },
    {
      "anonymous": false,
      "inputs": [
        {
          "indexed": true,
          "internalType": "bytes32",
          "name": "role",
          "type": "bytes32"
        },
        {
          "indexed": true,
          "internalType": "address",
          "name": "account",
          "type": "address"
        },
        {
          "indexed": true,
          "internalType": "address",
          "name": "sender",
          "type": "address"
        }
      ],
      "name": "RoleRevoked",
      "type": "event"
    },
    {
      "anonymous": false,
      "inputs": [
        {
          "indexed": false,
          "internalType": "address",
          "name": "frozen",
          "type": "address"
        },
        {
          "indexed": false,
          "internalType": "bytes32",
          "name": "overlay",
          "type": "bytes32"
        },
        {
          "indexed": false,
          "internalType": "uint256",
          "name": "time",
          "type": "uint256"
        }
      ],
      "name": "StakeFrozen",
      "type": "event"
    },
    {
      "anonymous": false,
      "inputs": [
        {
          "indexed": false,
          "internalType": "address",
          "name": "slashed",
          "type": "address"
        },
        {
          "indexed": false,
          "internalType": "bytes32",
          "name": "overlay",
          "type": "bytes32"
        },
        {
          "indexed": false,
          "internalType": "uint256",
          "name": "amount",
          "type": "uint256"
        }
      ],
      "name": "StakeSlashed",
      "type": "event"
    },
    {
      "anonymous": false,
      "inputs": [
        {
          "indexed": true,
          "internalType": "address",
          "name": "owner",
          "type": "address"
        },
        {
          "indexed": false,
          "internalType": "uint256",
          "name": "committedStake",
          "type": "uint256"
        },
        {
          "indexed": false,
          "internalType": "uint256",
          "name": "potentialStake",
          "type": "uint256"
        },
        {
          "indexed": false,
          "internalType": "bytes32",
          "name": "overlay",
          "type": "bytes32"
        },
        {
          "indexed": false,
          "internalType": "uint256",
          "name": "lastUpdatedBlock",
          "type": "uint256"
        },
        {
          "indexed": false,
          "internalType": "uint8",
          "name": "height",
          "type": "uint8"
        }
      ],
      "name": "StakeUpdated",
      "type": "event"
    },
    {
      "anonymous": false,
      "inputs": [
        {
          "indexed": false,
          "internalType": "address",
          "name": "node",
          "type": "address"
        },
        {
          "indexed": false,
          "internalType": "uint256",
          "name": "amount",
          "type": "uint256"
        }
      ],
      "name": "StakeWithdrawn",
      "type": "event"
    },
    {
      "anonymous": false,
      "inputs": [
        {
          "indexed": false,
          "internalType": "address",
          "name": "account",
          "type": "address"
        }
      ],
      "name": "Unpaused",
      "type": "event"
    },
    {
      "inputs": [],
      "name": "DEFAULT_ADMIN_ROLE",
      "outputs": [
        {
          "internalType": "bytes32",
          "name": "",
          "type": "bytes32"
        }
      ],
      "stateMutability": "view",
      "type": "function"
    },
    {
      "inputs": [],
      "name": "OracleContract",
      "outputs": [
        {
          "internalType": "contract IPriceOracle",
          "name": "",
          "type": "address"
        }
      ],
      "stateMutability": "view",
      "type": "function"
    },
    {
      "inputs": [],
      "name": "REDISTRIBUTOR_ROLE",
      "outputs": [
        {
          "internalType": "bytes32",
          "name": "",
          "type": "bytes32"
        }
      ],
      "stateMutability": "view",
      "type": "function"
    },
    {
      "inputs": [],
      "name": "bzzToken",
      "outputs": [
        {
          "internalType": "address",
          "name": "",
          "type": "address"
        }
      ],
      "stateMutability": "view",
      "type": "function"
    },
    {
      "inputs": [
        {
          "internalType": "uint64",
          "name": "_NetworkId",
          "type": "uint64"
        }
      ],
      "name": "changeNetworkId",
      "outputs": [],
      "stateMutability": "nonpayable",
      "type": "function"
    },
    {
      "inputs": [
        {
          "internalType": "address",
          "name": "_owner",
          "type": "address"
        },
        {
          "internalType": "uint256",
          "name": "_time",
          "type": "uint256"
        }
      ],
      "name": "freezeDeposit",
      "outputs": [],
      "stateMutability": "nonpayable",
      "type": "function"
    },
    {
      "inputs": [
        {
          "internalType": "bytes32",
          "name": "role",
          "type": "bytes32"
        }
      ],
      "name": "getRoleAdmin",
      "outputs": [
        {
          "internalType": "bytes32",
          "name": "",
          "type": "bytes32"
        }
      ],
      "stateMutability": "view",
      "type": "function"
    },
    {
      "inputs": [
        {
          "internalType": "bytes32",
          "name": "role",
          "type": "bytes32"
        },
        {
          "internalType": "address",
          "name": "account",
          "type": "address"
        }
      ],
      "name": "grantRole",
      "outputs": [],
      "stateMutability": "nonpayable",
      "type": "function"
    },
    {
      "inputs": [
        {
          "internalType": "bytes32",
          "name": "role",
          "type": "bytes32"
        },
        {
          "internalType": "address",
          "name": "account",
          "type": "address"
        }
      ],
      "name": "hasRole",
      "outputs": [
        {
          "internalType": "bool",
          "name": "",
          "type": "bool"
        }
      ],
      "stateMutability": "view",
      "type": "function"
    },
    {
      "inputs": [
        {
          "internalType": "address",
          "name": "_owner",
          "type": "address"
        }
      ],
      "name": "heightOfAddress",
      "outputs": [
        {
          "internalType": "uint8",
          "name": "",
          "type": "uint8"
        }
      ],
      "stateMutability": "view",
      "type": "function"
    },
    {
      "inputs": [
        {
          "internalType": "address",
          "name": "_owner",
          "type": "address"
        }
      ],
      "name": "lastUpdatedBlockNumberOfAddress",
      "outputs": [
        {
          "internalType": "uint256",
          "name": "",
          "type": "uint256"
        }
      ],
      "stateMutability": "view",
      "type": "function"
    },
    {
      "inputs": [
        {
          "internalType": "bytes32",
          "name": "_setNonce",
          "type": "bytes32"
        },
        {
          "internalType": "uint256",
          "name": "_addAmount",
          "type": "uint256"
        },
        {
          "internalType": "uint8",
          "name": "_height",
          "type": "uint8"
        }
      ],
      "name": "manageStake",
      "outputs": [],
      "stateMutability": "nonpayable",
      "type": "function"
    },
    {
      "inputs": [],
      "name": "migrateStake",
      "outputs": [],
      "stateMutability": "nonpayable",
      "type": "function"
    },
    {
      "inputs": [
        {
          "internalType": "address",
          "name": "_owner",
          "type": "address"
        }
      ],
      "name": "nodeEffectiveStake",
      "outputs": [
        {
          "internalType": "uint256",
          "name": "",
          "type": "uint256"
        }
      ],
      "stateMutability": "view",
      "type": "function"
    },
    {
      "inputs": [
        {
          "internalType": "address",
          "name": "_owner",
          "type": "address"
        }
      ],
      "name": "overlayOfAddress",
      "outputs": [
        {
          "internalType": "bytes32",
          "name": "",
          "type": "bytes32"
        }
      ],
      "stateMutability": "view",
      "type": "function"
    },
    {
      "inputs": [],
      "name": "pause",
      "outputs": [],
      "stateMutability": "nonpayable",
      "type": "function"
    },
    {
      "inputs": [],
      "name": "paused",
      "outputs": [
        {
          "internalType": "bool",
          "name": "",
          "type": "bool"
        }
      ],
      "stateMutability": "view",
      "type": "function"
    },
    {
      "inputs": [
        {
          "internalType": "bytes32",
          "name": "role",
          "type": "bytes32"
        },
        {
          "internalType": "address",
          "name": "account",
          "type": "address"
        }
      ],
      "name": "renounceRole",
      "outputs": [],
      "stateMutability": "nonpayable",
      "type": "function"
    },
    {
      "inputs": [
        {
          "internalType": "bytes32",
          "name": "role",
          "type": "bytes32"
        },
        {
          "internalType": "address",
          "name": "account",
          "type": "address"
        }
      ],
      "name": "revokeRole",
      "outputs": [],
      "stateMutability": "nonpayable",
      "type": "function"
    },
    {
      "inputs": [
        {
          "internalType": "address",
          "name": "_owner",
          "type": "address"
        },
        {
          "internalType": "uint256",
          "name": "_amount",
          "type": "uint256"
        }
      ],
      "name": "slashDeposit",
      "outputs": [],
      "stateMutability": "nonpayable",
      "type": "function"
    },
    {
      "inputs": [
        {
          "internalType": "address",
          "name": "",
          "type": "address"
        }
      ],
      "name": "stakes",
      "outputs": [
        {
          "internalType": "bytes32",
          "name": "overlay",
          "type": "bytes32"
        },
        {
          "internalType": "uint256",
          "name": "committedStake",
          "type": "uint256"
        },
        {
          "internalType": "uint256",
          "name": "potentialStake",
          "type": "uint256"
        },
        {
          "internalType": "uint256",
          "name": "lastUpdatedBlockNumber",
          "type": "uint256"
        },
        {
          "internalType": "uint8",
          "name": "height",
          "type": "uint8"
        }
      ],
      "stateMutability": "view",
      "type": "function"
    },
    {
      "inputs": [
        {
          "internalType": "bytes4",
          "name": "interfaceId",
          "type": "bytes4"
        }
      ],
      "name": "supportsInterface",
      "outputs": [
        {
          "internalType": "bool",
          "name": "",
          "type": "bool"
        }
      ],
      "stateMutability": "view",
      "type": "function"
    },
    {
      "inputs": [],
      "name": "unPause",
      "outputs": [],
      "stateMutability": "nonpayable",
      "type": "function"
    },
    {
      "inputs": [],
      "name": "withdrawFromStake",
      "outputs": [],
      "stateMutability": "nonpayable",
      "type": "function"
    },
    {
      "inputs": [],
      "name": "withdrawableStake",
      "outputs": [
        {
          "internalType": "uint256",
          "name": "",
          "type": "uint256"
        }
      ],
      "stateMutability": "view",
      "type": "function"
    }
  ],
  "transactionHash": "0x9583f792f939dff1b1c4b40d1c4f4563c876ecbde60e96c312de3ed7ea527962",
  "args": [
    "0x543dDb01Ba47acB11de34891cD86B675F04840db",
    10,
    "0x47B134D38Ab0a89D561CF393fC370f2099AE0c4B"
  ],
  "numDeployments": 6,
  "solcInputHash": "99c9ef5f7ef53ea99ef6c816b26b1e5c",
  "bytecode": "0x60a06040523480156200001157600080fd5b5060405162001ca838038062001ca883398101604081905262000034916200015a565b6001805460ff19169055600380546001600160a01b03808616608052831668010000000000000000026001600160e01b03199091166001600160401b03851617179055620000846000336200008d565b505050620001b2565b6200009982826200009d565b5050565b6000828152602081815260408083206001600160a01b038516845290915290205460ff1662000099576000828152602081815260408083206001600160a01b03851684529091529020805460ff19166001179055620000f93390565b6001600160a01b0316816001600160a01b0316837f2f8788117e7eff1d82e926ec794901d17c78024a50270940304540a733656f0d60405160405180910390a45050565b80516001600160a01b03811681146200015557600080fd5b919050565b6000806000606084860312156200017057600080fd5b6200017b846200013d565b60208501519093506001600160401b03811681146200019957600080fd5b9150620001a9604085016200013d565b90509250925092565b608051611ac5620001e3600039600081816102ea0152818161057c015281816106cb0152610b6d0152611ac56000f3fe608060405234801561001057600080fd5b50600436106101a35760003560e01c80636f1c5de7116100ee578063a6471a1d11610097578063d48bfaeb11610071578063d48bfaeb14610452578063d547741f14610465578063e8e8d87e14610478578063f7b188a51461048b57600080fd5b8063a6471a1d146103ec578063d009b2d614610413578063d1052d1f1461042657600080fd5b806391d14854116100c857806391d148541461038457806397adedb5146103bb578063a217fddf146103e457600080fd5b80636f1c5de714610361578063830a053e146103695780638456cb591461037c57600080fd5b80632f2ff15d116101505780635c975abb1161012a5780635c975abb14610324578063663e54f91461032f57806369da91141461034257600080fd5b80632f2ff15d146102bf57806336568abe146102d2578063420fc4db146102e557600080fd5b806316934fc41161018157806316934fc4146101e25780631d5480531461024d578063248a9ca31461028e57600080fd5b806301ffc9a7146101a85780630aed7b0d146101d057806312236a77146101da575b600080fd5b6101bb6101b6366004611673565b610493565b60405190151581526020015b60405180910390f35b6101d861052c565b005b6101d8610645565b6102226101f03660046116d1565b600260208190526000918252604090912080546001820154928201546003830154600490930154919392909160ff1685565b60408051958652602086019490945292840191909152606083015260ff16608082015260a0016101c7565b61027c61025b3660046116d1565b6001600160a01b031660009081526002602052604090206004015460ff1690565b60405160ff90911681526020016101c7565b6102b161029c3660046116ec565b60009081526020819052604090206001015490565b6040519081526020016101c7565b6101d86102cd366004611705565b61079c565b6101d86102e0366004611705565b6107c6565b61030c7f000000000000000000000000000000000000000000000000000000000000000081565b6040516001600160a01b0390911681526020016101c7565b60015460ff166101bb565b6101d861033d366004611731565b610853565b60035461030c906801000000000000000090046001600160a01b031681565b6102b1610c9d565b6102b16103773660046116d1565b610cdd565b6101d8610d3e565b6101bb610392366004611705565b6000918252602082815260408084206001600160a01b0393909316845291905290205460ff1690565b6102b16103c93660046116d1565b6001600160a01b031660009081526002602052604090205490565b6102b1600081565b6102b17f3e35b14a9f4fef84b59f9bdcd3044fc28783144b7e42bfb2cd075e6a02cb082881565b6101d8610421366004611770565b610d95565b6102b16104343660046116d1565b6001600160a01b031660009081526002602052604090206003015490565b6101d861046036600461179a565b610e71565b6101d8610473366004611705565b610efd565b6101d8610486366004611770565b610f22565b6101d861109d565b60007fffffffff0000000000000000000000000000000000000000000000000000000082167f7965db0b00000000000000000000000000000000000000000000000000000000148061052657507f01ffc9a7000000000000000000000000000000000000000000000000000000007fffffffff000000000000000000000000000000000000000000000000000000008316145b92915050565b6105346110f4565b336000908152600260205260409020600301541561064357336000818152600260208190526040918290200154905163a9059cbb60e01b8152600481019290925260248201527f00000000000000000000000000000000000000000000000000000000000000006001600160a01b03169063a9059cbb906044016020604051808303816000875af11580156105cd573d6000803e3d6000fd5b505050506040513d601f19601f820116820180604052508101906105f191906117c4565b61060e576040516312171d8360e31b815260040160405180910390fd5b3360009081526002602081905260408220828155600181018390559081018290556003810191909155600401805460ff191690555b565b336000908152600260208190526040822090810154600182015460049092015490929161067691849060ff16611146565b61068090836117fc565b905080156107985733600090815260026020819052604082200180548392906106aa9084906117fc565b909155505060405163a9059cbb60e01b8152336004820152602481018290527f00000000000000000000000000000000000000000000000000000000000000006001600160a01b03169063a9059cbb906044016020604051808303816000875af115801561071c573d6000803e3d6000fd5b505050506040513d601f19601f8201168201806040525081019061074091906117c4565b61075d576040516312171d8360e31b815260040160405180910390fd5b60408051338152602081018390527f8108595eb6bad3acefa9da467d90cc2217686d5c5ac85460f8b7849c840645fc91015b60405180910390a15b5050565b6000828152602081905260409020600101546107b781611203565b6107c18383611210565b505050565b6001600160a01b03811633146108495760405162461bcd60e51b815260206004820152602f60248201527f416363657373436f6e74726f6c3a2063616e206f6e6c792072656e6f756e636560448201527f20726f6c657320666f722073656c66000000000000000000000000000000000060648201526084015b60405180910390fd5b61079882826112ae565b61085b61132d565b336000818152600260209081526040822080546003918201549154909491939265ff000000ff00600883811b91821664ff000000ff9490911c93841617601090811b67ff000000ff0000009290921666ff000000ff0000949094169390931790921c9190911780821b6bffffffffffffffff0000000016911c63ffffffff161760405160609290921b6bffffffffffffffffffffffff1916602083015260c01b7fffffffffffffffff000000000000000000000000000000000000000000000000166034820152603c8101879052605c0160405160208183030381529060405280519060200120905083600261095191906118f3565b6109639067016345785d8a0000611902565b8510801561096f575081155b156109a6576040517f8ecf3d0300000000000000000000000000000000000000000000000000000000815260040160405180910390fd5b81158015906109c75750336000908152600260205260409020600301544311155b156109fe576040517fa8cab3d100000000000000000000000000000000000000000000000000000000815260040160405180910390fd5b33600090815260026020819052604082200154610a1c908790611919565b90506000610a2b8660026118f3565b600360089054906101000a90046001600160a01b03166001600160a01b0316639d1b464a6040518163ffffffff1660e01b8152600401602060405180830381865afa158015610a7e573d6000803e3d6000fd5b505050506040513d601f19601f82011682018060405250810190610aa2919061192c565b63ffffffff16610ab29190611902565b610abc9083611952565b6040805160a0810182528581526020808201848152828401878152436060850190815260ff8d8116608087019081523360009081526002968790529790972095518655925160018601559051928401929092559051600383015591516004909101805460ff19169190921617905590508615610c52576040517f23b872dd000000000000000000000000000000000000000000000000000000008152336004820152306024820152604481018890527f00000000000000000000000000000000000000000000000000000000000000006001600160a01b0316906323b872dd906064016020604051808303816000875af1158015610bbe573d6000803e3d6000fd5b505050506040513d601f19601f82011682018060405250810190610be291906117c4565b610bff576040516312171d8360e31b815260040160405180910390fd5b604080518281526020810184905290810184905243606082015260ff8716608082015233907f8fb3da6e133de1007392b10d429548e9c2565c791c52e1498b01b65d8797e74c9060a00160405180910390a25b828514610c935760408051338152602081018590527fe188baf4bcb1c4413d19ba0eaef908614d30e8df9570d6fc4d584b75f4a37a3a910160405180910390a15b5050505050505050565b33600090815260026020819052604082209081015460018201546004909201549091610ccd91839060ff16611146565b610cd790826117fc565b91505090565b6001600160a01b0381166000908152600260205260408120600301544311610d06576000610526565b6001600160a01b038216600090815260026020819052604090912060018101549181015460049091015461052692919060ff16611146565b3360009081527fad3228b676f7d3cd4284a5443f17f1962b36e491b30a40b2405849e597ba5fb5602052604090205460ff16610d8d57604051631d77d47760e21b815260040160405180910390fd5b610643611380565b3360009081527f10fa80d2e578284bf61a483a3da84fbdd683a7e7256a9895dc4461ac543f4a16602052604090205460ff16610de457604051630490edbf60e31b815260040160405180910390fd5b6001600160a01b0382166000908152600260205260409020600301541561079857610e0f8143611919565b6001600160a01b038316600081815260026020908152604091829020600381019490945592548151928352928201929092529081018290527fd7863535575e7de6678ea9d340a4bfe0b84d77323bfa2ef602c3c1df82aea7809060600161078f565b3360009081527fad3228b676f7d3cd4284a5443f17f1962b36e491b30a40b2405849e597ba5fb5602052604090205460ff16610ed9576040517f82b4290000000000000000000000000000000000000000000000000000000000815260040160405180910390fd5b6003805467ffffffffffffffff191667ffffffffffffffff92909216919091179055565b600082815260208190526040902060010154610f1881611203565b6107c183836112ae565b3360009081527f10fa80d2e578284bf61a483a3da84fbdd683a7e7256a9895dc4461ac543f4a16602052604090205460ff16610f7157604051630490edbf60e31b815260040160405180910390fd5b6001600160a01b03821660009081526002602052604090206003015415611048576001600160a01b0382166000908152600260208190526040909120015481101561100a576001600160a01b03821660009081526002602081905260408220018054839290610fe19084906117fc565b90915550506001600160a01b038216600090815260026020526040902043600390910155611048565b6001600160a01b03821660009081526002602081905260408220828155600181018390559081018290556003810191909155600401805460ff191690555b6001600160a01b0382166000818152600260209081526040918290205482519384529083015281018290527f5f52ce031e6eba64e8a81288196b93a3e422096e80aea812f1f5a77866359b3a9060600161078f565b3360009081527fad3228b676f7d3cd4284a5443f17f1962b36e491b30a40b2405849e597ba5fb5602052604090205460ff166110ec57604051631d77d47760e21b815260040160405180910390fd5b6106436113d4565b60015460ff166106435760405162461bcd60e51b815260206004820152601460248201527f5061757361626c653a206e6f74207061757365640000000000000000000000006044820152606401610840565b600080600360089054906101000a90046001600160a01b03166001600160a01b0316639d1b464a6040518163ffffffff1660e01b8152600401602060405180830381865afa15801561119c573d6000803e3d6000fd5b505050506040513d601f19601f820116820180604052508101906111c0919061192c565b63ffffffff16856111d28560026118f3565b6111dc9190611902565b6111e69190611902565b9050838110156111f75790506111fc565b839150505b9392505050565b61120d813361140d565b50565b6000828152602081815260408083206001600160a01b038516845290915290205460ff16610798576000828152602081815260408083206001600160a01b03851684529091529020805460ff1916600117905561126a3390565b6001600160a01b0316816001600160a01b0316837f2f8788117e7eff1d82e926ec794901d17c78024a50270940304540a733656f0d60405160405180910390a45050565b6000828152602081815260408083206001600160a01b038516845290915290205460ff1615610798576000828152602081815260408083206001600160a01b0385168085529252808320805460ff1916905551339285917ff6391f5c32d9c69d2a47ea670b442974b53935d1edc7fd64eb21e047a839171b9190a45050565b60015460ff16156106435760405162461bcd60e51b815260206004820152601060248201527f5061757361626c653a20706175736564000000000000000000000000000000006044820152606401610840565b61138861132d565b6001805460ff1916811790557f62e78cea01bee320cd4e420270b5ea74000d11b0c9f74754ebdbfc544b05a258335b6040516001600160a01b03909116815260200160405180910390a1565b6113dc6110f4565b6001805460ff191690557f5db9ee0a495bf2e6ff9c91a7834c1ba4fdd244a5e8aa4e537bd38aeae4b073aa336113b7565b6000828152602081815260408083206001600160a01b038516845290915290205460ff166107985761143e81611480565b611449836020611492565b60405160200161145a929190611998565b60408051601f198184030181529082905262461bcd60e51b825261084091600401611a19565b60606105266001600160a01b03831660145b606060006114a1836002611902565b6114ac906002611919565b67ffffffffffffffff8111156114c4576114c4611a4c565b6040519080825280601f01601f1916602001820160405280156114ee576020820181803683370190505b5090507f30000000000000000000000000000000000000000000000000000000000000008160008151811061152557611525611a62565b60200101906001600160f81b031916908160001a9053507f78000000000000000000000000000000000000000000000000000000000000008160018151811061157057611570611a62565b60200101906001600160f81b031916908160001a9053506000611594846002611902565b61159f906001611919565b90505b6001811115611624577f303132333435363738396162636465660000000000000000000000000000000085600f16601081106115e0576115e0611a62565b1a60f81b8282815181106115f6576115f6611a62565b60200101906001600160f81b031916908160001a90535060049490941c9361161d81611a78565b90506115a2565b5083156111fc5760405162461bcd60e51b815260206004820181905260248201527f537472696e67733a20686578206c656e67746820696e73756666696369656e746044820152606401610840565b60006020828403121561168557600080fd5b81357fffffffff00000000000000000000000000000000000000000000000000000000811681146111fc57600080fd5b80356001600160a01b03811681146116cc57600080fd5b919050565b6000602082840312156116e357600080fd5b6111fc826116b5565b6000602082840312156116fe57600080fd5b5035919050565b6000806040838503121561171857600080fd5b82359150611728602084016116b5565b90509250929050565b60008060006060848603121561174657600080fd5b8335925060208401359150604084013560ff8116811461176557600080fd5b809150509250925092565b6000806040838503121561178357600080fd5b61178c836116b5565b946020939093013593505050565b6000602082840312156117ac57600080fd5b813567ffffffffffffffff811681146111fc57600080fd5b6000602082840312156117d657600080fd5b815180151581146111fc57600080fd5b634e487b7160e01b600052601160045260246000fd5b81810381811115610526576105266117e6565b600181815b8085111561184a578160001904821115611830576118306117e6565b8085161561183d57918102915b93841c9390800290611814565b509250929050565b60008261186157506001610526565b8161186e57506000610526565b8160018114611884576002811461188e576118aa565b6001915050610526565b60ff84111561189f5761189f6117e6565b50506001821b610526565b5060208310610133831016604e8410600b84101617156118cd575081810a610526565b6118d7838361180f565b80600019048211156118eb576118eb6117e6565b029392505050565b60006111fc60ff841683611852565b8082028115828204841417610526576105266117e6565b80820180821115610526576105266117e6565b60006020828403121561193e57600080fd5b815163ffffffff811681146111fc57600080fd5b60008261196f57634e487b7160e01b600052601260045260246000fd5b500490565b60005b8381101561198f578181015183820152602001611977565b50506000910152565b7f416363657373436f6e74726f6c3a206163636f756e74200000000000000000008152600083516119d0816017850160208801611974565b7f206973206d697373696e6720726f6c65200000000000000000000000000000006017918401918201528351611a0d816028840160208801611974565b01602801949350505050565b6020815260008251806020840152611a38816040850160208701611974565b601f01601f19169190910160400192915050565b634e487b7160e01b600052604160045260246000fd5b634e487b7160e01b600052603260045260246000fd5b600081611a8757611a876117e6565b50600019019056fea2646970667358221220ff91de3fa40e277999ea9df6f0ac0b44544ec6c733dc037c85cb8464053c758e64736f6c63430008130033",
  "devdoc": {
    "author": "The Swarm Authors",
    "details": "Allows users to stake tokens in order to be eligible for the Redistribution Schelling co-ordination game. Stakes are frozen or slashed by the Redistribution contract in response to violations of the protocol.",
    "events": {
      "OverlayChanged(address,bytes32)": {
        "details": "Emitted when a address changes overlay it uses"
      },
      "Paused(address)": {
        "details": "Emitted when the pause is triggered by `account`."
      },
      "RoleAdminChanged(bytes32,bytes32,bytes32)": {
        "details": "Emitted when `newAdminRole` is set as ``role``'s admin role, replacing `previousAdminRole` `DEFAULT_ADMIN_ROLE` is the starting admin for all roles, despite {RoleAdminChanged} not being emitted signaling this. _Available since v3.1._"
      },
      "RoleGranted(bytes32,address,address)": {
        "details": "Emitted when `account` is granted `role`. `sender` is the account that originated the contract call, an admin role bearer except when using {AccessControl-_setupRole}."
      },
      "RoleRevoked(bytes32,address,address)": {
        "details": "Emitted when `account` is revoked `role`. `sender` is the account that originated the contract call:   - if using `revokeRole`, it is the admin role bearer   - if using `renounceRole`, it is the role bearer (i.e. `account`)"
      },
      "StakeFrozen(address,bytes32,uint256)": {
        "details": "Emitted when a stake for address `frozen` is frozen for `time` blocks."
      },
      "StakeSlashed(address,bytes32,uint256)": {
        "details": "Emitted when a stake for address `slashed` is slashed by `amount`."
      },
      "StakeUpdated(address,uint256,uint256,bytes32,uint256,uint8)": {
        "details": "Emitted when a stake is created or updated by `owner` of the `overlay`."
      },
      "StakeWithdrawn(address,uint256)": {
        "details": "Emitted when a stake for address is withdrawn"
      },
      "Unpaused(address)": {
        "details": "Emitted when the pause is lifted by `account`."
      }
    },
    "kind": "dev",
    "methods": {
      "constructor": {
        "params": {
          "_NetworkId": "Swarm network ID",
          "_bzzToken": "Address of the staked ERC20 token"
        }
      },
      "freezeDeposit(address,uint256)": {
        "details": "Freeze an existing stake, can only be called by the redistributor",
        "params": {
          "_owner": "the addres selected",
          "_time": "penalty length in blocknumbers"
        }
      },
      "getRoleAdmin(bytes32)": {
        "details": "Returns the admin role that controls `role`. See {grantRole} and {revokeRole}. To change a role's admin, use {_setRoleAdmin}."
      },
      "grantRole(bytes32,address)": {
        "details": "Grants `role` to `account`. If `account` had not been already granted `role`, emits a {RoleGranted} event. Requirements: - the caller must have ``role``'s admin role. May emit a {RoleGranted} event."
      },
      "hasRole(bytes32,address)": {
        "details": "Returns `true` if `account` has been granted `role`."
      },
      "heightOfAddress(address)": {
        "details": "Returns the currently height of the address.",
        "params": {
          "_owner": "address of node"
        }
      },
      "lastUpdatedBlockNumberOfAddress(address)": {
        "details": "Returns the `lastUpdatedBlockNumber` of `address`."
      },
      "manageStake(bytes32,uint256,uint8)": {
        "details": "At least `_initialBalancePerChunk*2^depth` number of tokens need to be preapproved for this contract.",
        "params": {
          "_addAmount": "Deposited amount of ERC20 tokens, equals to added Potential stake value",
          "_height": "increased reserve by registering the number of doublings",
          "_setNonce": "Nonce that was used for overlay calculation."
        }
      },
      "migrateStake()": {
        "details": "Migrate stake only when the staking contract is paused, can only be called by the owner of the stake"
      },
      "nodeEffectiveStake(address)": {
        "details": "Returns the current `effectiveStake` of `address`. previously usable stake",
        "params": {
          "_owner": "_owner of node"
        }
      },
      "overlayOfAddress(address)": {
        "details": "Returns the currently used overlay of the address.",
        "params": {
          "_owner": "address of node"
        }
      },
      "pause()": {
        "details": "Pause the contract. The contract is provably stopped by renouncing the pauser role and the admin role after pausing, can only be called by the `PAUSER`"
      },
      "paused()": {
        "details": "Returns true if the contract is paused, and false otherwise."
      },
      "renounceRole(bytes32,address)": {
        "details": "Revokes `role` from the calling account. Roles are often managed via {grantRole} and {revokeRole}: this function's purpose is to provide a mechanism for accounts to lose their privileges if they are compromised (such as when a trusted device is misplaced). If the calling account had been revoked `role`, emits a {RoleRevoked} event. Requirements: - the caller must be `account`. May emit a {RoleRevoked} event."
      },
      "revokeRole(bytes32,address)": {
        "details": "Revokes `role` from `account`. If `account` had been granted `role`, emits a {RoleRevoked} event. Requirements: - the caller must have ``role``'s admin role. May emit a {RoleRevoked} event."
      },
      "slashDeposit(address,uint256)": {
        "details": "Slash an existing stake, can only be called by the `redistributor`",
        "params": {
          "_amount": "the amount to be slashed",
          "_owner": "the _owner adress selected"
        }
      },
      "supportsInterface(bytes4)": {
        "details": "See {IERC165-supportsInterface}."
      },
      "unPause()": {
        "details": "Unpause the contract, can only be called by the pauser when paused"
      },
      "withdrawFromStake()": {
        "details": "Withdraw node stake surplus"
      },
      "withdrawableStake()": {
        "details": "Check the amount that is possible to withdraw as surplus"
      }
    },
    "title": "Staking contract for the Swarm storage incentives",
    "version": 1
  },
  "userdoc": {
    "kind": "user",
    "methods": {
      "manageStake(bytes32,uint256,uint8)": {
        "notice": "Create a new stake or update an existing one, change overlay of node"
      }
    },
    "version": 1
  },
  "storageLayout": {
    "storage": [
      {
        "astId": 24,
        "contract": "src/Staking.sol:StakeRegistry",
        "label": "_roles",
        "offset": 0,
        "slot": "0",
        "type": "t_mapping(t_bytes32,t_struct(RoleData)19_storage)"
      },
      {
        "astId": 556,
        "contract": "src/Staking.sol:StakeRegistry",
        "label": "_paused",
        "offset": 0,
        "slot": "1",
        "type": "t_bool"
      },
      {
        "astId": 9861,
        "contract": "src/Staking.sol:StakeRegistry",
        "label": "stakes",
        "offset": 0,
        "slot": "2",
        "type": "t_mapping(t_address,t_struct(Stake)9856_storage)"
      },
      {
        "astId": 9868,
        "contract": "src/Staking.sol:StakeRegistry",
        "label": "NetworkId",
        "offset": 0,
        "slot": "3",
        "type": "t_uint64"
      },
      {
        "astId": 9876,
        "contract": "src/Staking.sol:StakeRegistry",
        "label": "OracleContract",
        "offset": 8,
        "slot": "3",
        "type": "t_contract(IPriceOracle)9840"
      }
    ],
    "types": {
      "t_address": {
        "encoding": "inplace",
        "label": "address",
        "numberOfBytes": "20"
      },
      "t_bool": {
        "encoding": "inplace",
        "label": "bool",
        "numberOfBytes": "1"
      },
      "t_bytes32": {
        "encoding": "inplace",
        "label": "bytes32",
        "numberOfBytes": "32"
      },
      "t_contract(IPriceOracle)9840": {
        "encoding": "inplace",
        "label": "contract IPriceOracle",
        "numberOfBytes": "20"
      },
      "t_mapping(t_address,t_bool)": {
        "encoding": "mapping",
        "key": "t_address",
        "label": "mapping(address => bool)",
        "numberOfBytes": "32",
        "value": "t_bool"
      },
      "t_mapping(t_address,t_struct(Stake)9856_storage)": {
        "encoding": "mapping",
        "key": "t_address",
        "label": "mapping(address => struct StakeRegistry.Stake)",
        "numberOfBytes": "32",
        "value": "t_struct(Stake)9856_storage"
      },
      "t_mapping(t_bytes32,t_struct(RoleData)19_storage)": {
        "encoding": "mapping",
        "key": "t_bytes32",
        "label": "mapping(bytes32 => struct AccessControl.RoleData)",
        "numberOfBytes": "32",
        "value": "t_struct(RoleData)19_storage"
      },
      "t_struct(RoleData)19_storage": {
        "encoding": "inplace",
        "label": "struct AccessControl.RoleData",
        "members": [
          {
            "astId": 16,
            "contract": "src/Staking.sol:StakeRegistry",
            "label": "members",
            "offset": 0,
            "slot": "0",
            "type": "t_mapping(t_address,t_bool)"
          },
          {
            "astId": 18,
            "contract": "src/Staking.sol:StakeRegistry",
            "label": "adminRole",
            "offset": 0,
            "slot": "1",
            "type": "t_bytes32"
          }
        ],
        "numberOfBytes": "64"
      },
      "t_struct(Stake)9856_storage": {
        "encoding": "inplace",
        "label": "struct StakeRegistry.Stake",
        "members": [
          {
            "astId": 9847,
            "contract": "src/Staking.sol:StakeRegistry",
            "label": "overlay",
            "offset": 0,
            "slot": "0",
            "type": "t_bytes32"
          },
          {
            "astId": 9849,
            "contract": "src/Staking.sol:StakeRegistry",
            "label": "committedStake",
            "offset": 0,
            "slot": "1",
            "type": "t_uint256"
          },
          {
            "astId": 9851,
            "contract": "src/Staking.sol:StakeRegistry",
            "label": "potentialStake",
            "offset": 0,
            "slot": "2",
            "type": "t_uint256"
          },
          {
            "astId": 9853,
            "contract": "src/Staking.sol:StakeRegistry",
            "label": "lastUpdatedBlockNumber",
            "offset": 0,
            "slot": "3",
            "type": "t_uint256"
          },
          {
            "astId": 9855,
            "contract": "src/Staking.sol:StakeRegistry",
            "label": "height",
            "offset": 0,
            "slot": "4",
            "type": "t_uint8"
          }
        ],
        "numberOfBytes": "160"
      },
      "t_uint256": {
        "encoding": "inplace",
        "label": "uint256",
        "numberOfBytes": "32"
      },
      "t_uint64": {
        "encoding": "inplace",
        "label": "uint64",
        "numberOfBytes": "8"
      },
      "t_uint8": {
        "encoding": "inplace",
        "label": "uint8",
        "numberOfBytes": "1"
      }
    }
  }
}